{
  "contractName": "ChainLot",
  "abi": [
    {
      "constant": true,
      "inputs": [],
      "name": "clToken",
      "outputs": [
        {
          "name": "",
          "type": "address"
        }
      ],
      "payable": false,
      "stateMutability": "view",
      "type": "function"
    },
    {
      "constant": true,
      "inputs": [],
      "name": "currentPoolIndex",
      "outputs": [
        {
          "name": "",
          "type": "uint256"
        }
      ],
      "payable": false,
      "stateMutability": "view",
      "type": "function"
    },
    {
      "constant": true,
      "inputs": [],
      "name": "clpFactory",
      "outputs": [
        {
          "name": "",
          "type": "address"
        }
      ],
      "payable": false,
      "stateMutability": "view",
      "type": "function"
    },
    {
      "constant": true,
      "inputs": [],
      "name": "totalNumberCount",
      "outputs": [
        {
          "name": "",
          "type": "uint8"
        }
      ],
      "payable": false,
      "stateMutability": "view",
      "type": "function"
    },
    {
      "constant": true,
      "inputs": [],
      "name": "maxYellowNumberCount",
      "outputs": [
        {
          "name": "",
          "type": "uint8"
        }
      ],
      "payable": false,
      "stateMutability": "view",
      "type": "function"
    },
    {
      "constant": true,
      "inputs": [],
      "name": "latestPoolBlockNumber",
      "outputs": [
        {
          "name": "",
          "type": "uint256"
        }
      ],
      "payable": false,
      "stateMutability": "view",
      "type": "function"
    },
    {
      "constant": true,
      "inputs": [],
      "name": "maxYellowNumber",
      "outputs": [
        {
          "name": "",
          "type": "uint8"
        }
      ],
      "payable": false,
      "stateMutability": "view",
      "type": "function"
    },
    {
      "constant": true,
      "inputs": [],
      "name": "currentPool",
      "outputs": [
        {
          "name": "",
          "type": "address"
        }
      ],
      "payable": false,
      "stateMutability": "view",
      "type": "function"
    },
    {
      "constant": true,
      "inputs": [],
      "name": "maxWhiteNumber",
      "outputs": [
        {
          "name": "",
          "type": "uint8"
        }
      ],
      "payable": false,
      "stateMutability": "view",
      "type": "function"
    },
    {
      "constant": true,
      "inputs": [],
      "name": "tokenSum",
      "outputs": [
        {
          "name": "",
          "type": "uint256"
        }
      ],
      "payable": false,
      "stateMutability": "view",
      "type": "function"
    },
    {
      "constant": true,
      "inputs": [],
      "name": "owner",
      "outputs": [
        {
          "name": "",
          "type": "address"
        }
      ],
      "payable": false,
      "stateMutability": "view",
      "type": "function"
    },
    {
      "constant": true,
      "inputs": [
        {
          "name": "",
          "type": "uint256"
        }
      ],
      "name": "chainlotPools",
      "outputs": [
        {
          "name": "",
          "type": "address"
        }
      ],
      "payable": false,
      "stateMutability": "view",
      "type": "function"
    },
    {
      "constant": true,
      "inputs": [],
      "name": "maxWhiteNumberCount",
      "outputs": [
        {
          "name": "",
          "type": "uint8"
        }
      ],
      "payable": false,
      "stateMutability": "view",
      "type": "function"
    },
    {
      "constant": true,
      "inputs": [
        {
          "name": "",
          "type": "address"
        }
      ],
      "name": "chainlotPoolsMap",
      "outputs": [
        {
          "name": "",
          "type": "bool"
        }
      ],
      "payable": false,
      "stateMutability": "view",
      "type": "function"
    },
    {
      "constant": true,
      "inputs": [],
      "name": "etherPerTicket",
      "outputs": [
        {
          "name": "",
          "type": "uint256"
        }
      ],
      "payable": false,
      "stateMutability": "view",
      "type": "function"
    },
    {
      "constant": true,
      "inputs": [],
      "name": "awardIntervalNumber",
      "outputs": [
        {
          "name": "",
          "type": "uint256"
        }
      ],
      "payable": false,
      "stateMutability": "view",
      "type": "function"
    },
    {
      "constant": true,
      "inputs": [],
      "name": "chainLotTicket",
      "outputs": [
        {
          "name": "",
          "type": "address"
        }
      ],
      "payable": false,
      "stateMutability": "view",
      "type": "function"
    },
    {
      "constant": false,
      "inputs": [
        {
          "name": "newOwner",
          "type": "address"
        }
      ],
      "name": "transferOwnership",
      "outputs": [],
      "payable": false,
      "stateMutability": "nonpayable",
      "type": "function"
    },
    {
      "inputs": [
        {
          "name": "_maxWhiteNumber",
          "type": "uint8"
        },
        {
          "name": "_maxYellowNumber",
          "type": "uint8"
        },
        {
          "name": "_whiteNumberCount",
          "type": "uint8"
        },
        {
          "name": "_yellowNumberCount",
          "type": "uint8"
        },
        {
          "name": "_etherPerTicket",
          "type": "uint256"
        },
        {
          "name": "_awardIntervalNumber",
          "type": "uint256"
        },
        {
          "name": "_awardRulesArray",
          "type": "uint256[]"
        }
      ],
      "payable": false,
      "stateMutability": "nonpayable",
      "type": "constructor"
    },
    {
      "anonymous": false,
      "inputs": [
        {
          "indexed": false,
          "name": "poolBlockNumber",
          "type": "uint256"
        },
        {
          "indexed": false,
          "name": "numbers",
          "type": "bytes"
        },
        {
          "indexed": false,
          "name": "ticketCount",
          "type": "uint256"
        },
        {
          "indexed": false,
          "name": "ticketId",
          "type": "uint256"
        },
        {
          "indexed": false,
          "name": "user",
          "type": "address"
        },
        {
          "indexed": false,
          "name": "blockNumber",
          "type": "uint256"
        },
        {
          "indexed": false,
          "name": "totalTicketCountSum",
          "type": "uint256"
        },
        {
          "indexed": false,
          "name": "value",
          "type": "uint256"
        }
      ],
      "name": "BuyTicket",
      "type": "event"
    },
    {
      "anonymous": false,
      "inputs": [
        {
          "indexed": false,
          "name": "jackpotNumbers",
          "type": "bytes"
        },
        {
          "indexed": false,
          "name": "poolBlockNumber",
          "type": "uint256"
        },
        {
          "indexed": false,
          "name": "allTicketsCount",
          "type": "uint256"
        }
      ],
      "name": "PrepareAward",
      "type": "event"
    },
    {
      "anonymous": false,
      "inputs": [
        {
          "indexed": false,
          "name": "jackpotNumbers",
          "type": "bytes"
        },
        {
          "indexed": false,
          "name": "ticketNumber",
          "type": "bytes32"
        },
        {
          "indexed": false,
          "name": "ticketCount",
          "type": "uint256"
        },
        {
          "indexed": false,
          "name": "ticketId",
          "type": "uint256"
        },
        {
          "indexed": false,
          "name": "user",
          "type": "address"
        },
        {
          "indexed": false,
          "name": "blockNumber",
          "type": "uint256"
        },
        {
          "indexed": false,
          "name": "awardValue",
          "type": "uint256"
        }
      ],
      "name": "ToBeAward",
      "type": "event"
    },
    {
      "anonymous": false,
      "inputs": [
        {
          "indexed": false,
          "name": "jackpotNumbers",
          "type": "bytes"
        },
        {
          "indexed": false,
          "name": "lastMatchedTicketIndex",
          "type": "uint256"
        },
        {
          "indexed": false,
          "name": "endIndex",
          "type": "uint256"
        },
        {
          "indexed": false,
          "name": "allTicketsCount",
          "type": "uint256"
        }
      ],
      "name": "MatchAwards",
      "type": "event"
    },
    {
      "anonymous": false,
      "inputs": [
        {
          "indexed": false,
          "name": "jackpotNumbers",
          "type": "bytes"
        },
        {
          "indexed": false,
          "name": "ticketNumber",
          "type": "bytes32"
        },
        {
          "indexed": false,
          "name": "ticketCount",
          "type": "uint256"
        },
        {
          "indexed": false,
          "name": "ticketId",
          "type": "uint256"
        },
        {
          "indexed": false,
          "name": "blockNumber",
          "type": "uint256"
        },
        {
          "indexed": false,
          "name": "ruleId",
          "type": "uint256"
        },
        {
          "indexed": false,
          "name": "ruleEther",
          "type": "uint256"
        }
      ],
      "name": "MatchRule",
      "type": "event"
    },
    {
      "anonymous": false,
      "inputs": [
        {
          "indexed": false,
          "name": "winner",
          "type": "address"
        },
        {
          "indexed": false,
          "name": "value",
          "type": "uint256"
        }
      ],
      "name": "TransferAward",
      "type": "event"
    },
    {
      "anonymous": false,
      "inputs": [
        {
          "indexed": false,
          "name": "dev",
          "type": "address"
        },
        {
          "indexed": false,
          "name": "value",
          "type": "uint256"
        }
      ],
      "name": "TransferDevCut",
      "type": "event"
    },
    {
      "anonymous": false,
      "inputs": [
        {
          "indexed": false,
          "name": "user",
          "type": "address"
        },
        {
          "indexed": false,
          "name": "value",
          "type": "uint256"
        }
      ],
      "name": "TransferHistoryCut",
      "type": "event"
    },
    {
      "anonymous": false,
      "inputs": [
        {
          "indexed": false,
          "name": "added",
          "type": "uint256"
        },
        {
          "indexed": false,
          "name": "total",
          "type": "uint256"
        }
      ],
      "name": "AddHistoryCut",
      "type": "event"
    },
    {
      "anonymous": false,
      "inputs": [
        {
          "indexed": false,
          "name": "ruleId",
          "type": "uint8"
        },
        {
          "indexed": false,
          "name": "winnersTicketCount",
          "type": "uint256"
        },
        {
          "indexed": false,
          "name": "awardEther",
          "type": "uint256"
        },
        {
          "indexed": false,
          "name": "totalWinnersAward",
          "type": "uint256"
        },
        {
          "indexed": false,
          "name": "totalTicketCount",
          "type": "uint256"
        }
      ],
      "name": "CalculateAwards",
      "type": "event"
    },
    {
      "anonymous": false,
      "inputs": [
        {
          "indexed": false,
          "name": "ruleId",
          "type": "uint8"
        },
        {
          "indexed": false,
          "name": "totalWinnersAward",
          "type": "uint256"
        },
        {
          "indexed": false,
          "name": "leftBalance",
          "type": "uint256"
        }
      ],
      "name": "SplitAward",
      "type": "event"
    },
    {
      "anonymous": false,
      "inputs": [
        {
          "indexed": false,
          "name": "currentPoolBlockNumber",
          "type": "uint256"
        },
        {
          "indexed": false,
          "name": "nextPoolBlockNumber",
          "type": "uint256"
        },
        {
          "indexed": false,
          "name": "length",
          "type": "uint256"
        }
      ],
      "name": "GenerateNewPool",
      "type": "event"
    },
    {
      "anonymous": false,
      "inputs": [
        {
          "indexed": false,
          "name": "from",
          "type": "address"
        },
        {
          "indexed": false,
          "name": "to",
          "type": "address"
        },
        {
          "indexed": false,
          "name": "value",
          "type": "uint256"
        }
      ],
      "name": "TransferUnawarded",
      "type": "event"
    },
    {
      "anonymous": false,
      "inputs": [
        {
          "indexed": false,
          "name": "currentPoolblockNumber",
          "type": "uint256"
        },
        {
          "indexed": false,
          "name": "currentPool",
          "type": "address"
        },
        {
          "indexed": false,
          "name": "currentPoolIndex",
          "type": "uint256"
        }
      ],
      "name": "SwitchPool",
      "type": "event"
    },
    {
      "anonymous": false,
      "inputs": [
        {
          "indexed": false,
          "name": "random",
          "type": "uint256"
        },
        {
          "indexed": false,
          "name": "blockNumber",
          "type": "uint256"
        },
        {
          "indexed": false,
          "name": "hash",
          "type": "uint256"
        },
        {
          "indexed": false,
          "name": "addressInt",
          "type": "uint256"
        },
        {
          "indexed": false,
          "name": "shift",
          "type": "uint256"
        },
        {
          "indexed": false,
          "name": "timestamp",
          "type": "uint256"
        },
        {
          "indexed": false,
          "name": "difficulty",
          "type": "uint256"
        }
      ],
      "name": "GenRandomNumbers",
      "type": "event"
    },
    {
      "anonymous": false,
      "inputs": [
        {
          "indexed": false,
          "name": "msg",
          "type": "uint256"
        }
      ],
      "name": "LOG",
      "type": "event"
    },
    {
      "constant": false,
      "inputs": [],
      "name": "newPool",
      "outputs": [],
      "payable": false,
      "stateMutability": "nonpayable",
      "type": "function"
    },
    {
      "constant": false,
      "inputs": [
        {
          "name": "numbers",
          "type": "bytes"
        },
        {
          "name": "referer",
          "type": "address"
        }
      ],
      "name": "buyTicket",
      "outputs": [],
      "payable": true,
      "stateMutability": "payable",
      "type": "function"
    },
    {
      "constant": false,
      "inputs": [
        {
          "name": "referer",
          "type": "address"
        }
      ],
      "name": "buyRandom",
      "outputs": [],
      "payable": true,
      "stateMutability": "payable",
      "type": "function"
    },
    {
      "constant": false,
      "inputs": [
        {
          "name": "_owner",
          "type": "address"
        },
        {
          "name": "_numbers",
          "type": "bytes"
        },
        {
          "name": "_count",
          "type": "uint256"
        }
      ],
      "name": "mint",
      "outputs": [
        {
          "name": "",
          "type": "uint256"
        }
      ],
      "payable": false,
      "stateMutability": "nonpayable",
      "type": "function"
    },
    {
      "constant": false,
      "inputs": [
        {
          "name": "_from",
          "type": "address"
        },
        {
          "name": "_value",
          "type": "uint256"
        },
        {
          "name": "_token",
          "type": "address"
        },
        {
          "name": "_extraData",
          "type": "bytes"
        }
      ],
      "name": "receiveApproval",
      "outputs": [],
      "payable": false,
      "stateMutability": "nonpayable",
      "type": "function"
    },
    {
      "constant": false,
      "inputs": [
        {
          "name": "ticketAddress",
          "type": "address"
        }
      ],
      "name": "setChainLotTicketAddress",
      "outputs": [],
      "payable": false,
      "stateMutability": "nonpayable",
      "type": "function"
    },
    {
      "constant": false,
      "inputs": [
        {
          "name": "tokenAddress",
          "type": "address"
        }
      ],
      "name": "setCLTokenAddress",
      "outputs": [],
      "payable": false,
      "stateMutability": "nonpayable",
      "type": "function"
    },
    {
      "constant": false,
      "inputs": [
        {
          "name": "factoryAddress",
          "type": "address"
        }
      ],
      "name": "setChainLotPoolFactoryAddress",
      "outputs": [],
      "payable": false,
      "stateMutability": "nonpayable",
      "type": "function"
    },
    {
      "constant": false,
      "inputs": [
        {
          "name": "_drawingToolAddress",
          "type": "address"
        }
      ],
      "name": "setDrawingToolAddress",
      "outputs": [],
      "payable": false,
      "stateMutability": "nonpayable",
      "type": "function"
    },
    {
      "constant": false,
      "inputs": [
        {
          "name": "value",
          "type": "uint256"
        }
      ],
      "name": "withDrawDevCut",
      "outputs": [],
      "payable": false,
      "stateMutability": "nonpayable",
      "type": "function"
    },
    {
      "constant": false,
      "inputs": [
        {
          "name": "poolStart",
          "type": "uint256"
        },
        {
          "name": "poolEnd",
          "type": "uint256"
        },
        {
          "name": "ticketIds",
          "type": "uint256[]"
        }
      ],
      "name": "withDrawHistoryCut",
      "outputs": [],
      "payable": false,
      "stateMutability": "nonpayable",
      "type": "function"
    },
    {
      "constant": true,
      "inputs": [
        {
          "name": "user",
          "type": "address"
        },
        {
          "name": "poolStart",
          "type": "uint256"
        },
        {
          "name": "poolEnd",
          "type": "uint256"
        },
        {
          "name": "ticketIds",
          "type": "uint256[]"
        }
      ],
      "name": "listUserHistoryCut",
      "outputs": [
        {
          "name": "_poolCuts",
          "type": "uint256[]"
        }
      ],
      "payable": false,
      "stateMutability": "view",
      "type": "function"
    },
    {
      "constant": true,
      "inputs": [],
      "name": "retrievePoolInfo",
      "outputs": [
        {
          "name": "poolTokens",
          "type": "uint256"
        },
        {
          "name": "poolBlockNumber",
          "type": "uint256"
        },
        {
          "name": "totalPoolTokens",
          "type": "uint256"
        },
        {
          "name": "poolCount",
          "type": "uint256"
        }
      ],
      "payable": false,
      "stateMutability": "view",
      "type": "function"
    }
  ],
  "bytecode": "0x6060604052600060095534156200001557600080fd5b604051620027723803806200277283398101604052808051906020019091908051906020019091908051906020019091908051906020019091908051906020019091908051906020019091908051820191905050336000806101000a81548173ffffffffffffffffffffffffffffffffffffffff021916908373ffffffffffffffffffffffffffffffffffffffff16021790555086600060146101000a81548160ff021916908360ff16021790555085600060156101000a81548160ff021916908360ff16021790555084600460006101000a81548160ff021916908360ff16021790555083600460016101000a81548160ff021916908360ff1602179055508260018190555081600281905550600460019054906101000a900460ff16600460009054906101000a900460ff1601600460026101000a81548160ff021916908360ff16021790555080600690805190602001906200017692919062000184565b5050505050505050620001fe565b828054828255906000526020600020908101928215620001c3579160200282015b82811115620001c2578251825591602001919060010190620001a5565b5b509050620001d29190620001d6565b5090565b620001fb91905b80821115620001f7576000816000905550600101620001dd565b5090565b90565b612564806200020e6000396000f30060606040526004361061018a576000357c0100000000000000000000000000000000000000000000000000000000900463ffffffff16806259f7ef1461018f5780630800e5f1146101c85780630850cc4b1461021d5780630b027fb61461024b5780630f11779b1461027457806314c519801461028957806316205520146102de5780631c0913c91461030d578063363da6071461033057806337f4a9c4146103e45780633e191a12146104135780633f12fdaa1461044c578063483ab117146104855780635f7d9287146104ae578063692b69ae146104dd5780636ea6c8b21461053257806370f4c343146105a3578063775ed63d146105d2578063889637711461063c5780638da5cb5b146106655780638f4ffcb1146106ba578063923855381461075e5780639c7365e5146107c1578063a05863b6146107f0578063a8450e721461082e578063b1a1af381461087f578063b86d7c6c146108b8578063b9d62841146108e1578063e1e3af691461090a578063ee05a5d51461095f578063f2fde38b1461099f575b600080fd5b341561019a57600080fd5b6101c6600480803573ffffffffffffffffffffffffffffffffffffffff169060200190919050506109d8565b005b34156101d357600080fd5b6101db610a77565b604051808273ffffffffffffffffffffffffffffffffffffffff1673ffffffffffffffffffffffffffffffffffffffff16815260200191505060405180910390f35b610249600480803573ffffffffffffffffffffffffffffffffffffffff16906020019091905050610a9d565b005b341561025657600080fd5b61025e610b89565b6040518082815260200191505060405180910390f35b341561027f57600080fd5b610287610b8f565b005b341561029457600080fd5b61029c6112b6565b604051808273ffffffffffffffffffffffffffffffffffffffff1673ffffffffffffffffffffffffffffffffffffffff16815260200191505060405180910390f35b34156102e957600080fd5b6102f16112dc565b604051808260ff1660ff16815260200191505060405180910390f35b341561031857600080fd5b61032e60048080359060200190919050506112ef565b005b341561033b57600080fd5b61038d600480803573ffffffffffffffffffffffffffffffffffffffff169060200190919080359060200190919080359060200190919080359060200190820180359060200191909192905050611446565b6040518080602001828103825283818151815260200191508051906020019060200280838360005b838110156103d05780820151818401526020810190506103b5565b505050509050019250505060405180910390f35b34156103ef57600080fd5b6103f76115ff565b604051808260ff1660ff16815260200191505060405180910390f35b341561041e57600080fd5b61044a600480803573ffffffffffffffffffffffffffffffffffffffff16906020019091905050611612565b005b341561045757600080fd5b610483600480803573ffffffffffffffffffffffffffffffffffffffff169060200190919050506116b1565b005b341561049057600080fd5b610498611750565b6040518082815260200191505060405180910390f35b34156104b957600080fd5b6104c1611756565b604051808260ff1660ff16815260200191505060405180910390f35b34156104e857600080fd5b6104f0611769565b604051808273ffffffffffffffffffffffffffffffffffffffff1673ffffffffffffffffffffffffffffffffffffffff16815260200191505060405180910390f35b6105a1600480803590602001908201803590602001908080601f0160208091040260200160405190810160405280939291908181526020018383808284378201915050505050509190803573ffffffffffffffffffffffffffffffffffffffff1690602001909190505061178f565b005b34156105ae57600080fd5b6105b66118e9565b604051808260ff1660ff16815260200191505060405180910390f35b34156105dd57600080fd5b610626600480803573ffffffffffffffffffffffffffffffffffffffff1690602001909190803590602001908201803590602001919091929080359060200190919050506118fc565b6040518082815260200191505060405180910390f35b341561064757600080fd5b61064f611a6a565b6040518082815260200191505060405180910390f35b341561067057600080fd5b610678611a70565b604051808273ffffffffffffffffffffffffffffffffffffffff1673ffffffffffffffffffffffffffffffffffffffff16815260200191505060405180910390f35b34156106c557600080fd5b61075c600480803573ffffffffffffffffffffffffffffffffffffffff1690602001909190803590602001909190803573ffffffffffffffffffffffffffffffffffffffff1690602001909190803590602001908201803590602001908080601f01602080910402602001604051908101604052809392919081815260200183838082843782019150505050505091905050611a95565b005b341561076957600080fd5b61077f6004808035906020019091905050611d26565b604051808273ffffffffffffffffffffffffffffffffffffffff1673ffffffffffffffffffffffffffffffffffffffff16815260200191505060405180910390f35b34156107cc57600080fd5b6107d4611d65565b604051808260ff1660ff16815260200191505060405180910390f35b34156107fb57600080fd5b610803611d78565b6040518085815260200184815260200183815260200182815260200194505050505060405180910390f35b341561083957600080fd5b610865600480803573ffffffffffffffffffffffffffffffffffffffff16906020019091905050611f40565b604051808215151515815260200191505060405180910390f35b341561088a57600080fd5b6108b6600480803573ffffffffffffffffffffffffffffffffffffffff16906020019091905050611f60565b005b34156108c357600080fd5b6108cb611fff565b6040518082815260200191505060405180910390f35b34156108ec57600080fd5b6108f4612005565b6040518082815260200191505060405180910390f35b341561091557600080fd5b61091d61200b565b604051808273ffffffffffffffffffffffffffffffffffffffff1673ffffffffffffffffffffffffffffffffffffffff16815260200191505060405180910390f35b341561096a57600080fd5b61099d60048080359060200190919080359060200190919080359060200190820180359060200191909192905050612031565b005b34156109aa57600080fd5b6109d6600480803573ffffffffffffffffffffffffffffffffffffffff1690602001909190505061214e565b005b6000809054906101000a900473ffffffffffffffffffffffffffffffffffffffff1673ffffffffffffffffffffffffffffffffffffffff163373ffffffffffffffffffffffffffffffffffffffff16141515610a3357600080fd5b80600e60006101000a81548173ffffffffffffffffffffffffffffffffffffffff021916908373ffffffffffffffffffffffffffffffffffffffff16021790555050565b600b60009054906101000a900473ffffffffffffffffffffffffffffffffffffffff1681565b610aa56121ec565b600d60009054906101000a900473ffffffffffffffffffffffffffffffffffffffff1673ffffffffffffffffffffffffffffffffffffffff16630850cc4b34836040518363ffffffff167c0100000000000000000000000000000000000000000000000000000000028152600401808273ffffffffffffffffffffffffffffffffffffffff1673ffffffffffffffffffffffffffffffffffffffff1681526020019150506000604051808303818588803b1515610b6157600080fd5b6125ee5a03f11515610b7257600080fd5b505050503460036000828254019250508190555050565b60095481565b60008060009054906101000a900473ffffffffffffffffffffffffffffffffffffffff1673ffffffffffffffffffffffffffffffffffffffff163373ffffffffffffffffffffffffffffffffffffffff16141515610bec57600080fd5b600c60009054906101000a900473ffffffffffffffffffffffffffffffffffffffff1673ffffffffffffffffffffffffffffffffffffffff1663b5533d39600554600060149054906101000a900460ff16600060159054906101000a900460ff16600460009054906101000a900460ff16600460019054906101000a900460ff1660025460015460066000604051602001526040518963ffffffff167c0100000000000000000000000000000000000000000000000000000000028152600401808981526020018860ff1660ff1681526020018760ff1660ff1681526020018660ff1660ff1681526020018560ff1660ff168152602001848152602001838152602001806020018281038252838181548152602001915080548015610d3057602002820191906000526020600020905b815481526020019060010190808311610d1c575b50509950505050505050505050602060405180830381600087803b1515610d5657600080fd5b6102c65a03f11515610d6757600080fd5b505050604051805190509050600c60009054906101000a900473ffffffffffffffffffffffffffffffffffffffff1673ffffffffffffffffffffffffffffffffffffffff1663c03c424a82600a60009054906101000a900473ffffffffffffffffffffffffffffffffffffffff16600b60009054906101000a900473ffffffffffffffffffffffffffffffffffffffff1630600e60009054906101000a900473ffffffffffffffffffffffffffffffffffffffff166040518663ffffffff167c0100000000000000000000000000000000000000000000000000000000028152600401808673ffffffffffffffffffffffffffffffffffffffff1673ffffffffffffffffffffffffffffffffffffffff1681526020018573ffffffffffffffffffffffffffffffffffffffff1673ffffffffffffffffffffffffffffffffffffffff1681526020018473ffffffffffffffffffffffffffffffffffffffff1673ffffffffffffffffffffffffffffffffffffffff1681526020018373ffffffffffffffffffffffffffffffffffffffff1673ffffffffffffffffffffffffffffffffffffffff1681526020018273ffffffffffffffffffffffffffffffffffffffff1673ffffffffffffffffffffffffffffffffffffffff16815260200195505050505050600060405180830381600087803b1515610f6557600080fd5b6102c65a03f11515610f7657600080fd5b5050508073ffffffffffffffffffffffffffffffffffffffff16639eb623d76000604051602001526040518163ffffffff167c0100000000000000000000000000000000000000000000000000000000028152600401602060405180830381600087803b1515610fe557600080fd5b6102c65a03f11515610ff657600080fd5b5050506040518051905060058190555060008173ffffffffffffffffffffffffffffffffffffffff161415156112b3576007805480600101828161103a91906124d3565b9160005260206000209001600083909190916101000a81548173ffffffffffffffffffffffffffffffffffffffff021916908373ffffffffffffffffffffffffffffffffffffffff160217905550506001600860008373ffffffffffffffffffffffffffffffffffffffff1673ffffffffffffffffffffffffffffffffffffffff16815260200190815260200160002060006101000a81548160ff0219169083151502179055506000600d60009054906101000a900473ffffffffffffffffffffffffffffffffffffffff1673ffffffffffffffffffffffffffffffffffffffff1614156112b25780600d60006101000a81548173ffffffffffffffffffffffffffffffffffffffff021916908373ffffffffffffffffffffffffffffffffffffffff1602179055506001600780549050036009819055507f3e3b2a1d3103b12ee8a1409b8e0b9a1791e8a18afe6ddcf8b8417adccde34775600d60009054906101000a900473ffffffffffffffffffffffffffffffffffffffff1673ffffffffffffffffffffffffffffffffffffffff16639eb623d76000604051602001526040518163ffffffff167c0100000000000000000000000000000000000000000000000000000000028152600401602060405180830381600087803b151561122157600080fd5b6102c65a03f1151561123257600080fd5b50505060405180519050600d60009054906101000a900473ffffffffffffffffffffffffffffffffffffffff16600954604051808481526020018373ffffffffffffffffffffffffffffffffffffffff1673ffffffffffffffffffffffffffffffffffffffff168152602001828152602001935050505060405180910390a15b5b50565b600c60009054906101000a900473ffffffffffffffffffffffffffffffffffffffff1681565b600460029054906101000a900460ff1681565b6000809054906101000a900473ffffffffffffffffffffffffffffffffffffffff1673ffffffffffffffffffffffffffffffffffffffff163373ffffffffffffffffffffffffffffffffffffffff1614151561134a57600080fd5b600b60009054906101000a900473ffffffffffffffffffffffffffffffffffffffff1673ffffffffffffffffffffffffffffffffffffffff1663a9059cbb6000809054906101000a900473ffffffffffffffffffffffffffffffffffffffff16836040518363ffffffff167c0100000000000000000000000000000000000000000000000000000000028152600401808373ffffffffffffffffffffffffffffffffffffffff1673ffffffffffffffffffffffffffffffffffffffff16815260200182815260200192505050600060405180830381600087803b151561142f57600080fd5b6102c65a03f1151561144057600080fd5b50505050565b61144e6124ff565b6114566124ff565b6000868611151561146657600080fd5b600780549050861115151561147a57600080fd5b86860360405180591061148a5750595b908082528060200260200182016040525091508690505b858110156115f1576007818154811015156114b857fe5b906000526020600020900160009054906101000a900473ffffffffffffffffffffffffffffffffffffffff1673ffffffffffffffffffffffffffffffffffffffff1663ee5bac898987876000604051602001526040518463ffffffff167c0100000000000000000000000000000000000000000000000000000000028152600401808473ffffffffffffffffffffffffffffffffffffffff1673ffffffffffffffffffffffffffffffffffffffff1681526020018060200182810382528484828181526020019250602002808284378201915050945050505050602060405180830381600087803b15156115ab57600080fd5b6102c65a03f115156115bc57600080fd5b50505060405180519050828883038151811015156115d657fe5b906020019060200201818152505080806001019150506114a1565b819250505095945050505050565b600460019054906101000a900460ff1681565b6000809054906101000a900473ffffffffffffffffffffffffffffffffffffffff1673ffffffffffffffffffffffffffffffffffffffff163373ffffffffffffffffffffffffffffffffffffffff1614151561166d57600080fd5b80600a60006101000a81548173ffffffffffffffffffffffffffffffffffffffff021916908373ffffffffffffffffffffffffffffffffffffffff16021790555050565b6000809054906101000a900473ffffffffffffffffffffffffffffffffffffffff1673ffffffffffffffffffffffffffffffffffffffff163373ffffffffffffffffffffffffffffffffffffffff1614151561170c57600080fd5b80600b60006101000a81548173ffffffffffffffffffffffffffffffffffffffff021916908373ffffffffffffffffffffffffffffffffffffffff16021790555050565b60055481565b600060159054906101000a900460ff1681565b600d60009054906101000a900473ffffffffffffffffffffffffffffffffffffffff1681565b6117976121ec565b600d60009054906101000a900473ffffffffffffffffffffffffffffffffffffffff1673ffffffffffffffffffffffffffffffffffffffff16636ea6c8b23484846040518463ffffffff167c010000000000000000000000000000000000000000000000000000000002815260040180806020018373ffffffffffffffffffffffffffffffffffffffff1673ffffffffffffffffffffffffffffffffffffffff168152602001828103825284818151815260200191508051906020019080838360005b8381101561187557808201518184015260208101905061185a565b50505050905090810190601f1680156118a25780820380516001836020036101000a031916815260200191505b5093505050506000604051808303818588803b15156118c057600080fd5b6125ee5a03f115156118d157600080fd5b50505050346003600082825401925050819055505050565b600060149054906101000a900460ff1681565b6000600860003373ffffffffffffffffffffffffffffffffffffffff1673ffffffffffffffffffffffffffffffffffffffff16815260200190815260200160002060009054906101000a900460ff16151561195657600080fd5b600a60009054906101000a900473ffffffffffffffffffffffffffffffffffffffff1673ffffffffffffffffffffffffffffffffffffffff1663775ed63d868686866000604051602001526040518563ffffffff167c0100000000000000000000000000000000000000000000000000000000028152600401808573ffffffffffffffffffffffffffffffffffffffff1673ffffffffffffffffffffffffffffffffffffffff168152602001806020018381526020018281038252858582818152602001925080828437820191505095505050505050602060405180830381600087803b1515611a4557600080fd5b6102c65a03f11515611a5657600080fd5b505050604051805190509050949350505050565b60035481565b6000809054906101000a900473ffffffffffffffffffffffffffffffffffffffff1681565b611a9d6121ec565b600b60009054906101000a900473ffffffffffffffffffffffffffffffffffffffff1673ffffffffffffffffffffffffffffffffffffffff1663a9059cbb600d60009054906101000a900473ffffffffffffffffffffffffffffffffffffffff16856040518363ffffffff167c0100000000000000000000000000000000000000000000000000000000028152600401808373ffffffffffffffffffffffffffffffffffffffff1673ffffffffffffffffffffffffffffffffffffffff16815260200182815260200192505050600060405180830381600087803b1515611b8357600080fd5b6102c65a03f11515611b9457600080fd5b505050600d60009054906101000a900473ffffffffffffffffffffffffffffffffffffffff1673ffffffffffffffffffffffffffffffffffffffff16638f4ffcb1858585856040518563ffffffff167c0100000000000000000000000000000000000000000000000000000000028152600401808573ffffffffffffffffffffffffffffffffffffffff1673ffffffffffffffffffffffffffffffffffffffff1681526020018481526020018373ffffffffffffffffffffffffffffffffffffffff1673ffffffffffffffffffffffffffffffffffffffff16815260200180602001828103825283818151815260200191508051906020019080838360005b83811015611cae578082015181840152602081019050611c93565b50505050905090810190601f168015611cdb5780820380516001836020036101000a031916815260200191505b5095505050505050600060405180830381600087803b1515611cfc57600080fd5b6102c65a03f11515611d0d57600080fd5b5050508260036000828254019250508190555050505050565b600781815481101515611d3557fe5b90600052602060002090016000915054906101000a900473ffffffffffffffffffffffffffffffffffffffff1681565b600460009054906101000a900460ff1681565b600080600080600b60009054906101000a900473ffffffffffffffffffffffffffffffffffffffff1673ffffffffffffffffffffffffffffffffffffffff166370a08231600d60009054906101000a900473ffffffffffffffffffffffffffffffffffffffff166000604051602001526040518263ffffffff167c0100000000000000000000000000000000000000000000000000000000028152600401808273ffffffffffffffffffffffffffffffffffffffff1673ffffffffffffffffffffffffffffffffffffffff168152602001915050602060405180830381600087803b1515611e6557600080fd5b6102c65a03f11515611e7657600080fd5b505050604051805190509350600d60009054906101000a900473ffffffffffffffffffffffffffffffffffffffff1673ffffffffffffffffffffffffffffffffffffffff16639eb623d76000604051602001526040518163ffffffff167c0100000000000000000000000000000000000000000000000000000000028152600401602060405180830381600087803b1515611f1057600080fd5b6102c65a03f11515611f2157600080fd5b5050506040518051905092506003549150600780549050905090919293565b60086020528060005260406000206000915054906101000a900460ff1681565b6000809054906101000a900473ffffffffffffffffffffffffffffffffffffffff1673ffffffffffffffffffffffffffffffffffffffff163373ffffffffffffffffffffffffffffffffffffffff16141515611fbb57600080fd5b80600c60006101000a81548173ffffffffffffffffffffffffffffffffffffffff021916908373ffffffffffffffffffffffffffffffffffffffff16021790555050565b60015481565b60025481565b600a60009054906101000a900473ffffffffffffffffffffffffffffffffffffffff1681565b6000848411151561204157600080fd5b600780549050841115151561205557600080fd5b8490505b838110156121475760078181548110151561207057fe5b906000526020600020900160009054906101000a900473ffffffffffffffffffffffffffffffffffffffff1673ffffffffffffffffffffffffffffffffffffffff166350b9bc9284846040518363ffffffff167c01000000000000000000000000000000000000000000000000000000000281526004018080602001828103825284848281815260200192506020028082843782019150509350505050600060405180830381600087803b151561212657600080fd5b6102c65a03f1151561213757600080fd5b5050508080600101915050612059565b5050505050565b6000809054906101000a900473ffffffffffffffffffffffffffffffffffffffff1673ffffffffffffffffffffffffffffffffffffffff163373ffffffffffffffffffffffffffffffffffffffff161415156121a957600080fd5b806000806101000a81548173ffffffffffffffffffffffffffffffffffffffff021916908373ffffffffffffffffffffffffffffffffffffffff16021790555050565b6000600d60009054906101000a900473ffffffffffffffffffffffffffffffffffffffff1673ffffffffffffffffffffffffffffffffffffffff161415151561223457600080fd5b5b43600d60009054906101000a900473ffffffffffffffffffffffffffffffffffffffff1673ffffffffffffffffffffffffffffffffffffffff16639eb623d76000604051602001526040518163ffffffff167c0100000000000000000000000000000000000000000000000000000000028152600401602060405180830381600087803b15156122c457600080fd5b6102c65a03f115156122d557600080fd5b505050604051805190501115156124d1576007805490506001600954011015156122fe57600080fd5b600960008154809291906001019190505550600760095481548110151561232157fe5b906000526020600020900160009054906101000a900473ffffffffffffffffffffffffffffffffffffffff16600d60006101000a81548173ffffffffffffffffffffffffffffffffffffffff021916908373ffffffffffffffffffffffffffffffffffffffff1602179055507f3e3b2a1d3103b12ee8a1409b8e0b9a1791e8a18afe6ddcf8b8417adccde34775600d60009054906101000a900473ffffffffffffffffffffffffffffffffffffffff1673ffffffffffffffffffffffffffffffffffffffff16639eb623d76000604051602001526040518163ffffffff167c0100000000000000000000000000000000000000000000000000000000028152600401602060405180830381600087803b151561243c57600080fd5b6102c65a03f1151561244d57600080fd5b50505060405180519050600d60009054906101000a900473ffffffffffffffffffffffffffffffffffffffff16600954604051808481526020018373ffffffffffffffffffffffffffffffffffffffff1673ffffffffffffffffffffffffffffffffffffffff168152602001828152602001935050505060405180910390a1612235565b565b8154818355818115116124fa578183600052602060002091820191016124f99190612513565b5b505050565b602060405190810160405280600081525090565b61253591905b80821115612531576000816000905550600101612519565b5090565b905600a165627a7a723058207b782492f1ec1fd8baadf75834ff0570841d8717b24eebf59ac3011b1777e3600029",
  "source": "pragma solidity ^0.4.4;\nimport \"./Interface.sol\";\nimport \"./owned.sol\";\n\n/*\naward rules:\n  * 5+1 jackpot\n  * 5+0 5000 ETH\n  * 4+1 50 ETH\n  * 4+0 2.5 ETH\n  * 3+1 1 ETH\n  * 3+0 0.05 ETH\n  * 2+1 0.05 ETH\n  * 1+1 0.02 ETH\n  * 0+1 0.01 ETH\n*/\ncontract ChainLot is owned{\n\tuint8 public maxWhiteNumber; //70;\n\tuint8 public maxYellowNumber; //25;\n\tuint public etherPerTicket; //10**18/100;\n\tuint public awardIntervalNumber; //50000\n\n\tuint public tokenSum;\n\tuint8 public maxWhiteNumberCount;\n\tuint8 public maxYellowNumberCount;\n\tuint8 public totalNumberCount;\n\tuint public latestPoolBlockNumber;\n\n\tuint[] awardRulesArray;\n\t\n\n\tChainLotPoolInterface[] public chainlotPools;\n\tmapping(address=>bool) public chainlotPoolsMap;\n\tuint public currentPoolIndex = 0;\n\t\n  \tChainLotTicketInterface public chainLotTicket;\n  \tCLTokenInterface public clToken;\n  \tChainLotPoolFactoryInterface public clpFactory;\n  \tChainLotPoolInterface public currentPool;\n  \taddress drawingToolAddress;\n  \n\tevent BuyTicket(uint poolBlockNumber, bytes numbers, uint ticketCount, uint ticketId, address user, uint blockNumber, uint totalTicketCountSum, uint value);\n\tevent PrepareAward(bytes jackpotNumbers, uint poolBlockNumber, uint allTicketsCount);\n\tevent ToBeAward(bytes jackpotNumbers, bytes32 ticketNumber, uint ticketCount, uint ticketId, address user, uint blockNumber, uint awardValue);\n\tevent MatchAwards(bytes jackpotNumbers, uint lastMatchedTicketIndex, uint endIndex, uint allTicketsCount);\n\tevent MatchRule(bytes jackpotNumbers, bytes32 ticketNumber, uint ticketCount, uint ticketId, uint blockNumber, uint ruleId, uint ruleEther);\n  \tevent TransferAward(address winner, uint value);\n  \tevent TransferDevCut(address dev, uint value);\n  \tevent TransferHistoryCut(address user, uint value);\n  \tevent AddHistoryCut(uint added, uint total);\n  \tevent CalculateAwards(uint8 ruleId, uint winnersTicketCount, uint awardEther, uint totalWinnersAward, uint totalTicketCount);\n  \tevent SplitAward(uint8 ruleId, uint totalWinnersAward, uint leftBalance);\n  \tevent GenerateNewPool(uint currentPoolBlockNumber, uint nextPoolBlockNumber, uint length);\n  \tevent TransferUnawarded(address from, address to, uint value);\n  \tevent SwitchPool(uint currentPoolblockNumber, address currentPool, uint currentPoolIndex);\n  \tevent GenRandomNumbers(uint random, uint blockNumber, uint hash, uint addressInt, uint shift, uint timestamp, uint difficulty);\n  \tevent LOG(uint msg);\n\n\tfunction ChainLot(uint8 _maxWhiteNumber, \n\t\t\t\t\t\tuint8 _maxYellowNumber, \n\t\t\t\t\t\tuint8 _whiteNumberCount, \n\t\t\t\t\t\tuint8 _yellowNumberCount, \n\t\t\t\t\t\tuint _etherPerTicket, \n\t\t\t\t\t\tuint _awardIntervalNumber,\n\t\t\t\t\t\tuint[] _awardRulesArray) public {\n\t\tmaxWhiteNumber = _maxWhiteNumber;\n\t\tmaxYellowNumber = _maxYellowNumber;\n\t\tmaxWhiteNumberCount = _whiteNumberCount;\n\t\tmaxYellowNumberCount = _yellowNumberCount;\n\t\tetherPerTicket = _etherPerTicket;\n\t\tawardIntervalNumber = _awardIntervalNumber;\n\t\ttotalNumberCount = maxWhiteNumberCount + maxYellowNumberCount;\n\t\tawardRulesArray = _awardRulesArray;\n\t}\n\n\tfunction newPool() public onlyOwner {\n\t\tChainLotPoolInterface newed = clpFactory.newPool(latestPoolBlockNumber,maxWhiteNumber, maxYellowNumber, maxWhiteNumberCount, maxYellowNumberCount, \n\t\t\tawardIntervalNumber, etherPerTicket, awardRulesArray);\n\t\tclpFactory.setPool(newed, chainLotTicket, clToken, ChainLotInterface(this), drawingToolAddress);\n\t\tlatestPoolBlockNumber = newed.poolBlockNumber();\n\t\tif(address(newed) != 0) {\n\t\t\tchainlotPools.push(newed);\n\t\t\tchainlotPoolsMap[address(newed)] = true;\n\n\t\t\tif(address(currentPool)==0) {\n\t\t\t\tcurrentPool = newed;\n\t\t\t\tcurrentPoolIndex = chainlotPools.length - 1;\n\t\t\t\tSwitchPool(currentPool.poolBlockNumber(), address(currentPool), currentPoolIndex);\n\t\t\t}\n\n\t\t}\n\t}\n\n\tfunction checkAndSwitchPool() internal {\n\t\trequire(address(currentPool) != 0);\n\n\t\t//find the right pool\n\t\twhile(currentPool.poolBlockNumber() <= block.number) {\n\t\t\trequire(currentPoolIndex + 1 < chainlotPools.length); // need more pool\n\t\t\tcurrentPoolIndex ++;\n\t\t\tcurrentPool = chainlotPools[currentPoolIndex];\n\t\t\tSwitchPool(currentPool.poolBlockNumber(), address(currentPool), currentPoolIndex);\n\t\t}\n\t}\n\n\t//numbers: uint8[6] \n\t//\t\t\t1-5: <=maxWhiteNumber\n\t//\t\t\t6: <=maxYellowNumber\n\tfunction buyTicket(bytes numbers, address referer) payable public {\n\t\tcheckAndSwitchPool();\n\t\tcurrentPool.buyTicket.value(msg.value)(numbers, referer);\n\t\ttokenSum += msg.value;\n\t}\n\n\t//random numbers\n\t//random seed: number-1 block hash x user address\n\tfunction buyRandom(address referer) payable public{\n\t\tcheckAndSwitchPool();\n\t    currentPool.buyRandom.value(msg.value)(referer);\n\t    tokenSum += msg.value;\n\t}\n\n\tmodifier onlyPool {\n        require(chainlotPoolsMap[msg.sender]);\n        _;\n  \t}\n\n\tfunction mint(address _owner, \n\t    bytes _numbers,\n\t    uint _count) \n\t    external onlyPool returns (uint) {\n\t    return chainLotTicket.mint(_owner, _numbers, _count);\n  \t}\n\n\tfunction receiveApproval(address _from, uint _value, address _token, bytes _extraData) public {\n\t\tcheckAndSwitchPool();\n\t\tclToken.transfer(currentPool, _value);\n\t    currentPool.receiveApproval(_from, _value, _token, _extraData);\n\t    tokenSum += _value;\n\t}\n\n  function setChainLotTicketAddress(address ticketAddress) onlyOwner external {\n    chainLotTicket = ChainLotTicketInterface(ticketAddress);\n  }\n\n  function setCLTokenAddress(address tokenAddress) onlyOwner external {\n    clToken = CLTokenInterface(tokenAddress);\n  }\n\n  function setChainLotPoolFactoryAddress(address factoryAddress) onlyOwner external {\n  \tclpFactory = ChainLotPoolFactoryInterface(factoryAddress);\n  }\n\n  function setDrawingToolAddress(address _drawingToolAddress) onlyOwner external{\n  \tdrawingToolAddress = _drawingToolAddress;\n  }\n\n  function withDrawDevCut(uint value) onlyOwner external {\n  \tclToken.transfer(owner, value);\n  }\n\n  //withdraw history cut from pools\n  function withDrawHistoryCut(uint poolStart, uint poolEnd, uint[] ticketIds) external {\n  \trequire(poolEnd > poolStart);\n  \trequire(poolEnd <= chainlotPools.length);\n\n  \tfor(uint i = poolStart; i < poolEnd; i++) {\n  \t\tchainlotPools[i].withdrawHistoryCut(ticketIds);\n  \t}\n  }\n\n\n  function listUserHistoryCut(address user, uint poolStart, uint poolEnd, uint[] ticketIds) external view returns(uint[] _poolCuts) {\n  \trequire(poolEnd > poolStart);\n  \trequire(poolEnd <= chainlotPools.length);\n\n  \tuint[] memory poolCuts = new uint[](poolEnd - poolStart);\n\tfor(uint i = poolStart; i < poolEnd; i++) {\n  \t\tpoolCuts[i-poolStart] = chainlotPools[i].listUserHistoryCut(user, ticketIds);\n  \t}\n  \treturn poolCuts;\n  }\n\n  function retrievePoolInfo() external view returns (uint poolTokens, uint poolBlockNumber, uint totalPoolTokens, uint poolCount)  {\n  \tpoolTokens = clToken.balanceOf(currentPool);\n  \tpoolBlockNumber = currentPool.poolBlockNumber();\n  \ttotalPoolTokens = tokenSum;\n  \tpoolCount = chainlotPools.length;\n  }\n\n}\n",
  "sourcePath": "/Users/phx/eth/chainlot/contracts/ChainLot.sol",
  "compiler": {
    "name": "solc",
    "version": "0.4.19+commit.c4cbbb05.Emscripten.clang"
  },
  "schemaVersion": "2.0.0",
  "updatedAt": "2018-06-24T08:12:21.791Z"
}