{
  "contractName": "ChainLotPoolUtils",
  "abi": [
    {
      "constant": true,
      "inputs": [],
      "name": "clToken",
      "outputs": [
        {
          "name": "",
          "type": "address"
        }
      ],
      "payable": false,
      "stateMutability": "view",
      "type": "function"
    },
    {
      "constant": true,
      "inputs": [],
      "name": "chainLot",
      "outputs": [
        {
          "name": "",
          "type": "address"
        }
      ],
      "payable": false,
      "stateMutability": "view",
      "type": "function"
    },
    {
      "constant": true,
      "inputs": [],
      "name": "owner",
      "outputs": [
        {
          "name": "",
          "type": "address"
        }
      ],
      "payable": false,
      "stateMutability": "view",
      "type": "function"
    },
    {
      "constant": true,
      "inputs": [],
      "name": "chainLotTicket",
      "outputs": [
        {
          "name": "",
          "type": "address"
        }
      ],
      "payable": false,
      "stateMutability": "view",
      "type": "function"
    },
    {
      "constant": false,
      "inputs": [
        {
          "name": "newOwner",
          "type": "address"
        }
      ],
      "name": "transferOwnership",
      "outputs": [],
      "payable": false,
      "stateMutability": "nonpayable",
      "type": "function"
    },
    {
      "anonymous": false,
      "inputs": [
        {
          "indexed": false,
          "name": "jackpotNumbers",
          "type": "bytes"
        },
        {
          "indexed": false,
          "name": "poolBlockNumber",
          "type": "uint256"
        },
        {
          "indexed": false,
          "name": "allTicketsCount",
          "type": "uint256"
        }
      ],
      "name": "PrepareAward",
      "type": "event"
    },
    {
      "anonymous": false,
      "inputs": [
        {
          "indexed": false,
          "name": "jackpotNumbers",
          "type": "bytes"
        },
        {
          "indexed": false,
          "name": "ticketNumber",
          "type": "bytes32"
        },
        {
          "indexed": false,
          "name": "ticketCount",
          "type": "uint256"
        },
        {
          "indexed": false,
          "name": "ticketId",
          "type": "uint256"
        },
        {
          "indexed": false,
          "name": "user",
          "type": "address"
        },
        {
          "indexed": false,
          "name": "blockNumber",
          "type": "uint256"
        },
        {
          "indexed": false,
          "name": "awardValue",
          "type": "uint256"
        }
      ],
      "name": "ToBeAward",
      "type": "event"
    },
    {
      "anonymous": false,
      "inputs": [
        {
          "indexed": false,
          "name": "jackpotNumbers",
          "type": "bytes32"
        },
        {
          "indexed": false,
          "name": "endIndex",
          "type": "uint256"
        },
        {
          "indexed": false,
          "name": "allTicketsCount",
          "type": "uint256"
        }
      ],
      "name": "MatchAwards",
      "type": "event"
    },
    {
      "anonymous": false,
      "inputs": [
        {
          "indexed": false,
          "name": "jackpotNumbers",
          "type": "bytes32"
        },
        {
          "indexed": false,
          "name": "ticketNumber",
          "type": "bytes32"
        },
        {
          "indexed": false,
          "name": "ticketCount",
          "type": "uint256"
        },
        {
          "indexed": false,
          "name": "ticketId",
          "type": "uint256"
        },
        {
          "indexed": false,
          "name": "blockNumber",
          "type": "uint256"
        },
        {
          "indexed": false,
          "name": "ruleId",
          "type": "uint256"
        }
      ],
      "name": "MatchRule",
      "type": "event"
    },
    {
      "anonymous": false,
      "inputs": [
        {
          "indexed": false,
          "name": "ruleId",
          "type": "uint256"
        },
        {
          "indexed": false,
          "name": "toDistCount",
          "type": "uint256"
        },
        {
          "indexed": false,
          "name": "distributedIndex",
          "type": "uint256"
        },
        {
          "indexed": false,
          "name": "ticketIdsLength",
          "type": "uint256"
        },
        {
          "indexed": false,
          "name": "awardRulesLength",
          "type": "uint256"
        }
      ],
      "name": "DistributeAwards",
      "type": "event"
    },
    {
      "anonymous": false,
      "inputs": [
        {
          "indexed": false,
          "name": "winner",
          "type": "address"
        },
        {
          "indexed": false,
          "name": "value",
          "type": "uint256"
        }
      ],
      "name": "TransferAward",
      "type": "event"
    },
    {
      "anonymous": false,
      "inputs": [
        {
          "indexed": false,
          "name": "dev",
          "type": "address"
        },
        {
          "indexed": false,
          "name": "value",
          "type": "uint256"
        }
      ],
      "name": "TransferDevCut",
      "type": "event"
    },
    {
      "anonymous": false,
      "inputs": [
        {
          "indexed": false,
          "name": "user",
          "type": "address"
        },
        {
          "indexed": false,
          "name": "value",
          "type": "uint256"
        }
      ],
      "name": "TransferHistoryCut",
      "type": "event"
    },
    {
      "anonymous": false,
      "inputs": [
        {
          "indexed": false,
          "name": "added",
          "type": "uint256"
        },
        {
          "indexed": false,
          "name": "total",
          "type": "uint256"
        }
      ],
      "name": "AddHistoryCut",
      "type": "event"
    },
    {
      "anonymous": false,
      "inputs": [
        {
          "indexed": false,
          "name": "ruleId",
          "type": "uint8"
        },
        {
          "indexed": false,
          "name": "winnersTicketCount",
          "type": "uint256"
        },
        {
          "indexed": false,
          "name": "awardEther",
          "type": "uint256"
        },
        {
          "indexed": false,
          "name": "totalWinnersAward",
          "type": "uint256"
        },
        {
          "indexed": false,
          "name": "totalTicketCount",
          "type": "uint256"
        }
      ],
      "name": "CalculateAwards",
      "type": "event"
    },
    {
      "anonymous": false,
      "inputs": [
        {
          "indexed": false,
          "name": "ruleId",
          "type": "uint8"
        },
        {
          "indexed": false,
          "name": "totalWinnersAward",
          "type": "uint256"
        },
        {
          "indexed": false,
          "name": "leftBalance",
          "type": "uint256"
        }
      ],
      "name": "SplitAward",
      "type": "event"
    },
    {
      "anonymous": false,
      "inputs": [
        {
          "indexed": false,
          "name": "from",
          "type": "address"
        },
        {
          "indexed": false,
          "name": "to",
          "type": "address"
        },
        {
          "indexed": false,
          "name": "value",
          "type": "uint256"
        }
      ],
      "name": "TransferUnawarded",
      "type": "event"
    },
    {
      "anonymous": false,
      "inputs": [
        {
          "indexed": false,
          "name": "random",
          "type": "uint256"
        },
        {
          "indexed": false,
          "name": "blockNumber",
          "type": "uint256"
        },
        {
          "indexed": false,
          "name": "hash",
          "type": "uint256"
        },
        {
          "indexed": false,
          "name": "addressInt",
          "type": "uint256"
        },
        {
          "indexed": false,
          "name": "shift",
          "type": "uint256"
        },
        {
          "indexed": false,
          "name": "timestamp",
          "type": "uint256"
        },
        {
          "indexed": false,
          "name": "difficulty",
          "type": "uint256"
        }
      ],
      "name": "GenRandomNumbers",
      "type": "event"
    },
    {
      "constant": false,
      "inputs": [
        {
          "name": "_chainLotTicket",
          "type": "address"
        },
        {
          "name": "_clToken",
          "type": "address"
        },
        {
          "name": "_chainLot",
          "type": "address"
        }
      ],
      "name": "setUtils",
      "outputs": [],
      "payable": false,
      "stateMutability": "nonpayable",
      "type": "function"
    },
    {
      "constant": false,
      "inputs": [
        {
          "name": "pool",
          "type": "address"
        }
      ],
      "name": "prepareAwards",
      "outputs": [],
      "payable": false,
      "stateMutability": "nonpayable",
      "type": "function"
    },
    {
      "constant": false,
      "inputs": [
        {
          "name": "pool",
          "type": "address"
        },
        {
          "name": "toMatchCount",
          "type": "uint256"
        }
      ],
      "name": "matchAwards",
      "outputs": [
        {
          "name": "modifiedLastMatchedTicketIndex",
          "type": "uint256"
        }
      ],
      "payable": false,
      "stateMutability": "nonpayable",
      "type": "function"
    },
    {
      "constant": false,
      "inputs": [
        {
          "name": "blockNumber",
          "type": "uint256"
        },
        {
          "name": "shift",
          "type": "uint256"
        },
        {
          "name": "maxWhiteNumberCount",
          "type": "uint8"
        },
        {
          "name": "maxYellowNumberCount",
          "type": "uint8"
        },
        {
          "name": "maxWhiteNumber",
          "type": "uint8"
        },
        {
          "name": "maxYellowNumber",
          "type": "uint8"
        }
      ],
      "name": "genRandomNumbers",
      "outputs": [
        {
          "name": "_numbers",
          "type": "bytes"
        }
      ],
      "payable": false,
      "stateMutability": "nonpayable",
      "type": "function"
    }
  ],
  "bytecode": "0x6060604052336000806101000a81548173ffffffffffffffffffffffffffffffffffffffff021916908373ffffffffffffffffffffffffffffffffffffffff160217905550611a24806100536000396000f300606060405260043610610099576000357c0100000000000000000000000000000000000000000000000000000000900463ffffffff1680630800e5f11461009e5780633e43be3c146100f35780637a58fa76146101485780638da5cb5b146101bf578063c04cb54014610214578063d12efbf6146102e9578063e1e3af691461033f578063f2fde38b14610394578063f7a371c9146103cd575b600080fd5b34156100a957600080fd5b6100b1610406565b604051808273ffffffffffffffffffffffffffffffffffffffff1673ffffffffffffffffffffffffffffffffffffffff16815260200191505060405180910390f35b34156100fe57600080fd5b61010661042c565b604051808273ffffffffffffffffffffffffffffffffffffffff1673ffffffffffffffffffffffffffffffffffffffff16815260200191505060405180910390f35b341561015357600080fd5b6101bd600480803573ffffffffffffffffffffffffffffffffffffffff1690602001909190803573ffffffffffffffffffffffffffffffffffffffff1690602001909190803573ffffffffffffffffffffffffffffffffffffffff16906020019091905050610452565b005b34156101ca57600080fd5b6101d261051a565b604051808273ffffffffffffffffffffffffffffffffffffffff1673ffffffffffffffffffffffffffffffffffffffff16815260200191505060405180910390f35b341561021f57600080fd5b61026e600480803590602001909190803590602001909190803560ff1690602001909190803560ff1690602001909190803560ff1690602001909190803560ff1690602001909190505061053f565b6040518080602001828103825283818151815260200191508051906020019080838360005b838110156102ae578082015181840152602081019050610293565b50505050905090810190601f1680156102db5780820380516001836020036101000a031916815260200191505b509250505060405180910390f35b34156102f457600080fd5b610329600480803573ffffffffffffffffffffffffffffffffffffffff169060200190919080359060200190919050506107b8565b6040518082815260200191505060405180910390f35b341561034a57600080fd5b610352610dba565b604051808273ffffffffffffffffffffffffffffffffffffffff1673ffffffffffffffffffffffffffffffffffffffff16815260200191505060405180910390f35b341561039f57600080fd5b6103cb600480803573ffffffffffffffffffffffffffffffffffffffff16906020019091905050610de0565b005b34156103d857600080fd5b610404600480803573ffffffffffffffffffffffffffffffffffffffff16906020019091905050610e7e565b005b600260009054906101000a900473ffffffffffffffffffffffffffffffffffffffff1681565b600360009054906101000a900473ffffffffffffffffffffffffffffffffffffffff1681565b82600160006101000a81548173ffffffffffffffffffffffffffffffffffffffff021916908373ffffffffffffffffffffffffffffffffffffffff16021790555081600260006101000a81548173ffffffffffffffffffffffffffffffffffffffff021916908373ffffffffffffffffffffffffffffffffffffffff16021790555080600360006101000a81548173ffffffffffffffffffffffffffffffffffffffff021916908373ffffffffffffffffffffffffffffffffffffffff160217905550505050565b6000809054906101000a900473ffffffffffffffffffffffffffffffffffffffff1681565b6105476119e4565b60008060006105546119e4565b6000438c10151561056457600080fd5b8b406001900494503273ffffffffffffffffffffffffffffffffffffffff1693508484029250424486866040518085815260200184815260200183815260200182815260200194505050505060405180910390206001900492507f2c7df83ce284dc9c63cf5d2312952dd5ccecf8f255192742b2ca327d3e6c6a43838d87878f42446040518088815260200187815260200186815260200185815260200184815260200183815260200182815260200197505050505050505060405180910390a16000831415151561063557600080fd5b8a839060020a90049250888a0160ff166040518059106106525750595b9080825280601f01601f19166020018201604052509150600090505b8960ff168160ff1610156107095760018860ff168481151561068c57fe5b06017f010000000000000000000000000000000000000000000000000000000000000002828260ff168151811015156106c157fe5b9060200101907effffffffffffffffffffffffffffffffffffffffffffffffffffffffffffff1916908160001a9053506008839060020a90049250808060010191505061066e565b8990505b81518160ff1610156107a65760018760ff168481151561072957fe5b06017f010000000000000000000000000000000000000000000000000000000000000002828260ff1681518110151561075e57fe5b9060200101907effffffffffffffffffffffffffffffffffffffffffffffffffffffffffffff1916908160001a9053506008839060020a90049250808060010191505061070d565b81955050505050509695505050505050565b6000806000806000806000806000806000809054906101000a900473ffffffffffffffffffffffffffffffffffffffff1673ffffffffffffffffffffffffffffffffffffffff163373ffffffffffffffffffffffffffffffffffffffff1614151561082257600080fd5b6001600781111561082f57fe5b8c73ffffffffffffffffffffffffffffffffffffffff1663c040e6b86000604051602001526040518163ffffffff167c0100000000000000000000000000000000000000000000000000000000028152600401602060405180830381600087803b151561089b57600080fd5b6102c65a03f115156108ac57600080fd5b5050506040518051905060078111156108c157fe5b1415156108cd57600080fd5b8b73ffffffffffffffffffffffffffffffffffffffff1663e7cfbe906000604051602001526040518163ffffffff167c0100000000000000000000000000000000000000000000000000000000028152600401602060405180830381600087803b151561093957600080fd5b6102c65a03f1151561094a57600080fd5b5050506040518051905098508a8c73ffffffffffffffffffffffffffffffffffffffff1663e2c315616000604051602001526040518163ffffffff167c0100000000000000000000000000000000000000000000000000000000028152600401602060405180830381600087803b15156109c357600080fd5b6102c65a03f115156109d457600080fd5b505050604051805190500197508b73ffffffffffffffffffffffffffffffffffffffff1663758b9ee06000604051602001526040518163ffffffff167c0100000000000000000000000000000000000000000000000000000000028152600401602060405180830381600087803b1515610a4d57600080fd5b6102c65a03f11515610a5e57600080fd5b50505060405180519050965086881115610a76578697505b8b73ffffffffffffffffffffffffffffffffffffffff1663e2c315616000604051602001526040518163ffffffff167c0100000000000000000000000000000000000000000000000000000000028152600401602060405180830381600087803b1515610ae257600080fd5b6102c65a03f11515610af357600080fd5b5050506040518051905095505b87861015610d59578b73ffffffffffffffffffffffffffffffffffffffff16635b328df6876000604051602001526040518263ffffffff167c010000000000000000000000000000000000000000000000000000000002815260040180828152602001915050602060405180830381600087803b1515610b7f57600080fd5b6102c65a03f11515610b9057600080fd5b505050604051805190509450610ba7858d8b6114de565b8094508195508296508397505050505060008410158015610c4d57508b73ffffffffffffffffffffffffffffffffffffffff16637baf3b0e6000604051602001526040518163ffffffff167c0100000000000000000000000000000000000000000000000000000000028152600401602060405180830381600087803b1515610c2f57600080fd5b6102c65a03f11515610c4057600080fd5b5050506040518051905084105b15610d4c578b73ffffffffffffffffffffffffffffffffffffffff16636541e02885876040518363ffffffff167c01000000000000000000000000000000000000000000000000000000000281526004018083815260200182815260200192505050600060405180830381600087803b1515610cc857600080fd5b6102c65a03f11515610cd957600080fd5b5050507f1fb5f1a98ced1998480b5d7ae5f89afc7526c5219722514ed7312200757ee0d08984848885896040518087600019166000191681526020018660001916600019168152602001858152602001848152602001838152602001828152602001965050505050505060405180910390a15b8580600101965050610b00565b7f68919ecf833aa1399f274982eff743c221734b0745cfeb4cd853a0c4e3ab5694898989604051808460001916600019168152602001838152602001828152602001935050505060405180910390a187995050505050505050505092915050565b600160009054906101000a900473ffffffffffffffffffffffffffffffffffffffff1681565b6000809054906101000a900473ffffffffffffffffffffffffffffffffffffffff1673ffffffffffffffffffffffffffffffffffffffff163373ffffffffffffffffffffffffffffffffffffffff16141515610e3b57600080fd5b806000806101000a81548173ffffffffffffffffffffffffffffffffffffffff021916908373ffffffffffffffffffffffffffffffffffffffff16021790555050565b610e866119e4565b6000809054906101000a900473ffffffffffffffffffffffffffffffffffffffff1673ffffffffffffffffffffffffffffffffffffffff163373ffffffffffffffffffffffffffffffffffffffff16141515610ee157600080fd5b60006007811115610eee57fe5b8273ffffffffffffffffffffffffffffffffffffffff1663c040e6b86000604051602001526040518163ffffffff167c0100000000000000000000000000000000000000000000000000000000028152600401602060405180830381600087803b1515610f5a57600080fd5b6102c65a03f11515610f6b57600080fd5b505050604051805190506007811115610f8057fe5b141515610f8c57600080fd5b6112398273ffffffffffffffffffffffffffffffffffffffff16639eb623d76000604051602001526040518163ffffffff167c0100000000000000000000000000000000000000000000000000000000028152600401602060405180830381600087803b1515610ffb57600080fd5b6102c65a03f1151561100c57600080fd5b5050506040518051905060088473ffffffffffffffffffffffffffffffffffffffff16639c7365e56000604051602001526040518163ffffffff167c0100000000000000000000000000000000000000000000000000000000028152600401602060405180830381600087803b151561108457600080fd5b6102c65a03f1151561109557600080fd5b505050604051805190508573ffffffffffffffffffffffffffffffffffffffff166337f4a9c46000604051602001526040518163ffffffff167c0100000000000000000000000000000000000000000000000000000000028152600401602060405180830381600087803b151561110b57600080fd5b6102c65a03f1151561111c57600080fd5b505050604051805190508673ffffffffffffffffffffffffffffffffffffffff166370f4c3436000604051602001526040518163ffffffff167c0100000000000000000000000000000000000000000000000000000000028152600401602060405180830381600087803b151561119257600080fd5b6102c65a03f115156111a357600080fd5b505050604051805190508773ffffffffffffffffffffffffffffffffffffffff16635f7d92876000604051602001526040518163ffffffff167c0100000000000000000000000000000000000000000000000000000000028152600401602060405180830381600087803b151561121957600080fd5b6102c65a03f1151561122a57600080fd5b5050506040518051905061053f565b90508173ffffffffffffffffffffffffffffffffffffffff1663ec6ce0d1826040518263ffffffff167c01000000000000000000000000000000000000000000000000000000000281526004018080602001828103825283818151815260200191508051906020019080838360005b838110156112c35780820151818401526020810190506112a8565b50505050905090810190601f1680156112f05780820380516001836020036101000a031916815260200191505b5092505050600060405180830381600087803b151561130e57600080fd5b6102c65a03f1151561131f57600080fd5b5050507fb4a3d365f86774ee97301c1ffa4061a05cffa5fcef064c4f3890a92d1bd0e2d7818373ffffffffffffffffffffffffffffffffffffffff16639eb623d76000604051602001526040518163ffffffff167c0100000000000000000000000000000000000000000000000000000000028152600401602060405180830381600087803b15156113b057600080fd5b6102c65a03f115156113c157600080fd5b505050604051805190508473ffffffffffffffffffffffffffffffffffffffff1663758b9ee06000604051602001526040518163ffffffff167c0100000000000000000000000000000000000000000000000000000000028152600401602060405180830381600087803b151561143757600080fd5b6102c65a03f1151561144857600080fd5b505050604051805190506040518080602001848152602001838152602001828103825285818151815260200191508051906020019080838360005b8381101561149e578082015181840152602081019050611483565b50505050905090810190601f1680156114cb5780820380516001836020036101000a031916815260200191505b5094505050505060405180910390a15050565b600080600080600080600080600080600160009054906101000a900473ffffffffffffffffffffffffffffffffffffffff1673ffffffffffffffffffffffffffffffffffffffff16637dc379fa8e600060405160a001526040518263ffffffff167c01000000000000000000000000000000000000000000000000000000000281526004018082815260200191505060a060405180830381600087803b151561158657600080fd5b6102c65a03f1151561159757600080fd5b505050604051805190602001805190602001805190602001805190602001805190508367ffffffffffffffff169350809b50819c50829d50839950849a5050505050506000935060009250600091505b8b73ffffffffffffffffffffffffffffffffffffffff16639c7365e56000604051602001526040518163ffffffff167c0100000000000000000000000000000000000000000000000000000000028152600401602060405180830381600087803b151561165357600080fd5b6102c65a03f1151561166457600080fd5b5050506040518051905060ff1682101561173a578a8260208110151561168657fe5b1a7f0100000000000000000000000000000000000000000000000000000000000000027effffffffffffffffffffffffffffffffffffffffffffffffffffffffffffff191689836020811015156116d957fe5b1a7f0100000000000000000000000000000000000000000000000000000000000000027effffffffffffffffffffffffffffffffffffffffffffffffffffffffffffff1916141561172d5783806001019450505b81806001019250506115e7565b8b73ffffffffffffffffffffffffffffffffffffffff16639c7365e56000604051602001526040518163ffffffff167c0100000000000000000000000000000000000000000000000000000000028152600401602060405180830381600087803b15156117a657600080fd5b6102c65a03f115156117b757600080fd5b5050506040518051905060ff1691505b602060ff16821015611895578a826020811015156117e157fe5b1a7f0100000000000000000000000000000000000000000000000000000000000000027effffffffffffffffffffffffffffffffffffffffffffffffffffffffffffff1916898360208110151561183457fe5b1a7f0100000000000000000000000000000000000000000000000000000000000000027effffffffffffffffffffffffffffffffffffffffffffffffffffffffffffff191614156118885782806001019350505b81806001019250506117c7565b61192984848e73ffffffffffffffffffffffffffffffffffffffff166337f4a9c46000604051602001526040518163ffffffff167c0100000000000000000000000000000000000000000000000000000000028152600401602060405180830381600087803b151561190657600080fd5b6102c65a03f1151561191757600080fd5b5050506040518051905060ff166119d1565b905060018c73ffffffffffffffffffffffffffffffffffffffff1663aa2aaeca836000604051602001526040518263ffffffff167c010000000000000000000000000000000000000000000000000000000002815260040180828152602001915050602060405180830381600087803b15156119a457600080fd5b6102c65a03f115156119b557600080fd5b5050506040518051905003995050505050505093509350935093565b6000826001830185020190509392505050565b6020604051908101604052806000815250905600a165627a7a723058202b499625fa6c2aa56e92e5283fd1e4536ad552ef29f3ab4989cdfe7d5c2473d60029",
  "source": "pragma solidity ^0.4.4;\nimport \"./owned.sol\";\nimport \"./Interface.sol\";\nimport \"./ChainLotPool.sol\";\n\ncontract ChainLotPoolUtils is owned{\n\n\tChainLotTicketInterface public chainLotTicket;\n  \tCLTokenInterface public clToken;\n  \tChainLotInterface public  chainLot;\n  \n  \tevent PrepareAward(bytes jackpotNumbers, uint poolBlockNumber, uint allTicketsCount);\n\tevent ToBeAward(bytes jackpotNumbers, bytes32 ticketNumber, uint ticketCount, uint ticketId, address user, uint blockNumber, uint awardValue);\n\tevent MatchAwards(bytes32 jackpotNumbers, uint endIndex, uint allTicketsCount);\n\tevent MatchRule(bytes32 jackpotNumbers, bytes32 ticketNumber, uint ticketCount, uint ticketId, uint blockNumber, uint ruleId);\n\tevent DistributeAwards(uint ruleId, uint toDistCount, uint distributedIndex, uint ticketIdsLength, uint awardRulesLength);\n  \tevent TransferAward(address winner, uint value);\n  \tevent TransferDevCut(address dev, uint value);\n  \tevent TransferHistoryCut(address user, uint value);\n  \tevent AddHistoryCut(uint added, uint total);\n  \tevent CalculateAwards(uint8 ruleId, uint winnersTicketCount, uint awardEther, uint totalWinnersAward, uint totalTicketCount);\n  \tevent SplitAward(uint8 ruleId, uint totalWinnersAward, uint leftBalance);\n  \tevent TransferUnawarded(address from, address to, uint value);\n  \tevent GenRandomNumbers(uint random, uint blockNumber, uint hash, uint addressInt, uint shift, uint timestamp, uint difficulty);\n\n\tstruct awardRule{\n\t\tuint whiteNumberCount;\n\t\tuint yellowNumberCount;\n\t\tuint awardEther;\n\t}\n\n\tstruct awardData {\n\t\taddress user;\n\t\tuint value;\n\t}\n\n  \tstruct winnerTicketQueue {\n    \tuint[] ticketIds;\n    \tuint processedIndex;\n    \tuint distributedIndex;\n  \t}\n\n  \t\n  \tfunction setUtils(ChainLotTicketInterface _chainLotTicket,\n\t\t\t\t\t\tCLTokenInterface _clToken,\n\t\t\t\t\t\tChainLotInterface _chainLot) public {\n  \t\tchainLotTicket = _chainLotTicket;\n\t\tclToken = _clToken;\n\t\tchainLot = _chainLot;\n  \t}\n\n  \tfunction getRuleKey(uint _whiteNumberCount, uint _yellowNumberCount, uint maxYellowNumberCount) internal view returns(uint index){\n\t\treturn _whiteNumberCount*(maxYellowNumberCount+1)+_yellowNumberCount;\n\t}\n\n\t//calculate jackpot \n\tfunction prepareAwards(ChainLotPool pool) onlyOwner external {\n\t\trequire(pool.stage() == ChainLotPool.DrawingStage.INITIED);\n\n\t\tbytes memory jackpotNumbers = genRandomNumbers(pool.poolBlockNumber(), 8, \n\t\t\tpool.maxWhiteNumberCount(), pool.maxYellowNumberCount(), pool.maxWhiteNumber(), pool.maxYellowNumber());\n\t\tpool.setJackpotNumbers(jackpotNumbers);\n\t\tPrepareAward(jackpotNumbers, pool.poolBlockNumber(), pool.getAllTicketsCount());\n\t}\n\n\t//match winners\n\tfunction matchAwards(ChainLotPool pool, uint toMatchCount) onlyOwner \n\t\texternal returns(uint modifiedLastMatchedTicketIndex) {\n\t\trequire(pool.stage() == ChainLotPool.DrawingStage.PREPARED);\n\n\t\tbytes32 jackpotNumbers = pool.getJackpotNumbers();\n\t\t//statistic winners\n\t\tuint endIndex = pool.lastMatchedTicketIndex() + toMatchCount;\n\t\tuint allTicketsCount = pool.getAllTicketsCount();\n\t\tif(endIndex > allTicketsCount) endIndex = allTicketsCount;\n\n\t\tfor(uint i = pool.lastMatchedTicketIndex(); i < endIndex; i ++) {\n\t\t\tuint ticketId = pool.allTicketsId(i);\n\t\t\t\n\t\t\tuint ruleId; bytes32 numbers;uint count;uint blockNumber;\n\t\t\t(ruleId, numbers, count, blockNumber) = matchRule(ticketId, pool, jackpotNumbers);\n\t\t\t\n\t\t\tif(ruleId >= 0 && ruleId < pool.getAwardRulesLength()) {\n\t\t        //match one rule!\n\t\t        pool.pushWinnerTicket(ruleId, ticketId);\n\t\t        MatchRule(jackpotNumbers, numbers, count, ticketId, blockNumber, ruleId);\n\t\t\t}\n\t\t}\n\n\t\tMatchAwards(jackpotNumbers, endIndex, allTicketsCount);\n\t\treturn endIndex;\n\t}\n\n\tfunction matchRule(uint ticketId, ChainLotPool pool, bytes32 jackpotNumbers) internal returns(uint ruleId, bytes32 numbers, uint count, uint blockNumber) {\n\t\t\taddress mb; uint ma;\n\t        (mb, ma, numbers, count, blockNumber) = chainLotTicket.getTicket(ticketId);\n\t      \t\n\t\t\tuint matchedWhiteCount = 0;\n\t\t\tuint matchedYellowCount = 0;\n\t\t\tfor(uint j = 0; j < pool.maxWhiteNumberCount(); j++) {\n\t\t\t\tif(numbers[j] == jackpotNumbers[j]) {\n\t\t\t\t\tmatchedWhiteCount ++;\n\t\t\t\t}\n\t\t\t}\n\t\t\tfor(j = pool.maxWhiteNumberCount(); j < jackpotNumbers.length; j++) {\n\t\t\t\tif(numbers[j] == jackpotNumbers[j]) {\n\t\t\t\t\tmatchedYellowCount ++;\n\t\t\t\t}\n\t\t\t}\n\n\t\t\tuint ruleKey = getRuleKey(matchedWhiteCount, matchedYellowCount, pool.maxYellowNumberCount());\n\t\t\truleId = pool.awardRulesIndex(ruleKey) - 1;\n\t}\n\n\n /* \tfunction calculateAwards(uint8 ruleId, uint8 toCalcCount) onlyOwner external {\n\t  \trequire(stage == DrawingStage.MATCHED);\n\t  \trequire(block.number >= poolBlockNumber);\n\t  \t//calculate winners award, from top to bottom, top winners takes all\n\t    \n\t      if(winnerTickets[ruleId].ticketIds.length > winnerTickets[ruleId].processedIndex) {\n\t        uint totalWinnersAward = 0;\n\t        uint totalTicketCount = 0;\n\t        uint endIndex = winnerTickets[ruleId].processedIndex + toCalcCount;\n\t        if(endIndex > winnerTickets[ruleId].ticketIds.length) endIndex = winnerTickets[ruleId].ticketIds.length;\n\t        for(uint j=winnerTickets[ruleId].processedIndex;j<endIndex; j++) {\n\t          uint ticketId = winnerTickets[ruleId].ticketIds[j];\n\t          address mb; uint ma; bytes32 numbers; uint count; uint blockNumber;\n\t          (mb, ma, numbers, count, blockNumber) = chainLotTicket.getTicket(ticketId);\n\t          totalWinnersAward += count * awardRules[ruleId].awardEther;\n\t          totalTicketCount += count;\n\t        }\n\n\t        CalculateAwards(ruleId, endIndex, awardRules[ruleId].awardEther, totalWinnersAward, totalTicketCount);\n\n\t        awardResults[ruleId].totalWinnersAward += totalWinnersAward;\n\t        awardResults[ruleId].totalTicketCount += totalTicketCount;\n\t\t\t//move pointer\n\t     \twinnerTickets[ruleId].processedIndex = endIndex;\n\t      \n\t      }\n\n\t      if(ruleId == awardRules.length -1 && winnerTickets[ruleId].processedIndex == winnerTickets[ruleId].ticketIds.length) {\n\t      \tstage = DrawingStage.CALCULATED;\n\t      }\n\n  \t}\n\n  \tfunction splitAward() onlyOwner external {\n  \t\trequire(stage == DrawingStage.CALCULATED);\n  \t\tuint totalBalance = clToken.balanceOf(this);\n  \t\tfor(uint8 i=0; i<awardRules.length; i++) {\n  \t\t\tif(totalBalance >=  awardResults[i].totalWinnersAward) {\n\t          totalBalance -= awardResults[i].totalWinnersAward;\n\t        }\n\t        else {\n\t          awardResults[i].totalWinnersAward = totalBalance;\n\t          totalBalance = 0;\n\t        }\n\t        SplitAward(i, awardResults[i].totalWinnersAward, totalBalance);\n  \t\t}\n  \t\tstage = DrawingStage.SPLITED;\n  \t}\n\n  \tfunction distributeAwards(uint8 ruleId, uint toDistCount) onlyOwner external {\n  \t\trequire(stage == DrawingStage.SPLITED);\n  \t\t//validate last step\n\t  \t//bytes memory jackpotNumbers = jackpotNumbers;\n\t  \tuint endIndex = winnerTickets[ruleId].distributedIndex + toDistCount;\n\t  \tuint ticketIdsLength = winnerTickets[ruleId].ticketIds.length;\n\t  \tif(endIndex > ticketIdsLength) endIndex = ticketIdsLength;\n  \t\tif(awardResults[ruleId].totalTicketCount > 0) {\n  \t\t\tfor(uint j=winnerTickets[ruleId].distributedIndex;j<endIndex; j++){\n\t          uint ticketId = winnerTickets[ruleId].ticketIds[j];\n\t          address mb; uint ma; bytes32 numbers; uint count; uint blockNumber;\n\t          (mb, ma, numbers, count, blockNumber) = chainLotTicket.getTicket(ticketId);\n\t          uint awardValue = count * awardResults[ruleId].totalWinnersAward / awardResults[ruleId].totalTicketCount;\n\t          awardData memory ad = awardData(chainLotTicket.ownerOf(ticketId), awardValue);\n\t          toBeAward.push(ad);\n\t          ToBeAward(jackpotNumbers, numbers, count, ticketId, ad.user, blockNumber, awardValue);\n\t    \t}\n  \t\t}\n\t  \twinnerTickets[ruleId].distributedIndex = endIndex;\n\n\t  \tDistributeAwards(ruleId, toDistCount, endIndex, ticketIdsLength, awardRules.length);\n\n\t  \tif(ruleId == awardRules.length -1 && endIndex == ticketIdsLength) {\n\t  \t\tstage = DrawingStage.DISTRIBUTED;\n\t  \t}\n  \t}\n\n  \tfunction sendAwards(uint toAwardCount) onlyOwner external {\n  \t\trequire(stage == DrawingStage.DISTRIBUTED);\n\n\t\tuint endIndex = awardIndex + toAwardCount;\n\t\tif(endIndex > toBeAward.length) endIndex = toBeAward.length;\n\t\t\n\t  \tuint devCut = 0;\n\t  \tuint _historyCut = 0;\n\t  \tuint hCut = 0;\n\t  \tuint userAward = 0;\n\t  \tfor(uint i=awardIndex; i<endIndex; i++) {\n\t\t\t\tuserAward = toBeAward[i].value * 88/100;\n\t\t\t\t//10% history user cut\n\t\t\t\thCut = toBeAward[i].value/10;\n\t\t\t\t_historyCut += hCut;\n\t\t\t\t//2% dev cut\n\t\t\t\tdevCut += toBeAward[i].value - userAward - hCut;\n\t\t\t\tclToken.transfer(toBeAward[i].user, userAward);\n\t      \t\tTransferAward(toBeAward[i].user, userAward);\n\t\t}\n\t\tif(devCut > 0) {\n\t\t\tclToken.transfer(owner, devCut);\n\t\t\tTransferDevCut(owner, devCut);\n\t\t}\n\t\t\n\t\t//history cut only shared to owner before this pool\n\t\tif(_historyCut > 0) {\n\t\t\thistoryCut += _historyCut;\n\t\t\tAddHistoryCut(_historyCut, historyCut);\n\t\t}\n\t    awardIndex = endIndex;\n\t    if(awardIndex == toBeAward.length) {\n\t    \tstage = DrawingStage.SENT;\n\t    }\n\t}\n\n\tfunction withdrawHistoryCut(uint[] ticketIds) external {\n\t\tuint userCut = calculateUserHistoryCut(ticketIds, tx.origin, false);\n\t  \tclToken.transfer(tx.origin, userCut);\n\t\tTransferHistoryCut(tx.origin, userCut);\n\t}\n\n\tfunction listUserHistoryCut(address user, uint[] ticketIds) external returns(uint _historyCut) {\n\t\treturn calculateUserHistoryCut(ticketIds, user, true);\n\t}\n\n\tfunction calculateUserHistoryCut(uint[] ticketIds, address user, bool onlyList) internal returns(uint _cut) {\n\t\tif(totalTicketCountSum == 0)\n\t\t\treturn 0;\n\t\tuint historyTicketCountSum = 0;\n\t  \taddress mb; uint ma; bytes32 numbers; uint count; uint blockNumber;\n\t  \tfor(uint i=0; i<ticketIds.length; i++) {\n\t  \t\t(mb, ma, numbers, count, blockNumber) = chainLotTicket.getTicket(ticketIds[i]);\n\t  \t\tif(withdrawed[ticketIds[i]] == false \n\t  \t\t\t&& blockNumber < poolBlockNumber \n\t  \t\t\t&& chainLotTicket.ownerOf(ticketIds[i]) == user) {\n\t  \t\t\thistoryTicketCountSum += count;\t\n\t  \t\t\tif(!onlyList) {\n\t  \t\t\t\twithdrawed[ticketIds[i]] = true;\n\t  \t\t\t}\n\t  \t\t}\t\t\n\t  \t}\n\t  \t\n\t  \treturn historyTicketCountSum * historyCut / totalTicketCountSum;\n\t}\n\n\tfunction transferUnawarded(address to) onlyOwner external {\n\t\trequire(stage == DrawingStage.SENT);\n\n      \tuint toBeTransfer = clToken.balanceOf(this) - historyCut;\n      \tif(toBeTransfer > 0) {\n      \t\tclToken.transfer(to, toBeTransfer);\n      \t\tTransferUnawarded(address(this), to, toBeTransfer);\n      \t}\n\n      \tstage = DrawingStage.UNAWARED_TRANSFERED;\n\t}*/\n\n\tfunction genRandomNumbers(uint blockNumber, uint shift, uint8 maxWhiteNumberCount, uint8 maxYellowNumberCount,\n\t uint8 maxWhiteNumber, uint8 maxYellowNumber) public returns(bytes _numbers){\n\t\trequire(blockNumber < block.number);\n\t\tuint hash = uint(block.blockhash(blockNumber));\n\t\tuint addressInt = uint(tx.origin);\n\t\tuint256 random = addressInt * hash;\n\t\trandom = uint256(keccak256(block.timestamp, block.difficulty, hash, addressInt));\n\t\tGenRandomNumbers(random, blockNumber, hash, addressInt, shift, block.timestamp, block.difficulty);\n\t\trequire(random != 0);\n\t\trandom = random >> shift;\n\t\tbytes memory numbers = new bytes(maxWhiteNumberCount+maxYellowNumberCount);\n\t\tfor(uint8 i=0;i<maxWhiteNumberCount;i++) {\n\t\t\tnumbers[i] = byte(random%maxWhiteNumber + 1);\n\t\t\trandom = random >> 8;\n\n\t\t}\n\t\tfor(i=maxWhiteNumberCount;i<numbers.length;i++) {\n\t\t\tnumbers[i] = byte(random%maxYellowNumber + 1);\n\t\t\trandom = random >> 8;\n\n\t\t}\n\t\treturn numbers;\n\t}\n\n}\n",
  "sourcePath": "/Users/phx/eth/chainlot/contracts/ChainLotPoolUtils.sol",
  "compiler": {
    "name": "solc",
    "version": "0.4.19+commit.c4cbbb05.Emscripten.clang"
  },
  "schemaVersion": "2.0.0",
  "updatedAt": "2018-06-22T14:48:01.731Z"
}