{
  "contractName": "ChainLotPool",
  "abi": [
    {
      "constant": true,
      "inputs": [],
      "name": "clToken",
      "outputs": [
        {
          "name": "",
          "type": "address"
        }
      ],
      "payable": false,
      "stateMutability": "view",
      "type": "function"
    },
    {
      "constant": true,
      "inputs": [],
      "name": "totalNumberCount",
      "outputs": [
        {
          "name": "",
          "type": "uint8"
        }
      ],
      "payable": false,
      "stateMutability": "view",
      "type": "function"
    },
    {
      "constant": true,
      "inputs": [],
      "name": "maxYellowNumberCount",
      "outputs": [
        {
          "name": "",
          "type": "uint8"
        }
      ],
      "payable": false,
      "stateMutability": "view",
      "type": "function"
    },
    {
      "constant": true,
      "inputs": [],
      "name": "chainLot",
      "outputs": [
        {
          "name": "",
          "type": "address"
        }
      ],
      "payable": false,
      "stateMutability": "view",
      "type": "function"
    },
    {
      "constant": true,
      "inputs": [
        {
          "name": "",
          "type": "uint256"
        }
      ],
      "name": "awardRules",
      "outputs": [
        {
          "name": "whiteNumberCount",
          "type": "uint256"
        },
        {
          "name": "yellowNumberCount",
          "type": "uint256"
        },
        {
          "name": "awardEther",
          "type": "uint256"
        }
      ],
      "payable": false,
      "stateMutability": "view",
      "type": "function"
    },
    {
      "constant": true,
      "inputs": [
        {
          "name": "",
          "type": "uint256"
        }
      ],
      "name": "allTicketsId",
      "outputs": [
        {
          "name": "",
          "type": "uint256"
        }
      ],
      "payable": false,
      "stateMutability": "view",
      "type": "function"
    },
    {
      "constant": true,
      "inputs": [],
      "name": "maxYellowNumber",
      "outputs": [
        {
          "name": "",
          "type": "uint8"
        }
      ],
      "payable": false,
      "stateMutability": "view",
      "type": "function"
    },
    {
      "constant": true,
      "inputs": [],
      "name": "allTicketsCount",
      "outputs": [
        {
          "name": "",
          "type": "uint256"
        }
      ],
      "payable": false,
      "stateMutability": "view",
      "type": "function"
    },
    {
      "constant": true,
      "inputs": [],
      "name": "maxWhiteNumber",
      "outputs": [
        {
          "name": "",
          "type": "uint8"
        }
      ],
      "payable": false,
      "stateMutability": "view",
      "type": "function"
    },
    {
      "constant": true,
      "inputs": [],
      "name": "totalTicketCountSum",
      "outputs": [
        {
          "name": "",
          "type": "uint256"
        }
      ],
      "payable": false,
      "stateMutability": "view",
      "type": "function"
    },
    {
      "constant": true,
      "inputs": [],
      "name": "tokenSum",
      "outputs": [
        {
          "name": "",
          "type": "uint256"
        }
      ],
      "payable": false,
      "stateMutability": "view",
      "type": "function"
    },
    {
      "constant": true,
      "inputs": [],
      "name": "owner",
      "outputs": [
        {
          "name": "",
          "type": "address"
        }
      ],
      "payable": false,
      "stateMutability": "view",
      "type": "function"
    },
    {
      "constant": true,
      "inputs": [],
      "name": "maxWhiteNumberCount",
      "outputs": [
        {
          "name": "",
          "type": "uint8"
        }
      ],
      "payable": false,
      "stateMutability": "view",
      "type": "function"
    },
    {
      "constant": true,
      "inputs": [],
      "name": "poolBlockNumber",
      "outputs": [
        {
          "name": "",
          "type": "uint256"
        }
      ],
      "payable": false,
      "stateMutability": "view",
      "type": "function"
    },
    {
      "constant": true,
      "inputs": [
        {
          "name": "",
          "type": "uint256"
        }
      ],
      "name": "awardRulesIndex",
      "outputs": [
        {
          "name": "",
          "type": "uint256"
        }
      ],
      "payable": false,
      "stateMutability": "view",
      "type": "function"
    },
    {
      "constant": true,
      "inputs": [],
      "name": "etherPerTicket",
      "outputs": [
        {
          "name": "",
          "type": "uint256"
        }
      ],
      "payable": false,
      "stateMutability": "view",
      "type": "function"
    },
    {
      "constant": true,
      "inputs": [],
      "name": "historyCut",
      "outputs": [
        {
          "name": "",
          "type": "uint256"
        }
      ],
      "payable": false,
      "stateMutability": "view",
      "type": "function"
    },
    {
      "constant": true,
      "inputs": [],
      "name": "preparedAwards",
      "outputs": [
        {
          "name": "",
          "type": "bool"
        }
      ],
      "payable": false,
      "stateMutability": "view",
      "type": "function"
    },
    {
      "constant": true,
      "inputs": [
        {
          "name": "",
          "type": "uint256"
        }
      ],
      "name": "winnerTickets",
      "outputs": [
        {
          "name": "processedIndex",
          "type": "uint256"
        },
        {
          "name": "distributedIndex",
          "type": "uint256"
        }
      ],
      "payable": false,
      "stateMutability": "view",
      "type": "function"
    },
    {
      "constant": true,
      "inputs": [],
      "name": "chainLotTicket",
      "outputs": [
        {
          "name": "",
          "type": "address"
        }
      ],
      "payable": false,
      "stateMutability": "view",
      "type": "function"
    },
    {
      "constant": true,
      "inputs": [],
      "name": "lastMatchedTicketIndex",
      "outputs": [
        {
          "name": "",
          "type": "uint256"
        }
      ],
      "payable": false,
      "stateMutability": "view",
      "type": "function"
    },
    {
      "constant": true,
      "inputs": [],
      "name": "jackpotNumbers",
      "outputs": [
        {
          "name": "",
          "type": "bytes"
        }
      ],
      "payable": false,
      "stateMutability": "view",
      "type": "function"
    },
    {
      "constant": false,
      "inputs": [
        {
          "name": "newOwner",
          "type": "address"
        }
      ],
      "name": "transferOwnership",
      "outputs": [],
      "payable": false,
      "stateMutability": "nonpayable",
      "type": "function"
    },
    {
      "constant": true,
      "inputs": [
        {
          "name": "",
          "type": "uint256"
        }
      ],
      "name": "withdrawed",
      "outputs": [
        {
          "name": "",
          "type": "bool"
        }
      ],
      "payable": false,
      "stateMutability": "view",
      "type": "function"
    },
    {
      "constant": true,
      "inputs": [
        {
          "name": "",
          "type": "uint256"
        }
      ],
      "name": "distributeTickets",
      "outputs": [
        {
          "name": "processedIndex",
          "type": "uint256"
        },
        {
          "name": "distributedIndex",
          "type": "uint256"
        }
      ],
      "payable": false,
      "stateMutability": "view",
      "type": "function"
    },
    {
      "inputs": [
        {
          "name": "_poolBlockNumber",
          "type": "uint256"
        },
        {
          "name": "_maxWhiteNumber",
          "type": "uint8"
        },
        {
          "name": "_maxYellowNumber",
          "type": "uint8"
        },
        {
          "name": "_whiteNumberCount",
          "type": "uint8"
        },
        {
          "name": "_yellowNumberCount",
          "type": "uint8"
        },
        {
          "name": "_etherPerTicket",
          "type": "uint256"
        },
        {
          "name": "awardRulesArray",
          "type": "uint256[]"
        }
      ],
      "payable": false,
      "stateMutability": "nonpayable",
      "type": "constructor"
    },
    {
      "anonymous": false,
      "inputs": [
        {
          "indexed": false,
          "name": "poolBlockNumber",
          "type": "uint256"
        },
        {
          "indexed": false,
          "name": "numbers",
          "type": "bytes"
        },
        {
          "indexed": false,
          "name": "ticketCount",
          "type": "uint256"
        },
        {
          "indexed": false,
          "name": "ticketId",
          "type": "uint256"
        },
        {
          "indexed": false,
          "name": "user",
          "type": "address"
        },
        {
          "indexed": false,
          "name": "blockNumber",
          "type": "uint256"
        },
        {
          "indexed": false,
          "name": "totalTicketCountSum",
          "type": "uint256"
        },
        {
          "indexed": false,
          "name": "value",
          "type": "uint256"
        }
      ],
      "name": "BuyTicket",
      "type": "event"
    },
    {
      "anonymous": false,
      "inputs": [
        {
          "indexed": false,
          "name": "jackpotNumbers",
          "type": "bytes"
        },
        {
          "indexed": false,
          "name": "poolBlockNumber",
          "type": "uint256"
        },
        {
          "indexed": false,
          "name": "allTicketsCount",
          "type": "uint256"
        }
      ],
      "name": "PrepareAward",
      "type": "event"
    },
    {
      "anonymous": false,
      "inputs": [
        {
          "indexed": false,
          "name": "jackpotNumbers",
          "type": "bytes"
        },
        {
          "indexed": false,
          "name": "ticketNumber",
          "type": "bytes32"
        },
        {
          "indexed": false,
          "name": "ticketCount",
          "type": "uint256"
        },
        {
          "indexed": false,
          "name": "ticketId",
          "type": "uint256"
        },
        {
          "indexed": false,
          "name": "user",
          "type": "address"
        },
        {
          "indexed": false,
          "name": "blockNumber",
          "type": "uint256"
        },
        {
          "indexed": false,
          "name": "awardValue",
          "type": "uint256"
        }
      ],
      "name": "ToBeAward",
      "type": "event"
    },
    {
      "anonymous": false,
      "inputs": [
        {
          "indexed": false,
          "name": "jackpotNumbers",
          "type": "bytes"
        },
        {
          "indexed": false,
          "name": "lastMatchedTicketIndex",
          "type": "uint256"
        },
        {
          "indexed": false,
          "name": "endIndex",
          "type": "uint256"
        },
        {
          "indexed": false,
          "name": "allTicketsCount",
          "type": "uint256"
        }
      ],
      "name": "MatchAwards",
      "type": "event"
    },
    {
      "anonymous": false,
      "inputs": [
        {
          "indexed": false,
          "name": "jackpotNumbers",
          "type": "bytes"
        },
        {
          "indexed": false,
          "name": "ticketNumber",
          "type": "bytes32"
        },
        {
          "indexed": false,
          "name": "ticketCount",
          "type": "uint256"
        },
        {
          "indexed": false,
          "name": "ticketId",
          "type": "uint256"
        },
        {
          "indexed": false,
          "name": "blockNumber",
          "type": "uint256"
        },
        {
          "indexed": false,
          "name": "ruleId",
          "type": "uint256"
        },
        {
          "indexed": false,
          "name": "ruleEther",
          "type": "uint256"
        }
      ],
      "name": "MatchRule",
      "type": "event"
    },
    {
      "anonymous": false,
      "inputs": [
        {
          "indexed": false,
          "name": "winner",
          "type": "address"
        },
        {
          "indexed": false,
          "name": "value",
          "type": "uint256"
        }
      ],
      "name": "TransferAward",
      "type": "event"
    },
    {
      "anonymous": false,
      "inputs": [
        {
          "indexed": false,
          "name": "dev",
          "type": "address"
        },
        {
          "indexed": false,
          "name": "value",
          "type": "uint256"
        }
      ],
      "name": "TransferDevCut",
      "type": "event"
    },
    {
      "anonymous": false,
      "inputs": [
        {
          "indexed": false,
          "name": "user",
          "type": "address"
        },
        {
          "indexed": false,
          "name": "value",
          "type": "uint256"
        }
      ],
      "name": "TransferHistoryCut",
      "type": "event"
    },
    {
      "anonymous": false,
      "inputs": [
        {
          "indexed": false,
          "name": "added",
          "type": "uint256"
        },
        {
          "indexed": false,
          "name": "total",
          "type": "uint256"
        }
      ],
      "name": "AddHistoryCut",
      "type": "event"
    },
    {
      "anonymous": false,
      "inputs": [
        {
          "indexed": false,
          "name": "ruleId",
          "type": "uint8"
        },
        {
          "indexed": false,
          "name": "winnersTicketCount",
          "type": "uint256"
        },
        {
          "indexed": false,
          "name": "awardEther",
          "type": "uint256"
        },
        {
          "indexed": false,
          "name": "totalWinnersAward",
          "type": "uint256"
        },
        {
          "indexed": false,
          "name": "totalTicketCount",
          "type": "uint256"
        }
      ],
      "name": "CalculateAwards",
      "type": "event"
    },
    {
      "anonymous": false,
      "inputs": [
        {
          "indexed": false,
          "name": "ruleId",
          "type": "uint8"
        },
        {
          "indexed": false,
          "name": "totalWinnersAward",
          "type": "uint256"
        },
        {
          "indexed": false,
          "name": "leftBalance",
          "type": "uint256"
        }
      ],
      "name": "SplitAward",
      "type": "event"
    },
    {
      "anonymous": false,
      "inputs": [
        {
          "indexed": false,
          "name": "from",
          "type": "address"
        },
        {
          "indexed": false,
          "name": "to",
          "type": "address"
        },
        {
          "indexed": false,
          "name": "value",
          "type": "uint256"
        }
      ],
      "name": "TransferUnawarded",
      "type": "event"
    },
    {
      "anonymous": false,
      "inputs": [
        {
          "indexed": false,
          "name": "random",
          "type": "uint256"
        },
        {
          "indexed": false,
          "name": "blockNumber",
          "type": "uint256"
        },
        {
          "indexed": false,
          "name": "hash",
          "type": "uint256"
        },
        {
          "indexed": false,
          "name": "addressInt",
          "type": "uint256"
        },
        {
          "indexed": false,
          "name": "shift",
          "type": "uint256"
        }
      ],
      "name": "GenRandomNumbers",
      "type": "event"
    },
    {
      "anonymous": false,
      "inputs": [
        {
          "indexed": false,
          "name": "msg",
          "type": "uint256"
        }
      ],
      "name": "LOG",
      "type": "event"
    },
    {
      "constant": false,
      "inputs": [
        {
          "name": "_chainLotTicket",
          "type": "address"
        },
        {
          "name": "_clToken",
          "type": "address"
        },
        {
          "name": "_chainLot",
          "type": "address"
        }
      ],
      "name": "setPool",
      "outputs": [],
      "payable": false,
      "stateMutability": "nonpayable",
      "type": "function"
    },
    {
      "constant": false,
      "inputs": [
        {
          "name": "numbers",
          "type": "bytes"
        },
        {
          "name": "referer",
          "type": "address"
        }
      ],
      "name": "buyTicket",
      "outputs": [],
      "payable": true,
      "stateMutability": "payable",
      "type": "function"
    },
    {
      "constant": false,
      "inputs": [
        {
          "name": "referer",
          "type": "address"
        }
      ],
      "name": "buyRandom",
      "outputs": [],
      "payable": true,
      "stateMutability": "payable",
      "type": "function"
    },
    {
      "constant": false,
      "inputs": [
        {
          "name": "_from",
          "type": "address"
        },
        {
          "name": "_value",
          "type": "uint256"
        },
        {
          "name": "_token",
          "type": "address"
        },
        {
          "name": "_extraData",
          "type": "bytes"
        }
      ],
      "name": "receiveApproval",
      "outputs": [],
      "payable": false,
      "stateMutability": "nonpayable",
      "type": "function"
    },
    {
      "constant": false,
      "inputs": [],
      "name": "prepareAwards",
      "outputs": [],
      "payable": false,
      "stateMutability": "nonpayable",
      "type": "function"
    },
    {
      "constant": false,
      "inputs": [
        {
          "name": "toMatchCount",
          "type": "uint8"
        }
      ],
      "name": "matchAwards",
      "outputs": [],
      "payable": false,
      "stateMutability": "nonpayable",
      "type": "function"
    },
    {
      "constant": true,
      "inputs": [],
      "name": "getAllTicketsCount",
      "outputs": [
        {
          "name": "count",
          "type": "uint256"
        }
      ],
      "payable": false,
      "stateMutability": "view",
      "type": "function"
    },
    {
      "constant": false,
      "inputs": [
        {
          "name": "ruleId",
          "type": "uint8"
        },
        {
          "name": "toCalcCount",
          "type": "uint8"
        }
      ],
      "name": "calculateAwards",
      "outputs": [],
      "payable": false,
      "stateMutability": "nonpayable",
      "type": "function"
    },
    {
      "constant": false,
      "inputs": [],
      "name": "splitAward",
      "outputs": [],
      "payable": false,
      "stateMutability": "nonpayable",
      "type": "function"
    },
    {
      "constant": false,
      "inputs": [
        {
          "name": "ruleId",
          "type": "uint8"
        },
        {
          "name": "toDistCount",
          "type": "uint256"
        }
      ],
      "name": "distributeAwards",
      "outputs": [],
      "payable": false,
      "stateMutability": "nonpayable",
      "type": "function"
    },
    {
      "constant": false,
      "inputs": [
        {
          "name": "toAwardCount",
          "type": "uint256"
        }
      ],
      "name": "sendAwards",
      "outputs": [],
      "payable": false,
      "stateMutability": "nonpayable",
      "type": "function"
    },
    {
      "constant": false,
      "inputs": [
        {
          "name": "ticketIds",
          "type": "uint256[]"
        }
      ],
      "name": "withdrawHistoryCut",
      "outputs": [],
      "payable": false,
      "stateMutability": "nonpayable",
      "type": "function"
    },
    {
      "constant": false,
      "inputs": [
        {
          "name": "user",
          "type": "address"
        },
        {
          "name": "ticketIds",
          "type": "uint256[]"
        }
      ],
      "name": "listUserHistoryCut",
      "outputs": [
        {
          "name": "_historyCut",
          "type": "uint256"
        }
      ],
      "payable": false,
      "stateMutability": "nonpayable",
      "type": "function"
    },
    {
      "constant": false,
      "inputs": [
        {
          "name": "to",
          "type": "address"
        }
      ],
      "name": "transferUnawarded",
      "outputs": [],
      "payable": false,
      "stateMutability": "nonpayable",
      "type": "function"
    }
  ],
  "bytecode": "0x606060405234156200001057600080fd5b604051620041e7380380620041e7833981016040528080519060200190919080519060200190919080519060200190919080519060200190919080519060200190919080519060200190919080518201919050506000336000806101000a81548173ffffffffffffffffffffffffffffffffffffffff021916908373ffffffffffffffffffffffffffffffffffffffff1602179055508760018190555086600260006101000a81548160ff021916908360ff16021790555085600260016101000a81548160ff021916908360ff16021790555084600760006101000a81548160ff021916908360ff16021790555083600760016101000a81548160ff021916908360ff16021790555082600381905550600760019054906101000a900460ff16600760009054906101000a900460ff1601600760026101000a81548160ff021916908360ff160217905550600090505b81518110156200037557815160038201111515156200017e57600080fd5b600082828151811015156200018f57fe5b9060200190602002015110158015620001d25750600760009054906101000a900460ff1660ff168282815181101515620001c557fe5b9060200190602002015111155b1515620001de57600080fd5b60008260018301815181101515620001f257fe5b9060200190602002015110158015620002385750600760019054906101000a900460ff1660ff1682600183018151811015156200022b57fe5b9060200190602002015111155b15156200024457600080fd5b601080548060010182816200025a919062000400565b9160005260206000209060030201600060606040519081016040528086868151811015156200028557fe5b9060200190602002015181526020018660018701815181101515620002a657fe5b9060200190602002015181526020018660028701815181101515620002c757fe5b906020019060200201518152509091909150600082015181600001556020820151816001015560408201518160020155505050601080549050600d60006200035785858151811015156200031757fe5b9060200190602002015186600187018151811015156200033357fe5b90602001906020020151620003dc6401000000000262003239176401000000009004565b81526020019081526020016000208190555060038101905062000160565b600090505b601080549050811015620003ce576000600e6000838152602001908152602001600020600101819055506000600e60008381526020019081526020016000206002018190555080806001019150506200037a565b50505050505050506200046f565b6000816001600760019054906101000a900460ff160160ff16840201905092915050565b81548183558181151162000430576003028160030283600052602060002091820191016200042f919062000435565b5b505050565b6200046c91905b80821115620004685760008082016000905560018201600090556002820160009055506003016200043c565b5090565b90565b613d68806200047f6000396000f3006060604052600436106101e3576000357c0100000000000000000000000000000000000000000000000000000000900463ffffffff16806304b92f3f146101e85780630800e5f11461021a5780630850cc4b1461026f578063162055201461029d57806317f3d493146102cc57806337f4a9c4146102f25780633e43be3c1461032157806350b9bc92146103765780635255f1e4146103a45780635b328df6146103e95780635f7d9287146104205780636c933d851461044f5780636ea6c8b21461047857806370f4c343146104e95780637266a23214610518578063758b9ee01461054157806382512ef81461056a57806388963771146105995780638da5cb5b146105c25780638f4ffcb1146106175780639a62b39a146106bb5780639c7365e5146107325780639eb623d714610761578063a47808371461078a578063a703cc3d1461079f578063aa2aaeca146107c2578063b86d7c6c146107f9578063cda886d614610822578063d6d583f71461084b578063d8d9125514610878578063dfcab417146108b1578063e1e3af69146108ef578063e2c3156114610944578063e30290941461096d578063ee5bac89146109fb578063f29b7ae614610a5c578063f2fde38b14610a71578063f3aa119314610aaa578063f58a789814610ae5575b600080fd5b34156101f357600080fd5b610218600480803560ff1690602001909190803560ff16906020019091905050610b23565b005b341561022557600080fd5b61022d610eda565b604051808273ffffffffffffffffffffffffffffffffffffffff1673ffffffffffffffffffffffffffffffffffffffff16815260200191505060405180910390f35b61029b600480803573ffffffffffffffffffffffffffffffffffffffff16906020019091905050610f00565b005b34156102a857600080fd5b6102b0610f26565b604051808260ff1660ff16815260200191505060405180910390f35b34156102d757600080fd5b6102f0600480803560ff16906020019091905050610f39565b005b34156102fd57600080fd5b61030561160d565b604051808260ff1660ff16815260200191505060405180910390f35b341561032c57600080fd5b610334611620565b604051808273ffffffffffffffffffffffffffffffffffffffff1673ffffffffffffffffffffffffffffffffffffffff16815260200191505060405180910390f35b341561038157600080fd5b6103a260048080359060200190820180359060200191909192905050611646565b005b34156103af57600080fd5b6103c560048080359060200190919050506117cd565b60405180848152602001838152602001828152602001935050505060405180910390f35b34156103f457600080fd5b61040a6004808035906020019091905050611806565b6040518082815260200191505060405180910390f35b341561042b57600080fd5b61043361182a565b604051808260ff1660ff16815260200191505060405180910390f35b341561045a57600080fd5b61046261183d565b6040518082815260200191505060405180910390f35b6104e7600480803590602001908201803590602001908080601f0160208091040260200160405190810160405280939291908181526020018383808284378201915050505050509190803573ffffffffffffffffffffffffffffffffffffffff16906020019091905050611843565b005b34156104f457600080fd5b6104fc6119de565b604051808260ff1660ff16815260200191505060405180910390f35b341561052357600080fd5b61052b6119f1565b6040518082815260200191505060405180910390f35b341561054c57600080fd5b6105546119f7565b6040518082815260200191505060405180910390f35b341561057557600080fd5b610597600480803560ff16906020019091908035906020019091905050611a04565b005b34156105a457600080fd5b6105ac611f3b565b6040518082815260200191505060405180910390f35b34156105cd57600080fd5b6105d5611f41565b604051808273ffffffffffffffffffffffffffffffffffffffff1673ffffffffffffffffffffffffffffffffffffffff16815260200191505060405180910390f35b341561062257600080fd5b6106b9600480803573ffffffffffffffffffffffffffffffffffffffff1690602001909190803590602001909190803573ffffffffffffffffffffffffffffffffffffffff1690602001909190803590602001908201803590602001908080601f01602080910402602001604051908101604052809392919081815260200183838082843782019150505050505091905050611f66565b005b34156106c657600080fd5b610730600480803573ffffffffffffffffffffffffffffffffffffffff1690602001909190803573ffffffffffffffffffffffffffffffffffffffff1690602001909190803573ffffffffffffffffffffffffffffffffffffffff16906020019091905050612050565b005b341561073d57600080fd5b610745612158565b604051808260ff1660ff16815260200191505060405180910390f35b341561076c57600080fd5b61077461216b565b6040518082815260200191505060405180910390f35b341561079557600080fd5b61079d612171565b005b34156107aa57600080fd5b6107c060048080359060200190919050506123e8565b005b34156107cd57600080fd5b6107e360048080359060200190919050506128e0565b6040518082815260200191505060405180910390f35b341561080457600080fd5b61080c6128f8565b6040518082815260200191505060405180910390f35b341561082d57600080fd5b6108356128fe565b6040518082815260200191505060405180910390f35b341561085657600080fd5b61085e612904565b604051808215151515815260200191505060405180910390f35b341561088357600080fd5b6108af600480803573ffffffffffffffffffffffffffffffffffffffff16906020019091905050612917565b005b34156108bc57600080fd5b6108d26004808035906020019091905050612c00565b604051808381526020018281526020019250505060405180910390f35b34156108fa57600080fd5b610902612c24565b604051808273ffffffffffffffffffffffffffffffffffffffff1673ffffffffffffffffffffffffffffffffffffffff16815260200191505060405180910390f35b341561094f57600080fd5b610957612c4a565b6040518082815260200191505060405180910390f35b341561097857600080fd5b610980612c50565b6040518080602001828103825283818151815260200191508051906020019080838360005b838110156109c05780820151818401526020810190506109a5565b50505050905090810190601f1680156109ed5780820380516001836020036101000a031916815260200191505b509250505060405180910390f35b3415610a0657600080fd5b610a46600480803573ffffffffffffffffffffffffffffffffffffffff169060200190919080359060200190820180359060200191909192905050612cee565b6040518082815260200191505060405180910390f35b3415610a6757600080fd5b610a6f612d34565b005b3415610a7c57600080fd5b610aa8600480803573ffffffffffffffffffffffffffffffffffffffff16906020019091905050612ecc565b005b3415610ab557600080fd5b610acb6004808035906020019091905050612f6a565b604051808215151515815260200191505060405180910390f35b3415610af057600080fd5b610b066004808035906020019091905050612f8a565b604051808381526020018281526020019250505060405180910390f35b6000806000806000806000806000806000809054906101000a900473ffffffffffffffffffffffffffffffffffffffff1673ffffffffffffffffffffffffffffffffffffffff163373ffffffffffffffffffffffffffffffffffffffff16141515610b8d57600080fd5b600680549050600854141515610ba257600080fd5b6001544310151515610bb357600080fd5b600e60008d60ff16815260200190815260200160002060010154600e60008e60ff168152602001908152602001600020600001805490501115610eae5760009950600098508a60ff16600e60008e60ff16815260200190815260200160002060010154019750600e60008d60ff16815260200190815260200160002060000180549050881115610c5d57600e60008d60ff1681526020019081526020016000206000018054905097505b600e60008d60ff1681526020019081526020016000206001015496505b87871015610ddf57600e60008d60ff16815260200190815260200160002060000187815481101515610ca857fe5b9060005260206000209001549550601160009054906101000a900473ffffffffffffffffffffffffffffffffffffffff1673ffffffffffffffffffffffffffffffffffffffff16637dc379fa87600060405160a001526040518263ffffffff167c01000000000000000000000000000000000000000000000000000000000281526004018082815260200191505060a060405180830381600087803b1515610d4f57600080fd5b6102c65a03f11515610d6057600080fd5b505050604051805190602001805190602001805190602001805190602001805190508367ffffffffffffffff169350809550819650829750839850849950505050505060108c60ff16815481101515610db557fe5b90600052602060002090600302016002015482028a01995081890198508680600101975050610c7a565b7f808ec1b88c41a836613e4712515f12af4d4862d29ac075e1d013a1e59d67beb88c8960108f60ff16815481101515610e1457fe5b9060005260206000209060030201600201548d8d604051808660ff1660ff1681526020018581526020018481526020018381526020018281526020019550505050505060405180910390a189601760008e60ff1681526020019081526020016000206000016000828254019250508190555088601760008e60ff168152602001908152602001600020600101600082825401925050819055505b87600e60008e60ff16815260200190815260200160002060010181905550505050505050505050505050565b601260009054906101000a900473ffffffffffffffffffffffffffffffffffffffff1681565b610f08613ba7565b610f16600143036000612fae565b9050610f228183611843565b5050565b600760029054906101000a900460ff1681565b610f41613ba7565b6000806000806000806000806000806000806000809054906101000a900473ffffffffffffffffffffffffffffffffffffffff1673ffffffffffffffffffffffffffffffffffffffff163373ffffffffffffffffffffffffffffffffffffffff16141515610fae57600080fd5b600a60009054906101000a900460ff161515610fc957600080fd5b60098054600181600116156101000203166002900480601f01602080910402602001604051908101604052809291908181526020018280546001816001161561010002031660029004801561105f5780601f106110345761010080835404028352916020019161105f565b820191906000526020600020905b81548152906001019060200180831161104257829003601f168201915b50505050509c508d60ff16600854019b506006805490508c1115611086576006805490509b505b7f4e2e100bb46d169cac165c3957df4ab6bfee3526726a694f7b24aa85189c05248d6008548e6006805490506040518080602001858152602001848152602001838152602001828103825286818151815260200191508051906020019080838360005b838110156111045780820151818401526020810190506110e9565b50505050905090810190601f1680156111315780820380516001836020036101000a031916815260200191505b509550505050505060405180910390a16008549a505b8b8b10156115fd5760068b81548110151561115e57fe5b9060005260206000209001549950601160009054906101000a900473ffffffffffffffffffffffffffffffffffffffff1673ffffffffffffffffffffffffffffffffffffffff16637dc379fa8b600060405160a001526040518263ffffffff167c01000000000000000000000000000000000000000000000000000000000281526004018082815260200191505060a060405180830381600087803b151561120557600080fd5b6102c65a03f1151561121657600080fd5b505050604051805190602001805190602001805190602001805190602001805190508367ffffffffffffffff169350809950819a50829b50839c50849d5050505050506000935060009250600091505b600760009054906101000a900460ff1660ff1682101561136a578c8281518110151561128e57fe5b9060200101517f010000000000000000000000000000000000000000000000000000000000000090047f0100000000000000000000000000000000000000000000000000000000000000027effffffffffffffffffffffffffffffffffffffffffffffffffffffffffffff1916878360208110151561130957fe5b1a7f0100000000000000000000000000000000000000000000000000000000000000027effffffffffffffffffffffffffffffffffffffffffffffffffffffffffffff1916141561135d5783806001019450505b8180600101925050611266565b600760009054906101000a900460ff1660ff1691505b8c51821015611473578c8281518110151561139757fe5b9060200101517f010000000000000000000000000000000000000000000000000000000000000090047f0100000000000000000000000000000000000000000000000000000000000000027effffffffffffffffffffffffffffffffffffffffffffffffffffffffffffff1916878360208110151561141257fe5b1a7f0100000000000000000000000000000000000000000000000000000000000000027effffffffffffffffffffffffffffffffffffffffffffffffffffffffffffff191614156114665782806001019350505b8180600101925050611380565b6001600d60006114838787613239565b815260200190815260200160002054039050600081101580156114aa575060108054905081105b156115e557600e600082815260200190815260200160002060000180548060010182816114d79190613bbb565b916000526020600020900160008c909190915055507f15a18365e92c43ca2cb496edf4f5752eb98cae38c464f3d9de64e1ddefb901968d88888d898660108881548110151561152257fe5b90600052602060002090600302016002015460405180806020018860001916600019168152602001878152602001868152602001858152602001848152602001838152602001828103825289818151815260200191508051906020019080838360005b838110156115a0578082015181840152602081019050611585565b50505050905090810190601f1680156115cd5780820380516001836020036101000a031916815260200191505b509850505050505050505060405180910390a16115e6565b5b60018b016008819055508a806001019b5050611147565b5050505050505050505050505050565b600760019054906101000a900460ff1681565b601360009054906101000a900473ffffffffffffffffffffffffffffffffffffffff1681565b600061168383838080602002602001604051908101604052809392919081815260200183836020028082843782019150505050505032600061325d565b9050601260009054906101000a900473ffffffffffffffffffffffffffffffffffffffff1673ffffffffffffffffffffffffffffffffffffffff1663a9059cbb32836040518363ffffffff167c0100000000000000000000000000000000000000000000000000000000028152600401808373ffffffffffffffffffffffffffffffffffffffff1673ffffffffffffffffffffffffffffffffffffffff16815260200182815260200192505050600060405180830381600087803b151561174957600080fd5b6102c65a03f1151561175a57600080fd5b5050507fede4d03c867cd33eef808cb7e94941039fcb41bddb496675b7df85c4f9533bc33282604051808373ffffffffffffffffffffffffffffffffffffffff1673ffffffffffffffffffffffffffffffffffffffff1681526020018281526020019250505060405180910390a1505050565b6010818154811015156117dc57fe5b90600052602060002090600302016000915090508060000154908060010154908060020154905083565b60068181548110151561181557fe5b90600052602060002090016000915090505481565b600260019054906101000a900460ff1681565b60045481565b60006001544310151561185557600080fd5b6000601260009054906101000a900473ffffffffffffffffffffffffffffffffffffffff1673ffffffffffffffffffffffffffffffffffffffff161415151561189d57600080fd5b600354348115156118aa57fe5b0490506000811115156118bc57600080fd5b601260009054906101000a900473ffffffffffffffffffffffffffffffffffffffff1673ffffffffffffffffffffffffffffffffffffffff1663a6f2ae3a346040518263ffffffff167c01000000000000000000000000000000000000000000000000000000000281526004016000604051808303818588803b151561194157600080fd5b6125ee5a03f1151561195257600080fd5b5050505034600c6000828254019250508190555061197232848334613566565b5060008273ffffffffffffffffffffffffffffffffffffffff16141580156119c657508173ffffffffffffffffffffffffffffffffffffffff163273ffffffffffffffffffffffffffffffffffffffff1614155b156119d9576119d782848334613566565b505b505050565b600260009054906101000a900460ff1681565b60055481565b6000600680549050905090565b6000806000806000806000806000611a1a613be7565b6000809054906101000a900473ffffffffffffffffffffffffffffffffffffffff1673ffffffffffffffffffffffffffffffffffffffff163373ffffffffffffffffffffffffffffffffffffffff16141515611a7557600080fd5b8a600e60008e60ff16815260200190815260200160002060020154019950600e60008d60ff168152602001908152602001600020600001805490508a1115611ad757600e60008d60ff1681526020019081526020016000206000018054905099505b6000601760008e60ff168152602001908152602001600020600101541115611f0f57600e60008d60ff1681526020019081526020016000206002015498505b89891015611f0e57600e60008d60ff16815260200190815260200160002060000189815481101515611b4457fe5b9060005260206000209001549750601160009054906101000a900473ffffffffffffffffffffffffffffffffffffffff1673ffffffffffffffffffffffffffffffffffffffff16637dc379fa89600060405160a001526040518263ffffffff167c01000000000000000000000000000000000000000000000000000000000281526004018082815260200191505060a060405180830381600087803b1515611beb57600080fd5b6102c65a03f11515611bfc57600080fd5b505050604051805190602001805190602001805190602001805190602001805190508367ffffffffffffffff169350809750819850829950839a50849b505050505050601760008d60ff16815260200190815260200160002060010154601760008e60ff168152602001908152602001600020600001548502811515611c7e57fe5b0491506040805190810160405280601160009054906101000a900473ffffffffffffffffffffffffffffffffffffffff1673ffffffffffffffffffffffffffffffffffffffff16636352211e8b6000604051602001526040518263ffffffff167c010000000000000000000000000000000000000000000000000000000002815260040180828152602001915050602060405180830381600087803b1515611d2557600080fd5b6102c65a03f11515611d3657600080fd5b5050506040518051905073ffffffffffffffffffffffffffffffffffffffff16815260200183815250905060148054806001018281611d759190613c17565b9160005260206000209060020201600083909190915060008201518160000160006101000a81548173ffffffffffffffffffffffffffffffffffffffff021916908373ffffffffffffffffffffffffffffffffffffffff160217905550602082015181600101555050507fb01bccb254382e42f8be08efc626846d5e2dcded1f9fdfee72de9902527f5727600986868b85600001518888604051808060200188600019166000191681526020018781526020018681526020018573ffffffffffffffffffffffffffffffffffffffff1673ffffffffffffffffffffffffffffffffffffffff168152602001848152602001838152602001828103825289818154600181600116156101000203166002900481526020019150805460018160011615610100020316600290048015611eed5780601f10611ec257610100808354040283529160200191611eed565b820191906000526020600020905b815481529060010190602001808311611ed057829003601f168201915b50509850505050505050505060405180910390a18880600101995050611b16565b5b89600e60008e60ff16815260200190815260200160002060020181905550505050505050505050505050565b600c5481565b6000809054906101000a900473ffffffffffffffffffffffffffffffffffffffff1681565b6000611f70613ba7565b601260009054906101000a900473ffffffffffffffffffffffffffffffffffffffff1673ffffffffffffffffffffffffffffffffffffffff168473ffffffffffffffffffffffffffffffffffffffff16141515611fcc57600080fd5b600083511480611fee5750600760029054906101000a900460ff1660ff168351145b1515611ff957600080fd5b6003548581151561200657fe5b04915060008211151561201857600080fd5b60008351141561203757612030600143036000612fae565b905061203b565b8290505b61204786828488613566565b50505050505050565b82601160006101000a81548173ffffffffffffffffffffffffffffffffffffffff021916908373ffffffffffffffffffffffffffffffffffffffff16021790555081601260006101000a81548173ffffffffffffffffffffffffffffffffffffffff021916908373ffffffffffffffffffffffffffffffffffffffff16021790555080601360006101000a81548173ffffffffffffffffffffffffffffffffffffffff021916908373ffffffffffffffffffffffffffffffffffffffff160217905550326000806101000a81548173ffffffffffffffffffffffffffffffffffffffff021916908373ffffffffffffffffffffffffffffffffffffffff160217905550505050565b600760009054906101000a900460ff1681565b60015481565b6000806000809054906101000a900473ffffffffffffffffffffffffffffffffffffffff1673ffffffffffffffffffffffffffffffffffffffff163373ffffffffffffffffffffffffffffffffffffffff161415156121cf57600080fd5b601260009054906101000a900473ffffffffffffffffffffffffffffffffffffffff1673ffffffffffffffffffffffffffffffffffffffff166370a08231306000604051602001526040518263ffffffff167c0100000000000000000000000000000000000000000000000000000000028152600401808273ffffffffffffffffffffffffffffffffffffffff1673ffffffffffffffffffffffffffffffffffffffff168152602001915050602060405180830381600087803b151561229457600080fd5b6102c65a03f115156122a557600080fd5b505050604051805190509150600090505b6010805490508160ff1610156123e457600e60008260ff16815260200190815260200160002060000180549050600e60008360ff1681526020019081526020016000206001015414151561230957600080fd5b601760008260ff168152602001908152602001600020600001548210151561234e57601760008260ff1681526020019081526020016000206000015482039150612371565b81601760008360ff16815260200190815260200160002060000181905550600091505b7f53c5531a2a6e3b9168a9afac57f2dd8c3dffaad74813d964e6cf1ebbca23b9b481601760008460ff1681526020019081526020016000206000015484604051808460ff1660ff168152602001838152602001828152602001935050505060405180910390a180806001019150506122b6565b5050565b6000806000806000806000809054906101000a900473ffffffffffffffffffffffffffffffffffffffff1673ffffffffffffffffffffffffffffffffffffffff163373ffffffffffffffffffffffffffffffffffffffff1614151561244c57600080fd5b866015540195506014805490508611156124695760148054905095505b6000945060009350600092506000915060155490505b858110156126e6576064605860148381548110151561249a57fe5b906000526020600020906002020160010154028115156124b657fe5b049150600a6014828154811015156124ca57fe5b9060005260206000209060020201600101548115156124e557fe5b049250828401935082826014838154811015156124fe57fe5b906000526020600020906002020160010154030385019450601260009054906101000a900473ffffffffffffffffffffffffffffffffffffffff1673ffffffffffffffffffffffffffffffffffffffff1663a9059cbb60148381548110151561256357fe5b906000526020600020906002020160000160009054906101000a900473ffffffffffffffffffffffffffffffffffffffff16846040518363ffffffff167c0100000000000000000000000000000000000000000000000000000000028152600401808373ffffffffffffffffffffffffffffffffffffffff1673ffffffffffffffffffffffffffffffffffffffff16815260200182815260200192505050600060405180830381600087803b151561261a57600080fd5b6102c65a03f1151561262b57600080fd5b5050507f1b6d8b654cd01f384b6ff31c93d6ddd4a913a1dfd77dc76c1b9e4a542deada4e60148281548110151561265e57fe5b906000526020600020906002020160000160009054906101000a900473ffffffffffffffffffffffffffffffffffffffff1683604051808373ffffffffffffffffffffffffffffffffffffffff1673ffffffffffffffffffffffffffffffffffffffff1681526020018281526020019250505060405180910390a1808060010191505061247f565b600085111561287557601260009054906101000a900473ffffffffffffffffffffffffffffffffffffffff1673ffffffffffffffffffffffffffffffffffffffff1663a9059cbb6000809054906101000a900473ffffffffffffffffffffffffffffffffffffffff16876040518363ffffffff167c0100000000000000000000000000000000000000000000000000000000028152600401808373ffffffffffffffffffffffffffffffffffffffff1673ffffffffffffffffffffffffffffffffffffffff16815260200182815260200192505050600060405180830381600087803b15156127d457600080fd5b6102c65a03f115156127e557600080fd5b5050507ffd9fb33b1445303659e522c1835afcc964050ac9820f5022796f9df1e088e8456000809054906101000a900473ffffffffffffffffffffffffffffffffffffffff1686604051808373ffffffffffffffffffffffffffffffffffffffff1673ffffffffffffffffffffffffffffffffffffffff1681526020018281526020019250505060405180910390a15b60008411156128d05783600b600082825401925050819055507faad75236bdf067f1567e2c65465b13aad95599b18ead98fa61e35e8fa3ce9fb884600b54604051808381526020018281526020019250505060405180910390a15b8560158190555050505050505050565b600d6020528060005260406000206000915090505481565b60035481565b600b5481565b600a60009054906101000a900460ff1681565b6000806000809054906101000a900473ffffffffffffffffffffffffffffffffffffffff1673ffffffffffffffffffffffffffffffffffffffff163373ffffffffffffffffffffffffffffffffffffffff1614151561297557600080fd5b600091505b60108054905082101561299457818060010192505061297a565b600b54601260009054906101000a900473ffffffffffffffffffffffffffffffffffffffff1673ffffffffffffffffffffffffffffffffffffffff166370a08231306000604051602001526040518263ffffffff167c0100000000000000000000000000000000000000000000000000000000028152600401808273ffffffffffffffffffffffffffffffffffffffff1673ffffffffffffffffffffffffffffffffffffffff168152602001915050602060405180830381600087803b1515612a5c57600080fd5b6102c65a03f11515612a6d57600080fd5b505050604051805190500390506000811115612bfb57601260009054906101000a900473ffffffffffffffffffffffffffffffffffffffff1673ffffffffffffffffffffffffffffffffffffffff1663a9059cbb84836040518363ffffffff167c0100000000000000000000000000000000000000000000000000000000028152600401808373ffffffffffffffffffffffffffffffffffffffff1673ffffffffffffffffffffffffffffffffffffffff16815260200182815260200192505050600060405180830381600087803b1515612b4757600080fd5b6102c65a03f11515612b5857600080fd5b5050507fd3c8e61b3f3589e41778ffcfb76754be14fb22fbdabd8371a332c3b145f0c3e3308483604051808473ffffffffffffffffffffffffffffffffffffffff1673ffffffffffffffffffffffffffffffffffffffff1681526020018373ffffffffffffffffffffffffffffffffffffffff1673ffffffffffffffffffffffffffffffffffffffff168152602001828152602001935050505060405180910390a15b505050565b600e6020528060005260406000206000915090508060010154908060020154905082565b601160009054906101000a900473ffffffffffffffffffffffffffffffffffffffff1681565b60085481565b60098054600181600116156101000203166002900480601f016020809104026020016040519081016040528092919081815260200182805460018160011615610100020316600290048015612ce65780601f10612cbb57610100808354040283529160200191612ce6565b820191906000526020600020905b815481529060010190602001808311612cc957829003601f168201915b505050505081565b6000612d2b83838080602002602001604051908101604052809392919081815260200183836020028082843782019150505050505085600161325d565b90509392505050565b6000809054906101000a900473ffffffffffffffffffffffffffffffffffffffff1673ffffffffffffffffffffffffffffffffffffffff163373ffffffffffffffffffffffffffffffffffffffff16141515612d8f57600080fd5b600a60009054906101000a900460ff16151515612dab57600080fd5b60015443111515612dbb57600080fd5b612dc86001546003612fae565b60099080519060200190612ddd929190613c49565b507fb4a3d365f86774ee97301c1ffa4061a05cffa5fcef064c4f3890a92d1bd0e2d760096001546006805490506040518080602001848152602001838152602001828103825285818154600181600116156101000203166002900481526020019150805460018160011615610100020316600290048015612e9f5780601f10612e7457610100808354040283529160200191612e9f565b820191906000526020600020905b815481529060010190602001808311612e8257829003601f168201915b505094505050505060405180910390a16001600a60006101000a81548160ff021916908315150217905550565b6000809054906101000a900473ffffffffffffffffffffffffffffffffffffffff1673ffffffffffffffffffffffffffffffffffffffff163373ffffffffffffffffffffffffffffffffffffffff16141515612f2757600080fd5b806000806101000a81548173ffffffffffffffffffffffffffffffffffffffff021916908373ffffffffffffffffffffffffffffffffffffffff16021790555050565b60166020528060005260406000206000915054906101000a900460ff1681565b600f6020528060005260406000206000915090508060010154908060020154905082565b612fb6613ba7565b6000806000612fc3613ba7565b60004388101515612fd357600080fd5b87406001900494503373ffffffffffffffffffffffffffffffffffffffff16935083850292507f98b67092887a21f3a76206488a10e8398ad164a8a9ab675994528a2ad06354db838987878b604051808681526020018581526020018481526020018381526020018281526020019550505050505060405180910390a16000831415151561306057600080fd5b86839060020a90049250600760019054906101000a900460ff16600760009054906101000a900460ff160160ff1660405180591061309b5750595b9080825280601f01601f19166020018201604052509150600090505b600760009054906101000a900460ff1660ff168160ff161015613170576001600260009054906101000a900460ff1660ff16848115156130f357fe5b06017f010000000000000000000000000000000000000000000000000000000000000002828260ff1681518110151561312857fe5b9060200101907effffffffffffffffffffffffffffffffffffffffffffffffffffffffffffff1916908160001a9053506008839060020a9004925080806001019150506130b7565b600760009054906101000a900460ff1690505b81518160ff16101561322b576001600260019054906101000a900460ff1660ff16848115156131ae57fe5b06017f010000000000000000000000000000000000000000000000000000000000000002828260ff168151811015156131e357fe5b9060200101907effffffffffffffffffffffffffffffffffffffffffffffffffffffffffffff1916908160001a9053506008839060020a900492508080600101915050613183565b819550505050505092915050565b6000816001600760019054906101000a900460ff160160ff16840201905092915050565b6000806000806000806000806000600554141561327d5760009750613558565b60009650600090505b8a5181101561354357601160009054906101000a900473ffffffffffffffffffffffffffffffffffffffff1673ffffffffffffffffffffffffffffffffffffffff16637dc379fa8c838151811015156132db57fe5b90602001906020020151600060405160a001526040518263ffffffff167c01000000000000000000000000000000000000000000000000000000000281526004018082815260200191505060a060405180830381600087803b151561333f57600080fd5b6102c65a03f1151561335057600080fd5b505050604051805190602001805190602001805190602001805190602001805190508367ffffffffffffffff169350809650819750829850839950849a50505050505060001515601660008d848151811015156133a957fe5b90602001906020020151815260200190815260200160002060009054906101000a900460ff1615151480156133df575060015482105b80156134e057508973ffffffffffffffffffffffffffffffffffffffff16601160009054906101000a900473ffffffffffffffffffffffffffffffffffffffff1673ffffffffffffffffffffffffffffffffffffffff16636352211e8d8481518110151561344957fe5b906020019060200201516000604051602001526040518263ffffffff167c010000000000000000000000000000000000000000000000000000000002815260040180828152602001915050602060405180830381600087803b15156134ad57600080fd5b6102c65a03f115156134be57600080fd5b5050506040518051905073ffffffffffffffffffffffffffffffffffffffff16145b15613536578287019650881515613535576001601660008d8481518110151561350557fe5b90602001906020020151815260200190815260200160002060006101000a81548160ff0219169083151502179055505b5b8080600101915050613286565b600554600b54880281151561355457fe5b0497505b505050505050509392505050565b6000806000600760019054906101000a900460ff16600760009054906101000a900460ff160160ff16865114151561359d57600080fd5b600091505b600760009054906101000a900460ff1660ff168260ff1610156136fc576001868360ff168151811015156135d257fe5b9060200101517f010000000000000000000000000000000000000000000000000000000000000090047f0100000000000000000000000000000000000000000000000000000000000000027f0100000000000000000000000000000000000000000000000000000000000000900460ff16101580156136e45750600260009054906101000a900460ff1660ff16868360ff1681518110151561367057fe5b9060200101517f010000000000000000000000000000000000000000000000000000000000000090047f0100000000000000000000000000000000000000000000000000000000000000027f0100000000000000000000000000000000000000000000000000000000000000900460ff1611155b15156136ef57600080fd5b81806001019250506135a2565b600760009054906101000a900460ff1691505b85518260ff161015613858576001868360ff1681518110151561372e57fe5b9060200101517f010000000000000000000000000000000000000000000000000000000000000090047f0100000000000000000000000000000000000000000000000000000000000000027f0100000000000000000000000000000000000000000000000000000000000000900460ff16101580156138405750600260019054906101000a900460ff1660ff16868360ff168151811015156137cc57fe5b9060200101517f010000000000000000000000000000000000000000000000000000000000000090047f0100000000000000000000000000000000000000000000000000000000000000027f0100000000000000000000000000000000000000000000000000000000000000900460ff1611155b151561384b57600080fd5b818060010192505061370f565b60008511151561386757600080fd5b601360009054906101000a900473ffffffffffffffffffffffffffffffffffffffff1673ffffffffffffffffffffffffffffffffffffffff1663775ed63d8888886000604051602001526040518463ffffffff167c0100000000000000000000000000000000000000000000000000000000028152600401808473ffffffffffffffffffffffffffffffffffffffff1673ffffffffffffffffffffffffffffffffffffffff16815260200180602001838152602001828103825284818151815260200191508051906020019080838360005b83811015613954578082015181840152602081019050613939565b50505050905090810190601f1680156139815780820380516001836020036101000a031916815260200191505b50945050505050602060405180830381600087803b15156139a157600080fd5b6102c65a03f115156139b257600080fd5b505050604051805190509050600680548060010182816139d29190613bbb565b916000526020600020900160008390919091505550601160009054906101000a900473ffffffffffffffffffffffffffffffffffffffff1673ffffffffffffffffffffffffffffffffffffffff16637266a2326000604051602001526040518163ffffffff167c0100000000000000000000000000000000000000000000000000000000028152600401602060405180830381600087803b1515613a7557600080fd5b6102c65a03f11515613a8657600080fd5b505050604051805190506005819055507f5668ef0a105003526dc9fcca87fdecfef80b94dc11daaab96ac3b953b3484ff86001548787848b436005548b60405180898152602001806020018881526020018781526020018673ffffffffffffffffffffffffffffffffffffffff1673ffffffffffffffffffffffffffffffffffffffff168152602001858152602001848152602001838152602001828103825289818151815260200191508051906020019080838360005b83811015613b59578082015181840152602081019050613b3e565b50505050905090810190601f168015613b865780820380516001836020036101000a031916815260200191505b50995050505050505050505060405180910390a18092505050949350505050565b602060405190810160405280600081525090565b815481835581811511613be257818360005260206000209182019101613be19190613cc9565b5b505050565b6040805190810160405280600073ffffffffffffffffffffffffffffffffffffffff168152602001600081525090565b815481835581811511613c4457600202816002028360005260206000209182019101613c439190613cee565b5b505050565b828054600181600116156101000203166002900490600052602060002090601f016020900481019282601f10613c8a57805160ff1916838001178555613cb8565b82800160010185558215613cb8579182015b82811115613cb7578251825591602001919060010190613c9c565b5b509050613cc59190613cc9565b5090565b613ceb91905b80821115613ce7576000816000905550600101613ccf565b5090565b90565b613d3991905b80821115613d3557600080820160006101000a81549073ffffffffffffffffffffffffffffffffffffffff0219169055600182016000905550600201613cf4565b5090565b905600a165627a7a723058203c15c4e643acc7e2d6d66b539a66a77a7cf05822581ac28667b5620cdfd3327b0029",
  "source": "pragma solidity ^0.4.4;\nimport \"./owned.sol\";\nimport \"./Interface.sol\";\n\ncontract ChainLotPool is owned{\n\tuint public poolBlockNumber;\n\n\tuint8 public maxWhiteNumber; //70;\n\tuint8 public maxYellowNumber; //25;\n\tuint public etherPerTicket; //10**18/100;\n\n\tuint public allTicketsCount;\n\tuint public totalTicketCountSum;\n\tuint[] public allTicketsId;\n\n\tuint8 public maxWhiteNumberCount;\n\tuint8 public maxYellowNumberCount;\n\tuint8 public totalNumberCount;\n\t\n\tuint public lastMatchedTicketIndex;\n\tbytes public jackpotNumbers;\n\tbool public preparedAwards;\n\tuint public historyCut;\n\tuint public tokenSum;\n\t\n\tmapping(uint => uint) public awardRulesIndex;\n  \tmapping(uint => winnerTicketQueue) public winnerTickets;\n  \tmapping(uint => winnerTicketQueue) public distributeTickets;\n\tawardRule[] public awardRules;\n  \tChainLotTicketInterface public chainLotTicket;\n  \tCLTokenInterface public clToken;\n  \tChainLotInterface public  chainLot;\n  \n  \tawardData[] private toBeAward;\n  \tuint private awardIndex;\n\n  \tmapping(uint => bool) public withdrawed;\n\n\tstruct awardRule{\n\t\tuint whiteNumberCount;\n\t\tuint yellowNumberCount;\n\t\tuint awardEther;\n\t}\n\n\tstruct awardData {\n\t\taddress user;\n\t\tuint value;\n\t}\n\n  \tstruct winnerTicketQueue {\n    \tuint[] ticketIds;\n    \tuint processedIndex;\n    \tuint distributedIndex;\n  \t}\n\n  \tevent BuyTicket(uint poolBlockNumber, bytes numbers, uint ticketCount, uint ticketId, address user, uint blockNumber, uint totalTicketCountSum, uint value);\n\tevent PrepareAward(bytes jackpotNumbers, uint poolBlockNumber, uint allTicketsCount);\n\tevent ToBeAward(bytes jackpotNumbers, bytes32 ticketNumber, uint ticketCount, uint ticketId, address user, uint blockNumber, uint awardValue);\n\tevent MatchAwards(bytes jackpotNumbers, uint lastMatchedTicketIndex, uint endIndex, uint allTicketsCount);\n\tevent MatchRule(bytes jackpotNumbers, bytes32 ticketNumber, uint ticketCount, uint ticketId, uint blockNumber, uint ruleId, uint ruleEther);\n  \tevent TransferAward(address winner, uint value);\n  \tevent TransferDevCut(address dev, uint value);\n  \tevent TransferHistoryCut(address user, uint value);\n  \tevent AddHistoryCut(uint added, uint total);\n  \tevent CalculateAwards(uint8 ruleId, uint winnersTicketCount, uint awardEther, uint totalWinnersAward, uint totalTicketCount);\n  \tevent SplitAward(uint8 ruleId, uint totalWinnersAward, uint leftBalance);\n  \tevent TransferUnawarded(address from, address to, uint value);\n  \tevent GenRandomNumbers(uint random, uint blockNumber, uint hash, uint addressInt, uint shift);\n\n  \tfunction ChainLotPool(uint _poolBlockNumber,\n  \t\t\t\t\t\tuint8 _maxWhiteNumber, \n\t\t\t\t\t\tuint8 _maxYellowNumber, \n\t\t\t\t\t\tuint8 _whiteNumberCount, \n\t\t\t\t\t\tuint8 _yellowNumberCount, \n\t\t\t\t\t\tuint _etherPerTicket, \n\t\t\t\t\t\tuint[] awardRulesArray) public {\n  \t\tpoolBlockNumber = _poolBlockNumber;\n  \t\tmaxWhiteNumber = _maxWhiteNumber;\n\t\tmaxYellowNumber = _maxYellowNumber;\n\t\tmaxWhiteNumberCount = _whiteNumberCount;\n\t\tmaxYellowNumberCount = _yellowNumberCount;\n\t\tetherPerTicket = _etherPerTicket;\n\t\ttotalNumberCount = maxWhiteNumberCount + maxYellowNumberCount;\n\t\t\n\n\t\tfor(uint i=0; i<awardRulesArray.length; i+=3) {\n\t\t\trequire(i+3 <= awardRulesArray.length);\n\t\t\trequire(awardRulesArray[i]>=0 && awardRulesArray[i]<=maxWhiteNumberCount);\n\t\t\trequire(awardRulesArray[i+1]>=0 && awardRulesArray[i+1]<=maxYellowNumberCount);\n\t\t\tawardRules.push(awardRule(awardRulesArray[i],awardRulesArray[i+1],awardRulesArray[i+2]));\n\t\t\tawardRulesIndex[getRuleKey(awardRulesArray[i],awardRulesArray[i+1])] = awardRules.length;\n\t\t}\n\n    \tfor(i=0; i<awardRules.length; i++) {\n      \t\twinnerTickets[i].processedIndex = 0;\n      \t\twinnerTickets[i].distributedIndex = 0;\n    \t}\n    \t\n  \t}\n\n  \tfunction setPool(ChainLotTicketInterface _chainLotTicket,\n\t\t\t\t\t\tCLTokenInterface _clToken,\n\t\t\t\t\t\tChainLotInterface _chainLot) public {\n  \t\tchainLotTicket = _chainLotTicket;\n\t\tclToken = _clToken;\n\t\tchainLot = _chainLot;\n\t\towner = tx.origin;\n  \t}\n\n  \tfunction getRuleKey(uint _whiteNumberCount, uint _yellowNumberCount) internal view returns(uint index){\n\t\treturn _whiteNumberCount*(maxYellowNumberCount+1)+_yellowNumberCount;\n\t}\n\n\t//numbers: uint8[6] \n\t//\t\t\t1-5: <=maxWhiteNumber\n\t//\t\t\t6: <=maxYellowNumber\n\tfunction buyTicket(bytes numbers, address referer) payable public{\n\t\trequire(block.number < poolBlockNumber);\n\t\trequire(address(clToken) != 0);\n\t    uint ticketCount = msg.value/etherPerTicket;\n\t    require(ticketCount > 0);\n\t    clToken.buy.value(msg.value)();\n\t    tokenSum += msg.value;\n\t    _buyTicket(tx.origin, numbers, ticketCount, msg.value);\n\t    if(referer != 0 && tx.origin != referer) {\n\t    \t_buyTicket(referer, numbers, ticketCount, msg.value);\t\n\t    }\n\t}\n\n\tevent LOG(uint msg);\n\n\t//random numbers\n\t//random seed: number-1 block hash x user address\n\tfunction buyRandom(address referer) payable public{\n\t\tbytes memory numbers = genRandomNumbers(block.number - 1, 0);\n\t\tbuyTicket(numbers, referer);\n\t}\n\n\tfunction receiveApproval(address _from, uint _value, address _token, bytes _extraData) public {\n\t\trequire(_token == address(clToken));\n\t\trequire(_extraData.length ==0 || _extraData.length == totalNumberCount);\n\n\t\tuint ticketCount = _value/etherPerTicket;\n\t\trequire(ticketCount > 0);\n\t\tbytes memory numbers;\n\t\tif(_extraData.length == 0) {\n\t\t\tnumbers = genRandomNumbers(block.number - 1, 0);\n\t\t}\n\t\telse {\n\t\t\tnumbers = _extraData;\n\t\t}\t\n\n\t\t\n\t\t_buyTicket(_from, numbers, ticketCount, _value);\n\t}\n\n  \tfunction _buyTicket(address _from, bytes numbers, uint ticketCount, uint _value) internal returns(uint _ticketId){\n\t    require(numbers.length == maxWhiteNumberCount+maxYellowNumberCount);\n\t    for(uint8 i=0; i<maxWhiteNumberCount; i++) {\n\t      require(uint8(numbers[i])>=1 && uint8(numbers[i])<=maxWhiteNumber); \n\t    }     \n\t    for(i=maxWhiteNumberCount; i<numbers.length; i++){\n\t      require(uint8(numbers[i])>=1&&uint8(numbers[i])<=maxYellowNumber);\n\t    }\n\t    \n\t    require(ticketCount > 0);\n\t    uint ticketId = chainLot.mint(_from, numbers, ticketCount);\n\t    allTicketsId.push(ticketId);\n\t    totalTicketCountSum = chainLotTicket.totalTicketCountSum();\n\t    BuyTicket(poolBlockNumber, numbers, ticketCount, ticketId, _from, block.number, totalTicketCountSum, _value);\n\t    return ticketId;\n\t}\n\n\t//calculate jackpot \n\tfunction prepareAwards() onlyOwner external {\n\t\trequire(!preparedAwards);\n\t\trequire(block.number > poolBlockNumber);\n\t\tjackpotNumbers = genRandomNumbers(poolBlockNumber, 3);\n\t\tPrepareAward(jackpotNumbers, poolBlockNumber, allTicketsId.length);\n\t\tpreparedAwards = true;\n\t\t/*uint bytesLength = 32;\n    \tif(bytesLength > jackpotNumbers.length) bytesLength = jackpotNumbers.length;\n    \tfor(uint i=0; i<bytesLength; i++) {\n      \t\tnumbers |= bytes32(jackpotNumbers[i]&0xFF)>>(i*8);\n    \t}*/\n\t}\n\n\t//match winners\n\tfunction matchAwards(uint8 toMatchCount) onlyOwner external {\n\t\trequire(preparedAwards);\n\t\t//require(lastMatchedTicketIndex < allTicketsId.length);\n\t\tbytes memory mJackpotNumbers = jackpotNumbers;\n\t\t//statistic winners\n\t\tuint endIndex = lastMatchedTicketIndex + toMatchCount;\n\t\tif(endIndex > allTicketsId.length) endIndex = allTicketsId.length;\n\n\t\tMatchAwards(mJackpotNumbers, lastMatchedTicketIndex, endIndex, allTicketsId.length);\n\n\t\tfor(uint i = lastMatchedTicketIndex; i < endIndex; i ++) {\n\t\t\tuint ticketId = allTicketsId[i];\n\t\t\taddress mb; uint ma; bytes32 numbers; uint count; uint blockNumber;\n\t        (mb, ma, numbers, count, blockNumber) = chainLotTicket.getTicket(ticketId);\n\t      \t\n\t\t\tuint matchedWhiteCount = 0;\n\t\t\tuint matchedYellowCount = 0;\n\t\t\tfor(uint j = 0; j < maxWhiteNumberCount; j++) {\n\t\t\t\tif(numbers[j] == mJackpotNumbers[j]) {\n\t\t\t\t\tmatchedWhiteCount ++;\n\t\t\t\t}\n\t\t\t}\n\t\t\tfor(j = maxWhiteNumberCount; j < mJackpotNumbers.length; j++) {\n\t\t\t\tif(numbers[j] == mJackpotNumbers[j]) {\n\t\t\t\t\tmatchedYellowCount ++;\n\t\t\t\t}\n\t\t\t}\n\n\t\t\tuint ruleId = awardRulesIndex[getRuleKey(matchedWhiteCount, matchedYellowCount)] - 1;\n\t\t\t\n\t\t\tif(ruleId >= 0 && ruleId < awardRules.length) {\n\t\t        //match one rule!\n\t\t        winnerTickets[ruleId].ticketIds.push(ticketId);\n\t\t        MatchRule(mJackpotNumbers, numbers, count, ticketId, blockNumber, ruleId, awardRules[ruleId].awardEther);\n\t\t\t}\n\t\t\telse {\n\t\t\t\t//MatchRule(jackpotNumbers, allTickets[i].numbers, allTickets[i].count, allTickets[i].user, allTickets[i].blockNumber, ruleId, 0);\n\t\t\t}\n\t\t\t\n\t\t\tlastMatchedTicketIndex = i+1;\n\t\t}\n\t}\n\n\tfunction getAllTicketsCount() external view returns(uint count){\n\t\treturn allTicketsId.length;\n\t}\n\n  \tstruct awardResultByRule {\n  \t\tuint totalWinnersAward;\n  \t\tuint totalTicketCount;\n \t}\n  \tmapping(uint => awardResultByRule) awardResults;\n\n  \tfunction calculateAwards(uint8 ruleId, uint8 toCalcCount) onlyOwner external {\n\t  \trequire(lastMatchedTicketIndex == allTicketsId.length);\n\t  \trequire(block.number >= poolBlockNumber);\n\t  \t//calculate winners award, from top to bottom, top winners takes all\n\t    \n\t      if(winnerTickets[ruleId].ticketIds.length > winnerTickets[ruleId].processedIndex) {\n\t        uint totalWinnersAward = 0;\n\t        uint totalTicketCount = 0;\n\t        uint endIndex = winnerTickets[ruleId].processedIndex + toCalcCount;\n\t        if(endIndex > winnerTickets[ruleId].ticketIds.length) endIndex = winnerTickets[ruleId].ticketIds.length;\n\t        for(uint j=winnerTickets[ruleId].processedIndex;j<endIndex; j++) {\n\t          uint ticketId = winnerTickets[ruleId].ticketIds[j];\n\t          address mb; uint ma; bytes32 numbers; uint count; uint blockNumber;\n\t          (mb, ma, numbers, count, blockNumber) = chainLotTicket.getTicket(ticketId);\n\t          totalWinnersAward += count * awardRules[ruleId].awardEther;\n\t          totalTicketCount += count;\n\t        }\n\n\t        CalculateAwards(ruleId, endIndex, awardRules[ruleId].awardEther, totalWinnersAward, totalTicketCount);\n\n\t        awardResults[ruleId].totalWinnersAward += totalWinnersAward;\n\t        awardResults[ruleId].totalTicketCount += totalTicketCount;\n\t      }\n\t      \n\t      //move pointer\n\t      winnerTickets[ruleId].processedIndex = endIndex;\n\n  \t}\n\n  \tfunction splitAward() onlyOwner external {\n  \t\tuint totalBalance = clToken.balanceOf(this);\n  \t\tfor(uint8 i=0; i<awardRules.length; i++) {\n  \t\t\trequire(winnerTickets[i].processedIndex == winnerTickets[i].ticketIds.length);\n  \t\t\tif(totalBalance >=  awardResults[i].totalWinnersAward) {\n\t          totalBalance -= awardResults[i].totalWinnersAward;\n\t        }\n\t        else {\n\t          awardResults[i].totalWinnersAward = totalBalance;\n\t          totalBalance = 0;\n\t        }\n\t        SplitAward(i, awardResults[i].totalWinnersAward, totalBalance);\n  \t\t}\n\n  \t}\n\n  \tfunction distributeAwards(uint8 ruleId, uint toDistCount) onlyOwner external {\n  \t\t//validate last step\n\t  \t//bytes memory jackpotNumbers = jackpotNumbers;\n\t  \tuint endIndex = winnerTickets[ruleId].distributedIndex + toDistCount;\n\t  \tif(endIndex > winnerTickets[ruleId].ticketIds.length) endIndex = winnerTickets[ruleId].ticketIds.length;\n  \t\tif(awardResults[ruleId].totalTicketCount > 0) {\n  \t\t\tfor(uint j=winnerTickets[ruleId].distributedIndex;j<endIndex; j++){\n\t          uint ticketId = winnerTickets[ruleId].ticketIds[j];\n\t          address mb; uint ma; bytes32 numbers; uint count; uint blockNumber;\n\t          (mb, ma, numbers, count, blockNumber) = chainLotTicket.getTicket(ticketId);\n\t          uint awardValue = count * awardResults[ruleId].totalWinnersAward / awardResults[ruleId].totalTicketCount;\n\t          awardData memory ad = awardData(chainLotTicket.ownerOf(ticketId), awardValue);\n\t          toBeAward.push(ad);\n\t          ToBeAward(jackpotNumbers, numbers, count, ticketId, ad.user, blockNumber, awardValue);\n\t    \t}\n  \t\t}\n\t  \twinnerTickets[ruleId].distributedIndex = endIndex;\n  \t}\n\n  \tfunction sendAwards(uint toAwardCount) onlyOwner external {\n\t\tuint endIndex = awardIndex + toAwardCount;\n\t\tif(endIndex > toBeAward.length) endIndex = toBeAward.length;\n\t\t//TODO: validate last step\n\t  \tuint devCut = 0;\n\t  \tuint _historyCut = 0;\n\t  \tuint hCut = 0;\n\t  \tuint userAward = 0;\n\t  \tfor(uint i=awardIndex; i<endIndex; i++) {\n\t\t\t\tuserAward = toBeAward[i].value * 88/100;\n\t\t\t\t//10% history user cut\n\t\t\t\thCut = toBeAward[i].value/10;\n\t\t\t\t_historyCut += hCut;\n\t\t\t\t//2% dev cut\n\t\t\t\tdevCut += toBeAward[i].value - userAward - hCut;\n\t\t\t\tclToken.transfer(toBeAward[i].user, userAward);\n\t      \t\tTransferAward(toBeAward[i].user, userAward);\n\t\t}\n\t\tif(devCut > 0) {\n\t\t\tclToken.transfer(owner, devCut);\n\t\t\tTransferDevCut(owner, devCut);\n\t\t}\n\t\t\n\t\t//history cut only shared to owner before this pool\n\t\tif(_historyCut > 0) {\n\t\t\thistoryCut += _historyCut;\n\t\t\tAddHistoryCut(_historyCut, historyCut);\n\t\t}\n\t    awardIndex = endIndex;\n\t}\n\n\tfunction withdrawHistoryCut(uint[] ticketIds) external {\n\t\tuint userCut = calculateUserHistoryCut(ticketIds, tx.origin, false);\n\t  \tclToken.transfer(tx.origin, userCut);\n\t\tTransferHistoryCut(tx.origin, userCut);\n\t}\n\n\tfunction listUserHistoryCut(address user, uint[] ticketIds) external returns(uint _historyCut) {\n\t\treturn calculateUserHistoryCut(ticketIds, user, true);\n\t}\n\n\tfunction calculateUserHistoryCut(uint[] ticketIds, address user, bool onlyList) internal returns(uint _cut) {\n\t\tif(totalTicketCountSum == 0)\n\t\t\treturn 0;\n\t\tuint historyTicketCountSum = 0;\n\t  \taddress mb; uint ma; bytes32 numbers; uint count; uint blockNumber;\n\t  \tfor(uint i=0; i<ticketIds.length; i++) {\n\t  \t\t(mb, ma, numbers, count, blockNumber) = chainLotTicket.getTicket(ticketIds[i]);\n\t  \t\tif(withdrawed[ticketIds[i]] == false \n\t  \t\t\t&& blockNumber < poolBlockNumber \n\t  \t\t\t&& chainLotTicket.ownerOf(ticketIds[i]) == user) {\n\t  \t\t\thistoryTicketCountSum += count;\t\n\t  \t\t\tif(!onlyList) {\n\t  \t\t\t\twithdrawed[ticketIds[i]] = true;\n\t  \t\t\t}\n\t  \t\t}\t\t\n\t  \t}\n\t  \t\n\t  \treturn historyTicketCountSum * historyCut / totalTicketCountSum;\n\t}\n\n\tfunction transferUnawarded(address to) onlyOwner external {\n\t\t//require(preparedAwards);\n      \t//require(awardIndex == toBeAward.length);\n      \t//require(lastMatchedTicketIndex == allTicketsId.length);\n\n      \tfor(uint i=0; i<awardRules.length; i++){\n          \t//require(winnerTickets[i].distributedIndex == winnerTickets[i].ticketIds.length);\n      \t}\n      \tuint toBeTransfer = clToken.balanceOf(this) - historyCut;\n      \tif(toBeTransfer > 0) {\n      \t\tclToken.transfer(to, toBeTransfer);\n      \t\tTransferUnawarded(address(this), to, toBeTransfer);\n      \t}\n\t}\n\n\tfunction genRandomNumbers(uint blockNumber, uint shift) internal view returns(bytes _numbers){\n\t\trequire(blockNumber < block.number);\n\t\tuint hash = uint(block.blockhash(blockNumber));\n\t\tuint addressInt = uint(msg.sender);\n\t\tuint random = hash * addressInt;\n\t\tGenRandomNumbers(random, blockNumber, hash, addressInt, shift);\n\t\trequire(random != 0);\n\t\trandom = random >> shift;\n\t\tbytes memory numbers = new bytes(maxWhiteNumberCount+maxYellowNumberCount);\n\t\tfor(uint8 i=0;i<maxWhiteNumberCount;i++) {\n\t\t\tnumbers[i] = byte(random%maxWhiteNumber + 1);\n\t\t\trandom = random >> 8;\n\n\t\t}\n\t\tfor(i=maxWhiteNumberCount;i<numbers.length;i++) {\n\t\t\tnumbers[i] = byte(random%maxYellowNumber + 1);\n\t\t\trandom = random >> 8;\n\n\t\t}\n\t\treturn numbers;\n\t}\n\n}\n",
  "sourcePath": "/Users/phx/eth/chainlot/contracts/ChainLotPool.sol",
  "compiler": {
    "name": "solc",
    "version": "0.4.19+commit.c4cbbb05.Emscripten.clang"
  },
  "schemaVersion": "2.0.0",
  "updatedAt": "2018-06-18T14:22:13.834Z"
}