{
  "contractName": "ChainLot",
  "abi": [
    {
      "constant": true,
      "inputs": [],
      "name": "clToken",
      "outputs": [
        {
          "name": "",
          "type": "address"
        }
      ],
      "payable": false,
      "stateMutability": "view",
      "type": "function"
    },
    {
      "constant": true,
      "inputs": [],
      "name": "currentPoolIndex",
      "outputs": [
        {
          "name": "",
          "type": "uint256"
        }
      ],
      "payable": false,
      "stateMutability": "view",
      "type": "function"
    },
    {
      "constant": true,
      "inputs": [],
      "name": "clpFactory",
      "outputs": [
        {
          "name": "",
          "type": "address"
        }
      ],
      "payable": false,
      "stateMutability": "view",
      "type": "function"
    },
    {
      "constant": true,
      "inputs": [],
      "name": "totalNumberCount",
      "outputs": [
        {
          "name": "",
          "type": "uint8"
        }
      ],
      "payable": false,
      "stateMutability": "view",
      "type": "function"
    },
    {
      "constant": true,
      "inputs": [],
      "name": "maxYellowNumberCount",
      "outputs": [
        {
          "name": "",
          "type": "uint8"
        }
      ],
      "payable": false,
      "stateMutability": "view",
      "type": "function"
    },
    {
      "constant": true,
      "inputs": [],
      "name": "latestPoolBlockNumber",
      "outputs": [
        {
          "name": "",
          "type": "uint256"
        }
      ],
      "payable": false,
      "stateMutability": "view",
      "type": "function"
    },
    {
      "constant": true,
      "inputs": [],
      "name": "maxYellowNumber",
      "outputs": [
        {
          "name": "",
          "type": "uint8"
        }
      ],
      "payable": false,
      "stateMutability": "view",
      "type": "function"
    },
    {
      "constant": true,
      "inputs": [],
      "name": "currentPool",
      "outputs": [
        {
          "name": "",
          "type": "address"
        }
      ],
      "payable": false,
      "stateMutability": "view",
      "type": "function"
    },
    {
      "constant": true,
      "inputs": [],
      "name": "maxWhiteNumber",
      "outputs": [
        {
          "name": "",
          "type": "uint8"
        }
      ],
      "payable": false,
      "stateMutability": "view",
      "type": "function"
    },
    {
      "constant": true,
      "inputs": [],
      "name": "tokenSum",
      "outputs": [
        {
          "name": "",
          "type": "uint256"
        }
      ],
      "payable": false,
      "stateMutability": "view",
      "type": "function"
    },
    {
      "constant": true,
      "inputs": [],
      "name": "owner",
      "outputs": [
        {
          "name": "",
          "type": "address"
        }
      ],
      "payable": false,
      "stateMutability": "view",
      "type": "function"
    },
    {
      "constant": true,
      "inputs": [
        {
          "name": "",
          "type": "uint256"
        }
      ],
      "name": "chainlotPools",
      "outputs": [
        {
          "name": "",
          "type": "address"
        }
      ],
      "payable": false,
      "stateMutability": "view",
      "type": "function"
    },
    {
      "constant": true,
      "inputs": [],
      "name": "maxWhiteNumberCount",
      "outputs": [
        {
          "name": "",
          "type": "uint8"
        }
      ],
      "payable": false,
      "stateMutability": "view",
      "type": "function"
    },
    {
      "constant": true,
      "inputs": [
        {
          "name": "",
          "type": "address"
        }
      ],
      "name": "chainlotPoolsMap",
      "outputs": [
        {
          "name": "",
          "type": "bool"
        }
      ],
      "payable": false,
      "stateMutability": "view",
      "type": "function"
    },
    {
      "constant": true,
      "inputs": [],
      "name": "etherPerTicket",
      "outputs": [
        {
          "name": "",
          "type": "uint256"
        }
      ],
      "payable": false,
      "stateMutability": "view",
      "type": "function"
    },
    {
      "constant": true,
      "inputs": [],
      "name": "awardIntervalNumber",
      "outputs": [
        {
          "name": "",
          "type": "uint256"
        }
      ],
      "payable": false,
      "stateMutability": "view",
      "type": "function"
    },
    {
      "constant": true,
      "inputs": [],
      "name": "chainLotTicket",
      "outputs": [
        {
          "name": "",
          "type": "address"
        }
      ],
      "payable": false,
      "stateMutability": "view",
      "type": "function"
    },
    {
      "constant": false,
      "inputs": [
        {
          "name": "newOwner",
          "type": "address"
        }
      ],
      "name": "transferOwnership",
      "outputs": [],
      "payable": false,
      "stateMutability": "nonpayable",
      "type": "function"
    },
    {
      "inputs": [
        {
          "name": "_maxWhiteNumber",
          "type": "uint8"
        },
        {
          "name": "_maxYellowNumber",
          "type": "uint8"
        },
        {
          "name": "_whiteNumberCount",
          "type": "uint8"
        },
        {
          "name": "_yellowNumberCount",
          "type": "uint8"
        },
        {
          "name": "_etherPerTicket",
          "type": "uint256"
        },
        {
          "name": "_awardIntervalNumber",
          "type": "uint256"
        },
        {
          "name": "_awardRulesArray",
          "type": "uint256[]"
        }
      ],
      "payable": false,
      "stateMutability": "nonpayable",
      "type": "constructor"
    },
    {
      "anonymous": false,
      "inputs": [
        {
          "indexed": false,
          "name": "poolBlockNumber",
          "type": "uint256"
        },
        {
          "indexed": false,
          "name": "numbers",
          "type": "bytes"
        },
        {
          "indexed": false,
          "name": "ticketCount",
          "type": "uint256"
        },
        {
          "indexed": false,
          "name": "ticketId",
          "type": "uint256"
        },
        {
          "indexed": false,
          "name": "user",
          "type": "address"
        },
        {
          "indexed": false,
          "name": "blockNumber",
          "type": "uint256"
        },
        {
          "indexed": false,
          "name": "totalTicketCountSum",
          "type": "uint256"
        },
        {
          "indexed": false,
          "name": "value",
          "type": "uint256"
        }
      ],
      "name": "BuyTicket",
      "type": "event"
    },
    {
      "anonymous": false,
      "inputs": [
        {
          "indexed": false,
          "name": "jackpotNumbers",
          "type": "bytes"
        },
        {
          "indexed": false,
          "name": "poolBlockNumber",
          "type": "uint256"
        },
        {
          "indexed": false,
          "name": "allTicketsCount",
          "type": "uint256"
        }
      ],
      "name": "PrepareAward",
      "type": "event"
    },
    {
      "anonymous": false,
      "inputs": [
        {
          "indexed": false,
          "name": "jackpotNumbers",
          "type": "bytes"
        },
        {
          "indexed": false,
          "name": "ticketNumber",
          "type": "bytes32"
        },
        {
          "indexed": false,
          "name": "ticketCount",
          "type": "uint256"
        },
        {
          "indexed": false,
          "name": "ticketId",
          "type": "uint256"
        },
        {
          "indexed": false,
          "name": "user",
          "type": "address"
        },
        {
          "indexed": false,
          "name": "blockNumber",
          "type": "uint256"
        },
        {
          "indexed": false,
          "name": "awardValue",
          "type": "uint256"
        }
      ],
      "name": "ToBeAward",
      "type": "event"
    },
    {
      "anonymous": false,
      "inputs": [
        {
          "indexed": false,
          "name": "jackpotNumbers",
          "type": "bytes"
        },
        {
          "indexed": false,
          "name": "lastMatchedTicketIndex",
          "type": "uint256"
        },
        {
          "indexed": false,
          "name": "endIndex",
          "type": "uint256"
        },
        {
          "indexed": false,
          "name": "allTicketsCount",
          "type": "uint256"
        }
      ],
      "name": "MatchAwards",
      "type": "event"
    },
    {
      "anonymous": false,
      "inputs": [
        {
          "indexed": false,
          "name": "jackpotNumbers",
          "type": "bytes"
        },
        {
          "indexed": false,
          "name": "ticketNumber",
          "type": "bytes32"
        },
        {
          "indexed": false,
          "name": "ticketCount",
          "type": "uint256"
        },
        {
          "indexed": false,
          "name": "ticketId",
          "type": "uint256"
        },
        {
          "indexed": false,
          "name": "blockNumber",
          "type": "uint256"
        },
        {
          "indexed": false,
          "name": "ruleId",
          "type": "uint256"
        },
        {
          "indexed": false,
          "name": "ruleEther",
          "type": "uint256"
        }
      ],
      "name": "MatchRule",
      "type": "event"
    },
    {
      "anonymous": false,
      "inputs": [
        {
          "indexed": false,
          "name": "winner",
          "type": "address"
        },
        {
          "indexed": false,
          "name": "value",
          "type": "uint256"
        }
      ],
      "name": "TransferAward",
      "type": "event"
    },
    {
      "anonymous": false,
      "inputs": [
        {
          "indexed": false,
          "name": "dev",
          "type": "address"
        },
        {
          "indexed": false,
          "name": "value",
          "type": "uint256"
        }
      ],
      "name": "TransferDevCut",
      "type": "event"
    },
    {
      "anonymous": false,
      "inputs": [
        {
          "indexed": false,
          "name": "user",
          "type": "address"
        },
        {
          "indexed": false,
          "name": "value",
          "type": "uint256"
        }
      ],
      "name": "TransferHistoryCut",
      "type": "event"
    },
    {
      "anonymous": false,
      "inputs": [
        {
          "indexed": false,
          "name": "added",
          "type": "uint256"
        },
        {
          "indexed": false,
          "name": "total",
          "type": "uint256"
        }
      ],
      "name": "AddHistoryCut",
      "type": "event"
    },
    {
      "anonymous": false,
      "inputs": [
        {
          "indexed": false,
          "name": "ruleId",
          "type": "uint8"
        },
        {
          "indexed": false,
          "name": "winnersTicketCount",
          "type": "uint256"
        },
        {
          "indexed": false,
          "name": "awardEther",
          "type": "uint256"
        },
        {
          "indexed": false,
          "name": "totalWinnersAward",
          "type": "uint256"
        },
        {
          "indexed": false,
          "name": "totalTicketCount",
          "type": "uint256"
        }
      ],
      "name": "CalculateAwards",
      "type": "event"
    },
    {
      "anonymous": false,
      "inputs": [
        {
          "indexed": false,
          "name": "ruleId",
          "type": "uint8"
        },
        {
          "indexed": false,
          "name": "totalWinnersAward",
          "type": "uint256"
        },
        {
          "indexed": false,
          "name": "leftBalance",
          "type": "uint256"
        }
      ],
      "name": "SplitAward",
      "type": "event"
    },
    {
      "anonymous": false,
      "inputs": [
        {
          "indexed": false,
          "name": "currentPoolBlockNumber",
          "type": "uint256"
        },
        {
          "indexed": false,
          "name": "nextPoolBlockNumber",
          "type": "uint256"
        },
        {
          "indexed": false,
          "name": "length",
          "type": "uint256"
        }
      ],
      "name": "GenerateNewPool",
      "type": "event"
    },
    {
      "anonymous": false,
      "inputs": [
        {
          "indexed": false,
          "name": "from",
          "type": "address"
        },
        {
          "indexed": false,
          "name": "to",
          "type": "address"
        },
        {
          "indexed": false,
          "name": "value",
          "type": "uint256"
        }
      ],
      "name": "TransferUnawarded",
      "type": "event"
    },
    {
      "anonymous": false,
      "inputs": [
        {
          "indexed": false,
          "name": "currentPoolblockNumber",
          "type": "uint256"
        },
        {
          "indexed": false,
          "name": "currentPool",
          "type": "address"
        },
        {
          "indexed": false,
          "name": "currentPoolIndex",
          "type": "uint256"
        }
      ],
      "name": "SwitchPool",
      "type": "event"
    },
    {
      "anonymous": false,
      "inputs": [
        {
          "indexed": false,
          "name": "random",
          "type": "uint256"
        },
        {
          "indexed": false,
          "name": "blockNumber",
          "type": "uint256"
        },
        {
          "indexed": false,
          "name": "hash",
          "type": "uint256"
        },
        {
          "indexed": false,
          "name": "addressInt",
          "type": "uint256"
        },
        {
          "indexed": false,
          "name": "shift",
          "type": "uint256"
        },
        {
          "indexed": false,
          "name": "timestamp",
          "type": "uint256"
        },
        {
          "indexed": false,
          "name": "difficulty",
          "type": "uint256"
        }
      ],
      "name": "GenRandomNumbers",
      "type": "event"
    },
    {
      "anonymous": false,
      "inputs": [
        {
          "indexed": false,
          "name": "chainlotAddress",
          "type": "address"
        },
        {
          "indexed": false,
          "name": "poolAddress",
          "type": "address"
        }
      ],
      "name": "MigrateFrom",
      "type": "event"
    },
    {
      "anonymous": false,
      "inputs": [
        {
          "indexed": false,
          "name": "msg",
          "type": "uint256"
        }
      ],
      "name": "LOG",
      "type": "event"
    },
    {
      "constant": false,
      "inputs": [],
      "name": "newPool",
      "outputs": [],
      "payable": false,
      "stateMutability": "nonpayable",
      "type": "function"
    },
    {
      "constant": false,
      "inputs": [],
      "name": "checkAndSwitchPool",
      "outputs": [],
      "payable": false,
      "stateMutability": "nonpayable",
      "type": "function"
    },
    {
      "constant": false,
      "inputs": [
        {
          "name": "numbers",
          "type": "bytes"
        },
        {
          "name": "referer",
          "type": "address"
        }
      ],
      "name": "buyTicket",
      "outputs": [],
      "payable": true,
      "stateMutability": "payable",
      "type": "function"
    },
    {
      "constant": false,
      "inputs": [
        {
          "name": "numberCount",
          "type": "uint8"
        },
        {
          "name": "referer",
          "type": "address"
        }
      ],
      "name": "buyRandom",
      "outputs": [],
      "payable": true,
      "stateMutability": "payable",
      "type": "function"
    },
    {
      "constant": false,
      "inputs": [
        {
          "name": "_owner",
          "type": "address"
        },
        {
          "name": "_numbers",
          "type": "bytes"
        },
        {
          "name": "_count",
          "type": "uint256"
        }
      ],
      "name": "mint",
      "outputs": [
        {
          "name": "",
          "type": "uint256"
        }
      ],
      "payable": false,
      "stateMutability": "nonpayable",
      "type": "function"
    },
    {
      "constant": false,
      "inputs": [
        {
          "name": "_from",
          "type": "address"
        },
        {
          "name": "_value",
          "type": "uint256"
        },
        {
          "name": "_token",
          "type": "address"
        },
        {
          "name": "_extraData",
          "type": "bytes"
        }
      ],
      "name": "receiveApproval",
      "outputs": [],
      "payable": false,
      "stateMutability": "nonpayable",
      "type": "function"
    },
    {
      "constant": false,
      "inputs": [
        {
          "name": "ticketAddress",
          "type": "address"
        }
      ],
      "name": "setChainLotTicketAddress",
      "outputs": [],
      "payable": false,
      "stateMutability": "nonpayable",
      "type": "function"
    },
    {
      "constant": false,
      "inputs": [
        {
          "name": "tokenAddress",
          "type": "address"
        }
      ],
      "name": "setCLTokenAddress",
      "outputs": [],
      "payable": false,
      "stateMutability": "nonpayable",
      "type": "function"
    },
    {
      "constant": false,
      "inputs": [
        {
          "name": "factoryAddress",
          "type": "address"
        }
      ],
      "name": "setChainLotPoolFactoryAddress",
      "outputs": [],
      "payable": false,
      "stateMutability": "nonpayable",
      "type": "function"
    },
    {
      "constant": false,
      "inputs": [
        {
          "name": "value",
          "type": "uint256"
        }
      ],
      "name": "withDrawDevCut",
      "outputs": [],
      "payable": false,
      "stateMutability": "nonpayable",
      "type": "function"
    },
    {
      "constant": true,
      "inputs": [],
      "name": "getPoolCount",
      "outputs": [
        {
          "name": "count",
          "type": "uint256"
        }
      ],
      "payable": false,
      "stateMutability": "view",
      "type": "function"
    },
    {
      "constant": false,
      "inputs": [
        {
          "name": "poolStart",
          "type": "uint256"
        },
        {
          "name": "_poolEnd",
          "type": "uint256"
        },
        {
          "name": "ticketIds",
          "type": "uint256[]"
        }
      ],
      "name": "withDrawHistoryCut",
      "outputs": [],
      "payable": false,
      "stateMutability": "nonpayable",
      "type": "function"
    },
    {
      "constant": true,
      "inputs": [
        {
          "name": "user",
          "type": "address"
        },
        {
          "name": "poolStart",
          "type": "uint256"
        },
        {
          "name": "_poolEnd",
          "type": "uint256"
        },
        {
          "name": "ticketIds",
          "type": "uint256[]"
        }
      ],
      "name": "listUserHistoryCut",
      "outputs": [
        {
          "name": "poolCuts",
          "type": "uint256[512]"
        }
      ],
      "payable": false,
      "stateMutability": "view",
      "type": "function"
    },
    {
      "constant": true,
      "inputs": [],
      "name": "retrievePoolInfo",
      "outputs": [
        {
          "name": "poolTokens",
          "type": "uint256"
        },
        {
          "name": "poolBlockNumber",
          "type": "uint256"
        },
        {
          "name": "totalPoolTokens",
          "type": "uint256"
        },
        {
          "name": "_currentPoolIndex",
          "type": "uint256"
        }
      ],
      "payable": false,
      "stateMutability": "view",
      "type": "function"
    },
    {
      "constant": true,
      "inputs": [
        {
          "name": "poolStart",
          "type": "uint256"
        },
        {
          "name": "_poolEnd",
          "type": "uint256"
        }
      ],
      "name": "getWinnerList",
      "outputs": [
        {
          "name": "winners",
          "type": "address[512]"
        },
        {
          "name": "values",
          "type": "uint256[512]"
        },
        {
          "name": "blocks",
          "type": "uint256[512]"
        },
        {
          "name": "count",
          "type": "uint256"
        }
      ],
      "payable": false,
      "stateMutability": "view",
      "type": "function"
    },
    {
      "constant": false,
      "inputs": [
        {
          "name": "chainlotAddress",
          "type": "address"
        }
      ],
      "name": "migrateFrom",
      "outputs": [],
      "payable": false,
      "stateMutability": "nonpayable",
      "type": "function"
    }
  ],
  "bytecode": "0x6060604052600060095534156200001557600080fd5b60405162002e8738038062002e8783398101604052808051906020019091908051906020019091908051906020019091908051906020019091908051906020019091908051906020019091908051820191905050336000806101000a81548173ffffffffffffffffffffffffffffffffffffffff021916908373ffffffffffffffffffffffffffffffffffffffff16021790555086600060146101000a81548160ff021916908360ff16021790555085600060156101000a81548160ff021916908360ff16021790555084600460006101000a81548160ff021916908360ff16021790555083600460016101000a81548160ff021916908360ff1602179055508260018190555081600281905550600460019054906101000a900460ff16600460009054906101000a900460ff1601600460026101000a81548160ff021916908360ff16021790555080600690805190602001906200017692919062000184565b5050505050505050620001fe565b828054828255906000526020600020908101928215620001c3579160200282015b82811115620001c2578251825591602001919060010190620001a5565b5b509050620001d29190620001d6565b5090565b620001fb91905b80821115620001f7576000816000905550600101620001dd565b5090565b90565b612c79806200020e6000396000f3006060604052600436106101ac576000357c0100000000000000000000000000000000000000000000000000000000900463ffffffff1680630800e5f1146101b15780630b027fb6146102065780630f11779b1461022f57806314c519801461024457806316205520146102995780631c0913c9146102c85780632a1c16b0146102eb57806335657e6814610300578063363da6071461033957806337f4a9c4146103d55780633e191a12146104045780633f12fdaa1461043d578063413e1a9714610476578063483ab117146104b05780635f7d9287146104d9578063692b69ae146105085780636ea6c8b21461055d57806370f4c3431461059f578063775ed63d146105ce57806388963771146106385780638da5cb5b146106615780638eec5d70146106b65780638f4ffcb1146106df57806392385538146107545780639c7365e5146107b75780639e851d7f146107e6578063a05863b6146108b6578063a8450e72146108f4578063b1a1af3814610945578063b86d7c6c1461097e578063b9d62841146109a7578063e1e3af69146109d0578063ee05a5d514610a25578063f2fde38b14610a65575b600080fd5b34156101bc57600080fd5b6101c4610a9e565b604051808273ffffffffffffffffffffffffffffffffffffffff1673ffffffffffffffffffffffffffffffffffffffff16815260200191505060405180910390f35b341561021157600080fd5b610219610ac4565b6040518082815260200191505060405180910390f35b341561023a57600080fd5b610242610aca565b005b341561024f57600080fd5b610257610f0c565b604051808273ffffffffffffffffffffffffffffffffffffffff1673ffffffffffffffffffffffffffffffffffffffff16815260200191505060405180910390f35b34156102a457600080fd5b6102ac610f32565b604051808260ff1660ff16815260200191505060405180910390f35b34156102d357600080fd5b6102e96004808035906020019091905050610f45565b005b34156102f657600080fd5b6102fe611098565b005b341561030b57600080fd5b610337600480803573ffffffffffffffffffffffffffffffffffffffff16906020019091905050611377565b005b341561034457600080fd5b610396600480803573ffffffffffffffffffffffffffffffffffffffff16906020019091908035906020019091908035906020019091908035906020019082018035906020019190919290505061174d565b604051808261020060200280838360005b838110156103c25780820151818401526020810190506103a7565b5050505090500191505060405180910390f35b34156103e057600080fd5b6103e86118d6565b604051808260ff1660ff16815260200191505060405180910390f35b341561040f57600080fd5b61043b600480803573ffffffffffffffffffffffffffffffffffffffff169060200190919050506118e9565b005b341561044857600080fd5b610474600480803573ffffffffffffffffffffffffffffffffffffffff16906020019091905050611988565b005b6104ae600480803560ff1690602001909190803573ffffffffffffffffffffffffffffffffffffffff16906020019091905050611a27565b005b34156104bb57600080fd5b6104c3611b1e565b6040518082815260200191505060405180910390f35b34156104e457600080fd5b6104ec611b24565b604051808260ff1660ff16815260200191505060405180910390f35b341561051357600080fd5b61051b611b37565b604051808273ffffffffffffffffffffffffffffffffffffffff1673ffffffffffffffffffffffffffffffffffffffff16815260200191505060405180910390f35b61059d6004808035906020019082018035906020019190919290803573ffffffffffffffffffffffffffffffffffffffff16906020019091905050611b5d565b005b34156105aa57600080fd5b6105b2611c69565b604051808260ff1660ff16815260200191505060405180910390f35b34156105d957600080fd5b610622600480803573ffffffffffffffffffffffffffffffffffffffff169060200190919080359060200190820180359060200191909192908035906020019091905050611c7c565b6040518082815260200191505060405180910390f35b341561064357600080fd5b61064b611de6565b6040518082815260200191505060405180910390f35b341561066c57600080fd5b610674611dec565b604051808273ffffffffffffffffffffffffffffffffffffffff1673ffffffffffffffffffffffffffffffffffffffff16815260200191505060405180910390f35b34156106c157600080fd5b6106c9611e11565b6040518082815260200191505060405180910390f35b34156106ea57600080fd5b610752600480803573ffffffffffffffffffffffffffffffffffffffff1690602001909190803590602001909190803573ffffffffffffffffffffffffffffffffffffffff169060200190919080359060200190820180359060200191909192905050611e1e565b005b341561075f57600080fd5b610775600480803590602001909190505061205d565b604051808273ffffffffffffffffffffffffffffffffffffffff1673ffffffffffffffffffffffffffffffffffffffff16815260200191505060405180910390f35b34156107c257600080fd5b6107ca61209c565b604051808260ff1660ff16815260200191505060405180910390f35b34156107f157600080fd5b61081060048080359060200190919080359060200190919050506120af565b604051808561020060200280838360005b8381101561083c578082015181840152602081019050610821565b505050509050018461020060200280838360005b8381101561086b578082015181840152602081019050610850565b505050509050018361020060200280838360005b8381101561089a57808201518184015260208101905061087f565b5050505090500182815260200194505050505060405180910390f35b34156108c157600080fd5b6108c9612432565b6040518085815260200184815260200183815260200182815260200194505050505060405180910390f35b34156108ff57600080fd5b61092b600480803573ffffffffffffffffffffffffffffffffffffffff169060200190919050506125ef565b604051808215151515815260200191505060405180910390f35b341561095057600080fd5b61097c600480803573ffffffffffffffffffffffffffffffffffffffff1690602001909190505061260f565b005b341561098957600080fd5b6109916126ae565b6040518082815260200191505060405180910390f35b34156109b257600080fd5b6109ba6126b4565b6040518082815260200191505060405180910390f35b34156109db57600080fd5b6109e36126ba565b604051808273ffffffffffffffffffffffffffffffffffffffff1673ffffffffffffffffffffffffffffffffffffffff16815260200191505060405180910390f35b3415610a3057600080fd5b610a63600480803590602001909190803590602001909190803590602001908201803590602001919091929050506126e0565b005b3415610a7057600080fd5b610a9c600480803573ffffffffffffffffffffffffffffffffffffffff16906020019091905050612800565b005b600b60009054906101000a900473ffffffffffffffffffffffffffffffffffffffff1681565b60095481565b60008060009054906101000a900473ffffffffffffffffffffffffffffffffffffffff1673ffffffffffffffffffffffffffffffffffffffff163373ffffffffffffffffffffffffffffffffffffffff16141515610b2757600080fd5b600c60009054906101000a900473ffffffffffffffffffffffffffffffffffffffff1673ffffffffffffffffffffffffffffffffffffffff1663b5533d39600554600060149054906101000a900460ff16600060159054906101000a900460ff16600460009054906101000a900460ff16600460019054906101000a900460ff1660025460015460066000604051602001526040518963ffffffff167c0100000000000000000000000000000000000000000000000000000000028152600401808981526020018860ff1660ff1681526020018760ff1660ff1681526020018660ff1660ff1681526020018560ff1660ff168152602001848152602001838152602001806020018281038252838181548152602001915080548015610c6b57602002820191906000526020600020905b815481526020019060010190808311610c57575b50509950505050505050505050602060405180830381600087803b1515610c9157600080fd5b5af11515610c9e57600080fd5b505050604051805190509050600c60009054906101000a900473ffffffffffffffffffffffffffffffffffffffff1673ffffffffffffffffffffffffffffffffffffffff16638c4b175882600a60009054906101000a900473ffffffffffffffffffffffffffffffffffffffff16600b60009054906101000a900473ffffffffffffffffffffffffffffffffffffffff16306040518563ffffffff167c0100000000000000000000000000000000000000000000000000000000028152600401808573ffffffffffffffffffffffffffffffffffffffff1673ffffffffffffffffffffffffffffffffffffffff1681526020018473ffffffffffffffffffffffffffffffffffffffff1673ffffffffffffffffffffffffffffffffffffffff1681526020018373ffffffffffffffffffffffffffffffffffffffff1673ffffffffffffffffffffffffffffffffffffffff1681526020018273ffffffffffffffffffffffffffffffffffffffff1673ffffffffffffffffffffffffffffffffffffffff168152602001945050505050600060405180830381600087803b1515610e4657600080fd5b5af11515610e5357600080fd5b5050508073ffffffffffffffffffffffffffffffffffffffff16639eb623d76000604051602001526040518163ffffffff167c0100000000000000000000000000000000000000000000000000000000028152600401602060405180830381600087803b1515610ec257600080fd5b5af11515610ecf57600080fd5b5050506040518051905060058190555060008173ffffffffffffffffffffffffffffffffffffffff16141515610f0957610f088161289e565b5b50565b600c60009054906101000a900473ffffffffffffffffffffffffffffffffffffffff1681565b600460029054906101000a900460ff1681565b6000809054906101000a900473ffffffffffffffffffffffffffffffffffffffff1673ffffffffffffffffffffffffffffffffffffffff163373ffffffffffffffffffffffffffffffffffffffff16141515610fa057600080fd5b600b60009054906101000a900473ffffffffffffffffffffffffffffffffffffffff1673ffffffffffffffffffffffffffffffffffffffff1663a9059cbb6000809054906101000a900473ffffffffffffffffffffffffffffffffffffffff16836040518363ffffffff167c0100000000000000000000000000000000000000000000000000000000028152600401808373ffffffffffffffffffffffffffffffffffffffff1673ffffffffffffffffffffffffffffffffffffffff16815260200182815260200192505050600060405180830381600087803b151561108557600080fd5b5af1151561109257600080fd5b50505050565b6000600d60009054906101000a900473ffffffffffffffffffffffffffffffffffffffff1673ffffffffffffffffffffffffffffffffffffffff16141515156110e057600080fd5b5b43600d60009054906101000a900473ffffffffffffffffffffffffffffffffffffffff1673ffffffffffffffffffffffffffffffffffffffff16639eb623d76000604051602001526040518163ffffffff167c0100000000000000000000000000000000000000000000000000000000028152600401602060405180830381600087803b151561117057600080fd5b5af1151561117d57600080fd5b50505060405180519050111515611375576007805490506001600954011015156111a657600080fd5b60096000815480929190600101919050555060076009548154811015156111c957fe5b906000526020600020900160009054906101000a900473ffffffffffffffffffffffffffffffffffffffff16600d60006101000a81548173ffffffffffffffffffffffffffffffffffffffff021916908373ffffffffffffffffffffffffffffffffffffffff1602179055507f3e3b2a1d3103b12ee8a1409b8e0b9a1791e8a18afe6ddcf8b8417adccde34775600d60009054906101000a900473ffffffffffffffffffffffffffffffffffffffff1673ffffffffffffffffffffffffffffffffffffffff16639eb623d76000604051602001526040518163ffffffff167c0100000000000000000000000000000000000000000000000000000000028152600401602060405180830381600087803b15156112e457600080fd5b5af115156112f157600080fd5b50505060405180519050600d60009054906101000a900473ffffffffffffffffffffffffffffffffffffffff16600954604051808481526020018373ffffffffffffffffffffffffffffffffffffffff1673ffffffffffffffffffffffffffffffffffffffff168152602001828152602001935050505060405180910390a16110e1565b565b60008060008060009054906101000a900473ffffffffffffffffffffffffffffffffffffffff1673ffffffffffffffffffffffffffffffffffffffff163373ffffffffffffffffffffffffffffffffffffffff161415156113d757600080fd5b839250600091505b8273ffffffffffffffffffffffffffffffffffffffff16630b027fb66000604051602001526040518163ffffffff167c0100000000000000000000000000000000000000000000000000000000028152600401602060405180830381600087803b151561144b57600080fd5b5af1151561145857600080fd5b50505060405180519050821115156115fb578273ffffffffffffffffffffffffffffffffffffffff166392385538836000604051602001526040518263ffffffff167c010000000000000000000000000000000000000000000000000000000002815260040180828152602001915050602060405180830381600087803b15156114e157600080fd5b5af115156114ee57600080fd5b505050604051805190509050600860008273ffffffffffffffffffffffffffffffffffffffff1673ffffffffffffffffffffffffffffffffffffffff16815260200190815260200160002060009054906101000a900460ff1615156115ee576115568161289e565b7f16fdd1e2012be642eac6e85dff5493e6326969cc539d7e178779def59caa55a28482604051808373ffffffffffffffffffffffffffffffffffffffff1673ffffffffffffffffffffffffffffffffffffffff1681526020018273ffffffffffffffffffffffffffffffffffffffff1673ffffffffffffffffffffffffffffffffffffffff1681526020019250505060405180910390a15b81806001019250506113df565b8273ffffffffffffffffffffffffffffffffffffffff1663692b69ae6000604051602001526040518163ffffffff167c0100000000000000000000000000000000000000000000000000000000028152600401602060405180830381600087803b151561166757600080fd5b5af1151561167457600080fd5b50505060405180519050600d60006101000a81548173ffffffffffffffffffffffffffffffffffffffff021916908373ffffffffffffffffffffffffffffffffffffffff1602179055508273ffffffffffffffffffffffffffffffffffffffff16630b027fb66000604051602001526040518163ffffffff167c0100000000000000000000000000000000000000000000000000000000028152600401602060405180830381600087803b151561172a57600080fd5b5af1151561173757600080fd5b5050506040518051905060098190555050505050565b611755612b84565b600080868611151561176657600080fd5b85915060078054905082111561177f5760078054905091505b8690505b818110156118cb5760078181548110151561179a57fe5b906000526020600020900160009054906101000a900473ffffffffffffffffffffffffffffffffffffffff1673ffffffffffffffffffffffffffffffffffffffff1663ee5bac898987876000604051602001526040518463ffffffff167c0100000000000000000000000000000000000000000000000000000000028152600401808473ffffffffffffffffffffffffffffffffffffffff1673ffffffffffffffffffffffffffffffffffffffff1681526020018060200182810382528484828181526020019250602002808284378201915050945050505050602060405180830381600087803b151561188d57600080fd5b5af1151561189a57600080fd5b5050506040518051905083888303610200811015156118b557fe5b6020020181815250508080600101915050611783565b505095945050505050565b600460019054906101000a900460ff1681565b6000809054906101000a900473ffffffffffffffffffffffffffffffffffffffff1673ffffffffffffffffffffffffffffffffffffffff163373ffffffffffffffffffffffffffffffffffffffff1614151561194457600080fd5b80600a60006101000a81548173ffffffffffffffffffffffffffffffffffffffff021916908373ffffffffffffffffffffffffffffffffffffffff16021790555050565b6000809054906101000a900473ffffffffffffffffffffffffffffffffffffffff1673ffffffffffffffffffffffffffffffffffffffff163373ffffffffffffffffffffffffffffffffffffffff161415156119e357600080fd5b80600b60006101000a81548173ffffffffffffffffffffffffffffffffffffffff021916908373ffffffffffffffffffffffffffffffffffffffff16021790555050565b611a2f611098565b600d60009054906101000a900473ffffffffffffffffffffffffffffffffffffffff1673ffffffffffffffffffffffffffffffffffffffff1663413e1a973484846040518463ffffffff167c0100000000000000000000000000000000000000000000000000000000028152600401808360ff1660ff1681526020018273ffffffffffffffffffffffffffffffffffffffff1673ffffffffffffffffffffffffffffffffffffffff168152602001925050506000604051808303818588803b1515611af957600080fd5b5af11515611b0657600080fd5b50505050346003600082825401925050819055505050565b60055481565b600060159054906101000a900460ff1681565b600d60009054906101000a900473ffffffffffffffffffffffffffffffffffffffff1681565b611b65611098565b600d60009054906101000a900473ffffffffffffffffffffffffffffffffffffffff1673ffffffffffffffffffffffffffffffffffffffff16636ea6c8b2348585856040518563ffffffff167c010000000000000000000000000000000000000000000000000000000002815260040180806020018373ffffffffffffffffffffffffffffffffffffffff1673ffffffffffffffffffffffffffffffffffffffff168152602001828103825285858281815260200192508082843782019150509450505050506000604051808303818588803b1515611c4357600080fd5b5af11515611c5057600080fd5b5050505034600360008282540192505081905550505050565b600060149054906101000a900460ff1681565b6000600860003373ffffffffffffffffffffffffffffffffffffffff1673ffffffffffffffffffffffffffffffffffffffff16815260200190815260200160002060009054906101000a900460ff161515611cd657600080fd5b600a60009054906101000a900473ffffffffffffffffffffffffffffffffffffffff1673ffffffffffffffffffffffffffffffffffffffff1663775ed63d868686866000604051602001526040518563ffffffff167c0100000000000000000000000000000000000000000000000000000000028152600401808573ffffffffffffffffffffffffffffffffffffffff1673ffffffffffffffffffffffffffffffffffffffff168152602001806020018381526020018281038252858582818152602001925080828437820191505095505050505050602060405180830381600087803b1515611dc557600080fd5b5af11515611dd257600080fd5b505050604051805190509050949350505050565b60035481565b6000809054906101000a900473ffffffffffffffffffffffffffffffffffffffff1681565b6000600780549050905090565b611e26611098565b600b60009054906101000a900473ffffffffffffffffffffffffffffffffffffffff1673ffffffffffffffffffffffffffffffffffffffff1663a9059cbb600d60009054906101000a900473ffffffffffffffffffffffffffffffffffffffff16866040518363ffffffff167c0100000000000000000000000000000000000000000000000000000000028152600401808373ffffffffffffffffffffffffffffffffffffffff1673ffffffffffffffffffffffffffffffffffffffff16815260200182815260200192505050600060405180830381600087803b1515611f0c57600080fd5b5af11515611f1957600080fd5b505050600d60009054906101000a900473ffffffffffffffffffffffffffffffffffffffff1673ffffffffffffffffffffffffffffffffffffffff16638f4ffcb186868686866040518663ffffffff167c0100000000000000000000000000000000000000000000000000000000028152600401808673ffffffffffffffffffffffffffffffffffffffff1673ffffffffffffffffffffffffffffffffffffffff1681526020018581526020018473ffffffffffffffffffffffffffffffffffffffff1673ffffffffffffffffffffffffffffffffffffffff16815260200180602001828103825284848281815260200192508082843782019150509650505050505050600060405180830381600087803b151561203657600080fd5b5af1151561204357600080fd5b505050836003600082825401925050819055505050505050565b60078181548110151561206c57fe5b90600052602060002090016000915054906101000a900473ffffffffffffffffffffffffffffffffffffffff1681565b600460009054906101000a900460ff1681565b6120b7612bae565b6120bf612b84565b6120c7612b84565b60008060008060008060008060008d8d1115156120e357600080fd5b8c97506007805490508811156120fc5760078054905097505b6000965060009550600091505b8d880382101561241e5760078281548110151561212257fe5b906000526020600020900160009054906101000a900473ffffffffffffffffffffffffffffffffffffffff1673ffffffffffffffffffffffffffffffffffffffff16630891690b6000604051602001526040518163ffffffff167c0100000000000000000000000000000000000000000000000000000000028152600401602060405180830381600087803b15156121b957600080fd5b5af115156121c657600080fd5b5050506040518051905095506007828154811015156121e157fe5b906000526020600020900160009054906101000a900473ffffffffffffffffffffffffffffffffffffffff1673ffffffffffffffffffffffffffffffffffffffff16639eb623d76000604051602001526040518163ffffffff167c0100000000000000000000000000000000000000000000000000000000028152600401602060405180830381600087803b151561227857600080fd5b5af1151561228557600080fd5b505050604051805190509250600090505b8581101561241157610200871015156122ae57612411565b6007828154811015156122bd57fe5b906000526020600020900160009054906101000a900473ffffffffffffffffffffffffffffffffffffffff1673ffffffffffffffffffffffffffffffffffffffff16637f87179a826000604051604001526040518263ffffffff167c0100000000000000000000000000000000000000000000000000000000028152600401808281526020019150506040805180830381600087803b151561235e57600080fd5b5af1151561236b57600080fd5b505050604051805190602001805190508095508196505050848c886102008110151561239357fe5b602002019073ffffffffffffffffffffffffffffffffffffffff16908173ffffffffffffffffffffffffffffffffffffffff1681525050838b88610200811015156123da57fe5b602002018181525050828a88610200811015156123f357fe5b60200201818152505086806001019750508080600101915050612296565b8180600101925050612109565b869850505050505050505092959194509250565b600080600080600b60009054906101000a900473ffffffffffffffffffffffffffffffffffffffff1673ffffffffffffffffffffffffffffffffffffffff166370a08231600d60009054906101000a900473ffffffffffffffffffffffffffffffffffffffff166000604051602001526040518263ffffffff167c0100000000000000000000000000000000000000000000000000000000028152600401808273ffffffffffffffffffffffffffffffffffffffff1673ffffffffffffffffffffffffffffffffffffffff168152602001915050602060405180830381600087803b151561251f57600080fd5b5af1151561252c57600080fd5b505050604051805190509350600d60009054906101000a900473ffffffffffffffffffffffffffffffffffffffff1673ffffffffffffffffffffffffffffffffffffffff16639eb623d76000604051602001526040518163ffffffff167c0100000000000000000000000000000000000000000000000000000000028152600401602060405180830381600087803b15156125c657600080fd5b5af115156125d357600080fd5b5050506040518051905092506003549150600954905090919293565b60086020528060005260406000206000915054906101000a900460ff1681565b6000809054906101000a900473ffffffffffffffffffffffffffffffffffffffff1673ffffffffffffffffffffffffffffffffffffffff163373ffffffffffffffffffffffffffffffffffffffff1614151561266a57600080fd5b80600c60006101000a81548173ffffffffffffffffffffffffffffffffffffffff021916908373ffffffffffffffffffffffffffffffffffffffff16021790555050565b60015481565b60025481565b600a60009054906101000a900473ffffffffffffffffffffffffffffffffffffffff1681565b60008085851115156126f157600080fd5b84915060078054905082111561270a5760078054905091505b8590505b818110156127f85760078181548110151561272557fe5b906000526020600020900160009054906101000a900473ffffffffffffffffffffffffffffffffffffffff1673ffffffffffffffffffffffffffffffffffffffff166350b9bc9285856040518363ffffffff167c01000000000000000000000000000000000000000000000000000000000281526004018080602001828103825284848281815260200192506020028082843782019150509350505050600060405180830381600087803b15156127db57600080fd5b5af115156127e857600080fd5b505050808060010191505061270e565b505050505050565b6000809054906101000a900473ffffffffffffffffffffffffffffffffffffffff1673ffffffffffffffffffffffffffffffffffffffff163373ffffffffffffffffffffffffffffffffffffffff1614151561285b57600080fd5b806000806101000a81548173ffffffffffffffffffffffffffffffffffffffff021916908373ffffffffffffffffffffffffffffffffffffffff16021790555050565b6000809054906101000a900473ffffffffffffffffffffffffffffffffffffffff1673ffffffffffffffffffffffffffffffffffffffff163373ffffffffffffffffffffffffffffffffffffffff161415156128f957600080fd5b6007805480600101828161290d9190612bee565b9160005260206000209001600083909190916101000a81548173ffffffffffffffffffffffffffffffffffffffff021916908373ffffffffffffffffffffffffffffffffffffffff160217905550506001600860008373ffffffffffffffffffffffffffffffffffffffff1673ffffffffffffffffffffffffffffffffffffffff16815260200190815260200160002060006101000a81548160ff0219169083151502179055506000600d60009054906101000a900473ffffffffffffffffffffffffffffffffffffffff1673ffffffffffffffffffffffffffffffffffffffff161415612b815780600d60006101000a81548173ffffffffffffffffffffffffffffffffffffffff021916908373ffffffffffffffffffffffffffffffffffffffff1602179055506001600780549050036009819055507f3e3b2a1d3103b12ee8a1409b8e0b9a1791e8a18afe6ddcf8b8417adccde34775600d60009054906101000a900473ffffffffffffffffffffffffffffffffffffffff1673ffffffffffffffffffffffffffffffffffffffff16639eb623d76000604051602001526040518163ffffffff167c0100000000000000000000000000000000000000000000000000000000028152600401602060405180830381600087803b1515612af457600080fd5b5af11515612b0157600080fd5b50505060405180519050600d60009054906101000a900473ffffffffffffffffffffffffffffffffffffffff16600954604051808481526020018373ffffffffffffffffffffffffffffffffffffffff1673ffffffffffffffffffffffffffffffffffffffff168152602001828152602001935050505060405180910390a15b50565b61400060405190810160405280610200905b6000815260200190600190039081612b965790505090565b61400060405190810160405280610200905b600073ffffffffffffffffffffffffffffffffffffffff16815260200190600190039081612bc05790505090565b815481835581811511612c1557818360005260206000209182019101612c149190612c1a565b5b505050565b612c3c91905b80821115612c38576000816000905550600101612c20565b5090565b905600a265627a7a723058205b2797a4fecfe0cf273a6887c16086ee273a990a7cb5e7b5ea6eaa35ae90fea56c6578706572696d656e74616cf50037",
  "source": "pragma solidity ^0.4.4;\npragma experimental \"v0.5.0\";\nimport \"./Interface.sol\";\nimport \"./owned.sol\";\n\n/*\naward rules:\n  * 5+1 jackpot\n  * 5+0 5000 ETH\n  * 4+1 50 ETH\n  * 4+0 2.5 ETH\n  * 3+1 1 ETH\n  * 3+0 0.05 ETH\n  * 2+1 0.05 ETH\n  * 1+1 0.02 ETH\n  * 0+1 0.01 ETH\n*/\ncontract ChainLot is owned{\n\tuint8 public maxWhiteNumber; //70;\n\tuint8 public maxYellowNumber; //25;\n\tuint public etherPerTicket; //10**18/100;\n\tuint public awardIntervalNumber; //50000\n\n\tuint public tokenSum;\n\tuint8 public maxWhiteNumberCount;\n\tuint8 public maxYellowNumberCount;\n\tuint8 public totalNumberCount;\n\tuint public latestPoolBlockNumber;\n\n\tuint[] awardRulesArray;\n\t\n\n\tChainLotPoolInterface[] public chainlotPools;\n\tmapping(address=>bool) public chainlotPoolsMap;\n\tuint public currentPoolIndex = 0;\n\t\n  \tChainLotTicketInterface public chainLotTicket;\n  \tCLTokenInterface public clToken;\n  \tChainLotPoolFactoryInterface public clpFactory;\n  \tChainLotPoolInterface public currentPool;\n  \t\n\tevent BuyTicket(uint poolBlockNumber, bytes numbers, uint ticketCount, uint ticketId, address user, uint blockNumber, uint totalTicketCountSum, uint value);\n\tevent PrepareAward(bytes jackpotNumbers, uint poolBlockNumber, uint allTicketsCount);\n\tevent ToBeAward(bytes jackpotNumbers, bytes32 ticketNumber, uint ticketCount, uint ticketId, address user, uint blockNumber, uint awardValue);\n\tevent MatchAwards(bytes jackpotNumbers, uint lastMatchedTicketIndex, uint endIndex, uint allTicketsCount);\n\tevent MatchRule(bytes jackpotNumbers, bytes32 ticketNumber, uint ticketCount, uint ticketId, uint blockNumber, uint ruleId, uint ruleEther);\n  \tevent TransferAward(address winner, uint value);\n  \tevent TransferDevCut(address dev, uint value);\n  \tevent TransferHistoryCut(address user, uint value);\n  \tevent AddHistoryCut(uint added, uint total);\n  \tevent CalculateAwards(uint8 ruleId, uint winnersTicketCount, uint awardEther, uint totalWinnersAward, uint totalTicketCount);\n  \tevent SplitAward(uint8 ruleId, uint totalWinnersAward, uint leftBalance);\n  \tevent GenerateNewPool(uint currentPoolBlockNumber, uint nextPoolBlockNumber, uint length);\n  \tevent TransferUnawarded(address from, address to, uint value);\n  \tevent SwitchPool(uint currentPoolblockNumber, address currentPool, uint currentPoolIndex);\n  \tevent GenRandomNumbers(uint random, uint blockNumber, uint hash, uint addressInt, uint shift, uint timestamp, uint difficulty);\n  \tevent MigrateFrom(address chainlotAddress, address poolAddress);\n  \tevent LOG(uint msg);\n\n\tfunction ChainLot(uint8 _maxWhiteNumber, \n\t\t\t\t\t\tuint8 _maxYellowNumber, \n\t\t\t\t\t\tuint8 _whiteNumberCount, \n\t\t\t\t\t\tuint8 _yellowNumberCount, \n\t\t\t\t\t\tuint _etherPerTicket, \n\t\t\t\t\t\tuint _awardIntervalNumber,\n\t\t\t\t\t\tuint[] _awardRulesArray) public {\n\t\tmaxWhiteNumber = _maxWhiteNumber;\n\t\tmaxYellowNumber = _maxYellowNumber;\n\t\tmaxWhiteNumberCount = _whiteNumberCount;\n\t\tmaxYellowNumberCount = _yellowNumberCount;\n\t\tetherPerTicket = _etherPerTicket;\n\t\tawardIntervalNumber = _awardIntervalNumber;\n\t\ttotalNumberCount = maxWhiteNumberCount + maxYellowNumberCount;\n\t\tawardRulesArray = _awardRulesArray;\n\t}\n\n\tfunction newPool() public onlyOwner {\n\t\tChainLotPoolInterface newed = clpFactory.newPool(latestPoolBlockNumber,maxWhiteNumber, maxYellowNumber, maxWhiteNumberCount, maxYellowNumberCount, \n\t\t\tawardIntervalNumber, etherPerTicket, awardRulesArray);\n\t\tclpFactory.setPool(newed, chainLotTicket, clToken, ChainLotInterface(this));\n\t\tlatestPoolBlockNumber = newed.poolBlockNumber();\n\t\tif(address(newed) != 0) {\n\t\t\taddPool(newed);\n\t\t}\n\t}\n\n\tfunction addPool(ChainLotPoolInterface newed) internal onlyOwner {\n\t\tchainlotPools.push(newed);\n\t\tchainlotPoolsMap[address(newed)] = true;\n\n\t\tif(address(currentPool)==0) {\n\t\t\tcurrentPool = newed;\n\t\t\tcurrentPoolIndex = chainlotPools.length - 1;\n\t\t\tSwitchPool(currentPool.poolBlockNumber(), address(currentPool), currentPoolIndex);\n\t\t}\n\t}\n\n\tfunction checkAndSwitchPool() public {\n\t\trequire(address(currentPool) != 0);\n\n\t\t//find the right pool\n\t\twhile(currentPool.poolBlockNumber() <= block.number) {\n\t\t\trequire(currentPoolIndex + 1 < chainlotPools.length); // need more pool\n\t\t\tcurrentPoolIndex ++;\n\t\t\tcurrentPool = chainlotPools[currentPoolIndex];\n\t\t\tSwitchPool(currentPool.poolBlockNumber(), address(currentPool), currentPoolIndex);\n\t\t}\n\t}\n\n\t//numbers: uint8[6] \n\t//\t\t\t1-5: <=maxWhiteNumber\n\t//\t\t\t6: <=maxYellowNumber\n\tfunction buyTicket(bytes numbers, address referer) payable external {\n\t\tcheckAndSwitchPool();\n\t\tcurrentPool.buyTicket.value(msg.value)(numbers, referer);\n\t\ttokenSum += msg.value;\n\t}\n\n\t//random numbers\n\t//random seed: number-1 block hash x user address\n\tfunction buyRandom(uint8 numberCount, address referer) payable external{\n\t\tcheckAndSwitchPool();\n\t    currentPool.buyRandom.value(msg.value)(numberCount, referer);\n\t    tokenSum += msg.value;\n\t}\n\n\tmodifier onlyPool {\n        require(chainlotPoolsMap[msg.sender]);\n        _;\n  \t}\n\n\tfunction mint(address _owner, \n\t    bytes _numbers,\n\t    uint _count) \n\t    external onlyPool returns (uint) {\n\t    return chainLotTicket.mint(_owner, _numbers, _count);\n  \t}\n\n\tfunction receiveApproval(address _from, uint _value, address _token, bytes _extraData) external {\n\t\tcheckAndSwitchPool();\n\t\tclToken.transfer(currentPool, _value);\n\t    currentPool.receiveApproval(_from, _value, _token, _extraData);\n\t    tokenSum += _value;\n\t}\n\n  function setChainLotTicketAddress(address ticketAddress) onlyOwner external {\n    chainLotTicket = ChainLotTicketInterface(ticketAddress);\n  }\n\n  function setCLTokenAddress(address tokenAddress) onlyOwner external {\n    clToken = CLTokenInterface(tokenAddress);\n  }\n\n  function setChainLotPoolFactoryAddress(address factoryAddress) onlyOwner external {\n  \tclpFactory = ChainLotPoolFactoryInterface(factoryAddress);\n  }\n\n  function withDrawDevCut(uint value) onlyOwner external {\n  \tclToken.transfer(owner, value);\n  }\n\n  function getPoolCount() external view returns(uint count) {\n  \tcount = chainlotPools.length;\n  }\n\n  //withdraw history cut from pools\n  function withDrawHistoryCut(uint poolStart, uint _poolEnd, uint[] ticketIds) external {\n  \trequire(_poolEnd > poolStart);\n  \tuint poolEnd = _poolEnd;\n  \tif(poolEnd > chainlotPools.length) poolEnd = chainlotPools.length;\n\n  \tfor(uint i = poolStart; i < poolEnd; i++) {\n  \t\tchainlotPools[i].withdrawHistoryCut(ticketIds);\n  \t}\n  }\n\n\n  function listUserHistoryCut(address user, uint poolStart, uint _poolEnd, uint[] ticketIds) external view returns(uint[512] poolCuts) {\n  \trequire(_poolEnd > poolStart);\n  \tuint poolEnd = _poolEnd;\n  \tif(poolEnd > chainlotPools.length) poolEnd = chainlotPools.length;\n\n  \t//uint[] memory poolCuts = new uint[](poolEnd - poolStart);\n\tfor(uint i = poolStart; i < poolEnd; i++) {\n  \t\tpoolCuts[i-poolStart] = chainlotPools[i].listUserHistoryCut(user, ticketIds);\n  \t}\n  \t//return poolCuts;\n  }\n\n  function retrievePoolInfo() external view returns (uint poolTokens, uint poolBlockNumber, uint totalPoolTokens, uint _currentPoolIndex)  {\n  \tpoolTokens = clToken.balanceOf(currentPool);\n  \tpoolBlockNumber = currentPool.poolBlockNumber();\n  \ttotalPoolTokens = tokenSum;\n  \t_currentPoolIndex = currentPoolIndex;\n  }\n\n  function getWinnerList(uint poolStart, uint _poolEnd) external view returns (address[512] winners, uint[512] values, uint[512] blocks, uint count) {\n  \trequire(_poolEnd > poolStart);\n  \tuint poolEnd = _poolEnd;\n  \tif(poolEnd > chainlotPools.length) poolEnd = chainlotPools.length;\n\n  \tuint winnersCount = 0;\n  \tuint poolWinnersCount = 0;\n  \taddress winner; uint value; uint blockNumber;\n\n\tfor(uint i = 0; i < poolEnd - poolStart; i++) {\n\t\tpoolWinnersCount= chainlotPools[i].awardIndex();\n\t\tblockNumber = chainlotPools[i].poolBlockNumber();\n\t\tfor(uint j=0; j<poolWinnersCount; j++) {\n\t\t\tif(winnersCount >= 512) break;\n\n\t\t\t(winner, value) = chainlotPools[i].toBeAward(j);\n\t\t\twinners[winnersCount] = winner;\n\t\t\tvalues[winnersCount] = value;\n\t\t\tblocks[winnersCount] = blockNumber;\n\t\t\twinnersCount ++;\n\t\t}\n\t}\n  \t\n  \tcount = winnersCount;\n  }\n\n  function migrateFrom(address chainlotAddress) onlyOwner external{\n  \tChainLot old = ChainLot(chainlotAddress);\n  \tfor(uint i=0; i<=old.currentPoolIndex(); i++) {\n  \t\taddress poolAddress = old.chainlotPools(i);\n  \t\tif(!chainlotPoolsMap[poolAddress]) {\n  \t\t\taddPool(ChainLotPoolInterface(poolAddress));\n  \t\t\tMigrateFrom(chainlotAddress, poolAddress);\n  \t\t}\n  \t}\n  \tcurrentPool = old.currentPool();\n\tcurrentPoolIndex = old.currentPoolIndex();\n  }\n\n}\n",
  "sourcePath": "/Users/phx/eth/chainlot/contracts/ChainLot.sol",
  "compiler": {
    "name": "solc",
    "version": "0.4.19+commit.c4cbbb05.Emscripten.clang"
  },
  "schemaVersion": "2.0.0",
  "updatedAt": "2018-06-30T13:59:27.288Z"
}