{
  "contractName": "ChainLot",
  "abi": [
    {
      "constant": true,
      "inputs": [],
      "name": "clToken",
      "outputs": [
        {
          "name": "",
          "type": "address"
        }
      ],
      "payable": false,
      "stateMutability": "view",
      "type": "function"
    },
    {
      "constant": true,
      "inputs": [],
      "name": "currentPoolIndex",
      "outputs": [
        {
          "name": "",
          "type": "uint256"
        }
      ],
      "payable": false,
      "stateMutability": "view",
      "type": "function"
    },
    {
      "constant": true,
      "inputs": [],
      "name": "clpFactory",
      "outputs": [
        {
          "name": "",
          "type": "address"
        }
      ],
      "payable": false,
      "stateMutability": "view",
      "type": "function"
    },
    {
      "constant": true,
      "inputs": [],
      "name": "totalNumberCount",
      "outputs": [
        {
          "name": "",
          "type": "uint8"
        }
      ],
      "payable": false,
      "stateMutability": "view",
      "type": "function"
    },
    {
      "constant": true,
      "inputs": [],
      "name": "maxYellowNumberCount",
      "outputs": [
        {
          "name": "",
          "type": "uint8"
        }
      ],
      "payable": false,
      "stateMutability": "view",
      "type": "function"
    },
    {
      "constant": true,
      "inputs": [],
      "name": "latestPoolBlockNumber",
      "outputs": [
        {
          "name": "",
          "type": "uint256"
        }
      ],
      "payable": false,
      "stateMutability": "view",
      "type": "function"
    },
    {
      "constant": true,
      "inputs": [],
      "name": "maxYellowNumber",
      "outputs": [
        {
          "name": "",
          "type": "uint8"
        }
      ],
      "payable": false,
      "stateMutability": "view",
      "type": "function"
    },
    {
      "constant": true,
      "inputs": [],
      "name": "currentPool",
      "outputs": [
        {
          "name": "",
          "type": "address"
        }
      ],
      "payable": false,
      "stateMutability": "view",
      "type": "function"
    },
    {
      "constant": true,
      "inputs": [],
      "name": "maxWhiteNumber",
      "outputs": [
        {
          "name": "",
          "type": "uint8"
        }
      ],
      "payable": false,
      "stateMutability": "view",
      "type": "function"
    },
    {
      "constant": true,
      "inputs": [],
      "name": "tokenSum",
      "outputs": [
        {
          "name": "",
          "type": "uint256"
        }
      ],
      "payable": false,
      "stateMutability": "view",
      "type": "function"
    },
    {
      "constant": true,
      "inputs": [],
      "name": "owner",
      "outputs": [
        {
          "name": "",
          "type": "address"
        }
      ],
      "payable": false,
      "stateMutability": "view",
      "type": "function"
    },
    {
      "constant": true,
      "inputs": [
        {
          "name": "",
          "type": "uint256"
        }
      ],
      "name": "chainlotPools",
      "outputs": [
        {
          "name": "",
          "type": "address"
        }
      ],
      "payable": false,
      "stateMutability": "view",
      "type": "function"
    },
    {
      "constant": true,
      "inputs": [],
      "name": "maxWhiteNumberCount",
      "outputs": [
        {
          "name": "",
          "type": "uint8"
        }
      ],
      "payable": false,
      "stateMutability": "view",
      "type": "function"
    },
    {
      "constant": true,
      "inputs": [
        {
          "name": "",
          "type": "address"
        }
      ],
      "name": "chainlotPoolsMap",
      "outputs": [
        {
          "name": "",
          "type": "bool"
        }
      ],
      "payable": false,
      "stateMutability": "view",
      "type": "function"
    },
    {
      "constant": true,
      "inputs": [],
      "name": "etherPerTicket",
      "outputs": [
        {
          "name": "",
          "type": "uint256"
        }
      ],
      "payable": false,
      "stateMutability": "view",
      "type": "function"
    },
    {
      "constant": true,
      "inputs": [],
      "name": "awardIntervalNumber",
      "outputs": [
        {
          "name": "",
          "type": "uint256"
        }
      ],
      "payable": false,
      "stateMutability": "view",
      "type": "function"
    },
    {
      "constant": true,
      "inputs": [],
      "name": "chainLotTicket",
      "outputs": [
        {
          "name": "",
          "type": "address"
        }
      ],
      "payable": false,
      "stateMutability": "view",
      "type": "function"
    },
    {
      "constant": false,
      "inputs": [
        {
          "name": "newOwner",
          "type": "address"
        }
      ],
      "name": "transferOwnership",
      "outputs": [],
      "payable": false,
      "stateMutability": "nonpayable",
      "type": "function"
    },
    {
      "inputs": [
        {
          "name": "_maxWhiteNumber",
          "type": "uint8"
        },
        {
          "name": "_maxYellowNumber",
          "type": "uint8"
        },
        {
          "name": "_whiteNumberCount",
          "type": "uint8"
        },
        {
          "name": "_yellowNumberCount",
          "type": "uint8"
        },
        {
          "name": "_etherPerTicket",
          "type": "uint256"
        },
        {
          "name": "_awardIntervalNumber",
          "type": "uint256"
        },
        {
          "name": "_awardRulesArray",
          "type": "uint256[]"
        }
      ],
      "payable": false,
      "stateMutability": "nonpayable",
      "type": "constructor"
    },
    {
      "anonymous": false,
      "inputs": [
        {
          "indexed": false,
          "name": "poolBlockNumber",
          "type": "uint256"
        },
        {
          "indexed": false,
          "name": "numbers",
          "type": "bytes"
        },
        {
          "indexed": false,
          "name": "ticketCount",
          "type": "uint256"
        },
        {
          "indexed": false,
          "name": "ticketId",
          "type": "uint256"
        },
        {
          "indexed": false,
          "name": "user",
          "type": "address"
        },
        {
          "indexed": false,
          "name": "blockNumber",
          "type": "uint256"
        },
        {
          "indexed": false,
          "name": "totalTicketCountSum",
          "type": "uint256"
        },
        {
          "indexed": false,
          "name": "value",
          "type": "uint256"
        }
      ],
      "name": "BuyTicket",
      "type": "event"
    },
    {
      "anonymous": false,
      "inputs": [
        {
          "indexed": false,
          "name": "jackpotNumbers",
          "type": "bytes"
        },
        {
          "indexed": false,
          "name": "poolBlockNumber",
          "type": "uint256"
        },
        {
          "indexed": false,
          "name": "allTicketsCount",
          "type": "uint256"
        }
      ],
      "name": "PrepareAward",
      "type": "event"
    },
    {
      "anonymous": false,
      "inputs": [
        {
          "indexed": false,
          "name": "jackpotNumbers",
          "type": "bytes"
        },
        {
          "indexed": false,
          "name": "ticketNumber",
          "type": "bytes32"
        },
        {
          "indexed": false,
          "name": "ticketCount",
          "type": "uint256"
        },
        {
          "indexed": false,
          "name": "ticketId",
          "type": "uint256"
        },
        {
          "indexed": false,
          "name": "user",
          "type": "address"
        },
        {
          "indexed": false,
          "name": "blockNumber",
          "type": "uint256"
        },
        {
          "indexed": false,
          "name": "awardValue",
          "type": "uint256"
        }
      ],
      "name": "ToBeAward",
      "type": "event"
    },
    {
      "anonymous": false,
      "inputs": [
        {
          "indexed": false,
          "name": "jackpotNumbers",
          "type": "bytes"
        },
        {
          "indexed": false,
          "name": "lastMatchedTicketIndex",
          "type": "uint256"
        },
        {
          "indexed": false,
          "name": "endIndex",
          "type": "uint256"
        },
        {
          "indexed": false,
          "name": "allTicketsCount",
          "type": "uint256"
        }
      ],
      "name": "MatchAwards",
      "type": "event"
    },
    {
      "anonymous": false,
      "inputs": [
        {
          "indexed": false,
          "name": "jackpotNumbers",
          "type": "bytes"
        },
        {
          "indexed": false,
          "name": "ticketNumber",
          "type": "bytes32"
        },
        {
          "indexed": false,
          "name": "ticketCount",
          "type": "uint256"
        },
        {
          "indexed": false,
          "name": "ticketId",
          "type": "uint256"
        },
        {
          "indexed": false,
          "name": "blockNumber",
          "type": "uint256"
        },
        {
          "indexed": false,
          "name": "ruleId",
          "type": "uint256"
        },
        {
          "indexed": false,
          "name": "ruleEther",
          "type": "uint256"
        }
      ],
      "name": "MatchRule",
      "type": "event"
    },
    {
      "anonymous": false,
      "inputs": [
        {
          "indexed": false,
          "name": "winner",
          "type": "address"
        },
        {
          "indexed": false,
          "name": "value",
          "type": "uint256"
        }
      ],
      "name": "TransferAward",
      "type": "event"
    },
    {
      "anonymous": false,
      "inputs": [
        {
          "indexed": false,
          "name": "dev",
          "type": "address"
        },
        {
          "indexed": false,
          "name": "value",
          "type": "uint256"
        }
      ],
      "name": "TransferDevCut",
      "type": "event"
    },
    {
      "anonymous": false,
      "inputs": [
        {
          "indexed": false,
          "name": "user",
          "type": "address"
        },
        {
          "indexed": false,
          "name": "value",
          "type": "uint256"
        }
      ],
      "name": "TransferHistoryCut",
      "type": "event"
    },
    {
      "anonymous": false,
      "inputs": [
        {
          "indexed": false,
          "name": "added",
          "type": "uint256"
        },
        {
          "indexed": false,
          "name": "total",
          "type": "uint256"
        }
      ],
      "name": "AddHistoryCut",
      "type": "event"
    },
    {
      "anonymous": false,
      "inputs": [
        {
          "indexed": false,
          "name": "ruleId",
          "type": "uint8"
        },
        {
          "indexed": false,
          "name": "winnersTicketCount",
          "type": "uint256"
        },
        {
          "indexed": false,
          "name": "awardEther",
          "type": "uint256"
        },
        {
          "indexed": false,
          "name": "totalWinnersAward",
          "type": "uint256"
        },
        {
          "indexed": false,
          "name": "totalTicketCount",
          "type": "uint256"
        }
      ],
      "name": "CalculateAwards",
      "type": "event"
    },
    {
      "anonymous": false,
      "inputs": [
        {
          "indexed": false,
          "name": "ruleId",
          "type": "uint8"
        },
        {
          "indexed": false,
          "name": "totalWinnersAward",
          "type": "uint256"
        },
        {
          "indexed": false,
          "name": "leftBalance",
          "type": "uint256"
        }
      ],
      "name": "SplitAward",
      "type": "event"
    },
    {
      "anonymous": false,
      "inputs": [
        {
          "indexed": false,
          "name": "currentPoolBlockNumber",
          "type": "uint256"
        },
        {
          "indexed": false,
          "name": "nextPoolBlockNumber",
          "type": "uint256"
        },
        {
          "indexed": false,
          "name": "length",
          "type": "uint256"
        }
      ],
      "name": "GenerateNewPool",
      "type": "event"
    },
    {
      "anonymous": false,
      "inputs": [
        {
          "indexed": false,
          "name": "from",
          "type": "address"
        },
        {
          "indexed": false,
          "name": "to",
          "type": "address"
        },
        {
          "indexed": false,
          "name": "value",
          "type": "uint256"
        }
      ],
      "name": "TransferUnawarded",
      "type": "event"
    },
    {
      "anonymous": false,
      "inputs": [
        {
          "indexed": false,
          "name": "currentPoolblockNumber",
          "type": "uint256"
        },
        {
          "indexed": false,
          "name": "currentPool",
          "type": "address"
        },
        {
          "indexed": false,
          "name": "currentPoolIndex",
          "type": "uint256"
        }
      ],
      "name": "SwitchPool",
      "type": "event"
    },
    {
      "anonymous": false,
      "inputs": [
        {
          "indexed": false,
          "name": "random",
          "type": "uint256"
        },
        {
          "indexed": false,
          "name": "blockNumber",
          "type": "uint256"
        },
        {
          "indexed": false,
          "name": "hash",
          "type": "uint256"
        },
        {
          "indexed": false,
          "name": "addressInt",
          "type": "uint256"
        },
        {
          "indexed": false,
          "name": "shift",
          "type": "uint256"
        },
        {
          "indexed": false,
          "name": "timestamp",
          "type": "uint256"
        },
        {
          "indexed": false,
          "name": "difficulty",
          "type": "uint256"
        }
      ],
      "name": "GenRandomNumbers",
      "type": "event"
    },
    {
      "anonymous": false,
      "inputs": [
        {
          "indexed": false,
          "name": "msg",
          "type": "uint256"
        }
      ],
      "name": "LOG",
      "type": "event"
    },
    {
      "constant": false,
      "inputs": [],
      "name": "newPool",
      "outputs": [],
      "payable": false,
      "stateMutability": "nonpayable",
      "type": "function"
    },
    {
      "constant": false,
      "inputs": [
        {
          "name": "numbers",
          "type": "bytes"
        },
        {
          "name": "referer",
          "type": "address"
        }
      ],
      "name": "buyTicket",
      "outputs": [],
      "payable": true,
      "stateMutability": "payable",
      "type": "function"
    },
    {
      "constant": false,
      "inputs": [
        {
          "name": "numberCount",
          "type": "uint8"
        },
        {
          "name": "referer",
          "type": "address"
        }
      ],
      "name": "buyRandom",
      "outputs": [],
      "payable": true,
      "stateMutability": "payable",
      "type": "function"
    },
    {
      "constant": false,
      "inputs": [
        {
          "name": "_owner",
          "type": "address"
        },
        {
          "name": "_numbers",
          "type": "bytes"
        },
        {
          "name": "_count",
          "type": "uint256"
        }
      ],
      "name": "mint",
      "outputs": [
        {
          "name": "",
          "type": "uint256"
        }
      ],
      "payable": false,
      "stateMutability": "nonpayable",
      "type": "function"
    },
    {
      "constant": false,
      "inputs": [
        {
          "name": "_from",
          "type": "address"
        },
        {
          "name": "_value",
          "type": "uint256"
        },
        {
          "name": "_token",
          "type": "address"
        },
        {
          "name": "_extraData",
          "type": "bytes"
        }
      ],
      "name": "receiveApproval",
      "outputs": [],
      "payable": false,
      "stateMutability": "nonpayable",
      "type": "function"
    },
    {
      "constant": false,
      "inputs": [
        {
          "name": "ticketAddress",
          "type": "address"
        }
      ],
      "name": "setChainLotTicketAddress",
      "outputs": [],
      "payable": false,
      "stateMutability": "nonpayable",
      "type": "function"
    },
    {
      "constant": false,
      "inputs": [
        {
          "name": "tokenAddress",
          "type": "address"
        }
      ],
      "name": "setCLTokenAddress",
      "outputs": [],
      "payable": false,
      "stateMutability": "nonpayable",
      "type": "function"
    },
    {
      "constant": false,
      "inputs": [
        {
          "name": "factoryAddress",
          "type": "address"
        }
      ],
      "name": "setChainLotPoolFactoryAddress",
      "outputs": [],
      "payable": false,
      "stateMutability": "nonpayable",
      "type": "function"
    },
    {
      "constant": false,
      "inputs": [
        {
          "name": "_drawingToolAddress",
          "type": "address"
        }
      ],
      "name": "setDrawingToolAddress",
      "outputs": [],
      "payable": false,
      "stateMutability": "nonpayable",
      "type": "function"
    },
    {
      "constant": false,
      "inputs": [
        {
          "name": "value",
          "type": "uint256"
        }
      ],
      "name": "withDrawDevCut",
      "outputs": [],
      "payable": false,
      "stateMutability": "nonpayable",
      "type": "function"
    },
    {
      "constant": false,
      "inputs": [
        {
          "name": "poolStart",
          "type": "uint256"
        },
        {
          "name": "poolEnd",
          "type": "uint256"
        },
        {
          "name": "ticketIds",
          "type": "uint256[]"
        }
      ],
      "name": "withDrawHistoryCut",
      "outputs": [],
      "payable": false,
      "stateMutability": "nonpayable",
      "type": "function"
    },
    {
      "constant": true,
      "inputs": [
        {
          "name": "user",
          "type": "address"
        },
        {
          "name": "poolStart",
          "type": "uint256"
        },
        {
          "name": "poolEnd",
          "type": "uint256"
        },
        {
          "name": "ticketIds",
          "type": "uint256[]"
        }
      ],
      "name": "listUserHistoryCut",
      "outputs": [
        {
          "name": "poolCuts",
          "type": "uint256[65536]"
        }
      ],
      "payable": false,
      "stateMutability": "view",
      "type": "function"
    },
    {
      "constant": true,
      "inputs": [],
      "name": "retrievePoolInfo",
      "outputs": [
        {
          "name": "poolTokens",
          "type": "uint256"
        },
        {
          "name": "poolBlockNumber",
          "type": "uint256"
        },
        {
          "name": "totalPoolTokens",
          "type": "uint256"
        },
        {
          "name": "poolCount",
          "type": "uint256"
        }
      ],
      "payable": false,
      "stateMutability": "view",
      "type": "function"
    }
  ],
  "bytecode": "0x6060604052600060095534156200001557600080fd5b6040516200275c3803806200275c83398101604052808051906020019091908051906020019091908051906020019091908051906020019091908051906020019091908051906020019091908051820191905050336000806101000a81548173ffffffffffffffffffffffffffffffffffffffff021916908373ffffffffffffffffffffffffffffffffffffffff16021790555086600060146101000a81548160ff021916908360ff16021790555085600060156101000a81548160ff021916908360ff16021790555084600460006101000a81548160ff021916908360ff16021790555083600460016101000a81548160ff021916908360ff1602179055508260018190555081600281905550600460019054906101000a900460ff16600460009054906101000a900460ff1601600460026101000a81548160ff021916908360ff16021790555080600690805190602001906200017692919062000184565b5050505050505050620001fe565b828054828255906000526020600020908101928215620001c3579160200282015b82811115620001c2578251825591602001919060010190620001a5565b5b509050620001d29190620001d6565b5090565b620001fb91905b80821115620001f7576000816000905550600101620001dd565b5090565b90565b61254e806200020e6000396000f30060606040526004361061018a576000357c0100000000000000000000000000000000000000000000000000000000900463ffffffff16806259f7ef1461018f5780630800e5f1146101c85780630b027fb61461021d5780630f11779b1461024657806314c519801461025b57806316205520146102b05780631c0913c9146102df578063363da6071461030257806337f4a9c41461039f5780633e191a12146103ce5780633f12fdaa14610407578063413e1a9714610440578063483ab1171461047a5780635f7d9287146104a3578063692b69ae146104d25780636ea6c8b21461052757806370f4c34314610598578063775ed63d146105c757806388963771146106315780638da5cb5b1461065a5780638f4ffcb1146106af57806392385538146107535780639c7365e5146107b6578063a05863b6146107e5578063a8450e7214610823578063b1a1af3814610874578063b86d7c6c146108ad578063b9d62841146108d6578063e1e3af69146108ff578063ee05a5d514610954578063f2fde38b14610994575b600080fd5b341561019a57600080fd5b6101c6600480803573ffffffffffffffffffffffffffffffffffffffff169060200190919050506109cd565b005b34156101d357600080fd5b6101db610a6c565b604051808273ffffffffffffffffffffffffffffffffffffffff1673ffffffffffffffffffffffffffffffffffffffff16815260200191505060405180910390f35b341561022857600080fd5b610230610a92565b6040518082815260200191505060405180910390f35b341561025157600080fd5b610259610a98565b005b341561026657600080fd5b61026e6111bf565b604051808273ffffffffffffffffffffffffffffffffffffffff1673ffffffffffffffffffffffffffffffffffffffff16815260200191505060405180910390f35b34156102bb57600080fd5b6102c36111e5565b604051808260ff1660ff16815260200191505060405180910390f35b34156102ea57600080fd5b61030060048080359060200190919050506111f8565b005b341561030d57600080fd5b61035f600480803573ffffffffffffffffffffffffffffffffffffffff16906020019091908035906020019091908035906020019091908035906020019082018035906020019190919290505061134f565b60405180826201000060200280838360005b8381101561038c578082015181840152602081019050610371565b5050505090500191505060405180910390f35b34156103aa57600080fd5b6103b26114d6565b604051808260ff1660ff16815260200191505060405180910390f35b34156103d957600080fd5b610405600480803573ffffffffffffffffffffffffffffffffffffffff169060200190919050506114e9565b005b341561041257600080fd5b61043e600480803573ffffffffffffffffffffffffffffffffffffffff16906020019091905050611588565b005b610478600480803560ff1690602001909190803573ffffffffffffffffffffffffffffffffffffffff16906020019091905050611627565b005b341561048557600080fd5b61048d611722565b6040518082815260200191505060405180910390f35b34156104ae57600080fd5b6104b6611728565b604051808260ff1660ff16815260200191505060405180910390f35b34156104dd57600080fd5b6104e561173b565b604051808273ffffffffffffffffffffffffffffffffffffffff1673ffffffffffffffffffffffffffffffffffffffff16815260200191505060405180910390f35b610596600480803590602001908201803590602001908080601f0160208091040260200160405190810160405280939291908181526020018383808284378201915050505050509190803573ffffffffffffffffffffffffffffffffffffffff16906020019091905050611761565b005b34156105a357600080fd5b6105ab6118bb565b604051808260ff1660ff16815260200191505060405180910390f35b34156105d257600080fd5b61061b600480803573ffffffffffffffffffffffffffffffffffffffff1690602001909190803590602001908201803590602001919091929080359060200190919050506118ce565b6040518082815260200191505060405180910390f35b341561063c57600080fd5b610644611a3c565b6040518082815260200191505060405180910390f35b341561066557600080fd5b61066d611a42565b604051808273ffffffffffffffffffffffffffffffffffffffff1673ffffffffffffffffffffffffffffffffffffffff16815260200191505060405180910390f35b34156106ba57600080fd5b610751600480803573ffffffffffffffffffffffffffffffffffffffff1690602001909190803590602001909190803573ffffffffffffffffffffffffffffffffffffffff1690602001909190803590602001908201803590602001908080601f01602080910402602001604051908101604052809392919081815260200183838082843782019150505050505091905050611a67565b005b341561075e57600080fd5b6107746004808035906020019091905050611cf8565b604051808273ffffffffffffffffffffffffffffffffffffffff1673ffffffffffffffffffffffffffffffffffffffff16815260200191505060405180910390f35b34156107c157600080fd5b6107c9611d37565b604051808260ff1660ff16815260200191505060405180910390f35b34156107f057600080fd5b6107f8611d4a565b6040518085815260200184815260200183815260200182815260200194505050505060405180910390f35b341561082e57600080fd5b61085a600480803573ffffffffffffffffffffffffffffffffffffffff16906020019091905050611f12565b604051808215151515815260200191505060405180910390f35b341561087f57600080fd5b6108ab600480803573ffffffffffffffffffffffffffffffffffffffff16906020019091905050611f32565b005b34156108b857600080fd5b6108c0611fd1565b6040518082815260200191505060405180910390f35b34156108e157600080fd5b6108e9611fd7565b6040518082815260200191505060405180910390f35b341561090a57600080fd5b610912611fdd565b604051808273ffffffffffffffffffffffffffffffffffffffff1673ffffffffffffffffffffffffffffffffffffffff16815260200191505060405180910390f35b341561095f57600080fd5b61099260048080359060200190919080359060200190919080359060200190820180359060200191909192905050612003565b005b341561099f57600080fd5b6109cb600480803573ffffffffffffffffffffffffffffffffffffffff16906020019091905050612120565b005b6000809054906101000a900473ffffffffffffffffffffffffffffffffffffffff1673ffffffffffffffffffffffffffffffffffffffff163373ffffffffffffffffffffffffffffffffffffffff16141515610a2857600080fd5b80600e60006101000a81548173ffffffffffffffffffffffffffffffffffffffff021916908373ffffffffffffffffffffffffffffffffffffffff16021790555050565b600b60009054906101000a900473ffffffffffffffffffffffffffffffffffffffff1681565b60095481565b60008060009054906101000a900473ffffffffffffffffffffffffffffffffffffffff1673ffffffffffffffffffffffffffffffffffffffff163373ffffffffffffffffffffffffffffffffffffffff16141515610af557600080fd5b600c60009054906101000a900473ffffffffffffffffffffffffffffffffffffffff1673ffffffffffffffffffffffffffffffffffffffff1663b5533d39600554600060149054906101000a900460ff16600060159054906101000a900460ff16600460009054906101000a900460ff16600460019054906101000a900460ff1660025460015460066000604051602001526040518963ffffffff167c0100000000000000000000000000000000000000000000000000000000028152600401808981526020018860ff1660ff1681526020018760ff1660ff1681526020018660ff1660ff1681526020018560ff1660ff168152602001848152602001838152602001806020018281038252838181548152602001915080548015610c3957602002820191906000526020600020905b815481526020019060010190808311610c25575b50509950505050505050505050602060405180830381600087803b1515610c5f57600080fd5b6102c65a03f11515610c7057600080fd5b505050604051805190509050600c60009054906101000a900473ffffffffffffffffffffffffffffffffffffffff1673ffffffffffffffffffffffffffffffffffffffff1663c03c424a82600a60009054906101000a900473ffffffffffffffffffffffffffffffffffffffff16600b60009054906101000a900473ffffffffffffffffffffffffffffffffffffffff1630600e60009054906101000a900473ffffffffffffffffffffffffffffffffffffffff166040518663ffffffff167c0100000000000000000000000000000000000000000000000000000000028152600401808673ffffffffffffffffffffffffffffffffffffffff1673ffffffffffffffffffffffffffffffffffffffff1681526020018573ffffffffffffffffffffffffffffffffffffffff1673ffffffffffffffffffffffffffffffffffffffff1681526020018473ffffffffffffffffffffffffffffffffffffffff1673ffffffffffffffffffffffffffffffffffffffff1681526020018373ffffffffffffffffffffffffffffffffffffffff1673ffffffffffffffffffffffffffffffffffffffff1681526020018273ffffffffffffffffffffffffffffffffffffffff1673ffffffffffffffffffffffffffffffffffffffff16815260200195505050505050600060405180830381600087803b1515610e6e57600080fd5b6102c65a03f11515610e7f57600080fd5b5050508073ffffffffffffffffffffffffffffffffffffffff16639eb623d76000604051602001526040518163ffffffff167c0100000000000000000000000000000000000000000000000000000000028152600401602060405180830381600087803b1515610eee57600080fd5b6102c65a03f11515610eff57600080fd5b5050506040518051905060058190555060008173ffffffffffffffffffffffffffffffffffffffff161415156111bc5760078054806001018281610f4391906124a5565b9160005260206000209001600083909190916101000a81548173ffffffffffffffffffffffffffffffffffffffff021916908373ffffffffffffffffffffffffffffffffffffffff160217905550506001600860008373ffffffffffffffffffffffffffffffffffffffff1673ffffffffffffffffffffffffffffffffffffffff16815260200190815260200160002060006101000a81548160ff0219169083151502179055506000600d60009054906101000a900473ffffffffffffffffffffffffffffffffffffffff1673ffffffffffffffffffffffffffffffffffffffff1614156111bb5780600d60006101000a81548173ffffffffffffffffffffffffffffffffffffffff021916908373ffffffffffffffffffffffffffffffffffffffff1602179055506001600780549050036009819055507f3e3b2a1d3103b12ee8a1409b8e0b9a1791e8a18afe6ddcf8b8417adccde34775600d60009054906101000a900473ffffffffffffffffffffffffffffffffffffffff1673ffffffffffffffffffffffffffffffffffffffff16639eb623d76000604051602001526040518163ffffffff167c0100000000000000000000000000000000000000000000000000000000028152600401602060405180830381600087803b151561112a57600080fd5b6102c65a03f1151561113b57600080fd5b50505060405180519050600d60009054906101000a900473ffffffffffffffffffffffffffffffffffffffff16600954604051808481526020018373ffffffffffffffffffffffffffffffffffffffff1673ffffffffffffffffffffffffffffffffffffffff168152602001828152602001935050505060405180910390a15b5b50565b600c60009054906101000a900473ffffffffffffffffffffffffffffffffffffffff1681565b600460029054906101000a900460ff1681565b6000809054906101000a900473ffffffffffffffffffffffffffffffffffffffff1673ffffffffffffffffffffffffffffffffffffffff163373ffffffffffffffffffffffffffffffffffffffff1614151561125357600080fd5b600b60009054906101000a900473ffffffffffffffffffffffffffffffffffffffff1673ffffffffffffffffffffffffffffffffffffffff1663a9059cbb6000809054906101000a900473ffffffffffffffffffffffffffffffffffffffff16836040518363ffffffff167c0100000000000000000000000000000000000000000000000000000000028152600401808373ffffffffffffffffffffffffffffffffffffffff1673ffffffffffffffffffffffffffffffffffffffff16815260200182815260200192505050600060405180830381600087803b151561133857600080fd5b6102c65a03f1151561134957600080fd5b50505050565b6113576124d1565b6000858511151561136757600080fd5b600780549050851115151561137b57600080fd5b8590505b848110156114cc5760078181548110151561139657fe5b906000526020600020900160009054906101000a900473ffffffffffffffffffffffffffffffffffffffff1673ffffffffffffffffffffffffffffffffffffffff1663ee5bac898886866000604051602001526040518463ffffffff167c0100000000000000000000000000000000000000000000000000000000028152600401808473ffffffffffffffffffffffffffffffffffffffff1673ffffffffffffffffffffffffffffffffffffffff1681526020018060200182810382528484828181526020019250602002808284378201915050945050505050602060405180830381600087803b151561148957600080fd5b6102c65a03f1151561149a57600080fd5b505050604051805190508287830362010000811015156114b657fe5b602002018181525050808060010191505061137f565b5095945050505050565b600460019054906101000a900460ff1681565b6000809054906101000a900473ffffffffffffffffffffffffffffffffffffffff1673ffffffffffffffffffffffffffffffffffffffff163373ffffffffffffffffffffffffffffffffffffffff1614151561154457600080fd5b80600a60006101000a81548173ffffffffffffffffffffffffffffffffffffffff021916908373ffffffffffffffffffffffffffffffffffffffff16021790555050565b6000809054906101000a900473ffffffffffffffffffffffffffffffffffffffff1673ffffffffffffffffffffffffffffffffffffffff163373ffffffffffffffffffffffffffffffffffffffff161415156115e357600080fd5b80600b60006101000a81548173ffffffffffffffffffffffffffffffffffffffff021916908373ffffffffffffffffffffffffffffffffffffffff16021790555050565b61162f6121be565b600d60009054906101000a900473ffffffffffffffffffffffffffffffffffffffff1673ffffffffffffffffffffffffffffffffffffffff1663413e1a973484846040518463ffffffff167c0100000000000000000000000000000000000000000000000000000000028152600401808360ff1660ff1681526020018273ffffffffffffffffffffffffffffffffffffffff1673ffffffffffffffffffffffffffffffffffffffff168152602001925050506000604051808303818588803b15156116f957600080fd5b6125ee5a03f1151561170a57600080fd5b50505050346003600082825401925050819055505050565b60055481565b600060159054906101000a900460ff1681565b600d60009054906101000a900473ffffffffffffffffffffffffffffffffffffffff1681565b6117696121be565b600d60009054906101000a900473ffffffffffffffffffffffffffffffffffffffff1673ffffffffffffffffffffffffffffffffffffffff16636ea6c8b23484846040518463ffffffff167c010000000000000000000000000000000000000000000000000000000002815260040180806020018373ffffffffffffffffffffffffffffffffffffffff1673ffffffffffffffffffffffffffffffffffffffff168152602001828103825284818151815260200191508051906020019080838360005b8381101561184757808201518184015260208101905061182c565b50505050905090810190601f1680156118745780820380516001836020036101000a031916815260200191505b5093505050506000604051808303818588803b151561189257600080fd5b6125ee5a03f115156118a357600080fd5b50505050346003600082825401925050819055505050565b600060149054906101000a900460ff1681565b6000600860003373ffffffffffffffffffffffffffffffffffffffff1673ffffffffffffffffffffffffffffffffffffffff16815260200190815260200160002060009054906101000a900460ff16151561192857600080fd5b600a60009054906101000a900473ffffffffffffffffffffffffffffffffffffffff1673ffffffffffffffffffffffffffffffffffffffff1663775ed63d868686866000604051602001526040518563ffffffff167c0100000000000000000000000000000000000000000000000000000000028152600401808573ffffffffffffffffffffffffffffffffffffffff1673ffffffffffffffffffffffffffffffffffffffff168152602001806020018381526020018281038252858582818152602001925080828437820191505095505050505050602060405180830381600087803b1515611a1757600080fd5b6102c65a03f11515611a2857600080fd5b505050604051805190509050949350505050565b60035481565b6000809054906101000a900473ffffffffffffffffffffffffffffffffffffffff1681565b611a6f6121be565b600b60009054906101000a900473ffffffffffffffffffffffffffffffffffffffff1673ffffffffffffffffffffffffffffffffffffffff1663a9059cbb600d60009054906101000a900473ffffffffffffffffffffffffffffffffffffffff16856040518363ffffffff167c0100000000000000000000000000000000000000000000000000000000028152600401808373ffffffffffffffffffffffffffffffffffffffff1673ffffffffffffffffffffffffffffffffffffffff16815260200182815260200192505050600060405180830381600087803b1515611b5557600080fd5b6102c65a03f11515611b6657600080fd5b505050600d60009054906101000a900473ffffffffffffffffffffffffffffffffffffffff1673ffffffffffffffffffffffffffffffffffffffff16638f4ffcb1858585856040518563ffffffff167c0100000000000000000000000000000000000000000000000000000000028152600401808573ffffffffffffffffffffffffffffffffffffffff1673ffffffffffffffffffffffffffffffffffffffff1681526020018481526020018373ffffffffffffffffffffffffffffffffffffffff1673ffffffffffffffffffffffffffffffffffffffff16815260200180602001828103825283818151815260200191508051906020019080838360005b83811015611c80578082015181840152602081019050611c65565b50505050905090810190601f168015611cad5780820380516001836020036101000a031916815260200191505b5095505050505050600060405180830381600087803b1515611cce57600080fd5b6102c65a03f11515611cdf57600080fd5b5050508260036000828254019250508190555050505050565b600781815481101515611d0757fe5b90600052602060002090016000915054906101000a900473ffffffffffffffffffffffffffffffffffffffff1681565b600460009054906101000a900460ff1681565b600080600080600b60009054906101000a900473ffffffffffffffffffffffffffffffffffffffff1673ffffffffffffffffffffffffffffffffffffffff166370a08231600d60009054906101000a900473ffffffffffffffffffffffffffffffffffffffff166000604051602001526040518263ffffffff167c0100000000000000000000000000000000000000000000000000000000028152600401808273ffffffffffffffffffffffffffffffffffffffff1673ffffffffffffffffffffffffffffffffffffffff168152602001915050602060405180830381600087803b1515611e3757600080fd5b6102c65a03f11515611e4857600080fd5b505050604051805190509350600d60009054906101000a900473ffffffffffffffffffffffffffffffffffffffff1673ffffffffffffffffffffffffffffffffffffffff16639eb623d76000604051602001526040518163ffffffff167c0100000000000000000000000000000000000000000000000000000000028152600401602060405180830381600087803b1515611ee257600080fd5b6102c65a03f11515611ef357600080fd5b5050506040518051905092506003549150600780549050905090919293565b60086020528060005260406000206000915054906101000a900460ff1681565b6000809054906101000a900473ffffffffffffffffffffffffffffffffffffffff1673ffffffffffffffffffffffffffffffffffffffff163373ffffffffffffffffffffffffffffffffffffffff16141515611f8d57600080fd5b80600c60006101000a81548173ffffffffffffffffffffffffffffffffffffffff021916908373ffffffffffffffffffffffffffffffffffffffff16021790555050565b60015481565b60025481565b600a60009054906101000a900473ffffffffffffffffffffffffffffffffffffffff1681565b6000848411151561201357600080fd5b600780549050841115151561202757600080fd5b8490505b838110156121195760078181548110151561204257fe5b906000526020600020900160009054906101000a900473ffffffffffffffffffffffffffffffffffffffff1673ffffffffffffffffffffffffffffffffffffffff166350b9bc9284846040518363ffffffff167c01000000000000000000000000000000000000000000000000000000000281526004018080602001828103825284848281815260200192506020028082843782019150509350505050600060405180830381600087803b15156120f857600080fd5b6102c65a03f1151561210957600080fd5b505050808060010191505061202b565b5050505050565b6000809054906101000a900473ffffffffffffffffffffffffffffffffffffffff1673ffffffffffffffffffffffffffffffffffffffff163373ffffffffffffffffffffffffffffffffffffffff1614151561217b57600080fd5b806000806101000a81548173ffffffffffffffffffffffffffffffffffffffff021916908373ffffffffffffffffffffffffffffffffffffffff16021790555050565b6000600d60009054906101000a900473ffffffffffffffffffffffffffffffffffffffff1673ffffffffffffffffffffffffffffffffffffffff161415151561220657600080fd5b5b43600d60009054906101000a900473ffffffffffffffffffffffffffffffffffffffff1673ffffffffffffffffffffffffffffffffffffffff16639eb623d76000604051602001526040518163ffffffff167c0100000000000000000000000000000000000000000000000000000000028152600401602060405180830381600087803b151561229657600080fd5b6102c65a03f115156122a757600080fd5b505050604051805190501115156124a3576007805490506001600954011015156122d057600080fd5b60096000815480929190600101919050555060076009548154811015156122f357fe5b906000526020600020900160009054906101000a900473ffffffffffffffffffffffffffffffffffffffff16600d60006101000a81548173ffffffffffffffffffffffffffffffffffffffff021916908373ffffffffffffffffffffffffffffffffffffffff1602179055507f3e3b2a1d3103b12ee8a1409b8e0b9a1791e8a18afe6ddcf8b8417adccde34775600d60009054906101000a900473ffffffffffffffffffffffffffffffffffffffff1673ffffffffffffffffffffffffffffffffffffffff16639eb623d76000604051602001526040518163ffffffff167c0100000000000000000000000000000000000000000000000000000000028152600401602060405180830381600087803b151561240e57600080fd5b6102c65a03f1151561241f57600080fd5b50505060405180519050600d60009054906101000a900473ffffffffffffffffffffffffffffffffffffffff16600954604051808481526020018373ffffffffffffffffffffffffffffffffffffffff1673ffffffffffffffffffffffffffffffffffffffff168152602001828152602001935050505060405180910390a1612207565b565b8154818355818115116124cc578183600052602060002091820191016124cb91906124fd565b5b505050565b622000006040519081016040528062010000905b60008152602001906001900390816124e55790505090565b61251f91905b8082111561251b576000816000905550600101612503565b5090565b905600a165627a7a72305820d6641f6cc4cf5424a55bb7152424aa910b40688b28afed7b7a0cbdcd29eb5d910029",
  "source": "pragma solidity ^0.4.4;\nimport \"./Interface.sol\";\nimport \"./owned.sol\";\n\n/*\naward rules:\n  * 5+1 jackpot\n  * 5+0 5000 ETH\n  * 4+1 50 ETH\n  * 4+0 2.5 ETH\n  * 3+1 1 ETH\n  * 3+0 0.05 ETH\n  * 2+1 0.05 ETH\n  * 1+1 0.02 ETH\n  * 0+1 0.01 ETH\n*/\ncontract ChainLot is owned{\n\tuint8 public maxWhiteNumber; //70;\n\tuint8 public maxYellowNumber; //25;\n\tuint public etherPerTicket; //10**18/100;\n\tuint public awardIntervalNumber; //50000\n\n\tuint public tokenSum;\n\tuint8 public maxWhiteNumberCount;\n\tuint8 public maxYellowNumberCount;\n\tuint8 public totalNumberCount;\n\tuint public latestPoolBlockNumber;\n\n\tuint[] awardRulesArray;\n\t\n\n\tChainLotPoolInterface[] public chainlotPools;\n\tmapping(address=>bool) public chainlotPoolsMap;\n\tuint public currentPoolIndex = 0;\n\t\n  \tChainLotTicketInterface public chainLotTicket;\n  \tCLTokenInterface public clToken;\n  \tChainLotPoolFactoryInterface public clpFactory;\n  \tChainLotPoolInterface public currentPool;\n  \taddress drawingToolAddress;\n  \n\tevent BuyTicket(uint poolBlockNumber, bytes numbers, uint ticketCount, uint ticketId, address user, uint blockNumber, uint totalTicketCountSum, uint value);\n\tevent PrepareAward(bytes jackpotNumbers, uint poolBlockNumber, uint allTicketsCount);\n\tevent ToBeAward(bytes jackpotNumbers, bytes32 ticketNumber, uint ticketCount, uint ticketId, address user, uint blockNumber, uint awardValue);\n\tevent MatchAwards(bytes jackpotNumbers, uint lastMatchedTicketIndex, uint endIndex, uint allTicketsCount);\n\tevent MatchRule(bytes jackpotNumbers, bytes32 ticketNumber, uint ticketCount, uint ticketId, uint blockNumber, uint ruleId, uint ruleEther);\n  \tevent TransferAward(address winner, uint value);\n  \tevent TransferDevCut(address dev, uint value);\n  \tevent TransferHistoryCut(address user, uint value);\n  \tevent AddHistoryCut(uint added, uint total);\n  \tevent CalculateAwards(uint8 ruleId, uint winnersTicketCount, uint awardEther, uint totalWinnersAward, uint totalTicketCount);\n  \tevent SplitAward(uint8 ruleId, uint totalWinnersAward, uint leftBalance);\n  \tevent GenerateNewPool(uint currentPoolBlockNumber, uint nextPoolBlockNumber, uint length);\n  \tevent TransferUnawarded(address from, address to, uint value);\n  \tevent SwitchPool(uint currentPoolblockNumber, address currentPool, uint currentPoolIndex);\n  \tevent GenRandomNumbers(uint random, uint blockNumber, uint hash, uint addressInt, uint shift, uint timestamp, uint difficulty);\n  \tevent LOG(uint msg);\n\n\tfunction ChainLot(uint8 _maxWhiteNumber, \n\t\t\t\t\t\tuint8 _maxYellowNumber, \n\t\t\t\t\t\tuint8 _whiteNumberCount, \n\t\t\t\t\t\tuint8 _yellowNumberCount, \n\t\t\t\t\t\tuint _etherPerTicket, \n\t\t\t\t\t\tuint _awardIntervalNumber,\n\t\t\t\t\t\tuint[] _awardRulesArray) public {\n\t\tmaxWhiteNumber = _maxWhiteNumber;\n\t\tmaxYellowNumber = _maxYellowNumber;\n\t\tmaxWhiteNumberCount = _whiteNumberCount;\n\t\tmaxYellowNumberCount = _yellowNumberCount;\n\t\tetherPerTicket = _etherPerTicket;\n\t\tawardIntervalNumber = _awardIntervalNumber;\n\t\ttotalNumberCount = maxWhiteNumberCount + maxYellowNumberCount;\n\t\tawardRulesArray = _awardRulesArray;\n\t}\n\n\tfunction newPool() public onlyOwner {\n\t\tChainLotPoolInterface newed = clpFactory.newPool(latestPoolBlockNumber,maxWhiteNumber, maxYellowNumber, maxWhiteNumberCount, maxYellowNumberCount, \n\t\t\tawardIntervalNumber, etherPerTicket, awardRulesArray);\n\t\tclpFactory.setPool(newed, chainLotTicket, clToken, ChainLotInterface(this), drawingToolAddress);\n\t\tlatestPoolBlockNumber = newed.poolBlockNumber();\n\t\tif(address(newed) != 0) {\n\t\t\tchainlotPools.push(newed);\n\t\t\tchainlotPoolsMap[address(newed)] = true;\n\n\t\t\tif(address(currentPool)==0) {\n\t\t\t\tcurrentPool = newed;\n\t\t\t\tcurrentPoolIndex = chainlotPools.length - 1;\n\t\t\t\tSwitchPool(currentPool.poolBlockNumber(), address(currentPool), currentPoolIndex);\n\t\t\t}\n\n\t\t}\n\t}\n\n\tfunction checkAndSwitchPool() internal {\n\t\trequire(address(currentPool) != 0);\n\n\t\t//find the right pool\n\t\twhile(currentPool.poolBlockNumber() <= block.number) {\n\t\t\trequire(currentPoolIndex + 1 < chainlotPools.length); // need more pool\n\t\t\tcurrentPoolIndex ++;\n\t\t\tcurrentPool = chainlotPools[currentPoolIndex];\n\t\t\tSwitchPool(currentPool.poolBlockNumber(), address(currentPool), currentPoolIndex);\n\t\t}\n\t}\n\n\t//numbers: uint8[6] \n\t//\t\t\t1-5: <=maxWhiteNumber\n\t//\t\t\t6: <=maxYellowNumber\n\tfunction buyTicket(bytes numbers, address referer) payable public {\n\t\tcheckAndSwitchPool();\n\t\tcurrentPool.buyTicket.value(msg.value)(numbers, referer);\n\t\ttokenSum += msg.value;\n\t}\n\n\t//random numbers\n\t//random seed: number-1 block hash x user address\n\tfunction buyRandom(uint8 numberCount, address referer) payable public{\n\t\tcheckAndSwitchPool();\n\t    currentPool.buyRandom.value(msg.value)(numberCount, referer);\n\t    tokenSum += msg.value;\n\t}\n\n\tmodifier onlyPool {\n        require(chainlotPoolsMap[msg.sender]);\n        _;\n  \t}\n\n\tfunction mint(address _owner, \n\t    bytes _numbers,\n\t    uint _count) \n\t    external onlyPool returns (uint) {\n\t    return chainLotTicket.mint(_owner, _numbers, _count);\n  \t}\n\n\tfunction receiveApproval(address _from, uint _value, address _token, bytes _extraData) public {\n\t\tcheckAndSwitchPool();\n\t\tclToken.transfer(currentPool, _value);\n\t    currentPool.receiveApproval(_from, _value, _token, _extraData);\n\t    tokenSum += _value;\n\t}\n\n  function setChainLotTicketAddress(address ticketAddress) onlyOwner external {\n    chainLotTicket = ChainLotTicketInterface(ticketAddress);\n  }\n\n  function setCLTokenAddress(address tokenAddress) onlyOwner external {\n    clToken = CLTokenInterface(tokenAddress);\n  }\n\n  function setChainLotPoolFactoryAddress(address factoryAddress) onlyOwner external {\n  \tclpFactory = ChainLotPoolFactoryInterface(factoryAddress);\n  }\n\n  function setDrawingToolAddress(address _drawingToolAddress) onlyOwner external{\n  \tdrawingToolAddress = _drawingToolAddress;\n  }\n\n  function withDrawDevCut(uint value) onlyOwner external {\n  \tclToken.transfer(owner, value);\n  }\n\n  //withdraw history cut from pools\n  function withDrawHistoryCut(uint poolStart, uint poolEnd, uint[] ticketIds) external {\n  \trequire(poolEnd > poolStart);\n  \trequire(poolEnd <= chainlotPools.length);\n\n  \tfor(uint i = poolStart; i < poolEnd; i++) {\n  \t\tchainlotPools[i].withdrawHistoryCut(ticketIds);\n  \t}\n  }\n\n\n  function listUserHistoryCut(address user, uint poolStart, uint poolEnd, uint[] ticketIds) external view returns(uint[65536] poolCuts) {\n  \trequire(poolEnd > poolStart);\n  \trequire(poolEnd <= chainlotPools.length);\n\n  \t//uint[] memory poolCuts = new uint[](poolEnd - poolStart);\n\tfor(uint i = poolStart; i < poolEnd; i++) {\n  \t\tpoolCuts[i-poolStart] = chainlotPools[i].listUserHistoryCut(user, ticketIds);\n  \t}\n  \t//return poolCuts;\n  }\n\n  function retrievePoolInfo() external view returns (uint poolTokens, uint poolBlockNumber, uint totalPoolTokens, uint poolCount)  {\n  \tpoolTokens = clToken.balanceOf(currentPool);\n  \tpoolBlockNumber = currentPool.poolBlockNumber();\n  \ttotalPoolTokens = tokenSum;\n  \tpoolCount = chainlotPools.length;\n  }\n\n}\n",
  "sourcePath": "/Users/phx/eth/chainlot/contracts/ChainLot.sol",
  "compiler": {
    "name": "solc",
    "version": "0.4.19+commit.c4cbbb05.Emscripten.clang"
  },
  "schemaVersion": "2.0.0",
  "updatedAt": "2018-06-25T12:47:51.524Z"
}