{
  "contractName": "ChainLotPublic",
  "abi": [
    {
      "constant": true,
      "inputs": [],
      "name": "clToken",
      "outputs": [
        {
          "name": "",
          "type": "address"
        }
      ],
      "payable": false,
      "stateMutability": "view",
      "type": "function"
    },
    {
      "constant": true,
      "inputs": [],
      "name": "chainlot",
      "outputs": [
        {
          "name": "",
          "type": "address"
        }
      ],
      "payable": false,
      "stateMutability": "view",
      "type": "function"
    },
    {
      "constant": true,
      "inputs": [],
      "name": "owner",
      "outputs": [
        {
          "name": "",
          "type": "address"
        }
      ],
      "payable": false,
      "stateMutability": "view",
      "type": "function"
    },
    {
      "constant": false,
      "inputs": [
        {
          "name": "newOwner",
          "type": "address"
        }
      ],
      "name": "transferOwnership",
      "outputs": [],
      "payable": false,
      "stateMutability": "nonpayable",
      "type": "function"
    },
    {
      "payable": true,
      "stateMutability": "payable",
      "type": "fallback"
    },
    {
      "anonymous": false,
      "inputs": [
        {
          "indexed": false,
          "name": "poolBlockNumber",
          "type": "uint256"
        },
        {
          "indexed": false,
          "name": "numbers",
          "type": "bytes"
        },
        {
          "indexed": false,
          "name": "ticketCount",
          "type": "uint256"
        },
        {
          "indexed": false,
          "name": "ticketId",
          "type": "uint256"
        },
        {
          "indexed": false,
          "name": "user",
          "type": "address"
        },
        {
          "indexed": false,
          "name": "blockNumber",
          "type": "uint256"
        },
        {
          "indexed": false,
          "name": "totalTicketCountSum",
          "type": "uint256"
        },
        {
          "indexed": false,
          "name": "value",
          "type": "uint256"
        }
      ],
      "name": "BuyTicket",
      "type": "event"
    },
    {
      "anonymous": false,
      "inputs": [
        {
          "indexed": false,
          "name": "user",
          "type": "address"
        },
        {
          "indexed": false,
          "name": "value",
          "type": "uint256"
        }
      ],
      "name": "TransferHistoryCut",
      "type": "event"
    },
    {
      "constant": false,
      "inputs": [
        {
          "name": "numbers",
          "type": "bytes"
        },
        {
          "name": "referer",
          "type": "address"
        }
      ],
      "name": "buyTicket",
      "outputs": [],
      "payable": true,
      "stateMutability": "payable",
      "type": "function"
    },
    {
      "constant": false,
      "inputs": [
        {
          "name": "numberCount",
          "type": "uint8"
        },
        {
          "name": "referer",
          "type": "address"
        }
      ],
      "name": "buyRandom",
      "outputs": [],
      "payable": true,
      "stateMutability": "payable",
      "type": "function"
    },
    {
      "constant": false,
      "inputs": [
        {
          "name": "chainlotAddress",
          "type": "address"
        }
      ],
      "name": "setChainLotAddress",
      "outputs": [],
      "payable": false,
      "stateMutability": "nonpayable",
      "type": "function"
    },
    {
      "constant": false,
      "inputs": [
        {
          "name": "cltokenAddress",
          "type": "address"
        }
      ],
      "name": "setCLTokenAddress",
      "outputs": [],
      "payable": false,
      "stateMutability": "nonpayable",
      "type": "function"
    },
    {
      "constant": false,
      "inputs": [
        {
          "name": "_from",
          "type": "address"
        },
        {
          "name": "_value",
          "type": "uint256"
        },
        {
          "name": "_token",
          "type": "address"
        },
        {
          "name": "_extraData",
          "type": "bytes"
        }
      ],
      "name": "receiveApproval",
      "outputs": [],
      "payable": false,
      "stateMutability": "nonpayable",
      "type": "function"
    },
    {
      "constant": true,
      "inputs": [],
      "name": "retrievePoolInfo",
      "outputs": [
        {
          "name": "poolTokens",
          "type": "uint256"
        },
        {
          "name": "poolBlockNumber",
          "type": "uint256"
        },
        {
          "name": "totalPoolTokens",
          "type": "uint256"
        },
        {
          "name": "poolCount",
          "type": "uint256"
        }
      ],
      "payable": false,
      "stateMutability": "view",
      "type": "function"
    },
    {
      "constant": true,
      "inputs": [
        {
          "name": "poolStart",
          "type": "uint256"
        },
        {
          "name": "poolEnd",
          "type": "uint256"
        }
      ],
      "name": "getWinnerList",
      "outputs": [
        {
          "name": "winners",
          "type": "address[512]"
        },
        {
          "name": "values",
          "type": "uint256[512]"
        },
        {
          "name": "blocks",
          "type": "uint256[512]"
        }
      ],
      "payable": false,
      "stateMutability": "view",
      "type": "function"
    },
    {
      "constant": false,
      "inputs": [
        {
          "name": "poolStart",
          "type": "uint256"
        },
        {
          "name": "poolEnd",
          "type": "uint256"
        },
        {
          "name": "ticketIds",
          "type": "uint256[]"
        }
      ],
      "name": "withDrawHistoryCut",
      "outputs": [],
      "payable": false,
      "stateMutability": "nonpayable",
      "type": "function"
    },
    {
      "constant": true,
      "inputs": [
        {
          "name": "user",
          "type": "address"
        },
        {
          "name": "poolStart",
          "type": "uint256"
        },
        {
          "name": "poolEnd",
          "type": "uint256"
        },
        {
          "name": "ticketIds",
          "type": "uint256[]"
        }
      ],
      "name": "listUserHistoryCut",
      "outputs": [
        {
          "name": "_poolCuts",
          "type": "uint256[]"
        }
      ],
      "payable": false,
      "stateMutability": "view",
      "type": "function"
    }
  ],
  "bytecode": "0x6060604052336000806101000a81548173ffffffffffffffffffffffffffffffffffffffff021916908373ffffffffffffffffffffffffffffffffffffffff1602179055506112ca806100536000396000f3006060604052600436106100c5576000357c0100000000000000000000000000000000000000000000000000000000900463ffffffff1680630800e5f1146100d35780631106245c14610128578063363da6071461017d5780633f12fdaa14610231578063413e1a971461026a5780636ea6c8b2146102a45780638da5cb5b146103155780638f4ffcb11461036a5780639e851d7f1461040e578063a05863b6146104d7578063cded58e914610515578063ee05a5d51461054e578063f2fde38b1461058e575b6100d1600160006105c7565b005b34156100de57600080fd5b6100e66106aa565b604051808273ffffffffffffffffffffffffffffffffffffffff1673ffffffffffffffffffffffffffffffffffffffff16815260200191505060405180910390f35b341561013357600080fd5b61013b6106d0565b604051808273ffffffffffffffffffffffffffffffffffffffff1673ffffffffffffffffffffffffffffffffffffffff16815260200191505060405180910390f35b341561018857600080fd5b6101da600480803573ffffffffffffffffffffffffffffffffffffffff1690602001909190803590602001909190803590602001909190803590602001908201803590602001919091929050506106f6565b6040518080602001828103825283818151815260200191508051906020019060200280838360005b8381101561021d578082015181840152602081019050610202565b505050509050019250505060405180910390f35b341561023c57600080fd5b610268600480803573ffffffffffffffffffffffffffffffffffffffff169060200190919050506108ab565b005b6102a2600480803560ff1690602001909190803573ffffffffffffffffffffffffffffffffffffffff169060200190919050506105c7565b005b610313600480803590602001908201803590602001908080601f0160208091040260200160405190810160405280939291908181526020018383808284378201915050505050509190803573ffffffffffffffffffffffffffffffffffffffff1690602001909190505061094a565b005b341561032057600080fd5b610328610a8c565b604051808273ffffffffffffffffffffffffffffffffffffffff1673ffffffffffffffffffffffffffffffffffffffff16815260200191505060405180910390f35b341561037557600080fd5b61040c600480803573ffffffffffffffffffffffffffffffffffffffff1690602001909190803590602001909190803573ffffffffffffffffffffffffffffffffffffffff1690602001909190803590602001908201803590602001908080601f01602080910402602001604051908101604052809392919081815260200183838082843782019150505050505091905050610ab1565b005b341561041957600080fd5b6104386004808035906020019091908035906020019091905050610e4c565b604051808461020060200280838360005b83811015610464578082015181840152602081019050610449565b505050509050018361020060200280838360005b83811015610493578082015181840152602081019050610478565b505050509050018261020060200280838360005b838110156104c25780820151818401526020810190506104a7565b50505050905001935050505060405180910390f35b34156104e257600080fd5b6104ea610f3d565b6040518085815260200184815260200183815260200182815260200194505050505060405180910390f35b341561052057600080fd5b61054c600480803573ffffffffffffffffffffffffffffffffffffffff1690602001909190505061100c565b005b341561055957600080fd5b61058c600480803590602001909190803590602001909190803590602001908201803590602001919091929050506110ab565b005b341561059957600080fd5b6105c5600480803573ffffffffffffffffffffffffffffffffffffffff16906020019091905050611182565b005b600160009054906101000a900473ffffffffffffffffffffffffffffffffffffffff1673ffffffffffffffffffffffffffffffffffffffff1663413e1a973484846040518463ffffffff167c0100000000000000000000000000000000000000000000000000000000028152600401808360ff1660ff1681526020018273ffffffffffffffffffffffffffffffffffffffff1673ffffffffffffffffffffffffffffffffffffffff168152602001925050506000604051808303818588803b151561069157600080fd5b6125ee5a03f115156106a257600080fd5b505050505050565b600260009054906101000a900473ffffffffffffffffffffffffffffffffffffffff1681565b600160009054906101000a900473ffffffffffffffffffffffffffffffffffffffff1681565b6106fe611220565b610706611234565b61070e611220565b6000600160009054906101000a900473ffffffffffffffffffffffffffffffffffffffff1673ffffffffffffffffffffffffffffffffffffffff1663363da6078a8a8a8a8a600060405161400001526040518663ffffffff167c0100000000000000000000000000000000000000000000000000000000028152600401808673ffffffffffffffffffffffffffffffffffffffff1673ffffffffffffffffffffffffffffffffffffffff1681526020018581526020018481526020018060200182810382528484828181526020019250602002808284378201915050965050505050505061400060405180830381600087803b151561080c57600080fd5b6102c65a03f1151561081d57600080fd5b5050506040518061400001604052925087870360405180591061083d5750595b90808252806020026020018201604052509150600090505b87870381101561089c5782816102008110151561086e57fe5b6020020151828281518110151561088157fe5b90602001906020020181815250508080600101915050610855565b81935050505095945050505050565b6000809054906101000a900473ffffffffffffffffffffffffffffffffffffffff1673ffffffffffffffffffffffffffffffffffffffff163373ffffffffffffffffffffffffffffffffffffffff1614151561090657600080fd5b80600260006101000a81548173ffffffffffffffffffffffffffffffffffffffff021916908373ffffffffffffffffffffffffffffffffffffffff16021790555050565b600160009054906101000a900473ffffffffffffffffffffffffffffffffffffffff1673ffffffffffffffffffffffffffffffffffffffff16636ea6c8b23484846040518463ffffffff167c010000000000000000000000000000000000000000000000000000000002815260040180806020018373ffffffffffffffffffffffffffffffffffffffff1673ffffffffffffffffffffffffffffffffffffffff168152602001828103825284818151815260200191508051906020019080838360005b83811015610a28578082015181840152602081019050610a0d565b50505050905090810190601f168015610a555780820380516001836020036101000a031916815260200191505b5093505050506000604051808303818588803b1515610a7357600080fd5b6125ee5a03f11515610a8457600080fd5b505050505050565b6000809054906101000a900473ffffffffffffffffffffffffffffffffffffffff1681565b600260009054906101000a900473ffffffffffffffffffffffffffffffffffffffff1673ffffffffffffffffffffffffffffffffffffffff166323b872dd8530866000604051602001526040518463ffffffff167c0100000000000000000000000000000000000000000000000000000000028152600401808473ffffffffffffffffffffffffffffffffffffffff1673ffffffffffffffffffffffffffffffffffffffff1681526020018373ffffffffffffffffffffffffffffffffffffffff1673ffffffffffffffffffffffffffffffffffffffff1681526020018281526020019350505050602060405180830381600087803b1515610bb257600080fd5b6102c65a03f11515610bc357600080fd5b5050506040518051905015610e4657600260009054906101000a900473ffffffffffffffffffffffffffffffffffffffff1673ffffffffffffffffffffffffffffffffffffffff1663a9059cbb600160009054906101000a900473ffffffffffffffffffffffffffffffffffffffff16856040518363ffffffff167c0100000000000000000000000000000000000000000000000000000000028152600401808373ffffffffffffffffffffffffffffffffffffffff1673ffffffffffffffffffffffffffffffffffffffff16815260200182815260200192505050600060405180830381600087803b1515610cb857600080fd5b6102c65a03f11515610cc957600080fd5b505050600160009054906101000a900473ffffffffffffffffffffffffffffffffffffffff1673ffffffffffffffffffffffffffffffffffffffff16638f4ffcb1858585856040518563ffffffff167c0100000000000000000000000000000000000000000000000000000000028152600401808573ffffffffffffffffffffffffffffffffffffffff1673ffffffffffffffffffffffffffffffffffffffff1681526020018481526020018373ffffffffffffffffffffffffffffffffffffffff1673ffffffffffffffffffffffffffffffffffffffff16815260200180602001828103825283818151815260200191508051906020019080838360005b83811015610de3578082015181840152602081019050610dc8565b50505050905090810190601f168015610e105780820380516001836020036101000a031916815260200191505b5095505050505050600060405180830381600087803b1515610e3157600080fd5b6102c65a03f11515610e4257600080fd5b5050505b50505050565b610e5461125e565b610e5c611234565b610e64611234565b600160009054906101000a900473ffffffffffffffffffffffffffffffffffffffff1673ffffffffffffffffffffffffffffffffffffffff16639e851d7f8686600060405161c00001526040518363ffffffff167c0100000000000000000000000000000000000000000000000000000000028152600401808381526020018281526020019250505061c00060405180830381600087803b1515610f0757600080fd5b6102c65a03f11515610f1857600080fd5b5050506040518061400001806140000180614000016040529250925092509250925092565b600080600080600160009054906101000a900473ffffffffffffffffffffffffffffffffffffffff1673ffffffffffffffffffffffffffffffffffffffff1663a05863b66000604051608001526040518163ffffffff167c0100000000000000000000000000000000000000000000000000000000028152600401608060405180830381600087803b1515610fd157600080fd5b6102c65a03f11515610fe257600080fd5b50505060405180519060200180519060200180519060200180519050935093509350935090919293565b6000809054906101000a900473ffffffffffffffffffffffffffffffffffffffff1673ffffffffffffffffffffffffffffffffffffffff163373ffffffffffffffffffffffffffffffffffffffff1614151561106757600080fd5b80600160006101000a81548173ffffffffffffffffffffffffffffffffffffffff021916908373ffffffffffffffffffffffffffffffffffffffff16021790555050565b600160009054906101000a900473ffffffffffffffffffffffffffffffffffffffff1673ffffffffffffffffffffffffffffffffffffffff1663ee05a5d5858585856040518563ffffffff167c010000000000000000000000000000000000000000000000000000000002815260040180858152602001848152602001806020018281038252848482818152602001925060200280828437820191505095505050505050600060405180830381600087803b151561116857600080fd5b6102c65a03f1151561117957600080fd5b50505050505050565b6000809054906101000a900473ffffffffffffffffffffffffffffffffffffffff1673ffffffffffffffffffffffffffffffffffffffff163373ffffffffffffffffffffffffffffffffffffffff161415156111dd57600080fd5b806000806101000a81548173ffffffffffffffffffffffffffffffffffffffff021916908373ffffffffffffffffffffffffffffffffffffffff16021790555050565b602060405190810160405280600081525090565b61400060405190810160405280610200905b60008152602001906001900390816112465790505090565b61400060405190810160405280610200905b600073ffffffffffffffffffffffffffffffffffffffff1681526020019060019003908161127057905050905600a165627a7a7230582011be7b69d3fa4d04a3fdea0240775155b19db0be90a69de88858b273e6627bd90029",
  "source": "pragma solidity ^0.4.18;\nimport \"./Interface.sol\";\nimport \"./owned.sol\";\n\ncontract ChainLotPublic is owned {\n\tChainLotInterface public chainlot;\n\tCLTokenInterface public clToken;\n\tevent BuyTicket(uint poolBlockNumber, bytes numbers, uint ticketCount, uint ticketId, address user, uint blockNumber, uint totalTicketCountSum, uint value);\n\tevent TransferHistoryCut(address user, uint value);\n\n\tfunction buyTicket(bytes numbers, address referer) payable public {\n\t\tchainlot.buyTicket.value(msg.value)(numbers, referer);\n\t}\n\t\n\tfunction buyRandom(uint8 numberCount, address referer) payable public {\n\t\tchainlot.buyRandom.value(msg.value)(numberCount, referer);\n\t}\n\n\tfunction setChainLotAddress(address chainlotAddress) onlyOwner external {\n\t\tchainlot = ChainLotInterface(chainlotAddress);\n\t}\n\n\tfunction setCLTokenAddress(address cltokenAddress) onlyOwner external {\n\t\tclToken = CLTokenInterface(cltokenAddress);\n\t}\n\n\tfunction receiveApproval(address _from, uint _value, address _token, bytes _extraData) public {\n\t\tif(clToken.transferFrom(_from, this, _value)) {\n\t\t\tclToken.transfer(chainlot, _value);\n\t\t\tchainlot.receiveApproval(_from, _value, _token, _extraData);\n\t\t}\n\t}\n\n\tfunction () payable public {\n\t\tbuyRandom(1, 0);\n\t}\n\n\tfunction retrievePoolInfo() external view returns (uint poolTokens, uint poolBlockNumber, uint totalPoolTokens, uint poolCount) {\n\t\treturn chainlot.retrievePoolInfo();\n\t}\n\n\tfunction getWinnerList(uint poolStart, uint poolEnd) external view returns (address[512] winners, uint[512] values, uint[512] blocks) {\n\t\treturn chainlot.getWinnerList(poolStart, poolEnd);\n\t}\n\n\t//withdraw history cut from pools\n  \tfunction withDrawHistoryCut(uint poolStart, uint poolEnd, uint[] ticketIds) external {\n  \t\tchainlot.withDrawHistoryCut(poolStart, poolEnd, ticketIds);\n  \t}\n\n\n\tfunction listUserHistoryCut(address user, uint poolStart, uint poolEnd, uint[] ticketIds) external view returns(uint[] _poolCuts) {\n\t\t//return chainlot.listUserHistoryCut(user, poolStart, poolEnd, ticketIds);\n\t  \t\n\t  \tuint[512] memory pcresult = chainlot.listUserHistoryCut(user, poolStart, poolEnd, ticketIds);\n\t  \tuint[] memory poolCuts = new uint[](poolEnd - poolStart);\n\t  \tfor(uint i = 0; i < poolEnd - poolStart; i++) {\n\t  \t\tpoolCuts[i] = pcresult[i];\n\t  \t}\n\t  \treturn poolCuts;\n\t}\n\n}",
  "sourcePath": "/Users/phx/eth/chainlot/contracts/ChainLotPublic.sol",
  "compiler": {
    "name": "solc",
    "version": "0.4.19+commit.c4cbbb05.Emscripten.clang"
  },
  "schemaVersion": "2.0.0",
  "updatedAt": "2018-06-26T10:08:43.134Z"
}