{
  "contractName": "ChainLotPool",
  "abi": [
    {
      "constant": true,
      "inputs": [],
      "name": "clToken",
      "outputs": [
        {
          "name": "",
          "type": "address"
        }
      ],
      "payable": false,
      "stateMutability": "view",
      "type": "function"
    },
    {
      "constant": true,
      "inputs": [],
      "name": "awardIndex",
      "outputs": [
        {
          "name": "",
          "type": "uint256"
        }
      ],
      "payable": false,
      "stateMutability": "view",
      "type": "function"
    },
    {
      "constant": true,
      "inputs": [],
      "name": "totalNumberCount",
      "outputs": [
        {
          "name": "",
          "type": "uint8"
        }
      ],
      "payable": false,
      "stateMutability": "view",
      "type": "function"
    },
    {
      "constant": true,
      "inputs": [],
      "name": "maxYellowNumberCount",
      "outputs": [
        {
          "name": "",
          "type": "uint8"
        }
      ],
      "payable": false,
      "stateMutability": "view",
      "type": "function"
    },
    {
      "constant": true,
      "inputs": [],
      "name": "chainLot",
      "outputs": [
        {
          "name": "",
          "type": "address"
        }
      ],
      "payable": false,
      "stateMutability": "view",
      "type": "function"
    },
    {
      "constant": true,
      "inputs": [
        {
          "name": "",
          "type": "uint256"
        }
      ],
      "name": "awardRules",
      "outputs": [
        {
          "name": "whiteNumberCount",
          "type": "uint256"
        },
        {
          "name": "yellowNumberCount",
          "type": "uint256"
        },
        {
          "name": "awardEther",
          "type": "uint256"
        }
      ],
      "payable": false,
      "stateMutability": "view",
      "type": "function"
    },
    {
      "constant": true,
      "inputs": [
        {
          "name": "",
          "type": "uint256"
        }
      ],
      "name": "allTicketsId",
      "outputs": [
        {
          "name": "",
          "type": "uint256"
        }
      ],
      "payable": false,
      "stateMutability": "view",
      "type": "function"
    },
    {
      "constant": true,
      "inputs": [],
      "name": "maxYellowNumber",
      "outputs": [
        {
          "name": "",
          "type": "uint8"
        }
      ],
      "payable": false,
      "stateMutability": "view",
      "type": "function"
    },
    {
      "constant": true,
      "inputs": [],
      "name": "allTicketsCount",
      "outputs": [
        {
          "name": "",
          "type": "uint256"
        }
      ],
      "payable": false,
      "stateMutability": "view",
      "type": "function"
    },
    {
      "constant": true,
      "inputs": [],
      "name": "maxWhiteNumber",
      "outputs": [
        {
          "name": "",
          "type": "uint8"
        }
      ],
      "payable": false,
      "stateMutability": "view",
      "type": "function"
    },
    {
      "constant": true,
      "inputs": [],
      "name": "totalTicketCountSum",
      "outputs": [
        {
          "name": "",
          "type": "uint256"
        }
      ],
      "payable": false,
      "stateMutability": "view",
      "type": "function"
    },
    {
      "constant": true,
      "inputs": [],
      "name": "toBeAwardIndex",
      "outputs": [
        {
          "name": "",
          "type": "uint256"
        }
      ],
      "payable": false,
      "stateMutability": "view",
      "type": "function"
    },
    {
      "constant": true,
      "inputs": [
        {
          "name": "",
          "type": "uint256"
        }
      ],
      "name": "toBeAward",
      "outputs": [
        {
          "name": "user",
          "type": "address"
        },
        {
          "name": "value",
          "type": "uint256"
        }
      ],
      "payable": false,
      "stateMutability": "view",
      "type": "function"
    },
    {
      "constant": true,
      "inputs": [],
      "name": "tokenSum",
      "outputs": [
        {
          "name": "",
          "type": "uint256"
        }
      ],
      "payable": false,
      "stateMutability": "view",
      "type": "function"
    },
    {
      "constant": true,
      "inputs": [],
      "name": "owner",
      "outputs": [
        {
          "name": "",
          "type": "address"
        }
      ],
      "payable": false,
      "stateMutability": "view",
      "type": "function"
    },
    {
      "constant": true,
      "inputs": [],
      "name": "maxWhiteNumberCount",
      "outputs": [
        {
          "name": "",
          "type": "uint8"
        }
      ],
      "payable": false,
      "stateMutability": "view",
      "type": "function"
    },
    {
      "constant": true,
      "inputs": [],
      "name": "poolBlockNumber",
      "outputs": [
        {
          "name": "",
          "type": "uint256"
        }
      ],
      "payable": false,
      "stateMutability": "view",
      "type": "function"
    },
    {
      "constant": true,
      "inputs": [
        {
          "name": "",
          "type": "uint256"
        }
      ],
      "name": "awardRulesIndex",
      "outputs": [
        {
          "name": "",
          "type": "uint256"
        }
      ],
      "payable": false,
      "stateMutability": "view",
      "type": "function"
    },
    {
      "constant": true,
      "inputs": [],
      "name": "etherPerTicket",
      "outputs": [
        {
          "name": "",
          "type": "uint256"
        }
      ],
      "payable": false,
      "stateMutability": "view",
      "type": "function"
    },
    {
      "constant": true,
      "inputs": [],
      "name": "stage",
      "outputs": [
        {
          "name": "",
          "type": "uint8"
        }
      ],
      "payable": false,
      "stateMutability": "view",
      "type": "function"
    },
    {
      "constant": true,
      "inputs": [],
      "name": "historyCut",
      "outputs": [
        {
          "name": "",
          "type": "uint256"
        }
      ],
      "payable": false,
      "stateMutability": "view",
      "type": "function"
    },
    {
      "constant": true,
      "inputs": [
        {
          "name": "",
          "type": "uint256"
        }
      ],
      "name": "winnerTickets",
      "outputs": [
        {
          "name": "processedIndex",
          "type": "uint256"
        },
        {
          "name": "distributedIndex",
          "type": "uint256"
        }
      ],
      "payable": false,
      "stateMutability": "view",
      "type": "function"
    },
    {
      "constant": true,
      "inputs": [],
      "name": "chainLotTicket",
      "outputs": [
        {
          "name": "",
          "type": "address"
        }
      ],
      "payable": false,
      "stateMutability": "view",
      "type": "function"
    },
    {
      "constant": true,
      "inputs": [],
      "name": "lastMatchedTicketIndex",
      "outputs": [
        {
          "name": "",
          "type": "uint256"
        }
      ],
      "payable": false,
      "stateMutability": "view",
      "type": "function"
    },
    {
      "constant": true,
      "inputs": [],
      "name": "jackpotNumbers",
      "outputs": [
        {
          "name": "",
          "type": "bytes"
        }
      ],
      "payable": false,
      "stateMutability": "view",
      "type": "function"
    },
    {
      "constant": true,
      "inputs": [],
      "name": "drawingToolAddress",
      "outputs": [
        {
          "name": "",
          "type": "address"
        }
      ],
      "payable": false,
      "stateMutability": "view",
      "type": "function"
    },
    {
      "constant": false,
      "inputs": [
        {
          "name": "newOwner",
          "type": "address"
        }
      ],
      "name": "transferOwnership",
      "outputs": [],
      "payable": false,
      "stateMutability": "nonpayable",
      "type": "function"
    },
    {
      "constant": true,
      "inputs": [
        {
          "name": "",
          "type": "uint256"
        }
      ],
      "name": "withdrawed",
      "outputs": [
        {
          "name": "",
          "type": "bool"
        }
      ],
      "payable": false,
      "stateMutability": "view",
      "type": "function"
    },
    {
      "constant": true,
      "inputs": [
        {
          "name": "",
          "type": "uint256"
        }
      ],
      "name": "distributeTickets",
      "outputs": [
        {
          "name": "processedIndex",
          "type": "uint256"
        },
        {
          "name": "distributedIndex",
          "type": "uint256"
        }
      ],
      "payable": false,
      "stateMutability": "view",
      "type": "function"
    },
    {
      "inputs": [
        {
          "name": "_poolBlockNumber",
          "type": "uint256"
        },
        {
          "name": "_maxWhiteNumber",
          "type": "uint8"
        },
        {
          "name": "_maxYellowNumber",
          "type": "uint8"
        },
        {
          "name": "_whiteNumberCount",
          "type": "uint8"
        },
        {
          "name": "_yellowNumberCount",
          "type": "uint8"
        },
        {
          "name": "_etherPerTicket",
          "type": "uint256"
        },
        {
          "name": "awardRulesArray",
          "type": "uint256[]"
        }
      ],
      "payable": false,
      "stateMutability": "nonpayable",
      "type": "constructor"
    },
    {
      "anonymous": false,
      "inputs": [
        {
          "indexed": false,
          "name": "poolBlockNumber",
          "type": "uint256"
        },
        {
          "indexed": false,
          "name": "numbers",
          "type": "bytes"
        },
        {
          "indexed": false,
          "name": "ticketCount",
          "type": "uint256"
        },
        {
          "indexed": false,
          "name": "ticketId",
          "type": "uint256"
        },
        {
          "indexed": false,
          "name": "user",
          "type": "address"
        },
        {
          "indexed": false,
          "name": "blockNumber",
          "type": "uint256"
        },
        {
          "indexed": false,
          "name": "totalTicketCountSum",
          "type": "uint256"
        },
        {
          "indexed": false,
          "name": "value",
          "type": "uint256"
        }
      ],
      "name": "BuyTicket",
      "type": "event"
    },
    {
      "anonymous": false,
      "inputs": [
        {
          "indexed": false,
          "name": "jackpotNumbers",
          "type": "bytes"
        },
        {
          "indexed": false,
          "name": "poolBlockNumber",
          "type": "uint256"
        },
        {
          "indexed": false,
          "name": "allTicketsCount",
          "type": "uint256"
        }
      ],
      "name": "PrepareAward",
      "type": "event"
    },
    {
      "anonymous": false,
      "inputs": [
        {
          "indexed": false,
          "name": "jackpotNumbers",
          "type": "bytes"
        },
        {
          "indexed": false,
          "name": "ticketNumber",
          "type": "bytes32"
        },
        {
          "indexed": false,
          "name": "ticketCount",
          "type": "uint256"
        },
        {
          "indexed": false,
          "name": "ticketId",
          "type": "uint256"
        },
        {
          "indexed": false,
          "name": "user",
          "type": "address"
        },
        {
          "indexed": false,
          "name": "blockNumber",
          "type": "uint256"
        },
        {
          "indexed": false,
          "name": "awardValue",
          "type": "uint256"
        }
      ],
      "name": "ToBeAward",
      "type": "event"
    },
    {
      "anonymous": false,
      "inputs": [
        {
          "indexed": false,
          "name": "jackpotNumbers",
          "type": "bytes"
        },
        {
          "indexed": false,
          "name": "lastMatchedTicketIndex",
          "type": "uint256"
        },
        {
          "indexed": false,
          "name": "endIndex",
          "type": "uint256"
        },
        {
          "indexed": false,
          "name": "allTicketsCount",
          "type": "uint256"
        }
      ],
      "name": "MatchAwards",
      "type": "event"
    },
    {
      "anonymous": false,
      "inputs": [
        {
          "indexed": false,
          "name": "jackpotNumbers",
          "type": "bytes"
        },
        {
          "indexed": false,
          "name": "ticketNumber",
          "type": "bytes32"
        },
        {
          "indexed": false,
          "name": "ticketCount",
          "type": "uint256"
        },
        {
          "indexed": false,
          "name": "ticketId",
          "type": "uint256"
        },
        {
          "indexed": false,
          "name": "blockNumber",
          "type": "uint256"
        },
        {
          "indexed": false,
          "name": "ruleId",
          "type": "uint256"
        },
        {
          "indexed": false,
          "name": "ruleEther",
          "type": "uint256"
        }
      ],
      "name": "MatchRule",
      "type": "event"
    },
    {
      "anonymous": false,
      "inputs": [
        {
          "indexed": false,
          "name": "ruleId",
          "type": "uint256"
        },
        {
          "indexed": false,
          "name": "toDistCount",
          "type": "uint256"
        },
        {
          "indexed": false,
          "name": "distributedIndex",
          "type": "uint256"
        },
        {
          "indexed": false,
          "name": "ticketIdsLength",
          "type": "uint256"
        },
        {
          "indexed": false,
          "name": "awardRulesLength",
          "type": "uint256"
        }
      ],
      "name": "DistributeAwards",
      "type": "event"
    },
    {
      "anonymous": false,
      "inputs": [
        {
          "indexed": false,
          "name": "winner",
          "type": "address"
        },
        {
          "indexed": false,
          "name": "value",
          "type": "uint256"
        }
      ],
      "name": "TransferAward",
      "type": "event"
    },
    {
      "anonymous": false,
      "inputs": [
        {
          "indexed": false,
          "name": "dev",
          "type": "address"
        },
        {
          "indexed": false,
          "name": "value",
          "type": "uint256"
        }
      ],
      "name": "TransferDevCut",
      "type": "event"
    },
    {
      "anonymous": false,
      "inputs": [
        {
          "indexed": false,
          "name": "user",
          "type": "address"
        },
        {
          "indexed": false,
          "name": "value",
          "type": "uint256"
        }
      ],
      "name": "TransferHistoryCut",
      "type": "event"
    },
    {
      "anonymous": false,
      "inputs": [
        {
          "indexed": false,
          "name": "added",
          "type": "uint256"
        },
        {
          "indexed": false,
          "name": "total",
          "type": "uint256"
        }
      ],
      "name": "AddHistoryCut",
      "type": "event"
    },
    {
      "anonymous": false,
      "inputs": [
        {
          "indexed": false,
          "name": "ruleId",
          "type": "uint8"
        },
        {
          "indexed": false,
          "name": "winnersTicketCount",
          "type": "uint256"
        },
        {
          "indexed": false,
          "name": "awardEther",
          "type": "uint256"
        },
        {
          "indexed": false,
          "name": "totalWinnersAward",
          "type": "uint256"
        },
        {
          "indexed": false,
          "name": "totalTicketCount",
          "type": "uint256"
        }
      ],
      "name": "CalculateAwards",
      "type": "event"
    },
    {
      "anonymous": false,
      "inputs": [
        {
          "indexed": false,
          "name": "ruleId",
          "type": "uint8"
        },
        {
          "indexed": false,
          "name": "totalWinnersAward",
          "type": "uint256"
        },
        {
          "indexed": false,
          "name": "leftBalance",
          "type": "uint256"
        }
      ],
      "name": "SplitAward",
      "type": "event"
    },
    {
      "anonymous": false,
      "inputs": [
        {
          "indexed": false,
          "name": "from",
          "type": "address"
        },
        {
          "indexed": false,
          "name": "to",
          "type": "address"
        },
        {
          "indexed": false,
          "name": "value",
          "type": "uint256"
        }
      ],
      "name": "TransferUnawarded",
      "type": "event"
    },
    {
      "anonymous": false,
      "inputs": [
        {
          "indexed": false,
          "name": "random",
          "type": "uint256"
        },
        {
          "indexed": false,
          "name": "blockNumber",
          "type": "uint256"
        },
        {
          "indexed": false,
          "name": "hash",
          "type": "uint256"
        },
        {
          "indexed": false,
          "name": "addressInt",
          "type": "uint256"
        },
        {
          "indexed": false,
          "name": "shift",
          "type": "uint256"
        },
        {
          "indexed": false,
          "name": "timestamp",
          "type": "uint256"
        },
        {
          "indexed": false,
          "name": "difficulty",
          "type": "uint256"
        }
      ],
      "name": "GenRandomNumbers",
      "type": "event"
    },
    {
      "anonymous": false,
      "inputs": [
        {
          "indexed": false,
          "name": "msg",
          "type": "uint256"
        }
      ],
      "name": "LOG",
      "type": "event"
    },
    {
      "constant": false,
      "inputs": [
        {
          "name": "_chainLotTicket",
          "type": "address"
        },
        {
          "name": "_clToken",
          "type": "address"
        },
        {
          "name": "_chainLot",
          "type": "address"
        },
        {
          "name": "_drawingToolAddress",
          "type": "address"
        }
      ],
      "name": "setPool",
      "outputs": [],
      "payable": false,
      "stateMutability": "nonpayable",
      "type": "function"
    },
    {
      "constant": false,
      "inputs": [
        {
          "name": "numbers",
          "type": "bytes"
        },
        {
          "name": "referer",
          "type": "address"
        }
      ],
      "name": "buyTicket",
      "outputs": [],
      "payable": true,
      "stateMutability": "payable",
      "type": "function"
    },
    {
      "constant": false,
      "inputs": [
        {
          "name": "referer",
          "type": "address"
        }
      ],
      "name": "buyRandom",
      "outputs": [],
      "payable": true,
      "stateMutability": "payable",
      "type": "function"
    },
    {
      "constant": false,
      "inputs": [
        {
          "name": "_from",
          "type": "address"
        },
        {
          "name": "_value",
          "type": "uint256"
        },
        {
          "name": "_token",
          "type": "address"
        },
        {
          "name": "_extraData",
          "type": "bytes"
        }
      ],
      "name": "receiveApproval",
      "outputs": [],
      "payable": false,
      "stateMutability": "nonpayable",
      "type": "function"
    },
    {
      "constant": false,
      "inputs": [
        {
          "name": "_jackpotNumbers",
          "type": "bytes"
        }
      ],
      "name": "setJackpotNumbers",
      "outputs": [],
      "payable": false,
      "stateMutability": "nonpayable",
      "type": "function"
    },
    {
      "constant": true,
      "inputs": [],
      "name": "getAwardRulesLength",
      "outputs": [
        {
          "name": "length",
          "type": "uint256"
        }
      ],
      "payable": false,
      "stateMutability": "view",
      "type": "function"
    },
    {
      "constant": false,
      "inputs": [
        {
          "name": "ruleId",
          "type": "uint256"
        },
        {
          "name": "ticketId",
          "type": "uint256"
        }
      ],
      "name": "pushWinnerTicket",
      "outputs": [],
      "payable": false,
      "stateMutability": "nonpayable",
      "type": "function"
    },
    {
      "constant": true,
      "inputs": [],
      "name": "getJackpotNumbers",
      "outputs": [
        {
          "name": "numbers",
          "type": "bytes32"
        }
      ],
      "payable": false,
      "stateMutability": "view",
      "type": "function"
    },
    {
      "constant": true,
      "inputs": [
        {
          "name": "ruleId",
          "type": "uint8"
        }
      ],
      "name": "getWinnerTicketCount",
      "outputs": [
        {
          "name": "count",
          "type": "uint256"
        }
      ],
      "payable": false,
      "stateMutability": "view",
      "type": "function"
    },
    {
      "constant": true,
      "inputs": [
        {
          "name": "ruleId",
          "type": "uint8"
        }
      ],
      "name": "getProcessedIndex",
      "outputs": [
        {
          "name": "index",
          "type": "uint256"
        }
      ],
      "payable": false,
      "stateMutability": "view",
      "type": "function"
    },
    {
      "constant": true,
      "inputs": [
        {
          "name": "ruleId",
          "type": "uint8"
        }
      ],
      "name": "getAwardEther",
      "outputs": [
        {
          "name": "_ether",
          "type": "uint256"
        }
      ],
      "payable": false,
      "stateMutability": "view",
      "type": "function"
    },
    {
      "constant": false,
      "inputs": [
        {
          "name": "ruleId",
          "type": "uint8"
        },
        {
          "name": "totalWinnersAward",
          "type": "uint256"
        }
      ],
      "name": "addTotalWinnersAward",
      "outputs": [],
      "payable": false,
      "stateMutability": "nonpayable",
      "type": "function"
    },
    {
      "constant": false,
      "inputs": [
        {
          "name": "ruleId",
          "type": "uint8"
        },
        {
          "name": "totalTicketCount",
          "type": "uint256"
        }
      ],
      "name": "addTotalTicketCount",
      "outputs": [],
      "payable": false,
      "stateMutability": "nonpayable",
      "type": "function"
    },
    {
      "constant": false,
      "inputs": [
        {
          "name": "_stage",
          "type": "uint8"
        }
      ],
      "name": "setStage",
      "outputs": [],
      "payable": false,
      "stateMutability": "nonpayable",
      "type": "function"
    },
    {
      "constant": false,
      "inputs": [
        {
          "name": "ruleId",
          "type": "uint8"
        },
        {
          "name": "index",
          "type": "uint256"
        }
      ],
      "name": "setProcessedIndex",
      "outputs": [],
      "payable": false,
      "stateMutability": "nonpayable",
      "type": "function"
    },
    {
      "constant": false,
      "inputs": [
        {
          "name": "index",
          "type": "uint256"
        }
      ],
      "name": "setLastMatchedTicketIndex",
      "outputs": [],
      "payable": false,
      "stateMutability": "nonpayable",
      "type": "function"
    },
    {
      "constant": true,
      "inputs": [
        {
          "name": "ruleId",
          "type": "uint8"
        },
        {
          "name": "j",
          "type": "uint256"
        }
      ],
      "name": "getWinnerTicket",
      "outputs": [
        {
          "name": "id",
          "type": "uint256"
        }
      ],
      "payable": false,
      "stateMutability": "view",
      "type": "function"
    },
    {
      "constant": true,
      "inputs": [
        {
          "name": "ruleId",
          "type": "uint8"
        }
      ],
      "name": "getTotalWinnersAward",
      "outputs": [
        {
          "name": "award",
          "type": "uint256"
        }
      ],
      "payable": false,
      "stateMutability": "view",
      "type": "function"
    },
    {
      "constant": false,
      "inputs": [
        {
          "name": "ruleId",
          "type": "uint8"
        },
        {
          "name": "award",
          "type": "uint256"
        }
      ],
      "name": "setTotalWinnersAward",
      "outputs": [],
      "payable": false,
      "stateMutability": "nonpayable",
      "type": "function"
    },
    {
      "constant": true,
      "inputs": [
        {
          "name": "ruleId",
          "type": "uint8"
        }
      ],
      "name": "getDistributedIndex",
      "outputs": [
        {
          "name": "index",
          "type": "uint256"
        }
      ],
      "payable": false,
      "stateMutability": "view",
      "type": "function"
    },
    {
      "constant": false,
      "inputs": [
        {
          "name": "ruleId",
          "type": "uint8"
        },
        {
          "name": "index",
          "type": "uint256"
        }
      ],
      "name": "setDistributedIndex",
      "outputs": [],
      "payable": false,
      "stateMutability": "nonpayable",
      "type": "function"
    },
    {
      "constant": true,
      "inputs": [
        {
          "name": "ruleId",
          "type": "uint8"
        }
      ],
      "name": "getTotalTicketCount",
      "outputs": [
        {
          "name": "count",
          "type": "uint256"
        }
      ],
      "payable": false,
      "stateMutability": "view",
      "type": "function"
    },
    {
      "constant": false,
      "inputs": [
        {
          "name": "ticketId",
          "type": "uint256"
        },
        {
          "name": "awardValue",
          "type": "uint256"
        }
      ],
      "name": "addToBeAward",
      "outputs": [
        {
          "name": "userAddress",
          "type": "address"
        }
      ],
      "payable": false,
      "stateMutability": "nonpayable",
      "type": "function"
    },
    {
      "constant": true,
      "inputs": [],
      "name": "getToBeAwardLength",
      "outputs": [
        {
          "name": "length",
          "type": "uint256"
        }
      ],
      "payable": false,
      "stateMutability": "view",
      "type": "function"
    },
    {
      "constant": false,
      "inputs": [
        {
          "name": "to",
          "type": "address"
        },
        {
          "name": "value",
          "type": "uint256"
        }
      ],
      "name": "transfer",
      "outputs": [],
      "payable": false,
      "stateMutability": "nonpayable",
      "type": "function"
    },
    {
      "constant": false,
      "inputs": [
        {
          "name": "cut",
          "type": "uint256"
        }
      ],
      "name": "addHistoryCut",
      "outputs": [],
      "payable": false,
      "stateMutability": "nonpayable",
      "type": "function"
    },
    {
      "constant": false,
      "inputs": [
        {
          "name": "index",
          "type": "uint256"
        }
      ],
      "name": "setAwardIndex",
      "outputs": [],
      "payable": false,
      "stateMutability": "nonpayable",
      "type": "function"
    },
    {
      "constant": false,
      "inputs": [
        {
          "name": "ticketIds",
          "type": "uint256[]"
        }
      ],
      "name": "withdrawHistoryCut",
      "outputs": [],
      "payable": false,
      "stateMutability": "nonpayable",
      "type": "function"
    },
    {
      "constant": false,
      "inputs": [
        {
          "name": "user",
          "type": "address"
        },
        {
          "name": "ticketIds",
          "type": "uint256[]"
        }
      ],
      "name": "listUserHistoryCut",
      "outputs": [
        {
          "name": "_historyCut",
          "type": "uint256"
        }
      ],
      "payable": false,
      "stateMutability": "nonpayable",
      "type": "function"
    },
    {
      "constant": false,
      "inputs": [
        {
          "name": "to",
          "type": "address"
        }
      ],
      "name": "transferUnawarded",
      "outputs": [],
      "payable": false,
      "stateMutability": "nonpayable",
      "type": "function"
    },
    {
      "constant": false,
      "inputs": [
        {
          "name": "blockNumber",
          "type": "uint256"
        },
        {
          "name": "shift",
          "type": "uint256"
        }
      ],
      "name": "genRandomNumbers",
      "outputs": [
        {
          "name": "_numbers",
          "type": "bytes"
        }
      ],
      "payable": false,
      "stateMutability": "nonpayable",
      "type": "function"
    },
    {
      "constant": true,
      "inputs": [],
      "name": "getAllTicketsCount",
      "outputs": [
        {
          "name": "count",
          "type": "uint256"
        }
      ],
      "payable": false,
      "stateMutability": "view",
      "type": "function"
    }
  ],
  "bytecode": "0x60606040526000601960006101000a81548160ff021916908360078111156200002457fe5b021790555034156200003557600080fd5b6040516200401638038062004016833981016040528080519060200190919080519060200190919080519060200190919080519060200190919080519060200190919080519060200190919080518201919050506000336000806101000a81548173ffffffffffffffffffffffffffffffffffffffff021916908373ffffffffffffffffffffffffffffffffffffffff1602179055508760018190555086600260006101000a81548160ff021916908360ff16021790555085600260016101000a81548160ff021916908360ff16021790555084600860006101000a81548160ff021916908360ff16021790555083600860016101000a81548160ff021916908360ff16021790555082600381905550600860019054906101000a900460ff16600860009054906101000a900460ff1601600860026101000a81548160ff021916908360ff160217905550600090505b81518110156200039a5781516003820111151515620001a357600080fd5b60008282815181101515620001b457fe5b9060200190602002015110158015620001f75750600860009054906101000a900460ff1660ff168282815181101515620001ea57fe5b9060200190602002015111155b15156200020357600080fd5b600082600183018151811015156200021757fe5b90602001906020020151101580156200025d5750600860019054906101000a900460ff1660ff1682600183018151811015156200025057fe5b9060200190602002015111155b15156200026957600080fd5b601080548060010182816200027f91906200042d565b916000526020600020906003020160006060604051908101604052808686815181101515620002aa57fe5b9060200190602002015181526020018660018701815181101515620002cb57fe5b9060200190602002015181526020018660028701815181101515620002ec57fe5b906020019060200201518152509091909150600082015181600001556020820151816001015560408201518160020155505050601080549050600d60006200037c85858151811015156200033c57fe5b9060200190602002015186600187018151811015156200035857fe5b90602001906020020151620004096401000000000262003b1a176401000000009004565b81526020019081526020016000208190555060038101905062000185565b600090505b601080549050811015620003f3576000600e6000838152602001908152602001600020600101819055506000600e60008381526020019081526020016000206002018190555080806001019150506200039f565b600060168190555050505050505050506200049c565b6000816001600860019054906101000a900460ff160160ff16840201905092915050565b8154818355818115116200045d576003028160030283600052602060002091820191016200045c919062000462565b5b505050565b6200049991905b808211156200049557600080820160009055600182016000905560028201600090555060030162000469565b5090565b90565b613b6a80620004ac6000396000f3006060604052600436106102d5576000357c0100000000000000000000000000000000000000000000000000000000900463ffffffff16806304d3c348146102da5780630582a081146103465780630800e5f1146103695780630850cc4b146103be5780630891690b146103ec57806316205520146104155780633678c9f41461044457806337f4a9c4146104e95780633ca7b3c1146105185780633e43be3c1461054757806350b9bc921461059c5780635255f1e4146105ca5780635b328df61461060f5780635f7d9287146106465780636541e028146106755780636c933d85146106a15780636ea6c8b2146106ca578063703a66d21461073b57806370f4c3431461076a5780637266a23214610799578063758b9ee0146107c257806376ae04f3146107eb5780637855e6ae146108145780637baf3b0e1461084e5780637f87179a1461087757806388963771146108e15780638c4b17581461090a5780638da5cb5b146109a05780638f4ffcb1146109f5578063958d8a2f14610a995780639c56a45014610ad35780639c7365e514610af65780639eb623d714610b25578063a9059cbb14610b4e578063aa2aaeca14610b90578063b184001914610bc7578063b61bf92a14610c01578063b787e6c814610c30578063b86d7c6c14610c6a578063b9f85c5814610c93578063bd6a468714610cc2578063c040e6b814610ce5578063c350c74e14610d1c578063c3c1b4a314610d45578063cda886d614610d7f578063ce3cd99714610da8578063d87d8b3d14610dce578063d8d9125514610dfd578063df85d49d14610e36578063dfcab41714610e79578063e1e3af6914610eb7578063e2c3156114610f0c578063e302909414610f35578063e35e17fa14610fc3578063e7cfbe9014611018578063ec6ce0d114611049578063ee5bac8914611077578063f2fde38b146110d8578063f3aa119314611111578063f58a78981461114c578063ffa309031461118a575b600080fd5b34156102e557600080fd5b61030460048080359060200190919080359060200190919050506111c4565b604051808273ffffffffffffffffffffffffffffffffffffffff1673ffffffffffffffffffffffffffffffffffffffff16815260200191505060405180910390f35b341561035157600080fd5b6103676004808035906020019091905050611392565b005b341561037457600080fd5b61037c611401565b604051808273ffffffffffffffffffffffffffffffffffffffff1673ffffffffffffffffffffffffffffffffffffffff16815260200191505060405180910390f35b6103ea600480803573ffffffffffffffffffffffffffffffffffffffff16906020019091905050611427565b005b34156103f757600080fd5b6103ff61144d565b6040518082815260200191505060405180910390f35b341561042057600080fd5b610428611453565b604051808260ff1660ff16815260200191505060405180910390f35b341561044f57600080fd5b61046e6004808035906020019091908035906020019091905050611466565b6040518080602001828103825283818151815260200191508051906020019080838360005b838110156104ae578082015181840152602081019050610493565b50505050905090810190601f1680156104db5780820380516001836020036101000a031916815260200191505b509250505060405180910390f35b34156104f457600080fd5b6104fc611735565b604051808260ff1660ff16815260200191505060405180910390f35b341561052357600080fd5b610545600480803560ff16906020019091908035906020019091905050611748565b005b341561055257600080fd5b61055a6117c6565b604051808273ffffffffffffffffffffffffffffffffffffffff1673ffffffffffffffffffffffffffffffffffffffff16815260200191505060405180910390f35b34156105a757600080fd5b6105c8600480803590602001908201803590602001919091929050506117ec565b005b34156105d557600080fd5b6105eb6004808035906020019091905050611973565b60405180848152602001838152602001828152602001935050505060405180910390f35b341561061a57600080fd5b61063060048080359060200190919050506119ac565b6040518082815260200191505060405180910390f35b341561065157600080fd5b6106596119d0565b604051808260ff1660ff16815260200191505060405180910390f35b341561068057600080fd5b61069f60048080359060200190919080359060200190919050506119e3565b005b34156106ac57600080fd5b6106b4611a80565b6040518082815260200191505060405180910390f35b610739600480803590602001908201803590602001908080601f0160208091040260200160405190810160405280939291908181526020018383808284378201915050505050509190803573ffffffffffffffffffffffffffffffffffffffff16906020019091905050611a86565b005b341561074657600080fd5b610768600480803560ff16906020019091908035906020019091905050611c54565b005b341561077557600080fd5b61077d611cdb565b604051808260ff1660ff16815260200191505060405180910390f35b34156107a457600080fd5b6107ac611cee565b6040518082815260200191505060405180910390f35b34156107cd57600080fd5b6107d5611cf4565b6040518082815260200191505060405180910390f35b34156107f657600080fd5b6107fe611d01565b6040518082815260200191505060405180910390f35b341561081f57600080fd5b610838600480803560ff16906020019091905050611d07565b6040518082815260200191505060405180910390f35b341561085957600080fd5b610861611d86565b6040518082815260200191505060405180910390f35b341561088257600080fd5b6108986004808035906020019091905050611def565b604051808373ffffffffffffffffffffffffffffffffffffffff1673ffffffffffffffffffffffffffffffffffffffff1681526020018281526020019250505060405180910390f35b34156108ec57600080fd5b6108f4611e42565b6040518082815260200191505060405180910390f35b341561091557600080fd5b61099e600480803573ffffffffffffffffffffffffffffffffffffffff1690602001909190803573ffffffffffffffffffffffffffffffffffffffff1690602001909190803573ffffffffffffffffffffffffffffffffffffffff1690602001909190803573ffffffffffffffffffffffffffffffffffffffff16906020019091905050611e48565b005b34156109ab57600080fd5b6109b3611f92565b604051808273ffffffffffffffffffffffffffffffffffffffff1673ffffffffffffffffffffffffffffffffffffffff16815260200191505060405180910390f35b3415610a0057600080fd5b610a97600480803573ffffffffffffffffffffffffffffffffffffffff1690602001909190803590602001909190803573ffffffffffffffffffffffffffffffffffffffff1690602001909190803590602001908201803590602001908080601f01602080910402602001604051908101604052809392919081815260200183838082843782019150505050505091905050611fb7565b005b3415610aa457600080fd5b610abd600480803560ff169060200190919050506120a1565b6040518082815260200191505060405180910390f35b3415610ade57600080fd5b610af46004808035906020019091905050612120565b005b3415610b0157600080fd5b610b09612186565b604051808260ff1660ff16815260200191505060405180910390f35b3415610b3057600080fd5b610b38612199565b6040518082815260200191505060405180910390f35b3415610b5957600080fd5b610b8e600480803573ffffffffffffffffffffffffffffffffffffffff1690602001909190803590602001909190505061219f565b005b3415610b9b57600080fd5b610bb160048080359060200190919050506122d7565b6040518082815260200191505060405180910390f35b3415610bd257600080fd5b610beb600480803560ff169060200190919050506122ef565b6040518082815260200191505060405180910390f35b3415610c0c57600080fd5b610c2e600480803560ff1690602001909190803590602001909190505061236e565b005b3415610c3b57600080fd5b610c54600480803560ff169060200190919050506123ec565b6040518082815260200191505060405180910390f35b3415610c7557600080fd5b610c7d612475565b6040518082815260200191505060405180910390f35b3415610c9e57600080fd5b610cc0600480803560ff1690602001909190803590602001909190505061247b565b005b3415610ccd57600080fd5b610ce360048080359060200190919050506124f9565b005b3415610cf057600080fd5b610cf861255f565b60405180826007811115610d0857fe5b60ff16815260200191505060405180910390f35b3415610d2757600080fd5b610d2f612572565b6040518082815260200191505060405180910390f35b3415610d5057600080fd5b610d69600480803560ff169060200190919050506125db565b6040518082815260200191505060405180910390f35b3415610d8a57600080fd5b610d9261265a565b6040518082815260200191505060405180910390f35b3415610db357600080fd5b610dcc600480803560ff16906020019091905050612660565b005b3415610dd957600080fd5b610dfb600480803560ff169060200190919080359060200190919050506126e2565b005b3415610e0857600080fd5b610e34600480803573ffffffffffffffffffffffffffffffffffffffff16906020019091905050612769565b005b3415610e4157600080fd5b610e63600480803560ff16906020019091908035906020019091905050612a89565b6040518082815260200191505060405180910390f35b3415610e8457600080fd5b610e9a6004808035906020019091905050612b21565b604051808381526020018281526020019250505060405180910390f35b3415610ec257600080fd5b610eca612b45565b604051808273ffffffffffffffffffffffffffffffffffffffff1673ffffffffffffffffffffffffffffffffffffffff16815260200191505060405180910390f35b3415610f1757600080fd5b610f1f612b6b565b6040518082815260200191505060405180910390f35b3415610f4057600080fd5b610f48612b71565b6040518080602001828103825283818151815260200191508051906020019080838360005b83811015610f88578082015181840152602081019050610f6d565b50505050905090810190601f168015610fb55780820380516001836020036101000a031916815260200191505b509250505060405180910390f35b3415610fce57600080fd5b610fd6612c0f565b604051808273ffffffffffffffffffffffffffffffffffffffff1673ffffffffffffffffffffffffffffffffffffffff16815260200191505060405180910390f35b341561102357600080fd5b61102b612c35565b60405180826000191660001916815260200191505060405180910390f35b341561105457600080fd5b61107560048080359060200190820180359060200191909192905050612e1f565b005b341561108257600080fd5b6110c2600480803573ffffffffffffffffffffffffffffffffffffffff169060200190919080359060200190820180359060200191909192905050612e91565b6040518082815260200191505060405180910390f35b34156110e357600080fd5b61110f600480803573ffffffffffffffffffffffffffffffffffffffff16906020019091905050612ed7565b005b341561111c57600080fd5b6111326004808035906020019091905050612f75565b604051808215151515815260200191505060405180910390f35b341561115757600080fd5b61116d6004808035906020019091905050612f95565b604051808381526020018281526020019250505060405180910390f35b341561119557600080fd5b6111ae600480803560ff16906020019091905050612fb9565b6040518082815260200191505060405180910390f35b60006111ce613985565b3373ffffffffffffffffffffffffffffffffffffffff16601460009054906101000a900473ffffffffffffffffffffffffffffffffffffffff1673ffffffffffffffffffffffffffffffffffffffff1614151561122a57600080fd5b601160009054906101000a900473ffffffffffffffffffffffffffffffffffffffff1673ffffffffffffffffffffffffffffffffffffffff16636352211e856000604051602001526040518263ffffffff167c010000000000000000000000000000000000000000000000000000000002815260040180828152602001915050602060405180830381600087803b15156112c357600080fd5b6102c65a03f115156112d457600080fd5b50505060405180519050915060408051908101604052808373ffffffffffffffffffffffffffffffffffffffff1681526020018481525090506015805480600101828161132191906139b5565b9160005260206000209060020201600083909190915060008201518160000160006101000a81548173ffffffffffffffffffffffffffffffffffffffff021916908373ffffffffffffffffffffffffffffffffffffffff160217905550602082015181600101555050505092915050565b3373ffffffffffffffffffffffffffffffffffffffff16601460009054906101000a900473ffffffffffffffffffffffffffffffffffffffff1673ffffffffffffffffffffffffffffffffffffffff161415156113ee57600080fd5b80600b6000828254019250508190555050565b601260009054906101000a900473ffffffffffffffffffffffffffffffffffffffff1681565b61142f6139e7565b61143d600143036000611466565b90506114498183611a86565b5050565b60165481565b600860029054906101000a900460ff1681565b61146e6139e7565b600080600061147b6139e7565b6000438810151561148b57600080fd5b87406001900494503373ffffffffffffffffffffffffffffffffffffffff1693508484029250424486866040518085815260200184815260200183815260200182815260200194505050505060405180910390206001900492507f2c7df83ce284dc9c63cf5d2312952dd5ccecf8f255192742b2ca327d3e6c6a43838987878b42446040518088815260200187815260200186815260200185815260200184815260200183815260200182815260200197505050505050505060405180910390a16000831415151561155c57600080fd5b86839060020a90049250600860019054906101000a900460ff16600860009054906101000a900460ff160160ff166040518059106115975750595b9080825280601f01601f19166020018201604052509150600090505b600860009054906101000a900460ff1660ff168160ff16101561166c576001600260009054906101000a900460ff1660ff16848115156115ef57fe5b06017f010000000000000000000000000000000000000000000000000000000000000002828260ff1681518110151561162457fe5b9060200101907effffffffffffffffffffffffffffffffffffffffffffffffffffffffffffff1916908160001a9053506008839060020a9004925080806001019150506115b3565b600860009054906101000a900460ff1690505b81518160ff161015611727576001600260019054906101000a900460ff1660ff16848115156116aa57fe5b06017f010000000000000000000000000000000000000000000000000000000000000002828260ff168151811015156116df57fe5b9060200101907effffffffffffffffffffffffffffffffffffffffffffffffffffffffffffff1916908160001a9053506008839060020a90049250808060010191505061167f565b819550505050505092915050565b600860019054906101000a900460ff1681565b3373ffffffffffffffffffffffffffffffffffffffff16601460009054906101000a900473ffffffffffffffffffffffffffffffffffffffff1673ffffffffffffffffffffffffffffffffffffffff161415156117a457600080fd5b80600e60008460ff168152602001908152602001600020600201819055505050565b601360009054906101000a900473ffffffffffffffffffffffffffffffffffffffff1681565b600061182983838080602002602001604051908101604052809392919081815260200183836020028082843782019150505050505032600061303b565b9050601260009054906101000a900473ffffffffffffffffffffffffffffffffffffffff1673ffffffffffffffffffffffffffffffffffffffff1663a9059cbb32836040518363ffffffff167c0100000000000000000000000000000000000000000000000000000000028152600401808373ffffffffffffffffffffffffffffffffffffffff1673ffffffffffffffffffffffffffffffffffffffff16815260200182815260200192505050600060405180830381600087803b15156118ef57600080fd5b6102c65a03f1151561190057600080fd5b5050507fede4d03c867cd33eef808cb7e94941039fcb41bddb496675b7df85c4f9533bc33282604051808373ffffffffffffffffffffffffffffffffffffffff1673ffffffffffffffffffffffffffffffffffffffff1681526020018281526020019250505060405180910390a1505050565b60108181548110151561198257fe5b90600052602060002090600302016000915090508060000154908060010154908060020154905083565b6006818154811015156119bb57fe5b90600052602060002090016000915090505481565b600260019054906101000a900460ff1681565b3373ffffffffffffffffffffffffffffffffffffffff16601460009054906101000a900473ffffffffffffffffffffffffffffffffffffffff1673ffffffffffffffffffffffffffffffffffffffff16141515611a3f57600080fd5b600e60008381526020019081526020016000206000018054806001018281611a6791906139fb565b9160005260206000209001600083909190915055505050565b60045481565b6000806007811115611a9457fe5b601960009054906101000a900460ff166007811115611aaf57fe5b141515611abb57600080fd5b60015443101515611acb57600080fd5b6000601260009054906101000a900473ffffffffffffffffffffffffffffffffffffffff1673ffffffffffffffffffffffffffffffffffffffff1614151515611b1357600080fd5b60035434811515611b2057fe5b049050600081111515611b3257600080fd5b601260009054906101000a900473ffffffffffffffffffffffffffffffffffffffff1673ffffffffffffffffffffffffffffffffffffffff1663a6f2ae3a346040518263ffffffff167c01000000000000000000000000000000000000000000000000000000000281526004016000604051808303818588803b1515611bb757600080fd5b6125ee5a03f11515611bc857600080fd5b5050505034600c60008282540192505081905550611be832848334613344565b5060008273ffffffffffffffffffffffffffffffffffffffff1614158015611c3c57508173ffffffffffffffffffffffffffffffffffffffff163273ffffffffffffffffffffffffffffffffffffffff1614155b15611c4f57611c4d82848334613344565b505b505050565b3373ffffffffffffffffffffffffffffffffffffffff16601460009054906101000a900473ffffffffffffffffffffffffffffffffffffffff1673ffffffffffffffffffffffffffffffffffffffff16141515611cb057600080fd5b80601860008460ff168152602001908152602001600020600001600082825401925050819055505050565b600260009054906101000a900460ff1681565b60055481565b6000600680549050905090565b60075481565b60003373ffffffffffffffffffffffffffffffffffffffff16601460009054906101000a900473ffffffffffffffffffffffffffffffffffffffff1673ffffffffffffffffffffffffffffffffffffffff16141515611d6557600080fd5b600e60008360ff168152602001908152602001600020600101549050919050565b60003373ffffffffffffffffffffffffffffffffffffffff16601460009054906101000a900473ffffffffffffffffffffffffffffffffffffffff1673ffffffffffffffffffffffffffffffffffffffff16141515611de457600080fd5b601080549050905090565b601581815481101515611dfe57fe5b90600052602060002090600202016000915090508060000160009054906101000a900473ffffffffffffffffffffffffffffffffffffffff16908060010154905082565b600c5481565b83601160006101000a81548173ffffffffffffffffffffffffffffffffffffffff021916908373ffffffffffffffffffffffffffffffffffffffff16021790555082601260006101000a81548173ffffffffffffffffffffffffffffffffffffffff021916908373ffffffffffffffffffffffffffffffffffffffff16021790555081601360006101000a81548173ffffffffffffffffffffffffffffffffffffffff021916908373ffffffffffffffffffffffffffffffffffffffff160217905550326000806101000a81548173ffffffffffffffffffffffffffffffffffffffff021916908373ffffffffffffffffffffffffffffffffffffffff16021790555080601460006101000a81548173ffffffffffffffffffffffffffffffffffffffff021916908373ffffffffffffffffffffffffffffffffffffffff16021790555050505050565b6000809054906101000a900473ffffffffffffffffffffffffffffffffffffffff1681565b6000611fc16139e7565b601260009054906101000a900473ffffffffffffffffffffffffffffffffffffffff1673ffffffffffffffffffffffffffffffffffffffff168473ffffffffffffffffffffffffffffffffffffffff1614151561201d57600080fd5b60008351148061203f5750600860029054906101000a900460ff1660ff168351145b151561204a57600080fd5b6003548581151561205757fe5b04915060008211151561206957600080fd5b60008351141561208857612081600143036000611466565b905061208c565b8290505b61209886828488613344565b50505050505050565b60003373ffffffffffffffffffffffffffffffffffffffff16601460009054906101000a900473ffffffffffffffffffffffffffffffffffffffff1673ffffffffffffffffffffffffffffffffffffffff161415156120ff57600080fd5b601860008360ff168152602001908152602001600020600101549050919050565b3373ffffffffffffffffffffffffffffffffffffffff16601460009054906101000a900473ffffffffffffffffffffffffffffffffffffffff1673ffffffffffffffffffffffffffffffffffffffff1614151561217c57600080fd5b8060168190555050565b600860009054906101000a900460ff1681565b60015481565b3373ffffffffffffffffffffffffffffffffffffffff16601460009054906101000a900473ffffffffffffffffffffffffffffffffffffffff1673ffffffffffffffffffffffffffffffffffffffff161415156121fb57600080fd5b601260009054906101000a900473ffffffffffffffffffffffffffffffffffffffff1673ffffffffffffffffffffffffffffffffffffffff1663a9059cbb83836040518363ffffffff167c0100000000000000000000000000000000000000000000000000000000028152600401808373ffffffffffffffffffffffffffffffffffffffff1673ffffffffffffffffffffffffffffffffffffffff16815260200182815260200192505050600060405180830381600087803b15156122bf57600080fd5b6102c65a03f115156122d057600080fd5b5050505050565b600d6020528060005260406000206000915090505481565b60003373ffffffffffffffffffffffffffffffffffffffff16601460009054906101000a900473ffffffffffffffffffffffffffffffffffffffff1673ffffffffffffffffffffffffffffffffffffffff1614151561234d57600080fd5b600e60008360ff168152602001908152602001600020600201549050919050565b3373ffffffffffffffffffffffffffffffffffffffff16601460009054906101000a900473ffffffffffffffffffffffffffffffffffffffff1673ffffffffffffffffffffffffffffffffffffffff161415156123ca57600080fd5b80601860008460ff168152602001908152602001600020600001819055505050565b60003373ffffffffffffffffffffffffffffffffffffffff16601460009054906101000a900473ffffffffffffffffffffffffffffffffffffffff1673ffffffffffffffffffffffffffffffffffffffff1614151561244a57600080fd5b60108260ff1681548110151561245c57fe5b9060005260206000209060030201600201549050919050565b60035481565b3373ffffffffffffffffffffffffffffffffffffffff16601460009054906101000a900473ffffffffffffffffffffffffffffffffffffffff1673ffffffffffffffffffffffffffffffffffffffff161415156124d757600080fd5b80600e60008460ff168152602001908152602001600020600101819055505050565b3373ffffffffffffffffffffffffffffffffffffffff16601460009054906101000a900473ffffffffffffffffffffffffffffffffffffffff1673ffffffffffffffffffffffffffffffffffffffff1614151561255557600080fd5b8060098190555050565b601960009054906101000a900460ff1681565b60003373ffffffffffffffffffffffffffffffffffffffff16601460009054906101000a900473ffffffffffffffffffffffffffffffffffffffff1673ffffffffffffffffffffffffffffffffffffffff161415156125d057600080fd5b601580549050905090565b60003373ffffffffffffffffffffffffffffffffffffffff16601460009054906101000a900473ffffffffffffffffffffffffffffffffffffffff1673ffffffffffffffffffffffffffffffffffffffff1614151561263957600080fd5b601860008360ff168152602001908152602001600020600001549050919050565b600b5481565b3373ffffffffffffffffffffffffffffffffffffffff16601460009054906101000a900473ffffffffffffffffffffffffffffffffffffffff1673ffffffffffffffffffffffffffffffffffffffff161415156126bc57600080fd5b80601960006101000a81548160ff021916908360078111156126da57fe5b021790555050565b3373ffffffffffffffffffffffffffffffffffffffff16601460009054906101000a900473ffffffffffffffffffffffffffffffffffffffff1673ffffffffffffffffffffffffffffffffffffffff1614151561273e57600080fd5b80601860008460ff168152602001908152602001600020600101600082825401925050819055505050565b60008060009054906101000a900473ffffffffffffffffffffffffffffffffffffffff1673ffffffffffffffffffffffffffffffffffffffff163373ffffffffffffffffffffffffffffffffffffffff161415156127c657600080fd5b600660078111156127d357fe5b601960009054906101000a900460ff1660078111156127ee57fe5b1415156127fa57600080fd5b600b54601260009054906101000a900473ffffffffffffffffffffffffffffffffffffffff1673ffffffffffffffffffffffffffffffffffffffff166370a08231306000604051602001526040518263ffffffff167c0100000000000000000000000000000000000000000000000000000000028152600401808273ffffffffffffffffffffffffffffffffffffffff1673ffffffffffffffffffffffffffffffffffffffff168152602001915050602060405180830381600087803b15156128c257600080fd5b6102c65a03f115156128d357600080fd5b505050604051805190500390506000811115612a6157601260009054906101000a900473ffffffffffffffffffffffffffffffffffffffff1673ffffffffffffffffffffffffffffffffffffffff1663a9059cbb83836040518363ffffffff167c0100000000000000000000000000000000000000000000000000000000028152600401808373ffffffffffffffffffffffffffffffffffffffff1673ffffffffffffffffffffffffffffffffffffffff16815260200182815260200192505050600060405180830381600087803b15156129ad57600080fd5b6102c65a03f115156129be57600080fd5b5050507fd3c8e61b3f3589e41778ffcfb76754be14fb22fbdabd8371a332c3b145f0c3e3308383604051808473ffffffffffffffffffffffffffffffffffffffff1673ffffffffffffffffffffffffffffffffffffffff1681526020018373ffffffffffffffffffffffffffffffffffffffff1673ffffffffffffffffffffffffffffffffffffffff168152602001828152602001935050505060405180910390a15b6007601960006101000a81548160ff02191690836007811115612a8057fe5b02179055505050565b60003373ffffffffffffffffffffffffffffffffffffffff16601460009054906101000a900473ffffffffffffffffffffffffffffffffffffffff1673ffffffffffffffffffffffffffffffffffffffff16141515612ae757600080fd5b600e60008460ff16815260200190815260200160002060000182815481101515612b0d57fe5b906000526020600020900154905092915050565b600e6020528060005260406000206000915090508060010154908060020154905082565b601160009054906101000a900473ffffffffffffffffffffffffffffffffffffffff1681565b60095481565b600a8054600181600116156101000203166002900480601f016020809104026020016040519081016040528092919081815260200182805460018160011615610100020316600290048015612c075780601f10612bdc57610100808354040283529160200191612c07565b820191906000526020600020905b815481529060010190602001808311612bea57829003601f168201915b505050505081565b601460009054906101000a900473ffffffffffffffffffffffffffffffffffffffff1681565b6000612c3f6139e7565b6000803373ffffffffffffffffffffffffffffffffffffffff16601460009054906101000a900473ffffffffffffffffffffffffffffffffffffffff1673ffffffffffffffffffffffffffffffffffffffff16141515612c9e57600080fd5b600a8054600181600116156101000203166002900480601f016020809104026020016040519081016040528092919081815260200182805460018160011615610100020316600290048015612d345780601f10612d0957610100808354040283529160200191612d34565b820191906000526020600020905b815481529060010190602001808311612d1757829003601f168201915b50505050509250602091508251821115612d4d57825191505b600090505b81811015612e19576008810260ff7f0100000000000000000000000000000000000000000000000000000000000000028483815181101515612d9057fe5b9060200101517f010000000000000000000000000000000000000000000000000000000000000090047f010000000000000000000000000000000000000000000000000000000000000002167effffffffffffffffffffffffffffffffffffffffffffffffffffffffffffff1916600019169060020a9004841793508080600101915050612d52565b50505090565b3373ffffffffffffffffffffffffffffffffffffffff16601460009054906101000a900473ffffffffffffffffffffffffffffffffffffffff1673ffffffffffffffffffffffffffffffffffffffff16141515612e7b57600080fd5b8181600a9190612e8c929190613a27565b505050565b6000612ece83838080602002602001604051908101604052809392919081815260200183836020028082843782019150505050505085600161303b565b90509392505050565b6000809054906101000a900473ffffffffffffffffffffffffffffffffffffffff1673ffffffffffffffffffffffffffffffffffffffff163373ffffffffffffffffffffffffffffffffffffffff16141515612f3257600080fd5b806000806101000a81548173ffffffffffffffffffffffffffffffffffffffff021916908373ffffffffffffffffffffffffffffffffffffffff16021790555050565b60176020528060005260406000206000915054906101000a900460ff1681565b600f6020528060005260406000206000915090508060010154908060020154905082565b60003373ffffffffffffffffffffffffffffffffffffffff16601460009054906101000a900473ffffffffffffffffffffffffffffffffffffffff1673ffffffffffffffffffffffffffffffffffffffff1614151561301757600080fd5b600e60008360ff168152602001908152602001600020600001805490509050919050565b6000806000806000806000806000600554141561305b5760009750613336565b60009650600090505b8a5181101561332157601160009054906101000a900473ffffffffffffffffffffffffffffffffffffffff1673ffffffffffffffffffffffffffffffffffffffff16637dc379fa8c838151811015156130b957fe5b90602001906020020151600060405160a001526040518263ffffffff167c01000000000000000000000000000000000000000000000000000000000281526004018082815260200191505060a060405180830381600087803b151561311d57600080fd5b6102c65a03f1151561312e57600080fd5b505050604051805190602001805190602001805190602001805190602001805190508367ffffffffffffffff169350809650819750829850839950849a50505050505060001515601760008d8481518110151561318757fe5b90602001906020020151815260200190815260200160002060009054906101000a900460ff1615151480156131bd575060015482105b80156132be57508973ffffffffffffffffffffffffffffffffffffffff16601160009054906101000a900473ffffffffffffffffffffffffffffffffffffffff1673ffffffffffffffffffffffffffffffffffffffff16636352211e8d8481518110151561322757fe5b906020019060200201516000604051602001526040518263ffffffff167c010000000000000000000000000000000000000000000000000000000002815260040180828152602001915050602060405180830381600087803b151561328b57600080fd5b6102c65a03f1151561329c57600080fd5b5050506040518051905073ffffffffffffffffffffffffffffffffffffffff16145b15613314578287019650881515613313576001601760008d848151811015156132e357fe5b90602001906020020151815260200190815260200160002060006101000a81548160ff0219169083151502179055505b5b8080600101915050613064565b600554600b54880281151561333257fe5b0497505b505050505050509392505050565b6000806000600860019054906101000a900460ff16600860009054906101000a900460ff160160ff16865114151561337b57600080fd5b600091505b600860009054906101000a900460ff1660ff168260ff1610156134da576001868360ff168151811015156133b057fe5b9060200101517f010000000000000000000000000000000000000000000000000000000000000090047f0100000000000000000000000000000000000000000000000000000000000000027f0100000000000000000000000000000000000000000000000000000000000000900460ff16101580156134c25750600260009054906101000a900460ff1660ff16868360ff1681518110151561344e57fe5b9060200101517f010000000000000000000000000000000000000000000000000000000000000090047f0100000000000000000000000000000000000000000000000000000000000000027f0100000000000000000000000000000000000000000000000000000000000000900460ff1611155b15156134cd57600080fd5b8180600101925050613380565b600860009054906101000a900460ff1691505b85518260ff161015613636576001868360ff1681518110151561350c57fe5b9060200101517f010000000000000000000000000000000000000000000000000000000000000090047f0100000000000000000000000000000000000000000000000000000000000000027f0100000000000000000000000000000000000000000000000000000000000000900460ff161015801561361e5750600260019054906101000a900460ff1660ff16868360ff168151811015156135aa57fe5b9060200101517f010000000000000000000000000000000000000000000000000000000000000090047f0100000000000000000000000000000000000000000000000000000000000000027f0100000000000000000000000000000000000000000000000000000000000000900460ff1611155b151561362957600080fd5b81806001019250506134ed565b60008511151561364557600080fd5b601360009054906101000a900473ffffffffffffffffffffffffffffffffffffffff1673ffffffffffffffffffffffffffffffffffffffff1663775ed63d8888886000604051602001526040518463ffffffff167c0100000000000000000000000000000000000000000000000000000000028152600401808473ffffffffffffffffffffffffffffffffffffffff1673ffffffffffffffffffffffffffffffffffffffff16815260200180602001838152602001828103825284818151815260200191508051906020019080838360005b83811015613732578082015181840152602081019050613717565b50505050905090810190601f16801561375f5780820380516001836020036101000a031916815260200191505b50945050505050602060405180830381600087803b151561377f57600080fd5b6102c65a03f1151561379057600080fd5b505050604051805190509050600680548060010182816137b091906139fb565b916000526020600020900160008390919091505550601160009054906101000a900473ffffffffffffffffffffffffffffffffffffffff1673ffffffffffffffffffffffffffffffffffffffff16637266a2326000604051602001526040518163ffffffff167c0100000000000000000000000000000000000000000000000000000000028152600401602060405180830381600087803b151561385357600080fd5b6102c65a03f1151561386457600080fd5b505050604051805190506005819055507f5668ef0a105003526dc9fcca87fdecfef80b94dc11daaab96ac3b953b3484ff86001548787848b436005548b60405180898152602001806020018881526020018781526020018673ffffffffffffffffffffffffffffffffffffffff1673ffffffffffffffffffffffffffffffffffffffff168152602001858152602001848152602001838152602001828103825289818151815260200191508051906020019080838360005b8381101561393757808201518184015260208101905061391c565b50505050905090810190601f1680156139645780820380516001836020036101000a031916815260200191505b50995050505050505050505060405180910390a18092505050949350505050565b6040805190810160405280600073ffffffffffffffffffffffffffffffffffffffff168152602001600081525090565b8154818355818115116139e2576002028160020283600052602060002091820191016139e19190613aa7565b5b505050565b602060405190810160405280600081525090565b815481835581811511613a2257818360005260206000209182019101613a219190613af5565b5b505050565b828054600181600116156101000203166002900490600052602060002090601f016020900481019282601f10613a6857803560ff1916838001178555613a96565b82800160010185558215613a96579182015b82811115613a95578235825591602001919060010190613a7a565b5b509050613aa39190613af5565b5090565b613af291905b80821115613aee57600080820160006101000a81549073ffffffffffffffffffffffffffffffffffffffff0219169055600182016000905550600201613aad565b5090565b90565b613b1791905b80821115613b13576000816000905550600101613afb565b5090565b90565b6000816001600860019054906101000a900460ff160160ff168402019050929150505600a165627a7a72305820381606294260b99dbf9a0ebb7f174cde4734b6bfc822d0f8b999ce91d80e96da0029",
  "source": "pragma solidity ^0.4.4;\nimport \"./owned.sol\";\nimport \"./Interface.sol\";\n\ncontract ChainLotPool is owned{\n\tuint public poolBlockNumber;\n\n\tuint8 public maxWhiteNumber; //70;\n\tuint8 public maxYellowNumber; //25;\n\tuint public etherPerTicket; //10**18/100;\n\n\tuint public allTicketsCount;\n\tuint public totalTicketCountSum;\n\tuint[] public allTicketsId;\n\tuint public toBeAwardIndex;\n\n\tuint8 public maxWhiteNumberCount;\n\tuint8 public maxYellowNumberCount;\n\tuint8 public totalNumberCount;\n\t\n\tuint public lastMatchedTicketIndex;\n\tbytes public jackpotNumbers;\n\tuint public historyCut;\n\tuint public tokenSum;\n\n\tmapping(uint => uint) public awardRulesIndex;\n  \tmapping(uint => winnerTicketQueue) public winnerTickets;\n  \tmapping(uint => winnerTicketQueue) public distributeTickets;\n\tawardRule[] public awardRules;\n  \tChainLotTicketInterface public chainLotTicket;\n  \tCLTokenInterface public clToken;\n  \tChainLotInterface public  chainLot;\n  \taddress public drawingToolAddress;\n  \n  \tawardData[] public toBeAward;\n  \tuint public awardIndex;\n\n  \tmapping(uint => bool) public withdrawed;\n\n\tstruct awardRule{\n\t\tuint whiteNumberCount;\n\t\tuint yellowNumberCount;\n\t\tuint awardEther;\n\t}\n\n\tstruct awardData {\n\t\taddress user;\n\t\tuint value;\n\t}\n\n  \tstruct winnerTicketQueue {\n    \tuint[] ticketIds;\n    \tuint processedIndex;\n    \tuint distributedIndex;\n  \t}\n\n  \tstruct awardResultByRule {\n  \t\tuint totalWinnersAward;\n  \t\tuint totalTicketCount;\n \t}\n  \tmapping(uint => awardResultByRule) awardResults;\n\n  \tenum DrawingStage {INITIED, PREPARED, MATCHED, CALCULATED, SPLITED, DISTRIBUTED, SENT, UNAWARED_TRANSFERED}\n\tDrawingStage public stage = DrawingStage.INITIED; \n\n  \t\n\n  \tevent BuyTicket(uint poolBlockNumber, bytes numbers, uint ticketCount, uint ticketId, address user, uint blockNumber, uint totalTicketCountSum, uint value);\n\tevent PrepareAward(bytes jackpotNumbers, uint poolBlockNumber, uint allTicketsCount);\n\tevent ToBeAward(bytes jackpotNumbers, bytes32 ticketNumber, uint ticketCount, uint ticketId, address user, uint blockNumber, uint awardValue);\n\tevent MatchAwards(bytes jackpotNumbers, uint lastMatchedTicketIndex, uint endIndex, uint allTicketsCount);\n\tevent MatchRule(bytes jackpotNumbers, bytes32 ticketNumber, uint ticketCount, uint ticketId, uint blockNumber, uint ruleId, uint ruleEther);\n\tevent DistributeAwards(uint ruleId, uint toDistCount, uint distributedIndex, uint ticketIdsLength, uint awardRulesLength);\n  \tevent TransferAward(address winner, uint value);\n  \tevent TransferDevCut(address dev, uint value);\n  \tevent TransferHistoryCut(address user, uint value);\n  \tevent AddHistoryCut(uint added, uint total);\n  \tevent CalculateAwards(uint8 ruleId, uint winnersTicketCount, uint awardEther, uint totalWinnersAward, uint totalTicketCount);\n  \tevent SplitAward(uint8 ruleId, uint totalWinnersAward, uint leftBalance);\n  \tevent TransferUnawarded(address from, address to, uint value);\n  \tevent GenRandomNumbers(uint random, uint blockNumber, uint hash, uint addressInt, uint shift, uint timestamp, uint difficulty);\n\n  \tfunction ChainLotPool(uint _poolBlockNumber,\n  \t\t\t\t\t\tuint8 _maxWhiteNumber, \n\t\t\t\t\t\tuint8 _maxYellowNumber, \n\t\t\t\t\t\tuint8 _whiteNumberCount, \n\t\t\t\t\t\tuint8 _yellowNumberCount, \n\t\t\t\t\t\tuint _etherPerTicket, \n\t\t\t\t\t\tuint[] awardRulesArray) public {\n  \t\tpoolBlockNumber = _poolBlockNumber;\n  \t\tmaxWhiteNumber = _maxWhiteNumber;\n\t\tmaxYellowNumber = _maxYellowNumber;\n\t\tmaxWhiteNumberCount = _whiteNumberCount;\n\t\tmaxYellowNumberCount = _yellowNumberCount;\n\t\tetherPerTicket = _etherPerTicket;\n\t\ttotalNumberCount = maxWhiteNumberCount + maxYellowNumberCount;\n\t\t\n\n\t\tfor(uint i=0; i<awardRulesArray.length; i+=3) {\n\t\t\trequire(i+3 <= awardRulesArray.length);\n\t\t\trequire(awardRulesArray[i]>=0 && awardRulesArray[i]<=maxWhiteNumberCount);\n\t\t\trequire(awardRulesArray[i+1]>=0 && awardRulesArray[i+1]<=maxYellowNumberCount);\n\t\t\tawardRules.push(awardRule(awardRulesArray[i],awardRulesArray[i+1],awardRulesArray[i+2]));\n\t\t\tawardRulesIndex[getRuleKey(awardRulesArray[i],awardRulesArray[i+1])] = awardRules.length;\n\t\t}\n\n    \tfor(i=0; i<awardRules.length; i++) {\n      \t\twinnerTickets[i].processedIndex = 0;\n      \t\twinnerTickets[i].distributedIndex = 0;\n    \t}\n\n    \tawardIndex = 0;\n    \t\n  \t}\n\n  \tfunction setPool(ChainLotTicketInterface _chainLotTicket,\n\t\t\t\t\t\tCLTokenInterface _clToken,\n\t\t\t\t\t\tChainLotInterface _chainLot, \n\t\t\t\t\t\taddress _drawingToolAddress) public {\n  \t\tchainLotTicket = _chainLotTicket;\n\t\tclToken = _clToken;\n\t\tchainLot = _chainLot;\n\t\towner = tx.origin;\n\t\tdrawingToolAddress = _drawingToolAddress;\n  \t}\n\n  \tmodifier onlyDrawingTool {\n        require(drawingToolAddress == msg.sender);\n        _;\n  \t}\n\n  \tfunction getRuleKey(uint _whiteNumberCount, uint _yellowNumberCount) internal view returns(uint index){\n\t\treturn _whiteNumberCount*(maxYellowNumberCount+1)+_yellowNumberCount;\n\t}\n\n\t//numbers: uint8[6] \n\t//\t\t\t1-5: <=maxWhiteNumber\n\t//\t\t\t6: <=maxYellowNumber\n\tfunction buyTicket(bytes numbers, address referer) payable public{\n\t\trequire(stage == DrawingStage.INITIED);\n\t\trequire(block.number < poolBlockNumber);\n\t\trequire(address(clToken) != 0);\n\t    uint ticketCount = msg.value/etherPerTicket;\n\t    require(ticketCount > 0);\n\t    clToken.buy.value(msg.value)();\n\t    tokenSum += msg.value;\n\t    _buyTicket(tx.origin, numbers, ticketCount, msg.value);\n\t    if(referer != 0 && tx.origin != referer) {\n\t    \t_buyTicket(referer, numbers, ticketCount, msg.value);\t\n\t    }\n\t}\n\n\tevent LOG(uint msg);\n\n\t//random numbers\n\t//random seed: number-1 block hash x user address\n\tfunction buyRandom(address referer) payable public{\n\t\tbytes memory numbers = genRandomNumbers(block.number - 1, 0);\n\t\tbuyTicket(numbers, referer);\n\t}\n\n\tfunction receiveApproval(address _from, uint _value, address _token, bytes _extraData) public {\n\t\trequire(_token == address(clToken));\n\t\trequire(_extraData.length ==0 || _extraData.length == totalNumberCount);\n\n\t\tuint ticketCount = _value/etherPerTicket;\n\t\trequire(ticketCount > 0);\n\t\tbytes memory numbers;\n\t\tif(_extraData.length == 0) {\n\t\t\tnumbers = genRandomNumbers(block.number - 1, 0);\n\t\t}\n\t\telse {\n\t\t\tnumbers = _extraData;\n\t\t}\t\n\n\t\t\n\t\t_buyTicket(_from, numbers, ticketCount, _value);\n\t}\n\n  \tfunction _buyTicket(address _from, bytes numbers, uint ticketCount, uint _value) internal returns(uint _ticketId){\n\t    require(numbers.length == maxWhiteNumberCount+maxYellowNumberCount);\n\t    for(uint8 i=0; i<maxWhiteNumberCount; i++) {\n\t      require(uint8(numbers[i])>=1 && uint8(numbers[i])<=maxWhiteNumber); \n\t    }     \n\t    for(i=maxWhiteNumberCount; i<numbers.length; i++){\n\t      require(uint8(numbers[i])>=1&&uint8(numbers[i])<=maxYellowNumber);\n\t    }\n\t    \n\t    require(ticketCount > 0);\n\t    uint ticketId = chainLot.mint(_from, numbers, ticketCount);\n\t    allTicketsId.push(ticketId);\n\t    totalTicketCountSum = chainLotTicket.totalTicketCountSum();\n\t    BuyTicket(poolBlockNumber, numbers, ticketCount, ticketId, _from, block.number, totalTicketCountSum, _value);\n\t    return ticketId;\n\t}\n\n\t//callback from utils\n\tfunction setJackpotNumbers(bytes _jackpotNumbers) onlyDrawingTool external {\n\t\tjackpotNumbers = _jackpotNumbers;\n\t}\n\n\tfunction getAwardRulesLength() onlyDrawingTool external view returns(uint length) {\n\t\treturn awardRules.length;\n\t}\n\n\tfunction pushWinnerTicket(uint ruleId, uint ticketId) onlyDrawingTool external {\n\t\twinnerTickets[ruleId].ticketIds.push(ticketId);\n\t}\n\n\tfunction getJackpotNumbers() onlyDrawingTool external view returns (bytes32 numbers) {\n\t\tbytes memory mJackpotNumbers = jackpotNumbers;\n\t\tuint bytesLength = 32;\n    \tif(bytesLength > mJackpotNumbers.length) bytesLength = mJackpotNumbers.length;\n    \tfor(uint i=0; i<bytesLength; i++) {\n      \t\tnumbers |= bytes32(mJackpotNumbers[i]&0xFF)>>(i*8);\n    \t}\n\t}\n\n\tfunction getWinnerTicketCount(uint8 ruleId) onlyDrawingTool external view returns(uint count) {\n\t\tcount = winnerTickets[ruleId].ticketIds.length;\n\t}\n\n\tfunction getProcessedIndex(uint8 ruleId) onlyDrawingTool external view returns(uint index) {\n\t\tindex = winnerTickets[ruleId].processedIndex;\n\t}\n\n\tfunction getAwardEther(uint8 ruleId) onlyDrawingTool external view returns(uint _ether) {\n\t\t_ether = awardRules[ruleId].awardEther;\n\t}\n\n\tfunction addTotalWinnersAward(uint8 ruleId, uint totalWinnersAward) onlyDrawingTool external {\n\t\t awardResults[ruleId].totalWinnersAward += totalWinnersAward;\n\t}\n\n\tfunction addTotalTicketCount(uint8 ruleId, uint totalTicketCount) onlyDrawingTool external {\n\t\t awardResults[ruleId].totalTicketCount += totalTicketCount;\n\t}\n\n\tfunction setStage(DrawingStage _stage) onlyDrawingTool external {\n\t\tstage = _stage;\n\t}\n\n\tfunction setProcessedIndex(uint8 ruleId, uint index) onlyDrawingTool external {\n\t\twinnerTickets[ruleId].processedIndex = index;\n\t}\n\n\tfunction setLastMatchedTicketIndex(uint index) onlyDrawingTool external {\n\t\tlastMatchedTicketIndex = index;\n\t}\n\n\tfunction getWinnerTicket(uint8 ruleId, uint j) onlyDrawingTool external view returns(uint id) {\n\t\tid = winnerTickets[ruleId].ticketIds[j];\n\t}\n\n\tfunction getTotalWinnersAward(uint8 ruleId) onlyDrawingTool external view returns(uint award) {\n\t\taward = awardResults[ruleId].totalWinnersAward;\n\t}\n\n\tfunction setTotalWinnersAward(uint8 ruleId, uint award) external onlyDrawingTool {\n\t\tawardResults[ruleId].totalWinnersAward = award;\n\t}\n\n\tfunction getDistributedIndex(uint8 ruleId) external onlyDrawingTool view returns(uint index) {\n\t\tindex = winnerTickets[ruleId].distributedIndex;\n\t}\n\n\tfunction setDistributedIndex(uint8 ruleId, uint index) onlyDrawingTool external {\n\t\twinnerTickets[ruleId].distributedIndex = index;\n\t}\n\n\tfunction getTotalTicketCount(uint8 ruleId) onlyDrawingTool external view returns(uint count) {\n\t\tcount = awardResults[ruleId].totalTicketCount;\n\t}\n\n\tfunction addToBeAward(uint ticketId, uint awardValue) onlyDrawingTool external returns(address userAddress) {\n\t\tuserAddress = chainLotTicket.ownerOf(ticketId);\n\t\tawardData memory ad = awardData(userAddress, awardValue);\n\t    toBeAward.push(ad);\n\t}\n\n\tfunction getToBeAwardLength() onlyDrawingTool external view returns(uint length) {\n\t\tlength = toBeAward.length;\n\t}\n\n\tfunction transfer(address to, uint value) onlyDrawingTool external {\n\t\tclToken.transfer(to, value);\n\t}\n\n\tfunction addHistoryCut(uint cut) onlyDrawingTool external {\n\t\thistoryCut += cut;\n\t}\n\n\tfunction setAwardIndex(uint index) onlyDrawingTool external {\n\t\tawardIndex = index;\n\t}\n\n\tfunction withdrawHistoryCut(uint[] ticketIds) external {\n\t\tuint userCut = calculateUserHistoryCut(ticketIds, tx.origin, false);\n\t  \tclToken.transfer(tx.origin, userCut);\n\t\tTransferHistoryCut(tx.origin, userCut);\n\t}\n\n\tfunction listUserHistoryCut(address user, uint[] ticketIds) external returns(uint _historyCut) {\n\t\treturn calculateUserHistoryCut(ticketIds, user, true);\n\t}\n\n\tfunction calculateUserHistoryCut(uint[] ticketIds, address user, bool onlyList) internal returns(uint _cut) {\n\t\tif(totalTicketCountSum == 0)\n\t\t\treturn 0;\n\t\tuint historyTicketCountSum = 0;\n\t  \taddress mb; uint ma; bytes32 numbers; uint count; uint blockNumber;\n\t  \tfor(uint i=0; i<ticketIds.length; i++) {\n\t  \t\t(mb, ma, numbers, count, blockNumber) = chainLotTicket.getTicket(ticketIds[i]);\n\t  \t\tif(withdrawed[ticketIds[i]] == false \n\t  \t\t\t&& blockNumber < poolBlockNumber \n\t  \t\t\t&& chainLotTicket.ownerOf(ticketIds[i]) == user) {\n\t  \t\t\thistoryTicketCountSum += count;\t\n\t  \t\t\tif(!onlyList) {\n\t  \t\t\t\twithdrawed[ticketIds[i]] = true;\n\t  \t\t\t}\n\t  \t\t}\t\t\n\t  \t}\n\t  \t\n\t  \treturn historyTicketCountSum * historyCut / totalTicketCountSum;\n\t}\n\n\tfunction transferUnawarded(address to) onlyOwner external {\n\t\trequire(stage == DrawingStage.SENT);\n\n      \tuint toBeTransfer = clToken.balanceOf(this) - historyCut;\n      \tif(toBeTransfer > 0) {\n      \t\tclToken.transfer(to, toBeTransfer);\n      \t\tTransferUnawarded(address(this), to, toBeTransfer);\n      \t}\n\n      \tstage = DrawingStage.UNAWARED_TRANSFERED;\n\t}\n\n\tfunction genRandomNumbers(uint blockNumber, uint shift) public returns(bytes _numbers){\n\t\trequire(blockNumber < block.number);\n\t\tuint hash = uint(block.blockhash(blockNumber));\n\t\tuint addressInt = uint(msg.sender);\n\t\tuint256 random = addressInt * hash;\n\t\trandom = uint256(keccak256(block.timestamp, block.difficulty, hash, addressInt));\n\t\tGenRandomNumbers(random, blockNumber, hash, addressInt, shift, block.timestamp, block.difficulty);\n\t\trequire(random != 0);\n\t\trandom = random >> shift;\n\t\tbytes memory numbers = new bytes(maxWhiteNumberCount+maxYellowNumberCount);\n\t\tfor(uint8 i=0;i<maxWhiteNumberCount;i++) {\n\t\t\tnumbers[i] = byte(random%maxWhiteNumber + 1);\n\t\t\trandom = random >> 8;\n\n\t\t}\n\t\tfor(i=maxWhiteNumberCount;i<numbers.length;i++) {\n\t\t\tnumbers[i] = byte(random%maxYellowNumber + 1);\n\t\t\trandom = random >> 8;\n\n\t\t}\n\t\treturn numbers;\n\t}\n\n\tfunction getAllTicketsCount() external view returns(uint count){\n\t\treturn allTicketsId.length;\n\t}\n\n}\n",
  "sourcePath": "/Users/phx/eth/chainlot/contracts/ChainLotPool.sol",
  "compiler": {
    "name": "solc",
    "version": "0.4.19+commit.c4cbbb05.Emscripten.clang"
  },
  "schemaVersion": "2.0.0",
  "updatedAt": "2018-06-24T08:38:28.165Z"
}