{
  "contractName": "ChainLotPublic",
  "abi": [
    {
      "constant": true,
      "inputs": [],
      "name": "clToken",
      "outputs": [
        {
          "name": "",
          "type": "address"
        }
      ],
      "payable": false,
      "stateMutability": "view",
      "type": "function"
    },
    {
      "constant": true,
      "inputs": [],
      "name": "chainlot",
      "outputs": [
        {
          "name": "",
          "type": "address"
        }
      ],
      "payable": false,
      "stateMutability": "view",
      "type": "function"
    },
    {
      "constant": true,
      "inputs": [],
      "name": "owner",
      "outputs": [
        {
          "name": "",
          "type": "address"
        }
      ],
      "payable": false,
      "stateMutability": "view",
      "type": "function"
    },
    {
      "constant": false,
      "inputs": [
        {
          "name": "newOwner",
          "type": "address"
        }
      ],
      "name": "transferOwnership",
      "outputs": [],
      "payable": false,
      "stateMutability": "nonpayable",
      "type": "function"
    },
    {
      "payable": true,
      "stateMutability": "payable",
      "type": "fallback"
    },
    {
      "anonymous": false,
      "inputs": [
        {
          "indexed": false,
          "name": "poolBlockNumber",
          "type": "uint256"
        },
        {
          "indexed": false,
          "name": "numbers",
          "type": "bytes"
        },
        {
          "indexed": false,
          "name": "ticketCount",
          "type": "uint256"
        },
        {
          "indexed": false,
          "name": "ticketId",
          "type": "uint256"
        },
        {
          "indexed": false,
          "name": "user",
          "type": "address"
        },
        {
          "indexed": false,
          "name": "blockNumber",
          "type": "uint256"
        },
        {
          "indexed": false,
          "name": "totalTicketCountSum",
          "type": "uint256"
        },
        {
          "indexed": false,
          "name": "value",
          "type": "uint256"
        }
      ],
      "name": "BuyTicket",
      "type": "event"
    },
    {
      "constant": false,
      "inputs": [
        {
          "name": "numbers",
          "type": "bytes"
        },
        {
          "name": "referer",
          "type": "address"
        }
      ],
      "name": "buyTicket",
      "outputs": [],
      "payable": true,
      "stateMutability": "payable",
      "type": "function"
    },
    {
      "constant": false,
      "inputs": [
        {
          "name": "numberCount",
          "type": "uint8"
        },
        {
          "name": "referer",
          "type": "address"
        }
      ],
      "name": "buyRandom",
      "outputs": [],
      "payable": true,
      "stateMutability": "payable",
      "type": "function"
    },
    {
      "constant": false,
      "inputs": [
        {
          "name": "chainlotAddress",
          "type": "address"
        }
      ],
      "name": "setChainLotAddress",
      "outputs": [],
      "payable": false,
      "stateMutability": "nonpayable",
      "type": "function"
    },
    {
      "constant": false,
      "inputs": [
        {
          "name": "cltokenAddress",
          "type": "address"
        }
      ],
      "name": "setCLTokenAddress",
      "outputs": [],
      "payable": false,
      "stateMutability": "nonpayable",
      "type": "function"
    },
    {
      "constant": false,
      "inputs": [
        {
          "name": "_from",
          "type": "address"
        },
        {
          "name": "_value",
          "type": "uint256"
        },
        {
          "name": "_token",
          "type": "address"
        },
        {
          "name": "_extraData",
          "type": "bytes"
        }
      ],
      "name": "receiveApproval",
      "outputs": [],
      "payable": false,
      "stateMutability": "nonpayable",
      "type": "function"
    },
    {
      "constant": true,
      "inputs": [],
      "name": "retrievePoolInfo",
      "outputs": [
        {
          "name": "poolTokens",
          "type": "uint256"
        },
        {
          "name": "poolBlockNumber",
          "type": "uint256"
        },
        {
          "name": "totalPoolTokens",
          "type": "uint256"
        },
        {
          "name": "poolCount",
          "type": "uint256"
        }
      ],
      "payable": false,
      "stateMutability": "view",
      "type": "function"
    },
    {
      "constant": false,
      "inputs": [
        {
          "name": "poolStart",
          "type": "uint256"
        },
        {
          "name": "poolEnd",
          "type": "uint256"
        },
        {
          "name": "ticketIds",
          "type": "uint256[]"
        }
      ],
      "name": "withDrawHistoryCut",
      "outputs": [],
      "payable": false,
      "stateMutability": "nonpayable",
      "type": "function"
    },
    {
      "constant": true,
      "inputs": [
        {
          "name": "user",
          "type": "address"
        },
        {
          "name": "poolStart",
          "type": "uint256"
        },
        {
          "name": "poolEnd",
          "type": "uint256"
        },
        {
          "name": "ticketIds",
          "type": "uint256[]"
        }
      ],
      "name": "listUserHistoryCut",
      "outputs": [
        {
          "name": "_poolCuts",
          "type": "uint256[]"
        }
      ],
      "payable": false,
      "stateMutability": "view",
      "type": "function"
    }
  ],
  "bytecode": "0x6060604052336000806101000a81548173ffffffffffffffffffffffffffffffffffffffff021916908373ffffffffffffffffffffffffffffffffffffffff1602179055506110ca806100536000396000f3006060604052600436106100ba576000357c0100000000000000000000000000000000000000000000000000000000900463ffffffff1680630800e5f1146100c85780631106245c1461011d578063363da607146101725780633f12fdaa14610226578063413e1a971461025f5780636ea6c8b2146102995780638da5cb5b1461030a5780638f4ffcb11461035f578063a05863b614610403578063cded58e914610441578063ee05a5d51461047a578063f2fde38b146104ba575b6100c6600160006104f3565b005b34156100d357600080fd5b6100db6105d6565b604051808273ffffffffffffffffffffffffffffffffffffffff1673ffffffffffffffffffffffffffffffffffffffff16815260200191505060405180910390f35b341561012857600080fd5b6101306105fc565b604051808273ffffffffffffffffffffffffffffffffffffffff1673ffffffffffffffffffffffffffffffffffffffff16815260200191505060405180910390f35b341561017d57600080fd5b6101cf600480803573ffffffffffffffffffffffffffffffffffffffff169060200190919080359060200190919080359060200190919080359060200190820180359060200191909192905050610622565b6040518080602001828103825283818151815260200191508051906020019060200280838360005b838110156102125780820151818401526020810190506101f7565b505050509050019250505060405180910390f35b341561023157600080fd5b61025d600480803573ffffffffffffffffffffffffffffffffffffffff169060200190919050506107da565b005b610297600480803560ff1690602001909190803573ffffffffffffffffffffffffffffffffffffffff169060200190919050506104f3565b005b610308600480803590602001908201803590602001908080601f0160208091040260200160405190810160405280939291908181526020018383808284378201915050505050509190803573ffffffffffffffffffffffffffffffffffffffff16906020019091905050610879565b005b341561031557600080fd5b61031d6109bb565b604051808273ffffffffffffffffffffffffffffffffffffffff1673ffffffffffffffffffffffffffffffffffffffff16815260200191505060405180910390f35b341561036a57600080fd5b610401600480803573ffffffffffffffffffffffffffffffffffffffff1690602001909190803590602001909190803573ffffffffffffffffffffffffffffffffffffffff1690602001909190803590602001908201803590602001908080601f016020809104026020016040519081016040528093929190818152602001838380828437820191505050505050919050506109e0565b005b341561040e57600080fd5b610416610d7b565b6040518085815260200184815260200183815260200182815260200194505050505060405180910390f35b341561044c57600080fd5b610478600480803573ffffffffffffffffffffffffffffffffffffffff16906020019091905050610e4a565b005b341561048557600080fd5b6104b860048080359060200190919080359060200190919080359060200190820180359060200191909192905050610ee9565b005b34156104c557600080fd5b6104f1600480803573ffffffffffffffffffffffffffffffffffffffff16906020019091905050610fc0565b005b600160009054906101000a900473ffffffffffffffffffffffffffffffffffffffff1673ffffffffffffffffffffffffffffffffffffffff1663413e1a973484846040518463ffffffff167c0100000000000000000000000000000000000000000000000000000000028152600401808360ff1660ff1681526020018273ffffffffffffffffffffffffffffffffffffffff1673ffffffffffffffffffffffffffffffffffffffff168152602001925050506000604051808303818588803b15156105bd57600080fd5b6125ee5a03f115156105ce57600080fd5b505050505050565b600260009054906101000a900473ffffffffffffffffffffffffffffffffffffffff1681565b600160009054906101000a900473ffffffffffffffffffffffffffffffffffffffff1681565b61062a61105e565b610632611072565b61063a61105e565b6000600160009054906101000a900473ffffffffffffffffffffffffffffffffffffffff1673ffffffffffffffffffffffffffffffffffffffff1663363da6078a8a8a8a8a60006040516220000001526040518663ffffffff167c0100000000000000000000000000000000000000000000000000000000028152600401808673ffffffffffffffffffffffffffffffffffffffff1673ffffffffffffffffffffffffffffffffffffffff168152602001858152602001848152602001806020018281038252848482818152602001925060200280828437820191505096505050505050506220000060405180830381600087803b151561073a57600080fd5b6102c65a03f1151561074b57600080fd5b505050604051806220000001604052925087870360405180591061076c5750595b908082528060200260200182016040525091508790505b868110156107cb5782888203620100008110151561079d57fe5b602002015182828151811015156107b057fe5b90602001906020020181815250508080600101915050610783565b81935050505095945050505050565b6000809054906101000a900473ffffffffffffffffffffffffffffffffffffffff1673ffffffffffffffffffffffffffffffffffffffff163373ffffffffffffffffffffffffffffffffffffffff1614151561083557600080fd5b80600260006101000a81548173ffffffffffffffffffffffffffffffffffffffff021916908373ffffffffffffffffffffffffffffffffffffffff16021790555050565b600160009054906101000a900473ffffffffffffffffffffffffffffffffffffffff1673ffffffffffffffffffffffffffffffffffffffff16636ea6c8b23484846040518463ffffffff167c010000000000000000000000000000000000000000000000000000000002815260040180806020018373ffffffffffffffffffffffffffffffffffffffff1673ffffffffffffffffffffffffffffffffffffffff168152602001828103825284818151815260200191508051906020019080838360005b8381101561095757808201518184015260208101905061093c565b50505050905090810190601f1680156109845780820380516001836020036101000a031916815260200191505b5093505050506000604051808303818588803b15156109a257600080fd5b6125ee5a03f115156109b357600080fd5b505050505050565b6000809054906101000a900473ffffffffffffffffffffffffffffffffffffffff1681565b600260009054906101000a900473ffffffffffffffffffffffffffffffffffffffff1673ffffffffffffffffffffffffffffffffffffffff166323b872dd8530866000604051602001526040518463ffffffff167c0100000000000000000000000000000000000000000000000000000000028152600401808473ffffffffffffffffffffffffffffffffffffffff1673ffffffffffffffffffffffffffffffffffffffff1681526020018373ffffffffffffffffffffffffffffffffffffffff1673ffffffffffffffffffffffffffffffffffffffff1681526020018281526020019350505050602060405180830381600087803b1515610ae157600080fd5b6102c65a03f11515610af257600080fd5b5050506040518051905015610d7557600260009054906101000a900473ffffffffffffffffffffffffffffffffffffffff1673ffffffffffffffffffffffffffffffffffffffff1663a9059cbb600160009054906101000a900473ffffffffffffffffffffffffffffffffffffffff16856040518363ffffffff167c0100000000000000000000000000000000000000000000000000000000028152600401808373ffffffffffffffffffffffffffffffffffffffff1673ffffffffffffffffffffffffffffffffffffffff16815260200182815260200192505050600060405180830381600087803b1515610be757600080fd5b6102c65a03f11515610bf857600080fd5b505050600160009054906101000a900473ffffffffffffffffffffffffffffffffffffffff1673ffffffffffffffffffffffffffffffffffffffff16638f4ffcb1858585856040518563ffffffff167c0100000000000000000000000000000000000000000000000000000000028152600401808573ffffffffffffffffffffffffffffffffffffffff1673ffffffffffffffffffffffffffffffffffffffff1681526020018481526020018373ffffffffffffffffffffffffffffffffffffffff1673ffffffffffffffffffffffffffffffffffffffff16815260200180602001828103825283818151815260200191508051906020019080838360005b83811015610d12578082015181840152602081019050610cf7565b50505050905090810190601f168015610d3f5780820380516001836020036101000a031916815260200191505b5095505050505050600060405180830381600087803b1515610d6057600080fd5b6102c65a03f11515610d7157600080fd5b5050505b50505050565b600080600080600160009054906101000a900473ffffffffffffffffffffffffffffffffffffffff1673ffffffffffffffffffffffffffffffffffffffff1663a05863b66000604051608001526040518163ffffffff167c0100000000000000000000000000000000000000000000000000000000028152600401608060405180830381600087803b1515610e0f57600080fd5b6102c65a03f11515610e2057600080fd5b50505060405180519060200180519060200180519060200180519050935093509350935090919293565b6000809054906101000a900473ffffffffffffffffffffffffffffffffffffffff1673ffffffffffffffffffffffffffffffffffffffff163373ffffffffffffffffffffffffffffffffffffffff16141515610ea557600080fd5b80600160006101000a81548173ffffffffffffffffffffffffffffffffffffffff021916908373ffffffffffffffffffffffffffffffffffffffff16021790555050565b600160009054906101000a900473ffffffffffffffffffffffffffffffffffffffff1673ffffffffffffffffffffffffffffffffffffffff1663ee05a5d5858585856040518563ffffffff167c010000000000000000000000000000000000000000000000000000000002815260040180858152602001848152602001806020018281038252848482818152602001925060200280828437820191505095505050505050600060405180830381600087803b1515610fa657600080fd5b6102c65a03f11515610fb757600080fd5b50505050505050565b6000809054906101000a900473ffffffffffffffffffffffffffffffffffffffff1673ffffffffffffffffffffffffffffffffffffffff163373ffffffffffffffffffffffffffffffffffffffff1614151561101b57600080fd5b806000806101000a81548173ffffffffffffffffffffffffffffffffffffffff021916908373ffffffffffffffffffffffffffffffffffffffff16021790555050565b602060405190810160405280600081525090565b622000006040519081016040528062010000905b600081526020019060019003908161108657905050905600a165627a7a723058206351261cfc9d037c9229b1a9a5ac77745de07c14c6332058783c668ffbb16d280029",
  "source": "pragma solidity ^0.4.18;\nimport \"./Interface.sol\";\nimport \"./owned.sol\";\n\ncontract ChainLotPublic is owned {\n\tChainLotInterface public chainlot;\n\tCLTokenInterface public clToken;\n\tevent BuyTicket(uint poolBlockNumber, bytes numbers, uint ticketCount, uint ticketId, address user, uint blockNumber, uint totalTicketCountSum, uint value);\n\n\tfunction buyTicket(bytes numbers, address referer) payable public {\n\t\tchainlot.buyTicket.value(msg.value)(numbers, referer);\n\t}\n\t\n\tfunction buyRandom(uint8 numberCount, address referer) payable public {\n\t\tchainlot.buyRandom.value(msg.value)(numberCount, referer);\n\t}\n\n\tfunction setChainLotAddress(address chainlotAddress) onlyOwner external {\n\t\tchainlot = ChainLotInterface(chainlotAddress);\n\t}\n\n\tfunction setCLTokenAddress(address cltokenAddress) onlyOwner external {\n\t\tclToken = CLTokenInterface(cltokenAddress);\n\t}\n\n\tfunction receiveApproval(address _from, uint _value, address _token, bytes _extraData) public {\n\t\tif(clToken.transferFrom(_from, this, _value)) {\n\t\t\tclToken.transfer(chainlot, _value);\n\t\t\tchainlot.receiveApproval(_from, _value, _token, _extraData);\n\t\t}\n\t}\n\n\tfunction () payable public {\n\t\tbuyRandom(1, 0);\n\t}\n\n\tfunction retrievePoolInfo() external view returns (uint poolTokens, uint poolBlockNumber, uint totalPoolTokens, uint poolCount) {\n\t\treturn chainlot.retrievePoolInfo();\n\t}\n\n\t//withdraw history cut from pools\n  \tfunction withDrawHistoryCut(uint poolStart, uint poolEnd, uint[] ticketIds) external {\n  \t\tchainlot.withDrawHistoryCut(poolStart, poolEnd, ticketIds);\n  \t}\n\n\n\tfunction listUserHistoryCut(address user, uint poolStart, uint poolEnd, uint[] ticketIds) external view returns(uint[] _poolCuts) {\n\t  \tuint[65536] memory pcresult = chainlot.listUserHistoryCut(user, poolStart, poolEnd, ticketIds);\n\t  \tuint[] memory poolCuts = new uint[](poolEnd - poolStart);\n\t  \tfor(uint i = poolStart; i < poolEnd; i++) {\n\t  \t\tpoolCuts[i] = pcresult[i-poolStart];\n\t  \t}\n\t  \treturn poolCuts;\n\t}\n\n}",
  "sourcePath": "/Users/phx/eth/chainlot/contracts/ChainLotPublic.sol",
  "compiler": {
    "name": "solc",
    "version": "0.4.19+commit.c4cbbb05.Emscripten.clang"
  },
  "schemaVersion": "2.0.0",
  "updatedAt": "2018-06-25T12:47:51.530Z"
}