{
  "contractName": "DrawingTool",
  "abi": [
    {
      "constant": true,
      "inputs": [],
      "name": "clToken",
      "outputs": [
        {
          "name": "",
          "type": "address"
        }
      ],
      "payable": false,
      "stateMutability": "view",
      "type": "function"
    },
    {
      "constant": true,
      "inputs": [],
      "name": "owner",
      "outputs": [
        {
          "name": "",
          "type": "address"
        }
      ],
      "payable": false,
      "stateMutability": "view",
      "type": "function"
    },
    {
      "constant": true,
      "inputs": [],
      "name": "chainLotTicket",
      "outputs": [
        {
          "name": "",
          "type": "address"
        }
      ],
      "payable": false,
      "stateMutability": "view",
      "type": "function"
    },
    {
      "constant": false,
      "inputs": [
        {
          "name": "newOwner",
          "type": "address"
        }
      ],
      "name": "transferOwnership",
      "outputs": [],
      "payable": false,
      "stateMutability": "nonpayable",
      "type": "function"
    },
    {
      "anonymous": false,
      "inputs": [
        {
          "indexed": false,
          "name": "jackpotNumbers",
          "type": "bytes"
        },
        {
          "indexed": false,
          "name": "poolBlockNumber",
          "type": "uint256"
        },
        {
          "indexed": false,
          "name": "allTicketsCount",
          "type": "uint256"
        }
      ],
      "name": "PrepareAward",
      "type": "event"
    },
    {
      "anonymous": false,
      "inputs": [
        {
          "indexed": false,
          "name": "ticketNumber",
          "type": "bytes32"
        },
        {
          "indexed": false,
          "name": "ticketCount",
          "type": "uint256"
        },
        {
          "indexed": false,
          "name": "ticketId",
          "type": "uint256"
        },
        {
          "indexed": false,
          "name": "user",
          "type": "address"
        },
        {
          "indexed": false,
          "name": "blockNumber",
          "type": "uint256"
        },
        {
          "indexed": false,
          "name": "awardValue",
          "type": "uint256"
        }
      ],
      "name": "ToBeAward",
      "type": "event"
    },
    {
      "anonymous": false,
      "inputs": [
        {
          "indexed": false,
          "name": "jackpotNumbers",
          "type": "bytes32"
        },
        {
          "indexed": false,
          "name": "endIndex",
          "type": "uint256"
        },
        {
          "indexed": false,
          "name": "allTicketsCount",
          "type": "uint256"
        }
      ],
      "name": "MatchAwards",
      "type": "event"
    },
    {
      "anonymous": false,
      "inputs": [
        {
          "indexed": false,
          "name": "jackpotNumbers",
          "type": "bytes32"
        },
        {
          "indexed": false,
          "name": "ticketNumber",
          "type": "bytes32"
        },
        {
          "indexed": false,
          "name": "ticketCount",
          "type": "uint256"
        },
        {
          "indexed": false,
          "name": "ticketId",
          "type": "uint256"
        },
        {
          "indexed": false,
          "name": "blockNumber",
          "type": "uint256"
        },
        {
          "indexed": false,
          "name": "ruleId",
          "type": "uint256"
        }
      ],
      "name": "MatchRule",
      "type": "event"
    },
    {
      "anonymous": false,
      "inputs": [
        {
          "indexed": false,
          "name": "ruleId",
          "type": "uint256"
        },
        {
          "indexed": false,
          "name": "toDistCount",
          "type": "uint256"
        },
        {
          "indexed": false,
          "name": "distributedIndex",
          "type": "uint256"
        },
        {
          "indexed": false,
          "name": "ticketIdsLength",
          "type": "uint256"
        },
        {
          "indexed": false,
          "name": "awardRulesLength",
          "type": "uint256"
        }
      ],
      "name": "DistributeAwards",
      "type": "event"
    },
    {
      "anonymous": false,
      "inputs": [
        {
          "indexed": false,
          "name": "winner",
          "type": "address"
        },
        {
          "indexed": false,
          "name": "value",
          "type": "uint256"
        }
      ],
      "name": "TransferAward",
      "type": "event"
    },
    {
      "anonymous": false,
      "inputs": [
        {
          "indexed": false,
          "name": "dev",
          "type": "address"
        },
        {
          "indexed": false,
          "name": "value",
          "type": "uint256"
        }
      ],
      "name": "TransferDevCut",
      "type": "event"
    },
    {
      "anonymous": false,
      "inputs": [
        {
          "indexed": false,
          "name": "user",
          "type": "address"
        },
        {
          "indexed": false,
          "name": "value",
          "type": "uint256"
        }
      ],
      "name": "TransferHistoryCut",
      "type": "event"
    },
    {
      "anonymous": false,
      "inputs": [
        {
          "indexed": false,
          "name": "added",
          "type": "uint256"
        },
        {
          "indexed": false,
          "name": "total",
          "type": "uint256"
        }
      ],
      "name": "AddHistoryCut",
      "type": "event"
    },
    {
      "anonymous": false,
      "inputs": [
        {
          "indexed": false,
          "name": "ruleId",
          "type": "uint8"
        },
        {
          "indexed": false,
          "name": "winnersTicketCount",
          "type": "uint256"
        },
        {
          "indexed": false,
          "name": "awardEther",
          "type": "uint256"
        },
        {
          "indexed": false,
          "name": "totalWinnersAward",
          "type": "uint256"
        },
        {
          "indexed": false,
          "name": "totalTicketCount",
          "type": "uint256"
        }
      ],
      "name": "CalculateAwards",
      "type": "event"
    },
    {
      "anonymous": false,
      "inputs": [
        {
          "indexed": false,
          "name": "ruleId",
          "type": "uint8"
        },
        {
          "indexed": false,
          "name": "totalWinnersAward",
          "type": "uint256"
        },
        {
          "indexed": false,
          "name": "leftBalance",
          "type": "uint256"
        }
      ],
      "name": "SplitAward",
      "type": "event"
    },
    {
      "anonymous": false,
      "inputs": [
        {
          "indexed": false,
          "name": "from",
          "type": "address"
        },
        {
          "indexed": false,
          "name": "to",
          "type": "address"
        },
        {
          "indexed": false,
          "name": "value",
          "type": "uint256"
        }
      ],
      "name": "TransferUnawarded",
      "type": "event"
    },
    {
      "anonymous": false,
      "inputs": [
        {
          "indexed": false,
          "name": "random",
          "type": "uint256"
        },
        {
          "indexed": false,
          "name": "blockNumber",
          "type": "uint256"
        },
        {
          "indexed": false,
          "name": "hash",
          "type": "uint256"
        },
        {
          "indexed": false,
          "name": "addressInt",
          "type": "uint256"
        },
        {
          "indexed": false,
          "name": "shift",
          "type": "uint256"
        },
        {
          "indexed": false,
          "name": "timestamp",
          "type": "uint256"
        },
        {
          "indexed": false,
          "name": "difficulty",
          "type": "uint256"
        }
      ],
      "name": "GenRandomNumbers",
      "type": "event"
    },
    {
      "anonymous": false,
      "inputs": [
        {
          "indexed": false,
          "name": "jackpotNumbers",
          "type": "bytes32"
        },
        {
          "indexed": false,
          "name": "numbers",
          "type": "bytes32"
        },
        {
          "indexed": false,
          "name": "matchedWhiteCount",
          "type": "uint256"
        },
        {
          "indexed": false,
          "name": "matchedYellowCount",
          "type": "uint256"
        },
        {
          "indexed": false,
          "name": "ruleKey",
          "type": "uint256"
        },
        {
          "indexed": false,
          "name": "ruleId",
          "type": "uint256"
        }
      ],
      "name": "GetRuleKey",
      "type": "event"
    },
    {
      "constant": false,
      "inputs": [
        {
          "name": "_chainLotTicket",
          "type": "address"
        },
        {
          "name": "_clToken",
          "type": "address"
        }
      ],
      "name": "init",
      "outputs": [],
      "payable": false,
      "stateMutability": "nonpayable",
      "type": "function"
    },
    {
      "constant": false,
      "inputs": [
        {
          "name": "poolAddress",
          "type": "address"
        }
      ],
      "name": "prepareAwards",
      "outputs": [],
      "payable": false,
      "stateMutability": "nonpayable",
      "type": "function"
    },
    {
      "constant": false,
      "inputs": [
        {
          "name": "poolAddress",
          "type": "address"
        },
        {
          "name": "toMatchCount",
          "type": "uint256"
        }
      ],
      "name": "matchAwards",
      "outputs": [],
      "payable": false,
      "stateMutability": "nonpayable",
      "type": "function"
    },
    {
      "constant": false,
      "inputs": [
        {
          "name": "poolAddress",
          "type": "address"
        },
        {
          "name": "ruleId",
          "type": "uint8"
        },
        {
          "name": "toCalcCount",
          "type": "uint8"
        }
      ],
      "name": "calculateAwards",
      "outputs": [],
      "payable": false,
      "stateMutability": "nonpayable",
      "type": "function"
    },
    {
      "constant": false,
      "inputs": [
        {
          "name": "poolAddress",
          "type": "address"
        }
      ],
      "name": "splitAward",
      "outputs": [],
      "payable": false,
      "stateMutability": "nonpayable",
      "type": "function"
    },
    {
      "constant": false,
      "inputs": [
        {
          "name": "poolAddress",
          "type": "address"
        },
        {
          "name": "ruleId",
          "type": "uint8"
        },
        {
          "name": "toDistCount",
          "type": "uint256"
        }
      ],
      "name": "distributeAwards",
      "outputs": [],
      "payable": false,
      "stateMutability": "nonpayable",
      "type": "function"
    },
    {
      "constant": false,
      "inputs": [
        {
          "name": "poolAddress",
          "type": "address"
        },
        {
          "name": "toAwardCount",
          "type": "uint256"
        }
      ],
      "name": "sendAwards",
      "outputs": [],
      "payable": false,
      "stateMutability": "nonpayable",
      "type": "function"
    },
    {
      "constant": false,
      "inputs": [
        {
          "name": "blockNumber",
          "type": "uint256"
        },
        {
          "name": "shift",
          "type": "uint256"
        },
        {
          "name": "maxWhiteNumberCount",
          "type": "uint8"
        },
        {
          "name": "maxYellowNumberCount",
          "type": "uint8"
        },
        {
          "name": "maxWhiteNumber",
          "type": "uint8"
        },
        {
          "name": "maxYellowNumber",
          "type": "uint8"
        }
      ],
      "name": "genRandomNumbers",
      "outputs": [
        {
          "name": "_numbers",
          "type": "bytes"
        }
      ],
      "payable": false,
      "stateMutability": "nonpayable",
      "type": "function"
    }
  ],
  "bytecode": "0x6060604052336000806101000a81548173ffffffffffffffffffffffffffffffffffffffff021916908373ffffffffffffffffffffffffffffffffffffffff1602179055506136e1806100536000396000f3006060604052600436106100ba576000357c0100000000000000000000000000000000000000000000000000000000900463ffffffff1680630800e5f1146100bf578063797d3687146101145780638da5cb5b1461014d578063a2a1316c146101a2578063c04cb540146101f0578063d12efbf6146102c5578063e1e3af6914610307578063f09a40161461035c578063f2fde38b146103b4578063f7495d24146103ed578063f7a371c91461042f578063fb9c3a6514610468575b600080fd5b34156100ca57600080fd5b6100d26104b9565b604051808273ffffffffffffffffffffffffffffffffffffffff1673ffffffffffffffffffffffffffffffffffffffff16815260200191505060405180910390f35b341561011f57600080fd5b61014b600480803573ffffffffffffffffffffffffffffffffffffffff169060200190919050506104df565b005b341561015857600080fd5b610160610ac3565b604051808273ffffffffffffffffffffffffffffffffffffffff1673ffffffffffffffffffffffffffffffffffffffff16815260200191505060405180910390f35b34156101ad57600080fd5b6101ee600480803573ffffffffffffffffffffffffffffffffffffffff1690602001909190803560ff16906020019091908035906020019091905050610ae8565b005b34156101fb57600080fd5b61024a600480803590602001909190803590602001909190803560ff1690602001909190803560ff1690602001909190803560ff1690602001909190803560ff16906020019091905050610f62565b6040518080602001828103825283818151815260200191508051906020019080838360005b8381101561028a57808201518184015260208101905061026f565b50505050905090810190601f1680156102b75780820380516001836020036101000a031916815260200191505b509250505060405180910390f35b34156102d057600080fd5b610305600480803573ffffffffffffffffffffffffffffffffffffffff169060200190919080359060200190919050506111db565b005b341561031257600080fd5b61031a6118f8565b604051808273ffffffffffffffffffffffffffffffffffffffff1673ffffffffffffffffffffffffffffffffffffffff16815260200191505060405180910390f35b341561036757600080fd5b6103b2600480803573ffffffffffffffffffffffffffffffffffffffff1690602001909190803573ffffffffffffffffffffffffffffffffffffffff1690602001909190505061191e565b005b34156103bf57600080fd5b6103eb600480803573ffffffffffffffffffffffffffffffffffffffff169060200190919050506119a4565b005b34156103f857600080fd5b61042d600480803573ffffffffffffffffffffffffffffffffffffffff16906020019091908035906020019091905050611a42565b005b341561043a57600080fd5b610466600480803573ffffffffffffffffffffffffffffffffffffffff16906020019091905050611bdf565b005b341561047357600080fd5b6104b7600480803573ffffffffffffffffffffffffffffffffffffffff1690602001909190803560ff1690602001909190803560ff169060200190919050506122d6565b005b600260009054906101000a900473ffffffffffffffffffffffffffffffffffffffff1681565b60008060008060009054906101000a900473ffffffffffffffffffffffffffffffffffffffff1673ffffffffffffffffffffffffffffffffffffffff163373ffffffffffffffffffffffffffffffffffffffff1614151561053f57600080fd5b8392506003600781111561054f57fe5b8373ffffffffffffffffffffffffffffffffffffffff1663c040e6b86000604051602001526040518163ffffffff167c0100000000000000000000000000000000000000000000000000000000028152600401602060405180830381600087803b15156105bb57600080fd5b6102c65a03f115156105cc57600080fd5b5050506040518051905060078111156105e157fe5b1415156105ed57600080fd5b600260009054906101000a900473ffffffffffffffffffffffffffffffffffffffff1673ffffffffffffffffffffffffffffffffffffffff166370a08231306000604051602001526040518263ffffffff167c0100000000000000000000000000000000000000000000000000000000028152600401808273ffffffffffffffffffffffffffffffffffffffff1673ffffffffffffffffffffffffffffffffffffffff168152602001915050602060405180830381600087803b15156106b257600080fd5b6102c65a03f115156106c357600080fd5b505050604051805190509150600090505b8273ffffffffffffffffffffffffffffffffffffffff16637baf3b0e6000604051602001526040518163ffffffff167c0100000000000000000000000000000000000000000000000000000000028152600401602060405180830381600087803b151561074057600080fd5b6102c65a03f1151561075157600080fd5b505050604051805190508160ff161015610a2c578273ffffffffffffffffffffffffffffffffffffffff1663c3c1b4a3826000604051602001526040518263ffffffff167c0100000000000000000000000000000000000000000000000000000000028152600401808260ff1660ff168152602001915050602060405180830381600087803b15156107e257600080fd5b6102c65a03f115156107f357600080fd5b50505060405180519050821015156108a6578273ffffffffffffffffffffffffffffffffffffffff1663c3c1b4a3826000604051602001526040518263ffffffff167c0100000000000000000000000000000000000000000000000000000000028152600401808260ff1660ff168152602001915050602060405180830381600087803b151561088257600080fd5b6102c65a03f1151561089357600080fd5b505050604051805190508203915061093b565b8273ffffffffffffffffffffffffffffffffffffffff1663b61bf92a82846040518363ffffffff167c0100000000000000000000000000000000000000000000000000000000028152600401808360ff1660ff16815260200182815260200192505050600060405180830381600087803b151561092257600080fd5b6102c65a03f1151561093357600080fd5b505050600091505b7f53c5531a2a6e3b9168a9afac57f2dd8c3dffaad74813d964e6cf1ebbca23b9b4818473ffffffffffffffffffffffffffffffffffffffff1663c3c1b4a3846000604051602001526040518263ffffffff167c0100000000000000000000000000000000000000000000000000000000028152600401808260ff1660ff168152602001915050602060405180830381600087803b15156109da57600080fd5b6102c65a03f115156109eb57600080fd5b5050506040518051905084604051808460ff1660ff168152602001838152602001828152602001935050505060405180910390a180806001019150506106d4565b8273ffffffffffffffffffffffffffffffffffffffff1663ce3cd99760046040518263ffffffff167c010000000000000000000000000000000000000000000000000000000002815260040180826007811115610a8557fe5b60ff168152602001915050600060405180830381600087803b1515610aa957600080fd5b6102c65a03f11515610aba57600080fd5b50505050505050565b6000809054906101000a900473ffffffffffffffffffffffffffffffffffffffff1681565b6000806000806000809054906101000a900473ffffffffffffffffffffffffffffffffffffffff1673ffffffffffffffffffffffffffffffffffffffff163373ffffffffffffffffffffffffffffffffffffffff16141515610b4957600080fd5b86935060046007811115610b5957fe5b8473ffffffffffffffffffffffffffffffffffffffff1663c040e6b86000604051602001526040518163ffffffff167c0100000000000000000000000000000000000000000000000000000000028152600401602060405180830381600087803b1515610bc557600080fd5b6102c65a03f11515610bd657600080fd5b505050604051805190506007811115610beb57fe5b141515610bf757600080fd5b8373ffffffffffffffffffffffffffffffffffffffff1663ffa30903876000604051602001526040518263ffffffff167c0100000000000000000000000000000000000000000000000000000000028152600401808260ff1660ff168152602001915050602060405180830381600087803b1515610c7457600080fd5b6102c65a03f11515610c8557600080fd5b5050506040518051905092508373ffffffffffffffffffffffffffffffffffffffff1663b1840019876000604051602001526040518263ffffffff167c0100000000000000000000000000000000000000000000000000000000028152600401808260ff1660ff168152602001915050602060405180830381600087803b1515610d0e57600080fd5b6102c65a03f11515610d1f57600080fd5b505050604051805190509150848201905082811115610d3c578290505b610d488487848461271a565b60018473ffffffffffffffffffffffffffffffffffffffff16637baf3b0e6000604051602001526040518163ffffffff167c0100000000000000000000000000000000000000000000000000000000028152600401602060405180830381600087803b1515610db657600080fd5b6102c65a03f11515610dc757600080fd5b50505060405180519050038660ff16148015610de257508281145b15610e79578373ffffffffffffffffffffffffffffffffffffffff1663ce3cd99760056040518263ffffffff167c010000000000000000000000000000000000000000000000000000000002815260040180826007811115610e4057fe5b60ff168152602001915050600060405180830381600087803b1515610e6457600080fd5b6102c65a03f11515610e7557600080fd5b5050505b7f2e8424f61cda89b083f4a3c734fe15d3fc283d0b1cc57d3579caf54b8923fc1f868683868873ffffffffffffffffffffffffffffffffffffffff16637baf3b0e6000604051602001526040518163ffffffff167c0100000000000000000000000000000000000000000000000000000000028152600401602060405180830381600087803b1515610f0a57600080fd5b6102c65a03f11515610f1b57600080fd5b50505060405180519050604051808660ff1681526020018581526020018481526020018381526020018281526020019550505050505060405180910390a150505050505050565b610f6a6136a1565b6000806000610f776136a1565b6000438c101515610f8757600080fd5b8b406001900494503273ffffffffffffffffffffffffffffffffffffffff1693508484029250424486866040518085815260200184815260200183815260200182815260200194505050505060405180910390206001900492507f2c7df83ce284dc9c63cf5d2312952dd5ccecf8f255192742b2ca327d3e6c6a43838d87878f42446040518088815260200187815260200186815260200185815260200184815260200183815260200182815260200197505050505050505060405180910390a16000831415151561105857600080fd5b8a839060020a90049250888a0160ff166040518059106110755750595b9080825280601f01601f19166020018201604052509150600090505b8960ff168160ff16101561112c5760018860ff16848115156110af57fe5b06017f010000000000000000000000000000000000000000000000000000000000000002828260ff168151811015156110e457fe5b9060200101907effffffffffffffffffffffffffffffffffffffffffffffffffffffffffffff1916908160001a9053506008839060020a900492508080600101915050611091565b8990505b81518160ff1610156111c95760018760ff168481151561114c57fe5b06017f010000000000000000000000000000000000000000000000000000000000000002828260ff1681518110151561118157fe5b9060200101907effffffffffffffffffffffffffffffffffffffffffffffffffffffffffffff1916908160001a9053506008839060020a900492508080600101915050611130565b81955050505050509695505050505050565b6000806000806000806000806000806000809054906101000a900473ffffffffffffffffffffffffffffffffffffffff1673ffffffffffffffffffffffffffffffffffffffff163373ffffffffffffffffffffffffffffffffffffffff1614151561124557600080fd5b8b99506001600781111561125557fe5b8a73ffffffffffffffffffffffffffffffffffffffff1663c040e6b86000604051602001526040518163ffffffff167c0100000000000000000000000000000000000000000000000000000000028152600401602060405180830381600087803b15156112c157600080fd5b6102c65a03f115156112d257600080fd5b5050506040518051905060078111156112e757fe5b1415156112f357600080fd5b8973ffffffffffffffffffffffffffffffffffffffff1663e7cfbe906000604051602001526040518163ffffffff167c0100000000000000000000000000000000000000000000000000000000028152600401602060405180830381600087803b151561135f57600080fd5b6102c65a03f1151561137057600080fd5b5050506040518051905098508a8a73ffffffffffffffffffffffffffffffffffffffff1663e2c315616000604051602001526040518163ffffffff167c0100000000000000000000000000000000000000000000000000000000028152600401602060405180830381600087803b15156113e957600080fd5b6102c65a03f115156113fa57600080fd5b505050604051805190500197508973ffffffffffffffffffffffffffffffffffffffff1663758b9ee06000604051602001526040518163ffffffff167c0100000000000000000000000000000000000000000000000000000000028152600401602060405180830381600087803b151561147357600080fd5b6102c65a03f1151561148457600080fd5b5050506040518051905096508688111561149c578697505b8973ffffffffffffffffffffffffffffffffffffffff1663e2c315616000604051602001526040518163ffffffff167c0100000000000000000000000000000000000000000000000000000000028152600401602060405180830381600087803b151561150857600080fd5b6102c65a03f1151561151957600080fd5b5050506040518051905095505b8786101561177f578973ffffffffffffffffffffffffffffffffffffffff16635b328df6876000604051602001526040518263ffffffff167c010000000000000000000000000000000000000000000000000000000002815260040180828152602001915050602060405180830381600087803b15156115a557600080fd5b6102c65a03f115156115b657600080fd5b5050506040518051905094506115cd858b8b612c4c565b809450819550829650839750505050506000841015801561167357508973ffffffffffffffffffffffffffffffffffffffff16637baf3b0e6000604051602001526040518163ffffffff167c0100000000000000000000000000000000000000000000000000000000028152600401602060405180830381600087803b151561165557600080fd5b6102c65a03f1151561166657600080fd5b5050506040518051905084105b15611772578973ffffffffffffffffffffffffffffffffffffffff16636541e02885876040518363ffffffff167c01000000000000000000000000000000000000000000000000000000000281526004018083815260200182815260200192505050600060405180830381600087803b15156116ee57600080fd5b6102c65a03f115156116ff57600080fd5b5050507f1fb5f1a98ced1998480b5d7ae5f89afc7526c5219722514ed7312200757ee0d08984848885896040518087600019166000191681526020018660001916600019168152602001858152602001848152602001838152602001828152602001965050505050505060405180910390a15b8580600101965050611526565b7f68919ecf833aa1399f274982eff743c221734b0745cfeb4cd853a0c4e3ab5694898989604051808460001916600019168152602001838152602001828152602001935050505060405180910390a18973ffffffffffffffffffffffffffffffffffffffff1663bd6a4687896040518263ffffffff167c010000000000000000000000000000000000000000000000000000000002815260040180828152602001915050600060405180830381600087803b151561183c57600080fd5b6102c65a03f1151561184d57600080fd5b505050868814156118ea578973ffffffffffffffffffffffffffffffffffffffff1663ce3cd99760026040518263ffffffff167c0100000000000000000000000000000000000000000000000000000000028152600401808260078111156118b157fe5b60ff168152602001915050600060405180830381600087803b15156118d557600080fd5b6102c65a03f115156118e657600080fd5b5050505b505050505050505050505050565b600160009054906101000a900473ffffffffffffffffffffffffffffffffffffffff1681565b81600160006101000a81548173ffffffffffffffffffffffffffffffffffffffff021916908373ffffffffffffffffffffffffffffffffffffffff16021790555080600260006101000a81548173ffffffffffffffffffffffffffffffffffffffff021916908373ffffffffffffffffffffffffffffffffffffffff1602179055505050565b6000809054906101000a900473ffffffffffffffffffffffffffffffffffffffff1673ffffffffffffffffffffffffffffffffffffffff163373ffffffffffffffffffffffffffffffffffffffff161415156119ff57600080fd5b806000806101000a81548173ffffffffffffffffffffffffffffffffffffffff021916908373ffffffffffffffffffffffffffffffffffffffff16021790555050565b6000806000809054906101000a900473ffffffffffffffffffffffffffffffffffffffff1673ffffffffffffffffffffffffffffffffffffffff163373ffffffffffffffffffffffffffffffffffffffff16141515611aa057600080fd5b83915060056007811115611ab057fe5b8273ffffffffffffffffffffffffffffffffffffffff1663c040e6b86000604051602001526040518163ffffffff167c0100000000000000000000000000000000000000000000000000000000028152600401602060405180830381600087803b1515611b1c57600080fd5b6102c65a03f11515611b2d57600080fd5b505050604051805190506007811115611b4257fe5b141515611b4e57600080fd5b828273ffffffffffffffffffffffffffffffffffffffff16630891690b6000604051602001526040518163ffffffff167c0100000000000000000000000000000000000000000000000000000000028152600401602060405180830381600087803b1515611bbb57600080fd5b6102c65a03f11515611bcc57600080fd5b5050506040518051905001905050505050565b6000611be96136a1565b6000809054906101000a900473ffffffffffffffffffffffffffffffffffffffff1673ffffffffffffffffffffffffffffffffffffffff163373ffffffffffffffffffffffffffffffffffffffff16141515611c4457600080fd5b82915060006007811115611c5457fe5b8273ffffffffffffffffffffffffffffffffffffffff1663c040e6b86000604051602001526040518163ffffffff167c0100000000000000000000000000000000000000000000000000000000028152600401602060405180830381600087803b1515611cc057600080fd5b6102c65a03f11515611cd157600080fd5b505050604051805190506007811115611ce657fe5b141515611cf257600080fd5b611f9f8273ffffffffffffffffffffffffffffffffffffffff16639eb623d76000604051602001526040518163ffffffff167c0100000000000000000000000000000000000000000000000000000000028152600401602060405180830381600087803b1515611d6157600080fd5b6102c65a03f11515611d7257600080fd5b5050506040518051905060088473ffffffffffffffffffffffffffffffffffffffff16639c7365e56000604051602001526040518163ffffffff167c0100000000000000000000000000000000000000000000000000000000028152600401602060405180830381600087803b1515611dea57600080fd5b6102c65a03f11515611dfb57600080fd5b505050604051805190508573ffffffffffffffffffffffffffffffffffffffff166337f4a9c46000604051602001526040518163ffffffff167c0100000000000000000000000000000000000000000000000000000000028152600401602060405180830381600087803b1515611e7157600080fd5b6102c65a03f11515611e8257600080fd5b505050604051805190508673ffffffffffffffffffffffffffffffffffffffff166370f4c3436000604051602001526040518163ffffffff167c0100000000000000000000000000000000000000000000000000000000028152600401602060405180830381600087803b1515611ef857600080fd5b6102c65a03f11515611f0957600080fd5b505050604051805190508773ffffffffffffffffffffffffffffffffffffffff16635f7d92876000604051602001526040518163ffffffff167c0100000000000000000000000000000000000000000000000000000000028152600401602060405180830381600087803b1515611f7f57600080fd5b6102c65a03f11515611f9057600080fd5b50505060405180519050610f62565b90508173ffffffffffffffffffffffffffffffffffffffff1663ec6ce0d1826040518263ffffffff167c01000000000000000000000000000000000000000000000000000000000281526004018080602001828103825283818151815260200191508051906020019080838360005b8381101561202957808201518184015260208101905061200e565b50505050905090810190601f1680156120565780820380516001836020036101000a031916815260200191505b5092505050600060405180830381600087803b151561207457600080fd5b6102c65a03f1151561208557600080fd5b5050507fb4a3d365f86774ee97301c1ffa4061a05cffa5fcef064c4f3890a92d1bd0e2d7818373ffffffffffffffffffffffffffffffffffffffff16639eb623d76000604051602001526040518163ffffffff167c0100000000000000000000000000000000000000000000000000000000028152600401602060405180830381600087803b151561211657600080fd5b6102c65a03f1151561212757600080fd5b505050604051805190508473ffffffffffffffffffffffffffffffffffffffff1663758b9ee06000604051602001526040518163ffffffff167c0100000000000000000000000000000000000000000000000000000000028152600401602060405180830381600087803b151561219d57600080fd5b6102c65a03f115156121ae57600080fd5b505050604051805190506040518080602001848152602001838152602001828103825285818151815260200191508051906020019080838360005b838110156122045780820151818401526020810190506121e9565b50505050905090810190601f1680156122315780820380516001836020036101000a031916815260200191505b5094505050505060405180910390a18173ffffffffffffffffffffffffffffffffffffffff1663ce3cd99760016040518263ffffffff167c01000000000000000000000000000000000000000000000000000000000281526004018082600781111561229957fe5b60ff168152602001915050600060405180830381600087803b15156122bd57600080fd5b6102c65a03f115156122ce57600080fd5b505050505050565b60008060008060008060009054906101000a900473ffffffffffffffffffffffffffffffffffffffff1673ffffffffffffffffffffffffffffffffffffffff163373ffffffffffffffffffffffffffffffffffffffff1614151561233957600080fd5b8794506002600781111561234957fe5b8573ffffffffffffffffffffffffffffffffffffffff1663c040e6b86000604051602001526040518163ffffffff167c0100000000000000000000000000000000000000000000000000000000028152600401602060405180830381600087803b15156123b557600080fd5b6102c65a03f115156123c657600080fd5b5050506040518051905060078111156123db57fe5b1415156123e757600080fd5b8473ffffffffffffffffffffffffffffffffffffffff1663ffa30903886000604051602001526040518263ffffffff167c0100000000000000000000000000000000000000000000000000000000028152600401808260ff1660ff168152602001915050602060405180830381600087803b151561246457600080fd5b6102c65a03f1151561247557600080fd5b5050506040518051905093508473ffffffffffffffffffffffffffffffffffffffff16637855e6ae886000604051602001526040518263ffffffff167c0100000000000000000000000000000000000000000000000000000000028152600401808260ff1660ff168152602001915050602060405180830381600087803b15156124fe57600080fd5b6102c65a03f1151561250f57600080fd5b5050506040518051905092508473ffffffffffffffffffffffffffffffffffffffff1663b787e6c8886000604051602001526040518263ffffffff167c0100000000000000000000000000000000000000000000000000000000028152600401808260ff1660ff168152602001915050602060405180830381600087803b151561259857600080fd5b6102c65a03f115156125a957600080fd5b505050604051805190509150828411156125df578560ff1683019050838111156125d1578390505b6125de858885848661324c565b5b60018573ffffffffffffffffffffffffffffffffffffffff16637baf3b0e6000604051602001526040518163ffffffff167c0100000000000000000000000000000000000000000000000000000000028152600401602060405180830381600087803b151561264d57600080fd5b6102c65a03f1151561265e57600080fd5b50505060405180519050038760ff1614801561267957508381145b15612710578473ffffffffffffffffffffffffffffffffffffffff1663ce3cd99760036040518263ffffffff167c0100000000000000000000000000000000000000000000000000000000028152600401808260078111156126d757fe5b60ff168152602001915050600060405180830381600087803b15156126fb57600080fd5b6102c65a03f1151561270c57600080fd5b5050505b5050505050505050565b60008060008060008060008060008060008060009054906101000a900473ffffffffffffffffffffffffffffffffffffffff1673ffffffffffffffffffffffffffffffffffffffff163373ffffffffffffffffffffffffffffffffffffffff1614151561278657600080fd5b8e73ffffffffffffffffffffffffffffffffffffffff1663958d8a2f8f6000604051602001526040518263ffffffff167c0100000000000000000000000000000000000000000000000000000000028152600401808260ff1660ff168152602001915050602060405180830381600087803b151561280357600080fd5b6102c65a03f1151561281457600080fd5b505050604051805190509a508e73ffffffffffffffffffffffffffffffffffffffff1663c3c1b4a38f6000604051602001526040518263ffffffff167c0100000000000000000000000000000000000000000000000000000000028152600401808260ff1660ff168152602001915050602060405180830381600087803b151561289d57600080fd5b6102c65a03f115156128ae57600080fd5b50505060405180519050995060008b1115612bab578c98505b8b891015612baa578e73ffffffffffffffffffffffffffffffffffffffff1663df85d49d8f8b6000604051602001526040518363ffffffff167c0100000000000000000000000000000000000000000000000000000000028152600401808360ff1660ff16815260200182815260200192505050602060405180830381600087803b151561295457600080fd5b6102c65a03f1151561296557600080fd5b505050604051805190509750600160009054906101000a900473ffffffffffffffffffffffffffffffffffffffff1673ffffffffffffffffffffffffffffffffffffffff16637dc379fa89600060405160a001526040518263ffffffff167c01000000000000000000000000000000000000000000000000000000000281526004018082815260200191505060a060405180830381600087803b1515612a0a57600080fd5b6102c65a03f11515612a1b57600080fd5b505050604051805190602001805190602001805190602001805190602001805190508367ffffffffffffffff169350809750819850829950839a50849b5050505050508a8a8502811515612a6b57fe5b0491508e73ffffffffffffffffffffffffffffffffffffffff166304d3c34889846000604051602001526040518363ffffffff167c01000000000000000000000000000000000000000000000000000000000281526004018083815260200182815260200192505050602060405180830381600087803b1515612aed57600080fd5b6102c65a03f11515612afe57600080fd5b5050506040518051905090507ff01f73b5111110cb3356e832f9bcf3e577dd6a0ddab27fe95d08a5739731a6be85858a8487876040518087600019166000191681526020018681526020018581526020018473ffffffffffffffffffffffffffffffffffffffff1673ffffffffffffffffffffffffffffffffffffffff168152602001838152602001828152602001965050505050505060405180910390a188806001019950506128c7565b5b8e73ffffffffffffffffffffffffffffffffffffffff16633ca7b3c18f8e6040518363ffffffff167c0100000000000000000000000000000000000000000000000000000000028152600401808360ff1660ff16815260200182815260200192505050600060405180830381600087803b1515612c2757600080fd5b6102c65a03f11515612c3857600080fd5b505050505050505050505050505050505050565b600080600080600080600080600080600160009054906101000a900473ffffffffffffffffffffffffffffffffffffffff1673ffffffffffffffffffffffffffffffffffffffff16637dc379fa8e600060405160a001526040518263ffffffff167c01000000000000000000000000000000000000000000000000000000000281526004018082815260200191505060a060405180830381600087803b1515612cf457600080fd5b6102c65a03f11515612d0557600080fd5b505050604051805190602001805190602001805190602001805190602001805190508367ffffffffffffffff169350809b50819c50829d50839950849a5050505050506000935060009250600091505b8b73ffffffffffffffffffffffffffffffffffffffff16639c7365e56000604051602001526040518163ffffffff167c0100000000000000000000000000000000000000000000000000000000028152600401602060405180830381600087803b1515612dc157600080fd5b6102c65a03f11515612dd257600080fd5b5050506040518051905060ff16821015612ea8578a82602081101515612df457fe5b1a7f0100000000000000000000000000000000000000000000000000000000000000027effffffffffffffffffffffffffffffffffffffffffffffffffffffffffffff19168983602081101515612e4757fe5b1a7f0100000000000000000000000000000000000000000000000000000000000000027effffffffffffffffffffffffffffffffffffffffffffffffffffffffffffff19161415612e9b5783806001019450505b8180600101925050612d55565b8b73ffffffffffffffffffffffffffffffffffffffff16639c7365e56000604051602001526040518163ffffffff167c0100000000000000000000000000000000000000000000000000000000028152600401602060405180830381600087803b1515612f1457600080fd5b6102c65a03f11515612f2557600080fd5b5050506040518051905060ff1691505b8b73ffffffffffffffffffffffffffffffffffffffff166337f4a9c46000604051602001526040518163ffffffff167c0100000000000000000000000000000000000000000000000000000000028152600401602060405180830381600087803b1515612fa157600080fd5b6102c65a03f11515612fb257600080fd5b505050604051805190508c73ffffffffffffffffffffffffffffffffffffffff16639c7365e56000604051602001526040518163ffffffff167c0100000000000000000000000000000000000000000000000000000000028152600401602060405180830381600087803b151561302857600080fd5b6102c65a03f1151561303957600080fd5b505050604051805190500160ff16821015613110578a8260208110151561305c57fe5b1a7f0100000000000000000000000000000000000000000000000000000000000000027effffffffffffffffffffffffffffffffffffffffffffffffffffffffffffff191689836020811015156130af57fe5b1a7f0100000000000000000000000000000000000000000000000000000000000000027effffffffffffffffffffffffffffffffffffffffffffffffffffffffffffff191614156131035782806001019350505b8180600101925050612f35565b6131a484848e73ffffffffffffffffffffffffffffffffffffffff166337f4a9c46000604051602001526040518163ffffffff167c0100000000000000000000000000000000000000000000000000000000028152600401602060405180830381600087803b151561318157600080fd5b6102c65a03f1151561319257600080fd5b5050506040518051905060ff1661368e565b905060018c73ffffffffffffffffffffffffffffffffffffffff1663aa2aaeca836000604051602001526040518263ffffffff167c010000000000000000000000000000000000000000000000000000000002815260040180828152602001915050602060405180830381600087803b151561321f57600080fd5b6102c65a03f1151561323057600080fd5b5050506040518051905003995050505050505093509350935093565b60008060008060008060008060008060009054906101000a900473ffffffffffffffffffffffffffffffffffffffff1673ffffffffffffffffffffffffffffffffffffffff163373ffffffffffffffffffffffffffffffffffffffff161415156132b557600080fd5b8b98505b8a8910156134715760009750600096508d73ffffffffffffffffffffffffffffffffffffffff1663df85d49d8e8b6000604051602001526040518363ffffffff167c0100000000000000000000000000000000000000000000000000000000028152600401808360ff1660ff16815260200182815260200192505050602060405180830381600087803b151561334e57600080fd5b6102c65a03f1151561335f57600080fd5b505050604051805190509550600160009054906101000a900473ffffffffffffffffffffffffffffffffffffffff1673ffffffffffffffffffffffffffffffffffffffff16637dc379fa87600060405160a001526040518263ffffffff167c01000000000000000000000000000000000000000000000000000000000281526004018082815260200191505060a060405180830381600087803b151561340457600080fd5b6102c65a03f1151561341557600080fd5b505050604051805190602001805190602001805190602001805190602001805190508367ffffffffffffffff169350809550819650829750839850849950505050505089820288019750818701965088806001019950506132b9565b8d73ffffffffffffffffffffffffffffffffffffffff1663703a66d28e8a6040518363ffffffff167c0100000000000000000000000000000000000000000000000000000000028152600401808360ff1660ff16815260200182815260200192505050600060405180830381600087803b15156134ed57600080fd5b6102c65a03f115156134fe57600080fd5b5050508d73ffffffffffffffffffffffffffffffffffffffff1663d87d8b3d8e896040518363ffffffff167c0100000000000000000000000000000000000000000000000000000000028152600401808360ff1660ff16815260200182815260200192505050600060405180830381600087803b151561357d57600080fd5b6102c65a03f1151561358e57600080fd5b5050508d73ffffffffffffffffffffffffffffffffffffffff1663b9f85c588e8d6040518363ffffffff167c0100000000000000000000000000000000000000000000000000000000028152600401808360ff1660ff16815260200182815260200192505050600060405180830381600087803b151561360d57600080fd5b6102c65a03f1151561361e57600080fd5b5050507f808ec1b88c41a836613e4712515f12af4d4862d29ac075e1d013a1e59d67beb88d8c8c8b8b604051808660ff1660ff1681526020018581526020018481526020018381526020018281526020019550505050505060405180910390a15050505050505050505050505050565b6000826001830185020190509392505050565b6020604051908101604052806000815250905600a165627a7a723058200ef68ce202356175515e3a42c65e1618301c0009136e402cd5e7d907964994fc0029",
  "source": "pragma solidity ^0.4.4;\nimport \"./owned.sol\";\nimport \"./Interface.sol\";\nimport \"./ChainLotPool.sol\";\n\ncontract DrawingTool is owned{\n\n\tChainLotTicketInterface public chainLotTicket;\n  \tCLTokenInterface public clToken;\n  \t\n  \tevent PrepareAward(bytes jackpotNumbers, uint poolBlockNumber, uint allTicketsCount);\n\tevent ToBeAward(bytes32 ticketNumber, uint ticketCount, uint ticketId, address user, uint blockNumber, uint awardValue);\n\tevent MatchAwards(bytes32 jackpotNumbers, uint endIndex, uint allTicketsCount);\n\tevent MatchRule(bytes32 jackpotNumbers, bytes32 ticketNumber, uint ticketCount, uint ticketId, uint blockNumber, uint ruleId);\n\tevent DistributeAwards(uint ruleId, uint toDistCount, uint distributedIndex, uint ticketIdsLength, uint awardRulesLength);\n  \tevent TransferAward(address winner, uint value);\n  \tevent TransferDevCut(address dev, uint value);\n  \tevent TransferHistoryCut(address user, uint value);\n  \tevent AddHistoryCut(uint added, uint total);\n  \tevent CalculateAwards(uint8 ruleId, uint winnersTicketCount, uint awardEther, uint totalWinnersAward, uint totalTicketCount);\n  \tevent SplitAward(uint8 ruleId, uint totalWinnersAward, uint leftBalance);\n  \tevent TransferUnawarded(address from, address to, uint value);\n  \tevent GenRandomNumbers(uint random, uint blockNumber, uint hash, uint addressInt, uint shift, uint timestamp, uint difficulty);\n\n\tstruct awardRule{\n\t\tuint whiteNumberCount;\n\t\tuint yellowNumberCount;\n\t\tuint awardEther;\n\t}\n\n\tstruct awardData {\n\t\taddress user;\n\t\tuint value;\n\t}\n\n  \tstruct winnerTicketQueue {\n    \tuint[] ticketIds;\n    \tuint processedIndex;\n    \tuint distributedIndex;\n  \t}\n\n  \t\n  \tfunction init(ChainLotTicketInterface _chainLotTicket,\n\t\t\t\t\t\tCLTokenInterface _clToken) public {\n  \t\tchainLotTicket = _chainLotTicket;\n\t\tclToken = _clToken;\n  \t}\n\n  \tfunction getRuleKey(uint _whiteNumberCount, uint _yellowNumberCount, uint maxYellowNumberCount) \n  \t\tinternal view returns(uint index){\n\t\treturn _whiteNumberCount*(maxYellowNumberCount+1)+_yellowNumberCount;\n\t}\n\n\t//calculate jackpot \n\tfunction prepareAwards(address poolAddress) onlyOwner external {\n\t\tChainLotPool pool = ChainLotPool(poolAddress);\n\t\trequire(pool.stage() == ChainLotPool.DrawingStage.INITIED);\n\n\t\tbytes memory jackpotNumbers = genRandomNumbers(pool.poolBlockNumber(), 8, \n\t\t\tpool.maxWhiteNumberCount(), pool.maxYellowNumberCount(), pool.maxWhiteNumber(), pool.maxYellowNumber());\n\t\t\n\t\tpool.setJackpotNumbers(jackpotNumbers);\n\n\t\tPrepareAward(jackpotNumbers, pool.poolBlockNumber(), pool.getAllTicketsCount());\n\n\t\tpool.setStage(ChainLotPool.DrawingStage.PREPARED);\n\t}\n\n\t//match winners\n\tfunction matchAwards(address poolAddress, uint toMatchCount) onlyOwner \n\t\texternal {\n\t\tChainLotPool pool = ChainLotPool(poolAddress);\n\t\trequire(pool.stage() == ChainLotPool.DrawingStage.PREPARED);\n\n\t\tbytes32 jackpotNumbers = pool.getJackpotNumbers();\n\t\t//statistic winners\n\t\tuint endIndex = pool.lastMatchedTicketIndex() + toMatchCount;\n\t\tuint allTicketsCount = pool.getAllTicketsCount();\n\t\tif(endIndex > allTicketsCount) endIndex = allTicketsCount;\n\n\t\tfor(uint i = pool.lastMatchedTicketIndex(); i < endIndex; i ++) {\n\t\t\tuint ticketId = pool.allTicketsId(i);\n\t\t\t\n\t\t\tuint ruleId; bytes32 numbers;uint count;uint blockNumber;\n\t\t\t(ruleId, numbers, count, blockNumber) = matchRule(ticketId, pool, jackpotNumbers);\n\t\t\t\n\t\t\tif(ruleId >= 0 && ruleId < pool.getAwardRulesLength()) {\n\t\t        //match one rule!\n\t\t        pool.pushWinnerTicket(ruleId, ticketId);\n\t\t        MatchRule(jackpotNumbers, numbers, count, ticketId, blockNumber, ruleId);\n\t\t\t}\n\t\t}\n\n\t\tMatchAwards(jackpotNumbers, endIndex, allTicketsCount);\n\n\t\tpool.setLastMatchedTicketIndex(endIndex);\n\n\t\tif(endIndex == allTicketsCount)\n\t\t\tpool.setStage(ChainLotPool.DrawingStage.MATCHED);\n\t\t\n\t}\n\n\tevent GetRuleKey(bytes32 jackpotNumbers, bytes32 numbers, uint matchedWhiteCount, uint matchedYellowCount, uint ruleKey, uint ruleId);\n\n\tfunction matchRule(uint ticketId, ChainLotPool pool, bytes32 jackpotNumbers) internal view \n\t\treturns(uint ruleId, bytes32 numbers, uint count, uint blockNumber) {\n\t\t\taddress mb; uint ma;\n\t        (mb, ma, numbers, count, blockNumber) = chainLotTicket.getTicket(ticketId);\n\t      \t\n\t\t\tuint matchedWhiteCount = 0;\n\t\t\tuint matchedYellowCount = 0;\n\t\t\tfor(uint j = 0; j < pool.maxWhiteNumberCount(); j++) {\n\t\t\t\tif(numbers[j] == jackpotNumbers[j]) {\n\t\t\t\t\tmatchedWhiteCount ++;\n\t\t\t\t}\n\t\t\t}\n\t\t\tfor(j = pool.maxWhiteNumberCount(); j <  pool.maxWhiteNumberCount() + pool.maxYellowNumberCount(); j++) {\n\t\t\t\tif(numbers[j] == jackpotNumbers[j]) {\n\t\t\t\t\tmatchedYellowCount ++;\n\t\t\t\t}\n\t\t\t}\n\n\t\t\tuint ruleKey = getRuleKey(matchedWhiteCount, matchedYellowCount, pool.maxYellowNumberCount());\n\t\t\truleId = pool.awardRulesIndex(ruleKey) - 1;\n\n\t\t\t//GetRuleKey(jackpotNumbers, numbers, matchedWhiteCount, matchedYellowCount, ruleKey, ruleId);\n\t}\n\n\n  \tfunction calculateAwards(address poolAddress, uint8 ruleId, uint8 toCalcCount) onlyOwner external {\n  \t\tChainLotPool pool = ChainLotPool(poolAddress);\n\t  \trequire(pool.stage() == ChainLotPool.DrawingStage.MATCHED);\n\t  \t//calculate winners award, from top to bottom, top winners takes all\n\n\t  \tuint winnerTicketCount = pool.getWinnerTicketCount(ruleId);\n\t  \tuint processedIndex = pool.getProcessedIndex(ruleId);\n\t  \tuint awardEther = pool.getAwardEther(ruleId);\n\t    \n\t    if(winnerTicketCount > processedIndex) {\n\t        uint endIndex = processedIndex + toCalcCount;\n\n\t        if(endIndex > winnerTicketCount) endIndex = winnerTicketCount;\n\n\t        doCaculate(pool, ruleId, processedIndex, endIndex, awardEther);    \n\t    }\n\n\t    if(ruleId == pool.getAwardRulesLength() -1 && endIndex == winnerTicketCount) {\n\t      \tpool.setStage(ChainLotPool.DrawingStage.CALCULATED);\n\t    }\n\n  \t}\n\n  \tfunction doCaculate(ChainLotPool pool, uint8 ruleId, uint processedIndex, uint endIndex, uint awardEther) \n  \t\tonlyOwner internal {\n\t    for(uint j=processedIndex;j<endIndex; j++) {\n          uint totalWinnersAward = 0;\n\t      uint totalTicketCount = 0;\n\t      uint ticketId = pool.getWinnerTicket(ruleId, j);\n          address mb; uint ma; bytes32 numbers; uint count; uint blockNumber;\n          (mb, ma, numbers, count, blockNumber) = chainLotTicket.getTicket(ticketId);\n          totalWinnersAward += count * awardEther;\n          totalTicketCount += count;\n        }\n\n        pool.addTotalWinnersAward(ruleId, totalWinnersAward);\n        pool.addTotalTicketCount(ruleId, totalTicketCount);\n\t\t//move pointer\n     \tpool.setProcessedIndex(ruleId, endIndex);\n\n     \tCalculateAwards(ruleId, endIndex, awardEther, totalWinnersAward, totalTicketCount); \n  \t}\n  \t\n  \tfunction splitAward(address poolAddress) onlyOwner external {\n  \t\tChainLotPool pool = ChainLotPool(poolAddress);\n  \t\trequire(pool.stage() == ChainLotPool.DrawingStage.CALCULATED);\n\n  \t\tuint totalBalance = clToken.balanceOf(this);\n  \t\tfor(uint8 i=0; i<pool.getAwardRulesLength(); i++) {\n  \t\t\tif(totalBalance >=  pool.getTotalWinnersAward(i)) {\n\t          totalBalance -= pool.getTotalWinnersAward(i);\n\t        }\n\t        else {\n\t          pool.setTotalWinnersAward(i, totalBalance);\n\t          totalBalance = 0;\n\t        }\n\t        SplitAward(i, pool.getTotalWinnersAward(i), totalBalance);\n  \t\t}\n  \t\tpool.setStage(ChainLotPool.DrawingStage.SPLITED);\n  \t}\n\n  \n\n  \tfunction distributeAwards(address poolAddress, uint8 ruleId, uint toDistCount) onlyOwner external {\n  \t\tChainLotPool pool = ChainLotPool(poolAddress);\n  \t\trequire(pool.stage() == ChainLotPool.DrawingStage.SPLITED);\n\t\t\n\t\tuint winnerTicketCount = pool.getWinnerTicketCount(ruleId);\n\t  \tuint distributedIndex = pool.getDistributedIndex(ruleId);\n\t  \t\n\n\t  \tuint endIndex = distributedIndex + toDistCount;\n\t  \tif(endIndex > winnerTicketCount) endIndex = winnerTicketCount;\n\n\t  \tdoDistribute(pool, ruleId, distributedIndex, endIndex);\n\n\t  \tif(ruleId == pool.getAwardRulesLength() -1 && endIndex == winnerTicketCount) {\n\t  \t\tpool.setStage(ChainLotPool.DrawingStage.DISTRIBUTED);\n\t  \t}\n\n\t  \tDistributeAwards(ruleId, toDistCount, endIndex, winnerTicketCount, pool.getAwardRulesLength());\n  \t}\n\n  \tfunction doDistribute(ChainLotPool pool, uint8 ruleId, uint distributedIndex, uint endIndex) onlyOwner internal{\n  \t\tuint totalTicketCount = pool.getTotalTicketCount(ruleId);\n\t  \tuint totalWinnerAward = pool.getTotalWinnersAward(ruleId);\n\n\t  \tif(totalTicketCount > 0) {\n  \t\t\tfor(uint j=distributedIndex; j<endIndex; j++){\n\t          uint ticketId = pool.getWinnerTicket(ruleId, j);\n\t          address mb; uint ma; bytes32 numbers; uint count; uint blockNumber;\n\t          (mb, ma, numbers, count, blockNumber) = chainLotTicket.getTicket(ticketId);\n\t          uint awardValue = count * totalWinnerAward / totalTicketCount;\n\t          address awardUser = pool.addToBeAward(ticketId, awardValue);\n\t          ToBeAward(numbers, count, ticketId, awardUser, blockNumber, awardValue);\n\t    \t}\n  \t\t}\n\t  \tpool.setDistributedIndex(ruleId, endIndex);\n  \t}\n\n  \tfunction sendAwards(address poolAddress, uint toAwardCount) onlyOwner external {\n  \t\tChainLotPool pool = ChainLotPool(poolAddress);\n  \t\trequire(pool.stage() == ChainLotPool.DrawingStage.DISTRIBUTED);\n\n  \t\tuint endIndex = pool.awardIndex() + toAwardCount;\n\t\t/*uint toBeAwardLength = pool.getToBeAwardLength();\n\t\tif(endIndex > toBeAwardLength) endIndex = toBeAwardLength;\n\t\t\n\t  \tuint devCut = 0;\n\t  \tuint historyCut = 0;\n\t  \tuint hCut = 0;\n\t  \tuint userAward = 0;\n\t  \tfor(uint i=pool.awardIndex(); i<endIndex; i++) {\n\t  \t\tuint value; address user; \n\t  \t\t(user, value) = pool.toBeAward(i);\n\t\t\tuserAward = value * 88/100;\n\t\t\t//10% history user cut\n\t\t\thCut = value/10;\n\t\t\thistoryCut += hCut;\n\t\t\t//2% dev cut\n\t\t\tdevCut += value - userAward - hCut;\n\t\t\tpool.transfer(user, userAward);\n      \t\tTransferAward(user, userAward);\n\t\t}\n\n\t\tif(devCut > 0) {\n\t\t\tpool.transfer(owner, devCut);\n\t\t\tTransferDevCut(owner, devCut);\n\t\t}\n\t\t\n\t\t//history cut only shared to ticket owners before this pool\n\t\tif(historyCut > 0) {\n\t\t\tpool.addHistoryCut(historyCut);\n\t\t\tAddHistoryCut(pool.historyCut(), historyCut);\n\t\t}\n\n\t    pool.setAwardIndex(endIndex);\n\t    if(endIndex == toBeAwardLength) {\n\t    \tpool.setStage(ChainLotPool.DrawingStage.SENT);\n\t    }*/\n\t}\n\n\t/*\n\tfunction transferUnawarded(address to) onlyOwner external {\n\t\trequire(stage == DrawingStage.SENT);\n\n      \tuint toBeTransfer = clToken.balanceOf(this) - historyCut;\n      \tif(toBeTransfer > 0) {\n      \t\tclToken.transfer(to, toBeTransfer);\n      \t\tTransferUnawarded(address(this), to, toBeTransfer);\n      \t}\n\n      \tstage = DrawingStage.UNAWARED_TRANSFERED;\n\t}*/\n\n\tfunction genRandomNumbers(uint blockNumber, uint shift, uint8 maxWhiteNumberCount, uint8 maxYellowNumberCount,\n\t uint8 maxWhiteNumber, uint8 maxYellowNumber) public returns(bytes _numbers){\n\t\trequire(blockNumber < block.number);\n\t\tuint hash = uint(block.blockhash(blockNumber));\n\t\tuint addressInt = uint(tx.origin);\n\t\tuint256 random = addressInt * hash;\n\t\trandom = uint256(keccak256(block.timestamp, block.difficulty, hash, addressInt));\n\t\tGenRandomNumbers(random, blockNumber, hash, addressInt, shift, block.timestamp, block.difficulty);\n\t\trequire(random != 0);\n\t\trandom = random >> shift;\n\t\tbytes memory numbers = new bytes(maxWhiteNumberCount+maxYellowNumberCount);\n\t\tfor(uint8 i=0;i<maxWhiteNumberCount;i++) {\n\t\t\tnumbers[i] = byte(random%maxWhiteNumber + 1);\n\t\t\trandom = random >> 8;\n\n\t\t}\n\t\tfor(i=maxWhiteNumberCount;i<numbers.length;i++) {\n\t\t\tnumbers[i] = byte(random%maxYellowNumber + 1);\n\t\t\trandom = random >> 8;\n\n\t\t}\n\t\treturn numbers;\n\t}\n\n}\n",
  "sourcePath": "/Users/phx/eth/chainlot/contracts/DrawingTool.sol",
  "compiler": {
    "name": "solc",
    "version": "0.4.19+commit.c4cbbb05.Emscripten.clang"
  },
  "schemaVersion": "2.0.0",
  "updatedAt": "2018-06-24T08:38:28.150Z"
}