{
  "contractName": "DrawingTool",
  "abi": [
    {
      "constant": true,
      "inputs": [],
      "name": "clToken",
      "outputs": [
        {
          "name": "",
          "type": "address"
        }
      ],
      "payable": false,
      "stateMutability": "view",
      "type": "function"
    },
    {
      "constant": true,
      "inputs": [],
      "name": "owner",
      "outputs": [
        {
          "name": "",
          "type": "address"
        }
      ],
      "payable": false,
      "stateMutability": "view",
      "type": "function"
    },
    {
      "constant": true,
      "inputs": [],
      "name": "chainLotTicket",
      "outputs": [
        {
          "name": "",
          "type": "address"
        }
      ],
      "payable": false,
      "stateMutability": "view",
      "type": "function"
    },
    {
      "constant": false,
      "inputs": [
        {
          "name": "newOwner",
          "type": "address"
        }
      ],
      "name": "transferOwnership",
      "outputs": [],
      "payable": false,
      "stateMutability": "nonpayable",
      "type": "function"
    },
    {
      "anonymous": false,
      "inputs": [
        {
          "indexed": false,
          "name": "jackpotNumbers",
          "type": "bytes"
        },
        {
          "indexed": false,
          "name": "poolBlockNumber",
          "type": "uint256"
        },
        {
          "indexed": false,
          "name": "allTicketsCount",
          "type": "uint256"
        }
      ],
      "name": "PrepareAward",
      "type": "event"
    },
    {
      "anonymous": false,
      "inputs": [
        {
          "indexed": false,
          "name": "ticketNumber",
          "type": "bytes32"
        },
        {
          "indexed": false,
          "name": "ticketCount",
          "type": "uint256"
        },
        {
          "indexed": false,
          "name": "ticketId",
          "type": "uint256"
        },
        {
          "indexed": false,
          "name": "user",
          "type": "address"
        },
        {
          "indexed": false,
          "name": "blockNumber",
          "type": "uint256"
        },
        {
          "indexed": false,
          "name": "awardValue",
          "type": "uint256"
        }
      ],
      "name": "ToBeAward",
      "type": "event"
    },
    {
      "anonymous": false,
      "inputs": [
        {
          "indexed": false,
          "name": "jackpotNumbers",
          "type": "bytes32"
        },
        {
          "indexed": false,
          "name": "endIndex",
          "type": "uint256"
        },
        {
          "indexed": false,
          "name": "allTicketsCount",
          "type": "uint256"
        }
      ],
      "name": "MatchAwards",
      "type": "event"
    },
    {
      "anonymous": false,
      "inputs": [
        {
          "indexed": false,
          "name": "jackpotNumbers",
          "type": "bytes32"
        },
        {
          "indexed": false,
          "name": "ticketNumber",
          "type": "bytes32"
        },
        {
          "indexed": false,
          "name": "ticketCount",
          "type": "uint256"
        },
        {
          "indexed": false,
          "name": "ticketId",
          "type": "uint256"
        },
        {
          "indexed": false,
          "name": "blockNumber",
          "type": "uint256"
        },
        {
          "indexed": false,
          "name": "ruleId",
          "type": "uint256"
        }
      ],
      "name": "MatchRule",
      "type": "event"
    },
    {
      "anonymous": false,
      "inputs": [
        {
          "indexed": false,
          "name": "ruleId",
          "type": "uint256"
        },
        {
          "indexed": false,
          "name": "toDistCount",
          "type": "uint256"
        },
        {
          "indexed": false,
          "name": "distributedIndex",
          "type": "uint256"
        },
        {
          "indexed": false,
          "name": "ticketIdsLength",
          "type": "uint256"
        },
        {
          "indexed": false,
          "name": "awardRulesLength",
          "type": "uint256"
        }
      ],
      "name": "DistributeAwards",
      "type": "event"
    },
    {
      "anonymous": false,
      "inputs": [
        {
          "indexed": false,
          "name": "winner",
          "type": "address"
        },
        {
          "indexed": false,
          "name": "value",
          "type": "uint256"
        }
      ],
      "name": "TransferAward",
      "type": "event"
    },
    {
      "anonymous": false,
      "inputs": [
        {
          "indexed": false,
          "name": "dev",
          "type": "address"
        },
        {
          "indexed": false,
          "name": "value",
          "type": "uint256"
        }
      ],
      "name": "TransferDevCut",
      "type": "event"
    },
    {
      "anonymous": false,
      "inputs": [
        {
          "indexed": false,
          "name": "ruleId",
          "type": "uint8"
        },
        {
          "indexed": false,
          "name": "winnersTicketCount",
          "type": "uint256"
        },
        {
          "indexed": false,
          "name": "awardEther",
          "type": "uint256"
        },
        {
          "indexed": false,
          "name": "totalWinnersAward",
          "type": "uint256"
        },
        {
          "indexed": false,
          "name": "totalTicketCount",
          "type": "uint256"
        }
      ],
      "name": "CalculateAwards",
      "type": "event"
    },
    {
      "anonymous": false,
      "inputs": [
        {
          "indexed": false,
          "name": "ruleId",
          "type": "uint8"
        },
        {
          "indexed": false,
          "name": "totalWinnersAward",
          "type": "uint256"
        },
        {
          "indexed": false,
          "name": "leftBalance",
          "type": "uint256"
        }
      ],
      "name": "SplitAward",
      "type": "event"
    },
    {
      "anonymous": false,
      "inputs": [
        {
          "indexed": false,
          "name": "historyCut",
          "type": "uint256"
        },
        {
          "indexed": false,
          "name": "devCut",
          "type": "uint256"
        },
        {
          "indexed": false,
          "name": "futureCut",
          "type": "uint256"
        }
      ],
      "name": "CutAward",
      "type": "event"
    },
    {
      "anonymous": false,
      "inputs": [
        {
          "indexed": false,
          "name": "from",
          "type": "address"
        },
        {
          "indexed": false,
          "name": "to",
          "type": "address"
        },
        {
          "indexed": false,
          "name": "value",
          "type": "uint256"
        }
      ],
      "name": "TransferUnawarded",
      "type": "event"
    },
    {
      "anonymous": false,
      "inputs": [
        {
          "indexed": false,
          "name": "random",
          "type": "uint256"
        },
        {
          "indexed": false,
          "name": "blockNumber",
          "type": "uint256"
        },
        {
          "indexed": false,
          "name": "hash",
          "type": "uint256"
        },
        {
          "indexed": false,
          "name": "addressInt",
          "type": "uint256"
        },
        {
          "indexed": false,
          "name": "shift",
          "type": "uint256"
        },
        {
          "indexed": false,
          "name": "timestamp",
          "type": "uint256"
        },
        {
          "indexed": false,
          "name": "difficulty",
          "type": "uint256"
        }
      ],
      "name": "GenRandomNumbers",
      "type": "event"
    },
    {
      "anonymous": false,
      "inputs": [
        {
          "indexed": false,
          "name": "jackpotNumbers",
          "type": "bytes32"
        },
        {
          "indexed": false,
          "name": "numbers",
          "type": "bytes32"
        },
        {
          "indexed": false,
          "name": "matchedWhiteCount",
          "type": "uint256"
        },
        {
          "indexed": false,
          "name": "matchedYellowCount",
          "type": "uint256"
        },
        {
          "indexed": false,
          "name": "ruleKey",
          "type": "uint256"
        },
        {
          "indexed": false,
          "name": "ruleId",
          "type": "uint256"
        }
      ],
      "name": "GetRuleKey",
      "type": "event"
    },
    {
      "constant": false,
      "inputs": [
        {
          "name": "_chainLotTicket",
          "type": "address"
        },
        {
          "name": "_clToken",
          "type": "address"
        }
      ],
      "name": "init",
      "outputs": [],
      "payable": false,
      "stateMutability": "nonpayable",
      "type": "function"
    },
    {
      "constant": false,
      "inputs": [
        {
          "name": "poolAddress",
          "type": "address"
        }
      ],
      "name": "prepareAwards",
      "outputs": [],
      "payable": false,
      "stateMutability": "nonpayable",
      "type": "function"
    },
    {
      "constant": false,
      "inputs": [
        {
          "name": "poolAddress",
          "type": "address"
        },
        {
          "name": "toMatchCount",
          "type": "uint256"
        }
      ],
      "name": "matchAwards",
      "outputs": [],
      "payable": false,
      "stateMutability": "nonpayable",
      "type": "function"
    },
    {
      "constant": false,
      "inputs": [
        {
          "name": "poolAddress",
          "type": "address"
        },
        {
          "name": "ruleId",
          "type": "uint8"
        },
        {
          "name": "toCalcCount",
          "type": "uint8"
        }
      ],
      "name": "calculateAwards",
      "outputs": [],
      "payable": false,
      "stateMutability": "nonpayable",
      "type": "function"
    },
    {
      "constant": false,
      "inputs": [
        {
          "name": "poolAddress",
          "type": "address"
        }
      ],
      "name": "splitAward",
      "outputs": [],
      "payable": false,
      "stateMutability": "nonpayable",
      "type": "function"
    },
    {
      "constant": false,
      "inputs": [
        {
          "name": "poolAddress",
          "type": "address"
        },
        {
          "name": "ruleId",
          "type": "uint8"
        },
        {
          "name": "toDistCount",
          "type": "uint256"
        }
      ],
      "name": "distributeAwards",
      "outputs": [],
      "payable": false,
      "stateMutability": "nonpayable",
      "type": "function"
    },
    {
      "constant": false,
      "inputs": [
        {
          "name": "poolAddress",
          "type": "address"
        },
        {
          "name": "toAwardCount",
          "type": "uint256"
        }
      ],
      "name": "sendAwards",
      "outputs": [],
      "payable": false,
      "stateMutability": "nonpayable",
      "type": "function"
    },
    {
      "constant": false,
      "inputs": [
        {
          "name": "poolAddress",
          "type": "address"
        },
        {
          "name": "to",
          "type": "address"
        }
      ],
      "name": "transferUnawarded",
      "outputs": [],
      "payable": false,
      "stateMutability": "nonpayable",
      "type": "function"
    },
    {
      "constant": true,
      "inputs": [
        {
          "name": "blockNumber",
          "type": "uint256"
        },
        {
          "name": "shift",
          "type": "uint256"
        },
        {
          "name": "maxWhiteNumberCount",
          "type": "uint8"
        },
        {
          "name": "maxYellowNumberCount",
          "type": "uint8"
        },
        {
          "name": "maxWhiteNumber",
          "type": "uint8"
        },
        {
          "name": "maxYellowNumber",
          "type": "uint8"
        },
        {
          "name": "entropy",
          "type": "uint256"
        }
      ],
      "name": "genRandomNumbers",
      "outputs": [
        {
          "name": "_numbers",
          "type": "bytes"
        }
      ],
      "payable": false,
      "stateMutability": "view",
      "type": "function"
    }
  ],
  "bytecode": "0x6060604052336000806101000a81548173ffffffffffffffffffffffffffffffffffffffff021916908373ffffffffffffffffffffffffffffffffffffffff16021790555061435c806100536000396000f3006060604052600436106100c5576000357c0100000000000000000000000000000000000000000000000000000000900463ffffffff1680630800e5f1146100ca578063147261fe1461011f578063797d3687146101fd5780638da5cb5b14610236578063a2a1316c1461028b578063d12efbf6146102d9578063e1e3af691461031b578063eb20b27814610370578063f09a4016146103c8578063f2fde38b14610420578063f7495d2414610459578063f7a371c91461049b578063fb9c3a65146104d4575b600080fd5b34156100d557600080fd5b6100dd610525565b604051808273ffffffffffffffffffffffffffffffffffffffff1673ffffffffffffffffffffffffffffffffffffffff16815260200191505060405180910390f35b341561012a57600080fd5b610182600480803590602001909190803590602001909190803560ff1690602001909190803560ff1690602001909190803560ff1690602001909190803560ff1690602001909190803590602001909190505061054b565b6040518080602001828103825283818151815260200191508051906020019080838360005b838110156101c25780820151818401526020810190506101a7565b50505050905090810190601f1680156101ef5780820380516001836020036101000a031916815260200191505b509250505060405180910390f35b341561020857600080fd5b610234600480803573ffffffffffffffffffffffffffffffffffffffff16906020019091905050610761565b005b341561024157600080fd5b610249610f23565b604051808273ffffffffffffffffffffffffffffffffffffffff1673ffffffffffffffffffffffffffffffffffffffff16815260200191505060405180910390f35b341561029657600080fd5b6102d7600480803573ffffffffffffffffffffffffffffffffffffffff1690602001909190803560ff16906020019091908035906020019091905050610f48565b005b34156102e457600080fd5b610319600480803573ffffffffffffffffffffffffffffffffffffffff169060200190919080359060200190919050506113b3565b005b341561032657600080fd5b61032e611aa8565b604051808273ffffffffffffffffffffffffffffffffffffffff1673ffffffffffffffffffffffffffffffffffffffff16815260200191505060405180910390f35b341561037b57600080fd5b6103c6600480803573ffffffffffffffffffffffffffffffffffffffff1690602001909190803573ffffffffffffffffffffffffffffffffffffffff16906020019091905050611ace565b005b34156103d357600080fd5b61041e600480803573ffffffffffffffffffffffffffffffffffffffff1690602001909190803573ffffffffffffffffffffffffffffffffffffffff16906020019091905050611f26565b005b341561042b57600080fd5b610457600480803573ffffffffffffffffffffffffffffffffffffffff16906020019091905050611fac565b005b341561046457600080fd5b610499600480803573ffffffffffffffffffffffffffffffffffffffff1690602001909190803590602001909190505061204a565b005b34156104a657600080fd5b6104d2600480803573ffffffffffffffffffffffffffffffffffffffff16906020019091905050612851565b005b34156104df57600080fd5b610523600480803573ffffffffffffffffffffffffffffffffffffffff1690602001909190803560ff1690602001909190803560ff16906020019091905050612fa3565b005b600260009054906101000a900473ffffffffffffffffffffffffffffffffffffffff1681565b61055361430e565b600080600061056061430e565b6000438d10151561057057600080fd5b8c406001900494503373ffffffffffffffffffffffffffffffffffffffff169350864244878760405180868152602001858152602001848152602001838152602001828152602001955050505050506040518091039020600190049250600083141515156105dd57600080fd5b8b839060020a90049250898b0160ff166040518059106105fa5750595b9080825280601f01601f19166020018201604052509150600090505b8a60ff168160ff1610156106b15760018960ff168481151561063457fe5b06017f010000000000000000000000000000000000000000000000000000000000000002828260ff1681518110151561066957fe5b9060200101907effffffffffffffffffffffffffffffffffffffffffffffffffffffffffffff1916908160001a9053506008839060020a900492508080600101915050610616565b8a90505b81518160ff16101561074e5760018860ff16848115156106d157fe5b06017f010000000000000000000000000000000000000000000000000000000000000002828260ff1681518110151561070657fe5b9060200101907effffffffffffffffffffffffffffffffffffffffffffffffffffffffffffff1916908160001a9053506008839060020a9004925080806001019150506106b5565b8195505050505050979650505050505050565b6000806000806000806000809054906101000a900473ffffffffffffffffffffffffffffffffffffffff1673ffffffffffffffffffffffffffffffffffffffff163373ffffffffffffffffffffffffffffffffffffffff161415156107c557600080fd5b869550600360078111156107d557fe5b8673ffffffffffffffffffffffffffffffffffffffff1663c040e6b86000604051602001526040518163ffffffff167c0100000000000000000000000000000000000000000000000000000000028152600401602060405180830381600087803b151561084157600080fd5b5af1151561084e57600080fd5b50505060405180519050600781111561086357fe5b14151561086f57600080fd5b600260009054906101000a900473ffffffffffffffffffffffffffffffffffffffff1673ffffffffffffffffffffffffffffffffffffffff166370a08231886000604051602001526040518263ffffffff167c0100000000000000000000000000000000000000000000000000000000028152600401808273ffffffffffffffffffffffffffffffffffffffff1673ffffffffffffffffffffffffffffffffffffffff168152602001915050602060405180830381600087803b151561093457600080fd5b5af1151561094157600080fd5b505050604051805190509450600a8581151561095957fe5b049350600a8581151561096857fe5b04925060328581151561097757fe5b049150818385870303039450600090505b8573ffffffffffffffffffffffffffffffffffffffff16637baf3b0e6000604051602001526040518163ffffffff167c0100000000000000000000000000000000000000000000000000000000028152600401602060405180830381600087803b15156109f457600080fd5b5af11515610a0157600080fd5b505050604051805190508160ff161015610ccc578573ffffffffffffffffffffffffffffffffffffffff1663c3c1b4a3826000604051602001526040518263ffffffff167c0100000000000000000000000000000000000000000000000000000000028152600401808260ff1660ff168152602001915050602060405180830381600087803b1515610a9257600080fd5b5af11515610a9f57600080fd5b5050506040518051905085101515610b4e578573ffffffffffffffffffffffffffffffffffffffff1663c3c1b4a3826000604051602001526040518263ffffffff167c0100000000000000000000000000000000000000000000000000000000028152600401808260ff1660ff168152602001915050602060405180830381600087803b1515610b2e57600080fd5b5af11515610b3b57600080fd5b5050506040518051905085039450610bdf565b8573ffffffffffffffffffffffffffffffffffffffff1663b61bf92a82876040518363ffffffff167c0100000000000000000000000000000000000000000000000000000000028152600401808360ff1660ff16815260200182815260200192505050600060405180830381600087803b1515610bca57600080fd5b5af11515610bd757600080fd5b505050600094505b7f53c5531a2a6e3b9168a9afac57f2dd8c3dffaad74813d964e6cf1ebbca23b9b4818773ffffffffffffffffffffffffffffffffffffffff1663c3c1b4a3846000604051602001526040518263ffffffff167c0100000000000000000000000000000000000000000000000000000000028152600401808260ff1660ff168152602001915050602060405180830381600087803b1515610c7e57600080fd5b5af11515610c8b57600080fd5b5050506040518051905087604051808460ff1660ff168152602001838152602001828152602001935050505060405180910390a18080600101915050610988565b8573ffffffffffffffffffffffffffffffffffffffff16636098d8f3856040518263ffffffff167c010000000000000000000000000000000000000000000000000000000002815260040180828152602001915050600060405180830381600087803b1515610d3a57600080fd5b5af11515610d4757600080fd5b5050508573ffffffffffffffffffffffffffffffffffffffff1663dbcc106d836040518263ffffffff167c010000000000000000000000000000000000000000000000000000000002815260040180828152602001915050600060405180830381600087803b1515610db857600080fd5b5af11515610dc557600080fd5b5050508573ffffffffffffffffffffffffffffffffffffffff16633756e372846040518263ffffffff167c010000000000000000000000000000000000000000000000000000000002815260040180828152602001915050600060405180830381600087803b1515610e3657600080fd5b5af11515610e4357600080fd5b5050507f87ba1b849b78eb2a3f12ab16a887699e7d7cd45407c58940d1a30a31e04c5c9384838560405180848152602001838152602001828152602001935050505060405180910390a18573ffffffffffffffffffffffffffffffffffffffff1663ce3cd99760046040518263ffffffff167c010000000000000000000000000000000000000000000000000000000002815260040180826007811115610ee657fe5b60ff168152602001915050600060405180830381600087803b1515610f0a57600080fd5b5af11515610f1757600080fd5b50505050505050505050565b6000809054906101000a900473ffffffffffffffffffffffffffffffffffffffff1681565b6000806000806000809054906101000a900473ffffffffffffffffffffffffffffffffffffffff1673ffffffffffffffffffffffffffffffffffffffff163373ffffffffffffffffffffffffffffffffffffffff16141515610fa957600080fd5b86935060046007811115610fb957fe5b8473ffffffffffffffffffffffffffffffffffffffff1663c040e6b86000604051602001526040518163ffffffff167c0100000000000000000000000000000000000000000000000000000000028152600401602060405180830381600087803b151561102557600080fd5b5af1151561103257600080fd5b50505060405180519050600781111561104757fe5b14151561105357600080fd5b8373ffffffffffffffffffffffffffffffffffffffff1663ffa30903876000604051602001526040518263ffffffff167c0100000000000000000000000000000000000000000000000000000000028152600401808260ff1660ff168152602001915050602060405180830381600087803b15156110d057600080fd5b5af115156110dd57600080fd5b5050506040518051905092508373ffffffffffffffffffffffffffffffffffffffff1663b1840019876000604051602001526040518263ffffffff167c0100000000000000000000000000000000000000000000000000000000028152600401808260ff1660ff168152602001915050602060405180830381600087803b151561116657600080fd5b5af1151561117357600080fd5b5050506040518051905091508183111561128157848201905082811115611198578290505b6111a4848784846133cf565b7f2e8424f61cda89b083f4a3c734fe15d3fc283d0b1cc57d3579caf54b8923fc1f868683868873ffffffffffffffffffffffffffffffffffffffff16637baf3b0e6000604051602001526040518163ffffffff167c0100000000000000000000000000000000000000000000000000000000028152600401602060405180830381600087803b151561123557600080fd5b5af1151561124257600080fd5b50505060405180519050604051808660ff1681526020018581526020018481526020018381526020018281526020019550505050505060405180910390a15b60018473ffffffffffffffffffffffffffffffffffffffff16637baf3b0e6000604051602001526040518163ffffffff167c0100000000000000000000000000000000000000000000000000000000028152600401602060405180830381600087803b15156112ef57600080fd5b5af115156112fc57600080fd5b50505060405180519050038660ff1614801561131757508281145b156113aa578373ffffffffffffffffffffffffffffffffffffffff1663ce3cd99760056040518263ffffffff167c01000000000000000000000000000000000000000000000000000000000281526004018082600781111561137557fe5b60ff168152602001915050600060405180830381600087803b151561139957600080fd5b5af115156113a657600080fd5b5050505b50505050505050565b6000806000806000806000806000806000809054906101000a900473ffffffffffffffffffffffffffffffffffffffff1673ffffffffffffffffffffffffffffffffffffffff163373ffffffffffffffffffffffffffffffffffffffff1614151561141d57600080fd5b8b99506001600781111561142d57fe5b8a73ffffffffffffffffffffffffffffffffffffffff1663c040e6b86000604051602001526040518163ffffffff167c0100000000000000000000000000000000000000000000000000000000028152600401602060405180830381600087803b151561149957600080fd5b5af115156114a657600080fd5b5050506040518051905060078111156114bb57fe5b1415156114c757600080fd5b8973ffffffffffffffffffffffffffffffffffffffff1663e7cfbe906000604051602001526040518163ffffffff167c0100000000000000000000000000000000000000000000000000000000028152600401602060405180830381600087803b151561153357600080fd5b5af1151561154057600080fd5b5050506040518051905098508a8a73ffffffffffffffffffffffffffffffffffffffff1663e2c315616000604051602001526040518163ffffffff167c0100000000000000000000000000000000000000000000000000000000028152600401602060405180830381600087803b15156115b957600080fd5b5af115156115c657600080fd5b505050604051805190500197508973ffffffffffffffffffffffffffffffffffffffff1663758b9ee06000604051602001526040518163ffffffff167c0100000000000000000000000000000000000000000000000000000000028152600401602060405180830381600087803b151561163f57600080fd5b5af1151561164c57600080fd5b50505060405180519050965086881115611664578697505b8973ffffffffffffffffffffffffffffffffffffffff1663e2c315616000604051602001526040518163ffffffff167c0100000000000000000000000000000000000000000000000000000000028152600401602060405180830381600087803b15156116d057600080fd5b5af115156116dd57600080fd5b5050506040518051905095505b87861015611937578973ffffffffffffffffffffffffffffffffffffffff16635b328df6876000604051602001526040518263ffffffff167c010000000000000000000000000000000000000000000000000000000002815260040180828152602001915050602060405180830381600087803b151561176957600080fd5b5af1151561177657600080fd5b50505060405180519050945061178d858b8b6138e9565b809450819550829650839750505050506000841015801561182f57508973ffffffffffffffffffffffffffffffffffffffff16637baf3b0e6000604051602001526040518163ffffffff167c0100000000000000000000000000000000000000000000000000000000028152600401602060405180830381600087803b151561181557600080fd5b5af1151561182257600080fd5b5050506040518051905084105b1561192a578973ffffffffffffffffffffffffffffffffffffffff16636541e02885876040518363ffffffff167c01000000000000000000000000000000000000000000000000000000000281526004018083815260200182815260200192505050600060405180830381600087803b15156118aa57600080fd5b5af115156118b757600080fd5b5050507f1fb5f1a98ced1998480b5d7ae5f89afc7526c5219722514ed7312200757ee0d08984848885896040518087600019166000191681526020018660001916600019168152602001858152602001848152602001838152602001828152602001965050505050505060405180910390a15b85806001019650506116ea565b7f68919ecf833aa1399f274982eff743c221734b0745cfeb4cd853a0c4e3ab5694898989604051808460001916600019168152602001838152602001828152602001935050505060405180910390a18973ffffffffffffffffffffffffffffffffffffffff1663bd6a4687896040518263ffffffff167c010000000000000000000000000000000000000000000000000000000002815260040180828152602001915050600060405180830381600087803b15156119f457600080fd5b5af11515611a0157600080fd5b50505086881415611a9a578973ffffffffffffffffffffffffffffffffffffffff1663ce3cd99760026040518263ffffffff167c010000000000000000000000000000000000000000000000000000000002815260040180826007811115611a6557fe5b60ff168152602001915050600060405180830381600087803b1515611a8957600080fd5b5af11515611a9657600080fd5b5050505b505050505050505050505050565b600160009054906101000a900473ffffffffffffffffffffffffffffffffffffffff1681565b6000806000809054906101000a900473ffffffffffffffffffffffffffffffffffffffff1673ffffffffffffffffffffffffffffffffffffffff163373ffffffffffffffffffffffffffffffffffffffff16141515611b2c57600080fd5b83915060066007811115611b3c57fe5b8273ffffffffffffffffffffffffffffffffffffffff1663c040e6b86000604051602001526040518163ffffffff167c0100000000000000000000000000000000000000000000000000000000028152600401602060405180830381600087803b1515611ba857600080fd5b5af11515611bb557600080fd5b505050604051805190506007811115611bca57fe5b141515611bd657600080fd5b8173ffffffffffffffffffffffffffffffffffffffff1663cda886d66000604051602001526040518163ffffffff167c0100000000000000000000000000000000000000000000000000000000028152600401602060405180830381600087803b1515611c4257600080fd5b5af11515611c4f57600080fd5b50505060405180519050600260009054906101000a900473ffffffffffffffffffffffffffffffffffffffff1673ffffffffffffffffffffffffffffffffffffffff166370a08231866000604051602001526040518263ffffffff167c0100000000000000000000000000000000000000000000000000000000028152600401808273ffffffffffffffffffffffffffffffffffffffff1673ffffffffffffffffffffffffffffffffffffffff168152602001915050602060405180830381600087803b1515611d1e57600080fd5b5af11515611d2b57600080fd5b505050604051805190500390506000811115611e93578173ffffffffffffffffffffffffffffffffffffffff1663a9059cbb84836040518363ffffffff167c0100000000000000000000000000000000000000000000000000000000028152600401808373ffffffffffffffffffffffffffffffffffffffff1673ffffffffffffffffffffffffffffffffffffffff16815260200182815260200192505050600060405180830381600087803b1515611de357600080fd5b5af11515611df057600080fd5b5050507fd3c8e61b3f3589e41778ffcfb76754be14fb22fbdabd8371a332c3b145f0c3e3848483604051808473ffffffffffffffffffffffffffffffffffffffff1673ffffffffffffffffffffffffffffffffffffffff1681526020018373ffffffffffffffffffffffffffffffffffffffff1673ffffffffffffffffffffffffffffffffffffffff168152602001828152602001935050505060405180910390a15b8173ffffffffffffffffffffffffffffffffffffffff1663ce3cd99760076040518263ffffffff167c010000000000000000000000000000000000000000000000000000000002815260040180826007811115611eec57fe5b60ff168152602001915050600060405180830381600087803b1515611f1057600080fd5b5af11515611f1d57600080fd5b50505050505050565b81600160006101000a81548173ffffffffffffffffffffffffffffffffffffffff021916908373ffffffffffffffffffffffffffffffffffffffff16021790555080600260006101000a81548173ffffffffffffffffffffffffffffffffffffffff021916908373ffffffffffffffffffffffffffffffffffffffff1602179055505050565b6000809054906101000a900473ffffffffffffffffffffffffffffffffffffffff1673ffffffffffffffffffffffffffffffffffffffff163373ffffffffffffffffffffffffffffffffffffffff1614151561200757600080fd5b806000806101000a81548173ffffffffffffffffffffffffffffffffffffffff021916908373ffffffffffffffffffffffffffffffffffffffff16021790555050565b60008060008060008060008060009054906101000a900473ffffffffffffffffffffffffffffffffffffffff1673ffffffffffffffffffffffffffffffffffffffff163373ffffffffffffffffffffffffffffffffffffffff161415156120b057600080fd5b889650600560078111156120c057fe5b8773ffffffffffffffffffffffffffffffffffffffff1663c040e6b86000604051602001526040518163ffffffff167c0100000000000000000000000000000000000000000000000000000000028152600401602060405180830381600087803b151561212c57600080fd5b5af1151561213957600080fd5b50505060405180519050600781111561214e57fe5b14151561215a57600080fd5b878773ffffffffffffffffffffffffffffffffffffffff16630891690b6000604051602001526040518163ffffffff167c0100000000000000000000000000000000000000000000000000000000028152600401602060405180830381600087803b15156121c757600080fd5b5af115156121d457600080fd5b505050604051805190500195508673ffffffffffffffffffffffffffffffffffffffff1663c350c74e6000604051602001526040518163ffffffff167c0100000000000000000000000000000000000000000000000000000000028152600401602060405180830381600087803b151561224d57600080fd5b5af1151561225a57600080fd5b50505060405180519050945084861115612272578495505b8673ffffffffffffffffffffffffffffffffffffffff16639c56a450876040518263ffffffff167c010000000000000000000000000000000000000000000000000000000002815260040180828152602001915050600060405180830381600087803b15156122e057600080fd5b5af115156122ed57600080fd5b50505084861415612386578673ffffffffffffffffffffffffffffffffffffffff1663ce3cd99760066040518263ffffffff167c01000000000000000000000000000000000000000000000000000000000281526004018082600781111561235157fe5b60ff168152602001915050600060405180830381600087803b151561237557600080fd5b5af1151561238257600080fd5b5050505b8673ffffffffffffffffffffffffffffffffffffffff16630891690b6000604051602001526040518163ffffffff167c0100000000000000000000000000000000000000000000000000000000028152600401602060405180830381600087803b15156123f257600080fd5b5af115156123ff57600080fd5b5050506040518051905091505b858210156125d9578673ffffffffffffffffffffffffffffffffffffffff16637f87179a836000604051604001526040518263ffffffff167c0100000000000000000000000000000000000000000000000000000000028152600401808281526020019150506040805180830381600087803b151561248a57600080fd5b5af1151561249757600080fd5b5050506040518051906020018051905080945081955050508673ffffffffffffffffffffffffffffffffffffffff1663a9059cbb85856040518363ffffffff167c0100000000000000000000000000000000000000000000000000000000028152600401808373ffffffffffffffffffffffffffffffffffffffff1673ffffffffffffffffffffffffffffffffffffffff16815260200182815260200192505050600060405180830381600087803b151561255157600080fd5b5af1151561255e57600080fd5b5050507f1b6d8b654cd01f384b6ff31c93d6ddd4a913a1dfd77dc76c1b9e4a542deada4e8484604051808373ffffffffffffffffffffffffffffffffffffffff1673ffffffffffffffffffffffffffffffffffffffff1681526020018281526020019250505060405180910390a1818060010192505061240c565b8673ffffffffffffffffffffffffffffffffffffffff16639c2868376000604051602001526040518163ffffffff167c0100000000000000000000000000000000000000000000000000000000028152600401602060405180830381600087803b151561264557600080fd5b5af1151561265257600080fd5b5050506040518051905090506000811115612846578673ffffffffffffffffffffffffffffffffffffffff1663dbcc106d60006040518263ffffffff167c010000000000000000000000000000000000000000000000000000000002815260040180828152602001915050600060405180830381600087803b15156126d657600080fd5b5af115156126e357600080fd5b5050508673ffffffffffffffffffffffffffffffffffffffff1663a9059cbb6000809054906101000a900473ffffffffffffffffffffffffffffffffffffffff16836040518363ffffffff167c0100000000000000000000000000000000000000000000000000000000028152600401808373ffffffffffffffffffffffffffffffffffffffff1673ffffffffffffffffffffffffffffffffffffffff16815260200182815260200192505050600060405180830381600087803b15156127a957600080fd5b5af115156127b657600080fd5b5050507ffd9fb33b1445303659e522c1835afcc964050ac9820f5022796f9df1e088e8456000809054906101000a900473ffffffffffffffffffffffffffffffffffffffff1682604051808373ffffffffffffffffffffffffffffffffffffffff1673ffffffffffffffffffffffffffffffffffffffff1681526020018281526020019250505060405180910390a15b505050505050505050565b600061285b61430e565b6000809054906101000a900473ffffffffffffffffffffffffffffffffffffffff1673ffffffffffffffffffffffffffffffffffffffff163373ffffffffffffffffffffffffffffffffffffffff161415156128b657600080fd5b829150600060078111156128c657fe5b8273ffffffffffffffffffffffffffffffffffffffff1663c040e6b86000604051602001526040518163ffffffff167c0100000000000000000000000000000000000000000000000000000000028152600401602060405180830381600087803b151561293257600080fd5b5af1151561293f57600080fd5b50505060405180519050600781111561295457fe5b14151561296057600080fd5b612c7c8273ffffffffffffffffffffffffffffffffffffffff16639eb623d76000604051602001526040518163ffffffff167c0100000000000000000000000000000000000000000000000000000000028152600401602060405180830381600087803b15156129cf57600080fd5b5af115156129dc57600080fd5b5050506040518051905060088473ffffffffffffffffffffffffffffffffffffffff16639c7365e56000604051602001526040518163ffffffff167c0100000000000000000000000000000000000000000000000000000000028152600401602060405180830381600087803b1515612a5457600080fd5b5af11515612a6157600080fd5b505050604051805190508573ffffffffffffffffffffffffffffffffffffffff166337f4a9c46000604051602001526040518163ffffffff167c0100000000000000000000000000000000000000000000000000000000028152600401602060405180830381600087803b1515612ad757600080fd5b5af11515612ae457600080fd5b505050604051805190508673ffffffffffffffffffffffffffffffffffffffff166370f4c3436000604051602001526040518163ffffffff167c0100000000000000000000000000000000000000000000000000000000028152600401602060405180830381600087803b1515612b5a57600080fd5b5af11515612b6757600080fd5b505050604051805190508773ffffffffffffffffffffffffffffffffffffffff16635f7d92876000604051602001526040518163ffffffff167c0100000000000000000000000000000000000000000000000000000000028152600401602060405180830381600087803b1515612bdd57600080fd5b5af11515612bea57600080fd5b505050604051805190508873ffffffffffffffffffffffffffffffffffffffff16635404bbf76000604051602001526040518163ffffffff167c0100000000000000000000000000000000000000000000000000000000028152600401602060405180830381600087803b1515612c6057600080fd5b5af11515612c6d57600080fd5b5050506040518051905061054b565b90508173ffffffffffffffffffffffffffffffffffffffff1663ec6ce0d1826040518263ffffffff167c01000000000000000000000000000000000000000000000000000000000281526004018080602001828103825283818151815260200191508051906020019080838360005b83811015612d06578082015181840152602081019050612ceb565b50505050905090810190601f168015612d335780820380516001836020036101000a031916815260200191505b5092505050600060405180830381600087803b1515612d5157600080fd5b5af11515612d5e57600080fd5b5050507fb4a3d365f86774ee97301c1ffa4061a05cffa5fcef064c4f3890a92d1bd0e2d7818373ffffffffffffffffffffffffffffffffffffffff16639eb623d76000604051602001526040518163ffffffff167c0100000000000000000000000000000000000000000000000000000000028152600401602060405180830381600087803b1515612def57600080fd5b5af11515612dfc57600080fd5b505050604051805190508473ffffffffffffffffffffffffffffffffffffffff1663758b9ee06000604051602001526040518163ffffffff167c0100000000000000000000000000000000000000000000000000000000028152600401602060405180830381600087803b1515612e7257600080fd5b5af11515612e7f57600080fd5b505050604051805190506040518080602001848152602001838152602001828103825285818151815260200191508051906020019080838360005b83811015612ed5578082015181840152602081019050612eba565b50505050905090810190601f168015612f025780820380516001836020036101000a031916815260200191505b5094505050505060405180910390a18173ffffffffffffffffffffffffffffffffffffffff1663ce3cd99760016040518263ffffffff167c010000000000000000000000000000000000000000000000000000000002815260040180826007811115612f6a57fe5b60ff168152602001915050600060405180830381600087803b1515612f8e57600080fd5b5af11515612f9b57600080fd5b505050505050565b60008060008060008060009054906101000a900473ffffffffffffffffffffffffffffffffffffffff1673ffffffffffffffffffffffffffffffffffffffff163373ffffffffffffffffffffffffffffffffffffffff1614151561300657600080fd5b8794506002600781111561301657fe5b8573ffffffffffffffffffffffffffffffffffffffff1663c040e6b86000604051602001526040518163ffffffff167c0100000000000000000000000000000000000000000000000000000000028152600401602060405180830381600087803b151561308257600080fd5b5af1151561308f57600080fd5b5050506040518051905060078111156130a457fe5b1415156130b057600080fd5b8473ffffffffffffffffffffffffffffffffffffffff1663ffa30903886000604051602001526040518263ffffffff167c0100000000000000000000000000000000000000000000000000000000028152600401808260ff1660ff168152602001915050602060405180830381600087803b151561312d57600080fd5b5af1151561313a57600080fd5b5050506040518051905093508473ffffffffffffffffffffffffffffffffffffffff16637855e6ae886000604051602001526040518263ffffffff167c0100000000000000000000000000000000000000000000000000000000028152600401808260ff1660ff168152602001915050602060405180830381600087803b15156131c357600080fd5b5af115156131d057600080fd5b5050506040518051905092508473ffffffffffffffffffffffffffffffffffffffff1663b787e6c8886000604051602001526040518263ffffffff167c0100000000000000000000000000000000000000000000000000000000028152600401808260ff1660ff168152602001915050602060405180830381600087803b151561325957600080fd5b5af1151561326657600080fd5b5050506040518051905091508284111561329c578560ff16830190508381111561328e578390505b61329b8588858486613ecd565b5b60018573ffffffffffffffffffffffffffffffffffffffff16637baf3b0e6000604051602001526040518163ffffffff167c0100000000000000000000000000000000000000000000000000000000028152600401602060405180830381600087803b151561330a57600080fd5b5af1151561331757600080fd5b50505060405180519050038760ff1614801561333257508381145b156133c5578473ffffffffffffffffffffffffffffffffffffffff1663ce3cd99760036040518263ffffffff167c01000000000000000000000000000000000000000000000000000000000281526004018082600781111561339057fe5b60ff168152602001915050600060405180830381600087803b15156133b457600080fd5b5af115156133c157600080fd5b5050505b5050505050505050565b60008060008060008060008060008060008060009054906101000a900473ffffffffffffffffffffffffffffffffffffffff1673ffffffffffffffffffffffffffffffffffffffff163373ffffffffffffffffffffffffffffffffffffffff1614151561343b57600080fd5b8e73ffffffffffffffffffffffffffffffffffffffff1663958d8a2f8f6000604051602001526040518263ffffffff167c0100000000000000000000000000000000000000000000000000000000028152600401808260ff1660ff168152602001915050602060405180830381600087803b15156134b857600080fd5b5af115156134c557600080fd5b505050604051805190509a508e73ffffffffffffffffffffffffffffffffffffffff1663c3c1b4a38f6000604051602001526040518263ffffffff167c0100000000000000000000000000000000000000000000000000000000028152600401808260ff1660ff168152602001915050602060405180830381600087803b151561354e57600080fd5b5af1151561355b57600080fd5b50505060405180519050995060008b111561384c578c93505b8b84101561384b578e73ffffffffffffffffffffffffffffffffffffffff1663df85d49d8f866000604051602001526040518363ffffffff167c0100000000000000000000000000000000000000000000000000000000028152600401808360ff1660ff16815260200182815260200192505050602060405180830381600087803b151561360157600080fd5b5af1151561360e57600080fd5b505050604051805190509250600160009054906101000a900473ffffffffffffffffffffffffffffffffffffffff1673ffffffffffffffffffffffffffffffffffffffff16637dc379fa84600060405160a001526040518263ffffffff167c01000000000000000000000000000000000000000000000000000000000281526004018082815260200191505060a060405180830381600087803b15156136b357600080fd5b5af115156136c057600080fd5b505050604051805190602001805190602001805190602001805190602001805190508367ffffffffffffffff169350809950819a50829b50839c50849d5050505050508a8a870281151561371057fe5b0491508e73ffffffffffffffffffffffffffffffffffffffff166304d3c34884846000604051602001526040518363ffffffff167c01000000000000000000000000000000000000000000000000000000000281526004018083815260200182815260200192505050602060405180830381600087803b151561379257600080fd5b5af1151561379f57600080fd5b5050506040518051905090507ff01f73b5111110cb3356e832f9bcf3e577dd6a0ddab27fe95d08a5739731a6be8787858489876040518087600019166000191681526020018681526020018581526020018473ffffffffffffffffffffffffffffffffffffffff1673ffffffffffffffffffffffffffffffffffffffff168152602001838152602001828152602001965050505050505060405180910390a18380600101945050613574565b5b8e73ffffffffffffffffffffffffffffffffffffffff16633ca7b3c18f8e6040518363ffffffff167c0100000000000000000000000000000000000000000000000000000000028152600401808360ff1660ff16815260200182815260200192505050600060405180830381600087803b15156138c857600080fd5b5af115156138d557600080fd5b505050505050505050505050505050505050565b600080600080600080600080600080600160009054906101000a900473ffffffffffffffffffffffffffffffffffffffff1673ffffffffffffffffffffffffffffffffffffffff16637dc379fa8e600060405160a001526040518263ffffffff167c01000000000000000000000000000000000000000000000000000000000281526004018082815260200191505060a060405180830381600087803b151561399157600080fd5b5af1151561399e57600080fd5b505050604051805190602001805190602001805190602001805190602001805190508367ffffffffffffffff169350809b50819c50829d50839950849a5050505050506000935060009250600091505b8b73ffffffffffffffffffffffffffffffffffffffff16639c7365e56000604051602001526040518163ffffffff167c0100000000000000000000000000000000000000000000000000000000028152600401602060405180830381600087803b1515613a5a57600080fd5b5af11515613a6757600080fd5b5050506040518051905060ff16821015613b3d578a82602081101515613a8957fe5b1a7f0100000000000000000000000000000000000000000000000000000000000000027effffffffffffffffffffffffffffffffffffffffffffffffffffffffffffff19168983602081101515613adc57fe5b1a7f0100000000000000000000000000000000000000000000000000000000000000027effffffffffffffffffffffffffffffffffffffffffffffffffffffffffffff19161415613b305783806001019450505b81806001019250506139ee565b8b73ffffffffffffffffffffffffffffffffffffffff16639c7365e56000604051602001526040518163ffffffff167c0100000000000000000000000000000000000000000000000000000000028152600401602060405180830381600087803b1515613ba957600080fd5b5af11515613bb657600080fd5b5050506040518051905060ff1691505b8b73ffffffffffffffffffffffffffffffffffffffff166337f4a9c46000604051602001526040518163ffffffff167c0100000000000000000000000000000000000000000000000000000000028152600401602060405180830381600087803b1515613c3257600080fd5b5af11515613c3f57600080fd5b505050604051805190508c73ffffffffffffffffffffffffffffffffffffffff16639c7365e56000604051602001526040518163ffffffff167c0100000000000000000000000000000000000000000000000000000000028152600401602060405180830381600087803b1515613cb557600080fd5b5af11515613cc257600080fd5b505050604051805190500160ff16821015613d99578a82602081101515613ce557fe5b1a7f0100000000000000000000000000000000000000000000000000000000000000027effffffffffffffffffffffffffffffffffffffffffffffffffffffffffffff19168983602081101515613d3857fe5b1a7f0100000000000000000000000000000000000000000000000000000000000000027effffffffffffffffffffffffffffffffffffffffffffffffffffffffffffff19161415613d8c5782806001019350505b8180600101925050613bc6565b613e2984848e73ffffffffffffffffffffffffffffffffffffffff166337f4a9c46000604051602001526040518163ffffffff167c0100000000000000000000000000000000000000000000000000000000028152600401602060405180830381600087803b1515613e0a57600080fd5b5af11515613e1757600080fd5b5050506040518051905060ff166142fb565b905060018c73ffffffffffffffffffffffffffffffffffffffff1663aa2aaeca836000604051602001526040518263ffffffff167c010000000000000000000000000000000000000000000000000000000002815260040180828152602001915050602060405180830381600087803b1515613ea457600080fd5b5af11515613eb157600080fd5b5050506040518051905003995050505050505093509350935093565b60008060008060008060008060008060009054906101000a900473ffffffffffffffffffffffffffffffffffffffff1673ffffffffffffffffffffffffffffffffffffffff163373ffffffffffffffffffffffffffffffffffffffff16141515613f3657600080fd5b60009350600092508b91505b8a8210156140ea578d73ffffffffffffffffffffffffffffffffffffffff1663df85d49d8e846000604051602001526040518363ffffffff167c0100000000000000000000000000000000000000000000000000000000028152600401808360ff1660ff16815260200182815260200192505050602060405180830381600087803b1515613fcf57600080fd5b5af11515613fdc57600080fd5b505050604051805190509050600160009054906101000a900473ffffffffffffffffffffffffffffffffffffffff1673ffffffffffffffffffffffffffffffffffffffff16637dc379fa82600060405160a001526040518263ffffffff167c01000000000000000000000000000000000000000000000000000000000281526004018082815260200191505060a060405180830381600087803b151561408157600080fd5b5af1151561408e57600080fd5b505050604051805190602001805190602001805190602001805190602001805190508367ffffffffffffffff169350809950819a50829b50839c50849d5050505050508986028401935085830192508180600101925050613f42565b8d73ffffffffffffffffffffffffffffffffffffffff1663703a66d28e866040518363ffffffff167c0100000000000000000000000000000000000000000000000000000000028152600401808360ff1660ff16815260200182815260200192505050600060405180830381600087803b151561416657600080fd5b5af1151561417357600080fd5b5050508d73ffffffffffffffffffffffffffffffffffffffff1663d87d8b3d8e856040518363ffffffff167c0100000000000000000000000000000000000000000000000000000000028152600401808360ff1660ff16815260200182815260200192505050600060405180830381600087803b15156141f257600080fd5b5af115156141ff57600080fd5b5050508d73ffffffffffffffffffffffffffffffffffffffff1663b9f85c588e8d6040518363ffffffff167c0100000000000000000000000000000000000000000000000000000000028152600401808360ff1660ff16815260200182815260200192505050600060405180830381600087803b151561427e57600080fd5b5af1151561428b57600080fd5b5050507f808ec1b88c41a836613e4712515f12af4d4862d29ac075e1d013a1e59d67beb88d8c8c8787604051808660ff1660ff1681526020018581526020018481526020018381526020018281526020019550505050505060405180910390a15050505050505050505050505050565b6000826001830185020190509392505050565b6020604051908101604052806000815250905600a265627a7a723058204dc517eba21283b04f1fcc5684fd7a0ce316a24d911b881e751078808cf46bfa6c6578706572696d656e74616cf50037",
  "source": "pragma solidity ^0.4.4;\npragma experimental \"v0.5.0\";\nimport \"./owned.sol\";\nimport \"./Interface.sol\";\nimport \"./ChainLotPool.sol\";\n\ncontract DrawingTool is owned{\n\n\tChainLotTicketInterface public chainLotTicket;\n  \tCLTokenInterface public clToken;\n  \t\n  \tevent PrepareAward(bytes jackpotNumbers, uint poolBlockNumber, uint allTicketsCount);\n\tevent ToBeAward(bytes32 ticketNumber, uint ticketCount, uint ticketId, address user, uint blockNumber, uint awardValue);\n\tevent MatchAwards(bytes32 jackpotNumbers, uint endIndex, uint allTicketsCount);\n\tevent MatchRule(bytes32 jackpotNumbers, bytes32 ticketNumber, uint ticketCount, uint ticketId, uint blockNumber, uint ruleId);\n\tevent DistributeAwards(uint ruleId, uint toDistCount, uint distributedIndex, uint ticketIdsLength, uint awardRulesLength);\n  \tevent TransferAward(address winner, uint value);\n  \tevent TransferDevCut(address dev, uint value);\n  \tevent CalculateAwards(uint8 ruleId, uint winnersTicketCount, uint awardEther, uint totalWinnersAward, uint totalTicketCount);\n  \tevent SplitAward(uint8 ruleId, uint totalWinnersAward, uint leftBalance);\n  \tevent CutAward(uint historyCut, uint devCut, uint futureCut);\n  \tevent TransferUnawarded(address from, address to, uint value);\n  \tevent GenRandomNumbers(uint random, uint blockNumber, uint hash, uint addressInt, uint shift, uint timestamp, uint difficulty);\n\n\tstruct awardRule{\n\t\tuint whiteNumberCount;\n\t\tuint yellowNumberCount;\n\t\tuint awardEther;\n\t}\n\n\tstruct awardData {\n\t\taddress user;\n\t\tuint value;\n\t}\n\n  \tstruct winnerTicketQueue {\n    \tuint[] ticketIds;\n    \tuint processedIndex;\n    \tuint distributedIndex;\n  \t}\n\n  \t\n  \tfunction init(ChainLotTicketInterface _chainLotTicket,\n\t\t\t\t\t\tCLTokenInterface _clToken) public {\n  \t\tchainLotTicket = _chainLotTicket;\n\t\tclToken = _clToken;\n  \t}\n\n  \tfunction getRuleKey(uint _whiteNumberCount, uint _yellowNumberCount, uint maxYellowNumberCount) \n  \t\tinternal pure returns(uint index){\n\t\treturn _whiteNumberCount*(maxYellowNumberCount+1)+_yellowNumberCount;\n\t}\n\n\t//calculate jackpot \n\tfunction prepareAwards(address poolAddress) onlyOwner external {\n\t\tChainLotPool pool = ChainLotPool(poolAddress);\n\t\trequire(pool.stage() == ChainLotPool.DrawingStage.INITIED);\n\n\t\tbytes memory jackpotNumbers = genRandomNumbers(pool.poolBlockNumber(), 8, \n\t\t\tpool.maxWhiteNumberCount(), pool.maxYellowNumberCount(), pool.maxWhiteNumber(), pool.maxYellowNumber(), pool.getEntropy());\n\t\t\n\t\tpool.setJackpotNumbers(jackpotNumbers);\n\n\t\tPrepareAward(jackpotNumbers, pool.poolBlockNumber(), pool.getAllTicketsCount());\n\n\t\tpool.setStage(ChainLotPool.DrawingStage.PREPARED);\n\t}\n\n\t//match winners\n\tfunction matchAwards(address poolAddress, uint toMatchCount) onlyOwner \n\t\texternal {\n\t\tChainLotPool pool = ChainLotPool(poolAddress);\n\t\trequire(pool.stage() == ChainLotPool.DrawingStage.PREPARED);\n\n\t\tbytes32 jackpotNumbers = pool.getJackpotNumbers();\n\t\t//statistic winners\n\t\tuint endIndex = pool.lastMatchedTicketIndex() + toMatchCount;\n\t\tuint allTicketsCount = pool.getAllTicketsCount();\n\t\tif(endIndex > allTicketsCount) endIndex = allTicketsCount;\n\n\t\tfor(uint i = pool.lastMatchedTicketIndex(); i < endIndex; i ++) {\n\t\t\tuint ticketId = pool.allTicketsId(i);\n\t\t\t\n\t\t\tuint ruleId; bytes32 numbers;uint count;uint blockNumber;\n\t\t\t(ruleId, numbers, count, blockNumber) = matchRule(ticketId, pool, jackpotNumbers);\n\t\t\t\n\t\t\tif(ruleId >= 0 && ruleId < pool.getAwardRulesLength()) {\n\t\t        //match one rule!\n\t\t        pool.pushWinnerTicket(ruleId, ticketId);\n\t\t        MatchRule(jackpotNumbers, numbers, count, ticketId, blockNumber, ruleId);\n\t\t\t}\n\t\t}\n\n\t\tMatchAwards(jackpotNumbers, endIndex, allTicketsCount);\n\n\t\tpool.setLastMatchedTicketIndex(endIndex);\n\n\t\tif(endIndex == allTicketsCount)\n\t\t\tpool.setStage(ChainLotPool.DrawingStage.MATCHED);\n\t\t\n\t}\n\n\tevent GetRuleKey(bytes32 jackpotNumbers, bytes32 numbers, uint matchedWhiteCount, uint matchedYellowCount, uint ruleKey, uint ruleId);\n\n\tfunction matchRule(uint ticketId, ChainLotPool pool, bytes32 jackpotNumbers) internal view \n\t\treturns(uint ruleId, bytes32 numbers, uint count, uint blockNumber) {\n\t\t\taddress mb; uint ma;\n\t        (mb, ma, numbers, count, blockNumber) = chainLotTicket.getTicket(ticketId);\n\t      \t\n\t\t\tuint matchedWhiteCount = 0;\n\t\t\tuint matchedYellowCount = 0;\n\t\t\tfor(uint j = 0; j < pool.maxWhiteNumberCount(); j++) {\n\t\t\t\tif(numbers[j] == jackpotNumbers[j]) {\n\t\t\t\t\tmatchedWhiteCount ++;\n\t\t\t\t}\n\t\t\t}\n\t\t\tfor(j = pool.maxWhiteNumberCount(); j <  pool.maxWhiteNumberCount() + pool.maxYellowNumberCount(); j++) {\n\t\t\t\tif(numbers[j] == jackpotNumbers[j]) {\n\t\t\t\t\tmatchedYellowCount ++;\n\t\t\t\t}\n\t\t\t}\n\n\t\t\tuint ruleKey = getRuleKey(matchedWhiteCount, matchedYellowCount, pool.maxYellowNumberCount());\n\t\t\truleId = pool.awardRulesIndex(ruleKey) - 1;\n\n\t\t\t//GetRuleKey(jackpotNumbers, numbers, matchedWhiteCount, matchedYellowCount, ruleKey, ruleId);\n\t}\n\n\n  \tfunction calculateAwards(address poolAddress, uint8 ruleId, uint8 toCalcCount) onlyOwner external {\n  \t\tChainLotPool pool = ChainLotPool(poolAddress);\n\t  \trequire(pool.stage() == ChainLotPool.DrawingStage.MATCHED);\n\t  \t//calculate winners award, from top to bottom, top winners takes all\n\n\t  \tuint winnerTicketCount = pool.getWinnerTicketCount(ruleId);\n\t  \tuint processedIndex = pool.getProcessedIndex(ruleId);\n\t  \tuint awardEther = pool.getAwardEther(ruleId);\n\t    \n\t    if(winnerTicketCount > processedIndex) {\n\t        uint endIndex = processedIndex + toCalcCount;\n\n\t        if(endIndex > winnerTicketCount) endIndex = winnerTicketCount;\n\n\t        doCaculate(pool, ruleId, processedIndex, endIndex, awardEther);    \n\t    }\n\n\t    if(ruleId == pool.getAwardRulesLength() -1 && endIndex == winnerTicketCount) {\n\t      \tpool.setStage(ChainLotPool.DrawingStage.CALCULATED);\n\t    }\n\n  \t}\n\n  \tfunction doCaculate(ChainLotPool pool, uint8 ruleId, uint processedIndex, uint endIndex, uint awardEther) \n  \t\tonlyOwner internal {\n\t    address mb; uint ma; bytes32 numbers; uint count; uint blockNumber;  \n\t    uint totalWinnersAward = 0;\n\t    uint totalTicketCount = 0;\n\t            \n\t    for(uint j=processedIndex;j<endIndex; j++) {\n          uint ticketId = pool.getWinnerTicket(ruleId, j);\n          (mb, ma, numbers, count, blockNumber) = chainLotTicket.getTicket(ticketId);\n          totalWinnersAward += count * awardEther;\n          totalTicketCount += count;\n        }\n\n        pool.addTotalWinnersAward(ruleId, totalWinnersAward);\n        pool.addTotalTicketCount(ruleId, totalTicketCount);\n\t\t//move pointer\n     \tpool.setProcessedIndex(ruleId, endIndex);\n\n     \tCalculateAwards(ruleId, endIndex, awardEther, totalWinnersAward, totalTicketCount); \n  \t}\n  \t\n  \tfunction splitAward(address poolAddress) onlyOwner external {\n  \t\tChainLotPool pool = ChainLotPool(poolAddress);\n  \t\trequire(pool.stage() == ChainLotPool.DrawingStage.CALCULATED);\n\n  \t\tuint totalBalance = clToken.balanceOf(poolAddress);\n  \t\tuint historyCut = totalBalance/10;\n  \t\tuint futureCut = totalBalance/10;\n  \t\tuint devCut = totalBalance/50;\n\n  \t\ttotalBalance = totalBalance - historyCut - futureCut - devCut;\n\n  \t\tfor(uint8 i=0; i<pool.getAwardRulesLength(); i++) {\n  \t\t\tif(totalBalance >=  pool.getTotalWinnersAward(i)) {\n\t          totalBalance -= pool.getTotalWinnersAward(i);\n\t        }\n\t        else {\n\t          pool.setTotalWinnersAward(i, totalBalance);\n\t          totalBalance = 0;\n\t        }\n\t        SplitAward(i, pool.getTotalWinnersAward(i), totalBalance);\n  \t\t}\n\n  \t\tpool.setHistoryCut(historyCut);\n  \t\tpool.setDevCut(devCut);\n  \t\tpool.setFutureCut(futureCut);\n\n  \t\tCutAward(historyCut, devCut, futureCut);\n\n  \t\tpool.setStage(ChainLotPool.DrawingStage.SPLITED);\n  \t}\n\n  \n\n  \tfunction distributeAwards(address poolAddress, uint8 ruleId, uint toDistCount) onlyOwner external {\n  \t\tChainLotPool pool = ChainLotPool(poolAddress);\n  \t\trequire(pool.stage() == ChainLotPool.DrawingStage.SPLITED);\n\t\t\n\t\tuint winnerTicketCount = pool.getWinnerTicketCount(ruleId);\n\t  \tuint distributedIndex = pool.getDistributedIndex(ruleId);\n\t  \t\n\n\t  \tif(winnerTicketCount > distributedIndex) {\n\t  \t\tuint endIndex = distributedIndex + toDistCount;\n\t\t  \tif(endIndex > winnerTicketCount) endIndex = winnerTicketCount;\n\n\t\t  \tdoDistribute(pool, ruleId, distributedIndex, endIndex);\n\n\t\t  \tDistributeAwards(ruleId, toDistCount, endIndex, winnerTicketCount, pool.getAwardRulesLength());\n\t  \t}\n\n\t  \tif(ruleId == pool.getAwardRulesLength() -1 && endIndex == winnerTicketCount) {\n\t\t  \t\tpool.setStage(ChainLotPool.DrawingStage.DISTRIBUTED);\n\t\t}\n  \t}\n\n  \tfunction doDistribute(ChainLotPool pool, uint8 ruleId, uint distributedIndex, uint endIndex) onlyOwner internal{\n  \t\tuint totalTicketCount = pool.getTotalTicketCount(ruleId);\n\t  \tuint totalWinnerAward = pool.getTotalWinnersAward(ruleId);\n\n\t  \tif(totalTicketCount > 0) {\n\t  \t\taddress mb; uint ma; bytes32 numbers; uint count; uint blockNumber;\n\t          \n  \t\t\tfor(uint j=distributedIndex; j<endIndex; j++){\n\t          uint ticketId = pool.getWinnerTicket(ruleId, j);\n\t          (mb, ma, numbers, count, blockNumber) = chainLotTicket.getTicket(ticketId);\n\t          uint awardValue = count * totalWinnerAward / totalTicketCount;\n\t          address awardUser = pool.addToBeAward(ticketId, awardValue);\n\t          ToBeAward(numbers, count, ticketId, awardUser, blockNumber, awardValue);\n\t    \t}\n  \t\t}\n\t  \tpool.setDistributedIndex(ruleId, endIndex);\n  \t}\n\n  \tfunction sendAwards(address poolAddress, uint toAwardCount) onlyOwner external {\n  \t\tChainLotPool pool = ChainLotPool(poolAddress);\n  \t\trequire(pool.stage() == ChainLotPool.DrawingStage.DISTRIBUTED);\n  \t\t\n  \t\tuint endIndex = pool.awardIndex() + toAwardCount;\n\t\tuint toBeAwardLength = pool.getToBeAwardLength();\n\t\tif(endIndex > toBeAwardLength) endIndex = toBeAwardLength;\n\n\t\tpool.setAwardIndex(endIndex);\n\t    if(endIndex == toBeAwardLength) {\n\t    \tpool.setStage(ChainLotPool.DrawingStage.SENT);\n\t    }\n\t\t\n\t  \taddress user; uint value; \n\t  \tfor(uint i=pool.awardIndex(); i<endIndex; i++) {\n\t  \t\t(user, value) = pool.toBeAward(i);\n\t\t\tpool.transfer(user, value);\n      \t\tTransferAward(user, value);\n\t\t}\n\n\t\tuint devCut = pool.devCut();\n\n\t\tif(devCut > 0) {\n\t\t\tpool.setDevCut(0);\n\t\t\tpool.transfer(owner, devCut);\n\t\t\tTransferDevCut(owner, devCut);\n\t\t}\n\t}\n\n\tfunction transferUnawarded(address poolAddress, address to) onlyOwner external {\n\t\tChainLotPool pool = ChainLotPool(poolAddress);\n  \t\trequire(pool.stage() == ChainLotPool.DrawingStage.SENT);\n\n      \tuint toBeTransfer = clToken.balanceOf(poolAddress) - pool.historyCut();\n      \tif(toBeTransfer > 0) {\n      \t\tpool.transfer(to, toBeTransfer);\n      \t\tTransferUnawarded(poolAddress, to, toBeTransfer);\n      \t}\n\n      \tpool.setStage(ChainLotPool.DrawingStage.UNAWARED_TRANSFERED);\n\t}\n\n\tfunction genRandomNumbers(uint blockNumber, uint shift, uint8 maxWhiteNumberCount, uint8 maxYellowNumberCount,\n\t uint8 maxWhiteNumber, uint8 maxYellowNumber, uint entropy) public view returns(bytes _numbers){\n\t\trequire(blockNumber < block.number);\n\t\tuint hash = uint(block.blockhash(blockNumber));\n\t\tuint addressInt = uint(msg.sender);\n\t\tuint random = uint(keccak256(entropy, block.timestamp, block.difficulty, hash, addressInt));\n\n\t\t//GenRandomNumbers(random, blockNumber, hash, addressInt, shift, block.timestamp, block.difficulty);\n\n\t\trequire(random != 0);\n\t\trandom = random >> shift;\n\t\tbytes memory numbers = new bytes(maxWhiteNumberCount+maxYellowNumberCount);\n\t\tfor(uint8 i=0;i<maxWhiteNumberCount;i++) {\n\t\t\tnumbers[i] = byte(random%maxWhiteNumber + 1);\n\t\t\trandom = random >> 8;\n\n\t\t}\n\t\tfor(i=maxWhiteNumberCount;i<numbers.length;i++) {\n\t\t\tnumbers[i] = byte(random%maxYellowNumber + 1);\n\t\t\trandom = random >> 8;\n\n\t\t}\n\t\treturn numbers;\n\t}\n\n}\n",
  "sourcePath": "/Users/phx/eth/chainlot/contracts/DrawingTool.sol",
  "compiler": {
    "name": "solc",
    "version": "0.4.19+commit.c4cbbb05.Emscripten.clang"
  },
  "schemaVersion": "2.0.0",
  "updatedAt": "2018-07-05T12:48:44.069Z"
}