{
  "contractName": "ChainLot",
  "abi": [
    {
      "constant": false,
      "inputs": [],
      "name": "award",
      "outputs": [],
      "payable": false,
      "stateMutability": "nonpayable",
      "type": "function"
    },
    {
      "constant": false,
      "inputs": [
        {
          "name": "numbers",
          "type": "uint8[]"
        }
      ],
      "name": "buyTicket",
      "outputs": [],
      "payable": true,
      "stateMutability": "payable",
      "type": "function"
    },
    {
      "constant": true,
      "inputs": [],
      "name": "maxYellowNumber",
      "outputs": [
        {
          "name": "",
          "type": "uint8"
        }
      ],
      "payable": false,
      "stateMutability": "view",
      "type": "function"
    },
    {
      "constant": true,
      "inputs": [],
      "name": "maxWhiteNumber",
      "outputs": [
        {
          "name": "",
          "type": "uint8"
        }
      ],
      "payable": false,
      "stateMutability": "view",
      "type": "function"
    },
    {
      "constant": true,
      "inputs": [],
      "name": "lastAwardedNumber",
      "outputs": [
        {
          "name": "",
          "type": "uint256"
        }
      ],
      "payable": false,
      "stateMutability": "view",
      "type": "function"
    },
    {
      "constant": true,
      "inputs": [],
      "name": "owner",
      "outputs": [
        {
          "name": "",
          "type": "address"
        }
      ],
      "payable": false,
      "stateMutability": "view",
      "type": "function"
    },
    {
      "constant": true,
      "inputs": [],
      "name": "etherPerTicket",
      "outputs": [
        {
          "name": "",
          "type": "uint256"
        }
      ],
      "payable": false,
      "stateMutability": "view",
      "type": "function"
    },
    {
      "constant": true,
      "inputs": [],
      "name": "awardIntervalNumber",
      "outputs": [
        {
          "name": "",
          "type": "uint256"
        }
      ],
      "payable": false,
      "stateMutability": "view",
      "type": "function"
    },
    {
      "constant": false,
      "inputs": [],
      "name": "buyRandom",
      "outputs": [
        {
          "name": "_numbers",
          "type": "uint8[]"
        }
      ],
      "payable": true,
      "stateMutability": "payable",
      "type": "function"
    },
    {
      "constant": true,
      "inputs": [],
      "name": "lastAwardedTicketIndex",
      "outputs": [
        {
          "name": "",
          "type": "uint256"
        }
      ],
      "payable": false,
      "stateMutability": "view",
      "type": "function"
    },
    {
      "inputs": [
        {
          "name": "_maxWhiteNumber",
          "type": "uint8"
        },
        {
          "name": "_maxYellowNumber",
          "type": "uint8"
        },
        {
          "name": "_etherPerTicket",
          "type": "uint256"
        },
        {
          "name": "_awardIntervalNumber",
          "type": "uint256"
        }
      ],
      "payable": false,
      "stateMutability": "nonpayable",
      "type": "constructor"
    },
    {
      "anonymous": false,
      "inputs": [
        {
          "indexed": false,
          "name": "numbers",
          "type": "uint8[]"
        },
        {
          "indexed": false,
          "name": "ticketCount",
          "type": "uint256"
        },
        {
          "indexed": false,
          "name": "user",
          "type": "address"
        },
        {
          "indexed": false,
          "name": "blockNumber",
          "type": "uint256"
        },
        {
          "indexed": false,
          "name": "ticketsCount",
          "type": "uint256"
        }
      ],
      "name": "BuyTicket",
      "type": "event"
    },
    {
      "anonymous": false,
      "inputs": [
        {
          "indexed": false,
          "name": "jackpotNumbers",
          "type": "uint8[]"
        },
        {
          "indexed": false,
          "name": "lastAwardNumber",
          "type": "uint256"
        }
      ],
      "name": "Award",
      "type": "event"
    },
    {
      "constant": false,
      "inputs": [
        {
          "name": "newOwner",
          "type": "address"
        }
      ],
      "name": "transferOwnership",
      "outputs": [],
      "payable": false,
      "stateMutability": "nonpayable",
      "type": "function"
    }
  ],
  "bytecode": "0x6060604052341561000f57600080fd5b604051608080610cad83398101604052808051906020019091908051906020019091908051906020019091908051906020019091905050336000806101000a81548173ffffffffffffffffffffffffffffffffffffffff021916908373ffffffffffffffffffffffffffffffffffffffff16021790555083600060146101000a81548160ff021916908360ff16021790555082600060156101000a81548160ff021916908360ff160217905550816001819055508060028190555050505050610bd0806100dd6000396000f3006060604052600436106100af576000357c0100000000000000000000000000000000000000000000000000000000900463ffffffff16806341a494c5146100b45780635e349acc146100c95780635f7d92871461011857806370f4c343146101475780638b412c23146101765780638da5cb5b1461019f578063b86d7c6c146101f4578063b9d628411461021d578063bba8c17214610246578063f2fde38b146102a5578063f3668a95146102de575b600080fd5b34156100bf57600080fd5b6100c7610307565b005b610116600480803590602001908201803590602001908080602002602001604051908101604052809392919081815260200183836020028082843782019150505050505091905050610439565b005b341561012357600080fd5b61012b61071b565b604051808260ff1660ff16815260200191505060405180910390f35b341561015257600080fd5b61015a61072e565b604051808260ff1660ff16815260200191505060405180910390f35b341561018157600080fd5b610189610741565b6040518082815260200191505060405180910390f35b34156101aa57600080fd5b6101b2610747565b604051808273ffffffffffffffffffffffffffffffffffffffff1673ffffffffffffffffffffffffffffffffffffffff16815260200191505060405180910390f35b34156101ff57600080fd5b61020761076c565b6040518082815260200191505060405180910390f35b341561022857600080fd5b610230610772565b6040518082815260200191505060405180910390f35b61024e610778565b6040518080602001828103825283818151815260200191508051906020019060200280838360005b83811015610291578082015181840152602081019050610276565b505050509050019250505060405180910390f35b34156102b057600080fd5b6102dc600480803573ffffffffffffffffffffffffffffffffffffffff169060200190919050506107a6565b005b34156102e957600080fd5b6102f1610844565b6040518082815260200191505060405180910390f35b600061031161097b565b60008060009054906101000a900473ffffffffffffffffffffffffffffffffffffffff1673ffffffffffffffffffffffffffffffffffffffff163373ffffffffffffffffffffffffffffffffffffffff1614151561036e57600080fd5b6002546001430381151561037e57fe5b066001430303925061038f8361084a565b91507ff1f73cbb878ce7449036bbdd0628aa53e86fbe67bd749a41b606f2e2a5d2f00d82846040518080602001838152602001828103825284818151815260200191508051906020019060200280838360005b838110156103fd5780820151818401526020810190506103e2565b50505050905001935050505060405180910390a160016004540190505b60058054905081101561043457808060010191505061041a565b505050565b60008061044461098f565b6006845114151561045457600080fd5b600092505b60058360ff1610156104da576001848460ff1681518110151561047857fe5b9060200190602002015160ff16101580156104c25750600060149054906101000a900460ff1660ff16848460ff168151811015156104b257fe5b9060200190602002015160ff1611155b15156104cd57600080fd5b8280600101935050610459565b60018460058151811015156104eb57fe5b9060200190602002015160ff16101580156105335750600060159054906101000a900460ff1660ff1684600581518110151561052357fe5b9060200190602002015160ff1611155b151561053e57600080fd5b6001543481151561054b57fe5b04915060008211151561055d57600080fd5b6080604051908101604052808581526020018381526020013373ffffffffffffffffffffffffffffffffffffffff168152602001438152509050600580548060010182816105ab91906109d4565b9160005260206000209060040201600083909190915060008201518160000190805190602001906105dd929190610a06565b506020820151816001015560408201518160020160006101000a81548173ffffffffffffffffffffffffffffffffffffffff021916908373ffffffffffffffffffffffffffffffffffffffff160217905550606082015181600301555050507f8bd34cff7e79bf3a8eb1f584724843301f14c5128b6d762a40835d4e49a74c5c816000015182602001518360400151846060015160058054905060405180806020018681526020018573ffffffffffffffffffffffffffffffffffffffff1673ffffffffffffffffffffffffffffffffffffffff168152602001848152602001838152602001828103825287818151815260200191508051906020019060200280838360005b838110156106fe5780820151818401526020810190506106e3565b50505050905001965050505050505060405180910390a150505050565b600060159054906101000a900460ff1681565b600060149054906101000a900460ff1681565b60035481565b6000809054906101000a900473ffffffffffffffffffffffffffffffffffffffff1681565b60015481565b60025481565b61078061097b565b61078861097b565b6107946001430361084a565b905061079f81610439565b8091505090565b6000809054906101000a900473ffffffffffffffffffffffffffffffffffffffff1673ffffffffffffffffffffffffffffffffffffffff163373ffffffffffffffffffffffffffffffffffffffff1614151561080157600080fd5b806000806101000a81548173ffffffffffffffffffffffffffffffffffffffff021916908373ffffffffffffffffffffffffffffffffffffffff16021790555050565b60045481565b61085261097b565b600080600061085f61097b565b6000438710151561086f57600080fd5b86406001900494503373ffffffffffffffffffffffffffffffffffffffff169350838502925060066040518059106108a45750595b90808252806020026020018201604052509150600090505b60058160ff161015610928576001600060149054906101000a900460ff1660ff16848115156108e757fe5b0601828260ff168151811015156108fa57fe5b9060200190602002019060ff16908160ff16815250506008839060020a9004925080806001019150506108bc565b6001600060159054906101000a900460ff1660ff168481151561094757fe5b060182600581518110151561095857fe5b9060200190602002019060ff16908160ff16815250508195505050505050919050565b602060405190810160405280600081525090565b6080604051908101604052806109a3610aad565b815260200160008152602001600073ffffffffffffffffffffffffffffffffffffffff168152602001600081525090565b815481835581811511610a0157600402816004028360005260206000209182019101610a009190610ac1565b5b505050565b82805482825590600052602060002090601f01602090048101928215610a9c5791602002820160005b83821115610a6d57835183826101000a81548160ff021916908360ff1602179055509260200192600101602081600001049283019260010302610a2f565b8015610a9a5782816101000a81549060ff0219169055600101602081600001049283019260010302610a6d565b505b509050610aa99190610b27565b5090565b602060405190810160405280600081525090565b610b2491905b80821115610b205760008082016000610ae09190610b57565b60018201600090556002820160006101000a81549073ffffffffffffffffffffffffffffffffffffffff0219169055600382016000905550600401610ac7565b5090565b90565b610b5491905b80821115610b5057600081816101000a81549060ff021916905550600101610b2d565b5090565b90565b50805460008255601f016020900490600052602060002090810190610b7c9190610b7f565b50565b610ba191905b80821115610b9d576000816000905550600101610b85565b5090565b905600a165627a7a72305820e527ab892b94a78c78000acd154c54d77e663aebbe5454aae7b02370de8a53eb0029",
  "source": "pragma solidity ^0.4.4;\n\ncontract owned {\n    address public owner;\n\n    function owned() public {\n        owner = msg.sender;\n    }\n\n    modifier onlyOwner {\n        require(msg.sender == owner);\n        _;\n    }\n\n    function transferOwnership(address newOwner) onlyOwner public {\n        owner = newOwner;\n    }\n}\n\n/*\naward rules:\n  * 5+1 jackpot\n  * 5+0 5000 ETH\n  * 4+1 50 ETH\n  * 4+0 2.5 ETH\n  * 3+1 1 ETH\n  * 3+0 0.05 ETH\n  * 2+1 0.05 ETH\n  * 1+1 0.02 ETH\n  * 0+1 0.01 ETH\n*/\ncontract ChainLot is owned{\n\tuint8 public maxWhiteNumber; //70;\n\tuint8 public maxYellowNumber; //25;\n\tuint256 public etherPerTicket; //10**18/100;\n\tuint256 public awardIntervalNumber; //50000\n\tuint256 public lastAwardedNumber;\n\tuint256 public lastAwardedTicketIndex;\n\n\tstruct ticket {\n\t\tuint8[] numbers;\n\t\tuint256 count;\n\t\taddress user;\n\t\tuint256 blockNumber;\n\t}\n\n\tticket[] allTickets;\n\n\tevent BuyTicket(uint8[] numbers, uint256 ticketCount, address user, uint256 blockNumber, uint256 ticketsCount);\n\tevent Award(uint8[] jackpotNumbers, uint256 lastAwardNumber);\n\t\n  \tfunction ChainLot(uint8 _maxWhiteNumber, uint8 _maxYellowNumber, uint256 _etherPerTicket, uint256 _awardIntervalNumber) public {\n  \t\tmaxWhiteNumber = _maxWhiteNumber;\n  \t\tmaxYellowNumber = _maxYellowNumber;\n  \t\tetherPerTicket = _etherPerTicket;\n  \t\tawardIntervalNumber = _awardIntervalNumber;\n  \t}\n\n  \t//uint16[6] \n  \t//1-5: <=70\n  \t//6: <=25\n  \tfunction buyTicket(uint8[] numbers) payable public {\n  \t\trequire(numbers.length == 6);\n  \t\tfor(uint8 index=0; index<5; index++) {\n  \t\t\trequire(numbers[index]>=1 && numbers[index]<=maxWhiteNumber);\t\n  \t\t} \t\t\n  \t\trequire(numbers[5]>=1&&numbers[5]<=maxYellowNumber);\n\n  \t\tuint256 ticketCount = msg.value/etherPerTicket;\n  \t\trequire(ticketCount > 0);\n  \t\tticket memory t = ticket(numbers, ticketCount, msg.sender, block.number);\n  \t\tallTickets.push(t);\n  \t\tBuyTicket(t.numbers, t.count, t.user, t.blockNumber, allTickets.length);\n  \t}\n\n  \t//random numbers\n  \t//random seed: number-1 block hash x user address\n  \tfunction buyRandom() payable public returns(uint8[] _numbers){\n  \t\tuint8[] memory numbers = genRandomNumbers(block.number - 1);\n  \t\tbuyTicket(numbers);\n  \t\treturn numbers;\n  \t}\n\n  \t//calculate jackpot and other winners and send awards\n  \tfunction award() onlyOwner public {\n  \t\t//get last awardIntervalNumber\n  \t\tuint256 lastAwardNumber = block.number - 1 - (block.number - 1)%awardIntervalNumber;\n  \t\tuint8[] memory jackpotNumbers = genRandomNumbers(lastAwardNumber);\n  \t\tAward(jackpotNumbers, lastAwardNumber);\n\n  \t\t//TODO: calculate winners and send out award\n  \t\tfor(uint256 index = lastAwardedTicketIndex+1; index < allTickets.length; index ++) {\n\n  \t\t}\n\n  \t}\n\n  \tfunction genRandomNumbers(uint256 blockNumber) internal returns(uint8[] memory _numbers){\n  \t\trequire(blockNumber < block.number);\n  \t\tuint256 hash = uint256(block.blockhash(blockNumber));\n  \t\tuint256 addressInt = uint256(msg.sender);\n  \t\tuint256 random = hash * addressInt;\n  \t\tuint8[] memory numbers = new uint8[](6);\n  \t\tfor(uint8 index=0;index<5;index++) {\n  \t\t\tnumbers[index] = uint8(random%maxWhiteNumber + 1);\n  \t\t\trandom = random >> 8;\n\n  \t\t}\n  \t\tnumbers[5] = uint8(random%maxYellowNumber + 1);\n  \t\treturn numbers;\n  \t}\n}\n",
  "sourcePath": "/Users/phx/eth/chainlot/contracts/ChainLot.sol",
  "compiler": {
    "name": "solc",
    "version": "0.4.19+commit.c4cbbb05.Emscripten.clang"
  },
  "schemaVersion": "1.0.1",
  "updatedAt": "2018-03-20T03:29:10.153Z"
}