{
  "contractName": "ChainLotPool",
  "abi": [
    {
      "constant": true,
      "inputs": [],
      "name": "clToken",
      "outputs": [
        {
          "name": "",
          "type": "address"
        }
      ],
      "payable": false,
      "stateMutability": "view",
      "type": "function"
    },
    {
      "constant": true,
      "inputs": [],
      "name": "totalNumberCount",
      "outputs": [
        {
          "name": "",
          "type": "uint8"
        }
      ],
      "payable": false,
      "stateMutability": "view",
      "type": "function"
    },
    {
      "constant": true,
      "inputs": [],
      "name": "maxYellowNumberCount",
      "outputs": [
        {
          "name": "",
          "type": "uint8"
        }
      ],
      "payable": false,
      "stateMutability": "view",
      "type": "function"
    },
    {
      "constant": true,
      "inputs": [],
      "name": "chainLot",
      "outputs": [
        {
          "name": "",
          "type": "address"
        }
      ],
      "payable": false,
      "stateMutability": "view",
      "type": "function"
    },
    {
      "constant": true,
      "inputs": [
        {
          "name": "",
          "type": "uint256"
        }
      ],
      "name": "awardRules",
      "outputs": [
        {
          "name": "whiteNumberCount",
          "type": "uint256"
        },
        {
          "name": "yellowNumberCount",
          "type": "uint256"
        },
        {
          "name": "awardEther",
          "type": "uint256"
        }
      ],
      "payable": false,
      "stateMutability": "view",
      "type": "function"
    },
    {
      "constant": true,
      "inputs": [
        {
          "name": "",
          "type": "uint256"
        }
      ],
      "name": "allTicketsId",
      "outputs": [
        {
          "name": "",
          "type": "uint256"
        }
      ],
      "payable": false,
      "stateMutability": "view",
      "type": "function"
    },
    {
      "constant": true,
      "inputs": [],
      "name": "maxYellowNumber",
      "outputs": [
        {
          "name": "",
          "type": "uint8"
        }
      ],
      "payable": false,
      "stateMutability": "view",
      "type": "function"
    },
    {
      "constant": true,
      "inputs": [],
      "name": "allTicketsCount",
      "outputs": [
        {
          "name": "",
          "type": "uint256"
        }
      ],
      "payable": false,
      "stateMutability": "view",
      "type": "function"
    },
    {
      "constant": true,
      "inputs": [],
      "name": "maxWhiteNumber",
      "outputs": [
        {
          "name": "",
          "type": "uint8"
        }
      ],
      "payable": false,
      "stateMutability": "view",
      "type": "function"
    },
    {
      "constant": true,
      "inputs": [],
      "name": "totalTicketCountSum",
      "outputs": [
        {
          "name": "",
          "type": "uint256"
        }
      ],
      "payable": false,
      "stateMutability": "view",
      "type": "function"
    },
    {
      "constant": true,
      "inputs": [],
      "name": "tokenSum",
      "outputs": [
        {
          "name": "",
          "type": "uint256"
        }
      ],
      "payable": false,
      "stateMutability": "view",
      "type": "function"
    },
    {
      "constant": true,
      "inputs": [],
      "name": "owner",
      "outputs": [
        {
          "name": "",
          "type": "address"
        }
      ],
      "payable": false,
      "stateMutability": "view",
      "type": "function"
    },
    {
      "constant": true,
      "inputs": [],
      "name": "maxWhiteNumberCount",
      "outputs": [
        {
          "name": "",
          "type": "uint8"
        }
      ],
      "payable": false,
      "stateMutability": "view",
      "type": "function"
    },
    {
      "constant": true,
      "inputs": [],
      "name": "poolBlockNumber",
      "outputs": [
        {
          "name": "",
          "type": "uint256"
        }
      ],
      "payable": false,
      "stateMutability": "view",
      "type": "function"
    },
    {
      "constant": true,
      "inputs": [
        {
          "name": "",
          "type": "uint256"
        }
      ],
      "name": "awardRulesIndex",
      "outputs": [
        {
          "name": "",
          "type": "uint256"
        }
      ],
      "payable": false,
      "stateMutability": "view",
      "type": "function"
    },
    {
      "constant": true,
      "inputs": [],
      "name": "etherPerTicket",
      "outputs": [
        {
          "name": "",
          "type": "uint256"
        }
      ],
      "payable": false,
      "stateMutability": "view",
      "type": "function"
    },
    {
      "constant": true,
      "inputs": [],
      "name": "stage",
      "outputs": [
        {
          "name": "",
          "type": "uint8"
        }
      ],
      "payable": false,
      "stateMutability": "view",
      "type": "function"
    },
    {
      "constant": true,
      "inputs": [],
      "name": "historyCut",
      "outputs": [
        {
          "name": "",
          "type": "uint256"
        }
      ],
      "payable": false,
      "stateMutability": "view",
      "type": "function"
    },
    {
      "constant": true,
      "inputs": [
        {
          "name": "",
          "type": "uint256"
        }
      ],
      "name": "winnerTickets",
      "outputs": [
        {
          "name": "processedIndex",
          "type": "uint256"
        },
        {
          "name": "distributedIndex",
          "type": "uint256"
        }
      ],
      "payable": false,
      "stateMutability": "view",
      "type": "function"
    },
    {
      "constant": true,
      "inputs": [],
      "name": "chainLotTicket",
      "outputs": [
        {
          "name": "",
          "type": "address"
        }
      ],
      "payable": false,
      "stateMutability": "view",
      "type": "function"
    },
    {
      "constant": true,
      "inputs": [],
      "name": "lastMatchedTicketIndex",
      "outputs": [
        {
          "name": "",
          "type": "uint256"
        }
      ],
      "payable": false,
      "stateMutability": "view",
      "type": "function"
    },
    {
      "constant": true,
      "inputs": [],
      "name": "jackpotNumbers",
      "outputs": [
        {
          "name": "",
          "type": "bytes"
        }
      ],
      "payable": false,
      "stateMutability": "view",
      "type": "function"
    },
    {
      "constant": false,
      "inputs": [
        {
          "name": "newOwner",
          "type": "address"
        }
      ],
      "name": "transferOwnership",
      "outputs": [],
      "payable": false,
      "stateMutability": "nonpayable",
      "type": "function"
    },
    {
      "constant": true,
      "inputs": [
        {
          "name": "",
          "type": "uint256"
        }
      ],
      "name": "withdrawed",
      "outputs": [
        {
          "name": "",
          "type": "bool"
        }
      ],
      "payable": false,
      "stateMutability": "view",
      "type": "function"
    },
    {
      "constant": true,
      "inputs": [
        {
          "name": "",
          "type": "uint256"
        }
      ],
      "name": "distributeTickets",
      "outputs": [
        {
          "name": "processedIndex",
          "type": "uint256"
        },
        {
          "name": "distributedIndex",
          "type": "uint256"
        }
      ],
      "payable": false,
      "stateMutability": "view",
      "type": "function"
    },
    {
      "inputs": [
        {
          "name": "_poolBlockNumber",
          "type": "uint256"
        },
        {
          "name": "_maxWhiteNumber",
          "type": "uint8"
        },
        {
          "name": "_maxYellowNumber",
          "type": "uint8"
        },
        {
          "name": "_whiteNumberCount",
          "type": "uint8"
        },
        {
          "name": "_yellowNumberCount",
          "type": "uint8"
        },
        {
          "name": "_etherPerTicket",
          "type": "uint256"
        },
        {
          "name": "awardRulesArray",
          "type": "uint256[]"
        }
      ],
      "payable": false,
      "stateMutability": "nonpayable",
      "type": "constructor"
    },
    {
      "anonymous": false,
      "inputs": [
        {
          "indexed": false,
          "name": "poolBlockNumber",
          "type": "uint256"
        },
        {
          "indexed": false,
          "name": "numbers",
          "type": "bytes"
        },
        {
          "indexed": false,
          "name": "ticketCount",
          "type": "uint256"
        },
        {
          "indexed": false,
          "name": "ticketId",
          "type": "uint256"
        },
        {
          "indexed": false,
          "name": "user",
          "type": "address"
        },
        {
          "indexed": false,
          "name": "blockNumber",
          "type": "uint256"
        },
        {
          "indexed": false,
          "name": "totalTicketCountSum",
          "type": "uint256"
        },
        {
          "indexed": false,
          "name": "value",
          "type": "uint256"
        }
      ],
      "name": "BuyTicket",
      "type": "event"
    },
    {
      "anonymous": false,
      "inputs": [
        {
          "indexed": false,
          "name": "jackpotNumbers",
          "type": "bytes"
        },
        {
          "indexed": false,
          "name": "poolBlockNumber",
          "type": "uint256"
        },
        {
          "indexed": false,
          "name": "allTicketsCount",
          "type": "uint256"
        }
      ],
      "name": "PrepareAward",
      "type": "event"
    },
    {
      "anonymous": false,
      "inputs": [
        {
          "indexed": false,
          "name": "jackpotNumbers",
          "type": "bytes"
        },
        {
          "indexed": false,
          "name": "ticketNumber",
          "type": "bytes32"
        },
        {
          "indexed": false,
          "name": "ticketCount",
          "type": "uint256"
        },
        {
          "indexed": false,
          "name": "ticketId",
          "type": "uint256"
        },
        {
          "indexed": false,
          "name": "user",
          "type": "address"
        },
        {
          "indexed": false,
          "name": "blockNumber",
          "type": "uint256"
        },
        {
          "indexed": false,
          "name": "awardValue",
          "type": "uint256"
        }
      ],
      "name": "ToBeAward",
      "type": "event"
    },
    {
      "anonymous": false,
      "inputs": [
        {
          "indexed": false,
          "name": "jackpotNumbers",
          "type": "bytes"
        },
        {
          "indexed": false,
          "name": "lastMatchedTicketIndex",
          "type": "uint256"
        },
        {
          "indexed": false,
          "name": "endIndex",
          "type": "uint256"
        },
        {
          "indexed": false,
          "name": "allTicketsCount",
          "type": "uint256"
        }
      ],
      "name": "MatchAwards",
      "type": "event"
    },
    {
      "anonymous": false,
      "inputs": [
        {
          "indexed": false,
          "name": "jackpotNumbers",
          "type": "bytes"
        },
        {
          "indexed": false,
          "name": "ticketNumber",
          "type": "bytes32"
        },
        {
          "indexed": false,
          "name": "ticketCount",
          "type": "uint256"
        },
        {
          "indexed": false,
          "name": "ticketId",
          "type": "uint256"
        },
        {
          "indexed": false,
          "name": "blockNumber",
          "type": "uint256"
        },
        {
          "indexed": false,
          "name": "ruleId",
          "type": "uint256"
        },
        {
          "indexed": false,
          "name": "ruleEther",
          "type": "uint256"
        }
      ],
      "name": "MatchRule",
      "type": "event"
    },
    {
      "anonymous": false,
      "inputs": [
        {
          "indexed": false,
          "name": "ruleId",
          "type": "uint256"
        },
        {
          "indexed": false,
          "name": "toDistCount",
          "type": "uint256"
        },
        {
          "indexed": false,
          "name": "distributedIndex",
          "type": "uint256"
        },
        {
          "indexed": false,
          "name": "ticketIdsLength",
          "type": "uint256"
        },
        {
          "indexed": false,
          "name": "awardRulesLength",
          "type": "uint256"
        }
      ],
      "name": "DistributeAwards",
      "type": "event"
    },
    {
      "anonymous": false,
      "inputs": [
        {
          "indexed": false,
          "name": "winner",
          "type": "address"
        },
        {
          "indexed": false,
          "name": "value",
          "type": "uint256"
        }
      ],
      "name": "TransferAward",
      "type": "event"
    },
    {
      "anonymous": false,
      "inputs": [
        {
          "indexed": false,
          "name": "dev",
          "type": "address"
        },
        {
          "indexed": false,
          "name": "value",
          "type": "uint256"
        }
      ],
      "name": "TransferDevCut",
      "type": "event"
    },
    {
      "anonymous": false,
      "inputs": [
        {
          "indexed": false,
          "name": "user",
          "type": "address"
        },
        {
          "indexed": false,
          "name": "value",
          "type": "uint256"
        }
      ],
      "name": "TransferHistoryCut",
      "type": "event"
    },
    {
      "anonymous": false,
      "inputs": [
        {
          "indexed": false,
          "name": "added",
          "type": "uint256"
        },
        {
          "indexed": false,
          "name": "total",
          "type": "uint256"
        }
      ],
      "name": "AddHistoryCut",
      "type": "event"
    },
    {
      "anonymous": false,
      "inputs": [
        {
          "indexed": false,
          "name": "ruleId",
          "type": "uint8"
        },
        {
          "indexed": false,
          "name": "winnersTicketCount",
          "type": "uint256"
        },
        {
          "indexed": false,
          "name": "awardEther",
          "type": "uint256"
        },
        {
          "indexed": false,
          "name": "totalWinnersAward",
          "type": "uint256"
        },
        {
          "indexed": false,
          "name": "totalTicketCount",
          "type": "uint256"
        }
      ],
      "name": "CalculateAwards",
      "type": "event"
    },
    {
      "anonymous": false,
      "inputs": [
        {
          "indexed": false,
          "name": "ruleId",
          "type": "uint8"
        },
        {
          "indexed": false,
          "name": "totalWinnersAward",
          "type": "uint256"
        },
        {
          "indexed": false,
          "name": "leftBalance",
          "type": "uint256"
        }
      ],
      "name": "SplitAward",
      "type": "event"
    },
    {
      "anonymous": false,
      "inputs": [
        {
          "indexed": false,
          "name": "from",
          "type": "address"
        },
        {
          "indexed": false,
          "name": "to",
          "type": "address"
        },
        {
          "indexed": false,
          "name": "value",
          "type": "uint256"
        }
      ],
      "name": "TransferUnawarded",
      "type": "event"
    },
    {
      "anonymous": false,
      "inputs": [
        {
          "indexed": false,
          "name": "random",
          "type": "uint256"
        },
        {
          "indexed": false,
          "name": "blockNumber",
          "type": "uint256"
        },
        {
          "indexed": false,
          "name": "hash",
          "type": "uint256"
        },
        {
          "indexed": false,
          "name": "addressInt",
          "type": "uint256"
        },
        {
          "indexed": false,
          "name": "shift",
          "type": "uint256"
        },
        {
          "indexed": false,
          "name": "timestamp",
          "type": "uint256"
        },
        {
          "indexed": false,
          "name": "difficulty",
          "type": "uint256"
        }
      ],
      "name": "GenRandomNumbers",
      "type": "event"
    },
    {
      "anonymous": false,
      "inputs": [
        {
          "indexed": false,
          "name": "msg",
          "type": "uint256"
        }
      ],
      "name": "LOG",
      "type": "event"
    },
    {
      "constant": false,
      "inputs": [
        {
          "name": "_chainLotTicket",
          "type": "address"
        },
        {
          "name": "_clToken",
          "type": "address"
        },
        {
          "name": "_chainLot",
          "type": "address"
        }
      ],
      "name": "setPool",
      "outputs": [],
      "payable": false,
      "stateMutability": "nonpayable",
      "type": "function"
    },
    {
      "constant": false,
      "inputs": [
        {
          "name": "numbers",
          "type": "bytes"
        },
        {
          "name": "referer",
          "type": "address"
        }
      ],
      "name": "buyTicket",
      "outputs": [],
      "payable": true,
      "stateMutability": "payable",
      "type": "function"
    },
    {
      "constant": false,
      "inputs": [
        {
          "name": "referer",
          "type": "address"
        }
      ],
      "name": "buyRandom",
      "outputs": [],
      "payable": true,
      "stateMutability": "payable",
      "type": "function"
    },
    {
      "constant": false,
      "inputs": [
        {
          "name": "_from",
          "type": "address"
        },
        {
          "name": "_value",
          "type": "uint256"
        },
        {
          "name": "_token",
          "type": "address"
        },
        {
          "name": "_extraData",
          "type": "bytes"
        }
      ],
      "name": "receiveApproval",
      "outputs": [],
      "payable": false,
      "stateMutability": "nonpayable",
      "type": "function"
    },
    {
      "constant": false,
      "inputs": [],
      "name": "prepareAwards",
      "outputs": [],
      "payable": false,
      "stateMutability": "nonpayable",
      "type": "function"
    },
    {
      "constant": false,
      "inputs": [
        {
          "name": "toMatchCount",
          "type": "uint8"
        }
      ],
      "name": "matchAwards",
      "outputs": [],
      "payable": false,
      "stateMutability": "nonpayable",
      "type": "function"
    },
    {
      "constant": false,
      "inputs": [
        {
          "name": "ruleId",
          "type": "uint8"
        },
        {
          "name": "toCalcCount",
          "type": "uint8"
        }
      ],
      "name": "calculateAwards",
      "outputs": [],
      "payable": false,
      "stateMutability": "nonpayable",
      "type": "function"
    },
    {
      "constant": false,
      "inputs": [],
      "name": "splitAward",
      "outputs": [],
      "payable": false,
      "stateMutability": "nonpayable",
      "type": "function"
    },
    {
      "constant": false,
      "inputs": [
        {
          "name": "ruleId",
          "type": "uint8"
        },
        {
          "name": "toDistCount",
          "type": "uint256"
        }
      ],
      "name": "distributeAwards",
      "outputs": [],
      "payable": false,
      "stateMutability": "nonpayable",
      "type": "function"
    },
    {
      "constant": false,
      "inputs": [
        {
          "name": "toAwardCount",
          "type": "uint256"
        }
      ],
      "name": "sendAwards",
      "outputs": [],
      "payable": false,
      "stateMutability": "nonpayable",
      "type": "function"
    },
    {
      "constant": false,
      "inputs": [
        {
          "name": "ticketIds",
          "type": "uint256[]"
        }
      ],
      "name": "withdrawHistoryCut",
      "outputs": [],
      "payable": false,
      "stateMutability": "nonpayable",
      "type": "function"
    },
    {
      "constant": false,
      "inputs": [
        {
          "name": "user",
          "type": "address"
        },
        {
          "name": "ticketIds",
          "type": "uint256[]"
        }
      ],
      "name": "listUserHistoryCut",
      "outputs": [
        {
          "name": "_historyCut",
          "type": "uint256"
        }
      ],
      "payable": false,
      "stateMutability": "nonpayable",
      "type": "function"
    },
    {
      "constant": false,
      "inputs": [
        {
          "name": "to",
          "type": "address"
        }
      ],
      "name": "transferUnawarded",
      "outputs": [],
      "payable": false,
      "stateMutability": "nonpayable",
      "type": "function"
    },
    {
      "constant": false,
      "inputs": [
        {
          "name": "blockNumber",
          "type": "uint256"
        },
        {
          "name": "shift",
          "type": "uint256"
        }
      ],
      "name": "genRandomNumbers",
      "outputs": [
        {
          "name": "_numbers",
          "type": "bytes"
        }
      ],
      "payable": false,
      "stateMutability": "nonpayable",
      "type": "function"
    },
    {
      "constant": true,
      "inputs": [],
      "name": "getAllTicketsCount",
      "outputs": [
        {
          "name": "count",
          "type": "uint256"
        }
      ],
      "payable": false,
      "stateMutability": "view",
      "type": "function"
    }
  ],
  "bytecode": "0x60606040526000600c60006101000a81548160ff021916908360078111156200002457fe5b021790555034156200003557600080fd5b604051620045ad380380620045ad833981016040528080519060200190919080519060200190919080519060200190919080519060200190919080519060200190919080519060200190919080518201919050506000336000806101000a81548173ffffffffffffffffffffffffffffffffffffffff021916908373ffffffffffffffffffffffffffffffffffffffff1602179055508760018190555086600260006101000a81548160ff021916908360ff16021790555085600260016101000a81548160ff021916908360ff16021790555084600760006101000a81548160ff021916908360ff16021790555083600760016101000a81548160ff021916908360ff16021790555082600381905550600760019054906101000a900460ff16600760009054906101000a900460ff1601600760026101000a81548160ff021916908360ff160217905550600090505b81518110156200039a5781516003820111151515620001a357600080fd5b60008282815181101515620001b457fe5b9060200190602002015110158015620001f75750600760009054906101000a900460ff1660ff168282815181101515620001ea57fe5b9060200190602002015111155b15156200020357600080fd5b600082600183018151811015156200021757fe5b90602001906020020151101580156200025d5750600760019054906101000a900460ff1660ff1682600183018151811015156200025057fe5b9060200190602002015111155b15156200026957600080fd5b601080548060010182816200027f919062000425565b916000526020600020906003020160006060604051908101604052808686815181101515620002aa57fe5b9060200190602002015181526020018660018701815181101515620002cb57fe5b9060200190602002015181526020018660028701815181101515620002ec57fe5b906020019060200201518152509091909150600082015181600001556020820151816001015560408201518160020155505050601080549050600d60006200037c85858151811015156200033c57fe5b9060200190602002015186600187018151811015156200035857fe5b906020019060200201516200040164010000000002620035da176401000000009004565b81526020019081526020016000208190555060038101905062000185565b600090505b601080549050811015620003f3576000600e6000838152602001908152602001600020600101819055506000600e60008381526020019081526020016000206002018190555080806001019150506200039f565b505050505050505062000494565b6000816001600760019054906101000a900460ff160160ff16840201905092915050565b81548183558181151162000455576003028160030283600052602060002091820191016200045491906200045a565b5b505050565b6200049191905b808211156200048d57600080820160009055600182016000905560028201600090555060030162000461565b5090565b90565b61410980620004a46000396000f3006060604052600436106101ee576000357c0100000000000000000000000000000000000000000000000000000000900463ffffffff16806304b92f3f146101f35780630800e5f1146102255780630850cc4b1461027a57806316205520146102a857806317f3d493146102d75780633678c9f4146102fd57806337f4a9c4146103a25780633e43be3c146103d157806350b9bc92146104265780635255f1e4146104545780635b328df6146104995780635f7d9287146104d05780636c933d85146104ff5780636ea6c8b21461052857806370f4c343146105995780637266a232146105c8578063758b9ee0146105f157806382512ef81461061a57806388963771146106495780638da5cb5b146106725780638f4ffcb1146106c75780639a62b39a1461076b5780639c7365e5146107e25780639eb623d714610811578063a47808371461083a578063a703cc3d1461084f578063aa2aaeca14610872578063b86d7c6c146108a9578063c040e6b8146108d2578063cda886d614610909578063d8d9125514610932578063dfcab4171461096b578063e1e3af69146109a9578063e2c31561146109fe578063e302909414610a27578063ee5bac8914610ab5578063f29b7ae614610b16578063f2fde38b14610b2b578063f3aa119314610b64578063f58a789814610b9f575b600080fd5b34156101fe57600080fd5b610223600480803560ff1690602001909190803560ff16906020019091905050610bdd565b005b341561023057600080fd5b61023861102b565b604051808273ffffffffffffffffffffffffffffffffffffffff1673ffffffffffffffffffffffffffffffffffffffff16815260200191505060405180910390f35b6102a6600480803573ffffffffffffffffffffffffffffffffffffffff16906020019091905050611051565b005b34156102b357600080fd5b6102bb611077565b604051808260ff1660ff16815260200191505060405180910390f35b34156102e257600080fd5b6102fb600480803560ff1690602001909190505061108a565b005b341561030857600080fd5b61032760048080359060200190919080359060200190919050506117a3565b6040518080602001828103825283818151815260200191508051906020019080838360005b8381101561036757808201518184015260208101905061034c565b50505050905090810190601f1680156103945780820380516001836020036101000a031916815260200191505b509250505060405180910390f35b34156103ad57600080fd5b6103b5611a72565b604051808260ff1660ff16815260200191505060405180910390f35b34156103dc57600080fd5b6103e4611a85565b604051808273ffffffffffffffffffffffffffffffffffffffff1673ffffffffffffffffffffffffffffffffffffffff16815260200191505060405180910390f35b341561043157600080fd5b61045260048080359060200190820180359060200191909192905050611aab565b005b341561045f57600080fd5b6104756004808035906020019091905050611c32565b60405180848152602001838152602001828152602001935050505060405180910390f35b34156104a457600080fd5b6104ba6004808035906020019091905050611c6b565b6040518082815260200191505060405180910390f35b34156104db57600080fd5b6104e3611c8f565b604051808260ff1660ff16815260200191505060405180910390f35b341561050a57600080fd5b610512611ca2565b6040518082815260200191505060405180910390f35b610597600480803590602001908201803590602001908080601f0160208091040260200160405190810160405280939291908181526020018383808284378201915050505050509190803573ffffffffffffffffffffffffffffffffffffffff16906020019091905050611ca8565b005b34156105a457600080fd5b6105ac611e76565b604051808260ff1660ff16815260200191505060405180910390f35b34156105d357600080fd5b6105db611e89565b6040518082815260200191505060405180910390f35b34156105fc57600080fd5b610604611e8f565b6040518082815260200191505060405180910390f35b341561062557600080fd5b610647600480803560ff16906020019091908035906020019091905050611e9c565b005b341561065457600080fd5b61065c612492565b6040518082815260200191505060405180910390f35b341561067d57600080fd5b610685612498565b604051808273ffffffffffffffffffffffffffffffffffffffff1673ffffffffffffffffffffffffffffffffffffffff16815260200191505060405180910390f35b34156106d257600080fd5b610769600480803573ffffffffffffffffffffffffffffffffffffffff1690602001909190803590602001909190803573ffffffffffffffffffffffffffffffffffffffff1690602001909190803590602001908201803590602001908080601f016020809104026020016040519081016040528093929190818152602001838380828437820191505050505050919050506124bd565b005b341561077657600080fd5b6107e0600480803573ffffffffffffffffffffffffffffffffffffffff1690602001909190803573ffffffffffffffffffffffffffffffffffffffff1690602001909190803573ffffffffffffffffffffffffffffffffffffffff169060200190919050506125a7565b005b34156107ed57600080fd5b6107f56126af565b604051808260ff1660ff16815260200191505060405180910390f35b341561081c57600080fd5b6108246126c2565b6040518082815260200191505060405180910390f35b341561084557600080fd5b61084d6126c8565b005b341561085a57600080fd5b6108706004808035906020019091905050612954565b005b341561087d57600080fd5b6108936004808035906020019091905050612eb4565b6040518082815260200191505060405180910390f35b34156108b457600080fd5b6108bc612ecc565b6040518082815260200191505060405180910390f35b34156108dd57600080fd5b6108e5612ed2565b604051808260078111156108f557fe5b60ff16815260200191505060405180910390f35b341561091457600080fd5b61091c612ee5565b6040518082815260200191505060405180910390f35b341561093d57600080fd5b610969600480803573ffffffffffffffffffffffffffffffffffffffff16906020019091905050612eeb565b005b341561097657600080fd5b61098c600480803590602001909190505061320b565b604051808381526020018281526020019250505060405180910390f35b34156109b457600080fd5b6109bc61322f565b604051808273ffffffffffffffffffffffffffffffffffffffff1673ffffffffffffffffffffffffffffffffffffffff16815260200191505060405180910390f35b3415610a0957600080fd5b610a11613255565b6040518082815260200191505060405180910390f35b3415610a3257600080fd5b610a3a61325b565b6040518080602001828103825283818151815260200191508051906020019080838360005b83811015610a7a578082015181840152602081019050610a5f565b50505050905090810190601f168015610aa75780820380516001836020036101000a031916815260200191505b509250505060405180910390f35b3415610ac057600080fd5b610b00600480803573ffffffffffffffffffffffffffffffffffffffff1690602001909190803590602001908201803590602001919091929050506132f9565b6040518082815260200191505060405180910390f35b3415610b2157600080fd5b610b2961333f565b005b3415610b3657600080fd5b610b62600480803573ffffffffffffffffffffffffffffffffffffffff169060200190919050506134f8565b005b3415610b6f57600080fd5b610b856004808035906020019091905050613596565b604051808215151515815260200191505060405180910390f35b3415610baa57600080fd5b610bc060048080359060200190919050506135b6565b604051808381526020018281526020019250505060405180910390f35b6000806000806000806000806000806000809054906101000a900473ffffffffffffffffffffffffffffffffffffffff1673ffffffffffffffffffffffffffffffffffffffff163373ffffffffffffffffffffffffffffffffffffffff16141515610c4757600080fd5b60026007811115610c5457fe5b600c60009054906101000a900460ff166007811115610c6f57fe5b141515610c7b57600080fd5b6001544310151515610c8c57600080fd5b600e60008d60ff16815260200190815260200160002060010154600e60008e60ff168152602001908152602001600020600001805490501115610fa55760009950600098508a60ff16600e60008e60ff16815260200190815260200160002060010154019750600e60008d60ff16815260200190815260200160002060000180549050881115610d3657600e60008d60ff1681526020019081526020016000206000018054905097505b600e60008d60ff1681526020019081526020016000206001015496505b87871015610eb857600e60008d60ff16815260200190815260200160002060000187815481101515610d8157fe5b9060005260206000209001549550601160009054906101000a900473ffffffffffffffffffffffffffffffffffffffff1673ffffffffffffffffffffffffffffffffffffffff16637dc379fa87600060405160a001526040518263ffffffff167c01000000000000000000000000000000000000000000000000000000000281526004018082815260200191505060a060405180830381600087803b1515610e2857600080fd5b6102c65a03f11515610e3957600080fd5b505050604051805190602001805190602001805190602001805190602001805190508367ffffffffffffffff169350809550819650829750839850849950505050505060108c60ff16815481101515610e8e57fe5b90600052602060002090600302016002015482028a01995081890198508680600101975050610d53565b7f808ec1b88c41a836613e4712515f12af4d4862d29ac075e1d013a1e59d67beb88c8960108f60ff16815481101515610eed57fe5b9060005260206000209060030201600201548d8d604051808660ff1660ff1681526020018581526020018481526020018381526020018281526020019550505050505060405180910390a189601760008e60ff1681526020019081526020016000206000016000828254019250508190555088601760008e60ff1681526020019081526020016000206001016000828254019250508190555087600e60008e60ff168152602001908152602001600020600101819055505b6001601080549050038c60ff16148015610ff35750600e60008d60ff16815260200190815260200160002060000180549050600e60008e60ff16815260200190815260200160002060010154145b1561101d576003600c60006101000a81548160ff0219169083600781111561101757fe5b02179055505b505050505050505050505050565b601260009054906101000a900473ffffffffffffffffffffffffffffffffffffffff1681565b611059613f48565b6110676001430360006117a3565b90506110738183611ca8565b5050565b600760029054906101000a900460ff1681565b611092613f48565b6000806000806000806000806000806000806000809054906101000a900473ffffffffffffffffffffffffffffffffffffffff1673ffffffffffffffffffffffffffffffffffffffff163373ffffffffffffffffffffffffffffffffffffffff161415156110ff57600080fd5b6001600781111561110c57fe5b600c60009054906101000a900460ff16600781111561112757fe5b14151561113357600080fd5b60098054600181600116156101000203166002900480601f0160208091040260200160405190810160405280929190818152602001828054600181600116156101000203166002900480156111c95780601f1061119e576101008083540402835291602001916111c9565b820191906000526020600020905b8154815290600101906020018083116111ac57829003601f168201915b50505050509c508d60ff16600854019b506006805490508c11156111f0576006805490509b505b6008549a505b8b8b101561169d5760068b81548110151561120d57fe5b9060005260206000209001549950601160009054906101000a900473ffffffffffffffffffffffffffffffffffffffff1673ffffffffffffffffffffffffffffffffffffffff16637dc379fa8b600060405160a001526040518263ffffffff167c01000000000000000000000000000000000000000000000000000000000281526004018082815260200191505060a060405180830381600087803b15156112b457600080fd5b6102c65a03f115156112c557600080fd5b505050604051805190602001805190602001805190602001805190602001805190508367ffffffffffffffff169350809950819a50829b50839c50849d5050505050506000935060009250600091505b600760009054906101000a900460ff1660ff16821015611419578c8281518110151561133d57fe5b9060200101517f010000000000000000000000000000000000000000000000000000000000000090047f0100000000000000000000000000000000000000000000000000000000000000027effffffffffffffffffffffffffffffffffffffffffffffffffffffffffffff191687836020811015156113b857fe5b1a7f0100000000000000000000000000000000000000000000000000000000000000027effffffffffffffffffffffffffffffffffffffffffffffffffffffffffffff1916141561140c5783806001019450505b8180600101925050611315565b600760009054906101000a900460ff1660ff1691505b8c51821015611522578c8281518110151561144657fe5b9060200101517f010000000000000000000000000000000000000000000000000000000000000090047f0100000000000000000000000000000000000000000000000000000000000000027effffffffffffffffffffffffffffffffffffffffffffffffffffffffffffff191687836020811015156114c157fe5b1a7f0100000000000000000000000000000000000000000000000000000000000000027effffffffffffffffffffffffffffffffffffffffffffffffffffffffffffff191614156115155782806001019350505b818060010192505061142f565b6001600d600061153287876135da565b81526020019081526020016000205403905060008110158015611559575060108054905081105b1561169057600e600082815260200190815260200160002060000180548060010182816115869190613f5c565b916000526020600020900160008c909190915055507f15a18365e92c43ca2cb496edf4f5752eb98cae38c464f3d9de64e1ddefb901968d88888d89866010888154811015156115d157fe5b90600052602060002090600302016002015460405180806020018860001916600019168152602001878152602001868152602001858152602001848152602001838152602001828103825289818151815260200191508051906020019080838360005b8381101561164f578082015181840152602081019050611634565b50505050905090810190601f16801561167c5780820380516001836020036101000a031916815260200191505b509850505050505050505060405180910390a15b8a806001019b50506111f6565b8b6008819055507f4e2e100bb46d169cac165c3957df4ab6bfee3526726a694f7b24aa85189c05248d6008548e6006805490506040518080602001858152602001848152602001838152602001828103825286818151815260200191508051906020019080838360005b83811015611722578082015181840152602081019050611707565b50505050905090810190601f16801561174f5780820380516001836020036101000a031916815260200191505b509550505050505060405180910390a16006805490506008541415611793576002600c60006101000a81548160ff0219169083600781111561178d57fe5b02179055505b5050505050505050505050505050565b6117ab613f48565b60008060006117b8613f48565b600043881015156117c857600080fd5b87406001900494503373ffffffffffffffffffffffffffffffffffffffff1693508484029250424486866040518085815260200184815260200183815260200182815260200194505050505060405180910390206001900492507f2c7df83ce284dc9c63cf5d2312952dd5ccecf8f255192742b2ca327d3e6c6a43838987878b42446040518088815260200187815260200186815260200185815260200184815260200183815260200182815260200197505050505050505060405180910390a16000831415151561189957600080fd5b86839060020a90049250600760019054906101000a900460ff16600760009054906101000a900460ff160160ff166040518059106118d45750595b9080825280601f01601f19166020018201604052509150600090505b600760009054906101000a900460ff1660ff168160ff1610156119a9576001600260009054906101000a900460ff1660ff168481151561192c57fe5b06017f010000000000000000000000000000000000000000000000000000000000000002828260ff1681518110151561196157fe5b9060200101907effffffffffffffffffffffffffffffffffffffffffffffffffffffffffffff1916908160001a9053506008839060020a9004925080806001019150506118f0565b600760009054906101000a900460ff1690505b81518160ff161015611a64576001600260019054906101000a900460ff1660ff16848115156119e757fe5b06017f010000000000000000000000000000000000000000000000000000000000000002828260ff16815181101515611a1c57fe5b9060200101907effffffffffffffffffffffffffffffffffffffffffffffffffffffffffffff1916908160001a9053506008839060020a9004925080806001019150506119bc565b819550505050505092915050565b600760019054906101000a900460ff1681565b601360009054906101000a900473ffffffffffffffffffffffffffffffffffffffff1681565b6000611ae88383808060200260200160405190810160405280939291908181526020018383602002808284378201915050505050503260006135fe565b9050601260009054906101000a900473ffffffffffffffffffffffffffffffffffffffff1673ffffffffffffffffffffffffffffffffffffffff1663a9059cbb32836040518363ffffffff167c0100000000000000000000000000000000000000000000000000000000028152600401808373ffffffffffffffffffffffffffffffffffffffff1673ffffffffffffffffffffffffffffffffffffffff16815260200182815260200192505050600060405180830381600087803b1515611bae57600080fd5b6102c65a03f11515611bbf57600080fd5b5050507fede4d03c867cd33eef808cb7e94941039fcb41bddb496675b7df85c4f9533bc33282604051808373ffffffffffffffffffffffffffffffffffffffff1673ffffffffffffffffffffffffffffffffffffffff1681526020018281526020019250505060405180910390a1505050565b601081815481101515611c4157fe5b90600052602060002090600302016000915090508060000154908060010154908060020154905083565b600681815481101515611c7a57fe5b90600052602060002090016000915090505481565b600260019054906101000a900460ff1681565b60045481565b6000806007811115611cb657fe5b600c60009054906101000a900460ff166007811115611cd157fe5b141515611cdd57600080fd5b60015443101515611ced57600080fd5b6000601260009054906101000a900473ffffffffffffffffffffffffffffffffffffffff1673ffffffffffffffffffffffffffffffffffffffff1614151515611d3557600080fd5b60035434811515611d4257fe5b049050600081111515611d5457600080fd5b601260009054906101000a900473ffffffffffffffffffffffffffffffffffffffff1673ffffffffffffffffffffffffffffffffffffffff1663a6f2ae3a346040518263ffffffff167c01000000000000000000000000000000000000000000000000000000000281526004016000604051808303818588803b1515611dd957600080fd5b6125ee5a03f11515611dea57600080fd5b5050505034600b60008282540192505081905550611e0a32848334613907565b5060008273ffffffffffffffffffffffffffffffffffffffff1614158015611e5e57508173ffffffffffffffffffffffffffffffffffffffff163273ffffffffffffffffffffffffffffffffffffffff1614155b15611e7157611e6f82848334613907565b505b505050565b600260009054906101000a900460ff1681565b60055481565b6000600680549050905090565b600080600080600080600080600080611eb3613f88565b6000809054906101000a900473ffffffffffffffffffffffffffffffffffffffff1673ffffffffffffffffffffffffffffffffffffffff163373ffffffffffffffffffffffffffffffffffffffff16141515611f0e57600080fd5b60046007811115611f1b57fe5b600c60009054906101000a900460ff166007811115611f3657fe5b141515611f4257600080fd5b8b600e60008f60ff16815260200190815260200160002060020154019a50600e60008e60ff168152602001908152602001600020600001805490509950898b1115611f8b57899a505b6000601760008f60ff1681526020019081526020016000206001015411156123c357600e60008e60ff1681526020019081526020016000206002015498505b8a8910156123c257600e60008e60ff16815260200190815260200160002060000189815481101515611ff857fe5b9060005260206000209001549750601160009054906101000a900473ffffffffffffffffffffffffffffffffffffffff1673ffffffffffffffffffffffffffffffffffffffff16637dc379fa89600060405160a001526040518263ffffffff167c01000000000000000000000000000000000000000000000000000000000281526004018082815260200191505060a060405180830381600087803b151561209f57600080fd5b6102c65a03f115156120b057600080fd5b505050604051805190602001805190602001805190602001805190602001805190508367ffffffffffffffff169350809750819850829950839a50849b505050505050601760008e60ff16815260200190815260200160002060010154601760008f60ff16815260200190815260200160002060000154850281151561213257fe5b0491506040805190810160405280601160009054906101000a900473ffffffffffffffffffffffffffffffffffffffff1673ffffffffffffffffffffffffffffffffffffffff16636352211e8b6000604051602001526040518263ffffffff167c010000000000000000000000000000000000000000000000000000000002815260040180828152602001915050602060405180830381600087803b15156121d957600080fd5b6102c65a03f115156121ea57600080fd5b5050506040518051905073ffffffffffffffffffffffffffffffffffffffff168152602001838152509050601480548060010182816122299190613fb8565b9160005260206000209060020201600083909190915060008201518160000160006101000a81548173ffffffffffffffffffffffffffffffffffffffff021916908373ffffffffffffffffffffffffffffffffffffffff160217905550602082015181600101555050507fb01bccb254382e42f8be08efc626846d5e2dcded1f9fdfee72de9902527f5727600986868b85600001518888604051808060200188600019166000191681526020018781526020018681526020018573ffffffffffffffffffffffffffffffffffffffff1673ffffffffffffffffffffffffffffffffffffffff1681526020018481526020018381526020018281038252898181546001816001161561010002031660029004815260200191508054600181600116156101000203166002900480156123a15780601f10612376576101008083540402835291602001916123a1565b820191906000526020600020905b81548152906001019060200180831161238457829003601f168201915b50509850505050505050505060405180910390a18880600101995050611fca565b5b8a600e60008f60ff168152602001908152602001600020600201819055507f2e8424f61cda89b083f4a3c734fe15d3fc283d0b1cc57d3579caf54b8923fc1f8d8d8d8d601080549050604051808660ff1681526020018581526020018481526020018381526020018281526020019550505050505060405180910390a16001601080549050038d60ff161480156124595750898b145b15612483576005600c60006101000a81548160ff0219169083600781111561247d57fe5b02179055505b50505050505050505050505050565b600b5481565b6000809054906101000a900473ffffffffffffffffffffffffffffffffffffffff1681565b60006124c7613f48565b601260009054906101000a900473ffffffffffffffffffffffffffffffffffffffff1673ffffffffffffffffffffffffffffffffffffffff168473ffffffffffffffffffffffffffffffffffffffff1614151561252357600080fd5b6000835114806125455750600760029054906101000a900460ff1660ff168351145b151561255057600080fd5b6003548581151561255d57fe5b04915060008211151561256f57600080fd5b60008351141561258e576125876001430360006117a3565b9050612592565b8290505b61259e86828488613907565b50505050505050565b82601160006101000a81548173ffffffffffffffffffffffffffffffffffffffff021916908373ffffffffffffffffffffffffffffffffffffffff16021790555081601260006101000a81548173ffffffffffffffffffffffffffffffffffffffff021916908373ffffffffffffffffffffffffffffffffffffffff16021790555080601360006101000a81548173ffffffffffffffffffffffffffffffffffffffff021916908373ffffffffffffffffffffffffffffffffffffffff160217905550326000806101000a81548173ffffffffffffffffffffffffffffffffffffffff021916908373ffffffffffffffffffffffffffffffffffffffff160217905550505050565b600760009054906101000a900460ff1681565b60015481565b6000806000809054906101000a900473ffffffffffffffffffffffffffffffffffffffff1673ffffffffffffffffffffffffffffffffffffffff163373ffffffffffffffffffffffffffffffffffffffff1614151561272657600080fd5b6003600781111561273357fe5b600c60009054906101000a900460ff16600781111561274e57fe5b14151561275a57600080fd5b601260009054906101000a900473ffffffffffffffffffffffffffffffffffffffff1673ffffffffffffffffffffffffffffffffffffffff166370a08231306000604051602001526040518263ffffffff167c0100000000000000000000000000000000000000000000000000000000028152600401808273ffffffffffffffffffffffffffffffffffffffff1673ffffffffffffffffffffffffffffffffffffffff168152602001915050602060405180830381600087803b151561281f57600080fd5b6102c65a03f1151561283057600080fd5b505050604051805190509150600090505b6010805490508160ff16101561292c57601760008260ff168152602001908152602001600020600001548210151561289657601760008260ff16815260200190815260200160002060000154820391506128b9565b81601760008360ff16815260200190815260200160002060000181905550600091505b7f53c5531a2a6e3b9168a9afac57f2dd8c3dffaad74813d964e6cf1ebbca23b9b481601760008460ff1681526020019081526020016000206000015484604051808460ff1660ff168152602001838152602001828152602001935050505060405180910390a18080600101915050612841565b6004600c60006101000a81548160ff0219169083600781111561294b57fe5b02179055505050565b6000806000806000806000809054906101000a900473ffffffffffffffffffffffffffffffffffffffff1673ffffffffffffffffffffffffffffffffffffffff163373ffffffffffffffffffffffffffffffffffffffff161415156129b857600080fd5b600560078111156129c557fe5b600c60009054906101000a900460ff1660078111156129e057fe5b1415156129ec57600080fd5b86601554019550601480549050861115612a095760148054905095505b6000945060009350600092506000915060155490505b85811015612c865760646058601483815481101515612a3a57fe5b90600052602060002090600202016001015402811515612a5657fe5b049150600a601482815481101515612a6a57fe5b906000526020600020906002020160010154811515612a8557fe5b04925082840193508282601483815481101515612a9e57fe5b906000526020600020906002020160010154030385019450601260009054906101000a900473ffffffffffffffffffffffffffffffffffffffff1673ffffffffffffffffffffffffffffffffffffffff1663a9059cbb601483815481101515612b0357fe5b906000526020600020906002020160000160009054906101000a900473ffffffffffffffffffffffffffffffffffffffff16846040518363ffffffff167c0100000000000000000000000000000000000000000000000000000000028152600401808373ffffffffffffffffffffffffffffffffffffffff1673ffffffffffffffffffffffffffffffffffffffff16815260200182815260200192505050600060405180830381600087803b1515612bba57600080fd5b6102c65a03f11515612bcb57600080fd5b5050507f1b6d8b654cd01f384b6ff31c93d6ddd4a913a1dfd77dc76c1b9e4a542deada4e601482815481101515612bfe57fe5b906000526020600020906002020160000160009054906101000a900473ffffffffffffffffffffffffffffffffffffffff1683604051808373ffffffffffffffffffffffffffffffffffffffff1673ffffffffffffffffffffffffffffffffffffffff1681526020018281526020019250505060405180910390a18080600101915050612a1f565b6000851115612e1557601260009054906101000a900473ffffffffffffffffffffffffffffffffffffffff1673ffffffffffffffffffffffffffffffffffffffff1663a9059cbb6000809054906101000a900473ffffffffffffffffffffffffffffffffffffffff16876040518363ffffffff167c0100000000000000000000000000000000000000000000000000000000028152600401808373ffffffffffffffffffffffffffffffffffffffff1673ffffffffffffffffffffffffffffffffffffffff16815260200182815260200192505050600060405180830381600087803b1515612d7457600080fd5b6102c65a03f11515612d8557600080fd5b5050507ffd9fb33b1445303659e522c1835afcc964050ac9820f5022796f9df1e088e8456000809054906101000a900473ffffffffffffffffffffffffffffffffffffffff1686604051808373ffffffffffffffffffffffffffffffffffffffff1673ffffffffffffffffffffffffffffffffffffffff1681526020018281526020019250505060405180910390a15b6000841115612e705783600a600082825401925050819055507faad75236bdf067f1567e2c65465b13aad95599b18ead98fa61e35e8fa3ce9fb884600a54604051808381526020018281526020019250505060405180910390a15b856015819055506014805490506015541415612eab576006600c60006101000a81548160ff02191690836007811115612ea557fe5b02179055505b50505050505050565b600d6020528060005260406000206000915090505481565b60035481565b600c60009054906101000a900460ff1681565b600a5481565b60008060009054906101000a900473ffffffffffffffffffffffffffffffffffffffff1673ffffffffffffffffffffffffffffffffffffffff163373ffffffffffffffffffffffffffffffffffffffff16141515612f4857600080fd5b60066007811115612f5557fe5b600c60009054906101000a900460ff166007811115612f7057fe5b141515612f7c57600080fd5b600a54601260009054906101000a900473ffffffffffffffffffffffffffffffffffffffff1673ffffffffffffffffffffffffffffffffffffffff166370a08231306000604051602001526040518263ffffffff167c0100000000000000000000000000000000000000000000000000000000028152600401808273ffffffffffffffffffffffffffffffffffffffff1673ffffffffffffffffffffffffffffffffffffffff168152602001915050602060405180830381600087803b151561304457600080fd5b6102c65a03f1151561305557600080fd5b5050506040518051905003905060008111156131e357601260009054906101000a900473ffffffffffffffffffffffffffffffffffffffff1673ffffffffffffffffffffffffffffffffffffffff1663a9059cbb83836040518363ffffffff167c0100000000000000000000000000000000000000000000000000000000028152600401808373ffffffffffffffffffffffffffffffffffffffff1673ffffffffffffffffffffffffffffffffffffffff16815260200182815260200192505050600060405180830381600087803b151561312f57600080fd5b6102c65a03f1151561314057600080fd5b5050507fd3c8e61b3f3589e41778ffcfb76754be14fb22fbdabd8371a332c3b145f0c3e3308383604051808473ffffffffffffffffffffffffffffffffffffffff1673ffffffffffffffffffffffffffffffffffffffff1681526020018373ffffffffffffffffffffffffffffffffffffffff1673ffffffffffffffffffffffffffffffffffffffff168152602001828152602001935050505060405180910390a15b6007600c60006101000a81548160ff0219169083600781111561320257fe5b02179055505050565b600e6020528060005260406000206000915090508060010154908060020154905082565b601160009054906101000a900473ffffffffffffffffffffffffffffffffffffffff1681565b60085481565b60098054600181600116156101000203166002900480601f0160208091040260200160405190810160405280929190818152602001828054600181600116156101000203166002900480156132f15780601f106132c6576101008083540402835291602001916132f1565b820191906000526020600020905b8154815290600101906020018083116132d457829003601f168201915b505050505081565b60006133368383808060200260200160405190810160405280939291908181526020018383602002808284378201915050505050508560016135fe565b90509392505050565b6000809054906101000a900473ffffffffffffffffffffffffffffffffffffffff1673ffffffffffffffffffffffffffffffffffffffff163373ffffffffffffffffffffffffffffffffffffffff1614151561339a57600080fd5b600060078111156133a757fe5b600c60009054906101000a900460ff1660078111156133c257fe5b1415156133ce57600080fd5b600154431115156133de57600080fd5b6133eb60015460086117a3565b60099080519060200190613400929190613fea565b507fb4a3d365f86774ee97301c1ffa4061a05cffa5fcef064c4f3890a92d1bd0e2d7600960015460068054905060405180806020018481526020018381526020018281038252858181546001816001161561010002031660029004815260200191508054600181600116156101000203166002900480156134c25780601f10613497576101008083540402835291602001916134c2565b820191906000526020600020905b8154815290600101906020018083116134a557829003601f168201915b505094505050505060405180910390a16001600c60006101000a81548160ff021916908360078111156134f157fe5b0217905550565b6000809054906101000a900473ffffffffffffffffffffffffffffffffffffffff1673ffffffffffffffffffffffffffffffffffffffff163373ffffffffffffffffffffffffffffffffffffffff1614151561355357600080fd5b806000806101000a81548173ffffffffffffffffffffffffffffffffffffffff021916908373ffffffffffffffffffffffffffffffffffffffff16021790555050565b60166020528060005260406000206000915054906101000a900460ff1681565b600f6020528060005260406000206000915090508060010154908060020154905082565b6000816001600760019054906101000a900460ff160160ff16840201905092915050565b6000806000806000806000806000600554141561361e57600097506138f9565b60009650600090505b8a518110156138e457601160009054906101000a900473ffffffffffffffffffffffffffffffffffffffff1673ffffffffffffffffffffffffffffffffffffffff16637dc379fa8c8381518110151561367c57fe5b90602001906020020151600060405160a001526040518263ffffffff167c01000000000000000000000000000000000000000000000000000000000281526004018082815260200191505060a060405180830381600087803b15156136e057600080fd5b6102c65a03f115156136f157600080fd5b505050604051805190602001805190602001805190602001805190602001805190508367ffffffffffffffff169350809650819750829850839950849a50505050505060001515601660008d8481518110151561374a57fe5b90602001906020020151815260200190815260200160002060009054906101000a900460ff161515148015613780575060015482105b801561388157508973ffffffffffffffffffffffffffffffffffffffff16601160009054906101000a900473ffffffffffffffffffffffffffffffffffffffff1673ffffffffffffffffffffffffffffffffffffffff16636352211e8d848151811015156137ea57fe5b906020019060200201516000604051602001526040518263ffffffff167c010000000000000000000000000000000000000000000000000000000002815260040180828152602001915050602060405180830381600087803b151561384e57600080fd5b6102c65a03f1151561385f57600080fd5b5050506040518051905073ffffffffffffffffffffffffffffffffffffffff16145b156138d75782870196508815156138d6576001601660008d848151811015156138a657fe5b90602001906020020151815260200190815260200160002060006101000a81548160ff0219169083151502179055505b5b8080600101915050613627565b600554600a5488028115156138f557fe5b0497505b505050505050509392505050565b6000806000600760019054906101000a900460ff16600760009054906101000a900460ff160160ff16865114151561393e57600080fd5b600091505b600760009054906101000a900460ff1660ff168260ff161015613a9d576001868360ff1681518110151561397357fe5b9060200101517f010000000000000000000000000000000000000000000000000000000000000090047f0100000000000000000000000000000000000000000000000000000000000000027f0100000000000000000000000000000000000000000000000000000000000000900460ff1610158015613a855750600260009054906101000a900460ff1660ff16868360ff16815181101515613a1157fe5b9060200101517f010000000000000000000000000000000000000000000000000000000000000090047f0100000000000000000000000000000000000000000000000000000000000000027f0100000000000000000000000000000000000000000000000000000000000000900460ff1611155b1515613a9057600080fd5b8180600101925050613943565b600760009054906101000a900460ff1691505b85518260ff161015613bf9576001868360ff16815181101515613acf57fe5b9060200101517f010000000000000000000000000000000000000000000000000000000000000090047f0100000000000000000000000000000000000000000000000000000000000000027f0100000000000000000000000000000000000000000000000000000000000000900460ff1610158015613be15750600260019054906101000a900460ff1660ff16868360ff16815181101515613b6d57fe5b9060200101517f010000000000000000000000000000000000000000000000000000000000000090047f0100000000000000000000000000000000000000000000000000000000000000027f0100000000000000000000000000000000000000000000000000000000000000900460ff1611155b1515613bec57600080fd5b8180600101925050613ab0565b600085111515613c0857600080fd5b601360009054906101000a900473ffffffffffffffffffffffffffffffffffffffff1673ffffffffffffffffffffffffffffffffffffffff1663775ed63d8888886000604051602001526040518463ffffffff167c0100000000000000000000000000000000000000000000000000000000028152600401808473ffffffffffffffffffffffffffffffffffffffff1673ffffffffffffffffffffffffffffffffffffffff16815260200180602001838152602001828103825284818151815260200191508051906020019080838360005b83811015613cf5578082015181840152602081019050613cda565b50505050905090810190601f168015613d225780820380516001836020036101000a031916815260200191505b50945050505050602060405180830381600087803b1515613d4257600080fd5b6102c65a03f11515613d5357600080fd5b50505060405180519050905060068054806001018281613d739190613f5c565b916000526020600020900160008390919091505550601160009054906101000a900473ffffffffffffffffffffffffffffffffffffffff1673ffffffffffffffffffffffffffffffffffffffff16637266a2326000604051602001526040518163ffffffff167c0100000000000000000000000000000000000000000000000000000000028152600401602060405180830381600087803b1515613e1657600080fd5b6102c65a03f11515613e2757600080fd5b505050604051805190506005819055507f5668ef0a105003526dc9fcca87fdecfef80b94dc11daaab96ac3b953b3484ff86001548787848b436005548b60405180898152602001806020018881526020018781526020018673ffffffffffffffffffffffffffffffffffffffff1673ffffffffffffffffffffffffffffffffffffffff168152602001858152602001848152602001838152602001828103825289818151815260200191508051906020019080838360005b83811015613efa578082015181840152602081019050613edf565b50505050905090810190601f168015613f275780820380516001836020036101000a031916815260200191505b50995050505050505050505060405180910390a18092505050949350505050565b602060405190810160405280600081525090565b815481835581811511613f8357818360005260206000209182019101613f82919061406a565b5b505050565b6040805190810160405280600073ffffffffffffffffffffffffffffffffffffffff168152602001600081525090565b815481835581811511613fe557600202816002028360005260206000209182019101613fe4919061408f565b5b505050565b828054600181600116156101000203166002900490600052602060002090601f016020900481019282601f1061402b57805160ff1916838001178555614059565b82800160010185558215614059579182015b8281111561405857825182559160200191906001019061403d565b5b509050614066919061406a565b5090565b61408c91905b80821115614088576000816000905550600101614070565b5090565b90565b6140da91905b808211156140d657600080820160006101000a81549073ffffffffffffffffffffffffffffffffffffffff0219169055600182016000905550600201614095565b5090565b905600a165627a7a723058205b7ddab791e51b8c6ba6e5cd1c5913f92f7f1c9c13fc8e3c37d876371fddb9de0029",
  "source": "pragma solidity ^0.4.4;\nimport \"./owned.sol\";\nimport \"./Interface.sol\";\n\ncontract ChainLotPool is owned{\n\tuint public poolBlockNumber;\n\n\tuint8 public maxWhiteNumber; //70;\n\tuint8 public maxYellowNumber; //25;\n\tuint public etherPerTicket; //10**18/100;\n\n\tuint public allTicketsCount;\n\tuint public totalTicketCountSum;\n\tuint[] public allTicketsId;\n\n\tuint8 public maxWhiteNumberCount;\n\tuint8 public maxYellowNumberCount;\n\tuint8 public totalNumberCount;\n\t\n\tuint public lastMatchedTicketIndex;\n\tbytes public jackpotNumbers;\n\tuint public historyCut;\n\tuint public tokenSum;\n\n\tenum DrawingStage {INITIED, PRPARED, MATCHED, CALCULATED, SPLITED, DISTRIBUTED, SENT, UNAWARED_TRANSFERED}\n\tDrawingStage public stage = DrawingStage.INITIED; \n\n\n\tmapping(uint => uint) public awardRulesIndex;\n  \tmapping(uint => winnerTicketQueue) public winnerTickets;\n  \tmapping(uint => winnerTicketQueue) public distributeTickets;\n\tawardRule[] public awardRules;\n  \tChainLotTicketInterface public chainLotTicket;\n  \tCLTokenInterface public clToken;\n  \tChainLotInterface public  chainLot;\n  \n  \tawardData[] private toBeAward;\n  \tuint private awardIndex;\n\n  \tmapping(uint => bool) public withdrawed;\n\n\tstruct awardRule{\n\t\tuint whiteNumberCount;\n\t\tuint yellowNumberCount;\n\t\tuint awardEther;\n\t}\n\n\tstruct awardData {\n\t\taddress user;\n\t\tuint value;\n\t}\n\n  \tstruct winnerTicketQueue {\n    \tuint[] ticketIds;\n    \tuint processedIndex;\n    \tuint distributedIndex;\n  \t}\n\n  \tevent BuyTicket(uint poolBlockNumber, bytes numbers, uint ticketCount, uint ticketId, address user, uint blockNumber, uint totalTicketCountSum, uint value);\n\tevent PrepareAward(bytes jackpotNumbers, uint poolBlockNumber, uint allTicketsCount);\n\tevent ToBeAward(bytes jackpotNumbers, bytes32 ticketNumber, uint ticketCount, uint ticketId, address user, uint blockNumber, uint awardValue);\n\tevent MatchAwards(bytes jackpotNumbers, uint lastMatchedTicketIndex, uint endIndex, uint allTicketsCount);\n\tevent MatchRule(bytes jackpotNumbers, bytes32 ticketNumber, uint ticketCount, uint ticketId, uint blockNumber, uint ruleId, uint ruleEther);\n\tevent DistributeAwards(uint ruleId, uint toDistCount, uint distributedIndex, uint ticketIdsLength, uint awardRulesLength);\n  \tevent TransferAward(address winner, uint value);\n  \tevent TransferDevCut(address dev, uint value);\n  \tevent TransferHistoryCut(address user, uint value);\n  \tevent AddHistoryCut(uint added, uint total);\n  \tevent CalculateAwards(uint8 ruleId, uint winnersTicketCount, uint awardEther, uint totalWinnersAward, uint totalTicketCount);\n  \tevent SplitAward(uint8 ruleId, uint totalWinnersAward, uint leftBalance);\n  \tevent TransferUnawarded(address from, address to, uint value);\n  \tevent GenRandomNumbers(uint random, uint blockNumber, uint hash, uint addressInt, uint shift, uint timestamp, uint difficulty);\n\n  \tfunction ChainLotPool(uint _poolBlockNumber,\n  \t\t\t\t\t\tuint8 _maxWhiteNumber, \n\t\t\t\t\t\tuint8 _maxYellowNumber, \n\t\t\t\t\t\tuint8 _whiteNumberCount, \n\t\t\t\t\t\tuint8 _yellowNumberCount, \n\t\t\t\t\t\tuint _etherPerTicket, \n\t\t\t\t\t\tuint[] awardRulesArray) public {\n  \t\tpoolBlockNumber = _poolBlockNumber;\n  \t\tmaxWhiteNumber = _maxWhiteNumber;\n\t\tmaxYellowNumber = _maxYellowNumber;\n\t\tmaxWhiteNumberCount = _whiteNumberCount;\n\t\tmaxYellowNumberCount = _yellowNumberCount;\n\t\tetherPerTicket = _etherPerTicket;\n\t\ttotalNumberCount = maxWhiteNumberCount + maxYellowNumberCount;\n\t\t\n\n\t\tfor(uint i=0; i<awardRulesArray.length; i+=3) {\n\t\t\trequire(i+3 <= awardRulesArray.length);\n\t\t\trequire(awardRulesArray[i]>=0 && awardRulesArray[i]<=maxWhiteNumberCount);\n\t\t\trequire(awardRulesArray[i+1]>=0 && awardRulesArray[i+1]<=maxYellowNumberCount);\n\t\t\tawardRules.push(awardRule(awardRulesArray[i],awardRulesArray[i+1],awardRulesArray[i+2]));\n\t\t\tawardRulesIndex[getRuleKey(awardRulesArray[i],awardRulesArray[i+1])] = awardRules.length;\n\t\t}\n\n    \tfor(i=0; i<awardRules.length; i++) {\n      \t\twinnerTickets[i].processedIndex = 0;\n      \t\twinnerTickets[i].distributedIndex = 0;\n    \t}\n    \t\n  \t}\n\n  \tfunction setPool(ChainLotTicketInterface _chainLotTicket,\n\t\t\t\t\t\tCLTokenInterface _clToken,\n\t\t\t\t\t\tChainLotInterface _chainLot) public {\n  \t\tchainLotTicket = _chainLotTicket;\n\t\tclToken = _clToken;\n\t\tchainLot = _chainLot;\n\t\towner = tx.origin;\n  \t}\n\n  \tfunction getRuleKey(uint _whiteNumberCount, uint _yellowNumberCount) internal view returns(uint index){\n\t\treturn _whiteNumberCount*(maxYellowNumberCount+1)+_yellowNumberCount;\n\t}\n\n\t//numbers: uint8[6] \n\t//\t\t\t1-5: <=maxWhiteNumber\n\t//\t\t\t6: <=maxYellowNumber\n\tfunction buyTicket(bytes numbers, address referer) payable public{\n\t\trequire(stage == DrawingStage.INITIED);\n\t\trequire(block.number < poolBlockNumber);\n\t\trequire(address(clToken) != 0);\n\t    uint ticketCount = msg.value/etherPerTicket;\n\t    require(ticketCount > 0);\n\t    clToken.buy.value(msg.value)();\n\t    tokenSum += msg.value;\n\t    _buyTicket(tx.origin, numbers, ticketCount, msg.value);\n\t    if(referer != 0 && tx.origin != referer) {\n\t    \t_buyTicket(referer, numbers, ticketCount, msg.value);\t\n\t    }\n\t}\n\n\tevent LOG(uint msg);\n\n\t//random numbers\n\t//random seed: number-1 block hash x user address\n\tfunction buyRandom(address referer) payable public{\n\t\tbytes memory numbers = genRandomNumbers(block.number - 1, 0);\n\t\tbuyTicket(numbers, referer);\n\t}\n\n\tfunction receiveApproval(address _from, uint _value, address _token, bytes _extraData) public {\n\t\trequire(_token == address(clToken));\n\t\trequire(_extraData.length ==0 || _extraData.length == totalNumberCount);\n\n\t\tuint ticketCount = _value/etherPerTicket;\n\t\trequire(ticketCount > 0);\n\t\tbytes memory numbers;\n\t\tif(_extraData.length == 0) {\n\t\t\tnumbers = genRandomNumbers(block.number - 1, 0);\n\t\t}\n\t\telse {\n\t\t\tnumbers = _extraData;\n\t\t}\t\n\n\t\t\n\t\t_buyTicket(_from, numbers, ticketCount, _value);\n\t}\n\n  \tfunction _buyTicket(address _from, bytes numbers, uint ticketCount, uint _value) internal returns(uint _ticketId){\n\t    require(numbers.length == maxWhiteNumberCount+maxYellowNumberCount);\n\t    for(uint8 i=0; i<maxWhiteNumberCount; i++) {\n\t      require(uint8(numbers[i])>=1 && uint8(numbers[i])<=maxWhiteNumber); \n\t    }     \n\t    for(i=maxWhiteNumberCount; i<numbers.length; i++){\n\t      require(uint8(numbers[i])>=1&&uint8(numbers[i])<=maxYellowNumber);\n\t    }\n\t    \n\t    require(ticketCount > 0);\n\t    uint ticketId = chainLot.mint(_from, numbers, ticketCount);\n\t    allTicketsId.push(ticketId);\n\t    totalTicketCountSum = chainLotTicket.totalTicketCountSum();\n\t    BuyTicket(poolBlockNumber, numbers, ticketCount, ticketId, _from, block.number, totalTicketCountSum, _value);\n\t    return ticketId;\n\t}\n\n\t//calculate jackpot \n\tfunction prepareAwards() onlyOwner external {\n\t\trequire(stage == DrawingStage.INITIED);\n\t\trequire(block.number > poolBlockNumber);\n\t\tjackpotNumbers = genRandomNumbers(poolBlockNumber, 8);\n\t\tPrepareAward(jackpotNumbers, poolBlockNumber, allTicketsId.length);\n\t\tstage = DrawingStage.PRPARED;\n\t\t/*uint bytesLength = 32;\n    \tif(bytesLength > jackpotNumbers.length) bytesLength = jackpotNumbers.length;\n    \tfor(uint i=0; i<bytesLength; i++) {\n      \t\tnumbers |= bytes32(jackpotNumbers[i]&0xFF)>>(i*8);\n    \t}*/\n\t}\n\n\t//match winners\n\tfunction matchAwards(uint8 toMatchCount) onlyOwner external {\n\t\trequire(stage == DrawingStage.PRPARED);\n\t\t\n\t\tbytes memory mJackpotNumbers = jackpotNumbers;\n\t\t//statistic winners\n\t\tuint endIndex = lastMatchedTicketIndex + toMatchCount;\n\t\tif(endIndex > allTicketsId.length) endIndex = allTicketsId.length;\n\n\t\tfor(uint i = lastMatchedTicketIndex; i < endIndex; i ++) {\n\t\t\tuint ticketId = allTicketsId[i];\n\t\t\taddress mb; uint ma; bytes32 numbers; uint count; uint blockNumber;\n\t        (mb, ma, numbers, count, blockNumber) = chainLotTicket.getTicket(ticketId);\n\t      \t\n\t\t\tuint matchedWhiteCount = 0;\n\t\t\tuint matchedYellowCount = 0;\n\t\t\tfor(uint j = 0; j < maxWhiteNumberCount; j++) {\n\t\t\t\tif(numbers[j] == mJackpotNumbers[j]) {\n\t\t\t\t\tmatchedWhiteCount ++;\n\t\t\t\t}\n\t\t\t}\n\t\t\tfor(j = maxWhiteNumberCount; j < mJackpotNumbers.length; j++) {\n\t\t\t\tif(numbers[j] == mJackpotNumbers[j]) {\n\t\t\t\t\tmatchedYellowCount ++;\n\t\t\t\t}\n\t\t\t}\n\n\t\t\tuint ruleId = awardRulesIndex[getRuleKey(matchedWhiteCount, matchedYellowCount)] - 1;\n\t\t\t\n\t\t\tif(ruleId >= 0 && ruleId < awardRules.length) {\n\t\t        //match one rule!\n\t\t        winnerTickets[ruleId].ticketIds.push(ticketId);\n\t\t        MatchRule(mJackpotNumbers, numbers, count, ticketId, blockNumber, ruleId, awardRules[ruleId].awardEther);\n\t\t\t}\n\t\t}\n\n\t\tlastMatchedTicketIndex = endIndex;\n\n\t\tMatchAwards(mJackpotNumbers, lastMatchedTicketIndex, endIndex, allTicketsId.length);\n\n\t\tif(lastMatchedTicketIndex == allTicketsId.length) {\n\t\t\tstage = DrawingStage.MATCHED;\n\t\t}\n\t}\n\n  \tstruct awardResultByRule {\n  \t\tuint totalWinnersAward;\n  \t\tuint totalTicketCount;\n \t}\n  \tmapping(uint => awardResultByRule) awardResults;\n\n  \tfunction calculateAwards(uint8 ruleId, uint8 toCalcCount) onlyOwner external {\n\t  \trequire(stage == DrawingStage.MATCHED);\n\t  \trequire(block.number >= poolBlockNumber);\n\t  \t//calculate winners award, from top to bottom, top winners takes all\n\t    \n\t      if(winnerTickets[ruleId].ticketIds.length > winnerTickets[ruleId].processedIndex) {\n\t        uint totalWinnersAward = 0;\n\t        uint totalTicketCount = 0;\n\t        uint endIndex = winnerTickets[ruleId].processedIndex + toCalcCount;\n\t        if(endIndex > winnerTickets[ruleId].ticketIds.length) endIndex = winnerTickets[ruleId].ticketIds.length;\n\t        for(uint j=winnerTickets[ruleId].processedIndex;j<endIndex; j++) {\n\t          uint ticketId = winnerTickets[ruleId].ticketIds[j];\n\t          address mb; uint ma; bytes32 numbers; uint count; uint blockNumber;\n\t          (mb, ma, numbers, count, blockNumber) = chainLotTicket.getTicket(ticketId);\n\t          totalWinnersAward += count * awardRules[ruleId].awardEther;\n\t          totalTicketCount += count;\n\t        }\n\n\t        CalculateAwards(ruleId, endIndex, awardRules[ruleId].awardEther, totalWinnersAward, totalTicketCount);\n\n\t        awardResults[ruleId].totalWinnersAward += totalWinnersAward;\n\t        awardResults[ruleId].totalTicketCount += totalTicketCount;\n\t\t\t//move pointer\n\t     \twinnerTickets[ruleId].processedIndex = endIndex;\n\t      \n\t      }\n\n\t      if(ruleId == awardRules.length -1 && winnerTickets[ruleId].processedIndex == winnerTickets[ruleId].ticketIds.length) {\n\t      \tstage = DrawingStage.CALCULATED;\n\t      }\n\n  \t}\n\n  \tfunction splitAward() onlyOwner external {\n  \t\trequire(stage == DrawingStage.CALCULATED);\n  \t\tuint totalBalance = clToken.balanceOf(this);\n  \t\tfor(uint8 i=0; i<awardRules.length; i++) {\n  \t\t\tif(totalBalance >=  awardResults[i].totalWinnersAward) {\n\t          totalBalance -= awardResults[i].totalWinnersAward;\n\t        }\n\t        else {\n\t          awardResults[i].totalWinnersAward = totalBalance;\n\t          totalBalance = 0;\n\t        }\n\t        SplitAward(i, awardResults[i].totalWinnersAward, totalBalance);\n  \t\t}\n  \t\tstage = DrawingStage.SPLITED;\n  \t}\n\n  \tfunction distributeAwards(uint8 ruleId, uint toDistCount) onlyOwner external {\n  \t\trequire(stage == DrawingStage.SPLITED);\n  \t\t//validate last step\n\t  \t//bytes memory jackpotNumbers = jackpotNumbers;\n\t  \tuint endIndex = winnerTickets[ruleId].distributedIndex + toDistCount;\n\t  \tuint ticketIdsLength = winnerTickets[ruleId].ticketIds.length;\n\t  \tif(endIndex > ticketIdsLength) endIndex = ticketIdsLength;\n  \t\tif(awardResults[ruleId].totalTicketCount > 0) {\n  \t\t\tfor(uint j=winnerTickets[ruleId].distributedIndex;j<endIndex; j++){\n\t          uint ticketId = winnerTickets[ruleId].ticketIds[j];\n\t          address mb; uint ma; bytes32 numbers; uint count; uint blockNumber;\n\t          (mb, ma, numbers, count, blockNumber) = chainLotTicket.getTicket(ticketId);\n\t          uint awardValue = count * awardResults[ruleId].totalWinnersAward / awardResults[ruleId].totalTicketCount;\n\t          awardData memory ad = awardData(chainLotTicket.ownerOf(ticketId), awardValue);\n\t          toBeAward.push(ad);\n\t          ToBeAward(jackpotNumbers, numbers, count, ticketId, ad.user, blockNumber, awardValue);\n\t    \t}\n  \t\t}\n\t  \twinnerTickets[ruleId].distributedIndex = endIndex;\n\n\t  \tDistributeAwards(ruleId, toDistCount, endIndex, ticketIdsLength, awardRules.length);\n\n\t  \tif(ruleId == awardRules.length -1 && endIndex == ticketIdsLength) {\n\t  \t\tstage = DrawingStage.DISTRIBUTED;\n\t  \t}\n  \t}\n\n  \tfunction sendAwards(uint toAwardCount) onlyOwner external {\n  \t\trequire(stage == DrawingStage.DISTRIBUTED);\n\n\t\tuint endIndex = awardIndex + toAwardCount;\n\t\tif(endIndex > toBeAward.length) endIndex = toBeAward.length;\n\t\t\n\t  \tuint devCut = 0;\n\t  \tuint _historyCut = 0;\n\t  \tuint hCut = 0;\n\t  \tuint userAward = 0;\n\t  \tfor(uint i=awardIndex; i<endIndex; i++) {\n\t\t\t\tuserAward = toBeAward[i].value * 88/100;\n\t\t\t\t//10% history user cut\n\t\t\t\thCut = toBeAward[i].value/10;\n\t\t\t\t_historyCut += hCut;\n\t\t\t\t//2% dev cut\n\t\t\t\tdevCut += toBeAward[i].value - userAward - hCut;\n\t\t\t\tclToken.transfer(toBeAward[i].user, userAward);\n\t      \t\tTransferAward(toBeAward[i].user, userAward);\n\t\t}\n\t\tif(devCut > 0) {\n\t\t\tclToken.transfer(owner, devCut);\n\t\t\tTransferDevCut(owner, devCut);\n\t\t}\n\t\t\n\t\t//history cut only shared to owner before this pool\n\t\tif(_historyCut > 0) {\n\t\t\thistoryCut += _historyCut;\n\t\t\tAddHistoryCut(_historyCut, historyCut);\n\t\t}\n\t    awardIndex = endIndex;\n\t    if(awardIndex == toBeAward.length) {\n\t    \tstage = DrawingStage.SENT;\n\t    }\n\t}\n\n\tfunction withdrawHistoryCut(uint[] ticketIds) external {\n\t\tuint userCut = calculateUserHistoryCut(ticketIds, tx.origin, false);\n\t  \tclToken.transfer(tx.origin, userCut);\n\t\tTransferHistoryCut(tx.origin, userCut);\n\t}\n\n\tfunction listUserHistoryCut(address user, uint[] ticketIds) external returns(uint _historyCut) {\n\t\treturn calculateUserHistoryCut(ticketIds, user, true);\n\t}\n\n\tfunction calculateUserHistoryCut(uint[] ticketIds, address user, bool onlyList) internal returns(uint _cut) {\n\t\tif(totalTicketCountSum == 0)\n\t\t\treturn 0;\n\t\tuint historyTicketCountSum = 0;\n\t  \taddress mb; uint ma; bytes32 numbers; uint count; uint blockNumber;\n\t  \tfor(uint i=0; i<ticketIds.length; i++) {\n\t  \t\t(mb, ma, numbers, count, blockNumber) = chainLotTicket.getTicket(ticketIds[i]);\n\t  \t\tif(withdrawed[ticketIds[i]] == false \n\t  \t\t\t&& blockNumber < poolBlockNumber \n\t  \t\t\t&& chainLotTicket.ownerOf(ticketIds[i]) == user) {\n\t  \t\t\thistoryTicketCountSum += count;\t\n\t  \t\t\tif(!onlyList) {\n\t  \t\t\t\twithdrawed[ticketIds[i]] = true;\n\t  \t\t\t}\n\t  \t\t}\t\t\n\t  \t}\n\t  \t\n\t  \treturn historyTicketCountSum * historyCut / totalTicketCountSum;\n\t}\n\n\tfunction transferUnawarded(address to) onlyOwner external {\n\t\trequire(stage == DrawingStage.SENT);\n\n      \tuint toBeTransfer = clToken.balanceOf(this) - historyCut;\n      \tif(toBeTransfer > 0) {\n      \t\tclToken.transfer(to, toBeTransfer);\n      \t\tTransferUnawarded(address(this), to, toBeTransfer);\n      \t}\n\n      \tstage = DrawingStage.UNAWARED_TRANSFERED;\n\t}\n\n\tfunction genRandomNumbers(uint blockNumber, uint shift) public returns(bytes _numbers){\n\t\trequire(blockNumber < block.number);\n\t\tuint hash = uint(block.blockhash(blockNumber));\n\t\tuint addressInt = uint(msg.sender);\n\t\tuint256 random = addressInt * hash;\n\t\trandom = uint256(keccak256(block.timestamp, block.difficulty, hash, addressInt));\n\t\tGenRandomNumbers(random, blockNumber, hash, addressInt, shift, block.timestamp, block.difficulty);\n\t\trequire(random != 0);\n\t\trandom = random >> shift;\n\t\tbytes memory numbers = new bytes(maxWhiteNumberCount+maxYellowNumberCount);\n\t\tfor(uint8 i=0;i<maxWhiteNumberCount;i++) {\n\t\t\tnumbers[i] = byte(random%maxWhiteNumber + 1);\n\t\t\trandom = random >> 8;\n\n\t\t}\n\t\tfor(i=maxWhiteNumberCount;i<numbers.length;i++) {\n\t\t\tnumbers[i] = byte(random%maxYellowNumber + 1);\n\t\t\trandom = random >> 8;\n\n\t\t}\n\t\treturn numbers;\n\t}\n\n\tfunction getAllTicketsCount() external view returns(uint count){\n\t\treturn allTicketsId.length;\n\t}\n\n}\n",
  "sourcePath": "/Users/phx/eth/chainlot/contracts/ChainLotPool.sol",
  "compiler": {
    "name": "solc",
    "version": "0.4.19+commit.c4cbbb05.Emscripten.clang"
  },
  "schemaVersion": "2.0.0",
  "updatedAt": "2018-06-20T05:54:54.619Z"
}