{
  "contractName": "ChainLotTicket",
  "abi": [
    {
      "constant": true,
      "inputs": [],
      "name": "name",
      "outputs": [
        {
          "name": "",
          "type": "string"
        }
      ],
      "payable": false,
      "stateMutability": "view",
      "type": "function"
    },
    {
      "constant": true,
      "inputs": [
        {
          "name": "",
          "type": "uint256"
        }
      ],
      "name": "ticketIndexToApproved",
      "outputs": [
        {
          "name": "",
          "type": "address"
        }
      ],
      "payable": false,
      "stateMutability": "view",
      "type": "function"
    },
    {
      "constant": true,
      "inputs": [],
      "name": "totalTicketCountSum",
      "outputs": [
        {
          "name": "",
          "type": "uint256"
        }
      ],
      "payable": false,
      "stateMutability": "view",
      "type": "function"
    },
    {
      "constant": true,
      "inputs": [
        {
          "name": "",
          "type": "uint256"
        }
      ],
      "name": "ticketIndexToOwner",
      "outputs": [
        {
          "name": "",
          "type": "address"
        }
      ],
      "payable": false,
      "stateMutability": "view",
      "type": "function"
    },
    {
      "constant": true,
      "inputs": [
        {
          "name": "",
          "type": "address"
        }
      ],
      "name": "ownershipTicketCount",
      "outputs": [
        {
          "name": "",
          "type": "uint256"
        }
      ],
      "payable": false,
      "stateMutability": "view",
      "type": "function"
    },
    {
      "constant": true,
      "inputs": [],
      "name": "owner",
      "outputs": [
        {
          "name": "",
          "type": "address"
        }
      ],
      "payable": false,
      "stateMutability": "view",
      "type": "function"
    },
    {
      "constant": true,
      "inputs": [],
      "name": "symbol",
      "outputs": [
        {
          "name": "",
          "type": "string"
        }
      ],
      "payable": false,
      "stateMutability": "view",
      "type": "function"
    },
    {
      "constant": false,
      "inputs": [
        {
          "name": "newOwner",
          "type": "address"
        }
      ],
      "name": "transferOwnership",
      "outputs": [],
      "payable": false,
      "stateMutability": "nonpayable",
      "type": "function"
    },
    {
      "constant": true,
      "inputs": [
        {
          "name": "",
          "type": "address"
        }
      ],
      "name": "minters",
      "outputs": [
        {
          "name": "",
          "type": "bool"
        }
      ],
      "payable": false,
      "stateMutability": "view",
      "type": "function"
    },
    {
      "anonymous": false,
      "inputs": [
        {
          "indexed": false,
          "name": "owner",
          "type": "address"
        },
        {
          "indexed": false,
          "name": "ticketId",
          "type": "uint256"
        }
      ],
      "name": "Mint",
      "type": "event"
    },
    {
      "anonymous": false,
      "inputs": [
        {
          "indexed": false,
          "name": "from",
          "type": "address"
        },
        {
          "indexed": false,
          "name": "to",
          "type": "address"
        },
        {
          "indexed": false,
          "name": "tokenId",
          "type": "uint256"
        }
      ],
      "name": "Transfer",
      "type": "event"
    },
    {
      "anonymous": false,
      "inputs": [
        {
          "indexed": false,
          "name": "owner",
          "type": "address"
        },
        {
          "indexed": false,
          "name": "approved",
          "type": "address"
        },
        {
          "indexed": false,
          "name": "tokenId",
          "type": "uint256"
        }
      ],
      "name": "Approval",
      "type": "event"
    },
    {
      "constant": true,
      "inputs": [
        {
          "name": "_interfaceID",
          "type": "bytes4"
        }
      ],
      "name": "supportsInterface",
      "outputs": [
        {
          "name": "",
          "type": "bool"
        }
      ],
      "payable": false,
      "stateMutability": "view",
      "type": "function"
    },
    {
      "constant": true,
      "inputs": [],
      "name": "totalSupply",
      "outputs": [
        {
          "name": "",
          "type": "uint256"
        }
      ],
      "payable": false,
      "stateMutability": "view",
      "type": "function"
    },
    {
      "constant": true,
      "inputs": [
        {
          "name": "_owner",
          "type": "address"
        }
      ],
      "name": "balanceOf",
      "outputs": [
        {
          "name": "",
          "type": "uint256"
        }
      ],
      "payable": false,
      "stateMutability": "view",
      "type": "function"
    },
    {
      "constant": true,
      "inputs": [
        {
          "name": "_ticketId",
          "type": "uint256"
        }
      ],
      "name": "ownerOf",
      "outputs": [
        {
          "name": "owner",
          "type": "address"
        }
      ],
      "payable": false,
      "stateMutability": "view",
      "type": "function"
    },
    {
      "constant": false,
      "inputs": [
        {
          "name": "_to",
          "type": "address"
        },
        {
          "name": "_ticketId",
          "type": "uint256"
        }
      ],
      "name": "approve",
      "outputs": [],
      "payable": false,
      "stateMutability": "nonpayable",
      "type": "function"
    },
    {
      "constant": false,
      "inputs": [
        {
          "name": "_to",
          "type": "address"
        },
        {
          "name": "_ticketId",
          "type": "uint256"
        }
      ],
      "name": "transfer",
      "outputs": [],
      "payable": false,
      "stateMutability": "nonpayable",
      "type": "function"
    },
    {
      "constant": false,
      "inputs": [
        {
          "name": "_from",
          "type": "address"
        },
        {
          "name": "_to",
          "type": "address"
        },
        {
          "name": "_ticketId",
          "type": "uint256"
        }
      ],
      "name": "transferFrom",
      "outputs": [],
      "payable": false,
      "stateMutability": "nonpayable",
      "type": "function"
    },
    {
      "constant": true,
      "inputs": [
        {
          "name": "_owner",
          "type": "address"
        }
      ],
      "name": "ticketsOfOwner",
      "outputs": [
        {
          "name": "",
          "type": "uint256[]"
        }
      ],
      "payable": false,
      "stateMutability": "view",
      "type": "function"
    },
    {
      "constant": false,
      "inputs": [
        {
          "name": "_minter",
          "type": "address"
        },
        {
          "name": "_enable",
          "type": "bool"
        }
      ],
      "name": "setMinter",
      "outputs": [],
      "payable": false,
      "stateMutability": "nonpayable",
      "type": "function"
    },
    {
      "constant": false,
      "inputs": [
        {
          "name": "_owner",
          "type": "address"
        },
        {
          "name": "_numbers",
          "type": "bytes"
        },
        {
          "name": "_count",
          "type": "uint256"
        }
      ],
      "name": "mint",
      "outputs": [
        {
          "name": "",
          "type": "uint256"
        }
      ],
      "payable": false,
      "stateMutability": "nonpayable",
      "type": "function"
    },
    {
      "constant": true,
      "inputs": [
        {
          "name": "_ticketId",
          "type": "uint256"
        }
      ],
      "name": "getTicket",
      "outputs": [
        {
          "name": "mintedBy",
          "type": "address"
        },
        {
          "name": "mintedAt",
          "type": "uint64"
        },
        {
          "name": "numbers",
          "type": "bytes32"
        },
        {
          "name": "count",
          "type": "uint256"
        },
        {
          "name": "blockNumber",
          "type": "uint256"
        }
      ],
      "payable": false,
      "stateMutability": "view",
      "type": "function"
    }
  ],
  "bytecode": "0x6060604052336000806101000a81548173ffffffffffffffffffffffffffffffffffffffff021916908373ffffffffffffffffffffffffffffffffffffffff160217905550611c96806100536000396000f300606060405260043610610112576000357c0100000000000000000000000000000000000000000000000000000000900463ffffffff16806301ffc9a71461011757806306fdde0314610171578063095ea7b3146101ff578063152b95a51461024157806318160ddd146102a457806323b872dd146102cd5780636352211e1461032e57806370a08231146103915780637266a232146103de578063775ed63d146104075780637dc379fa1461047157806380310ea51461050c578063854f41711461056f5780638da5cb5b146105bc57806395d89b4114610611578063a9059cbb1461069f578063cd4faf83146106e1578063cf456ae71461076f578063f2fde38b146107b3578063f46eccc4146107ec575b600080fd5b341561012257600080fd5b61015760048080357bffffffffffffffffffffffffffffffffffffffffffffffffffffffff191690602001909190505061083d565b604051808215151515815260200191505060405180910390f35b341561017c57600080fd5b610184610b17565b6040518080602001828103825283818151815260200191508051906020019080838360005b838110156101c45780820151818401526020810190506101a9565b50505050905090810190601f1680156101f15780820380516001836020036101000a031916815260200191505b509250505060405180910390f35b341561020a57600080fd5b61023f600480803573ffffffffffffffffffffffffffffffffffffffff16906020019091908035906020019091905050610b50565b005b341561024c57600080fd5b6102626004808035906020019091905050610b73565b604051808273ffffffffffffffffffffffffffffffffffffffff1673ffffffffffffffffffffffffffffffffffffffff16815260200191505060405180910390f35b34156102af57600080fd5b6102b7610ba6565b6040518082815260200191505060405180910390f35b34156102d857600080fd5b61032c600480803573ffffffffffffffffffffffffffffffffffffffff1690602001909190803573ffffffffffffffffffffffffffffffffffffffff16906020019091908035906020019091905050610bb3565b005b341561033957600080fd5b61034f6004808035906020019091905050610c64565b604051808273ffffffffffffffffffffffffffffffffffffffff1673ffffffffffffffffffffffffffffffffffffffff16815260200191505060405180910390f35b341561039c57600080fd5b6103c8600480803573ffffffffffffffffffffffffffffffffffffffff16906020019091905050610cdd565b6040518082815260200191505060405180910390f35b34156103e957600080fd5b6103f1610d26565b6040518082815260200191505060405180910390f35b341561041257600080fd5b61045b600480803573ffffffffffffffffffffffffffffffffffffffff169060200190919080359060200190820180359060200191909192908035906020019091905050610d2c565b6040518082815260200191505060405180910390f35b341561047c57600080fd5b6104926004808035906020019091905050610dcd565b604051808673ffffffffffffffffffffffffffffffffffffffff1673ffffffffffffffffffffffffffffffffffffffff1681526020018567ffffffffffffffff1667ffffffffffffffff16815260200184600019166000191681526020018381526020018281526020019550505050505060405180910390f35b341561051757600080fd5b61052d600480803590602001909190505061106e565b604051808273ffffffffffffffffffffffffffffffffffffffff1673ffffffffffffffffffffffffffffffffffffffff16815260200191505060405180910390f35b341561057a57600080fd5b6105a6600480803573ffffffffffffffffffffffffffffffffffffffff169060200190919050506110a1565b6040518082815260200191505060405180910390f35b34156105c757600080fd5b6105cf6110b9565b604051808273ffffffffffffffffffffffffffffffffffffffff1673ffffffffffffffffffffffffffffffffffffffff16815260200191505060405180910390f35b341561061c57600080fd5b6106246110de565b6040518080602001828103825283818151815260200191508051906020019080838360005b83811015610664578082015181840152602081019050610649565b50505050905090810190601f1680156106915780820380516001836020036101000a031916815260200191505b509250505060405180910390f35b34156106aa57600080fd5b6106df600480803573ffffffffffffffffffffffffffffffffffffffff16906020019091908035906020019091905050611117565b005b34156106ec57600080fd5b610718600480803573ffffffffffffffffffffffffffffffffffffffff169060200190919050506111b2565b6040518080602001828103825283818151815260200191508051906020019060200280838360005b8381101561075b578082015181840152602081019050610740565b505050509050019250505060405180910390f35b341561077a57600080fd5b6107b1600480803573ffffffffffffffffffffffffffffffffffffffff1690602001909190803515159060200190919050506112e9565b005b34156107be57600080fd5b6107ea600480803573ffffffffffffffffffffffffffffffffffffffff1690602001909190505061139f565b005b34156107f757600080fd5b610823600480803573ffffffffffffffffffffffffffffffffffffffff1690602001909190505061143d565b604051808215151515815260200191505060405180910390f35b600060405180807f737570706f727473496e74657266616365286279746573342900000000000000815250601901905060405180910390207bffffffffffffffffffffffffffffffffffffffffffffffffffffffff1916827bffffffffffffffffffffffffffffffffffffffffffffffffffffffff19161480610b10575060405180807f7469636b6574734f664f776e65722861646472657373290000000000000000008152506017019050604051809103902060405180807f7472616e7366657246726f6d28616464726573732c616464726573732c75696e81526020017f74290000000000000000000000000000000000000000000000000000000000008152506022019050604051809103902060405180807f7472616e7366657228616464726573732c75696e7429000000000000000000008152506016019050604051809103902060405180807f617070726f766528616464726573732c75696e742900000000000000000000008152506015019050604051809103902060405180807f6f776e65724f662875696e742900000000000000000000000000000000000000815250600d019050604051809103902060405180807f62616c616e63654f6628616464726573732900000000000000000000000000008152506012019050604051809103902060405180807f746f74616c537570706c79282900000000000000000000000000000000000000815250600d019050604051809103902060405180807f73796d626f6c28290000000000000000000000000000000000000000000000008152506008019050604051809103902060405180807f6e616d65282900000000000000000000000000000000000000000000000000008152506006019050604051809103902018181818181818187bffffffffffffffffffffffffffffffffffffffffffffffffffffffff1916827bffffffffffffffffffffffffffffffffffffffffffffffffffffffff1916145b9050919050565b6040805190810160405280601081526020017f437279746f4c6f74746f5469636b65740000000000000000000000000000000081525081565b610b5a338261145d565b1515610b6557600080fd5b610b6f82826114c9565b5050565b60056020528060005260406000206000915054906101000a900473ffffffffffffffffffffffffffffffffffffffff1681565b6000600180549050905090565b600073ffffffffffffffffffffffffffffffffffffffff168273ffffffffffffffffffffffffffffffffffffffff1614151515610bef57600080fd5b3073ffffffffffffffffffffffffffffffffffffffff168273ffffffffffffffffffffffffffffffffffffffff1614151515610c2a57600080fd5b610c343382611624565b1515610c3f57600080fd5b610c49838261145d565b1515610c5457600080fd5b610c5f838383611690565b505050565b60006003600083815260200190815260200160002060009054906101000a900473ffffffffffffffffffffffffffffffffffffffff169050600073ffffffffffffffffffffffffffffffffffffffff168173ffffffffffffffffffffffffffffffffffffffff1614151515610cd857600080fd5b919050565b6000600460008373ffffffffffffffffffffffffffffffffffffffff1673ffffffffffffffffffffffffffffffffffffffff168152602001908152602001600020549050919050565b60065481565b6000600260003373ffffffffffffffffffffffffffffffffffffffff1673ffffffffffffffffffffffffffffffffffffffff16815260200190815260200160002060009054906101000a900460ff161515610d8657600080fd5b610dc38585858080601f01602080910402602001604051908101604052809392919081815260200183838082843782019150505050505084611892565b9050949350505050565b6000806000806000610ddd611a4c565b60008060018054905089101515610df357600080fd5b600189815481101515610e0257fe5b906000526020600020906004020160a060405190810160405290816000820160009054906101000a900473ffffffffffffffffffffffffffffffffffffffff1673ffffffffffffffffffffffffffffffffffffffff1673ffffffffffffffffffffffffffffffffffffffff1681526020016000820160149054906101000a900467ffffffffffffffff1667ffffffffffffffff1667ffffffffffffffff168152602001600182018054600181600116156101000203166002900480601f016020809104026020016040519081016040528092919081815260200182805460018160011615610100020316600290048015610f3d5780601f10610f1257610100808354040283529160200191610f3d565b820191906000526020600020905b815481529060010190602001808311610f2057829003601f168201915b5050505050815260200160028201548152602001600382015481525050925060209150826040015151821115610f765782604001515191505b600090505b81811015611046576008810260ff7f010000000000000000000000000000000000000000000000000000000000000002846040015183815181101515610fbd57fe5b9060200101517f010000000000000000000000000000000000000000000000000000000000000090047f010000000000000000000000000000000000000000000000000000000000000002167effffffffffffffffffffffffffffffffffffffffffffffffffffffffffffff1916600019169060020a9004861795508080600101915050610f7b565b8260000151975082602001519650826060015194508260800151935050505091939590929450565b60036020528060005260406000206000915054906101000a900473ffffffffffffffffffffffffffffffffffffffff1681565b60046020528060005260406000206000915090505481565b6000809054906101000a900473ffffffffffffffffffffffffffffffffffffffff1681565b6040805190810160405280600481526020017f434c544b0000000000000000000000000000000000000000000000000000000081525081565b600073ffffffffffffffffffffffffffffffffffffffff168273ffffffffffffffffffffffffffffffffffffffff161415151561115357600080fd5b3073ffffffffffffffffffffffffffffffffffffffff168273ffffffffffffffffffffffffffffffffffffffff161415151561118e57600080fd5b611198338261145d565b15156111a357600080fd5b6111ae338383611690565b5050565b6111ba611aa2565b60006111c4611aa2565b60008060006111d287610cdd565b945060008514156112045760006040518059106111ec5750595b908082528060200260200182016040525095506112df565b846040518059106112125750595b9080825280602002602001820160405250935061122d610ba6565b925060009150600190505b82811115156112db578673ffffffffffffffffffffffffffffffffffffffff166003600083815260200190815260200160002060009054906101000a900473ffffffffffffffffffffffffffffffffffffffff1673ffffffffffffffffffffffffffffffffffffffff1614156112ce578084838151811015156112b757fe5b906020019060200201818152505081806001019250505b8080600101915050611238565b8395505b5050505050919050565b6000809054906101000a900473ffffffffffffffffffffffffffffffffffffffff1673ffffffffffffffffffffffffffffffffffffffff163373ffffffffffffffffffffffffffffffffffffffff1614151561134457600080fd5b80600260008473ffffffffffffffffffffffffffffffffffffffff1673ffffffffffffffffffffffffffffffffffffffff16815260200190815260200160002060006101000a81548160ff0219169083151502179055505050565b6000809054906101000a900473ffffffffffffffffffffffffffffffffffffffff1673ffffffffffffffffffffffffffffffffffffffff163373ffffffffffffffffffffffffffffffffffffffff161415156113fa57600080fd5b806000806101000a81548173ffffffffffffffffffffffffffffffffffffffff021916908373ffffffffffffffffffffffffffffffffffffffff16021790555050565b60026020528060005260406000206000915054906101000a900460ff1681565b60008273ffffffffffffffffffffffffffffffffffffffff166003600084815260200190815260200160002060009054906101000a900473ffffffffffffffffffffffffffffffffffffffff1673ffffffffffffffffffffffffffffffffffffffff1614905092915050565b816005600083815260200190815260200160002060006101000a81548173ffffffffffffffffffffffffffffffffffffffff021916908373ffffffffffffffffffffffffffffffffffffffff1602179055507f8c5be1e5ebec7d5bd14f71427d1e84f3dd0314c0f7b2291e5b200ac8c7c3b9256003600083815260200190815260200160002060009054906101000a900473ffffffffffffffffffffffffffffffffffffffff166005600084815260200190815260200160002060009054906101000a900473ffffffffffffffffffffffffffffffffffffffff1683604051808473ffffffffffffffffffffffffffffffffffffffff1673ffffffffffffffffffffffffffffffffffffffff1681526020018373ffffffffffffffffffffffffffffffffffffffff1673ffffffffffffffffffffffffffffffffffffffff168152602001828152602001935050505060405180910390a15050565b60008273ffffffffffffffffffffffffffffffffffffffff166005600084815260200190815260200160002060009054906101000a900473ffffffffffffffffffffffffffffffffffffffff1673ffffffffffffffffffffffffffffffffffffffff1614905092915050565b600460008373ffffffffffffffffffffffffffffffffffffffff1673ffffffffffffffffffffffffffffffffffffffff16815260200190815260200160002060008154809291906001019190505550816003600083815260200190815260200160002060006101000a81548173ffffffffffffffffffffffffffffffffffffffff021916908373ffffffffffffffffffffffffffffffffffffffff160217905550600073ffffffffffffffffffffffffffffffffffffffff168373ffffffffffffffffffffffffffffffffffffffff161415156117ee57600460008473ffffffffffffffffffffffffffffffffffffffff1673ffffffffffffffffffffffffffffffffffffffff16815260200190815260200160002060008154809291906001900391905055506005600082815260200190815260200160002060006101000a81549073ffffffffffffffffffffffffffffffffffffffff02191690555b7fddf252ad1be2c89b69c2b068fc378daa952ba7f163c4a11628f55a4df523b3ef838383604051808473ffffffffffffffffffffffffffffffffffffffff1673ffffffffffffffffffffffffffffffffffffffff1681526020018373ffffffffffffffffffffffffffffffffffffffff1673ffffffffffffffffffffffffffffffffffffffff168152602001828152602001935050505060405180910390a1505050565b600061189c611a4c565b60a0604051908101604052808673ffffffffffffffffffffffffffffffffffffffff1681526020014267ffffffffffffffff16815260200185815260200184815260200143815250905060018080548060010182816118fb9190611ab6565b9160005260206000209060040201600084909190915060008201518160000160006101000a81548173ffffffffffffffffffffffffffffffffffffffff021916908373ffffffffffffffffffffffffffffffffffffffff16021790555060208201518160000160146101000a81548167ffffffffffffffff021916908367ffffffffffffffff16021790555060408201518160010190805190602001906119a3929190611ae8565b5060608201518160020155608082015181600301555050039150826006600082825401925050819055507f0f6798a560793a54c3bcfe86a93cde1e73087d944c0ea20544137d41213968858583604051808373ffffffffffffffffffffffffffffffffffffffff1673ffffffffffffffffffffffffffffffffffffffff1681526020018281526020019250505060405180910390a1611a4460008684611690565b509392505050565b60a060405190810160405280600073ffffffffffffffffffffffffffffffffffffffff168152602001600067ffffffffffffffff168152602001611a8e611b68565b815260200160008152602001600081525090565b602060405190810160405280600081525090565b815481835581811511611ae357600402816004028360005260206000209182019101611ae29190611b7c565b5b505050565b828054600181600116156101000203166002900490600052602060002090601f016020900481019282601f10611b2957805160ff1916838001178555611b57565b82800160010185558215611b57579182015b82811115611b56578251825591602001919060010190611b3b565b5b509050611b649190611bfd565b5090565b602060405190810160405280600081525090565b611bfa91905b80821115611bf657600080820160006101000a81549073ffffffffffffffffffffffffffffffffffffffff02191690556000820160146101000a81549067ffffffffffffffff0219169055600182016000611bdd9190611c22565b6002820160009055600382016000905550600401611b82565b5090565b90565b611c1f91905b80821115611c1b576000816000905550600101611c03565b5090565b90565b50805460018160011615610100020316600290046000825580601f10611c485750611c67565b601f016020900490600052602060002090810190611c669190611bfd565b5b505600a165627a7a72305820b56c758d2ab399c55504faf54e2f7ee6a2b44ebff147f30fc3f9b0b235d9cf240029",
  "source": "pragma solidity ^0.4.18;\n\nimport \"./ERC721.sol\";\nimport \"./owned.sol\";\nimport \"./CLToken.sol\";\n\ncontract ChainLotTicket is ERC721, owned {\n  /*** CONSTANTS ***/\n\n  string public constant name = \"CrytoLottoTicket\";\n  string public constant symbol = \"CLTK\";\n\n  bytes4 constant InterfaceID_ERC165 =\n    bytes4(keccak256('supportsInterface(bytes4)'));\n\n  bytes4 constant InterfaceID_ERC721 =\n    bytes4(keccak256('name()')) ^\n    bytes4(keccak256('symbol()')) ^\n    bytes4(keccak256('totalSupply()')) ^\n    bytes4(keccak256('balanceOf(address)')) ^\n    bytes4(keccak256('ownerOf(uint)')) ^\n    bytes4(keccak256('approve(address,uint)')) ^\n    bytes4(keccak256('transfer(address,uint)')) ^\n    bytes4(keccak256('transferFrom(address,address,uint)')) ^\n    bytes4(keccak256('ticketsOfOwner(address)'));\n\n\n  /*** DATA TYPES ***/\n\n  struct Ticket {\n    address mintedBy;\n    uint64 mintedAt;\n    bytes numbers;\n    uint count;\n    uint blockNumber;\n  }\n\n\n  /*** STORAGE ***/\n\n  Ticket[] tickets;\n  mapping (address => bool) public minters;\n\n  mapping (uint => address) public ticketIndexToOwner;\n  mapping (address => uint) public ownershipTicketCount;\n  mapping (uint => address) public ticketIndexToApproved;\n\n  uint public totalTicketCountSum;\n  \n\n  /*** EVENTS ***/\n\n  event Mint(address owner, uint ticketId);\n\n\n  /*** INTERNAL FUNCTIONS ***/\n\n  function _owns(address _claimant, uint _ticketId) internal view returns (bool) {\n    return ticketIndexToOwner[_ticketId] == _claimant;\n  }\n\n  function _approvedFor(address _claimant, uint _ticketId) internal view returns (bool) {\n    return ticketIndexToApproved[_ticketId] == _claimant;\n  }\n\n  function _approve(address _to, uint _ticketId) internal {\n    ticketIndexToApproved[_ticketId] = _to;\n\n    Approval(ticketIndexToOwner[_ticketId], ticketIndexToApproved[_ticketId], _ticketId);\n  }\n\n  function _transfer(address _from, address _to, uint _ticketId) internal {\n    ownershipTicketCount[_to]++;\n    ticketIndexToOwner[_ticketId] = _to;\n\n    if (_from != address(0)) {\n      ownershipTicketCount[_from]--;\n      delete ticketIndexToApproved[_ticketId];\n    }\n\n    Transfer(_from, _to, _ticketId);\n  }\n\n  function _mint(address _owner,bytes _numbers,uint _count) internal returns (uint ticketId) {\n    Ticket memory ticket = Ticket({\n      mintedBy: _owner,\n      mintedAt: uint64(now),\n      numbers: _numbers,\n      count: _count,\n      blockNumber: block.number\n    });\n    ticketId = tickets.push(ticket) - 1;\n    totalTicketCountSum += _count;\n\n    Mint(_owner, ticketId);\n\n    _transfer(0, _owner, ticketId);\n  }\n\n\n  /*** ERC721 IMPLEMENTATION ***/\n\n  function supportsInterface(bytes4 _interfaceID) external view returns (bool) {\n    return ((_interfaceID == InterfaceID_ERC165) || (_interfaceID == InterfaceID_ERC721));\n  }\n\n  function totalSupply() public view returns (uint) {\n    return tickets.length;\n  }\n\n  function balanceOf(address _owner) public view returns (uint) {\n    return ownershipTicketCount[_owner];\n  }\n\n  function ownerOf(uint _ticketId) external view returns (address owner) {\n    owner = ticketIndexToOwner[_ticketId];\n\n    require(owner != address(0));\n  }\n\n  function approve(address _to, uint _ticketId) external {\n    require(_owns(msg.sender, _ticketId));\n\n    _approve(_to, _ticketId);\n  }\n\n  function transfer(address _to, uint _ticketId) external {\n    require(_to != address(0));\n    require(_to != address(this));\n    require(_owns(msg.sender, _ticketId));\n\n    _transfer(msg.sender, _to, _ticketId);\n  }\n\n  function transferFrom(address _from, address _to, uint _ticketId) external {\n    require(_to != address(0));\n    require(_to != address(this));\n    require(_approvedFor(msg.sender, _ticketId));\n    require(_owns(_from, _ticketId));\n\n    _transfer(_from, _to, _ticketId);\n  }\n\n  function ticketsOfOwner(address _owner) public view returns (uint[]) {\n    uint balance = balanceOf(_owner);\n\n    if (balance == 0) {\n      return new uint[](0);\n    } else {\n      uint[] memory result = new uint[](balance);\n      uint maxTicketId = totalSupply();\n      uint idx = 0;\n\n      uint ticketId;\n      for (ticketId = 1; ticketId <= maxTicketId; ticketId++) {\n        if (ticketIndexToOwner[ticketId] == _owner) {\n          result[idx] = ticketId;\n          idx++;\n        }\n      }\n    }\n\n    return result;\n  }\n\n  /*** OTHER EXTERNAL FUNCTIONS ***/\n\n  function setMinter(address _minter, bool _enable) external onlyOwner {\n    minters[_minter] = _enable;\n  }\n\n  modifier onlyMinter {\n        require(minters[msg.sender]);\n        _;\n  }\n\n  function mint(address _owner, \n    bytes _numbers,\n    uint _count) \n    external onlyMinter returns (uint) {\n    return _mint(_owner, _numbers, _count);\n  }\n\n  function getTicket(uint _ticketId) external view \n    returns (address mintedBy, uint64 mintedAt, bytes32 numbers, uint count, uint blockNumber) {\n    require(_ticketId < tickets.length);\n    Ticket memory ticket = tickets[_ticketId];\n\n    uint bytesLength = 32;\n    if(bytesLength > ticket.numbers.length) bytesLength = ticket.numbers.length;\n    for(uint i=0; i<bytesLength; i++) {\n      numbers |= bytes32(ticket.numbers[i]&0xFF)>>(i*8);\n    }\n\n    mintedBy = ticket.mintedBy;\n    mintedAt = ticket.mintedAt;\n    //numbers = ticket.numbers;\n    count = ticket.count;\n    blockNumber = ticket.blockNumber;\n  }\n}",
  "sourcePath": "/Users/phx/eth/chainlot/contracts/ChainLotTicket.sol",
  "compiler": {
    "name": "solc",
    "version": "0.4.19+commit.c4cbbb05.Emscripten.clang"
  },
  "schemaVersion": "2.0.0",
  "updatedAt": "2018-06-24T12:54:33.047Z"
}