{
  "contractName": "ChainLotPublic",
  "abi": [
    {
      "constant": true,
      "inputs": [],
      "name": "clToken",
      "outputs": [
        {
          "name": "",
          "type": "address"
        }
      ],
      "payable": false,
      "stateMutability": "view",
      "type": "function"
    },
    {
      "constant": true,
      "inputs": [],
      "name": "chainlot",
      "outputs": [
        {
          "name": "",
          "type": "address"
        }
      ],
      "payable": false,
      "stateMutability": "view",
      "type": "function"
    },
    {
      "constant": true,
      "inputs": [],
      "name": "owner",
      "outputs": [
        {
          "name": "",
          "type": "address"
        }
      ],
      "payable": false,
      "stateMutability": "view",
      "type": "function"
    },
    {
      "constant": true,
      "inputs": [],
      "name": "chainLotTicket",
      "outputs": [
        {
          "name": "",
          "type": "address"
        }
      ],
      "payable": false,
      "stateMutability": "view",
      "type": "function"
    },
    {
      "constant": false,
      "inputs": [
        {
          "name": "newOwner",
          "type": "address"
        }
      ],
      "name": "transferOwnership",
      "outputs": [],
      "payable": false,
      "stateMutability": "nonpayable",
      "type": "function"
    },
    {
      "payable": true,
      "stateMutability": "payable",
      "type": "fallback"
    },
    {
      "anonymous": false,
      "inputs": [
        {
          "indexed": false,
          "name": "poolBlockNumber",
          "type": "uint256"
        },
        {
          "indexed": false,
          "name": "numbers",
          "type": "bytes"
        },
        {
          "indexed": false,
          "name": "ticketCount",
          "type": "uint256"
        },
        {
          "indexed": false,
          "name": "ticketId",
          "type": "uint256"
        },
        {
          "indexed": false,
          "name": "user",
          "type": "address"
        },
        {
          "indexed": false,
          "name": "blockNumber",
          "type": "uint256"
        },
        {
          "indexed": false,
          "name": "totalTicketCountSum",
          "type": "uint256"
        },
        {
          "indexed": false,
          "name": "value",
          "type": "uint256"
        }
      ],
      "name": "BuyTicket",
      "type": "event"
    },
    {
      "anonymous": false,
      "inputs": [
        {
          "indexed": false,
          "name": "user",
          "type": "address"
        },
        {
          "indexed": false,
          "name": "value",
          "type": "uint256"
        }
      ],
      "name": "TransferHistoryCut",
      "type": "event"
    },
    {
      "constant": false,
      "inputs": [
        {
          "name": "numbers",
          "type": "bytes"
        },
        {
          "name": "referer",
          "type": "address"
        }
      ],
      "name": "buyTicket",
      "outputs": [],
      "payable": true,
      "stateMutability": "payable",
      "type": "function"
    },
    {
      "constant": false,
      "inputs": [
        {
          "name": "numberCount",
          "type": "uint8"
        },
        {
          "name": "referer",
          "type": "address"
        }
      ],
      "name": "buyRandom",
      "outputs": [],
      "payable": true,
      "stateMutability": "payable",
      "type": "function"
    },
    {
      "constant": false,
      "inputs": [
        {
          "name": "chainlotAddress",
          "type": "address"
        }
      ],
      "name": "setChainLotAddress",
      "outputs": [],
      "payable": false,
      "stateMutability": "nonpayable",
      "type": "function"
    },
    {
      "constant": false,
      "inputs": [
        {
          "name": "cltokenAddress",
          "type": "address"
        }
      ],
      "name": "setCLTokenAddress",
      "outputs": [],
      "payable": false,
      "stateMutability": "nonpayable",
      "type": "function"
    },
    {
      "constant": false,
      "inputs": [
        {
          "name": "ticketAddress",
          "type": "address"
        }
      ],
      "name": "setChainLotTicketAddress",
      "outputs": [],
      "payable": false,
      "stateMutability": "nonpayable",
      "type": "function"
    },
    {
      "constant": false,
      "inputs": [
        {
          "name": "_from",
          "type": "address"
        },
        {
          "name": "_value",
          "type": "uint256"
        },
        {
          "name": "_token",
          "type": "address"
        },
        {
          "name": "_extraData",
          "type": "bytes"
        }
      ],
      "name": "receiveApproval",
      "outputs": [],
      "payable": false,
      "stateMutability": "nonpayable",
      "type": "function"
    },
    {
      "constant": true,
      "inputs": [],
      "name": "retrievePoolInfo",
      "outputs": [
        {
          "name": "poolTokens",
          "type": "uint256"
        },
        {
          "name": "poolBlockNumber",
          "type": "uint256"
        },
        {
          "name": "totalPoolTokens",
          "type": "uint256"
        },
        {
          "name": "currentPoolIndex",
          "type": "uint256"
        }
      ],
      "payable": false,
      "stateMutability": "view",
      "type": "function"
    },
    {
      "constant": true,
      "inputs": [
        {
          "name": "poolStart",
          "type": "uint256"
        },
        {
          "name": "poolEnd",
          "type": "uint256"
        }
      ],
      "name": "getWinnerList",
      "outputs": [
        {
          "name": "_winners",
          "type": "address[]"
        },
        {
          "name": "_values",
          "type": "uint256[]"
        },
        {
          "name": "_blocks",
          "type": "uint256[]"
        }
      ],
      "payable": false,
      "stateMutability": "view",
      "type": "function"
    },
    {
      "constant": false,
      "inputs": [
        {
          "name": "poolStart",
          "type": "uint256"
        },
        {
          "name": "poolEnd",
          "type": "uint256"
        },
        {
          "name": "ticketIds",
          "type": "uint256[]"
        }
      ],
      "name": "withDrawHistoryCut",
      "outputs": [],
      "payable": false,
      "stateMutability": "nonpayable",
      "type": "function"
    },
    {
      "constant": true,
      "inputs": [
        {
          "name": "user",
          "type": "address"
        },
        {
          "name": "poolStart",
          "type": "uint256"
        },
        {
          "name": "poolEnd",
          "type": "uint256"
        },
        {
          "name": "ticketIds",
          "type": "uint256[]"
        }
      ],
      "name": "listUserHistoryCut",
      "outputs": [
        {
          "name": "_poolCuts",
          "type": "uint256[]"
        }
      ],
      "payable": false,
      "stateMutability": "view",
      "type": "function"
    }
  ],
  "bytecode": "0x6060604052336000806101000a81548173ffffffffffffffffffffffffffffffffffffffff021916908373ffffffffffffffffffffffffffffffffffffffff16021790555061162e806100536000396000f3006060604052600436106100db576000357c0100000000000000000000000000000000000000000000000000000000900463ffffffff1680630800e5f1146100e95780631106245c1461013e578063363da607146101935780633e191a12146102475780633f12fdaa14610280578063413e1a97146102b95780636ea6c8b2146102f35780638da5cb5b146103645780638f4ffcb1146103b95780639e851d7f1461045d578063a05863b61461056e578063cded58e9146105ac578063e1e3af69146105e5578063ee05a5d51461063a578063f2fde38b1461067a575b6100e7600160006106b3565b005b34156100f457600080fd5b6100fc610796565b604051808273ffffffffffffffffffffffffffffffffffffffff1673ffffffffffffffffffffffffffffffffffffffff16815260200191505060405180910390f35b341561014957600080fd5b6101516107bc565b604051808273ffffffffffffffffffffffffffffffffffffffff1673ffffffffffffffffffffffffffffffffffffffff16815260200191505060405180910390f35b341561019e57600080fd5b6101f0600480803573ffffffffffffffffffffffffffffffffffffffff1690602001909190803590602001909190803590602001909190803590602001908201803590602001919091929050506107e2565b6040518080602001828103825283818151815260200191508051906020019060200280838360005b83811015610233578082015181840152602081019050610218565b505050509050019250505060405180910390f35b341561025257600080fd5b61027e600480803573ffffffffffffffffffffffffffffffffffffffff16906020019091905050610997565b005b341561028b57600080fd5b6102b7600480803573ffffffffffffffffffffffffffffffffffffffff16906020019091905050610a36565b005b6102f1600480803560ff1690602001909190803573ffffffffffffffffffffffffffffffffffffffff169060200190919050506106b3565b005b610362600480803590602001908201803590602001908080601f0160208091040260200160405190810160405280939291908181526020018383808284378201915050505050509190803573ffffffffffffffffffffffffffffffffffffffff16906020019091905050610ad5565b005b341561036f57600080fd5b610377610c17565b604051808273ffffffffffffffffffffffffffffffffffffffff1673ffffffffffffffffffffffffffffffffffffffff16815260200191505060405180910390f35b34156103c457600080fd5b61045b600480803573ffffffffffffffffffffffffffffffffffffffff1690602001909190803590602001909190803573ffffffffffffffffffffffffffffffffffffffff1690602001909190803590602001908201803590602001908080601f01602080910402602001604051908101604052809392919081815260200183838082843782019150505050505091905050610c3c565b005b341561046857600080fd5b6104876004808035906020019091908035906020019091905050610fd7565b60405180806020018060200180602001848103845287818151815260200191508051906020019060200280838360005b838110156104d25780820151818401526020810190506104b7565b50505050905001848103835286818151815260200191508051906020019060200280838360005b838110156105145780820151818401526020810190506104f9565b50505050905001848103825285818151815260200191508051906020019060200280838360005b8381101561055657808201518184015260208101905061053b565b50505050905001965050505050505060405180910390f35b341561057957600080fd5b610581611267565b6040518085815260200184815260200183815260200182815260200194505050505060405180910390f35b34156105b757600080fd5b6105e3600480803573ffffffffffffffffffffffffffffffffffffffff16906020019091905050611336565b005b34156105f057600080fd5b6105f86113d5565b604051808273ffffffffffffffffffffffffffffffffffffffff1673ffffffffffffffffffffffffffffffffffffffff16815260200191505060405180910390f35b341561064557600080fd5b610678600480803590602001909190803590602001909190803590602001908201803590602001919091929050506113fb565b005b341561068557600080fd5b6106b1600480803573ffffffffffffffffffffffffffffffffffffffff169060200190919050506114d2565b005b600160009054906101000a900473ffffffffffffffffffffffffffffffffffffffff1673ffffffffffffffffffffffffffffffffffffffff1663413e1a973484846040518463ffffffff167c0100000000000000000000000000000000000000000000000000000000028152600401808360ff1660ff1681526020018273ffffffffffffffffffffffffffffffffffffffff1673ffffffffffffffffffffffffffffffffffffffff168152602001925050506000604051808303818588803b151561077d57600080fd5b6125ee5a03f1151561078e57600080fd5b505050505050565b600260009054906101000a900473ffffffffffffffffffffffffffffffffffffffff1681565b600160009054906101000a900473ffffffffffffffffffffffffffffffffffffffff1681565b6107ea611570565b6107f2611584565b6107fa611570565b6000600160009054906101000a900473ffffffffffffffffffffffffffffffffffffffff1673ffffffffffffffffffffffffffffffffffffffff1663363da6078a8a8a8a8a600060405161400001526040518663ffffffff167c0100000000000000000000000000000000000000000000000000000000028152600401808673ffffffffffffffffffffffffffffffffffffffff1673ffffffffffffffffffffffffffffffffffffffff1681526020018581526020018481526020018060200182810382528484828181526020019250602002808284378201915050965050505050505061400060405180830381600087803b15156108f857600080fd5b6102c65a03f1151561090957600080fd5b505050604051806140000160405292508787036040518059106109295750595b90808252806020026020018201604052509150600090505b8787038110156109885782816102008110151561095a57fe5b6020020151828281518110151561096d57fe5b90602001906020020181815250508080600101915050610941565b81935050505095945050505050565b6000809054906101000a900473ffffffffffffffffffffffffffffffffffffffff1673ffffffffffffffffffffffffffffffffffffffff163373ffffffffffffffffffffffffffffffffffffffff161415156109f257600080fd5b80600360006101000a81548173ffffffffffffffffffffffffffffffffffffffff021916908373ffffffffffffffffffffffffffffffffffffffff16021790555050565b6000809054906101000a900473ffffffffffffffffffffffffffffffffffffffff1673ffffffffffffffffffffffffffffffffffffffff163373ffffffffffffffffffffffffffffffffffffffff16141515610a9157600080fd5b80600260006101000a81548173ffffffffffffffffffffffffffffffffffffffff021916908373ffffffffffffffffffffffffffffffffffffffff16021790555050565b600160009054906101000a900473ffffffffffffffffffffffffffffffffffffffff1673ffffffffffffffffffffffffffffffffffffffff16636ea6c8b23484846040518463ffffffff167c010000000000000000000000000000000000000000000000000000000002815260040180806020018373ffffffffffffffffffffffffffffffffffffffff1673ffffffffffffffffffffffffffffffffffffffff168152602001828103825284818151815260200191508051906020019080838360005b83811015610bb3578082015181840152602081019050610b98565b50505050905090810190601f168015610be05780820380516001836020036101000a031916815260200191505b5093505050506000604051808303818588803b1515610bfe57600080fd5b6125ee5a03f11515610c0f57600080fd5b505050505050565b6000809054906101000a900473ffffffffffffffffffffffffffffffffffffffff1681565b600260009054906101000a900473ffffffffffffffffffffffffffffffffffffffff1673ffffffffffffffffffffffffffffffffffffffff166323b872dd8530866000604051602001526040518463ffffffff167c0100000000000000000000000000000000000000000000000000000000028152600401808473ffffffffffffffffffffffffffffffffffffffff1673ffffffffffffffffffffffffffffffffffffffff1681526020018373ffffffffffffffffffffffffffffffffffffffff1673ffffffffffffffffffffffffffffffffffffffff1681526020018281526020019350505050602060405180830381600087803b1515610d3d57600080fd5b6102c65a03f11515610d4e57600080fd5b5050506040518051905015610fd157600260009054906101000a900473ffffffffffffffffffffffffffffffffffffffff1673ffffffffffffffffffffffffffffffffffffffff1663a9059cbb600160009054906101000a900473ffffffffffffffffffffffffffffffffffffffff16856040518363ffffffff167c0100000000000000000000000000000000000000000000000000000000028152600401808373ffffffffffffffffffffffffffffffffffffffff1673ffffffffffffffffffffffffffffffffffffffff16815260200182815260200192505050600060405180830381600087803b1515610e4357600080fd5b6102c65a03f11515610e5457600080fd5b505050600160009054906101000a900473ffffffffffffffffffffffffffffffffffffffff1673ffffffffffffffffffffffffffffffffffffffff16638f4ffcb1858585856040518563ffffffff167c0100000000000000000000000000000000000000000000000000000000028152600401808573ffffffffffffffffffffffffffffffffffffffff1673ffffffffffffffffffffffffffffffffffffffff1681526020018481526020018373ffffffffffffffffffffffffffffffffffffffff1673ffffffffffffffffffffffffffffffffffffffff16815260200180602001828103825283818151815260200191508051906020019080838360005b83811015610f6e578082015181840152602081019050610f53565b50505050905090810190601f168015610f9b5780820380516001836020036101000a031916815260200191505b5095505050505050600060405180830381600087803b1515610fbc57600080fd5b6102c65a03f11515610fcd57600080fd5b5050505b50505050565b610fdf6115ae565b610fe7611570565b610fef611570565b610ff76115c2565b610fff611584565b611007611584565b60006110116115ae565b611019611570565b611021611570565b6000600160009054906101000a900473ffffffffffffffffffffffffffffffffffffffff1673ffffffffffffffffffffffffffffffffffffffff16639e851d7f8e8e600060405161c02001526040518363ffffffff167c0100000000000000000000000000000000000000000000000000000000028152600401808381526020018281526020019250505061c02060405180830381600087803b15156110c657600080fd5b6102c65a03f115156110d757600080fd5b505050604051806140000180614000018061400001805190602001604052809850819950829a50839b50505050506000851115611257578460405180591061111c5750595b908082528060200260200182016040525093508460405180591061113d5750595b908082528060200260200182016040525092508460405180591061115e5750595b90808252806020026020018201604052509150600090505b848110156112495787816102008110151561118d57fe5b602002015184828151811015156111a057fe5b9060200190602002019073ffffffffffffffffffffffffffffffffffffffff16908173ffffffffffffffffffffffffffffffffffffffff16815250508681610200811015156111eb57fe5b602002015183828151811015156111fe57fe5b906020019060200201818152505085816102008110151561121b57fe5b6020020151828281518110151561122e57fe5b90602001906020020181815250508080600101915050611176565b8383839a509a509a50611258565b5b50505050505050509250925092565b600080600080600160009054906101000a900473ffffffffffffffffffffffffffffffffffffffff1673ffffffffffffffffffffffffffffffffffffffff1663a05863b66000604051608001526040518163ffffffff167c0100000000000000000000000000000000000000000000000000000000028152600401608060405180830381600087803b15156112fb57600080fd5b6102c65a03f1151561130c57600080fd5b50505060405180519060200180519060200180519060200180519050935093509350935090919293565b6000809054906101000a900473ffffffffffffffffffffffffffffffffffffffff1673ffffffffffffffffffffffffffffffffffffffff163373ffffffffffffffffffffffffffffffffffffffff1614151561139157600080fd5b80600160006101000a81548173ffffffffffffffffffffffffffffffffffffffff021916908373ffffffffffffffffffffffffffffffffffffffff16021790555050565b600360009054906101000a900473ffffffffffffffffffffffffffffffffffffffff1681565b600160009054906101000a900473ffffffffffffffffffffffffffffffffffffffff1673ffffffffffffffffffffffffffffffffffffffff1663ee05a5d5858585856040518563ffffffff167c010000000000000000000000000000000000000000000000000000000002815260040180858152602001848152602001806020018281038252848482818152602001925060200280828437820191505095505050505050600060405180830381600087803b15156114b857600080fd5b6102c65a03f115156114c957600080fd5b50505050505050565b6000809054906101000a900473ffffffffffffffffffffffffffffffffffffffff1673ffffffffffffffffffffffffffffffffffffffff163373ffffffffffffffffffffffffffffffffffffffff1614151561152d57600080fd5b806000806101000a81548173ffffffffffffffffffffffffffffffffffffffff021916908373ffffffffffffffffffffffffffffffffffffffff16021790555050565b602060405190810160405280600081525090565b61400060405190810160405280610200905b60008152602001906001900390816115965790505090565b602060405190810160405280600081525090565b61400060405190810160405280610200905b600073ffffffffffffffffffffffffffffffffffffffff168152602001906001900390816115d457905050905600a165627a7a72305820cc6f287d885b480748a4132f1418d4682428353d537159aad3bc2a60573c7ac10029",
  "source": "pragma solidity ^0.4.18;\nimport \"./Interface.sol\";\nimport \"./owned.sol\";\n\ncontract ChainLotPublic is owned {\n\tChainLotInterface public chainlot;\n\tCLTokenInterface public clToken;\n\tChainLotTicketInterface public chainLotTicket;\n  \t\n\tevent BuyTicket(uint poolBlockNumber, bytes numbers, uint ticketCount, uint ticketId, address user, uint blockNumber, uint totalTicketCountSum, uint value);\n\tevent TransferHistoryCut(address user, uint value);\n\n\tfunction buyTicket(bytes numbers, address referer) payable public {\n\t\tchainlot.buyTicket.value(msg.value)(numbers, referer);\n\t}\n\t\n\tfunction buyRandom(uint8 numberCount, address referer) payable public {\n\t\tchainlot.buyRandom.value(msg.value)(numberCount, referer);\n\t}\n\n\tfunction setChainLotAddress(address chainlotAddress) onlyOwner external {\n\t\tchainlot = ChainLotInterface(chainlotAddress);\n\t}\n\n\tfunction setCLTokenAddress(address cltokenAddress) onlyOwner external {\n\t\tclToken = CLTokenInterface(cltokenAddress);\n\t}\n\n\tfunction setChainLotTicketAddress(address ticketAddress) onlyOwner external {\n    \tchainLotTicket = ChainLotTicketInterface(ticketAddress);\n  \t}\n\n\tfunction receiveApproval(address _from, uint _value, address _token, bytes _extraData) public {\n\t\tif(clToken.transferFrom(_from, this, _value)) {\n\t\t\tclToken.transfer(chainlot, _value);\n\t\t\tchainlot.receiveApproval(_from, _value, _token, _extraData);\n\t\t}\n\t}\n\n\tfunction () payable public {\n\t\tbuyRandom(1, 0);\n\t}\n\n\tfunction retrievePoolInfo() external view returns (uint poolTokens, uint poolBlockNumber, uint totalPoolTokens, uint currentPoolIndex) {\n\t\treturn chainlot.retrievePoolInfo();\n\t}\n\n\tfunction getWinnerList(uint poolStart, uint poolEnd) external view returns (address[] _winners, uint[] _values, uint[] _blocks) {\n\t\taddress[512] memory winnersResult;uint[512] memory valuesResult;uint[512] memory blocksResult;uint count;\n\n\t\t(winnersResult, valuesResult, blocksResult, count) = chainlot.getWinnerList(poolStart, poolEnd);\n\t\tif(count > 0) {\n\t\t\taddress[] memory winners = new address[](count);\n\t\t\tuint[] memory values = new uint[](count);\n\t\t\tuint[] memory blocks = new uint[](count);\n\t\t\tfor(uint i=0;i<count; i++) {\n\t\t\t\twinners[i] = winnersResult[i];\n\t\t\t\tvalues[i] = valuesResult[i];\n\t\t\t\tblocks[i] = blocksResult[i];\n\t\t\t}\n\t\t\treturn(winners, values, blocks);\n\t\t}\n\t}\n\n\t//withdraw history cut from pools\n  \tfunction withDrawHistoryCut(uint poolStart, uint poolEnd, uint[] ticketIds) external {\n  \t\tchainlot.withDrawHistoryCut(poolStart, poolEnd, ticketIds);\n  \t}\n\n\n\tfunction listUserHistoryCut(address user, uint poolStart, uint poolEnd, uint[] ticketIds) external view returns(uint[] _poolCuts) {\n\t\t//return chainlot.listUserHistoryCut(user, poolStart, poolEnd, ticketIds);\n\t  \t\n\t  \tuint[512] memory pcresult = chainlot.listUserHistoryCut(user, poolStart, poolEnd, ticketIds);\n\t  \tuint[] memory poolCuts = new uint[](poolEnd - poolStart);\n\t  \tfor(uint i = 0; i < poolEnd - poolStart; i++) {\n\t  \t\tpoolCuts[i] = pcresult[i];\n\t  \t}\n\t  \treturn poolCuts;\n\t}\n\n}",
  "sourcePath": "/Users/phx/eth/chainlot/contracts/ChainLotPublic.sol",
  "compiler": {
    "name": "solc",
    "version": "0.4.19+commit.c4cbbb05.Emscripten.clang"
  },
  "schemaVersion": "2.0.0",
  "updatedAt": "2018-06-30T02:49:01.792Z"
}