{
  "contractName": "ChainLotPool",
  "abi": [
    {
      "constant": true,
      "inputs": [],
      "name": "clToken",
      "outputs": [
        {
          "name": "",
          "type": "address"
        }
      ],
      "payable": false,
      "stateMutability": "view",
      "type": "function"
    },
    {
      "constant": true,
      "inputs": [],
      "name": "totalNumberCount",
      "outputs": [
        {
          "name": "",
          "type": "uint8"
        }
      ],
      "payable": false,
      "stateMutability": "view",
      "type": "function"
    },
    {
      "constant": true,
      "inputs": [],
      "name": "maxYellowNumberCount",
      "outputs": [
        {
          "name": "",
          "type": "uint8"
        }
      ],
      "payable": false,
      "stateMutability": "view",
      "type": "function"
    },
    {
      "constant": true,
      "inputs": [],
      "name": "chainLot",
      "outputs": [
        {
          "name": "",
          "type": "address"
        }
      ],
      "payable": false,
      "stateMutability": "view",
      "type": "function"
    },
    {
      "constant": true,
      "inputs": [
        {
          "name": "",
          "type": "uint256"
        }
      ],
      "name": "awardRules",
      "outputs": [
        {
          "name": "whiteNumberCount",
          "type": "uint256"
        },
        {
          "name": "yellowNumberCount",
          "type": "uint256"
        },
        {
          "name": "awardEther",
          "type": "uint256"
        }
      ],
      "payable": false,
      "stateMutability": "view",
      "type": "function"
    },
    {
      "constant": true,
      "inputs": [
        {
          "name": "",
          "type": "uint256"
        }
      ],
      "name": "allTicketsId",
      "outputs": [
        {
          "name": "",
          "type": "uint256"
        }
      ],
      "payable": false,
      "stateMutability": "view",
      "type": "function"
    },
    {
      "constant": true,
      "inputs": [],
      "name": "maxYellowNumber",
      "outputs": [
        {
          "name": "",
          "type": "uint8"
        }
      ],
      "payable": false,
      "stateMutability": "view",
      "type": "function"
    },
    {
      "constant": true,
      "inputs": [],
      "name": "allTicketsCount",
      "outputs": [
        {
          "name": "",
          "type": "uint256"
        }
      ],
      "payable": false,
      "stateMutability": "view",
      "type": "function"
    },
    {
      "constant": true,
      "inputs": [],
      "name": "maxWhiteNumber",
      "outputs": [
        {
          "name": "",
          "type": "uint8"
        }
      ],
      "payable": false,
      "stateMutability": "view",
      "type": "function"
    },
    {
      "constant": true,
      "inputs": [],
      "name": "totalTicketCountSum",
      "outputs": [
        {
          "name": "",
          "type": "uint256"
        }
      ],
      "payable": false,
      "stateMutability": "view",
      "type": "function"
    },
    {
      "constant": true,
      "inputs": [],
      "name": "tokenSum",
      "outputs": [
        {
          "name": "",
          "type": "uint256"
        }
      ],
      "payable": false,
      "stateMutability": "view",
      "type": "function"
    },
    {
      "constant": true,
      "inputs": [],
      "name": "owner",
      "outputs": [
        {
          "name": "",
          "type": "address"
        }
      ],
      "payable": false,
      "stateMutability": "view",
      "type": "function"
    },
    {
      "constant": true,
      "inputs": [],
      "name": "maxWhiteNumberCount",
      "outputs": [
        {
          "name": "",
          "type": "uint8"
        }
      ],
      "payable": false,
      "stateMutability": "view",
      "type": "function"
    },
    {
      "constant": true,
      "inputs": [],
      "name": "poolBlockNumber",
      "outputs": [
        {
          "name": "",
          "type": "uint256"
        }
      ],
      "payable": false,
      "stateMutability": "view",
      "type": "function"
    },
    {
      "constant": true,
      "inputs": [
        {
          "name": "",
          "type": "uint256"
        }
      ],
      "name": "awardRulesIndex",
      "outputs": [
        {
          "name": "",
          "type": "uint256"
        }
      ],
      "payable": false,
      "stateMutability": "view",
      "type": "function"
    },
    {
      "constant": true,
      "inputs": [],
      "name": "etherPerTicket",
      "outputs": [
        {
          "name": "",
          "type": "uint256"
        }
      ],
      "payable": false,
      "stateMutability": "view",
      "type": "function"
    },
    {
      "constant": true,
      "inputs": [],
      "name": "stage",
      "outputs": [
        {
          "name": "",
          "type": "uint256"
        }
      ],
      "payable": false,
      "stateMutability": "view",
      "type": "function"
    },
    {
      "constant": true,
      "inputs": [],
      "name": "historyCut",
      "outputs": [
        {
          "name": "",
          "type": "uint256"
        }
      ],
      "payable": false,
      "stateMutability": "view",
      "type": "function"
    },
    {
      "constant": true,
      "inputs": [],
      "name": "preparedAwards",
      "outputs": [
        {
          "name": "",
          "type": "bool"
        }
      ],
      "payable": false,
      "stateMutability": "view",
      "type": "function"
    },
    {
      "constant": true,
      "inputs": [
        {
          "name": "",
          "type": "uint256"
        }
      ],
      "name": "winnerTickets",
      "outputs": [
        {
          "name": "processedIndex",
          "type": "uint256"
        },
        {
          "name": "distributedIndex",
          "type": "uint256"
        }
      ],
      "payable": false,
      "stateMutability": "view",
      "type": "function"
    },
    {
      "constant": true,
      "inputs": [],
      "name": "chainLotTicket",
      "outputs": [
        {
          "name": "",
          "type": "address"
        }
      ],
      "payable": false,
      "stateMutability": "view",
      "type": "function"
    },
    {
      "constant": true,
      "inputs": [],
      "name": "lastMatchedTicketIndex",
      "outputs": [
        {
          "name": "",
          "type": "uint256"
        }
      ],
      "payable": false,
      "stateMutability": "view",
      "type": "function"
    },
    {
      "constant": true,
      "inputs": [],
      "name": "jackpotNumbers",
      "outputs": [
        {
          "name": "",
          "type": "bytes"
        }
      ],
      "payable": false,
      "stateMutability": "view",
      "type": "function"
    },
    {
      "constant": false,
      "inputs": [
        {
          "name": "newOwner",
          "type": "address"
        }
      ],
      "name": "transferOwnership",
      "outputs": [],
      "payable": false,
      "stateMutability": "nonpayable",
      "type": "function"
    },
    {
      "constant": true,
      "inputs": [
        {
          "name": "",
          "type": "uint256"
        }
      ],
      "name": "withdrawed",
      "outputs": [
        {
          "name": "",
          "type": "bool"
        }
      ],
      "payable": false,
      "stateMutability": "view",
      "type": "function"
    },
    {
      "constant": true,
      "inputs": [
        {
          "name": "",
          "type": "uint256"
        }
      ],
      "name": "distributeTickets",
      "outputs": [
        {
          "name": "processedIndex",
          "type": "uint256"
        },
        {
          "name": "distributedIndex",
          "type": "uint256"
        }
      ],
      "payable": false,
      "stateMutability": "view",
      "type": "function"
    },
    {
      "inputs": [
        {
          "name": "_poolBlockNumber",
          "type": "uint256"
        },
        {
          "name": "_maxWhiteNumber",
          "type": "uint8"
        },
        {
          "name": "_maxYellowNumber",
          "type": "uint8"
        },
        {
          "name": "_whiteNumberCount",
          "type": "uint8"
        },
        {
          "name": "_yellowNumberCount",
          "type": "uint8"
        },
        {
          "name": "_etherPerTicket",
          "type": "uint256"
        },
        {
          "name": "awardRulesArray",
          "type": "uint256[]"
        }
      ],
      "payable": false,
      "stateMutability": "nonpayable",
      "type": "constructor"
    },
    {
      "anonymous": false,
      "inputs": [
        {
          "indexed": false,
          "name": "poolBlockNumber",
          "type": "uint256"
        },
        {
          "indexed": false,
          "name": "numbers",
          "type": "bytes"
        },
        {
          "indexed": false,
          "name": "ticketCount",
          "type": "uint256"
        },
        {
          "indexed": false,
          "name": "ticketId",
          "type": "uint256"
        },
        {
          "indexed": false,
          "name": "user",
          "type": "address"
        },
        {
          "indexed": false,
          "name": "blockNumber",
          "type": "uint256"
        },
        {
          "indexed": false,
          "name": "totalTicketCountSum",
          "type": "uint256"
        },
        {
          "indexed": false,
          "name": "value",
          "type": "uint256"
        }
      ],
      "name": "BuyTicket",
      "type": "event"
    },
    {
      "anonymous": false,
      "inputs": [
        {
          "indexed": false,
          "name": "jackpotNumbers",
          "type": "bytes"
        },
        {
          "indexed": false,
          "name": "poolBlockNumber",
          "type": "uint256"
        },
        {
          "indexed": false,
          "name": "allTicketsCount",
          "type": "uint256"
        }
      ],
      "name": "PrepareAward",
      "type": "event"
    },
    {
      "anonymous": false,
      "inputs": [
        {
          "indexed": false,
          "name": "jackpotNumbers",
          "type": "bytes"
        },
        {
          "indexed": false,
          "name": "ticketNumber",
          "type": "bytes32"
        },
        {
          "indexed": false,
          "name": "ticketCount",
          "type": "uint256"
        },
        {
          "indexed": false,
          "name": "ticketId",
          "type": "uint256"
        },
        {
          "indexed": false,
          "name": "user",
          "type": "address"
        },
        {
          "indexed": false,
          "name": "blockNumber",
          "type": "uint256"
        },
        {
          "indexed": false,
          "name": "awardValue",
          "type": "uint256"
        }
      ],
      "name": "ToBeAward",
      "type": "event"
    },
    {
      "anonymous": false,
      "inputs": [
        {
          "indexed": false,
          "name": "jackpotNumbers",
          "type": "bytes"
        },
        {
          "indexed": false,
          "name": "lastMatchedTicketIndex",
          "type": "uint256"
        },
        {
          "indexed": false,
          "name": "endIndex",
          "type": "uint256"
        },
        {
          "indexed": false,
          "name": "allTicketsCount",
          "type": "uint256"
        }
      ],
      "name": "MatchAwards",
      "type": "event"
    },
    {
      "anonymous": false,
      "inputs": [
        {
          "indexed": false,
          "name": "jackpotNumbers",
          "type": "bytes"
        },
        {
          "indexed": false,
          "name": "ticketNumber",
          "type": "bytes32"
        },
        {
          "indexed": false,
          "name": "ticketCount",
          "type": "uint256"
        },
        {
          "indexed": false,
          "name": "ticketId",
          "type": "uint256"
        },
        {
          "indexed": false,
          "name": "blockNumber",
          "type": "uint256"
        },
        {
          "indexed": false,
          "name": "ruleId",
          "type": "uint256"
        },
        {
          "indexed": false,
          "name": "ruleEther",
          "type": "uint256"
        }
      ],
      "name": "MatchRule",
      "type": "event"
    },
    {
      "anonymous": false,
      "inputs": [
        {
          "indexed": false,
          "name": "winner",
          "type": "address"
        },
        {
          "indexed": false,
          "name": "value",
          "type": "uint256"
        }
      ],
      "name": "TransferAward",
      "type": "event"
    },
    {
      "anonymous": false,
      "inputs": [
        {
          "indexed": false,
          "name": "dev",
          "type": "address"
        },
        {
          "indexed": false,
          "name": "value",
          "type": "uint256"
        }
      ],
      "name": "TransferDevCut",
      "type": "event"
    },
    {
      "anonymous": false,
      "inputs": [
        {
          "indexed": false,
          "name": "user",
          "type": "address"
        },
        {
          "indexed": false,
          "name": "value",
          "type": "uint256"
        }
      ],
      "name": "TransferHistoryCut",
      "type": "event"
    },
    {
      "anonymous": false,
      "inputs": [
        {
          "indexed": false,
          "name": "added",
          "type": "uint256"
        },
        {
          "indexed": false,
          "name": "total",
          "type": "uint256"
        }
      ],
      "name": "AddHistoryCut",
      "type": "event"
    },
    {
      "anonymous": false,
      "inputs": [
        {
          "indexed": false,
          "name": "ruleId",
          "type": "uint8"
        },
        {
          "indexed": false,
          "name": "winnersTicketCount",
          "type": "uint256"
        },
        {
          "indexed": false,
          "name": "awardEther",
          "type": "uint256"
        },
        {
          "indexed": false,
          "name": "totalWinnersAward",
          "type": "uint256"
        },
        {
          "indexed": false,
          "name": "totalTicketCount",
          "type": "uint256"
        }
      ],
      "name": "CalculateAwards",
      "type": "event"
    },
    {
      "anonymous": false,
      "inputs": [
        {
          "indexed": false,
          "name": "ruleId",
          "type": "uint8"
        },
        {
          "indexed": false,
          "name": "totalWinnersAward",
          "type": "uint256"
        },
        {
          "indexed": false,
          "name": "leftBalance",
          "type": "uint256"
        }
      ],
      "name": "SplitAward",
      "type": "event"
    },
    {
      "anonymous": false,
      "inputs": [
        {
          "indexed": false,
          "name": "from",
          "type": "address"
        },
        {
          "indexed": false,
          "name": "to",
          "type": "address"
        },
        {
          "indexed": false,
          "name": "value",
          "type": "uint256"
        }
      ],
      "name": "TransferUnawarded",
      "type": "event"
    },
    {
      "anonymous": false,
      "inputs": [
        {
          "indexed": false,
          "name": "random",
          "type": "uint256"
        },
        {
          "indexed": false,
          "name": "blockNumber",
          "type": "uint256"
        },
        {
          "indexed": false,
          "name": "hash",
          "type": "uint256"
        },
        {
          "indexed": false,
          "name": "addressInt",
          "type": "uint256"
        },
        {
          "indexed": false,
          "name": "shift",
          "type": "uint256"
        },
        {
          "indexed": false,
          "name": "timestamp",
          "type": "uint256"
        },
        {
          "indexed": false,
          "name": "difficulty",
          "type": "uint256"
        }
      ],
      "name": "GenRandomNumbers",
      "type": "event"
    },
    {
      "anonymous": false,
      "inputs": [
        {
          "indexed": false,
          "name": "msg",
          "type": "uint256"
        }
      ],
      "name": "LOG",
      "type": "event"
    },
    {
      "constant": false,
      "inputs": [
        {
          "name": "_chainLotTicket",
          "type": "address"
        },
        {
          "name": "_clToken",
          "type": "address"
        },
        {
          "name": "_chainLot",
          "type": "address"
        }
      ],
      "name": "setPool",
      "outputs": [],
      "payable": false,
      "stateMutability": "nonpayable",
      "type": "function"
    },
    {
      "constant": false,
      "inputs": [
        {
          "name": "numbers",
          "type": "bytes"
        },
        {
          "name": "referer",
          "type": "address"
        }
      ],
      "name": "buyTicket",
      "outputs": [],
      "payable": true,
      "stateMutability": "payable",
      "type": "function"
    },
    {
      "constant": false,
      "inputs": [
        {
          "name": "referer",
          "type": "address"
        }
      ],
      "name": "buyRandom",
      "outputs": [],
      "payable": true,
      "stateMutability": "payable",
      "type": "function"
    },
    {
      "constant": false,
      "inputs": [
        {
          "name": "_from",
          "type": "address"
        },
        {
          "name": "_value",
          "type": "uint256"
        },
        {
          "name": "_token",
          "type": "address"
        },
        {
          "name": "_extraData",
          "type": "bytes"
        }
      ],
      "name": "receiveApproval",
      "outputs": [],
      "payable": false,
      "stateMutability": "nonpayable",
      "type": "function"
    },
    {
      "constant": false,
      "inputs": [],
      "name": "prepareAwards",
      "outputs": [],
      "payable": false,
      "stateMutability": "nonpayable",
      "type": "function"
    },
    {
      "constant": false,
      "inputs": [
        {
          "name": "toMatchCount",
          "type": "uint8"
        }
      ],
      "name": "matchAwards",
      "outputs": [],
      "payable": false,
      "stateMutability": "nonpayable",
      "type": "function"
    },
    {
      "constant": true,
      "inputs": [],
      "name": "getAllTicketsCount",
      "outputs": [
        {
          "name": "count",
          "type": "uint256"
        }
      ],
      "payable": false,
      "stateMutability": "view",
      "type": "function"
    },
    {
      "constant": false,
      "inputs": [
        {
          "name": "ruleId",
          "type": "uint8"
        },
        {
          "name": "toCalcCount",
          "type": "uint8"
        }
      ],
      "name": "calculateAwards",
      "outputs": [],
      "payable": false,
      "stateMutability": "nonpayable",
      "type": "function"
    },
    {
      "constant": false,
      "inputs": [],
      "name": "splitAward",
      "outputs": [],
      "payable": false,
      "stateMutability": "nonpayable",
      "type": "function"
    },
    {
      "constant": false,
      "inputs": [
        {
          "name": "ruleId",
          "type": "uint8"
        },
        {
          "name": "toDistCount",
          "type": "uint256"
        }
      ],
      "name": "distributeAwards",
      "outputs": [],
      "payable": false,
      "stateMutability": "nonpayable",
      "type": "function"
    },
    {
      "constant": false,
      "inputs": [
        {
          "name": "toAwardCount",
          "type": "uint256"
        }
      ],
      "name": "sendAwards",
      "outputs": [],
      "payable": false,
      "stateMutability": "nonpayable",
      "type": "function"
    },
    {
      "constant": false,
      "inputs": [
        {
          "name": "ticketIds",
          "type": "uint256[]"
        }
      ],
      "name": "withdrawHistoryCut",
      "outputs": [],
      "payable": false,
      "stateMutability": "nonpayable",
      "type": "function"
    },
    {
      "constant": false,
      "inputs": [
        {
          "name": "user",
          "type": "address"
        },
        {
          "name": "ticketIds",
          "type": "uint256[]"
        }
      ],
      "name": "listUserHistoryCut",
      "outputs": [
        {
          "name": "_historyCut",
          "type": "uint256"
        }
      ],
      "payable": false,
      "stateMutability": "nonpayable",
      "type": "function"
    },
    {
      "constant": false,
      "inputs": [
        {
          "name": "to",
          "type": "address"
        }
      ],
      "name": "transferUnawarded",
      "outputs": [],
      "payable": false,
      "stateMutability": "nonpayable",
      "type": "function"
    },
    {
      "constant": false,
      "inputs": [
        {
          "name": "blockNumber",
          "type": "uint256"
        },
        {
          "name": "shift",
          "type": "uint256"
        }
      ],
      "name": "genRandomNumbers",
      "outputs": [
        {
          "name": "_numbers",
          "type": "bytes"
        }
      ],
      "payable": false,
      "stateMutability": "nonpayable",
      "type": "function"
    }
  ],
  "bytecode": "0x606060405234156200001057600080fd5b6040516200431538038062004315833981016040528080519060200190919080519060200190919080519060200190919080519060200190919080519060200190919080519060200190919080518201919050506000336000806101000a81548173ffffffffffffffffffffffffffffffffffffffff021916908373ffffffffffffffffffffffffffffffffffffffff1602179055508760018190555086600260006101000a81548160ff021916908360ff16021790555085600260016101000a81548160ff021916908360ff16021790555084600760006101000a81548160ff021916908360ff16021790555083600760016101000a81548160ff021916908360ff16021790555082600381905550600760019054906101000a900460ff16600760009054906101000a900460ff1601600760026101000a81548160ff021916908360ff160217905550600090505b81518110156200037557815160038201111515156200017e57600080fd5b600082828151811015156200018f57fe5b9060200190602002015110158015620001d25750600760009054906101000a900460ff1660ff168282815181101515620001c557fe5b9060200190602002015111155b1515620001de57600080fd5b60008260018301815181101515620001f257fe5b9060200190602002015110158015620002385750600760019054906101000a900460ff1660ff1682600183018151811015156200022b57fe5b9060200190602002015111155b15156200024457600080fd5b601180548060010182816200025a919062000400565b9160005260206000209060030201600060606040519081016040528086868151811015156200028557fe5b9060200190602002015181526020018660018701815181101515620002a657fe5b9060200190602002015181526020018660028701815181101515620002c757fe5b906020019060200201518152509091909150600082015181600001556020820151816001015560408201518160020155505050601180549050600e60006200035785858151811015156200031757fe5b9060200190602002015186600187018151811015156200033357fe5b90602001906020020151620003dc6401000000000262003367176401000000009004565b81526020019081526020016000208190555060038101905062000160565b600090505b601180549050811015620003ce576000600f6000838152602001908152602001600020600101819055506000600f60008381526020019081526020016000206002018190555080806001019150506200037a565b50505050505050506200046f565b6000816001600760019054906101000a900460ff160160ff16840201905092915050565b81548183558181151162000430576003028160030283600052602060002091820191016200042f919062000435565b5b505050565b6200046c91905b80821115620004685760008082016000905560018201600090556002820160009055506003016200043c565b5090565b90565b613e96806200047f6000396000f3006060604052600436106101f9576000357c0100000000000000000000000000000000000000000000000000000000900463ffffffff16806304b92f3f146101fe5780630800e5f1146102305780630850cc4b1461028557806316205520146102b357806317f3d493146102e25780633678c9f41461030857806337f4a9c4146103ad5780633e43be3c146103dc57806350b9bc92146104315780635255f1e41461045f5780635b328df6146104a45780635f7d9287146104db5780636c933d851461050a5780636ea6c8b21461053357806370f4c343146105a45780637266a232146105d3578063758b9ee0146105fc57806382512ef81461062557806388963771146106545780638da5cb5b1461067d5780638f4ffcb1146106d25780639a62b39a146107765780639c7365e5146107ed5780639eb623d71461081c578063a478083714610845578063a703cc3d1461085a578063aa2aaeca1461087d578063b86d7c6c146108b4578063c040e6b8146108dd578063cda886d614610906578063d6d583f71461092f578063d8d912551461095c578063dfcab41714610995578063e1e3af69146109d3578063e2c3156114610a28578063e302909414610a51578063ee5bac8914610adf578063f29b7ae614610b40578063f2fde38b14610b55578063f3aa119314610b8e578063f58a789814610bc9575b600080fd5b341561020957600080fd5b61022e600480803560ff1690602001909190803560ff16906020019091905050610c07565b005b341561023b57600080fd5b610243610fbe565b604051808273ffffffffffffffffffffffffffffffffffffffff1673ffffffffffffffffffffffffffffffffffffffff16815260200191505060405180910390f35b6102b1600480803573ffffffffffffffffffffffffffffffffffffffff16906020019091905050610fe4565b005b34156102be57600080fd5b6102c661100a565b604051808260ff1660ff16815260200191505060405180910390f35b34156102ed57600080fd5b610306600480803560ff1690602001909190505061101d565b005b341561031357600080fd5b61033260048080359060200190919080359060200190919050506116f1565b6040518080602001828103825283818151815260200191508051906020019080838360005b83811015610372578082015181840152602081019050610357565b50505050905090810190601f16801561039f5780820380516001836020036101000a031916815260200191505b509250505060405180910390f35b34156103b857600080fd5b6103c06119c0565b604051808260ff1660ff16815260200191505060405180910390f35b34156103e757600080fd5b6103ef6119d3565b604051808273ffffffffffffffffffffffffffffffffffffffff1673ffffffffffffffffffffffffffffffffffffffff16815260200191505060405180910390f35b341561043c57600080fd5b61045d600480803590602001908201803590602001919091929050506119f9565b005b341561046a57600080fd5b6104806004808035906020019091905050611b80565b60405180848152602001838152602001828152602001935050505060405180910390f35b34156104af57600080fd5b6104c56004808035906020019091905050611bb9565b6040518082815260200191505060405180910390f35b34156104e657600080fd5b6104ee611bdd565b604051808260ff1660ff16815260200191505060405180910390f35b341561051557600080fd5b61051d611bf0565b6040518082815260200191505060405180910390f35b6105a2600480803590602001908201803590602001908080601f0160208091040260200160405190810160405280939291908181526020018383808284378201915050505050509190803573ffffffffffffffffffffffffffffffffffffffff16906020019091905050611bf6565b005b34156105af57600080fd5b6105b7611d91565b604051808260ff1660ff16815260200191505060405180910390f35b34156105de57600080fd5b6105e6611da4565b6040518082815260200191505060405180910390f35b341561060757600080fd5b61060f611daa565b6040518082815260200191505060405180910390f35b341561063057600080fd5b610652600480803560ff16906020019091908035906020019091905050611db7565b005b341561065f57600080fd5b6106676122ee565b6040518082815260200191505060405180910390f35b341561068857600080fd5b6106906122f4565b604051808273ffffffffffffffffffffffffffffffffffffffff1673ffffffffffffffffffffffffffffffffffffffff16815260200191505060405180910390f35b34156106dd57600080fd5b610774600480803573ffffffffffffffffffffffffffffffffffffffff1690602001909190803590602001909190803573ffffffffffffffffffffffffffffffffffffffff1690602001909190803590602001908201803590602001908080601f01602080910402602001604051908101604052809392919081815260200183838082843782019150505050505091905050612319565b005b341561078157600080fd5b6107eb600480803573ffffffffffffffffffffffffffffffffffffffff1690602001909190803573ffffffffffffffffffffffffffffffffffffffff1690602001909190803573ffffffffffffffffffffffffffffffffffffffff16906020019091905050612403565b005b34156107f857600080fd5b61080061250b565b604051808260ff1660ff16815260200191505060405180910390f35b341561082757600080fd5b61082f61251e565b6040518082815260200191505060405180910390f35b341561085057600080fd5b610858612524565b005b341561086557600080fd5b61087b600480803590602001909190505061279b565b005b341561088857600080fd5b61089e6004808035906020019091905050612c93565b6040518082815260200191505060405180910390f35b34156108bf57600080fd5b6108c7612cab565b6040518082815260200191505060405180910390f35b34156108e857600080fd5b6108f0612cb1565b6040518082815260200191505060405180910390f35b341561091157600080fd5b610919612cb7565b6040518082815260200191505060405180910390f35b341561093a57600080fd5b610942612cbd565b604051808215151515815260200191505060405180910390f35b341561096757600080fd5b610993600480803573ffffffffffffffffffffffffffffffffffffffff16906020019091905050612cd0565b005b34156109a057600080fd5b6109b66004808035906020019091905050612fb9565b604051808381526020018281526020019250505060405180910390f35b34156109de57600080fd5b6109e6612fdd565b604051808273ffffffffffffffffffffffffffffffffffffffff1673ffffffffffffffffffffffffffffffffffffffff16815260200191505060405180910390f35b3415610a3357600080fd5b610a3b613003565b6040518082815260200191505060405180910390f35b3415610a5c57600080fd5b610a64613009565b6040518080602001828103825283818151815260200191508051906020019080838360005b83811015610aa4578082015181840152602081019050610a89565b50505050905090810190601f168015610ad15780820380516001836020036101000a031916815260200191505b509250505060405180910390f35b3415610aea57600080fd5b610b2a600480803573ffffffffffffffffffffffffffffffffffffffff1690602001909190803590602001908201803590602001919091929050506130a7565b6040518082815260200191505060405180910390f35b3415610b4b57600080fd5b610b536130ed565b005b3415610b6057600080fd5b610b8c600480803573ffffffffffffffffffffffffffffffffffffffff16906020019091905050613285565b005b3415610b9957600080fd5b610baf6004808035906020019091905050613323565b604051808215151515815260200191505060405180910390f35b3415610bd457600080fd5b610bea6004808035906020019091905050613343565b604051808381526020018281526020019250505060405180910390f35b6000806000806000806000806000806000809054906101000a900473ffffffffffffffffffffffffffffffffffffffff1673ffffffffffffffffffffffffffffffffffffffff163373ffffffffffffffffffffffffffffffffffffffff16141515610c7157600080fd5b600680549050600854141515610c8657600080fd5b6001544310151515610c9757600080fd5b600f60008d60ff16815260200190815260200160002060010154600f60008e60ff168152602001908152602001600020600001805490501115610f925760009950600098508a60ff16600f60008e60ff16815260200190815260200160002060010154019750600f60008d60ff16815260200190815260200160002060000180549050881115610d4157600f60008d60ff1681526020019081526020016000206000018054905097505b600f60008d60ff1681526020019081526020016000206001015496505b87871015610ec357600f60008d60ff16815260200190815260200160002060000187815481101515610d8c57fe5b9060005260206000209001549550601260009054906101000a900473ffffffffffffffffffffffffffffffffffffffff1673ffffffffffffffffffffffffffffffffffffffff16637dc379fa87600060405160a001526040518263ffffffff167c01000000000000000000000000000000000000000000000000000000000281526004018082815260200191505060a060405180830381600087803b1515610e3357600080fd5b6102c65a03f11515610e4457600080fd5b505050604051805190602001805190602001805190602001805190602001805190508367ffffffffffffffff169350809550819650829750839850849950505050505060118c60ff16815481101515610e9957fe5b90600052602060002090600302016002015482028a01995081890198508680600101975050610d5e565b7f808ec1b88c41a836613e4712515f12af4d4862d29ac075e1d013a1e59d67beb88c8960118f60ff16815481101515610ef857fe5b9060005260206000209060030201600201548d8d604051808660ff1660ff1681526020018581526020018481526020018381526020018281526020019550505050505060405180910390a189601860008e60ff1681526020019081526020016000206000016000828254019250508190555088601860008e60ff168152602001908152602001600020600101600082825401925050819055505b87600f60008e60ff16815260200190815260200160002060010181905550505050505050505050505050565b601360009054906101000a900473ffffffffffffffffffffffffffffffffffffffff1681565b610fec613cd5565b610ffa6001430360006116f1565b90506110068183611bf6565b5050565b600760029054906101000a900460ff1681565b611025613cd5565b6000806000806000806000806000806000806000809054906101000a900473ffffffffffffffffffffffffffffffffffffffff1673ffffffffffffffffffffffffffffffffffffffff163373ffffffffffffffffffffffffffffffffffffffff1614151561109257600080fd5b600a60009054906101000a900460ff1615156110ad57600080fd5b60098054600181600116156101000203166002900480601f0160208091040260200160405190810160405280929190818152602001828054600181600116156101000203166002900480156111435780601f1061111857610100808354040283529160200191611143565b820191906000526020600020905b81548152906001019060200180831161112657829003601f168201915b50505050509c508d60ff16600854019b506006805490508c111561116a576006805490509b505b7f4e2e100bb46d169cac165c3957df4ab6bfee3526726a694f7b24aa85189c05248d6008548e6006805490506040518080602001858152602001848152602001838152602001828103825286818151815260200191508051906020019080838360005b838110156111e85780820151818401526020810190506111cd565b50505050905090810190601f1680156112155780820380516001836020036101000a031916815260200191505b509550505050505060405180910390a16008549a505b8b8b10156116e15760068b81548110151561124257fe5b9060005260206000209001549950601260009054906101000a900473ffffffffffffffffffffffffffffffffffffffff1673ffffffffffffffffffffffffffffffffffffffff16637dc379fa8b600060405160a001526040518263ffffffff167c01000000000000000000000000000000000000000000000000000000000281526004018082815260200191505060a060405180830381600087803b15156112e957600080fd5b6102c65a03f115156112fa57600080fd5b505050604051805190602001805190602001805190602001805190602001805190508367ffffffffffffffff169350809950819a50829b50839c50849d5050505050506000935060009250600091505b600760009054906101000a900460ff1660ff1682101561144e578c8281518110151561137257fe5b9060200101517f010000000000000000000000000000000000000000000000000000000000000090047f0100000000000000000000000000000000000000000000000000000000000000027effffffffffffffffffffffffffffffffffffffffffffffffffffffffffffff191687836020811015156113ed57fe5b1a7f0100000000000000000000000000000000000000000000000000000000000000027effffffffffffffffffffffffffffffffffffffffffffffffffffffffffffff191614156114415783806001019450505b818060010192505061134a565b600760009054906101000a900460ff1660ff1691505b8c51821015611557578c8281518110151561147b57fe5b9060200101517f010000000000000000000000000000000000000000000000000000000000000090047f0100000000000000000000000000000000000000000000000000000000000000027effffffffffffffffffffffffffffffffffffffffffffffffffffffffffffff191687836020811015156114f657fe5b1a7f0100000000000000000000000000000000000000000000000000000000000000027effffffffffffffffffffffffffffffffffffffffffffffffffffffffffffff1916141561154a5782806001019350505b8180600101925050611464565b6001600e60006115678787613367565b8152602001908152602001600020540390506000811015801561158e575060118054905081105b156116c957600f600082815260200190815260200160002060000180548060010182816115bb9190613ce9565b916000526020600020900160008c909190915055507f15a18365e92c43ca2cb496edf4f5752eb98cae38c464f3d9de64e1ddefb901968d88888d898660118881548110151561160657fe5b90600052602060002090600302016002015460405180806020018860001916600019168152602001878152602001868152602001858152602001848152602001838152602001828103825289818151815260200191508051906020019080838360005b83811015611684578082015181840152602081019050611669565b50505050905090810190601f1680156116b15780820380516001836020036101000a031916815260200191505b509850505050505050505060405180910390a16116ca565b5b60018b016008819055508a806001019b505061122b565b5050505050505050505050505050565b6116f9613cd5565b6000806000611706613cd5565b6000438810151561171657600080fd5b87406001900494503373ffffffffffffffffffffffffffffffffffffffff1693508484029250424486866040518085815260200184815260200183815260200182815260200194505050505060405180910390206001900492507f2c7df83ce284dc9c63cf5d2312952dd5ccecf8f255192742b2ca327d3e6c6a43838987878b42446040518088815260200187815260200186815260200185815260200184815260200183815260200182815260200197505050505050505060405180910390a1600083141515156117e757600080fd5b86839060020a90049250600760019054906101000a900460ff16600760009054906101000a900460ff160160ff166040518059106118225750595b9080825280601f01601f19166020018201604052509150600090505b600760009054906101000a900460ff1660ff168160ff1610156118f7576001600260009054906101000a900460ff1660ff168481151561187a57fe5b06017f010000000000000000000000000000000000000000000000000000000000000002828260ff168151811015156118af57fe5b9060200101907effffffffffffffffffffffffffffffffffffffffffffffffffffffffffffff1916908160001a9053506008839060020a90049250808060010191505061183e565b600760009054906101000a900460ff1690505b81518160ff1610156119b2576001600260019054906101000a900460ff1660ff168481151561193557fe5b06017f010000000000000000000000000000000000000000000000000000000000000002828260ff1681518110151561196a57fe5b9060200101907effffffffffffffffffffffffffffffffffffffffffffffffffffffffffffff1916908160001a9053506008839060020a90049250808060010191505061190a565b819550505050505092915050565b600760019054906101000a900460ff1681565b601460009054906101000a900473ffffffffffffffffffffffffffffffffffffffff1681565b6000611a3683838080602002602001604051908101604052809392919081815260200183836020028082843782019150505050505032600061338b565b9050601360009054906101000a900473ffffffffffffffffffffffffffffffffffffffff1673ffffffffffffffffffffffffffffffffffffffff1663a9059cbb32836040518363ffffffff167c0100000000000000000000000000000000000000000000000000000000028152600401808373ffffffffffffffffffffffffffffffffffffffff1673ffffffffffffffffffffffffffffffffffffffff16815260200182815260200192505050600060405180830381600087803b1515611afc57600080fd5b6102c65a03f11515611b0d57600080fd5b5050507fede4d03c867cd33eef808cb7e94941039fcb41bddb496675b7df85c4f9533bc33282604051808373ffffffffffffffffffffffffffffffffffffffff1673ffffffffffffffffffffffffffffffffffffffff1681526020018281526020019250505060405180910390a1505050565b601181815481101515611b8f57fe5b90600052602060002090600302016000915090508060000154908060010154908060020154905083565b600681815481101515611bc857fe5b90600052602060002090016000915090505481565b600260019054906101000a900460ff1681565b60045481565b600060015443101515611c0857600080fd5b6000601360009054906101000a900473ffffffffffffffffffffffffffffffffffffffff1673ffffffffffffffffffffffffffffffffffffffff1614151515611c5057600080fd5b60035434811515611c5d57fe5b049050600081111515611c6f57600080fd5b601360009054906101000a900473ffffffffffffffffffffffffffffffffffffffff1673ffffffffffffffffffffffffffffffffffffffff1663a6f2ae3a346040518263ffffffff167c01000000000000000000000000000000000000000000000000000000000281526004016000604051808303818588803b1515611cf457600080fd5b6125ee5a03f11515611d0557600080fd5b5050505034600c60008282540192505081905550611d2532848334613694565b5060008273ffffffffffffffffffffffffffffffffffffffff1614158015611d7957508173ffffffffffffffffffffffffffffffffffffffff163273ffffffffffffffffffffffffffffffffffffffff1614155b15611d8c57611d8a82848334613694565b505b505050565b600260009054906101000a900460ff1681565b60055481565b6000600680549050905090565b6000806000806000806000806000611dcd613d15565b6000809054906101000a900473ffffffffffffffffffffffffffffffffffffffff1673ffffffffffffffffffffffffffffffffffffffff163373ffffffffffffffffffffffffffffffffffffffff16141515611e2857600080fd5b8a600f60008e60ff16815260200190815260200160002060020154019950600f60008d60ff168152602001908152602001600020600001805490508a1115611e8a57600f60008d60ff1681526020019081526020016000206000018054905099505b6000601860008e60ff1681526020019081526020016000206001015411156122c257600f60008d60ff1681526020019081526020016000206002015498505b898910156122c157600f60008d60ff16815260200190815260200160002060000189815481101515611ef757fe5b9060005260206000209001549750601260009054906101000a900473ffffffffffffffffffffffffffffffffffffffff1673ffffffffffffffffffffffffffffffffffffffff16637dc379fa89600060405160a001526040518263ffffffff167c01000000000000000000000000000000000000000000000000000000000281526004018082815260200191505060a060405180830381600087803b1515611f9e57600080fd5b6102c65a03f11515611faf57600080fd5b505050604051805190602001805190602001805190602001805190602001805190508367ffffffffffffffff169350809750819850829950839a50849b505050505050601860008d60ff16815260200190815260200160002060010154601860008e60ff16815260200190815260200160002060000154850281151561203157fe5b0491506040805190810160405280601260009054906101000a900473ffffffffffffffffffffffffffffffffffffffff1673ffffffffffffffffffffffffffffffffffffffff16636352211e8b6000604051602001526040518263ffffffff167c010000000000000000000000000000000000000000000000000000000002815260040180828152602001915050602060405180830381600087803b15156120d857600080fd5b6102c65a03f115156120e957600080fd5b5050506040518051905073ffffffffffffffffffffffffffffffffffffffff168152602001838152509050601580548060010182816121289190613d45565b9160005260206000209060020201600083909190915060008201518160000160006101000a81548173ffffffffffffffffffffffffffffffffffffffff021916908373ffffffffffffffffffffffffffffffffffffffff160217905550602082015181600101555050507fb01bccb254382e42f8be08efc626846d5e2dcded1f9fdfee72de9902527f5727600986868b85600001518888604051808060200188600019166000191681526020018781526020018681526020018573ffffffffffffffffffffffffffffffffffffffff1673ffffffffffffffffffffffffffffffffffffffff1681526020018481526020018381526020018281038252898181546001816001161561010002031660029004815260200191508054600181600116156101000203166002900480156122a05780601f10612275576101008083540402835291602001916122a0565b820191906000526020600020905b81548152906001019060200180831161228357829003601f168201915b50509850505050505050505060405180910390a18880600101995050611ec9565b5b89600f60008e60ff16815260200190815260200160002060020181905550505050505050505050505050565b600c5481565b6000809054906101000a900473ffffffffffffffffffffffffffffffffffffffff1681565b6000612323613cd5565b601360009054906101000a900473ffffffffffffffffffffffffffffffffffffffff1673ffffffffffffffffffffffffffffffffffffffff168473ffffffffffffffffffffffffffffffffffffffff1614151561237f57600080fd5b6000835114806123a15750600760029054906101000a900460ff1660ff168351145b15156123ac57600080fd5b600354858115156123b957fe5b0491506000821115156123cb57600080fd5b6000835114156123ea576123e36001430360006116f1565b90506123ee565b8290505b6123fa86828488613694565b50505050505050565b82601260006101000a81548173ffffffffffffffffffffffffffffffffffffffff021916908373ffffffffffffffffffffffffffffffffffffffff16021790555081601360006101000a81548173ffffffffffffffffffffffffffffffffffffffff021916908373ffffffffffffffffffffffffffffffffffffffff16021790555080601460006101000a81548173ffffffffffffffffffffffffffffffffffffffff021916908373ffffffffffffffffffffffffffffffffffffffff160217905550326000806101000a81548173ffffffffffffffffffffffffffffffffffffffff021916908373ffffffffffffffffffffffffffffffffffffffff160217905550505050565b600760009054906101000a900460ff1681565b60015481565b6000806000809054906101000a900473ffffffffffffffffffffffffffffffffffffffff1673ffffffffffffffffffffffffffffffffffffffff163373ffffffffffffffffffffffffffffffffffffffff1614151561258257600080fd5b601360009054906101000a900473ffffffffffffffffffffffffffffffffffffffff1673ffffffffffffffffffffffffffffffffffffffff166370a08231306000604051602001526040518263ffffffff167c0100000000000000000000000000000000000000000000000000000000028152600401808273ffffffffffffffffffffffffffffffffffffffff1673ffffffffffffffffffffffffffffffffffffffff168152602001915050602060405180830381600087803b151561264757600080fd5b6102c65a03f1151561265857600080fd5b505050604051805190509150600090505b6011805490508160ff16101561279757600f60008260ff16815260200190815260200160002060000180549050600f60008360ff168152602001908152602001600020600101541415156126bc57600080fd5b601860008260ff168152602001908152602001600020600001548210151561270157601860008260ff1681526020019081526020016000206000015482039150612724565b81601860008360ff16815260200190815260200160002060000181905550600091505b7f53c5531a2a6e3b9168a9afac57f2dd8c3dffaad74813d964e6cf1ebbca23b9b481601860008460ff1681526020019081526020016000206000015484604051808460ff1660ff168152602001838152602001828152602001935050505060405180910390a18080600101915050612669565b5050565b6000806000806000806000809054906101000a900473ffffffffffffffffffffffffffffffffffffffff1673ffffffffffffffffffffffffffffffffffffffff163373ffffffffffffffffffffffffffffffffffffffff161415156127ff57600080fd5b8660165401955060158054905086111561281c5760158054905095505b6000945060009350600092506000915060165490505b85811015612a99576064605860158381548110151561284d57fe5b9060005260206000209060020201600101540281151561286957fe5b049150600a60158281548110151561287d57fe5b90600052602060002090600202016001015481151561289857fe5b049250828401935082826015838154811015156128b157fe5b906000526020600020906002020160010154030385019450601360009054906101000a900473ffffffffffffffffffffffffffffffffffffffff1673ffffffffffffffffffffffffffffffffffffffff1663a9059cbb60158381548110151561291657fe5b906000526020600020906002020160000160009054906101000a900473ffffffffffffffffffffffffffffffffffffffff16846040518363ffffffff167c0100000000000000000000000000000000000000000000000000000000028152600401808373ffffffffffffffffffffffffffffffffffffffff1673ffffffffffffffffffffffffffffffffffffffff16815260200182815260200192505050600060405180830381600087803b15156129cd57600080fd5b6102c65a03f115156129de57600080fd5b5050507f1b6d8b654cd01f384b6ff31c93d6ddd4a913a1dfd77dc76c1b9e4a542deada4e601582815481101515612a1157fe5b906000526020600020906002020160000160009054906101000a900473ffffffffffffffffffffffffffffffffffffffff1683604051808373ffffffffffffffffffffffffffffffffffffffff1673ffffffffffffffffffffffffffffffffffffffff1681526020018281526020019250505060405180910390a18080600101915050612832565b6000851115612c2857601360009054906101000a900473ffffffffffffffffffffffffffffffffffffffff1673ffffffffffffffffffffffffffffffffffffffff1663a9059cbb6000809054906101000a900473ffffffffffffffffffffffffffffffffffffffff16876040518363ffffffff167c0100000000000000000000000000000000000000000000000000000000028152600401808373ffffffffffffffffffffffffffffffffffffffff1673ffffffffffffffffffffffffffffffffffffffff16815260200182815260200192505050600060405180830381600087803b1515612b8757600080fd5b6102c65a03f11515612b9857600080fd5b5050507ffd9fb33b1445303659e522c1835afcc964050ac9820f5022796f9df1e088e8456000809054906101000a900473ffffffffffffffffffffffffffffffffffffffff1686604051808373ffffffffffffffffffffffffffffffffffffffff1673ffffffffffffffffffffffffffffffffffffffff1681526020018281526020019250505060405180910390a15b6000841115612c835783600b600082825401925050819055507faad75236bdf067f1567e2c65465b13aad95599b18ead98fa61e35e8fa3ce9fb884600b54604051808381526020018281526020019250505060405180910390a15b8560168190555050505050505050565b600e6020528060005260406000206000915090505481565b60035481565b600d5481565b600b5481565b600a60009054906101000a900460ff1681565b6000806000809054906101000a900473ffffffffffffffffffffffffffffffffffffffff1673ffffffffffffffffffffffffffffffffffffffff163373ffffffffffffffffffffffffffffffffffffffff16141515612d2e57600080fd5b600091505b601180549050821015612d4d578180600101925050612d33565b600b54601360009054906101000a900473ffffffffffffffffffffffffffffffffffffffff1673ffffffffffffffffffffffffffffffffffffffff166370a08231306000604051602001526040518263ffffffff167c0100000000000000000000000000000000000000000000000000000000028152600401808273ffffffffffffffffffffffffffffffffffffffff1673ffffffffffffffffffffffffffffffffffffffff168152602001915050602060405180830381600087803b1515612e1557600080fd5b6102c65a03f11515612e2657600080fd5b505050604051805190500390506000811115612fb457601360009054906101000a900473ffffffffffffffffffffffffffffffffffffffff1673ffffffffffffffffffffffffffffffffffffffff1663a9059cbb84836040518363ffffffff167c0100000000000000000000000000000000000000000000000000000000028152600401808373ffffffffffffffffffffffffffffffffffffffff1673ffffffffffffffffffffffffffffffffffffffff16815260200182815260200192505050600060405180830381600087803b1515612f0057600080fd5b6102c65a03f11515612f1157600080fd5b5050507fd3c8e61b3f3589e41778ffcfb76754be14fb22fbdabd8371a332c3b145f0c3e3308483604051808473ffffffffffffffffffffffffffffffffffffffff1673ffffffffffffffffffffffffffffffffffffffff1681526020018373ffffffffffffffffffffffffffffffffffffffff1673ffffffffffffffffffffffffffffffffffffffff168152602001828152602001935050505060405180910390a15b505050565b600f6020528060005260406000206000915090508060010154908060020154905082565b601260009054906101000a900473ffffffffffffffffffffffffffffffffffffffff1681565b60085481565b60098054600181600116156101000203166002900480601f01602080910402602001604051908101604052809291908181526020018280546001816001161561010002031660029004801561309f5780601f106130745761010080835404028352916020019161309f565b820191906000526020600020905b81548152906001019060200180831161308257829003601f168201915b505050505081565b60006130e483838080602002602001604051908101604052809392919081815260200183836020028082843782019150505050505085600161338b565b90509392505050565b6000809054906101000a900473ffffffffffffffffffffffffffffffffffffffff1673ffffffffffffffffffffffffffffffffffffffff163373ffffffffffffffffffffffffffffffffffffffff1614151561314857600080fd5b600a60009054906101000a900460ff1615151561316457600080fd5b6001544311151561317457600080fd5b61318160015460086116f1565b60099080519060200190613196929190613d77565b507fb4a3d365f86774ee97301c1ffa4061a05cffa5fcef064c4f3890a92d1bd0e2d7600960015460068054905060405180806020018481526020018381526020018281038252858181546001816001161561010002031660029004815260200191508054600181600116156101000203166002900480156132585780601f1061322d57610100808354040283529160200191613258565b820191906000526020600020905b81548152906001019060200180831161323b57829003601f168201915b505094505050505060405180910390a16001600a60006101000a81548160ff021916908315150217905550565b6000809054906101000a900473ffffffffffffffffffffffffffffffffffffffff1673ffffffffffffffffffffffffffffffffffffffff163373ffffffffffffffffffffffffffffffffffffffff161415156132e057600080fd5b806000806101000a81548173ffffffffffffffffffffffffffffffffffffffff021916908373ffffffffffffffffffffffffffffffffffffffff16021790555050565b60176020528060005260406000206000915054906101000a900460ff1681565b60106020528060005260406000206000915090508060010154908060020154905082565b6000816001600760019054906101000a900460ff160160ff16840201905092915050565b600080600080600080600080600060055414156133ab5760009750613686565b60009650600090505b8a5181101561367157601260009054906101000a900473ffffffffffffffffffffffffffffffffffffffff1673ffffffffffffffffffffffffffffffffffffffff16637dc379fa8c8381518110151561340957fe5b90602001906020020151600060405160a001526040518263ffffffff167c01000000000000000000000000000000000000000000000000000000000281526004018082815260200191505060a060405180830381600087803b151561346d57600080fd5b6102c65a03f1151561347e57600080fd5b505050604051805190602001805190602001805190602001805190602001805190508367ffffffffffffffff169350809650819750829850839950849a50505050505060001515601760008d848151811015156134d757fe5b90602001906020020151815260200190815260200160002060009054906101000a900460ff16151514801561350d575060015482105b801561360e57508973ffffffffffffffffffffffffffffffffffffffff16601260009054906101000a900473ffffffffffffffffffffffffffffffffffffffff1673ffffffffffffffffffffffffffffffffffffffff16636352211e8d8481518110151561357757fe5b906020019060200201516000604051602001526040518263ffffffff167c010000000000000000000000000000000000000000000000000000000002815260040180828152602001915050602060405180830381600087803b15156135db57600080fd5b6102c65a03f115156135ec57600080fd5b5050506040518051905073ffffffffffffffffffffffffffffffffffffffff16145b15613664578287019650881515613663576001601760008d8481518110151561363357fe5b90602001906020020151815260200190815260200160002060006101000a81548160ff0219169083151502179055505b5b80806001019150506133b4565b600554600b54880281151561368257fe5b0497505b505050505050509392505050565b6000806000600760019054906101000a900460ff16600760009054906101000a900460ff160160ff1686511415156136cb57600080fd5b600091505b600760009054906101000a900460ff1660ff168260ff16101561382a576001868360ff1681518110151561370057fe5b9060200101517f010000000000000000000000000000000000000000000000000000000000000090047f0100000000000000000000000000000000000000000000000000000000000000027f0100000000000000000000000000000000000000000000000000000000000000900460ff16101580156138125750600260009054906101000a900460ff1660ff16868360ff1681518110151561379e57fe5b9060200101517f010000000000000000000000000000000000000000000000000000000000000090047f0100000000000000000000000000000000000000000000000000000000000000027f0100000000000000000000000000000000000000000000000000000000000000900460ff1611155b151561381d57600080fd5b81806001019250506136d0565b600760009054906101000a900460ff1691505b85518260ff161015613986576001868360ff1681518110151561385c57fe5b9060200101517f010000000000000000000000000000000000000000000000000000000000000090047f0100000000000000000000000000000000000000000000000000000000000000027f0100000000000000000000000000000000000000000000000000000000000000900460ff161015801561396e5750600260019054906101000a900460ff1660ff16868360ff168151811015156138fa57fe5b9060200101517f010000000000000000000000000000000000000000000000000000000000000090047f0100000000000000000000000000000000000000000000000000000000000000027f0100000000000000000000000000000000000000000000000000000000000000900460ff1611155b151561397957600080fd5b818060010192505061383d565b60008511151561399557600080fd5b601460009054906101000a900473ffffffffffffffffffffffffffffffffffffffff1673ffffffffffffffffffffffffffffffffffffffff1663775ed63d8888886000604051602001526040518463ffffffff167c0100000000000000000000000000000000000000000000000000000000028152600401808473ffffffffffffffffffffffffffffffffffffffff1673ffffffffffffffffffffffffffffffffffffffff16815260200180602001838152602001828103825284818151815260200191508051906020019080838360005b83811015613a82578082015181840152602081019050613a67565b50505050905090810190601f168015613aaf5780820380516001836020036101000a031916815260200191505b50945050505050602060405180830381600087803b1515613acf57600080fd5b6102c65a03f11515613ae057600080fd5b50505060405180519050905060068054806001018281613b009190613ce9565b916000526020600020900160008390919091505550601260009054906101000a900473ffffffffffffffffffffffffffffffffffffffff1673ffffffffffffffffffffffffffffffffffffffff16637266a2326000604051602001526040518163ffffffff167c0100000000000000000000000000000000000000000000000000000000028152600401602060405180830381600087803b1515613ba357600080fd5b6102c65a03f11515613bb457600080fd5b505050604051805190506005819055507f5668ef0a105003526dc9fcca87fdecfef80b94dc11daaab96ac3b953b3484ff86001548787848b436005548b60405180898152602001806020018881526020018781526020018673ffffffffffffffffffffffffffffffffffffffff1673ffffffffffffffffffffffffffffffffffffffff168152602001858152602001848152602001838152602001828103825289818151815260200191508051906020019080838360005b83811015613c87578082015181840152602081019050613c6c565b50505050905090810190601f168015613cb45780820380516001836020036101000a031916815260200191505b50995050505050505050505060405180910390a18092505050949350505050565b602060405190810160405280600081525090565b815481835581811511613d1057818360005260206000209182019101613d0f9190613df7565b5b505050565b6040805190810160405280600073ffffffffffffffffffffffffffffffffffffffff168152602001600081525090565b815481835581811511613d7257600202816002028360005260206000209182019101613d719190613e1c565b5b505050565b828054600181600116156101000203166002900490600052602060002090601f016020900481019282601f10613db857805160ff1916838001178555613de6565b82800160010185558215613de6579182015b82811115613de5578251825591602001919060010190613dca565b5b509050613df39190613df7565b5090565b613e1991905b80821115613e15576000816000905550600101613dfd565b5090565b90565b613e6791905b80821115613e6357600080820160006101000a81549073ffffffffffffffffffffffffffffffffffffffff0219169055600182016000905550600201613e22565b5090565b905600a165627a7a72305820c0bfd82681c9c2cd0c6ef3a16d8279ddc18064777539c49ef02a347ff86f42b20029",
  "source": "pragma solidity ^0.4.4;\nimport \"./owned.sol\";\nimport \"./Interface.sol\";\n\ncontract ChainLotPool is owned{\n\tuint public poolBlockNumber;\n\n\tuint8 public maxWhiteNumber; //70;\n\tuint8 public maxYellowNumber; //25;\n\tuint public etherPerTicket; //10**18/100;\n\n\tuint public allTicketsCount;\n\tuint public totalTicketCountSum;\n\tuint[] public allTicketsId;\n\n\tuint8 public maxWhiteNumberCount;\n\tuint8 public maxYellowNumberCount;\n\tuint8 public totalNumberCount;\n\t\n\tuint public lastMatchedTicketIndex;\n\tbytes public jackpotNumbers;\n\tbool public preparedAwards;\n\tuint public historyCut;\n\tuint public tokenSum;\n\tuint public stage; //TODO: use stage to store drawing status\n\t\n\tmapping(uint => uint) public awardRulesIndex;\n  \tmapping(uint => winnerTicketQueue) public winnerTickets;\n  \tmapping(uint => winnerTicketQueue) public distributeTickets;\n\tawardRule[] public awardRules;\n  \tChainLotTicketInterface public chainLotTicket;\n  \tCLTokenInterface public clToken;\n  \tChainLotInterface public  chainLot;\n  \n  \tawardData[] private toBeAward;\n  \tuint private awardIndex;\n\n  \tmapping(uint => bool) public withdrawed;\n\n\tstruct awardRule{\n\t\tuint whiteNumberCount;\n\t\tuint yellowNumberCount;\n\t\tuint awardEther;\n\t}\n\n\tstruct awardData {\n\t\taddress user;\n\t\tuint value;\n\t}\n\n  \tstruct winnerTicketQueue {\n    \tuint[] ticketIds;\n    \tuint processedIndex;\n    \tuint distributedIndex;\n  \t}\n\n  \tevent BuyTicket(uint poolBlockNumber, bytes numbers, uint ticketCount, uint ticketId, address user, uint blockNumber, uint totalTicketCountSum, uint value);\n\tevent PrepareAward(bytes jackpotNumbers, uint poolBlockNumber, uint allTicketsCount);\n\tevent ToBeAward(bytes jackpotNumbers, bytes32 ticketNumber, uint ticketCount, uint ticketId, address user, uint blockNumber, uint awardValue);\n\tevent MatchAwards(bytes jackpotNumbers, uint lastMatchedTicketIndex, uint endIndex, uint allTicketsCount);\n\tevent MatchRule(bytes jackpotNumbers, bytes32 ticketNumber, uint ticketCount, uint ticketId, uint blockNumber, uint ruleId, uint ruleEther);\n  \tevent TransferAward(address winner, uint value);\n  \tevent TransferDevCut(address dev, uint value);\n  \tevent TransferHistoryCut(address user, uint value);\n  \tevent AddHistoryCut(uint added, uint total);\n  \tevent CalculateAwards(uint8 ruleId, uint winnersTicketCount, uint awardEther, uint totalWinnersAward, uint totalTicketCount);\n  \tevent SplitAward(uint8 ruleId, uint totalWinnersAward, uint leftBalance);\n  \tevent TransferUnawarded(address from, address to, uint value);\n  \tevent GenRandomNumbers(uint random, uint blockNumber, uint hash, uint addressInt, uint shift, uint timestamp, uint difficulty);\n\n  \tfunction ChainLotPool(uint _poolBlockNumber,\n  \t\t\t\t\t\tuint8 _maxWhiteNumber, \n\t\t\t\t\t\tuint8 _maxYellowNumber, \n\t\t\t\t\t\tuint8 _whiteNumberCount, \n\t\t\t\t\t\tuint8 _yellowNumberCount, \n\t\t\t\t\t\tuint _etherPerTicket, \n\t\t\t\t\t\tuint[] awardRulesArray) public {\n  \t\tpoolBlockNumber = _poolBlockNumber;\n  \t\tmaxWhiteNumber = _maxWhiteNumber;\n\t\tmaxYellowNumber = _maxYellowNumber;\n\t\tmaxWhiteNumberCount = _whiteNumberCount;\n\t\tmaxYellowNumberCount = _yellowNumberCount;\n\t\tetherPerTicket = _etherPerTicket;\n\t\ttotalNumberCount = maxWhiteNumberCount + maxYellowNumberCount;\n\t\t\n\n\t\tfor(uint i=0; i<awardRulesArray.length; i+=3) {\n\t\t\trequire(i+3 <= awardRulesArray.length);\n\t\t\trequire(awardRulesArray[i]>=0 && awardRulesArray[i]<=maxWhiteNumberCount);\n\t\t\trequire(awardRulesArray[i+1]>=0 && awardRulesArray[i+1]<=maxYellowNumberCount);\n\t\t\tawardRules.push(awardRule(awardRulesArray[i],awardRulesArray[i+1],awardRulesArray[i+2]));\n\t\t\tawardRulesIndex[getRuleKey(awardRulesArray[i],awardRulesArray[i+1])] = awardRules.length;\n\t\t}\n\n    \tfor(i=0; i<awardRules.length; i++) {\n      \t\twinnerTickets[i].processedIndex = 0;\n      \t\twinnerTickets[i].distributedIndex = 0;\n    \t}\n    \t\n  \t}\n\n  \tfunction setPool(ChainLotTicketInterface _chainLotTicket,\n\t\t\t\t\t\tCLTokenInterface _clToken,\n\t\t\t\t\t\tChainLotInterface _chainLot) public {\n  \t\tchainLotTicket = _chainLotTicket;\n\t\tclToken = _clToken;\n\t\tchainLot = _chainLot;\n\t\towner = tx.origin;\n  \t}\n\n  \tfunction getRuleKey(uint _whiteNumberCount, uint _yellowNumberCount) internal view returns(uint index){\n\t\treturn _whiteNumberCount*(maxYellowNumberCount+1)+_yellowNumberCount;\n\t}\n\n\t//numbers: uint8[6] \n\t//\t\t\t1-5: <=maxWhiteNumber\n\t//\t\t\t6: <=maxYellowNumber\n\tfunction buyTicket(bytes numbers, address referer) payable public{\n\t\trequire(block.number < poolBlockNumber);\n\t\trequire(address(clToken) != 0);\n\t    uint ticketCount = msg.value/etherPerTicket;\n\t    require(ticketCount > 0);\n\t    clToken.buy.value(msg.value)();\n\t    tokenSum += msg.value;\n\t    _buyTicket(tx.origin, numbers, ticketCount, msg.value);\n\t    if(referer != 0 && tx.origin != referer) {\n\t    \t_buyTicket(referer, numbers, ticketCount, msg.value);\t\n\t    }\n\t}\n\n\tevent LOG(uint msg);\n\n\t//random numbers\n\t//random seed: number-1 block hash x user address\n\tfunction buyRandom(address referer) payable public{\n\t\tbytes memory numbers = genRandomNumbers(block.number - 1, 0);\n\t\tbuyTicket(numbers, referer);\n\t}\n\n\tfunction receiveApproval(address _from, uint _value, address _token, bytes _extraData) public {\n\t\trequire(_token == address(clToken));\n\t\trequire(_extraData.length ==0 || _extraData.length == totalNumberCount);\n\n\t\tuint ticketCount = _value/etherPerTicket;\n\t\trequire(ticketCount > 0);\n\t\tbytes memory numbers;\n\t\tif(_extraData.length == 0) {\n\t\t\tnumbers = genRandomNumbers(block.number - 1, 0);\n\t\t}\n\t\telse {\n\t\t\tnumbers = _extraData;\n\t\t}\t\n\n\t\t\n\t\t_buyTicket(_from, numbers, ticketCount, _value);\n\t}\n\n  \tfunction _buyTicket(address _from, bytes numbers, uint ticketCount, uint _value) internal returns(uint _ticketId){\n\t    require(numbers.length == maxWhiteNumberCount+maxYellowNumberCount);\n\t    for(uint8 i=0; i<maxWhiteNumberCount; i++) {\n\t      require(uint8(numbers[i])>=1 && uint8(numbers[i])<=maxWhiteNumber); \n\t    }     \n\t    for(i=maxWhiteNumberCount; i<numbers.length; i++){\n\t      require(uint8(numbers[i])>=1&&uint8(numbers[i])<=maxYellowNumber);\n\t    }\n\t    \n\t    require(ticketCount > 0);\n\t    uint ticketId = chainLot.mint(_from, numbers, ticketCount);\n\t    allTicketsId.push(ticketId);\n\t    totalTicketCountSum = chainLotTicket.totalTicketCountSum();\n\t    BuyTicket(poolBlockNumber, numbers, ticketCount, ticketId, _from, block.number, totalTicketCountSum, _value);\n\t    return ticketId;\n\t}\n\n\t//calculate jackpot \n\tfunction prepareAwards() onlyOwner external {\n\t\trequire(!preparedAwards);\n\t\trequire(block.number > poolBlockNumber);\n\t\tjackpotNumbers = genRandomNumbers(poolBlockNumber, 8);\n\t\tPrepareAward(jackpotNumbers, poolBlockNumber, allTicketsId.length);\n\t\tpreparedAwards = true;\n\t\t/*uint bytesLength = 32;\n    \tif(bytesLength > jackpotNumbers.length) bytesLength = jackpotNumbers.length;\n    \tfor(uint i=0; i<bytesLength; i++) {\n      \t\tnumbers |= bytes32(jackpotNumbers[i]&0xFF)>>(i*8);\n    \t}*/\n\t}\n\n\t//match winners\n\tfunction matchAwards(uint8 toMatchCount) onlyOwner external {\n\t\trequire(preparedAwards);\n\t\t//require(lastMatchedTicketIndex < allTicketsId.length);\n\t\tbytes memory mJackpotNumbers = jackpotNumbers;\n\t\t//statistic winners\n\t\tuint endIndex = lastMatchedTicketIndex + toMatchCount;\n\t\tif(endIndex > allTicketsId.length) endIndex = allTicketsId.length;\n\n\t\tMatchAwards(mJackpotNumbers, lastMatchedTicketIndex, endIndex, allTicketsId.length);\n\n\t\tfor(uint i = lastMatchedTicketIndex; i < endIndex; i ++) {\n\t\t\tuint ticketId = allTicketsId[i];\n\t\t\taddress mb; uint ma; bytes32 numbers; uint count; uint blockNumber;\n\t        (mb, ma, numbers, count, blockNumber) = chainLotTicket.getTicket(ticketId);\n\t      \t\n\t\t\tuint matchedWhiteCount = 0;\n\t\t\tuint matchedYellowCount = 0;\n\t\t\tfor(uint j = 0; j < maxWhiteNumberCount; j++) {\n\t\t\t\tif(numbers[j] == mJackpotNumbers[j]) {\n\t\t\t\t\tmatchedWhiteCount ++;\n\t\t\t\t}\n\t\t\t}\n\t\t\tfor(j = maxWhiteNumberCount; j < mJackpotNumbers.length; j++) {\n\t\t\t\tif(numbers[j] == mJackpotNumbers[j]) {\n\t\t\t\t\tmatchedYellowCount ++;\n\t\t\t\t}\n\t\t\t}\n\n\t\t\tuint ruleId = awardRulesIndex[getRuleKey(matchedWhiteCount, matchedYellowCount)] - 1;\n\t\t\t\n\t\t\tif(ruleId >= 0 && ruleId < awardRules.length) {\n\t\t        //match one rule!\n\t\t        winnerTickets[ruleId].ticketIds.push(ticketId);\n\t\t        MatchRule(mJackpotNumbers, numbers, count, ticketId, blockNumber, ruleId, awardRules[ruleId].awardEther);\n\t\t\t}\n\t\t\telse {\n\t\t\t\t//MatchRule(jackpotNumbers, allTickets[i].numbers, allTickets[i].count, allTickets[i].user, allTickets[i].blockNumber, ruleId, 0);\n\t\t\t}\n\t\t\t\n\t\t\tlastMatchedTicketIndex = i+1;\n\t\t}\n\t}\n\n\tfunction getAllTicketsCount() external view returns(uint count){\n\t\treturn allTicketsId.length;\n\t}\n\n  \tstruct awardResultByRule {\n  \t\tuint totalWinnersAward;\n  \t\tuint totalTicketCount;\n \t}\n  \tmapping(uint => awardResultByRule) awardResults;\n\n  \tfunction calculateAwards(uint8 ruleId, uint8 toCalcCount) onlyOwner external {\n\t  \trequire(lastMatchedTicketIndex == allTicketsId.length);\n\t  \trequire(block.number >= poolBlockNumber);\n\t  \t//calculate winners award, from top to bottom, top winners takes all\n\t    \n\t      if(winnerTickets[ruleId].ticketIds.length > winnerTickets[ruleId].processedIndex) {\n\t        uint totalWinnersAward = 0;\n\t        uint totalTicketCount = 0;\n\t        uint endIndex = winnerTickets[ruleId].processedIndex + toCalcCount;\n\t        if(endIndex > winnerTickets[ruleId].ticketIds.length) endIndex = winnerTickets[ruleId].ticketIds.length;\n\t        for(uint j=winnerTickets[ruleId].processedIndex;j<endIndex; j++) {\n\t          uint ticketId = winnerTickets[ruleId].ticketIds[j];\n\t          address mb; uint ma; bytes32 numbers; uint count; uint blockNumber;\n\t          (mb, ma, numbers, count, blockNumber) = chainLotTicket.getTicket(ticketId);\n\t          totalWinnersAward += count * awardRules[ruleId].awardEther;\n\t          totalTicketCount += count;\n\t        }\n\n\t        CalculateAwards(ruleId, endIndex, awardRules[ruleId].awardEther, totalWinnersAward, totalTicketCount);\n\n\t        awardResults[ruleId].totalWinnersAward += totalWinnersAward;\n\t        awardResults[ruleId].totalTicketCount += totalTicketCount;\n\t      }\n\t      \n\t      //move pointer\n\t      winnerTickets[ruleId].processedIndex = endIndex;\n\n  \t}\n\n  \tfunction splitAward() onlyOwner external {\n  \t\tuint totalBalance = clToken.balanceOf(this);\n  \t\tfor(uint8 i=0; i<awardRules.length; i++) {\n  \t\t\trequire(winnerTickets[i].processedIndex == winnerTickets[i].ticketIds.length);\n  \t\t\tif(totalBalance >=  awardResults[i].totalWinnersAward) {\n\t          totalBalance -= awardResults[i].totalWinnersAward;\n\t        }\n\t        else {\n\t          awardResults[i].totalWinnersAward = totalBalance;\n\t          totalBalance = 0;\n\t        }\n\t        SplitAward(i, awardResults[i].totalWinnersAward, totalBalance);\n  \t\t}\n\n  \t}\n\n  \tfunction distributeAwards(uint8 ruleId, uint toDistCount) onlyOwner external {\n  \t\t//validate last step\n\t  \t//bytes memory jackpotNumbers = jackpotNumbers;\n\t  \tuint endIndex = winnerTickets[ruleId].distributedIndex + toDistCount;\n\t  \tif(endIndex > winnerTickets[ruleId].ticketIds.length) endIndex = winnerTickets[ruleId].ticketIds.length;\n  \t\tif(awardResults[ruleId].totalTicketCount > 0) {\n  \t\t\tfor(uint j=winnerTickets[ruleId].distributedIndex;j<endIndex; j++){\n\t          uint ticketId = winnerTickets[ruleId].ticketIds[j];\n\t          address mb; uint ma; bytes32 numbers; uint count; uint blockNumber;\n\t          (mb, ma, numbers, count, blockNumber) = chainLotTicket.getTicket(ticketId);\n\t          uint awardValue = count * awardResults[ruleId].totalWinnersAward / awardResults[ruleId].totalTicketCount;\n\t          awardData memory ad = awardData(chainLotTicket.ownerOf(ticketId), awardValue);\n\t          toBeAward.push(ad);\n\t          ToBeAward(jackpotNumbers, numbers, count, ticketId, ad.user, blockNumber, awardValue);\n\t    \t}\n  \t\t}\n\t  \twinnerTickets[ruleId].distributedIndex = endIndex;\n  \t}\n\n  \tfunction sendAwards(uint toAwardCount) onlyOwner external {\n\t\tuint endIndex = awardIndex + toAwardCount;\n\t\tif(endIndex > toBeAward.length) endIndex = toBeAward.length;\n\t\t//TODO: validate last step\n\t  \tuint devCut = 0;\n\t  \tuint _historyCut = 0;\n\t  \tuint hCut = 0;\n\t  \tuint userAward = 0;\n\t  \tfor(uint i=awardIndex; i<endIndex; i++) {\n\t\t\t\tuserAward = toBeAward[i].value * 88/100;\n\t\t\t\t//10% history user cut\n\t\t\t\thCut = toBeAward[i].value/10;\n\t\t\t\t_historyCut += hCut;\n\t\t\t\t//2% dev cut\n\t\t\t\tdevCut += toBeAward[i].value - userAward - hCut;\n\t\t\t\tclToken.transfer(toBeAward[i].user, userAward);\n\t      \t\tTransferAward(toBeAward[i].user, userAward);\n\t\t}\n\t\tif(devCut > 0) {\n\t\t\tclToken.transfer(owner, devCut);\n\t\t\tTransferDevCut(owner, devCut);\n\t\t}\n\t\t\n\t\t//history cut only shared to owner before this pool\n\t\tif(_historyCut > 0) {\n\t\t\thistoryCut += _historyCut;\n\t\t\tAddHistoryCut(_historyCut, historyCut);\n\t\t}\n\t    awardIndex = endIndex;\n\t}\n\n\tfunction withdrawHistoryCut(uint[] ticketIds) external {\n\t\tuint userCut = calculateUserHistoryCut(ticketIds, tx.origin, false);\n\t  \tclToken.transfer(tx.origin, userCut);\n\t\tTransferHistoryCut(tx.origin, userCut);\n\t}\n\n\tfunction listUserHistoryCut(address user, uint[] ticketIds) external returns(uint _historyCut) {\n\t\treturn calculateUserHistoryCut(ticketIds, user, true);\n\t}\n\n\tfunction calculateUserHistoryCut(uint[] ticketIds, address user, bool onlyList) internal returns(uint _cut) {\n\t\tif(totalTicketCountSum == 0)\n\t\t\treturn 0;\n\t\tuint historyTicketCountSum = 0;\n\t  \taddress mb; uint ma; bytes32 numbers; uint count; uint blockNumber;\n\t  \tfor(uint i=0; i<ticketIds.length; i++) {\n\t  \t\t(mb, ma, numbers, count, blockNumber) = chainLotTicket.getTicket(ticketIds[i]);\n\t  \t\tif(withdrawed[ticketIds[i]] == false \n\t  \t\t\t&& blockNumber < poolBlockNumber \n\t  \t\t\t&& chainLotTicket.ownerOf(ticketIds[i]) == user) {\n\t  \t\t\thistoryTicketCountSum += count;\t\n\t  \t\t\tif(!onlyList) {\n\t  \t\t\t\twithdrawed[ticketIds[i]] = true;\n\t  \t\t\t}\n\t  \t\t}\t\t\n\t  \t}\n\t  \t\n\t  \treturn historyTicketCountSum * historyCut / totalTicketCountSum;\n\t}\n\n\tfunction transferUnawarded(address to) onlyOwner external {\n\t\t//require(preparedAwards);\n      \t//require(awardIndex == toBeAward.length);\n      \t//require(lastMatchedTicketIndex == allTicketsId.length);\n\n      \tfor(uint i=0; i<awardRules.length; i++){\n          \t//require(winnerTickets[i].distributedIndex == winnerTickets[i].ticketIds.length);\n      \t}\n      \tuint toBeTransfer = clToken.balanceOf(this) - historyCut;\n      \tif(toBeTransfer > 0) {\n      \t\tclToken.transfer(to, toBeTransfer);\n      \t\tTransferUnawarded(address(this), to, toBeTransfer);\n      \t}\n\t}\n\n\tfunction genRandomNumbers(uint blockNumber, uint shift) public returns(bytes _numbers){\n\t\trequire(blockNumber < block.number);\n\t\tuint hash = uint(block.blockhash(blockNumber));\n\t\tuint addressInt = uint(msg.sender);\n\t\tuint256 random = addressInt * hash;\n\t\trandom = uint256(keccak256(block.timestamp, block.difficulty, hash, addressInt));\n\t\tGenRandomNumbers(random, blockNumber, hash, addressInt, shift, block.timestamp, block.difficulty);\n\t\trequire(random != 0);\n\t\trandom = random >> shift;\n\t\tbytes memory numbers = new bytes(maxWhiteNumberCount+maxYellowNumberCount);\n\t\tfor(uint8 i=0;i<maxWhiteNumberCount;i++) {\n\t\t\tnumbers[i] = byte(random%maxWhiteNumber + 1);\n\t\t\trandom = random >> 8;\n\n\t\t}\n\t\tfor(i=maxWhiteNumberCount;i<numbers.length;i++) {\n\t\t\tnumbers[i] = byte(random%maxYellowNumber + 1);\n\t\t\trandom = random >> 8;\n\n\t\t}\n\t\treturn numbers;\n\t}\n\n}\n",
  "sourcePath": "/Users/phx/eth/chainlot/contracts/ChainLotPool.sol",
  "compiler": {
    "name": "solc",
    "version": "0.4.19+commit.c4cbbb05.Emscripten.clang"
  },
  "schemaVersion": "2.0.0",
  "updatedAt": "2018-06-19T13:59:43.301Z"
}