{
  "contractName": "ChainLotPool",
  "abi": [
    {
      "constant": true,
      "inputs": [],
      "name": "clToken",
      "outputs": [
        {
          "name": "",
          "type": "address"
        }
      ],
      "payable": false,
      "stateMutability": "view",
      "type": "function"
    },
    {
      "constant": true,
      "inputs": [],
      "name": "totalNumberCount",
      "outputs": [
        {
          "name": "",
          "type": "uint8"
        }
      ],
      "payable": false,
      "stateMutability": "view",
      "type": "function"
    },
    {
      "constant": true,
      "inputs": [],
      "name": "maxYellowNumberCount",
      "outputs": [
        {
          "name": "",
          "type": "uint8"
        }
      ],
      "payable": false,
      "stateMutability": "view",
      "type": "function"
    },
    {
      "constant": true,
      "inputs": [],
      "name": "chainLot",
      "outputs": [
        {
          "name": "",
          "type": "address"
        }
      ],
      "payable": false,
      "stateMutability": "view",
      "type": "function"
    },
    {
      "constant": true,
      "inputs": [
        {
          "name": "",
          "type": "uint256"
        }
      ],
      "name": "awardRules",
      "outputs": [
        {
          "name": "whiteNumberCount",
          "type": "uint256"
        },
        {
          "name": "yellowNumberCount",
          "type": "uint256"
        },
        {
          "name": "awardEther",
          "type": "uint256"
        }
      ],
      "payable": false,
      "stateMutability": "view",
      "type": "function"
    },
    {
      "constant": true,
      "inputs": [
        {
          "name": "",
          "type": "uint256"
        }
      ],
      "name": "allTicketsId",
      "outputs": [
        {
          "name": "",
          "type": "uint256"
        }
      ],
      "payable": false,
      "stateMutability": "view",
      "type": "function"
    },
    {
      "constant": true,
      "inputs": [],
      "name": "maxYellowNumber",
      "outputs": [
        {
          "name": "",
          "type": "uint8"
        }
      ],
      "payable": false,
      "stateMutability": "view",
      "type": "function"
    },
    {
      "constant": true,
      "inputs": [],
      "name": "allTicketsCount",
      "outputs": [
        {
          "name": "",
          "type": "uint256"
        }
      ],
      "payable": false,
      "stateMutability": "view",
      "type": "function"
    },
    {
      "constant": true,
      "inputs": [],
      "name": "maxWhiteNumber",
      "outputs": [
        {
          "name": "",
          "type": "uint8"
        }
      ],
      "payable": false,
      "stateMutability": "view",
      "type": "function"
    },
    {
      "constant": true,
      "inputs": [],
      "name": "totalTicketCountSum",
      "outputs": [
        {
          "name": "",
          "type": "uint256"
        }
      ],
      "payable": false,
      "stateMutability": "view",
      "type": "function"
    },
    {
      "constant": true,
      "inputs": [],
      "name": "tokenSum",
      "outputs": [
        {
          "name": "",
          "type": "uint256"
        }
      ],
      "payable": false,
      "stateMutability": "view",
      "type": "function"
    },
    {
      "constant": true,
      "inputs": [],
      "name": "owner",
      "outputs": [
        {
          "name": "",
          "type": "address"
        }
      ],
      "payable": false,
      "stateMutability": "view",
      "type": "function"
    },
    {
      "constant": true,
      "inputs": [],
      "name": "maxWhiteNumberCount",
      "outputs": [
        {
          "name": "",
          "type": "uint8"
        }
      ],
      "payable": false,
      "stateMutability": "view",
      "type": "function"
    },
    {
      "constant": true,
      "inputs": [],
      "name": "poolBlockNumber",
      "outputs": [
        {
          "name": "",
          "type": "uint256"
        }
      ],
      "payable": false,
      "stateMutability": "view",
      "type": "function"
    },
    {
      "constant": true,
      "inputs": [
        {
          "name": "",
          "type": "uint256"
        }
      ],
      "name": "awardRulesIndex",
      "outputs": [
        {
          "name": "",
          "type": "uint256"
        }
      ],
      "payable": false,
      "stateMutability": "view",
      "type": "function"
    },
    {
      "constant": true,
      "inputs": [],
      "name": "etherPerTicket",
      "outputs": [
        {
          "name": "",
          "type": "uint256"
        }
      ],
      "payable": false,
      "stateMutability": "view",
      "type": "function"
    },
    {
      "constant": true,
      "inputs": [],
      "name": "stage",
      "outputs": [
        {
          "name": "",
          "type": "uint8"
        }
      ],
      "payable": false,
      "stateMutability": "view",
      "type": "function"
    },
    {
      "constant": true,
      "inputs": [],
      "name": "historyCut",
      "outputs": [
        {
          "name": "",
          "type": "uint256"
        }
      ],
      "payable": false,
      "stateMutability": "view",
      "type": "function"
    },
    {
      "constant": true,
      "inputs": [
        {
          "name": "",
          "type": "uint256"
        }
      ],
      "name": "winnerTickets",
      "outputs": [
        {
          "name": "processedIndex",
          "type": "uint256"
        },
        {
          "name": "distributedIndex",
          "type": "uint256"
        }
      ],
      "payable": false,
      "stateMutability": "view",
      "type": "function"
    },
    {
      "constant": true,
      "inputs": [],
      "name": "chainLotTicket",
      "outputs": [
        {
          "name": "",
          "type": "address"
        }
      ],
      "payable": false,
      "stateMutability": "view",
      "type": "function"
    },
    {
      "constant": true,
      "inputs": [],
      "name": "lastMatchedTicketIndex",
      "outputs": [
        {
          "name": "",
          "type": "uint256"
        }
      ],
      "payable": false,
      "stateMutability": "view",
      "type": "function"
    },
    {
      "constant": true,
      "inputs": [],
      "name": "jackpotNumbers",
      "outputs": [
        {
          "name": "",
          "type": "bytes"
        }
      ],
      "payable": false,
      "stateMutability": "view",
      "type": "function"
    },
    {
      "constant": false,
      "inputs": [
        {
          "name": "newOwner",
          "type": "address"
        }
      ],
      "name": "transferOwnership",
      "outputs": [],
      "payable": false,
      "stateMutability": "nonpayable",
      "type": "function"
    },
    {
      "constant": true,
      "inputs": [
        {
          "name": "",
          "type": "uint256"
        }
      ],
      "name": "withdrawed",
      "outputs": [
        {
          "name": "",
          "type": "bool"
        }
      ],
      "payable": false,
      "stateMutability": "view",
      "type": "function"
    },
    {
      "constant": true,
      "inputs": [
        {
          "name": "",
          "type": "uint256"
        }
      ],
      "name": "distributeTickets",
      "outputs": [
        {
          "name": "processedIndex",
          "type": "uint256"
        },
        {
          "name": "distributedIndex",
          "type": "uint256"
        }
      ],
      "payable": false,
      "stateMutability": "view",
      "type": "function"
    },
    {
      "inputs": [
        {
          "name": "_poolBlockNumber",
          "type": "uint256"
        },
        {
          "name": "_maxWhiteNumber",
          "type": "uint8"
        },
        {
          "name": "_maxYellowNumber",
          "type": "uint8"
        },
        {
          "name": "_whiteNumberCount",
          "type": "uint8"
        },
        {
          "name": "_yellowNumberCount",
          "type": "uint8"
        },
        {
          "name": "_etherPerTicket",
          "type": "uint256"
        },
        {
          "name": "awardRulesArray",
          "type": "uint256[]"
        }
      ],
      "payable": false,
      "stateMutability": "nonpayable",
      "type": "constructor"
    },
    {
      "anonymous": false,
      "inputs": [
        {
          "indexed": false,
          "name": "poolBlockNumber",
          "type": "uint256"
        },
        {
          "indexed": false,
          "name": "numbers",
          "type": "bytes"
        },
        {
          "indexed": false,
          "name": "ticketCount",
          "type": "uint256"
        },
        {
          "indexed": false,
          "name": "ticketId",
          "type": "uint256"
        },
        {
          "indexed": false,
          "name": "user",
          "type": "address"
        },
        {
          "indexed": false,
          "name": "blockNumber",
          "type": "uint256"
        },
        {
          "indexed": false,
          "name": "totalTicketCountSum",
          "type": "uint256"
        },
        {
          "indexed": false,
          "name": "value",
          "type": "uint256"
        }
      ],
      "name": "BuyTicket",
      "type": "event"
    },
    {
      "anonymous": false,
      "inputs": [
        {
          "indexed": false,
          "name": "jackpotNumbers",
          "type": "bytes"
        },
        {
          "indexed": false,
          "name": "poolBlockNumber",
          "type": "uint256"
        },
        {
          "indexed": false,
          "name": "allTicketsCount",
          "type": "uint256"
        }
      ],
      "name": "PrepareAward",
      "type": "event"
    },
    {
      "anonymous": false,
      "inputs": [
        {
          "indexed": false,
          "name": "jackpotNumbers",
          "type": "bytes"
        },
        {
          "indexed": false,
          "name": "ticketNumber",
          "type": "bytes32"
        },
        {
          "indexed": false,
          "name": "ticketCount",
          "type": "uint256"
        },
        {
          "indexed": false,
          "name": "ticketId",
          "type": "uint256"
        },
        {
          "indexed": false,
          "name": "user",
          "type": "address"
        },
        {
          "indexed": false,
          "name": "blockNumber",
          "type": "uint256"
        },
        {
          "indexed": false,
          "name": "awardValue",
          "type": "uint256"
        }
      ],
      "name": "ToBeAward",
      "type": "event"
    },
    {
      "anonymous": false,
      "inputs": [
        {
          "indexed": false,
          "name": "jackpotNumbers",
          "type": "bytes"
        },
        {
          "indexed": false,
          "name": "lastMatchedTicketIndex",
          "type": "uint256"
        },
        {
          "indexed": false,
          "name": "endIndex",
          "type": "uint256"
        },
        {
          "indexed": false,
          "name": "allTicketsCount",
          "type": "uint256"
        }
      ],
      "name": "MatchAwards",
      "type": "event"
    },
    {
      "anonymous": false,
      "inputs": [
        {
          "indexed": false,
          "name": "jackpotNumbers",
          "type": "bytes"
        },
        {
          "indexed": false,
          "name": "ticketNumber",
          "type": "bytes32"
        },
        {
          "indexed": false,
          "name": "ticketCount",
          "type": "uint256"
        },
        {
          "indexed": false,
          "name": "ticketId",
          "type": "uint256"
        },
        {
          "indexed": false,
          "name": "blockNumber",
          "type": "uint256"
        },
        {
          "indexed": false,
          "name": "ruleId",
          "type": "uint256"
        },
        {
          "indexed": false,
          "name": "ruleEther",
          "type": "uint256"
        }
      ],
      "name": "MatchRule",
      "type": "event"
    },
    {
      "anonymous": false,
      "inputs": [
        {
          "indexed": false,
          "name": "ruleId",
          "type": "uint256"
        },
        {
          "indexed": false,
          "name": "toDistCount",
          "type": "uint256"
        },
        {
          "indexed": false,
          "name": "distributedIndex",
          "type": "uint256"
        },
        {
          "indexed": false,
          "name": "ticketIdsLength",
          "type": "uint256"
        },
        {
          "indexed": false,
          "name": "awardRulesLength",
          "type": "uint256"
        }
      ],
      "name": "DistributeAwards",
      "type": "event"
    },
    {
      "anonymous": false,
      "inputs": [
        {
          "indexed": false,
          "name": "winner",
          "type": "address"
        },
        {
          "indexed": false,
          "name": "value",
          "type": "uint256"
        }
      ],
      "name": "TransferAward",
      "type": "event"
    },
    {
      "anonymous": false,
      "inputs": [
        {
          "indexed": false,
          "name": "dev",
          "type": "address"
        },
        {
          "indexed": false,
          "name": "value",
          "type": "uint256"
        }
      ],
      "name": "TransferDevCut",
      "type": "event"
    },
    {
      "anonymous": false,
      "inputs": [
        {
          "indexed": false,
          "name": "user",
          "type": "address"
        },
        {
          "indexed": false,
          "name": "value",
          "type": "uint256"
        }
      ],
      "name": "TransferHistoryCut",
      "type": "event"
    },
    {
      "anonymous": false,
      "inputs": [
        {
          "indexed": false,
          "name": "added",
          "type": "uint256"
        },
        {
          "indexed": false,
          "name": "total",
          "type": "uint256"
        }
      ],
      "name": "AddHistoryCut",
      "type": "event"
    },
    {
      "anonymous": false,
      "inputs": [
        {
          "indexed": false,
          "name": "ruleId",
          "type": "uint8"
        },
        {
          "indexed": false,
          "name": "winnersTicketCount",
          "type": "uint256"
        },
        {
          "indexed": false,
          "name": "awardEther",
          "type": "uint256"
        },
        {
          "indexed": false,
          "name": "totalWinnersAward",
          "type": "uint256"
        },
        {
          "indexed": false,
          "name": "totalTicketCount",
          "type": "uint256"
        }
      ],
      "name": "CalculateAwards",
      "type": "event"
    },
    {
      "anonymous": false,
      "inputs": [
        {
          "indexed": false,
          "name": "ruleId",
          "type": "uint8"
        },
        {
          "indexed": false,
          "name": "totalWinnersAward",
          "type": "uint256"
        },
        {
          "indexed": false,
          "name": "leftBalance",
          "type": "uint256"
        }
      ],
      "name": "SplitAward",
      "type": "event"
    },
    {
      "anonymous": false,
      "inputs": [
        {
          "indexed": false,
          "name": "from",
          "type": "address"
        },
        {
          "indexed": false,
          "name": "to",
          "type": "address"
        },
        {
          "indexed": false,
          "name": "value",
          "type": "uint256"
        }
      ],
      "name": "TransferUnawarded",
      "type": "event"
    },
    {
      "anonymous": false,
      "inputs": [
        {
          "indexed": false,
          "name": "random",
          "type": "uint256"
        },
        {
          "indexed": false,
          "name": "blockNumber",
          "type": "uint256"
        },
        {
          "indexed": false,
          "name": "hash",
          "type": "uint256"
        },
        {
          "indexed": false,
          "name": "addressInt",
          "type": "uint256"
        },
        {
          "indexed": false,
          "name": "shift",
          "type": "uint256"
        },
        {
          "indexed": false,
          "name": "timestamp",
          "type": "uint256"
        },
        {
          "indexed": false,
          "name": "difficulty",
          "type": "uint256"
        }
      ],
      "name": "GenRandomNumbers",
      "type": "event"
    },
    {
      "anonymous": false,
      "inputs": [
        {
          "indexed": false,
          "name": "msg",
          "type": "uint256"
        }
      ],
      "name": "LOG",
      "type": "event"
    },
    {
      "constant": false,
      "inputs": [
        {
          "name": "_chainLotTicket",
          "type": "address"
        },
        {
          "name": "_clToken",
          "type": "address"
        },
        {
          "name": "_chainLot",
          "type": "address"
        }
      ],
      "name": "setPool",
      "outputs": [],
      "payable": false,
      "stateMutability": "nonpayable",
      "type": "function"
    },
    {
      "constant": false,
      "inputs": [
        {
          "name": "numbers",
          "type": "bytes"
        },
        {
          "name": "referer",
          "type": "address"
        }
      ],
      "name": "buyTicket",
      "outputs": [],
      "payable": true,
      "stateMutability": "payable",
      "type": "function"
    },
    {
      "constant": false,
      "inputs": [
        {
          "name": "referer",
          "type": "address"
        }
      ],
      "name": "buyRandom",
      "outputs": [],
      "payable": true,
      "stateMutability": "payable",
      "type": "function"
    },
    {
      "constant": false,
      "inputs": [
        {
          "name": "_from",
          "type": "address"
        },
        {
          "name": "_value",
          "type": "uint256"
        },
        {
          "name": "_token",
          "type": "address"
        },
        {
          "name": "_extraData",
          "type": "bytes"
        }
      ],
      "name": "receiveApproval",
      "outputs": [],
      "payable": false,
      "stateMutability": "nonpayable",
      "type": "function"
    },
    {
      "constant": false,
      "inputs": [
        {
          "name": "_jackpotNumbers",
          "type": "bytes"
        }
      ],
      "name": "setJackpotNumbers",
      "outputs": [],
      "payable": false,
      "stateMutability": "nonpayable",
      "type": "function"
    },
    {
      "constant": true,
      "inputs": [],
      "name": "getAwardRulesLength",
      "outputs": [
        {
          "name": "length",
          "type": "uint256"
        }
      ],
      "payable": false,
      "stateMutability": "view",
      "type": "function"
    },
    {
      "constant": false,
      "inputs": [
        {
          "name": "ruleId",
          "type": "uint256"
        },
        {
          "name": "ticketId",
          "type": "uint256"
        }
      ],
      "name": "pushWinnerTicket",
      "outputs": [],
      "payable": false,
      "stateMutability": "nonpayable",
      "type": "function"
    },
    {
      "constant": true,
      "inputs": [],
      "name": "getJackpotNumbers",
      "outputs": [
        {
          "name": "numbers",
          "type": "bytes32"
        }
      ],
      "payable": false,
      "stateMutability": "view",
      "type": "function"
    },
    {
      "constant": true,
      "inputs": [
        {
          "name": "ruleId",
          "type": "uint8"
        }
      ],
      "name": "getWinnerTicketCount",
      "outputs": [
        {
          "name": "count",
          "type": "uint256"
        }
      ],
      "payable": false,
      "stateMutability": "view",
      "type": "function"
    },
    {
      "constant": true,
      "inputs": [
        {
          "name": "ruleId",
          "type": "uint8"
        }
      ],
      "name": "getProcessedIndex",
      "outputs": [
        {
          "name": "index",
          "type": "uint256"
        }
      ],
      "payable": false,
      "stateMutability": "view",
      "type": "function"
    },
    {
      "constant": true,
      "inputs": [
        {
          "name": "ruleId",
          "type": "uint8"
        }
      ],
      "name": "getAwardEther",
      "outputs": [
        {
          "name": "_ether",
          "type": "uint256"
        }
      ],
      "payable": false,
      "stateMutability": "view",
      "type": "function"
    },
    {
      "constant": false,
      "inputs": [
        {
          "name": "ruleId",
          "type": "uint8"
        },
        {
          "name": "totalWinnersAward",
          "type": "uint256"
        }
      ],
      "name": "addTotalWinnersAward",
      "outputs": [],
      "payable": false,
      "stateMutability": "nonpayable",
      "type": "function"
    },
    {
      "constant": false,
      "inputs": [
        {
          "name": "ruleId",
          "type": "uint8"
        },
        {
          "name": "totalTicketCount",
          "type": "uint256"
        }
      ],
      "name": "addTotalTicketCount",
      "outputs": [],
      "payable": false,
      "stateMutability": "nonpayable",
      "type": "function"
    },
    {
      "constant": false,
      "inputs": [
        {
          "name": "_stage",
          "type": "uint8"
        }
      ],
      "name": "setStage",
      "outputs": [],
      "payable": false,
      "stateMutability": "nonpayable",
      "type": "function"
    },
    {
      "constant": false,
      "inputs": [
        {
          "name": "ruleId",
          "type": "uint8"
        },
        {
          "name": "index",
          "type": "uint256"
        }
      ],
      "name": "setProcessedIndex",
      "outputs": [],
      "payable": false,
      "stateMutability": "nonpayable",
      "type": "function"
    },
    {
      "constant": false,
      "inputs": [
        {
          "name": "index",
          "type": "uint256"
        }
      ],
      "name": "setLastMatchedTicketIndex",
      "outputs": [],
      "payable": false,
      "stateMutability": "nonpayable",
      "type": "function"
    },
    {
      "constant": false,
      "inputs": [
        {
          "name": "ruleId",
          "type": "uint8"
        },
        {
          "name": "j",
          "type": "uint256"
        }
      ],
      "name": "getWinnerTicket",
      "outputs": [
        {
          "name": "id",
          "type": "uint256"
        }
      ],
      "payable": false,
      "stateMutability": "nonpayable",
      "type": "function"
    },
    {
      "constant": true,
      "inputs": [
        {
          "name": "ruleId",
          "type": "uint8"
        }
      ],
      "name": "getTotalWinnersAward",
      "outputs": [
        {
          "name": "award",
          "type": "uint256"
        }
      ],
      "payable": false,
      "stateMutability": "view",
      "type": "function"
    },
    {
      "constant": false,
      "inputs": [
        {
          "name": "ruleId",
          "type": "uint8"
        },
        {
          "name": "award",
          "type": "uint256"
        }
      ],
      "name": "setTotalWinnersAward",
      "outputs": [],
      "payable": false,
      "stateMutability": "nonpayable",
      "type": "function"
    },
    {
      "constant": false,
      "inputs": [
        {
          "name": "ruleId",
          "type": "uint8"
        },
        {
          "name": "toDistCount",
          "type": "uint256"
        }
      ],
      "name": "distributeAwards",
      "outputs": [],
      "payable": false,
      "stateMutability": "nonpayable",
      "type": "function"
    },
    {
      "constant": false,
      "inputs": [
        {
          "name": "toAwardCount",
          "type": "uint256"
        }
      ],
      "name": "sendAwards",
      "outputs": [],
      "payable": false,
      "stateMutability": "nonpayable",
      "type": "function"
    },
    {
      "constant": false,
      "inputs": [
        {
          "name": "ticketIds",
          "type": "uint256[]"
        }
      ],
      "name": "withdrawHistoryCut",
      "outputs": [],
      "payable": false,
      "stateMutability": "nonpayable",
      "type": "function"
    },
    {
      "constant": false,
      "inputs": [
        {
          "name": "user",
          "type": "address"
        },
        {
          "name": "ticketIds",
          "type": "uint256[]"
        }
      ],
      "name": "listUserHistoryCut",
      "outputs": [
        {
          "name": "_historyCut",
          "type": "uint256"
        }
      ],
      "payable": false,
      "stateMutability": "nonpayable",
      "type": "function"
    },
    {
      "constant": false,
      "inputs": [
        {
          "name": "to",
          "type": "address"
        }
      ],
      "name": "transferUnawarded",
      "outputs": [],
      "payable": false,
      "stateMutability": "nonpayable",
      "type": "function"
    },
    {
      "constant": false,
      "inputs": [
        {
          "name": "blockNumber",
          "type": "uint256"
        },
        {
          "name": "shift",
          "type": "uint256"
        }
      ],
      "name": "genRandomNumbers",
      "outputs": [
        {
          "name": "_numbers",
          "type": "bytes"
        }
      ],
      "payable": false,
      "stateMutability": "nonpayable",
      "type": "function"
    },
    {
      "constant": true,
      "inputs": [],
      "name": "getAllTicketsCount",
      "outputs": [
        {
          "name": "count",
          "type": "uint256"
        }
      ],
      "payable": false,
      "stateMutability": "view",
      "type": "function"
    }
  ],
  "bytecode": "0x60606040526000600c60006101000a81548160ff021916908360078111156200002457fe5b021790555034156200003557600080fd5b604051620041c2380380620041c2833981016040528080519060200190919080519060200190919080519060200190919080519060200190919080519060200190919080519060200190919080518201919050506000336000806101000a81548173ffffffffffffffffffffffffffffffffffffffff021916908373ffffffffffffffffffffffffffffffffffffffff1602179055508760018190555086600260006101000a81548160ff021916908360ff16021790555085600260016101000a81548160ff021916908360ff16021790555084600760006101000a81548160ff021916908360ff16021790555083600760016101000a81548160ff021916908360ff16021790555082600381905550600760019054906101000a900460ff16600760009054906101000a900460ff1601600760026101000a81548160ff021916908360ff160217905550600090505b81518110156200039a5781516003820111151515620001a357600080fd5b60008282815181101515620001b457fe5b9060200190602002015110158015620001f75750600760009054906101000a900460ff1660ff168282815181101515620001ea57fe5b9060200190602002015111155b15156200020357600080fd5b600082600183018151811015156200021757fe5b90602001906020020151101580156200025d5750600760019054906101000a900460ff1660ff1682600183018151811015156200025057fe5b9060200190602002015111155b15156200026957600080fd5b601080548060010182816200027f919062000425565b916000526020600020906003020160006060604051908101604052808686815181101515620002aa57fe5b9060200190602002015181526020018660018701815181101515620002cb57fe5b9060200190602002015181526020018660028701815181101515620002ec57fe5b906020019060200201518152509091909150600082015181600001556020820151816001015560408201518160020155505050601080549050600d60006200037c85858151811015156200033c57fe5b9060200190602002015186600187018151811015156200035857fe5b90602001906020020151620004016401000000000262003cce176401000000009004565b81526020019081526020016000208190555060038101905062000185565b600090505b601080549050811015620003f3576000600e6000838152602001908152602001600020600101819055506000600e60008381526020019081526020016000206002018190555080806001019150506200039f565b505050505050505062000494565b6000816001600760019054906101000a900460ff160160ff16840201905092915050565b81548183558181151162000455576003028160030283600052602060002091820191016200045491906200045a565b5b505050565b6200049191905b808211156200048d57600080820160009055600182016000905560028201600090555060030162000461565b5090565b90565b613d1e80620004a46000396000f300606060405260043610610267576000357c0100000000000000000000000000000000000000000000000000000000900463ffffffff1680630800e5f11461026c5780630850cc4b146102c157806316205520146102ef5780633678c9f41461031e57806337f4a9c4146103c35780633e43be3c146103f257806350b9bc92146104475780635255f1e4146104755780635b328df6146104ba5780635f7d9287146104f15780636541e028146105205780636c933d851461054c5780636ea6c8b214610575578063703a66d2146105e657806370f4c343146106155780637266a23214610644578063758b9ee01461066d5780637855e6ae146106965780637baf3b0e146106d057806382512ef8146106f957806388963771146107285780638da5cb5b146107515780638f4ffcb1146107a65780639a62b39a1461084a5780639c7365e5146108c15780639eb623d7146108f0578063a703cc3d14610919578063aa2aaeca1461093c578063b61bf92a14610973578063b787e6c8146109a2578063b86d7c6c146109dc578063b9f85c5814610a05578063bd6a468714610a34578063c040e6b814610a57578063c3c1b4a314610a8e578063cda886d614610ac8578063ce3cd99714610af1578063d87d8b3d14610b17578063d8d9125514610b46578063df85d49d14610b7f578063dfcab41714610bc2578063e1e3af6914610c00578063e2c3156114610c55578063e302909414610c7e578063e7cfbe9014610d0c578063ec6ce0d114610d3d578063ee5bac8914610d6b578063f2fde38b14610dcc578063f3aa119314610e05578063f58a789814610e40578063ffa3090314610e7e575b600080fd5b341561027757600080fd5b61027f610eb8565b604051808273ffffffffffffffffffffffffffffffffffffffff1673ffffffffffffffffffffffffffffffffffffffff16815260200191505060405180910390f35b6102ed600480803573ffffffffffffffffffffffffffffffffffffffff16906020019091905050610ede565b005b34156102fa57600080fd5b610302610f04565b604051808260ff1660ff16815260200191505060405180910390f35b341561032957600080fd5b6103486004808035906020019091908035906020019091905050610f17565b6040518080602001828103825283818151815260200191508051906020019080838360005b8381101561038857808201518184015260208101905061036d565b50505050905090810190601f1680156103b55780820380516001836020036101000a031916815260200191505b509250505060405180910390f35b34156103ce57600080fd5b6103d66111e6565b604051808260ff1660ff16815260200191505060405180910390f35b34156103fd57600080fd5b6104056111f9565b604051808273ffffffffffffffffffffffffffffffffffffffff1673ffffffffffffffffffffffffffffffffffffffff16815260200191505060405180910390f35b341561045257600080fd5b6104736004808035906020019082018035906020019190919290505061121f565b005b341561048057600080fd5b61049660048080359060200190919050506113a6565b60405180848152602001838152602001828152602001935050505060405180910390f35b34156104c557600080fd5b6104db60048080359060200190919050506113df565b6040518082815260200191505060405180910390f35b34156104fc57600080fd5b610504611403565b604051808260ff1660ff16815260200191505060405180910390f35b341561052b57600080fd5b61054a6004808035906020019091908035906020019091905050611416565b005b341561055757600080fd5b61055f6114b2565b6040518082815260200191505060405180910390f35b6105e4600480803590602001908201803590602001908080601f0160208091040260200160405190810160405280939291908181526020018383808284378201915050505050509190803573ffffffffffffffffffffffffffffffffffffffff169060200190919050506114b8565b005b34156105f157600080fd5b610613600480803560ff16906020019091908035906020019091905050611686565b005b341561062057600080fd5b61062861170c565b604051808260ff1660ff16815260200191505060405180910390f35b341561064f57600080fd5b61065761171f565b6040518082815260200191505060405180910390f35b341561067857600080fd5b610680611725565b6040518082815260200191505060405180910390f35b34156106a157600080fd5b6106ba600480803560ff16906020019091905050611732565b6040518082815260200191505060405180910390f35b34156106db57600080fd5b6106e36117b0565b6040518082815260200191505060405180910390f35b341561070457600080fd5b610726600480803560ff16906020019091908035906020019091905050611818565b005b341561073357600080fd5b61073b611e0e565b6040518082815260200191505060405180910390f35b341561075c57600080fd5b610764611e14565b604051808273ffffffffffffffffffffffffffffffffffffffff1673ffffffffffffffffffffffffffffffffffffffff16815260200191505060405180910390f35b34156107b157600080fd5b610848600480803573ffffffffffffffffffffffffffffffffffffffff1690602001909190803590602001909190803573ffffffffffffffffffffffffffffffffffffffff1690602001909190803590602001908201803590602001908080601f01602080910402602001604051908101604052809392919081815260200183838082843782019150505050505091905050611e39565b005b341561085557600080fd5b6108bf600480803573ffffffffffffffffffffffffffffffffffffffff1690602001909190803573ffffffffffffffffffffffffffffffffffffffff1690602001909190803573ffffffffffffffffffffffffffffffffffffffff16906020019091905050611f23565b005b34156108cc57600080fd5b6108d461202b565b604051808260ff1660ff16815260200191505060405180910390f35b34156108fb57600080fd5b61090361203e565b6040518082815260200191505060405180910390f35b341561092457600080fd5b61093a6004808035906020019091905050612044565b005b341561094757600080fd5b61095d60048080359060200190919050506125a4565b6040518082815260200191505060405180910390f35b341561097e57600080fd5b6109a0600480803560ff169060200190919080359060200190919050506125bc565b005b34156109ad57600080fd5b6109c6600480803560ff16906020019091905050612639565b6040518082815260200191505060405180910390f35b34156109e757600080fd5b6109ef6126c1565b6040518082815260200191505060405180910390f35b3415610a1057600080fd5b610a32600480803560ff169060200190919080359060200190919050506126c7565b005b3415610a3f57600080fd5b610a556004808035906020019091905050612744565b005b3415610a6257600080fd5b610a6a6127a9565b60405180826007811115610a7a57fe5b60ff16815260200191505060405180910390f35b3415610a9957600080fd5b610ab2600480803560ff169060200190919050506127bc565b6040518082815260200191505060405180910390f35b3415610ad357600080fd5b610adb61283a565b6040518082815260200191505060405180910390f35b3415610afc57600080fd5b610b15600480803560ff16906020019091905050612840565b005b3415610b2257600080fd5b610b44600480803560ff169060200190919080359060200190919050506128c1565b005b3415610b5157600080fd5b610b7d600480803573ffffffffffffffffffffffffffffffffffffffff16906020019091905050612947565b005b3415610b8a57600080fd5b610bac600480803560ff16906020019091908035906020019091905050612c67565b6040518082815260200191505060405180910390f35b3415610bcd57600080fd5b610be36004808035906020019091905050612cfe565b604051808381526020018281526020019250505060405180910390f35b3415610c0b57600080fd5b610c13612d22565b604051808273ffffffffffffffffffffffffffffffffffffffff1673ffffffffffffffffffffffffffffffffffffffff16815260200191505060405180910390f35b3415610c6057600080fd5b610c68612d48565b6040518082815260200191505060405180910390f35b3415610c8957600080fd5b610c91612d4e565b6040518080602001828103825283818151815260200191508051906020019080838360005b83811015610cd1578082015181840152602081019050610cb6565b50505050905090810190601f168015610cfe5780820380516001836020036101000a031916815260200191505b509250505060405180910390f35b3415610d1757600080fd5b610d1f612dec565b60405180826000191660001916815260200191505060405180910390f35b3415610d4857600080fd5b610d6960048080359060200190820180359060200191909192905050612fd5565b005b3415610d7657600080fd5b610db6600480803573ffffffffffffffffffffffffffffffffffffffff169060200190919080359060200190820180359060200191909192905050613046565b6040518082815260200191505060405180910390f35b3415610dd757600080fd5b610e03600480803573ffffffffffffffffffffffffffffffffffffffff1690602001909190505061308c565b005b3415610e1057600080fd5b610e26600480803590602001909190505061312a565b604051808215151515815260200191505060405180910390f35b3415610e4b57600080fd5b610e61600480803590602001909190505061314a565b604051808381526020018281526020019250505060405180910390f35b3415610e8957600080fd5b610ea2600480803560ff1690602001909190505061316e565b6040518082815260200191505060405180910390f35b601260009054906101000a900473ffffffffffffffffffffffffffffffffffffffff1681565b610ee6613b39565b610ef4600143036000610f17565b9050610f0081836114b8565b5050565b600760029054906101000a900460ff1681565b610f1f613b39565b6000806000610f2c613b39565b60004388101515610f3c57600080fd5b87406001900494503373ffffffffffffffffffffffffffffffffffffffff1693508484029250424486866040518085815260200184815260200183815260200182815260200194505050505060405180910390206001900492507f2c7df83ce284dc9c63cf5d2312952dd5ccecf8f255192742b2ca327d3e6c6a43838987878b42446040518088815260200187815260200186815260200185815260200184815260200183815260200182815260200197505050505050505060405180910390a16000831415151561100d57600080fd5b86839060020a90049250600760019054906101000a900460ff16600760009054906101000a900460ff160160ff166040518059106110485750595b9080825280601f01601f19166020018201604052509150600090505b600760009054906101000a900460ff1660ff168160ff16101561111d576001600260009054906101000a900460ff1660ff16848115156110a057fe5b06017f010000000000000000000000000000000000000000000000000000000000000002828260ff168151811015156110d557fe5b9060200101907effffffffffffffffffffffffffffffffffffffffffffffffffffffffffffff1916908160001a9053506008839060020a900492508080600101915050611064565b600760009054906101000a900460ff1690505b81518160ff1610156111d8576001600260019054906101000a900460ff1660ff168481151561115b57fe5b06017f010000000000000000000000000000000000000000000000000000000000000002828260ff1681518110151561119057fe5b9060200101907effffffffffffffffffffffffffffffffffffffffffffffffffffffffffffff1916908160001a9053506008839060020a900492508080600101915050611130565b819550505050505092915050565b600760019054906101000a900460ff1681565b601360009054906101000a900473ffffffffffffffffffffffffffffffffffffffff1681565b600061125c8383808060200260200160405190810160405280939291908181526020018383602002808284378201915050505050503260006131ef565b9050601260009054906101000a900473ffffffffffffffffffffffffffffffffffffffff1673ffffffffffffffffffffffffffffffffffffffff1663a9059cbb32836040518363ffffffff167c0100000000000000000000000000000000000000000000000000000000028152600401808373ffffffffffffffffffffffffffffffffffffffff1673ffffffffffffffffffffffffffffffffffffffff16815260200182815260200192505050600060405180830381600087803b151561132257600080fd5b6102c65a03f1151561133357600080fd5b5050507fede4d03c867cd33eef808cb7e94941039fcb41bddb496675b7df85c4f9533bc33282604051808373ffffffffffffffffffffffffffffffffffffffff1673ffffffffffffffffffffffffffffffffffffffff1681526020018281526020019250505060405180910390a1505050565b6010818154811015156113b557fe5b90600052602060002090600302016000915090508060000154908060010154908060020154905083565b6006818154811015156113ee57fe5b90600052602060002090016000915090505481565b600260019054906101000a900460ff1681565b6000809054906101000a900473ffffffffffffffffffffffffffffffffffffffff1673ffffffffffffffffffffffffffffffffffffffff163373ffffffffffffffffffffffffffffffffffffffff1614151561147157600080fd5b600e600083815260200190815260200160002060000180548060010182816114999190613b4d565b9160005260206000209001600083909190915055505050565b60045481565b60008060078111156114c657fe5b600c60009054906101000a900460ff1660078111156114e157fe5b1415156114ed57600080fd5b600154431015156114fd57600080fd5b6000601260009054906101000a900473ffffffffffffffffffffffffffffffffffffffff1673ffffffffffffffffffffffffffffffffffffffff161415151561154557600080fd5b6003543481151561155257fe5b04905060008111151561156457600080fd5b601260009054906101000a900473ffffffffffffffffffffffffffffffffffffffff1673ffffffffffffffffffffffffffffffffffffffff1663a6f2ae3a346040518263ffffffff167c01000000000000000000000000000000000000000000000000000000000281526004016000604051808303818588803b15156115e957600080fd5b6125ee5a03f115156115fa57600080fd5b5050505034600b6000828254019250508190555061161a328483346134f8565b5060008273ffffffffffffffffffffffffffffffffffffffff161415801561166e57508173ffffffffffffffffffffffffffffffffffffffff163273ffffffffffffffffffffffffffffffffffffffff1614155b156116815761167f828483346134f8565b505b505050565b6000809054906101000a900473ffffffffffffffffffffffffffffffffffffffff1673ffffffffffffffffffffffffffffffffffffffff163373ffffffffffffffffffffffffffffffffffffffff161415156116e157600080fd5b80601760008460ff168152602001908152602001600020600001600082825401925050819055505050565b600260009054906101000a900460ff1681565b60055481565b6000600680549050905090565b60008060009054906101000a900473ffffffffffffffffffffffffffffffffffffffff1673ffffffffffffffffffffffffffffffffffffffff163373ffffffffffffffffffffffffffffffffffffffff1614151561178f57600080fd5b600e60008360ff168152602001908152602001600020600101549050919050565b60008060009054906101000a900473ffffffffffffffffffffffffffffffffffffffff1673ffffffffffffffffffffffffffffffffffffffff163373ffffffffffffffffffffffffffffffffffffffff1614151561180d57600080fd5b601080549050905090565b60008060008060008060008060008061182f613b79565b6000809054906101000a900473ffffffffffffffffffffffffffffffffffffffff1673ffffffffffffffffffffffffffffffffffffffff163373ffffffffffffffffffffffffffffffffffffffff1614151561188a57600080fd5b6004600781111561189757fe5b600c60009054906101000a900460ff1660078111156118b257fe5b1415156118be57600080fd5b8b600e60008f60ff16815260200190815260200160002060020154019a50600e60008e60ff168152602001908152602001600020600001805490509950898b111561190757899a505b6000601760008f60ff168152602001908152602001600020600101541115611d3f57600e60008e60ff1681526020019081526020016000206002015498505b8a891015611d3e57600e60008e60ff1681526020019081526020016000206000018981548110151561197457fe5b9060005260206000209001549750601160009054906101000a900473ffffffffffffffffffffffffffffffffffffffff1673ffffffffffffffffffffffffffffffffffffffff16637dc379fa89600060405160a001526040518263ffffffff167c01000000000000000000000000000000000000000000000000000000000281526004018082815260200191505060a060405180830381600087803b1515611a1b57600080fd5b6102c65a03f11515611a2c57600080fd5b505050604051805190602001805190602001805190602001805190602001805190508367ffffffffffffffff169350809750819850829950839a50849b505050505050601760008e60ff16815260200190815260200160002060010154601760008f60ff168152602001908152602001600020600001548502811515611aae57fe5b0491506040805190810160405280601160009054906101000a900473ffffffffffffffffffffffffffffffffffffffff1673ffffffffffffffffffffffffffffffffffffffff16636352211e8b6000604051602001526040518263ffffffff167c010000000000000000000000000000000000000000000000000000000002815260040180828152602001915050602060405180830381600087803b1515611b5557600080fd5b6102c65a03f11515611b6657600080fd5b5050506040518051905073ffffffffffffffffffffffffffffffffffffffff16815260200183815250905060148054806001018281611ba59190613ba9565b9160005260206000209060020201600083909190915060008201518160000160006101000a81548173ffffffffffffffffffffffffffffffffffffffff021916908373ffffffffffffffffffffffffffffffffffffffff160217905550602082015181600101555050507fb01bccb254382e42f8be08efc626846d5e2dcded1f9fdfee72de9902527f5727600986868b85600001518888604051808060200188600019166000191681526020018781526020018681526020018573ffffffffffffffffffffffffffffffffffffffff1673ffffffffffffffffffffffffffffffffffffffff168152602001848152602001838152602001828103825289818154600181600116156101000203166002900481526020019150805460018160011615610100020316600290048015611d1d5780601f10611cf257610100808354040283529160200191611d1d565b820191906000526020600020905b815481529060010190602001808311611d0057829003601f168201915b50509850505050505050505060405180910390a18880600101995050611946565b5b8a600e60008f60ff168152602001908152602001600020600201819055507f2e8424f61cda89b083f4a3c734fe15d3fc283d0b1cc57d3579caf54b8923fc1f8d8d8d8d601080549050604051808660ff1681526020018581526020018481526020018381526020018281526020019550505050505060405180910390a16001601080549050038d60ff16148015611dd55750898b145b15611dff576005600c60006101000a81548160ff02191690836007811115611df957fe5b02179055505b50505050505050505050505050565b600b5481565b6000809054906101000a900473ffffffffffffffffffffffffffffffffffffffff1681565b6000611e43613b39565b601260009054906101000a900473ffffffffffffffffffffffffffffffffffffffff1673ffffffffffffffffffffffffffffffffffffffff168473ffffffffffffffffffffffffffffffffffffffff16141515611e9f57600080fd5b600083511480611ec15750600760029054906101000a900460ff1660ff168351145b1515611ecc57600080fd5b60035485811515611ed957fe5b049150600082111515611eeb57600080fd5b600083511415611f0a57611f03600143036000610f17565b9050611f0e565b8290505b611f1a868284886134f8565b50505050505050565b82601160006101000a81548173ffffffffffffffffffffffffffffffffffffffff021916908373ffffffffffffffffffffffffffffffffffffffff16021790555081601260006101000a81548173ffffffffffffffffffffffffffffffffffffffff021916908373ffffffffffffffffffffffffffffffffffffffff16021790555080601360006101000a81548173ffffffffffffffffffffffffffffffffffffffff021916908373ffffffffffffffffffffffffffffffffffffffff160217905550326000806101000a81548173ffffffffffffffffffffffffffffffffffffffff021916908373ffffffffffffffffffffffffffffffffffffffff160217905550505050565b600760009054906101000a900460ff1681565b60015481565b6000806000806000806000809054906101000a900473ffffffffffffffffffffffffffffffffffffffff1673ffffffffffffffffffffffffffffffffffffffff163373ffffffffffffffffffffffffffffffffffffffff161415156120a857600080fd5b600560078111156120b557fe5b600c60009054906101000a900460ff1660078111156120d057fe5b1415156120dc57600080fd5b866015540195506014805490508611156120f95760148054905095505b6000945060009350600092506000915060155490505b85811015612376576064605860148381548110151561212a57fe5b9060005260206000209060020201600101540281151561214657fe5b049150600a60148281548110151561215a57fe5b90600052602060002090600202016001015481151561217557fe5b0492508284019350828260148381548110151561218e57fe5b906000526020600020906002020160010154030385019450601260009054906101000a900473ffffffffffffffffffffffffffffffffffffffff1673ffffffffffffffffffffffffffffffffffffffff1663a9059cbb6014838154811015156121f357fe5b906000526020600020906002020160000160009054906101000a900473ffffffffffffffffffffffffffffffffffffffff16846040518363ffffffff167c0100000000000000000000000000000000000000000000000000000000028152600401808373ffffffffffffffffffffffffffffffffffffffff1673ffffffffffffffffffffffffffffffffffffffff16815260200182815260200192505050600060405180830381600087803b15156122aa57600080fd5b6102c65a03f115156122bb57600080fd5b5050507f1b6d8b654cd01f384b6ff31c93d6ddd4a913a1dfd77dc76c1b9e4a542deada4e6014828154811015156122ee57fe5b906000526020600020906002020160000160009054906101000a900473ffffffffffffffffffffffffffffffffffffffff1683604051808373ffffffffffffffffffffffffffffffffffffffff1673ffffffffffffffffffffffffffffffffffffffff1681526020018281526020019250505060405180910390a1808060010191505061210f565b600085111561250557601260009054906101000a900473ffffffffffffffffffffffffffffffffffffffff1673ffffffffffffffffffffffffffffffffffffffff1663a9059cbb6000809054906101000a900473ffffffffffffffffffffffffffffffffffffffff16876040518363ffffffff167c0100000000000000000000000000000000000000000000000000000000028152600401808373ffffffffffffffffffffffffffffffffffffffff1673ffffffffffffffffffffffffffffffffffffffff16815260200182815260200192505050600060405180830381600087803b151561246457600080fd5b6102c65a03f1151561247557600080fd5b5050507ffd9fb33b1445303659e522c1835afcc964050ac9820f5022796f9df1e088e8456000809054906101000a900473ffffffffffffffffffffffffffffffffffffffff1686604051808373ffffffffffffffffffffffffffffffffffffffff1673ffffffffffffffffffffffffffffffffffffffff1681526020018281526020019250505060405180910390a15b60008411156125605783600a600082825401925050819055507faad75236bdf067f1567e2c65465b13aad95599b18ead98fa61e35e8fa3ce9fb884600a54604051808381526020018281526020019250505060405180910390a15b85601581905550601480549050601554141561259b576006600c60006101000a81548160ff0219169083600781111561259557fe5b02179055505b50505050505050565b600d6020528060005260406000206000915090505481565b6000809054906101000a900473ffffffffffffffffffffffffffffffffffffffff1673ffffffffffffffffffffffffffffffffffffffff163373ffffffffffffffffffffffffffffffffffffffff1614151561261757600080fd5b80601760008460ff168152602001908152602001600020600001819055505050565b60008060009054906101000a900473ffffffffffffffffffffffffffffffffffffffff1673ffffffffffffffffffffffffffffffffffffffff163373ffffffffffffffffffffffffffffffffffffffff1614151561269657600080fd5b60108260ff168154811015156126a857fe5b9060005260206000209060030201600201549050919050565b60035481565b6000809054906101000a900473ffffffffffffffffffffffffffffffffffffffff1673ffffffffffffffffffffffffffffffffffffffff163373ffffffffffffffffffffffffffffffffffffffff1614151561272257600080fd5b80600e60008460ff168152602001908152602001600020600101819055505050565b6000809054906101000a900473ffffffffffffffffffffffffffffffffffffffff1673ffffffffffffffffffffffffffffffffffffffff163373ffffffffffffffffffffffffffffffffffffffff1614151561279f57600080fd5b8060088190555050565b600c60009054906101000a900460ff1681565b60008060009054906101000a900473ffffffffffffffffffffffffffffffffffffffff1673ffffffffffffffffffffffffffffffffffffffff163373ffffffffffffffffffffffffffffffffffffffff1614151561281957600080fd5b601760008360ff168152602001908152602001600020600001549050919050565b600a5481565b6000809054906101000a900473ffffffffffffffffffffffffffffffffffffffff1673ffffffffffffffffffffffffffffffffffffffff163373ffffffffffffffffffffffffffffffffffffffff1614151561289b57600080fd5b80600c60006101000a81548160ff021916908360078111156128b957fe5b021790555050565b6000809054906101000a900473ffffffffffffffffffffffffffffffffffffffff1673ffffffffffffffffffffffffffffffffffffffff163373ffffffffffffffffffffffffffffffffffffffff1614151561291c57600080fd5b80601760008460ff168152602001908152602001600020600101600082825401925050819055505050565b60008060009054906101000a900473ffffffffffffffffffffffffffffffffffffffff1673ffffffffffffffffffffffffffffffffffffffff163373ffffffffffffffffffffffffffffffffffffffff161415156129a457600080fd5b600660078111156129b157fe5b600c60009054906101000a900460ff1660078111156129cc57fe5b1415156129d857600080fd5b600a54601260009054906101000a900473ffffffffffffffffffffffffffffffffffffffff1673ffffffffffffffffffffffffffffffffffffffff166370a08231306000604051602001526040518263ffffffff167c0100000000000000000000000000000000000000000000000000000000028152600401808273ffffffffffffffffffffffffffffffffffffffff1673ffffffffffffffffffffffffffffffffffffffff168152602001915050602060405180830381600087803b1515612aa057600080fd5b6102c65a03f11515612ab157600080fd5b505050604051805190500390506000811115612c3f57601260009054906101000a900473ffffffffffffffffffffffffffffffffffffffff1673ffffffffffffffffffffffffffffffffffffffff1663a9059cbb83836040518363ffffffff167c0100000000000000000000000000000000000000000000000000000000028152600401808373ffffffffffffffffffffffffffffffffffffffff1673ffffffffffffffffffffffffffffffffffffffff16815260200182815260200192505050600060405180830381600087803b1515612b8b57600080fd5b6102c65a03f11515612b9c57600080fd5b5050507fd3c8e61b3f3589e41778ffcfb76754be14fb22fbdabd8371a332c3b145f0c3e3308383604051808473ffffffffffffffffffffffffffffffffffffffff1673ffffffffffffffffffffffffffffffffffffffff1681526020018373ffffffffffffffffffffffffffffffffffffffff1673ffffffffffffffffffffffffffffffffffffffff168152602001828152602001935050505060405180910390a15b6007600c60006101000a81548160ff02191690836007811115612c5e57fe5b02179055505050565b60008060009054906101000a900473ffffffffffffffffffffffffffffffffffffffff1673ffffffffffffffffffffffffffffffffffffffff163373ffffffffffffffffffffffffffffffffffffffff16141515612cc457600080fd5b600e60008460ff16815260200190815260200160002060000182815481101515612cea57fe5b906000526020600020900154905092915050565b600e6020528060005260406000206000915090508060010154908060020154905082565b601160009054906101000a900473ffffffffffffffffffffffffffffffffffffffff1681565b60085481565b60098054600181600116156101000203166002900480601f016020809104026020016040519081016040528092919081815260200182805460018160011615610100020316600290048015612de45780601f10612db957610100808354040283529160200191612de4565b820191906000526020600020905b815481529060010190602001808311612dc757829003601f168201915b505050505081565b6000612df6613b39565b6000806000809054906101000a900473ffffffffffffffffffffffffffffffffffffffff1673ffffffffffffffffffffffffffffffffffffffff163373ffffffffffffffffffffffffffffffffffffffff16141515612e5457600080fd5b60098054600181600116156101000203166002900480601f016020809104026020016040519081016040528092919081815260200182805460018160011615610100020316600290048015612eea5780601f10612ebf57610100808354040283529160200191612eea565b820191906000526020600020905b815481529060010190602001808311612ecd57829003601f168201915b50505050509250602091508251821115612f0357825191505b600090505b81811015612fcf576008810260ff7f0100000000000000000000000000000000000000000000000000000000000000028483815181101515612f4657fe5b9060200101517f010000000000000000000000000000000000000000000000000000000000000090047f010000000000000000000000000000000000000000000000000000000000000002167effffffffffffffffffffffffffffffffffffffffffffffffffffffffffffff1916600019169060020a9004841793508080600101915050612f08565b50505090565b6000809054906101000a900473ffffffffffffffffffffffffffffffffffffffff1673ffffffffffffffffffffffffffffffffffffffff163373ffffffffffffffffffffffffffffffffffffffff1614151561303057600080fd5b818160099190613041929190613bdb565b505050565b60006130838383808060200260200160405190810160405280939291908181526020018383602002808284378201915050505050508560016131ef565b90509392505050565b6000809054906101000a900473ffffffffffffffffffffffffffffffffffffffff1673ffffffffffffffffffffffffffffffffffffffff163373ffffffffffffffffffffffffffffffffffffffff161415156130e757600080fd5b806000806101000a81548173ffffffffffffffffffffffffffffffffffffffff021916908373ffffffffffffffffffffffffffffffffffffffff16021790555050565b60166020528060005260406000206000915054906101000a900460ff1681565b600f6020528060005260406000206000915090508060010154908060020154905082565b60008060009054906101000a900473ffffffffffffffffffffffffffffffffffffffff1673ffffffffffffffffffffffffffffffffffffffff163373ffffffffffffffffffffffffffffffffffffffff161415156131cb57600080fd5b600e60008360ff168152602001908152602001600020600001805490509050919050565b6000806000806000806000806000600554141561320f57600097506134ea565b60009650600090505b8a518110156134d557601160009054906101000a900473ffffffffffffffffffffffffffffffffffffffff1673ffffffffffffffffffffffffffffffffffffffff16637dc379fa8c8381518110151561326d57fe5b90602001906020020151600060405160a001526040518263ffffffff167c01000000000000000000000000000000000000000000000000000000000281526004018082815260200191505060a060405180830381600087803b15156132d157600080fd5b6102c65a03f115156132e257600080fd5b505050604051805190602001805190602001805190602001805190602001805190508367ffffffffffffffff169350809650819750829850839950849a50505050505060001515601660008d8481518110151561333b57fe5b90602001906020020151815260200190815260200160002060009054906101000a900460ff161515148015613371575060015482105b801561347257508973ffffffffffffffffffffffffffffffffffffffff16601160009054906101000a900473ffffffffffffffffffffffffffffffffffffffff1673ffffffffffffffffffffffffffffffffffffffff16636352211e8d848151811015156133db57fe5b906020019060200201516000604051602001526040518263ffffffff167c010000000000000000000000000000000000000000000000000000000002815260040180828152602001915050602060405180830381600087803b151561343f57600080fd5b6102c65a03f1151561345057600080fd5b5050506040518051905073ffffffffffffffffffffffffffffffffffffffff16145b156134c85782870196508815156134c7576001601660008d8481518110151561349757fe5b90602001906020020151815260200190815260200160002060006101000a81548160ff0219169083151502179055505b5b8080600101915050613218565b600554600a5488028115156134e657fe5b0497505b505050505050509392505050565b6000806000600760019054906101000a900460ff16600760009054906101000a900460ff160160ff16865114151561352f57600080fd5b600091505b600760009054906101000a900460ff1660ff168260ff16101561368e576001868360ff1681518110151561356457fe5b9060200101517f010000000000000000000000000000000000000000000000000000000000000090047f0100000000000000000000000000000000000000000000000000000000000000027f0100000000000000000000000000000000000000000000000000000000000000900460ff16101580156136765750600260009054906101000a900460ff1660ff16868360ff1681518110151561360257fe5b9060200101517f010000000000000000000000000000000000000000000000000000000000000090047f0100000000000000000000000000000000000000000000000000000000000000027f0100000000000000000000000000000000000000000000000000000000000000900460ff1611155b151561368157600080fd5b8180600101925050613534565b600760009054906101000a900460ff1691505b85518260ff1610156137ea576001868360ff168151811015156136c057fe5b9060200101517f010000000000000000000000000000000000000000000000000000000000000090047f0100000000000000000000000000000000000000000000000000000000000000027f0100000000000000000000000000000000000000000000000000000000000000900460ff16101580156137d25750600260019054906101000a900460ff1660ff16868360ff1681518110151561375e57fe5b9060200101517f010000000000000000000000000000000000000000000000000000000000000090047f0100000000000000000000000000000000000000000000000000000000000000027f0100000000000000000000000000000000000000000000000000000000000000900460ff1611155b15156137dd57600080fd5b81806001019250506136a1565b6000851115156137f957600080fd5b601360009054906101000a900473ffffffffffffffffffffffffffffffffffffffff1673ffffffffffffffffffffffffffffffffffffffff1663775ed63d8888886000604051602001526040518463ffffffff167c0100000000000000000000000000000000000000000000000000000000028152600401808473ffffffffffffffffffffffffffffffffffffffff1673ffffffffffffffffffffffffffffffffffffffff16815260200180602001838152602001828103825284818151815260200191508051906020019080838360005b838110156138e65780820151818401526020810190506138cb565b50505050905090810190601f1680156139135780820380516001836020036101000a031916815260200191505b50945050505050602060405180830381600087803b151561393357600080fd5b6102c65a03f1151561394457600080fd5b505050604051805190509050600680548060010182816139649190613b4d565b916000526020600020900160008390919091505550601160009054906101000a900473ffffffffffffffffffffffffffffffffffffffff1673ffffffffffffffffffffffffffffffffffffffff16637266a2326000604051602001526040518163ffffffff167c0100000000000000000000000000000000000000000000000000000000028152600401602060405180830381600087803b1515613a0757600080fd5b6102c65a03f11515613a1857600080fd5b505050604051805190506005819055507f5668ef0a105003526dc9fcca87fdecfef80b94dc11daaab96ac3b953b3484ff86001548787848b436005548b60405180898152602001806020018881526020018781526020018673ffffffffffffffffffffffffffffffffffffffff1673ffffffffffffffffffffffffffffffffffffffff168152602001858152602001848152602001838152602001828103825289818151815260200191508051906020019080838360005b83811015613aeb578082015181840152602081019050613ad0565b50505050905090810190601f168015613b185780820380516001836020036101000a031916815260200191505b50995050505050505050505060405180910390a18092505050949350505050565b602060405190810160405280600081525090565b815481835581811511613b7457818360005260206000209182019101613b739190613c5b565b5b505050565b6040805190810160405280600073ffffffffffffffffffffffffffffffffffffffff168152602001600081525090565b815481835581811511613bd657600202816002028360005260206000209182019101613bd59190613c80565b5b505050565b828054600181600116156101000203166002900490600052602060002090601f016020900481019282601f10613c1c57803560ff1916838001178555613c4a565b82800160010185558215613c4a579182015b82811115613c49578235825591602001919060010190613c2e565b5b509050613c579190613c5b565b5090565b613c7d91905b80821115613c79576000816000905550600101613c61565b5090565b90565b613ccb91905b80821115613cc757600080820160006101000a81549073ffffffffffffffffffffffffffffffffffffffff0219169055600182016000905550600201613c86565b5090565b90565b6000816001600760019054906101000a900460ff160160ff168402019050929150505600a165627a7a72305820ee6dc4f3763c26c54a5166a26310db2147eb5a09204b8c56e7a4961d245eff650029",
  "source": "pragma solidity ^0.4.4;\nimport \"./owned.sol\";\nimport \"./Interface.sol\";\n\ncontract ChainLotPool is owned{\n\tuint public poolBlockNumber;\n\n\tuint8 public maxWhiteNumber; //70;\n\tuint8 public maxYellowNumber; //25;\n\tuint public etherPerTicket; //10**18/100;\n\n\tuint public allTicketsCount;\n\tuint public totalTicketCountSum;\n\tuint[] public allTicketsId;\n\n\tuint8 public maxWhiteNumberCount;\n\tuint8 public maxYellowNumberCount;\n\tuint8 public totalNumberCount;\n\t\n\tuint public lastMatchedTicketIndex;\n\tbytes public jackpotNumbers;\n\tuint public historyCut;\n\tuint public tokenSum;\n\n\tenum DrawingStage {INITIED, PREPARED, MATCHED, CALCULATED, SPLITED, DISTRIBUTED, SENT, UNAWARED_TRANSFERED}\n\tDrawingStage public stage = DrawingStage.INITIED; \n\n\n\tmapping(uint => uint) public awardRulesIndex;\n  \tmapping(uint => winnerTicketQueue) public winnerTickets;\n  \tmapping(uint => winnerTicketQueue) public distributeTickets;\n\tawardRule[] public awardRules;\n  \tChainLotTicketInterface public chainLotTicket;\n  \tCLTokenInterface public clToken;\n  \tChainLotInterface public  chainLot;\n  \n  \tawardData[] private toBeAward;\n  \tuint private awardIndex;\n\n  \tmapping(uint => bool) public withdrawed;\n\n\tstruct awardRule{\n\t\tuint whiteNumberCount;\n\t\tuint yellowNumberCount;\n\t\tuint awardEther;\n\t}\n\n\tstruct awardData {\n\t\taddress user;\n\t\tuint value;\n\t}\n\n  \tstruct winnerTicketQueue {\n    \tuint[] ticketIds;\n    \tuint processedIndex;\n    \tuint distributedIndex;\n  \t}\n\n  \tstruct awardResultByRule {\n  \t\tuint totalWinnersAward;\n  \t\tuint totalTicketCount;\n \t}\n  \tmapping(uint => awardResultByRule) awardResults;\n\n  \t\n\n  \tevent BuyTicket(uint poolBlockNumber, bytes numbers, uint ticketCount, uint ticketId, address user, uint blockNumber, uint totalTicketCountSum, uint value);\n\tevent PrepareAward(bytes jackpotNumbers, uint poolBlockNumber, uint allTicketsCount);\n\tevent ToBeAward(bytes jackpotNumbers, bytes32 ticketNumber, uint ticketCount, uint ticketId, address user, uint blockNumber, uint awardValue);\n\tevent MatchAwards(bytes jackpotNumbers, uint lastMatchedTicketIndex, uint endIndex, uint allTicketsCount);\n\tevent MatchRule(bytes jackpotNumbers, bytes32 ticketNumber, uint ticketCount, uint ticketId, uint blockNumber, uint ruleId, uint ruleEther);\n\tevent DistributeAwards(uint ruleId, uint toDistCount, uint distributedIndex, uint ticketIdsLength, uint awardRulesLength);\n  \tevent TransferAward(address winner, uint value);\n  \tevent TransferDevCut(address dev, uint value);\n  \tevent TransferHistoryCut(address user, uint value);\n  \tevent AddHistoryCut(uint added, uint total);\n  \tevent CalculateAwards(uint8 ruleId, uint winnersTicketCount, uint awardEther, uint totalWinnersAward, uint totalTicketCount);\n  \tevent SplitAward(uint8 ruleId, uint totalWinnersAward, uint leftBalance);\n  \tevent TransferUnawarded(address from, address to, uint value);\n  \tevent GenRandomNumbers(uint random, uint blockNumber, uint hash, uint addressInt, uint shift, uint timestamp, uint difficulty);\n\n  \tfunction ChainLotPool(uint _poolBlockNumber,\n  \t\t\t\t\t\tuint8 _maxWhiteNumber, \n\t\t\t\t\t\tuint8 _maxYellowNumber, \n\t\t\t\t\t\tuint8 _whiteNumberCount, \n\t\t\t\t\t\tuint8 _yellowNumberCount, \n\t\t\t\t\t\tuint _etherPerTicket, \n\t\t\t\t\t\tuint[] awardRulesArray) public {\n  \t\tpoolBlockNumber = _poolBlockNumber;\n  \t\tmaxWhiteNumber = _maxWhiteNumber;\n\t\tmaxYellowNumber = _maxYellowNumber;\n\t\tmaxWhiteNumberCount = _whiteNumberCount;\n\t\tmaxYellowNumberCount = _yellowNumberCount;\n\t\tetherPerTicket = _etherPerTicket;\n\t\ttotalNumberCount = maxWhiteNumberCount + maxYellowNumberCount;\n\t\t\n\n\t\tfor(uint i=0; i<awardRulesArray.length; i+=3) {\n\t\t\trequire(i+3 <= awardRulesArray.length);\n\t\t\trequire(awardRulesArray[i]>=0 && awardRulesArray[i]<=maxWhiteNumberCount);\n\t\t\trequire(awardRulesArray[i+1]>=0 && awardRulesArray[i+1]<=maxYellowNumberCount);\n\t\t\tawardRules.push(awardRule(awardRulesArray[i],awardRulesArray[i+1],awardRulesArray[i+2]));\n\t\t\tawardRulesIndex[getRuleKey(awardRulesArray[i],awardRulesArray[i+1])] = awardRules.length;\n\t\t}\n\n    \tfor(i=0; i<awardRules.length; i++) {\n      \t\twinnerTickets[i].processedIndex = 0;\n      \t\twinnerTickets[i].distributedIndex = 0;\n    \t}\n    \t\n  \t}\n\n  \tfunction setPool(ChainLotTicketInterface _chainLotTicket,\n\t\t\t\t\t\tCLTokenInterface _clToken,\n\t\t\t\t\t\tChainLotInterface _chainLot) public {\n  \t\tchainLotTicket = _chainLotTicket;\n\t\tclToken = _clToken;\n\t\tchainLot = _chainLot;\n\t\towner = tx.origin;\n  \t}\n\n  \tfunction getRuleKey(uint _whiteNumberCount, uint _yellowNumberCount) internal view returns(uint index){\n\t\treturn _whiteNumberCount*(maxYellowNumberCount+1)+_yellowNumberCount;\n\t}\n\n\t//numbers: uint8[6] \n\t//\t\t\t1-5: <=maxWhiteNumber\n\t//\t\t\t6: <=maxYellowNumber\n\tfunction buyTicket(bytes numbers, address referer) payable public{\n\t\trequire(stage == DrawingStage.INITIED);\n\t\trequire(block.number < poolBlockNumber);\n\t\trequire(address(clToken) != 0);\n\t    uint ticketCount = msg.value/etherPerTicket;\n\t    require(ticketCount > 0);\n\t    clToken.buy.value(msg.value)();\n\t    tokenSum += msg.value;\n\t    _buyTicket(tx.origin, numbers, ticketCount, msg.value);\n\t    if(referer != 0 && tx.origin != referer) {\n\t    \t_buyTicket(referer, numbers, ticketCount, msg.value);\t\n\t    }\n\t}\n\n\tevent LOG(uint msg);\n\n\t//random numbers\n\t//random seed: number-1 block hash x user address\n\tfunction buyRandom(address referer) payable public{\n\t\tbytes memory numbers = genRandomNumbers(block.number - 1, 0);\n\t\tbuyTicket(numbers, referer);\n\t}\n\n\tfunction receiveApproval(address _from, uint _value, address _token, bytes _extraData) public {\n\t\trequire(_token == address(clToken));\n\t\trequire(_extraData.length ==0 || _extraData.length == totalNumberCount);\n\n\t\tuint ticketCount = _value/etherPerTicket;\n\t\trequire(ticketCount > 0);\n\t\tbytes memory numbers;\n\t\tif(_extraData.length == 0) {\n\t\t\tnumbers = genRandomNumbers(block.number - 1, 0);\n\t\t}\n\t\telse {\n\t\t\tnumbers = _extraData;\n\t\t}\t\n\n\t\t\n\t\t_buyTicket(_from, numbers, ticketCount, _value);\n\t}\n\n  \tfunction _buyTicket(address _from, bytes numbers, uint ticketCount, uint _value) internal returns(uint _ticketId){\n\t    require(numbers.length == maxWhiteNumberCount+maxYellowNumberCount);\n\t    for(uint8 i=0; i<maxWhiteNumberCount; i++) {\n\t      require(uint8(numbers[i])>=1 && uint8(numbers[i])<=maxWhiteNumber); \n\t    }     \n\t    for(i=maxWhiteNumberCount; i<numbers.length; i++){\n\t      require(uint8(numbers[i])>=1&&uint8(numbers[i])<=maxYellowNumber);\n\t    }\n\t    \n\t    require(ticketCount > 0);\n\t    uint ticketId = chainLot.mint(_from, numbers, ticketCount);\n\t    allTicketsId.push(ticketId);\n\t    totalTicketCountSum = chainLotTicket.totalTicketCountSum();\n\t    BuyTicket(poolBlockNumber, numbers, ticketCount, ticketId, _from, block.number, totalTicketCountSum, _value);\n\t    return ticketId;\n\t}\n\n\t//callback from utils\n\tfunction setJackpotNumbers(bytes _jackpotNumbers) onlyOwner external {\n\t\tjackpotNumbers = _jackpotNumbers;\n\t}\n\n\tfunction getAwardRulesLength() onlyOwner external view returns(uint length) {\n\t\treturn awardRules.length;\n\t}\n\n\tfunction pushWinnerTicket(uint ruleId, uint ticketId) onlyOwner external {\n\t\twinnerTickets[ruleId].ticketIds.push(ticketId);\n\t}\n\n\tfunction getJackpotNumbers() onlyOwner external view returns (bytes32 numbers) {\n\t\tbytes memory mJackpotNumbers = jackpotNumbers;\n\t\tuint bytesLength = 32;\n    \tif(bytesLength > mJackpotNumbers.length) bytesLength = mJackpotNumbers.length;\n    \tfor(uint i=0; i<bytesLength; i++) {\n      \t\tnumbers |= bytes32(mJackpotNumbers[i]&0xFF)>>(i*8);\n    \t}\n\t}\n\n\tfunction getWinnerTicketCount(uint8 ruleId) onlyOwner external view returns(uint count) {\n\t\tcount = winnerTickets[ruleId].ticketIds.length;\n\t}\n\n\tfunction getProcessedIndex(uint8 ruleId) onlyOwner external view returns(uint index) {\n\t\tindex = winnerTickets[ruleId].processedIndex;\n\t}\n\n\tfunction getAwardEther(uint8 ruleId) onlyOwner external view returns(uint _ether) {\n\t\t_ether = awardRules[ruleId].awardEther;\n\t}\n\n\tfunction addTotalWinnersAward(uint8 ruleId, uint totalWinnersAward) onlyOwner external {\n\t\t awardResults[ruleId].totalWinnersAward += totalWinnersAward;\n\t}\n\n\tfunction addTotalTicketCount(uint8 ruleId, uint totalTicketCount) onlyOwner external {\n\t\t awardResults[ruleId].totalTicketCount += totalTicketCount;\n\t}\n\n\tfunction setStage(DrawingStage _stage) onlyOwner external {\n\t\tstage = _stage;\n\t}\n\n\tfunction setProcessedIndex(uint8 ruleId, uint index) onlyOwner external {\n\t\twinnerTickets[ruleId].processedIndex = index;\n\t}\n\n\tfunction setLastMatchedTicketIndex(uint index) onlyOwner external {\n\t\tlastMatchedTicketIndex = index;\n\t}\n\n\tfunction getWinnerTicket(uint8 ruleId, uint j) onlyOwner external returns(uint id) {\n\t\tid = winnerTickets[ruleId].ticketIds[j];\n\t}\n\n\tfunction getTotalWinnersAward(uint8 ruleId) onlyOwner external view returns(uint award) {\n\t\taward = awardResults[ruleId].totalWinnersAward;\n\t}\n\n\tfunction setTotalWinnersAward(uint8 ruleId, uint award) external onlyOwner {\n\t\tawardResults[ruleId].totalWinnersAward = award;\n\t}\n\n\n  \tfunction distributeAwards(uint8 ruleId, uint toDistCount) onlyOwner external {\n  \t\trequire(stage == DrawingStage.SPLITED);\n  \t\t//validate last step\n\t  \t//bytes memory jackpotNumbers = jackpotNumbers;\n\t  \tuint endIndex = winnerTickets[ruleId].distributedIndex + toDistCount;\n\t  \tuint ticketIdsLength = winnerTickets[ruleId].ticketIds.length;\n\t  \tif(endIndex > ticketIdsLength) endIndex = ticketIdsLength;\n  \t\tif(awardResults[ruleId].totalTicketCount > 0) {\n  \t\t\tfor(uint j=winnerTickets[ruleId].distributedIndex;j<endIndex; j++){\n\t          uint ticketId = winnerTickets[ruleId].ticketIds[j];\n\t          address mb; uint ma; bytes32 numbers; uint count; uint blockNumber;\n\t          (mb, ma, numbers, count, blockNumber) = chainLotTicket.getTicket(ticketId);\n\t          uint awardValue = count * awardResults[ruleId].totalWinnersAward / awardResults[ruleId].totalTicketCount;\n\t          awardData memory ad = awardData(chainLotTicket.ownerOf(ticketId), awardValue);\n\t          toBeAward.push(ad);\n\t          ToBeAward(jackpotNumbers, numbers, count, ticketId, ad.user, blockNumber, awardValue);\n\t    \t}\n  \t\t}\n\t  \twinnerTickets[ruleId].distributedIndex = endIndex;\n\n\t  \tDistributeAwards(ruleId, toDistCount, endIndex, ticketIdsLength, awardRules.length);\n\n\t  \tif(ruleId == awardRules.length -1 && endIndex == ticketIdsLength) {\n\t  \t\tstage = DrawingStage.DISTRIBUTED;\n\t  \t}\n  \t}\n\n  \tfunction sendAwards(uint toAwardCount) onlyOwner external {\n  \t\trequire(stage == DrawingStage.DISTRIBUTED);\n\n\t\tuint endIndex = awardIndex + toAwardCount;\n\t\tif(endIndex > toBeAward.length) endIndex = toBeAward.length;\n\t\t\n\t  \tuint devCut = 0;\n\t  \tuint _historyCut = 0;\n\t  \tuint hCut = 0;\n\t  \tuint userAward = 0;\n\t  \tfor(uint i=awardIndex; i<endIndex; i++) {\n\t\t\t\tuserAward = toBeAward[i].value * 88/100;\n\t\t\t\t//10% history user cut\n\t\t\t\thCut = toBeAward[i].value/10;\n\t\t\t\t_historyCut += hCut;\n\t\t\t\t//2% dev cut\n\t\t\t\tdevCut += toBeAward[i].value - userAward - hCut;\n\t\t\t\tclToken.transfer(toBeAward[i].user, userAward);\n\t      \t\tTransferAward(toBeAward[i].user, userAward);\n\t\t}\n\t\tif(devCut > 0) {\n\t\t\tclToken.transfer(owner, devCut);\n\t\t\tTransferDevCut(owner, devCut);\n\t\t}\n\t\t\n\t\t//history cut only shared to owner before this pool\n\t\tif(_historyCut > 0) {\n\t\t\thistoryCut += _historyCut;\n\t\t\tAddHistoryCut(_historyCut, historyCut);\n\t\t}\n\t    awardIndex = endIndex;\n\t    if(awardIndex == toBeAward.length) {\n\t    \tstage = DrawingStage.SENT;\n\t    }\n\t}\n\n\tfunction withdrawHistoryCut(uint[] ticketIds) external {\n\t\tuint userCut = calculateUserHistoryCut(ticketIds, tx.origin, false);\n\t  \tclToken.transfer(tx.origin, userCut);\n\t\tTransferHistoryCut(tx.origin, userCut);\n\t}\n\n\tfunction listUserHistoryCut(address user, uint[] ticketIds) external returns(uint _historyCut) {\n\t\treturn calculateUserHistoryCut(ticketIds, user, true);\n\t}\n\n\tfunction calculateUserHistoryCut(uint[] ticketIds, address user, bool onlyList) internal returns(uint _cut) {\n\t\tif(totalTicketCountSum == 0)\n\t\t\treturn 0;\n\t\tuint historyTicketCountSum = 0;\n\t  \taddress mb; uint ma; bytes32 numbers; uint count; uint blockNumber;\n\t  \tfor(uint i=0; i<ticketIds.length; i++) {\n\t  \t\t(mb, ma, numbers, count, blockNumber) = chainLotTicket.getTicket(ticketIds[i]);\n\t  \t\tif(withdrawed[ticketIds[i]] == false \n\t  \t\t\t&& blockNumber < poolBlockNumber \n\t  \t\t\t&& chainLotTicket.ownerOf(ticketIds[i]) == user) {\n\t  \t\t\thistoryTicketCountSum += count;\t\n\t  \t\t\tif(!onlyList) {\n\t  \t\t\t\twithdrawed[ticketIds[i]] = true;\n\t  \t\t\t}\n\t  \t\t}\t\t\n\t  \t}\n\t  \t\n\t  \treturn historyTicketCountSum * historyCut / totalTicketCountSum;\n\t}\n\n\tfunction transferUnawarded(address to) onlyOwner external {\n\t\trequire(stage == DrawingStage.SENT);\n\n      \tuint toBeTransfer = clToken.balanceOf(this) - historyCut;\n      \tif(toBeTransfer > 0) {\n      \t\tclToken.transfer(to, toBeTransfer);\n      \t\tTransferUnawarded(address(this), to, toBeTransfer);\n      \t}\n\n      \tstage = DrawingStage.UNAWARED_TRANSFERED;\n\t}\n\n\tfunction genRandomNumbers(uint blockNumber, uint shift) public returns(bytes _numbers){\n\t\trequire(blockNumber < block.number);\n\t\tuint hash = uint(block.blockhash(blockNumber));\n\t\tuint addressInt = uint(msg.sender);\n\t\tuint256 random = addressInt * hash;\n\t\trandom = uint256(keccak256(block.timestamp, block.difficulty, hash, addressInt));\n\t\tGenRandomNumbers(random, blockNumber, hash, addressInt, shift, block.timestamp, block.difficulty);\n\t\trequire(random != 0);\n\t\trandom = random >> shift;\n\t\tbytes memory numbers = new bytes(maxWhiteNumberCount+maxYellowNumberCount);\n\t\tfor(uint8 i=0;i<maxWhiteNumberCount;i++) {\n\t\t\tnumbers[i] = byte(random%maxWhiteNumber + 1);\n\t\t\trandom = random >> 8;\n\n\t\t}\n\t\tfor(i=maxWhiteNumberCount;i<numbers.length;i++) {\n\t\t\tnumbers[i] = byte(random%maxYellowNumber + 1);\n\t\t\trandom = random >> 8;\n\n\t\t}\n\t\treturn numbers;\n\t}\n\n\tfunction getAllTicketsCount() external view returns(uint count){\n\t\treturn allTicketsId.length;\n\t}\n\n}\n",
  "sourcePath": "/Users/phx/eth/chainlot/contracts/ChainLotPool.sol",
  "compiler": {
    "name": "solc",
    "version": "0.4.19+commit.c4cbbb05.Emscripten.clang"
  },
  "schemaVersion": "2.0.0",
  "updatedAt": "2018-06-22T16:30:19.018Z"
}