{
  "contractName": "ChainLotPool",
  "abi": [
    {
      "constant": true,
      "inputs": [],
      "name": "clToken",
      "outputs": [
        {
          "name": "",
          "type": "address"
        }
      ],
      "payable": false,
      "stateMutability": "view",
      "type": "function"
    },
    {
      "constant": true,
      "inputs": [],
      "name": "awardIndex",
      "outputs": [
        {
          "name": "",
          "type": "uint256"
        }
      ],
      "payable": false,
      "stateMutability": "view",
      "type": "function"
    },
    {
      "constant": true,
      "inputs": [],
      "name": "totalNumberCount",
      "outputs": [
        {
          "name": "",
          "type": "uint8"
        }
      ],
      "payable": false,
      "stateMutability": "view",
      "type": "function"
    },
    {
      "constant": true,
      "inputs": [],
      "name": "maxYellowNumberCount",
      "outputs": [
        {
          "name": "",
          "type": "uint8"
        }
      ],
      "payable": false,
      "stateMutability": "view",
      "type": "function"
    },
    {
      "constant": true,
      "inputs": [],
      "name": "chainLot",
      "outputs": [
        {
          "name": "",
          "type": "address"
        }
      ],
      "payable": false,
      "stateMutability": "view",
      "type": "function"
    },
    {
      "constant": true,
      "inputs": [
        {
          "name": "",
          "type": "uint256"
        }
      ],
      "name": "awardRules",
      "outputs": [
        {
          "name": "whiteNumberCount",
          "type": "uint256"
        },
        {
          "name": "yellowNumberCount",
          "type": "uint256"
        },
        {
          "name": "awardEther",
          "type": "uint256"
        }
      ],
      "payable": false,
      "stateMutability": "view",
      "type": "function"
    },
    {
      "constant": true,
      "inputs": [
        {
          "name": "",
          "type": "uint256"
        }
      ],
      "name": "allTicketsId",
      "outputs": [
        {
          "name": "",
          "type": "uint256"
        }
      ],
      "payable": false,
      "stateMutability": "view",
      "type": "function"
    },
    {
      "constant": true,
      "inputs": [],
      "name": "maxYellowNumber",
      "outputs": [
        {
          "name": "",
          "type": "uint8"
        }
      ],
      "payable": false,
      "stateMutability": "view",
      "type": "function"
    },
    {
      "constant": true,
      "inputs": [],
      "name": "allTicketsCount",
      "outputs": [
        {
          "name": "",
          "type": "uint256"
        }
      ],
      "payable": false,
      "stateMutability": "view",
      "type": "function"
    },
    {
      "constant": true,
      "inputs": [],
      "name": "futureCut",
      "outputs": [
        {
          "name": "",
          "type": "uint256"
        }
      ],
      "payable": false,
      "stateMutability": "view",
      "type": "function"
    },
    {
      "constant": true,
      "inputs": [],
      "name": "maxWhiteNumber",
      "outputs": [
        {
          "name": "",
          "type": "uint8"
        }
      ],
      "payable": false,
      "stateMutability": "view",
      "type": "function"
    },
    {
      "constant": true,
      "inputs": [],
      "name": "totalTicketCountSum",
      "outputs": [
        {
          "name": "",
          "type": "uint256"
        }
      ],
      "payable": false,
      "stateMutability": "view",
      "type": "function"
    },
    {
      "constant": true,
      "inputs": [
        {
          "name": "",
          "type": "uint256"
        }
      ],
      "name": "toBeAward",
      "outputs": [
        {
          "name": "user",
          "type": "address"
        },
        {
          "name": "value",
          "type": "uint256"
        }
      ],
      "payable": false,
      "stateMutability": "view",
      "type": "function"
    },
    {
      "constant": true,
      "inputs": [],
      "name": "tokenSum",
      "outputs": [
        {
          "name": "",
          "type": "uint256"
        }
      ],
      "payable": false,
      "stateMutability": "view",
      "type": "function"
    },
    {
      "constant": true,
      "inputs": [],
      "name": "owner",
      "outputs": [
        {
          "name": "",
          "type": "address"
        }
      ],
      "payable": false,
      "stateMutability": "view",
      "type": "function"
    },
    {
      "constant": true,
      "inputs": [],
      "name": "devCut",
      "outputs": [
        {
          "name": "",
          "type": "uint256"
        }
      ],
      "payable": false,
      "stateMutability": "view",
      "type": "function"
    },
    {
      "constant": true,
      "inputs": [],
      "name": "maxWhiteNumberCount",
      "outputs": [
        {
          "name": "",
          "type": "uint8"
        }
      ],
      "payable": false,
      "stateMutability": "view",
      "type": "function"
    },
    {
      "constant": true,
      "inputs": [],
      "name": "poolBlockNumber",
      "outputs": [
        {
          "name": "",
          "type": "uint256"
        }
      ],
      "payable": false,
      "stateMutability": "view",
      "type": "function"
    },
    {
      "constant": true,
      "inputs": [
        {
          "name": "",
          "type": "uint256"
        }
      ],
      "name": "awardRulesIndex",
      "outputs": [
        {
          "name": "",
          "type": "uint256"
        }
      ],
      "payable": false,
      "stateMutability": "view",
      "type": "function"
    },
    {
      "constant": true,
      "inputs": [],
      "name": "etherPerTicket",
      "outputs": [
        {
          "name": "",
          "type": "uint256"
        }
      ],
      "payable": false,
      "stateMutability": "view",
      "type": "function"
    },
    {
      "constant": true,
      "inputs": [],
      "name": "stage",
      "outputs": [
        {
          "name": "",
          "type": "uint8"
        }
      ],
      "payable": false,
      "stateMutability": "view",
      "type": "function"
    },
    {
      "constant": true,
      "inputs": [],
      "name": "historyCut",
      "outputs": [
        {
          "name": "",
          "type": "uint256"
        }
      ],
      "payable": false,
      "stateMutability": "view",
      "type": "function"
    },
    {
      "constant": true,
      "inputs": [
        {
          "name": "",
          "type": "uint256"
        }
      ],
      "name": "winnerTickets",
      "outputs": [
        {
          "name": "processedIndex",
          "type": "uint256"
        },
        {
          "name": "distributedIndex",
          "type": "uint256"
        }
      ],
      "payable": false,
      "stateMutability": "view",
      "type": "function"
    },
    {
      "constant": true,
      "inputs": [],
      "name": "chainLotTicket",
      "outputs": [
        {
          "name": "",
          "type": "address"
        }
      ],
      "payable": false,
      "stateMutability": "view",
      "type": "function"
    },
    {
      "constant": true,
      "inputs": [],
      "name": "lastMatchedTicketIndex",
      "outputs": [
        {
          "name": "",
          "type": "uint256"
        }
      ],
      "payable": false,
      "stateMutability": "view",
      "type": "function"
    },
    {
      "constant": true,
      "inputs": [],
      "name": "jackpotNumbers",
      "outputs": [
        {
          "name": "",
          "type": "bytes"
        }
      ],
      "payable": false,
      "stateMutability": "view",
      "type": "function"
    },
    {
      "constant": true,
      "inputs": [],
      "name": "drawingToolAddress",
      "outputs": [
        {
          "name": "",
          "type": "address"
        }
      ],
      "payable": false,
      "stateMutability": "view",
      "type": "function"
    },
    {
      "constant": false,
      "inputs": [
        {
          "name": "newOwner",
          "type": "address"
        }
      ],
      "name": "transferOwnership",
      "outputs": [],
      "payable": false,
      "stateMutability": "nonpayable",
      "type": "function"
    },
    {
      "constant": true,
      "inputs": [
        {
          "name": "",
          "type": "uint256"
        }
      ],
      "name": "withdrawed",
      "outputs": [
        {
          "name": "",
          "type": "bool"
        }
      ],
      "payable": false,
      "stateMutability": "view",
      "type": "function"
    },
    {
      "constant": true,
      "inputs": [
        {
          "name": "",
          "type": "uint256"
        }
      ],
      "name": "distributeTickets",
      "outputs": [
        {
          "name": "processedIndex",
          "type": "uint256"
        },
        {
          "name": "distributedIndex",
          "type": "uint256"
        }
      ],
      "payable": false,
      "stateMutability": "view",
      "type": "function"
    },
    {
      "inputs": [
        {
          "name": "_poolBlockNumber",
          "type": "uint256"
        },
        {
          "name": "_maxWhiteNumber",
          "type": "uint8"
        },
        {
          "name": "_maxYellowNumber",
          "type": "uint8"
        },
        {
          "name": "_whiteNumberCount",
          "type": "uint8"
        },
        {
          "name": "_yellowNumberCount",
          "type": "uint8"
        },
        {
          "name": "_etherPerTicket",
          "type": "uint256"
        },
        {
          "name": "awardRulesArray",
          "type": "uint256[]"
        }
      ],
      "payable": false,
      "stateMutability": "nonpayable",
      "type": "constructor"
    },
    {
      "anonymous": false,
      "inputs": [
        {
          "indexed": false,
          "name": "poolBlockNumber",
          "type": "uint256"
        },
        {
          "indexed": false,
          "name": "numbers",
          "type": "bytes"
        },
        {
          "indexed": false,
          "name": "ticketCount",
          "type": "uint256"
        },
        {
          "indexed": false,
          "name": "ticketId",
          "type": "uint256"
        },
        {
          "indexed": false,
          "name": "user",
          "type": "address"
        },
        {
          "indexed": false,
          "name": "blockNumber",
          "type": "uint256"
        },
        {
          "indexed": false,
          "name": "totalTicketCountSum",
          "type": "uint256"
        },
        {
          "indexed": false,
          "name": "value",
          "type": "uint256"
        }
      ],
      "name": "BuyTicket",
      "type": "event"
    },
    {
      "anonymous": false,
      "inputs": [
        {
          "indexed": false,
          "name": "jackpotNumbers",
          "type": "bytes"
        },
        {
          "indexed": false,
          "name": "poolBlockNumber",
          "type": "uint256"
        },
        {
          "indexed": false,
          "name": "allTicketsCount",
          "type": "uint256"
        }
      ],
      "name": "PrepareAward",
      "type": "event"
    },
    {
      "anonymous": false,
      "inputs": [
        {
          "indexed": false,
          "name": "jackpotNumbers",
          "type": "bytes"
        },
        {
          "indexed": false,
          "name": "ticketNumber",
          "type": "bytes32"
        },
        {
          "indexed": false,
          "name": "ticketCount",
          "type": "uint256"
        },
        {
          "indexed": false,
          "name": "ticketId",
          "type": "uint256"
        },
        {
          "indexed": false,
          "name": "user",
          "type": "address"
        },
        {
          "indexed": false,
          "name": "blockNumber",
          "type": "uint256"
        },
        {
          "indexed": false,
          "name": "awardValue",
          "type": "uint256"
        }
      ],
      "name": "ToBeAward",
      "type": "event"
    },
    {
      "anonymous": false,
      "inputs": [
        {
          "indexed": false,
          "name": "jackpotNumbers",
          "type": "bytes"
        },
        {
          "indexed": false,
          "name": "lastMatchedTicketIndex",
          "type": "uint256"
        },
        {
          "indexed": false,
          "name": "endIndex",
          "type": "uint256"
        },
        {
          "indexed": false,
          "name": "allTicketsCount",
          "type": "uint256"
        }
      ],
      "name": "MatchAwards",
      "type": "event"
    },
    {
      "anonymous": false,
      "inputs": [
        {
          "indexed": false,
          "name": "jackpotNumbers",
          "type": "bytes"
        },
        {
          "indexed": false,
          "name": "ticketNumber",
          "type": "bytes32"
        },
        {
          "indexed": false,
          "name": "ticketCount",
          "type": "uint256"
        },
        {
          "indexed": false,
          "name": "ticketId",
          "type": "uint256"
        },
        {
          "indexed": false,
          "name": "blockNumber",
          "type": "uint256"
        },
        {
          "indexed": false,
          "name": "ruleId",
          "type": "uint256"
        },
        {
          "indexed": false,
          "name": "ruleEther",
          "type": "uint256"
        }
      ],
      "name": "MatchRule",
      "type": "event"
    },
    {
      "anonymous": false,
      "inputs": [
        {
          "indexed": false,
          "name": "ruleId",
          "type": "uint256"
        },
        {
          "indexed": false,
          "name": "toDistCount",
          "type": "uint256"
        },
        {
          "indexed": false,
          "name": "distributedIndex",
          "type": "uint256"
        },
        {
          "indexed": false,
          "name": "ticketIdsLength",
          "type": "uint256"
        },
        {
          "indexed": false,
          "name": "awardRulesLength",
          "type": "uint256"
        }
      ],
      "name": "DistributeAwards",
      "type": "event"
    },
    {
      "anonymous": false,
      "inputs": [
        {
          "indexed": false,
          "name": "winner",
          "type": "address"
        },
        {
          "indexed": false,
          "name": "value",
          "type": "uint256"
        }
      ],
      "name": "TransferAward",
      "type": "event"
    },
    {
      "anonymous": false,
      "inputs": [
        {
          "indexed": false,
          "name": "dev",
          "type": "address"
        },
        {
          "indexed": false,
          "name": "value",
          "type": "uint256"
        }
      ],
      "name": "TransferDevCut",
      "type": "event"
    },
    {
      "anonymous": false,
      "inputs": [
        {
          "indexed": false,
          "name": "user",
          "type": "address"
        },
        {
          "indexed": false,
          "name": "value",
          "type": "uint256"
        }
      ],
      "name": "TransferHistoryCut",
      "type": "event"
    },
    {
      "anonymous": false,
      "inputs": [
        {
          "indexed": false,
          "name": "added",
          "type": "uint256"
        },
        {
          "indexed": false,
          "name": "total",
          "type": "uint256"
        }
      ],
      "name": "AddHistoryCut",
      "type": "event"
    },
    {
      "anonymous": false,
      "inputs": [
        {
          "indexed": false,
          "name": "ruleId",
          "type": "uint8"
        },
        {
          "indexed": false,
          "name": "winnersTicketCount",
          "type": "uint256"
        },
        {
          "indexed": false,
          "name": "awardEther",
          "type": "uint256"
        },
        {
          "indexed": false,
          "name": "totalWinnersAward",
          "type": "uint256"
        },
        {
          "indexed": false,
          "name": "totalTicketCount",
          "type": "uint256"
        }
      ],
      "name": "CalculateAwards",
      "type": "event"
    },
    {
      "anonymous": false,
      "inputs": [
        {
          "indexed": false,
          "name": "ruleId",
          "type": "uint8"
        },
        {
          "indexed": false,
          "name": "totalWinnersAward",
          "type": "uint256"
        },
        {
          "indexed": false,
          "name": "leftBalance",
          "type": "uint256"
        }
      ],
      "name": "SplitAward",
      "type": "event"
    },
    {
      "anonymous": false,
      "inputs": [
        {
          "indexed": false,
          "name": "from",
          "type": "address"
        },
        {
          "indexed": false,
          "name": "to",
          "type": "address"
        },
        {
          "indexed": false,
          "name": "value",
          "type": "uint256"
        }
      ],
      "name": "TransferUnawarded",
      "type": "event"
    },
    {
      "anonymous": false,
      "inputs": [
        {
          "indexed": false,
          "name": "random",
          "type": "uint256"
        },
        {
          "indexed": false,
          "name": "blockNumber",
          "type": "uint256"
        },
        {
          "indexed": false,
          "name": "hash",
          "type": "uint256"
        },
        {
          "indexed": false,
          "name": "addressInt",
          "type": "uint256"
        },
        {
          "indexed": false,
          "name": "shift",
          "type": "uint256"
        },
        {
          "indexed": false,
          "name": "timestamp",
          "type": "uint256"
        },
        {
          "indexed": false,
          "name": "difficulty",
          "type": "uint256"
        }
      ],
      "name": "GenRandomNumbers",
      "type": "event"
    },
    {
      "anonymous": false,
      "inputs": [
        {
          "indexed": false,
          "name": "msg",
          "type": "uint256"
        }
      ],
      "name": "LOG",
      "type": "event"
    },
    {
      "constant": false,
      "inputs": [
        {
          "name": "_chainLotTicket",
          "type": "address"
        },
        {
          "name": "_clToken",
          "type": "address"
        },
        {
          "name": "_chainLot",
          "type": "address"
        }
      ],
      "name": "setPool",
      "outputs": [],
      "payable": false,
      "stateMutability": "nonpayable",
      "type": "function"
    },
    {
      "constant": false,
      "inputs": [
        {
          "name": "_drawingToolAddress",
          "type": "address"
        }
      ],
      "name": "setDrawingToolAddress",
      "outputs": [],
      "payable": false,
      "stateMutability": "nonpayable",
      "type": "function"
    },
    {
      "constant": false,
      "inputs": [
        {
          "name": "numbers",
          "type": "bytes"
        },
        {
          "name": "referer",
          "type": "address"
        }
      ],
      "name": "buyTicket",
      "outputs": [],
      "payable": true,
      "stateMutability": "payable",
      "type": "function"
    },
    {
      "constant": false,
      "inputs": [
        {
          "name": "numberCount",
          "type": "uint8"
        },
        {
          "name": "referer",
          "type": "address"
        }
      ],
      "name": "buyRandom",
      "outputs": [],
      "payable": true,
      "stateMutability": "payable",
      "type": "function"
    },
    {
      "constant": false,
      "inputs": [
        {
          "name": "_from",
          "type": "address"
        },
        {
          "name": "_value",
          "type": "uint256"
        },
        {
          "name": "_token",
          "type": "address"
        },
        {
          "name": "_extraData",
          "type": "bytes"
        }
      ],
      "name": "receiveApproval",
      "outputs": [],
      "payable": false,
      "stateMutability": "nonpayable",
      "type": "function"
    },
    {
      "constant": false,
      "inputs": [
        {
          "name": "_jackpotNumbers",
          "type": "bytes"
        }
      ],
      "name": "setJackpotNumbers",
      "outputs": [],
      "payable": false,
      "stateMutability": "nonpayable",
      "type": "function"
    },
    {
      "constant": true,
      "inputs": [],
      "name": "getAwardRulesLength",
      "outputs": [
        {
          "name": "length",
          "type": "uint256"
        }
      ],
      "payable": false,
      "stateMutability": "view",
      "type": "function"
    },
    {
      "constant": false,
      "inputs": [
        {
          "name": "ruleId",
          "type": "uint256"
        },
        {
          "name": "ticketId",
          "type": "uint256"
        }
      ],
      "name": "pushWinnerTicket",
      "outputs": [],
      "payable": false,
      "stateMutability": "nonpayable",
      "type": "function"
    },
    {
      "constant": true,
      "inputs": [],
      "name": "getJackpotNumbers",
      "outputs": [
        {
          "name": "numbers",
          "type": "bytes32"
        }
      ],
      "payable": false,
      "stateMutability": "view",
      "type": "function"
    },
    {
      "constant": true,
      "inputs": [
        {
          "name": "ruleId",
          "type": "uint8"
        }
      ],
      "name": "getWinnerTicketCount",
      "outputs": [
        {
          "name": "count",
          "type": "uint256"
        }
      ],
      "payable": false,
      "stateMutability": "view",
      "type": "function"
    },
    {
      "constant": true,
      "inputs": [
        {
          "name": "ruleId",
          "type": "uint8"
        }
      ],
      "name": "getProcessedIndex",
      "outputs": [
        {
          "name": "index",
          "type": "uint256"
        }
      ],
      "payable": false,
      "stateMutability": "view",
      "type": "function"
    },
    {
      "constant": true,
      "inputs": [
        {
          "name": "ruleId",
          "type": "uint8"
        }
      ],
      "name": "getAwardEther",
      "outputs": [
        {
          "name": "_ether",
          "type": "uint256"
        }
      ],
      "payable": false,
      "stateMutability": "view",
      "type": "function"
    },
    {
      "constant": false,
      "inputs": [
        {
          "name": "ruleId",
          "type": "uint8"
        },
        {
          "name": "totalWinnersAward",
          "type": "uint256"
        }
      ],
      "name": "addTotalWinnersAward",
      "outputs": [],
      "payable": false,
      "stateMutability": "nonpayable",
      "type": "function"
    },
    {
      "constant": false,
      "inputs": [
        {
          "name": "ruleId",
          "type": "uint8"
        },
        {
          "name": "totalTicketCount",
          "type": "uint256"
        }
      ],
      "name": "addTotalTicketCount",
      "outputs": [],
      "payable": false,
      "stateMutability": "nonpayable",
      "type": "function"
    },
    {
      "constant": false,
      "inputs": [
        {
          "name": "_stage",
          "type": "uint8"
        }
      ],
      "name": "setStage",
      "outputs": [],
      "payable": false,
      "stateMutability": "nonpayable",
      "type": "function"
    },
    {
      "constant": false,
      "inputs": [
        {
          "name": "ruleId",
          "type": "uint8"
        },
        {
          "name": "index",
          "type": "uint256"
        }
      ],
      "name": "setProcessedIndex",
      "outputs": [],
      "payable": false,
      "stateMutability": "nonpayable",
      "type": "function"
    },
    {
      "constant": false,
      "inputs": [
        {
          "name": "index",
          "type": "uint256"
        }
      ],
      "name": "setLastMatchedTicketIndex",
      "outputs": [],
      "payable": false,
      "stateMutability": "nonpayable",
      "type": "function"
    },
    {
      "constant": true,
      "inputs": [
        {
          "name": "ruleId",
          "type": "uint8"
        },
        {
          "name": "j",
          "type": "uint256"
        }
      ],
      "name": "getWinnerTicket",
      "outputs": [
        {
          "name": "id",
          "type": "uint256"
        }
      ],
      "payable": false,
      "stateMutability": "view",
      "type": "function"
    },
    {
      "constant": true,
      "inputs": [
        {
          "name": "ruleId",
          "type": "uint8"
        }
      ],
      "name": "getTotalWinnersAward",
      "outputs": [
        {
          "name": "award",
          "type": "uint256"
        }
      ],
      "payable": false,
      "stateMutability": "view",
      "type": "function"
    },
    {
      "constant": false,
      "inputs": [
        {
          "name": "ruleId",
          "type": "uint8"
        },
        {
          "name": "award",
          "type": "uint256"
        }
      ],
      "name": "setTotalWinnersAward",
      "outputs": [],
      "payable": false,
      "stateMutability": "nonpayable",
      "type": "function"
    },
    {
      "constant": true,
      "inputs": [
        {
          "name": "ruleId",
          "type": "uint8"
        }
      ],
      "name": "getDistributedIndex",
      "outputs": [
        {
          "name": "index",
          "type": "uint256"
        }
      ],
      "payable": false,
      "stateMutability": "view",
      "type": "function"
    },
    {
      "constant": false,
      "inputs": [
        {
          "name": "ruleId",
          "type": "uint8"
        },
        {
          "name": "index",
          "type": "uint256"
        }
      ],
      "name": "setDistributedIndex",
      "outputs": [],
      "payable": false,
      "stateMutability": "nonpayable",
      "type": "function"
    },
    {
      "constant": true,
      "inputs": [
        {
          "name": "ruleId",
          "type": "uint8"
        }
      ],
      "name": "getTotalTicketCount",
      "outputs": [
        {
          "name": "count",
          "type": "uint256"
        }
      ],
      "payable": false,
      "stateMutability": "view",
      "type": "function"
    },
    {
      "constant": false,
      "inputs": [
        {
          "name": "ticketId",
          "type": "uint256"
        },
        {
          "name": "awardValue",
          "type": "uint256"
        }
      ],
      "name": "addToBeAward",
      "outputs": [
        {
          "name": "userAddress",
          "type": "address"
        }
      ],
      "payable": false,
      "stateMutability": "nonpayable",
      "type": "function"
    },
    {
      "constant": true,
      "inputs": [],
      "name": "getToBeAwardLength",
      "outputs": [
        {
          "name": "length",
          "type": "uint256"
        }
      ],
      "payable": false,
      "stateMutability": "view",
      "type": "function"
    },
    {
      "constant": false,
      "inputs": [
        {
          "name": "to",
          "type": "address"
        },
        {
          "name": "value",
          "type": "uint256"
        }
      ],
      "name": "transfer",
      "outputs": [],
      "payable": false,
      "stateMutability": "nonpayable",
      "type": "function"
    },
    {
      "constant": false,
      "inputs": [
        {
          "name": "cut",
          "type": "uint256"
        }
      ],
      "name": "setHistoryCut",
      "outputs": [],
      "payable": false,
      "stateMutability": "nonpayable",
      "type": "function"
    },
    {
      "constant": false,
      "inputs": [
        {
          "name": "cut",
          "type": "uint256"
        }
      ],
      "name": "setDevCut",
      "outputs": [],
      "payable": false,
      "stateMutability": "nonpayable",
      "type": "function"
    },
    {
      "constant": false,
      "inputs": [
        {
          "name": "cut",
          "type": "uint256"
        }
      ],
      "name": "setFutureCut",
      "outputs": [],
      "payable": false,
      "stateMutability": "nonpayable",
      "type": "function"
    },
    {
      "constant": false,
      "inputs": [
        {
          "name": "index",
          "type": "uint256"
        }
      ],
      "name": "setAwardIndex",
      "outputs": [],
      "payable": false,
      "stateMutability": "nonpayable",
      "type": "function"
    },
    {
      "constant": false,
      "inputs": [
        {
          "name": "ticketIds",
          "type": "uint256[]"
        }
      ],
      "name": "withdrawHistoryCut",
      "outputs": [],
      "payable": false,
      "stateMutability": "nonpayable",
      "type": "function"
    },
    {
      "constant": true,
      "inputs": [
        {
          "name": "user",
          "type": "address"
        },
        {
          "name": "ticketIds",
          "type": "uint256[]"
        }
      ],
      "name": "listUserHistoryCut",
      "outputs": [
        {
          "name": "_historyCut",
          "type": "uint256"
        }
      ],
      "payable": false,
      "stateMutability": "view",
      "type": "function"
    },
    {
      "constant": false,
      "inputs": [
        {
          "name": "blockNumber",
          "type": "uint256"
        },
        {
          "name": "shift",
          "type": "uint256"
        }
      ],
      "name": "genRandomNumbers",
      "outputs": [
        {
          "name": "_numbers",
          "type": "bytes"
        }
      ],
      "payable": false,
      "stateMutability": "nonpayable",
      "type": "function"
    },
    {
      "constant": true,
      "inputs": [],
      "name": "getAllTicketsCount",
      "outputs": [
        {
          "name": "count",
          "type": "uint256"
        }
      ],
      "payable": false,
      "stateMutability": "view",
      "type": "function"
    }
  ],
  "bytecode": "0x60606040526000601a60006101000a81548160ff021916908360078111156200002457fe5b021790555034156200003557600080fd5b6040516200407038038062004070833981016040528080519060200190919080519060200190919080519060200190919080519060200190919080519060200190919080519060200190919080518201919050506000336000806101000a81548173ffffffffffffffffffffffffffffffffffffffff021916908373ffffffffffffffffffffffffffffffffffffffff1602179055508760018190555086600260006101000a81548160ff021916908360ff16021790555085600260016101000a81548160ff021916908360ff16021790555084600760006101000a81548160ff021916908360ff16021790555083600760016101000a81548160ff021916908360ff16021790555082600381905550600760019054906101000a900460ff16600760009054906101000a900460ff1601600760026101000a81548160ff021916908360ff160217905550600090505b81518110156200039a5781516003820111151515620001a357600080fd5b60008282815181101515620001b457fe5b9060200190602002015110158015620001f75750600760009054906101000a900460ff1660ff168282815181101515620001ea57fe5b9060200190602002015111155b15156200020357600080fd5b600082600183018151811015156200021757fe5b90602001906020020151101580156200025d5750600760019054906101000a900460ff1660ff1682600183018151811015156200025057fe5b9060200190602002015111155b15156200026957600080fd5b601180548060010182816200027f91906200042d565b916000526020600020906003020160006060604051908101604052808686815181101515620002aa57fe5b9060200190602002015181526020018660018701815181101515620002cb57fe5b9060200190602002015181526020018660028701815181101515620002ec57fe5b906020019060200201518152509091909150600082015181600001556020820151816001015560408201518160020155505050601180549050600e60006200037c85858151811015156200033c57fe5b9060200190602002015186600187018151811015156200035857fe5b90602001906020020151620004096401000000000262003b74176401000000009004565b81526020019081526020016000208190555060038101905062000185565b600090505b601180549050811015620003f3576000600f6000838152602001908152602001600020600101819055506000600f60008381526020019081526020016000206002018190555080806001019150506200039f565b600060178190555050505050505050506200049c565b6000816001600760019054906101000a900460ff160160ff16840201905092915050565b8154818355818115116200045d576003028160030283600052602060002091820191016200045c919062000462565b5b505050565b6200049991905b808211156200049557600080820160009055600182016000905560028201600090555060030162000469565b5090565b90565b613bc480620004ac6000396000f3006060604052600436106102f5576000357c0100000000000000000000000000000000000000000000000000000000900463ffffffff16806259f7ef146102fa57806304d3c348146103335780630800e5f11461039f5780630891690b146103f4578063162055201461041d5780633678c9f41461044c5780633756e372146104f157806337f4a9c4146105145780633ca7b3c1146105435780633e43be3c14610572578063413e1a97146105c757806350b9bc92146106015780635255f1e41461062f5780635b328df6146106745780635f7d9287146106ab5780636098d8f3146106da5780636541e028146106fd5780636c933d85146107295780636ea6c8b214610752578063703a66d2146107c35780637044a32a146107f257806370f4c3431461081b5780637266a2321461084a578063758b9ee0146108735780637855e6ae1461089c5780637baf3b0e146108d65780637f87179a146108ff57806388963771146109695780638da5cb5b146109925780638f4ffcb1146109e7578063958d8a2f14610a8b5780639a62b39a14610ac55780639c28683714610b3c5780639c56a45014610b655780639c7365e514610b885780639eb623d714610bb7578063a9059cbb14610be0578063aa2aaeca14610c22578063b184001914610c59578063b61bf92a14610c93578063b787e6c814610cc2578063b86d7c6c14610cfc578063b9f85c5814610d25578063bd6a468714610d54578063c040e6b814610d77578063c350c74e14610dae578063c3c1b4a314610dd7578063cda886d614610e11578063ce3cd99714610e3a578063d87d8b3d14610e60578063dbcc106d14610e8f578063df85d49d14610eb2578063dfcab41714610ef5578063e1e3af6914610f33578063e2c3156114610f88578063e302909414610fb1578063e35e17fa1461103f578063e7cfbe9014611094578063ec6ce0d1146110c5578063ee5bac89146110f3578063f2fde38b14611154578063f3aa11931461118d578063f58a7898146111c8578063ffa3090314611206575b600080fd5b341561030557600080fd5b610331600480803573ffffffffffffffffffffffffffffffffffffffff16906020019091905050611240565b005b341561033e57600080fd5b61035d60048080359060200190919080359060200190919050506112df565b604051808273ffffffffffffffffffffffffffffffffffffffff1673ffffffffffffffffffffffffffffffffffffffff16815260200191505060405180910390f35b34156103aa57600080fd5b6103b26114ad565b604051808273ffffffffffffffffffffffffffffffffffffffff1673ffffffffffffffffffffffffffffffffffffffff16815260200191505060405180910390f35b34156103ff57600080fd5b6104076114d3565b6040518082815260200191505060405180910390f35b341561042857600080fd5b6104306114d9565b604051808260ff1660ff16815260200191505060405180910390f35b341561045757600080fd5b61047660048080359060200190919080359060200190919050506114ec565b6040518080602001828103825283818151815260200191508051906020019080838360005b838110156104b657808201518184015260208101905061049b565b50505050905090810190601f1680156104e35780820380516001836020036101000a031916815260200191505b509250505060405180910390f35b34156104fc57600080fd5b61051260048080359060200190919050506117bb565b005b341561051f57600080fd5b610527611821565b604051808260ff1660ff16815260200191505060405180910390f35b341561054e57600080fd5b610570600480803560ff16906020019091908035906020019091905050611834565b005b341561057d57600080fd5b6105856118b2565b604051808273ffffffffffffffffffffffffffffffffffffffff1673ffffffffffffffffffffffffffffffffffffffff16815260200191505060405180910390f35b6105ff600480803560ff1690602001909190803573ffffffffffffffffffffffffffffffffffffffff169060200190919050506118d8565b005b341561060c57600080fd5b61062d60048080359060200190820180359060200191909192905050611a04565b005b341561063a57600080fd5b6106506004808035906020019091905050611c08565b60405180848152602001838152602001828152602001935050505060405180910390f35b341561067f57600080fd5b6106956004808035906020019091905050611c41565b6040518082815260200191505060405180910390f35b34156106b657600080fd5b6106be611c65565b604051808260ff1660ff16815260200191505060405180910390f35b34156106e557600080fd5b6106fb6004808035906020019091905050611c78565b005b341561070857600080fd5b6107276004808035906020019091908035906020019091905050611cde565b005b341561073457600080fd5b61073c611d7b565b6040518082815260200191505060405180910390f35b6107c1600480803590602001908201803590602001908080601f0160208091040260200160405190810160405280939291908181526020018383808284378201915050505050509190803573ffffffffffffffffffffffffffffffffffffffff16906020019091905050611d81565b005b34156107ce57600080fd5b6107f0600480803560ff16906020019091908035906020019091905050611e05565b005b34156107fd57600080fd5b610805611e8c565b6040518082815260200191505060405180910390f35b341561082657600080fd5b61082e611e92565b604051808260ff1660ff16815260200191505060405180910390f35b341561085557600080fd5b61085d611ea5565b6040518082815260200191505060405180910390f35b341561087e57600080fd5b610886611eab565b6040518082815260200191505060405180910390f35b34156108a757600080fd5b6108c0600480803560ff16906020019091905050611eb8565b6040518082815260200191505060405180910390f35b34156108e157600080fd5b6108e9611f37565b6040518082815260200191505060405180910390f35b341561090a57600080fd5b6109206004808035906020019091905050611fa0565b604051808373ffffffffffffffffffffffffffffffffffffffff1673ffffffffffffffffffffffffffffffffffffffff1681526020018281526020019250505060405180910390f35b341561097457600080fd5b61097c611ff3565b6040518082815260200191505060405180910390f35b341561099d57600080fd5b6109a5611ff9565b604051808273ffffffffffffffffffffffffffffffffffffffff1673ffffffffffffffffffffffffffffffffffffffff16815260200191505060405180910390f35b34156109f257600080fd5b610a89600480803573ffffffffffffffffffffffffffffffffffffffff1690602001909190803590602001909190803573ffffffffffffffffffffffffffffffffffffffff1690602001909190803590602001908201803590602001908080601f0160208091040260200160405190810160405280939291908181526020018383808284378201915050505050509190505061201e565b005b3415610a9657600080fd5b610aaf600480803560ff16906020019091905050612108565b6040518082815260200191505060405180910390f35b3415610ad057600080fd5b610b3a600480803573ffffffffffffffffffffffffffffffffffffffff1690602001909190803573ffffffffffffffffffffffffffffffffffffffff1690602001909190803573ffffffffffffffffffffffffffffffffffffffff16906020019091905050612187565b005b3415610b4757600080fd5b610b4f61228f565b6040518082815260200191505060405180910390f35b3415610b7057600080fd5b610b866004808035906020019091905050612295565b005b3415610b9357600080fd5b610b9b6122fb565b604051808260ff1660ff16815260200191505060405180910390f35b3415610bc257600080fd5b610bca61230e565b6040518082815260200191505060405180910390f35b3415610beb57600080fd5b610c20600480803573ffffffffffffffffffffffffffffffffffffffff16906020019091908035906020019091905050612314565b005b3415610c2d57600080fd5b610c43600480803590602001909190505061247a565b6040518082815260200191505060405180910390f35b3415610c6457600080fd5b610c7d600480803560ff16906020019091905050612492565b6040518082815260200191505060405180910390f35b3415610c9e57600080fd5b610cc0600480803560ff16906020019091908035906020019091905050612511565b005b3415610ccd57600080fd5b610ce6600480803560ff1690602001909190505061258f565b6040518082815260200191505060405180910390f35b3415610d0757600080fd5b610d0f612618565b6040518082815260200191505060405180910390f35b3415610d3057600080fd5b610d52600480803560ff1690602001909190803590602001909190505061261e565b005b3415610d5f57600080fd5b610d75600480803590602001909190505061269c565b005b3415610d8257600080fd5b610d8a612702565b60405180826007811115610d9a57fe5b60ff16815260200191505060405180910390f35b3415610db957600080fd5b610dc1612715565b6040518082815260200191505060405180910390f35b3415610de257600080fd5b610dfb600480803560ff1690602001909190505061277e565b6040518082815260200191505060405180910390f35b3415610e1c57600080fd5b610e246127fd565b6040518082815260200191505060405180910390f35b3415610e4557600080fd5b610e5e600480803560ff16906020019091905050612803565b005b3415610e6b57600080fd5b610e8d600480803560ff16906020019091908035906020019091905050612885565b005b3415610e9a57600080fd5b610eb0600480803590602001909190505061290c565b005b3415610ebd57600080fd5b610edf600480803560ff16906020019091908035906020019091905050612972565b6040518082815260200191505060405180910390f35b3415610f0057600080fd5b610f166004808035906020019091905050612a0a565b604051808381526020018281526020019250505060405180910390f35b3415610f3e57600080fd5b610f46612a2e565b604051808273ffffffffffffffffffffffffffffffffffffffff1673ffffffffffffffffffffffffffffffffffffffff16815260200191505060405180910390f35b3415610f9357600080fd5b610f9b612a54565b6040518082815260200191505060405180910390f35b3415610fbc57600080fd5b610fc4612a5a565b6040518080602001828103825283818151815260200191508051906020019080838360005b83811015611004578082015181840152602081019050610fe9565b50505050905090810190601f1680156110315780820380516001836020036101000a031916815260200191505b509250505060405180910390f35b341561104a57600080fd5b611052612af8565b604051808273ffffffffffffffffffffffffffffffffffffffff1673ffffffffffffffffffffffffffffffffffffffff16815260200191505060405180910390f35b341561109f57600080fd5b6110a7612b1e565b60405180826000191660001916815260200191505060405180910390f35b34156110d057600080fd5b6110f160048080359060200190820180359060200191909192905050612d08565b005b34156110fe57600080fd5b61113e600480803573ffffffffffffffffffffffffffffffffffffffff169060200190919080359060200190820180359060200191909192905050612d7a565b6040518082815260200191505060405180910390f35b341561115f57600080fd5b61118b600480803573ffffffffffffffffffffffffffffffffffffffff16906020019091905050612dd9565b005b341561119857600080fd5b6111ae6004808035906020019091905050612e77565b604051808215151515815260200191505060405180910390f35b34156111d357600080fd5b6111e96004808035906020019091905050612e97565b604051808381526020018281526020019250505060405180910390f35b341561121157600080fd5b61122a600480803560ff16906020019091905050612ebb565b6040518082815260200191505060405180910390f35b6000809054906101000a900473ffffffffffffffffffffffffffffffffffffffff1673ffffffffffffffffffffffffffffffffffffffff163373ffffffffffffffffffffffffffffffffffffffff1614151561129b57600080fd5b80601560006101000a81548173ffffffffffffffffffffffffffffffffffffffff021916908373ffffffffffffffffffffffffffffffffffffffff16021790555050565b60006112e96139cb565b3373ffffffffffffffffffffffffffffffffffffffff16601560009054906101000a900473ffffffffffffffffffffffffffffffffffffffff1673ffffffffffffffffffffffffffffffffffffffff1614151561134557600080fd5b601260009054906101000a900473ffffffffffffffffffffffffffffffffffffffff1673ffffffffffffffffffffffffffffffffffffffff16636352211e856000604051602001526040518263ffffffff167c010000000000000000000000000000000000000000000000000000000002815260040180828152602001915050602060405180830381600087803b15156113de57600080fd5b6102c65a03f115156113ef57600080fd5b50505060405180519050915060408051908101604052808373ffffffffffffffffffffffffffffffffffffffff1681526020018481525090506016805480600101828161143c91906139fb565b9160005260206000209060020201600083909190915060008201518160000160006101000a81548173ffffffffffffffffffffffffffffffffffffffff021916908373ffffffffffffffffffffffffffffffffffffffff160217905550602082015181600101555050505092915050565b601360009054906101000a900473ffffffffffffffffffffffffffffffffffffffff1681565b60175481565b600760029054906101000a900460ff1681565b6114f4613a2d565b6000806000611501613a2d565b6000438810151561151157600080fd5b87406001900494503373ffffffffffffffffffffffffffffffffffffffff1693508484029250424486866040518085815260200184815260200183815260200182815260200194505050505060405180910390206001900492507f2c7df83ce284dc9c63cf5d2312952dd5ccecf8f255192742b2ca327d3e6c6a43838987878b42446040518088815260200187815260200186815260200185815260200184815260200183815260200182815260200197505050505050505060405180910390a1600083141515156115e257600080fd5b86839060020a90049250600760019054906101000a900460ff16600760009054906101000a900460ff160160ff1660405180591061161d5750595b9080825280601f01601f19166020018201604052509150600090505b600760009054906101000a900460ff1660ff168160ff1610156116f2576001600260009054906101000a900460ff1660ff168481151561167557fe5b06017f010000000000000000000000000000000000000000000000000000000000000002828260ff168151811015156116aa57fe5b9060200101907effffffffffffffffffffffffffffffffffffffffffffffffffffffffffffff1916908160001a9053506008839060020a900492508080600101915050611639565b600760009054906101000a900460ff1690505b81518160ff1610156117ad576001600260019054906101000a900460ff1660ff168481151561173057fe5b06017f010000000000000000000000000000000000000000000000000000000000000002828260ff1681518110151561176557fe5b9060200101907effffffffffffffffffffffffffffffffffffffffffffffffffffffffffffff1916908160001a9053506008839060020a900492508080600101915050611705565b819550505050505092915050565b3373ffffffffffffffffffffffffffffffffffffffff16601560009054906101000a900473ffffffffffffffffffffffffffffffffffffffff1673ffffffffffffffffffffffffffffffffffffffff1614151561181757600080fd5b80600c8190555050565b600760019054906101000a900460ff1681565b3373ffffffffffffffffffffffffffffffffffffffff16601560009054906101000a900473ffffffffffffffffffffffffffffffffffffffff1673ffffffffffffffffffffffffffffffffffffffff1614151561189057600080fd5b80600f60008460ff168152602001908152602001600020600201819055505050565b601460009054906101000a900473ffffffffffffffffffffffffffffffffffffffff1681565b60008060006118e5613a2d565b6000808760ff161115156118f857600080fd5b611900612f3d565b9450848760ff161115611911578496505b8660ff168581151561191f57fe5b049350600092505b8660ff168360ff1610156119fb57611948600143036007850260ff166114ec565b915083905060018760ff1611801561196857506001870360ff168360ff16145b1561197b576001870360ff168402850390505b61198732838334613096565b5060008673ffffffffffffffffffffffffffffffffffffffff16141580156119db57508573ffffffffffffffffffffffffffffffffffffffff163273ffffffffffffffffffffffffffffffffffffffff1614155b156119ee576119ec86838334613096565b505b8280600101935050611927565b50505050505050565b6000611a0e613a41565b600080611a4a868680806020026020016040519081016040528093929190818152602001838360200280828437820191505050505050326136d7565b8094508195508296505050506000841115611c0057601360009054906101000a900473ffffffffffffffffffffffffffffffffffffffff1673ffffffffffffffffffffffffffffffffffffffff1663a9059cbb32866040518363ffffffff167c0100000000000000000000000000000000000000000000000000000000028152600401808373ffffffffffffffffffffffffffffffffffffffff1673ffffffffffffffffffffffffffffffffffffffff16815260200182815260200192505050600060405180830381600087803b1515611b2357600080fd5b6102c65a03f11515611b3457600080fd5b5050507fede4d03c867cd33eef808cb7e94941039fcb41bddb496675b7df85c4f9533bc33285604051808373ffffffffffffffffffffffffffffffffffffffff1673ffffffffffffffffffffffffffffffffffffffff1681526020018281526020019250505060405180910390a1600090505b81811015611bff576001601860008584815181101515611bc357fe5b90602001906020020151815260200190815260200160002060006101000a81548160ff0219169083151502179055508080600101915050611ba7565b5b505050505050565b601181815481101515611c1757fe5b90600052602060002090600302016000915090508060000154908060010154908060020154905083565b600681815481101515611c5057fe5b90600052602060002090016000915090505481565b600260019054906101000a900460ff1681565b3373ffffffffffffffffffffffffffffffffffffffff16601560009054906101000a900473ffffffffffffffffffffffffffffffffffffffff1673ffffffffffffffffffffffffffffffffffffffff16141515611cd457600080fd5b80600a8190555050565b3373ffffffffffffffffffffffffffffffffffffffff16601560009054906101000a900473ffffffffffffffffffffffffffffffffffffffff1673ffffffffffffffffffffffffffffffffffffffff16141515611d3a57600080fd5b600f60008381526020019081526020016000206000018054806001018281611d629190613a55565b9160005260206000209001600083909190915055505050565b60045481565b6000611d8b612f3d565b9050611d9932848334613096565b5060008273ffffffffffffffffffffffffffffffffffffffff1614158015611ded57508173ffffffffffffffffffffffffffffffffffffffff163273ffffffffffffffffffffffffffffffffffffffff1614155b15611e0057611dfe82848334613096565b505b505050565b3373ffffffffffffffffffffffffffffffffffffffff16601560009054906101000a900473ffffffffffffffffffffffffffffffffffffffff1673ffffffffffffffffffffffffffffffffffffffff16141515611e6157600080fd5b80601960008460ff168152602001908152602001600020600001600082825401925050819055505050565b600c5481565b600260009054906101000a900460ff1681565b60055481565b6000600680549050905090565b60003373ffffffffffffffffffffffffffffffffffffffff16601560009054906101000a900473ffffffffffffffffffffffffffffffffffffffff1673ffffffffffffffffffffffffffffffffffffffff16141515611f1657600080fd5b600f60008360ff168152602001908152602001600020600101549050919050565b60003373ffffffffffffffffffffffffffffffffffffffff16601560009054906101000a900473ffffffffffffffffffffffffffffffffffffffff1673ffffffffffffffffffffffffffffffffffffffff16141515611f9557600080fd5b601180549050905090565b601681815481101515611faf57fe5b90600052602060002090600202016000915090508060000160009054906101000a900473ffffffffffffffffffffffffffffffffffffffff16908060010154905082565b600d5481565b6000809054906101000a900473ffffffffffffffffffffffffffffffffffffffff1681565b6000612028613a2d565b601360009054906101000a900473ffffffffffffffffffffffffffffffffffffffff1673ffffffffffffffffffffffffffffffffffffffff168473ffffffffffffffffffffffffffffffffffffffff1614151561208457600080fd5b6000835114806120a65750600760029054906101000a900460ff1660ff168351145b15156120b157600080fd5b600354858115156120be57fe5b0491506000821115156120d057600080fd5b6000835114156120ef576120e86001430360006114ec565b90506120f3565b8290505b6120ff86828488613096565b50505050505050565b60003373ffffffffffffffffffffffffffffffffffffffff16601560009054906101000a900473ffffffffffffffffffffffffffffffffffffffff1673ffffffffffffffffffffffffffffffffffffffff1614151561216657600080fd5b601960008360ff168152602001908152602001600020600101549050919050565b82601260006101000a81548173ffffffffffffffffffffffffffffffffffffffff021916908373ffffffffffffffffffffffffffffffffffffffff16021790555081601360006101000a81548173ffffffffffffffffffffffffffffffffffffffff021916908373ffffffffffffffffffffffffffffffffffffffff16021790555080601460006101000a81548173ffffffffffffffffffffffffffffffffffffffff021916908373ffffffffffffffffffffffffffffffffffffffff160217905550326000806101000a81548173ffffffffffffffffffffffffffffffffffffffff021916908373ffffffffffffffffffffffffffffffffffffffff160217905550505050565b600b5481565b3373ffffffffffffffffffffffffffffffffffffffff16601560009054906101000a900473ffffffffffffffffffffffffffffffffffffffff1673ffffffffffffffffffffffffffffffffffffffff161415156122f157600080fd5b8060178190555050565b600760009054906101000a900460ff1681565b60015481565b3373ffffffffffffffffffffffffffffffffffffffff16601560009054906101000a900473ffffffffffffffffffffffffffffffffffffffff1673ffffffffffffffffffffffffffffffffffffffff1614151561237057600080fd5b60008273ffffffffffffffffffffffffffffffffffffffff1614158015612398575060008114155b1561247657601360009054906101000a900473ffffffffffffffffffffffffffffffffffffffff1673ffffffffffffffffffffffffffffffffffffffff1663a9059cbb83836040518363ffffffff167c0100000000000000000000000000000000000000000000000000000000028152600401808373ffffffffffffffffffffffffffffffffffffffff1673ffffffffffffffffffffffffffffffffffffffff16815260200182815260200192505050600060405180830381600087803b151561246157600080fd5b6102c65a03f1151561247257600080fd5b5050505b5050565b600e6020528060005260406000206000915090505481565b60003373ffffffffffffffffffffffffffffffffffffffff16601560009054906101000a900473ffffffffffffffffffffffffffffffffffffffff1673ffffffffffffffffffffffffffffffffffffffff161415156124f057600080fd5b600f60008360ff168152602001908152602001600020600201549050919050565b3373ffffffffffffffffffffffffffffffffffffffff16601560009054906101000a900473ffffffffffffffffffffffffffffffffffffffff1673ffffffffffffffffffffffffffffffffffffffff1614151561256d57600080fd5b80601960008460ff168152602001908152602001600020600001819055505050565b60003373ffffffffffffffffffffffffffffffffffffffff16601560009054906101000a900473ffffffffffffffffffffffffffffffffffffffff1673ffffffffffffffffffffffffffffffffffffffff161415156125ed57600080fd5b60118260ff168154811015156125ff57fe5b9060005260206000209060030201600201549050919050565b60035481565b3373ffffffffffffffffffffffffffffffffffffffff16601560009054906101000a900473ffffffffffffffffffffffffffffffffffffffff1673ffffffffffffffffffffffffffffffffffffffff1614151561267a57600080fd5b80600f60008460ff168152602001908152602001600020600101819055505050565b3373ffffffffffffffffffffffffffffffffffffffff16601560009054906101000a900473ffffffffffffffffffffffffffffffffffffffff1673ffffffffffffffffffffffffffffffffffffffff161415156126f857600080fd5b8060088190555050565b601a60009054906101000a900460ff1681565b60003373ffffffffffffffffffffffffffffffffffffffff16601560009054906101000a900473ffffffffffffffffffffffffffffffffffffffff1673ffffffffffffffffffffffffffffffffffffffff1614151561277357600080fd5b601680549050905090565b60003373ffffffffffffffffffffffffffffffffffffffff16601560009054906101000a900473ffffffffffffffffffffffffffffffffffffffff1673ffffffffffffffffffffffffffffffffffffffff161415156127dc57600080fd5b601960008360ff168152602001908152602001600020600001549050919050565b600a5481565b3373ffffffffffffffffffffffffffffffffffffffff16601560009054906101000a900473ffffffffffffffffffffffffffffffffffffffff1673ffffffffffffffffffffffffffffffffffffffff1614151561285f57600080fd5b80601a60006101000a81548160ff0219169083600781111561287d57fe5b021790555050565b3373ffffffffffffffffffffffffffffffffffffffff16601560009054906101000a900473ffffffffffffffffffffffffffffffffffffffff1673ffffffffffffffffffffffffffffffffffffffff161415156128e157600080fd5b80601960008460ff168152602001908152602001600020600101600082825401925050819055505050565b3373ffffffffffffffffffffffffffffffffffffffff16601560009054906101000a900473ffffffffffffffffffffffffffffffffffffffff1673ffffffffffffffffffffffffffffffffffffffff1614151561296857600080fd5b80600b8190555050565b60003373ffffffffffffffffffffffffffffffffffffffff16601560009054906101000a900473ffffffffffffffffffffffffffffffffffffffff1673ffffffffffffffffffffffffffffffffffffffff161415156129d057600080fd5b600f60008460ff168152602001908152602001600020600001828154811015156129f657fe5b906000526020600020900154905092915050565b600f6020528060005260406000206000915090508060010154908060020154905082565b601260009054906101000a900473ffffffffffffffffffffffffffffffffffffffff1681565b60085481565b60098054600181600116156101000203166002900480601f016020809104026020016040519081016040528092919081815260200182805460018160011615610100020316600290048015612af05780601f10612ac557610100808354040283529160200191612af0565b820191906000526020600020905b815481529060010190602001808311612ad357829003601f168201915b505050505081565b601560009054906101000a900473ffffffffffffffffffffffffffffffffffffffff1681565b6000612b28613a2d565b6000803373ffffffffffffffffffffffffffffffffffffffff16601560009054906101000a900473ffffffffffffffffffffffffffffffffffffffff1673ffffffffffffffffffffffffffffffffffffffff16141515612b8757600080fd5b60098054600181600116156101000203166002900480601f016020809104026020016040519081016040528092919081815260200182805460018160011615610100020316600290048015612c1d5780601f10612bf257610100808354040283529160200191612c1d565b820191906000526020600020905b815481529060010190602001808311612c0057829003601f168201915b50505050509250602091508251821115612c3657825191505b600090505b81811015612d02576008810260ff7f0100000000000000000000000000000000000000000000000000000000000000028483815181101515612c7957fe5b9060200101517f010000000000000000000000000000000000000000000000000000000000000090047f010000000000000000000000000000000000000000000000000000000000000002167effffffffffffffffffffffffffffffffffffffffffffffffffffffffffffff1916600019169060020a9004841793508080600101915050612c3b565b50505090565b3373ffffffffffffffffffffffffffffffffffffffff16601560009054906101000a900473ffffffffffffffffffffffffffffffffffffffff1673ffffffffffffffffffffffffffffffffffffffff16141515612d6457600080fd5b818160099190612d75929190613a81565b505050565b600080612d85613a41565b6000612dc0868680806020026020016040519081016040528093929190818152602001838360200280828437820191505050505050886136d7565b8093508194508295505050508293505050509392505050565b6000809054906101000a900473ffffffffffffffffffffffffffffffffffffffff1673ffffffffffffffffffffffffffffffffffffffff163373ffffffffffffffffffffffffffffffffffffffff16141515612e3457600080fd5b806000806101000a81548173ffffffffffffffffffffffffffffffffffffffff021916908373ffffffffffffffffffffffffffffffffffffffff16021790555050565b60186020528060005260406000206000915054906101000a900460ff1681565b60106020528060005260406000206000915090508060010154908060020154905082565b60003373ffffffffffffffffffffffffffffffffffffffff16601560009054906101000a900473ffffffffffffffffffffffffffffffffffffffff1673ffffffffffffffffffffffffffffffffffffffff16141515612f1957600080fd5b600f60008360ff168152602001908152602001600020600001805490509050919050565b6000806007811115612f4b57fe5b601a60009054906101000a900460ff166007811115612f6657fe5b141515612f7257600080fd5b60015443101515612f8257600080fd5b6000601360009054906101000a900473ffffffffffffffffffffffffffffffffffffffff1673ffffffffffffffffffffffffffffffffffffffff1614151515612fca57600080fd5b60035434811515612fd757fe5b049050600081111515612fe957600080fd5b601360009054906101000a900473ffffffffffffffffffffffffffffffffffffffff1673ffffffffffffffffffffffffffffffffffffffff1663a6f2ae3a346040518263ffffffff167c01000000000000000000000000000000000000000000000000000000000281526004016000604051808303818588803b151561306e57600080fd5b6125ee5a03f1151561307f57600080fd5b5050505034600d6000828254019250508190555090565b6000806000600760019054906101000a900460ff16600760009054906101000a900460ff160160ff1686511415156130cd57600080fd5b600091505b600760009054906101000a900460ff1660ff168260ff16101561322c576001868360ff1681518110151561310257fe5b9060200101517f010000000000000000000000000000000000000000000000000000000000000090047f0100000000000000000000000000000000000000000000000000000000000000027f0100000000000000000000000000000000000000000000000000000000000000900460ff16101580156132145750600260009054906101000a900460ff1660ff16868360ff168151811015156131a057fe5b9060200101517f010000000000000000000000000000000000000000000000000000000000000090047f0100000000000000000000000000000000000000000000000000000000000000027f0100000000000000000000000000000000000000000000000000000000000000900460ff1611155b151561321f57600080fd5b81806001019250506130d2565b600760009054906101000a900460ff1691505b85518260ff161015613388576001868360ff1681518110151561325e57fe5b9060200101517f010000000000000000000000000000000000000000000000000000000000000090047f0100000000000000000000000000000000000000000000000000000000000000027f0100000000000000000000000000000000000000000000000000000000000000900460ff16101580156133705750600260019054906101000a900460ff1660ff16868360ff168151811015156132fc57fe5b9060200101517f010000000000000000000000000000000000000000000000000000000000000090047f0100000000000000000000000000000000000000000000000000000000000000027f0100000000000000000000000000000000000000000000000000000000000000900460ff1611155b151561337b57600080fd5b818060010192505061323f565b60008511151561339757600080fd5b601460009054906101000a900473ffffffffffffffffffffffffffffffffffffffff1673ffffffffffffffffffffffffffffffffffffffff1663775ed63d8888886000604051602001526040518463ffffffff167c0100000000000000000000000000000000000000000000000000000000028152600401808473ffffffffffffffffffffffffffffffffffffffff1673ffffffffffffffffffffffffffffffffffffffff16815260200180602001838152602001828103825284818151815260200191508051906020019080838360005b83811015613484578082015181840152602081019050613469565b50505050905090810190601f1680156134b15780820380516001836020036101000a031916815260200191505b50945050505050602060405180830381600087803b15156134d157600080fd5b6102c65a03f115156134e257600080fd5b505050604051805190509050600680548060010182816135029190613a55565b916000526020600020900160008390919091505550601260009054906101000a900473ffffffffffffffffffffffffffffffffffffffff1673ffffffffffffffffffffffffffffffffffffffff16637266a2326000604051602001526040518163ffffffff167c0100000000000000000000000000000000000000000000000000000000028152600401602060405180830381600087803b15156135a557600080fd5b6102c65a03f115156135b657600080fd5b505050604051805190506005819055507f5668ef0a105003526dc9fcca87fdecfef80b94dc11daaab96ac3b953b3484ff86001548787848b436005548b60405180898152602001806020018881526020018781526020018673ffffffffffffffffffffffffffffffffffffffff1673ffffffffffffffffffffffffffffffffffffffff168152602001858152602001848152602001838152602001828103825289818151815260200191508051906020019080838360005b8381101561368957808201518184015260208101905061366e565b50505050905090810190601f1680156136b65780820380516001836020036101000a031916815260200191505b50995050505050505050505060405180910390a18092505050949350505050565b60006136e1613a41565b60008060008060008060006136f4613a41565b60008060008099508e5160405180591061370b5750595b908082528060200260200182016040525093506000925060006005541415156139b457600091505b8e5182101561399f578e8281518110151561374a57fe5b906020019060200201519050601260009054906101000a900473ffffffffffffffffffffffffffffffffffffffff1673ffffffffffffffffffffffffffffffffffffffff16637dc379fa82600060405160a001526040518263ffffffff167c01000000000000000000000000000000000000000000000000000000000281526004018082815260200191505060a060405180830381600087803b15156137ef57600080fd5b6102c65a03f1151561380057600080fd5b505050604051805190602001805190602001805190602001805190602001805190508367ffffffffffffffff169350809950819a50829b50839c50849d505050505050600015156018600083815260200190815260200160002060009054906101000a900460ff161515148015613878575060015485105b801561396257508d73ffffffffffffffffffffffffffffffffffffffff16601260009054906101000a900473ffffffffffffffffffffffffffffffffffffffff1673ffffffffffffffffffffffffffffffffffffffff16636352211e836000604051602001526040518263ffffffff167c010000000000000000000000000000000000000000000000000000000002815260040180828152602001915050602060405180830381600087803b151561392f57600080fd5b6102c65a03f1151561394057600080fd5b5050506040518051905073ffffffffffffffffffffffffffffffffffffffff16145b1561399257858a01995080848481518110151561397b57fe5b906020019060200201818152505082806001019350505b8180600101925050613733565b600554600a548b028115156139b057fe5b049c505b839b50829a50505050505050505050509250925092565b6040805190810160405280600073ffffffffffffffffffffffffffffffffffffffff168152602001600081525090565b815481835581811511613a2857600202816002028360005260206000209182019101613a279190613b01565b5b505050565b602060405190810160405280600081525090565b602060405190810160405280600081525090565b815481835581811511613a7c57818360005260206000209182019101613a7b9190613b4f565b5b505050565b828054600181600116156101000203166002900490600052602060002090601f016020900481019282601f10613ac257803560ff1916838001178555613af0565b82800160010185558215613af0579182015b82811115613aef578235825591602001919060010190613ad4565b5b509050613afd9190613b4f565b5090565b613b4c91905b80821115613b4857600080820160006101000a81549073ffffffffffffffffffffffffffffffffffffffff0219169055600182016000905550600201613b07565b5090565b90565b613b7191905b80821115613b6d576000816000905550600101613b55565b5090565b90565b6000816001600760019054906101000a900460ff160160ff168402019050929150505600a165627a7a723058203059390442b95f04951246ad5ef0d16ed585127ee5398c71fed8585b5c1f5b870029",
  "source": "pragma solidity ^0.4.4;\nimport \"./owned.sol\";\nimport \"./Interface.sol\";\n\ncontract ChainLotPool is owned{\n\tuint public poolBlockNumber;\n\n\tuint8 public maxWhiteNumber; //70;\n\tuint8 public maxYellowNumber; //25;\n\tuint public etherPerTicket; //10**18/100;\n\n\tuint public allTicketsCount;\n\tuint public totalTicketCountSum;\n\tuint[] public allTicketsId;\n\n\tuint8 public maxWhiteNumberCount;\n\tuint8 public maxYellowNumberCount;\n\tuint8 public totalNumberCount;\n\t\n\tuint public lastMatchedTicketIndex;\n\tbytes public jackpotNumbers;\n\tuint public historyCut;\n\tuint public devCut;\n\tuint public futureCut;\n\tuint public tokenSum;\n\n\tmapping(uint => uint) public awardRulesIndex;\n  \tmapping(uint => winnerTicketQueue) public winnerTickets;\n  \tmapping(uint => winnerTicketQueue) public distributeTickets;\n\tawardRule[] public awardRules;\n\n  \tChainLotTicketInterface public chainLotTicket;\n  \tCLTokenInterface public clToken;\n  \tChainLotInterface public  chainLot;\n  \taddress public drawingToolAddress;\n  \n  \tawardData[] public toBeAward;\n  \tuint public awardIndex;\n\n  \tmapping(uint => bool) public withdrawed;\n\n\tstruct awardRule{\n\t\tuint whiteNumberCount;\n\t\tuint yellowNumberCount;\n\t\tuint awardEther;\n\t}\n\n\tstruct awardData {\n\t\taddress user;\n\t\tuint value;\n\t}\n\n  \tstruct winnerTicketQueue {\n    \tuint[] ticketIds;\n    \tuint processedIndex;\n    \tuint distributedIndex;\n  \t}\n\n  \tstruct awardResultByRule {\n  \t\tuint totalWinnersAward;\n  \t\tuint totalTicketCount;\n \t}\n  \tmapping(uint => awardResultByRule) awardResults;\n\n  \tenum DrawingStage {INITIED, PREPARED, MATCHED, CALCULATED, SPLITED, DISTRIBUTED, SENT, UNAWARED_TRANSFERED}\n\tDrawingStage public stage = DrawingStage.INITIED; \n\n  \t\n\n  \tevent BuyTicket(uint poolBlockNumber, bytes numbers, uint ticketCount, uint ticketId, address user, uint blockNumber, uint totalTicketCountSum, uint value);\n\tevent PrepareAward(bytes jackpotNumbers, uint poolBlockNumber, uint allTicketsCount);\n\tevent ToBeAward(bytes jackpotNumbers, bytes32 ticketNumber, uint ticketCount, uint ticketId, address user, uint blockNumber, uint awardValue);\n\tevent MatchAwards(bytes jackpotNumbers, uint lastMatchedTicketIndex, uint endIndex, uint allTicketsCount);\n\tevent MatchRule(bytes jackpotNumbers, bytes32 ticketNumber, uint ticketCount, uint ticketId, uint blockNumber, uint ruleId, uint ruleEther);\n\tevent DistributeAwards(uint ruleId, uint toDistCount, uint distributedIndex, uint ticketIdsLength, uint awardRulesLength);\n  \tevent TransferAward(address winner, uint value);\n  \tevent TransferDevCut(address dev, uint value);\n  \tevent TransferHistoryCut(address user, uint value);\n  \tevent AddHistoryCut(uint added, uint total);\n  \tevent CalculateAwards(uint8 ruleId, uint winnersTicketCount, uint awardEther, uint totalWinnersAward, uint totalTicketCount);\n  \tevent SplitAward(uint8 ruleId, uint totalWinnersAward, uint leftBalance);\n  \tevent TransferUnawarded(address from, address to, uint value);\n  \tevent GenRandomNumbers(uint random, uint blockNumber, uint hash, uint addressInt, uint shift, uint timestamp, uint difficulty);\n\n  \tfunction ChainLotPool(uint _poolBlockNumber,\n  \t\t\t\t\t\tuint8 _maxWhiteNumber, \n\t\t\t\t\t\tuint8 _maxYellowNumber, \n\t\t\t\t\t\tuint8 _whiteNumberCount, \n\t\t\t\t\t\tuint8 _yellowNumberCount, \n\t\t\t\t\t\tuint _etherPerTicket, \n\t\t\t\t\t\tuint[] awardRulesArray) public {\n  \t\tpoolBlockNumber = _poolBlockNumber;\n  \t\tmaxWhiteNumber = _maxWhiteNumber;\n\t\tmaxYellowNumber = _maxYellowNumber;\n\t\tmaxWhiteNumberCount = _whiteNumberCount;\n\t\tmaxYellowNumberCount = _yellowNumberCount;\n\t\tetherPerTicket = _etherPerTicket;\n\t\ttotalNumberCount = maxWhiteNumberCount + maxYellowNumberCount;\n\t\t\n\n\t\tfor(uint i=0; i<awardRulesArray.length; i+=3) {\n\t\t\trequire(i+3 <= awardRulesArray.length);\n\t\t\trequire(awardRulesArray[i]>=0 && awardRulesArray[i]<=maxWhiteNumberCount);\n\t\t\trequire(awardRulesArray[i+1]>=0 && awardRulesArray[i+1]<=maxYellowNumberCount);\n\t\t\tawardRules.push(awardRule(awardRulesArray[i],awardRulesArray[i+1],awardRulesArray[i+2]));\n\t\t\tawardRulesIndex[getRuleKey(awardRulesArray[i],awardRulesArray[i+1])] = awardRules.length;\n\t\t}\n\n    \tfor(i=0; i<awardRules.length; i++) {\n      \t\twinnerTickets[i].processedIndex = 0;\n      \t\twinnerTickets[i].distributedIndex = 0;\n    \t}\n\n    \tawardIndex = 0;\n    \t\n  \t}\n\n  \tfunction setPool(ChainLotTicketInterface _chainLotTicket,\n\t\t\t\t\t\tCLTokenInterface _clToken,\n\t\t\t\t\t\tChainLotInterface _chainLot) public {\n  \t\tchainLotTicket = _chainLotTicket;\n\t\tclToken = _clToken;\n\t\tchainLot = _chainLot;\n\t\towner = tx.origin;\n  \t}\n\n  \tfunction setDrawingToolAddress(address _drawingToolAddress) onlyOwner external {\n  \t\tdrawingToolAddress = _drawingToolAddress;\n  \t}\n\n  \tmodifier onlyDrawingTool {\n        require(drawingToolAddress == msg.sender);\n        _;\n  \t}\n\n  \tfunction getRuleKey(uint _whiteNumberCount, uint _yellowNumberCount) internal view returns(uint index){\n\t\treturn _whiteNumberCount*(maxYellowNumberCount+1)+_yellowNumberCount;\n\t}\n\n\t//numbers: uint8[6] \n\t//\t\t\t1-5: <=maxWhiteNumber\n\t//\t\t\t6: <=maxYellowNumber\n\tfunction buyTicket(bytes numbers, address referer) payable public{\n\t\tuint ticketCount = beforeBuy();\n\n\t    _buyTicket(tx.origin, numbers, ticketCount, msg.value);\n\t    if(referer != 0 && tx.origin != referer) {\n\t    \t_buyTicket(referer, numbers, ticketCount, msg.value);\t\n\t    }\n\t}\n\n\tevent LOG(uint msg);\n\n\t//random numbers\n\t//random seed: number-1 block hash x user address\n\tfunction buyRandom(uint8 numberCount, address referer) payable public{\n\t\trequire(numberCount > 0);\n\n\t\tuint ticketCount = beforeBuy();\n\n\t\tif(numberCount > ticketCount) numberCount = uint8(ticketCount);\n\t\tuint ticketPerNumber = ticketCount / numberCount;\n\n\t\tfor(uint8 i=0; i<numberCount; i++) {\n\t\t\tbytes memory numbers = genRandomNumbers(block.number - 1, i*7);\n\n\t\t\tuint buyCount = ticketPerNumber;\n\t\t\tif(numberCount > 1 && i == numberCount - 1) \n\t\t\t\tbuyCount = ticketCount - ticketPerNumber * (numberCount - 1);\n\n\t\t\t_buyTicket(tx.origin, numbers, buyCount, msg.value);\n\t\t\tif(referer != 0 && tx.origin != referer) {\n\t    \t\t_buyTicket(referer, numbers, buyCount, msg.value);\t\n\t    }\n\t\t}\n\t}\n\n\tfunction beforeBuy() internal returns(uint ticketCount) {\n\t\trequire(stage == DrawingStage.INITIED);\n\t\trequire(block.number < poolBlockNumber);\n\t\trequire(address(clToken) != 0);\n\n\t   \tticketCount = msg.value/etherPerTicket;\n\t    require(ticketCount > 0);\n\n\t    clToken.buy.value(msg.value)();\n\t    tokenSum += msg.value;\n\t}\n\n\tfunction receiveApproval(address _from, uint _value, address _token, bytes _extraData) public {\n\t\trequire(_token == address(clToken));\n\t\trequire(_extraData.length ==0 || _extraData.length == totalNumberCount);\n\n\t\tuint ticketCount = _value/etherPerTicket;\n\t\trequire(ticketCount > 0);\n\t\tbytes memory numbers;\n\t\tif(_extraData.length == 0) {\n\t\t\tnumbers = genRandomNumbers(block.number - 1, 0);\n\t\t}\n\t\telse {\n\t\t\tnumbers = _extraData;\n\t\t}\t\n\n\t\t\n\t\t_buyTicket(_from, numbers, ticketCount, _value);\n\t}\n\n  \tfunction _buyTicket(address _from, bytes numbers, uint ticketCount, uint _value) internal returns(uint _ticketId){\n\t    require(numbers.length == maxWhiteNumberCount+maxYellowNumberCount);\n\t    for(uint8 i=0; i<maxWhiteNumberCount; i++) {\n\t      require(uint8(numbers[i])>=1 && uint8(numbers[i])<=maxWhiteNumber); \n\t    }     \n\t    for(i=maxWhiteNumberCount; i<numbers.length; i++){\n\t      require(uint8(numbers[i])>=1&&uint8(numbers[i])<=maxYellowNumber);\n\t    }\n\t    \n\t    require(ticketCount > 0);\n\t    uint ticketId = chainLot.mint(_from, numbers, ticketCount);\n\t    allTicketsId.push(ticketId);\n\t    totalTicketCountSum = chainLotTicket.totalTicketCountSum();\n\t    BuyTicket(poolBlockNumber, numbers, ticketCount, ticketId, _from, block.number, totalTicketCountSum, _value);\n\t    return ticketId;\n\t}\n\n\t//callback from utils\n\tfunction setJackpotNumbers(bytes _jackpotNumbers) onlyDrawingTool external {\n\t\tjackpotNumbers = _jackpotNumbers;\n\t}\n\n\tfunction getAwardRulesLength() onlyDrawingTool external view returns(uint length) {\n\t\treturn awardRules.length;\n\t}\n\n\tfunction pushWinnerTicket(uint ruleId, uint ticketId) onlyDrawingTool external {\n\t\twinnerTickets[ruleId].ticketIds.push(ticketId);\n\t}\n\n\tfunction getJackpotNumbers() onlyDrawingTool external view returns (bytes32 numbers) {\n\t\tbytes memory mJackpotNumbers = jackpotNumbers;\n\t\tuint bytesLength = 32;\n    \tif(bytesLength > mJackpotNumbers.length) bytesLength = mJackpotNumbers.length;\n    \tfor(uint i=0; i<bytesLength; i++) {\n      \t\tnumbers |= bytes32(mJackpotNumbers[i]&0xFF)>>(i*8);\n    \t}\n\t}\n\n\tfunction getWinnerTicketCount(uint8 ruleId) onlyDrawingTool external view returns(uint count) {\n\t\tcount = winnerTickets[ruleId].ticketIds.length;\n\t}\n\n\tfunction getProcessedIndex(uint8 ruleId) onlyDrawingTool external view returns(uint index) {\n\t\tindex = winnerTickets[ruleId].processedIndex;\n\t}\n\n\tfunction getAwardEther(uint8 ruleId) onlyDrawingTool external view returns(uint _ether) {\n\t\t_ether = awardRules[ruleId].awardEther;\n\t}\n\n\tfunction addTotalWinnersAward(uint8 ruleId, uint totalWinnersAward) onlyDrawingTool external {\n\t\t awardResults[ruleId].totalWinnersAward += totalWinnersAward;\n\t}\n\n\tfunction addTotalTicketCount(uint8 ruleId, uint totalTicketCount) onlyDrawingTool external {\n\t\t awardResults[ruleId].totalTicketCount += totalTicketCount;\n\t}\n\n\tfunction setStage(DrawingStage _stage) onlyDrawingTool external {\n\t\tstage = _stage;\n\t}\n\n\tfunction setProcessedIndex(uint8 ruleId, uint index) onlyDrawingTool external {\n\t\twinnerTickets[ruleId].processedIndex = index;\n\t}\n\n\tfunction setLastMatchedTicketIndex(uint index) onlyDrawingTool external {\n\t\tlastMatchedTicketIndex = index;\n\t}\n\n\tfunction getWinnerTicket(uint8 ruleId, uint j) onlyDrawingTool external view returns(uint id) {\n\t\tid = winnerTickets[ruleId].ticketIds[j];\n\t}\n\n\tfunction getTotalWinnersAward(uint8 ruleId) onlyDrawingTool external view returns(uint award) {\n\t\taward = awardResults[ruleId].totalWinnersAward;\n\t}\n\n\tfunction setTotalWinnersAward(uint8 ruleId, uint award) external onlyDrawingTool {\n\t\tawardResults[ruleId].totalWinnersAward = award;\n\t}\n\n\tfunction getDistributedIndex(uint8 ruleId) external onlyDrawingTool view returns(uint index) {\n\t\tindex = winnerTickets[ruleId].distributedIndex;\n\t}\n\n\tfunction setDistributedIndex(uint8 ruleId, uint index) onlyDrawingTool external {\n\t\twinnerTickets[ruleId].distributedIndex = index;\n\t}\n\n\tfunction getTotalTicketCount(uint8 ruleId) onlyDrawingTool external view returns(uint count) {\n\t\tcount = awardResults[ruleId].totalTicketCount;\n\t}\n\n\tfunction addToBeAward(uint ticketId, uint awardValue) onlyDrawingTool external returns(address userAddress) {\n\t\tuserAddress = chainLotTicket.ownerOf(ticketId);\n\t\tawardData memory ad = awardData(userAddress, awardValue);\n\t    toBeAward.push(ad);\n\t}\n\n\tfunction getToBeAwardLength() onlyDrawingTool external view returns(uint length) {\n\t\tlength = toBeAward.length;\n\t}\n\n\tfunction transfer(address to, uint value) onlyDrawingTool external {\n\t\tif(to != 0 && value != 0)\n\t\t\tclToken.transfer(to, value);\n\t}\n\n\tfunction setHistoryCut(uint cut) onlyDrawingTool external {\n\t\thistoryCut = cut;\n\t}\n\n\tfunction setDevCut(uint cut) onlyDrawingTool external {\n\t\tdevCut = cut;\n\t}\n\n\tfunction setFutureCut(uint cut) onlyDrawingTool external {\n\t\tfutureCut = cut;\n\t}\n\n\tfunction setAwardIndex(uint index) onlyDrawingTool external {\n\t\tawardIndex = index;\n\t}\n\n\tfunction withdrawHistoryCut(uint[] ticketIds) external {\n\t\tuint userCut; uint[] memory cutIdList; uint cutCount;\n\t\t(userCut, cutIdList, cutCount) = calculateUserHistoryCut(ticketIds, tx.origin);\n\t\tif(userCut > 0) {\n\t\t\tclToken.transfer(tx.origin, userCut);\n\t\t\tTransferHistoryCut(tx.origin, userCut);\n\t\t\tfor(uint i=0; i<cutCount; i++) {\n\t\t\t\twithdrawed[cutIdList[i]] = true;\n\t\t\t}\n\t\t}\t  \t\n\t}\n\n\tfunction listUserHistoryCut(address user, uint[] ticketIds) external view returns(uint _historyCut) {\n\t\tuint userCut; uint[] memory cutIdList; uint cutCount;\n\t\t(userCut, cutIdList, cutCount) = calculateUserHistoryCut(ticketIds, user);\n\t\treturn userCut;\n\t}\n\n\tfunction calculateUserHistoryCut(uint[] ticketIds, address user) internal view returns(uint _cut, uint[] _cutIdList, uint _cutCount) {\n\t\tuint historyTicketCountSum = 0;\n\t  \taddress mb; uint ma; bytes32 numbers; uint count; uint blockNumber;\n\t  \tuint[] memory cutIdList = new uint[](ticketIds.length);\n\t  \tuint cutCount = 0;\n\n\t  \tif(totalTicketCountSum != 0) {\n\t\t  \tfor(uint i=0; i<ticketIds.length; i++) {\n\t\t  \t\tuint tid = ticketIds[i];\n\t\t  \t\t(mb, ma, numbers, count, blockNumber) = chainLotTicket.getTicket(tid);\n\t\t  \t\tif(withdrawed[tid] == false \n\t\t  \t\t\t&& blockNumber < poolBlockNumber \n\t\t  \t\t\t&& chainLotTicket.ownerOf(tid) == user) {\n\t\t  \t\t\thistoryTicketCountSum += count;\t\n\t\t  \t\t\tcutIdList[cutCount] = tid;\n\t\t  \t\t\tcutCount ++;\n\t\t  \t\t}\t\t\n\t\t  \t}\n\t\t  \t_cut = historyTicketCountSum * historyCut / totalTicketCountSum;\n\t  \t}\n\t  \t\n\t  \t_cutIdList = cutIdList;\n\t  \t_cutCount = cutCount;\n\t}\n\n\tfunction genRandomNumbers(uint blockNumber, uint shift) public returns(bytes _numbers){\n\t\trequire(blockNumber < block.number);\n\t\tuint hash = uint(block.blockhash(blockNumber));\n\t\tuint addressInt = uint(msg.sender);\n\t\tuint256 random = addressInt * hash;\n\t\trandom = uint256(keccak256(block.timestamp, block.difficulty, hash, addressInt));\n\t\tGenRandomNumbers(random, blockNumber, hash, addressInt, shift, block.timestamp, block.difficulty);\n\t\trequire(random != 0);\n\t\trandom = random >> shift;\n\t\tbytes memory numbers = new bytes(maxWhiteNumberCount+maxYellowNumberCount);\n\t\tfor(uint8 i=0;i<maxWhiteNumberCount;i++) {\n\t\t\tnumbers[i] = byte(random%maxWhiteNumber + 1);\n\t\t\trandom = random >> 8;\n\n\t\t}\n\t\tfor(i=maxWhiteNumberCount;i<numbers.length;i++) {\n\t\t\tnumbers[i] = byte(random%maxYellowNumber + 1);\n\t\t\trandom = random >> 8;\n\n\t\t}\n\t\treturn numbers;\n\t}\n\n\tfunction getAllTicketsCount() external view returns(uint count){\n\t\treturn allTicketsId.length;\n\t}\n\n}\n",
  "sourcePath": "/Users/phx/eth/chainlot/contracts/ChainLotPool.sol",
  "compiler": {
    "name": "solc",
    "version": "0.4.19+commit.c4cbbb05.Emscripten.clang"
  },
  "schemaVersion": "2.0.0",
  "updatedAt": "2018-06-30T02:44:12.513Z"
}