{
  "contractName": "ChainLot",
  "abi": [
    {
      "constant": true,
      "inputs": [],
      "name": "clToken",
      "outputs": [
        {
          "name": "",
          "type": "address"
        }
      ],
      "payable": false,
      "stateMutability": "view",
      "type": "function"
    },
    {
      "constant": true,
      "inputs": [],
      "name": "currentPoolIndex",
      "outputs": [
        {
          "name": "",
          "type": "uint256"
        }
      ],
      "payable": false,
      "stateMutability": "view",
      "type": "function"
    },
    {
      "constant": true,
      "inputs": [],
      "name": "clpFactory",
      "outputs": [
        {
          "name": "",
          "type": "address"
        }
      ],
      "payable": false,
      "stateMutability": "view",
      "type": "function"
    },
    {
      "constant": true,
      "inputs": [],
      "name": "totalNumberCount",
      "outputs": [
        {
          "name": "",
          "type": "uint8"
        }
      ],
      "payable": false,
      "stateMutability": "view",
      "type": "function"
    },
    {
      "constant": true,
      "inputs": [],
      "name": "maxYellowNumberCount",
      "outputs": [
        {
          "name": "",
          "type": "uint8"
        }
      ],
      "payable": false,
      "stateMutability": "view",
      "type": "function"
    },
    {
      "constant": true,
      "inputs": [],
      "name": "latestPoolBlockNumber",
      "outputs": [
        {
          "name": "",
          "type": "uint256"
        }
      ],
      "payable": false,
      "stateMutability": "view",
      "type": "function"
    },
    {
      "constant": true,
      "inputs": [],
      "name": "maxYellowNumber",
      "outputs": [
        {
          "name": "",
          "type": "uint8"
        }
      ],
      "payable": false,
      "stateMutability": "view",
      "type": "function"
    },
    {
      "constant": true,
      "inputs": [],
      "name": "currentPool",
      "outputs": [
        {
          "name": "",
          "type": "address"
        }
      ],
      "payable": false,
      "stateMutability": "view",
      "type": "function"
    },
    {
      "constant": true,
      "inputs": [],
      "name": "maxWhiteNumber",
      "outputs": [
        {
          "name": "",
          "type": "uint8"
        }
      ],
      "payable": false,
      "stateMutability": "view",
      "type": "function"
    },
    {
      "constant": true,
      "inputs": [],
      "name": "tokenSum",
      "outputs": [
        {
          "name": "",
          "type": "uint256"
        }
      ],
      "payable": false,
      "stateMutability": "view",
      "type": "function"
    },
    {
      "constant": true,
      "inputs": [],
      "name": "owner",
      "outputs": [
        {
          "name": "",
          "type": "address"
        }
      ],
      "payable": false,
      "stateMutability": "view",
      "type": "function"
    },
    {
      "constant": true,
      "inputs": [
        {
          "name": "",
          "type": "uint256"
        }
      ],
      "name": "chainlotPools",
      "outputs": [
        {
          "name": "",
          "type": "address"
        }
      ],
      "payable": false,
      "stateMutability": "view",
      "type": "function"
    },
    {
      "constant": true,
      "inputs": [],
      "name": "maxWhiteNumberCount",
      "outputs": [
        {
          "name": "",
          "type": "uint8"
        }
      ],
      "payable": false,
      "stateMutability": "view",
      "type": "function"
    },
    {
      "constant": true,
      "inputs": [
        {
          "name": "",
          "type": "address"
        }
      ],
      "name": "chainlotPoolsMap",
      "outputs": [
        {
          "name": "",
          "type": "bool"
        }
      ],
      "payable": false,
      "stateMutability": "view",
      "type": "function"
    },
    {
      "constant": true,
      "inputs": [],
      "name": "etherPerTicket",
      "outputs": [
        {
          "name": "",
          "type": "uint256"
        }
      ],
      "payable": false,
      "stateMutability": "view",
      "type": "function"
    },
    {
      "constant": true,
      "inputs": [],
      "name": "awardIntervalNumber",
      "outputs": [
        {
          "name": "",
          "type": "uint256"
        }
      ],
      "payable": false,
      "stateMutability": "view",
      "type": "function"
    },
    {
      "constant": true,
      "inputs": [],
      "name": "chainLotTicket",
      "outputs": [
        {
          "name": "",
          "type": "address"
        }
      ],
      "payable": false,
      "stateMutability": "view",
      "type": "function"
    },
    {
      "constant": false,
      "inputs": [
        {
          "name": "newOwner",
          "type": "address"
        }
      ],
      "name": "transferOwnership",
      "outputs": [],
      "payable": false,
      "stateMutability": "nonpayable",
      "type": "function"
    },
    {
      "inputs": [
        {
          "name": "_maxWhiteNumber",
          "type": "uint8"
        },
        {
          "name": "_maxYellowNumber",
          "type": "uint8"
        },
        {
          "name": "_whiteNumberCount",
          "type": "uint8"
        },
        {
          "name": "_yellowNumberCount",
          "type": "uint8"
        },
        {
          "name": "_etherPerTicket",
          "type": "uint256"
        },
        {
          "name": "_awardIntervalNumber",
          "type": "uint256"
        },
        {
          "name": "_awardRulesArray",
          "type": "uint256[]"
        }
      ],
      "payable": false,
      "stateMutability": "nonpayable",
      "type": "constructor"
    },
    {
      "anonymous": false,
      "inputs": [
        {
          "indexed": false,
          "name": "poolBlockNumber",
          "type": "uint256"
        },
        {
          "indexed": false,
          "name": "numbers",
          "type": "bytes"
        },
        {
          "indexed": false,
          "name": "ticketCount",
          "type": "uint256"
        },
        {
          "indexed": false,
          "name": "ticketId",
          "type": "uint256"
        },
        {
          "indexed": false,
          "name": "user",
          "type": "address"
        },
        {
          "indexed": false,
          "name": "blockNumber",
          "type": "uint256"
        },
        {
          "indexed": false,
          "name": "totalTicketCountSum",
          "type": "uint256"
        },
        {
          "indexed": false,
          "name": "value",
          "type": "uint256"
        }
      ],
      "name": "BuyTicket",
      "type": "event"
    },
    {
      "anonymous": false,
      "inputs": [
        {
          "indexed": false,
          "name": "jackpotNumbers",
          "type": "bytes"
        },
        {
          "indexed": false,
          "name": "poolBlockNumber",
          "type": "uint256"
        },
        {
          "indexed": false,
          "name": "allTicketsCount",
          "type": "uint256"
        }
      ],
      "name": "PrepareAward",
      "type": "event"
    },
    {
      "anonymous": false,
      "inputs": [
        {
          "indexed": false,
          "name": "jackpotNumbers",
          "type": "bytes"
        },
        {
          "indexed": false,
          "name": "ticketNumber",
          "type": "bytes32"
        },
        {
          "indexed": false,
          "name": "ticketCount",
          "type": "uint256"
        },
        {
          "indexed": false,
          "name": "ticketId",
          "type": "uint256"
        },
        {
          "indexed": false,
          "name": "user",
          "type": "address"
        },
        {
          "indexed": false,
          "name": "blockNumber",
          "type": "uint256"
        },
        {
          "indexed": false,
          "name": "awardValue",
          "type": "uint256"
        }
      ],
      "name": "ToBeAward",
      "type": "event"
    },
    {
      "anonymous": false,
      "inputs": [
        {
          "indexed": false,
          "name": "jackpotNumbers",
          "type": "bytes"
        },
        {
          "indexed": false,
          "name": "lastMatchedTicketIndex",
          "type": "uint256"
        },
        {
          "indexed": false,
          "name": "endIndex",
          "type": "uint256"
        },
        {
          "indexed": false,
          "name": "allTicketsCount",
          "type": "uint256"
        }
      ],
      "name": "MatchAwards",
      "type": "event"
    },
    {
      "anonymous": false,
      "inputs": [
        {
          "indexed": false,
          "name": "jackpotNumbers",
          "type": "bytes"
        },
        {
          "indexed": false,
          "name": "ticketNumber",
          "type": "bytes32"
        },
        {
          "indexed": false,
          "name": "ticketCount",
          "type": "uint256"
        },
        {
          "indexed": false,
          "name": "ticketId",
          "type": "uint256"
        },
        {
          "indexed": false,
          "name": "blockNumber",
          "type": "uint256"
        },
        {
          "indexed": false,
          "name": "ruleId",
          "type": "uint256"
        },
        {
          "indexed": false,
          "name": "ruleEther",
          "type": "uint256"
        }
      ],
      "name": "MatchRule",
      "type": "event"
    },
    {
      "anonymous": false,
      "inputs": [
        {
          "indexed": false,
          "name": "winner",
          "type": "address"
        },
        {
          "indexed": false,
          "name": "value",
          "type": "uint256"
        }
      ],
      "name": "TransferAward",
      "type": "event"
    },
    {
      "anonymous": false,
      "inputs": [
        {
          "indexed": false,
          "name": "dev",
          "type": "address"
        },
        {
          "indexed": false,
          "name": "value",
          "type": "uint256"
        }
      ],
      "name": "TransferDevCut",
      "type": "event"
    },
    {
      "anonymous": false,
      "inputs": [
        {
          "indexed": false,
          "name": "user",
          "type": "address"
        },
        {
          "indexed": false,
          "name": "value",
          "type": "uint256"
        }
      ],
      "name": "TransferHistoryCut",
      "type": "event"
    },
    {
      "anonymous": false,
      "inputs": [
        {
          "indexed": false,
          "name": "added",
          "type": "uint256"
        },
        {
          "indexed": false,
          "name": "total",
          "type": "uint256"
        }
      ],
      "name": "AddHistoryCut",
      "type": "event"
    },
    {
      "anonymous": false,
      "inputs": [
        {
          "indexed": false,
          "name": "ruleId",
          "type": "uint8"
        },
        {
          "indexed": false,
          "name": "winnersTicketCount",
          "type": "uint256"
        },
        {
          "indexed": false,
          "name": "awardEther",
          "type": "uint256"
        },
        {
          "indexed": false,
          "name": "totalWinnersAward",
          "type": "uint256"
        },
        {
          "indexed": false,
          "name": "totalTicketCount",
          "type": "uint256"
        }
      ],
      "name": "CalculateAwards",
      "type": "event"
    },
    {
      "anonymous": false,
      "inputs": [
        {
          "indexed": false,
          "name": "ruleId",
          "type": "uint8"
        },
        {
          "indexed": false,
          "name": "totalWinnersAward",
          "type": "uint256"
        },
        {
          "indexed": false,
          "name": "leftBalance",
          "type": "uint256"
        }
      ],
      "name": "SplitAward",
      "type": "event"
    },
    {
      "anonymous": false,
      "inputs": [
        {
          "indexed": false,
          "name": "currentPoolBlockNumber",
          "type": "uint256"
        },
        {
          "indexed": false,
          "name": "nextPoolBlockNumber",
          "type": "uint256"
        },
        {
          "indexed": false,
          "name": "length",
          "type": "uint256"
        }
      ],
      "name": "GenerateNewPool",
      "type": "event"
    },
    {
      "anonymous": false,
      "inputs": [
        {
          "indexed": false,
          "name": "from",
          "type": "address"
        },
        {
          "indexed": false,
          "name": "to",
          "type": "address"
        },
        {
          "indexed": false,
          "name": "value",
          "type": "uint256"
        }
      ],
      "name": "TransferUnawarded",
      "type": "event"
    },
    {
      "anonymous": false,
      "inputs": [
        {
          "indexed": false,
          "name": "currentPoolblockNumber",
          "type": "uint256"
        },
        {
          "indexed": false,
          "name": "currentPool",
          "type": "address"
        },
        {
          "indexed": false,
          "name": "currentPoolIndex",
          "type": "uint256"
        }
      ],
      "name": "SwitchPool",
      "type": "event"
    },
    {
      "anonymous": false,
      "inputs": [
        {
          "indexed": false,
          "name": "random",
          "type": "uint256"
        },
        {
          "indexed": false,
          "name": "blockNumber",
          "type": "uint256"
        },
        {
          "indexed": false,
          "name": "hash",
          "type": "uint256"
        },
        {
          "indexed": false,
          "name": "addressInt",
          "type": "uint256"
        },
        {
          "indexed": false,
          "name": "shift",
          "type": "uint256"
        },
        {
          "indexed": false,
          "name": "timestamp",
          "type": "uint256"
        },
        {
          "indexed": false,
          "name": "difficulty",
          "type": "uint256"
        }
      ],
      "name": "GenRandomNumbers",
      "type": "event"
    },
    {
      "anonymous": false,
      "inputs": [
        {
          "indexed": false,
          "name": "chainlotAddress",
          "type": "address"
        },
        {
          "indexed": false,
          "name": "poolAddress",
          "type": "address"
        }
      ],
      "name": "MigrateFrom",
      "type": "event"
    },
    {
      "anonymous": false,
      "inputs": [
        {
          "indexed": false,
          "name": "msg",
          "type": "uint256"
        }
      ],
      "name": "LOG",
      "type": "event"
    },
    {
      "constant": false,
      "inputs": [],
      "name": "newPool",
      "outputs": [],
      "payable": false,
      "stateMutability": "nonpayable",
      "type": "function"
    },
    {
      "constant": false,
      "inputs": [
        {
          "name": "numbers",
          "type": "bytes"
        },
        {
          "name": "referer",
          "type": "address"
        }
      ],
      "name": "buyTicket",
      "outputs": [],
      "payable": true,
      "stateMutability": "payable",
      "type": "function"
    },
    {
      "constant": false,
      "inputs": [
        {
          "name": "numberCount",
          "type": "uint8"
        },
        {
          "name": "referer",
          "type": "address"
        }
      ],
      "name": "buyRandom",
      "outputs": [],
      "payable": true,
      "stateMutability": "payable",
      "type": "function"
    },
    {
      "constant": false,
      "inputs": [
        {
          "name": "_owner",
          "type": "address"
        },
        {
          "name": "_numbers",
          "type": "bytes"
        },
        {
          "name": "_count",
          "type": "uint256"
        }
      ],
      "name": "mint",
      "outputs": [
        {
          "name": "",
          "type": "uint256"
        }
      ],
      "payable": false,
      "stateMutability": "nonpayable",
      "type": "function"
    },
    {
      "constant": false,
      "inputs": [
        {
          "name": "_from",
          "type": "address"
        },
        {
          "name": "_value",
          "type": "uint256"
        },
        {
          "name": "_token",
          "type": "address"
        },
        {
          "name": "_extraData",
          "type": "bytes"
        }
      ],
      "name": "receiveApproval",
      "outputs": [],
      "payable": false,
      "stateMutability": "nonpayable",
      "type": "function"
    },
    {
      "constant": false,
      "inputs": [
        {
          "name": "ticketAddress",
          "type": "address"
        }
      ],
      "name": "setChainLotTicketAddress",
      "outputs": [],
      "payable": false,
      "stateMutability": "nonpayable",
      "type": "function"
    },
    {
      "constant": false,
      "inputs": [
        {
          "name": "tokenAddress",
          "type": "address"
        }
      ],
      "name": "setCLTokenAddress",
      "outputs": [],
      "payable": false,
      "stateMutability": "nonpayable",
      "type": "function"
    },
    {
      "constant": false,
      "inputs": [
        {
          "name": "factoryAddress",
          "type": "address"
        }
      ],
      "name": "setChainLotPoolFactoryAddress",
      "outputs": [],
      "payable": false,
      "stateMutability": "nonpayable",
      "type": "function"
    },
    {
      "constant": false,
      "inputs": [
        {
          "name": "_drawingToolAddress",
          "type": "address"
        }
      ],
      "name": "setDrawingToolAddress",
      "outputs": [],
      "payable": false,
      "stateMutability": "nonpayable",
      "type": "function"
    },
    {
      "constant": false,
      "inputs": [
        {
          "name": "value",
          "type": "uint256"
        }
      ],
      "name": "withDrawDevCut",
      "outputs": [],
      "payable": false,
      "stateMutability": "nonpayable",
      "type": "function"
    },
    {
      "constant": true,
      "inputs": [],
      "name": "getPoolCount",
      "outputs": [
        {
          "name": "count",
          "type": "uint256"
        }
      ],
      "payable": false,
      "stateMutability": "view",
      "type": "function"
    },
    {
      "constant": false,
      "inputs": [
        {
          "name": "poolStart",
          "type": "uint256"
        },
        {
          "name": "_poolEnd",
          "type": "uint256"
        },
        {
          "name": "ticketIds",
          "type": "uint256[]"
        }
      ],
      "name": "withDrawHistoryCut",
      "outputs": [],
      "payable": false,
      "stateMutability": "nonpayable",
      "type": "function"
    },
    {
      "constant": true,
      "inputs": [
        {
          "name": "user",
          "type": "address"
        },
        {
          "name": "poolStart",
          "type": "uint256"
        },
        {
          "name": "_poolEnd",
          "type": "uint256"
        },
        {
          "name": "ticketIds",
          "type": "uint256[]"
        }
      ],
      "name": "listUserHistoryCut",
      "outputs": [
        {
          "name": "poolCuts",
          "type": "uint256[512]"
        }
      ],
      "payable": false,
      "stateMutability": "view",
      "type": "function"
    },
    {
      "constant": true,
      "inputs": [],
      "name": "retrievePoolInfo",
      "outputs": [
        {
          "name": "poolTokens",
          "type": "uint256"
        },
        {
          "name": "poolBlockNumber",
          "type": "uint256"
        },
        {
          "name": "totalPoolTokens",
          "type": "uint256"
        },
        {
          "name": "_currentPoolIndex",
          "type": "uint256"
        }
      ],
      "payable": false,
      "stateMutability": "view",
      "type": "function"
    },
    {
      "constant": true,
      "inputs": [
        {
          "name": "poolStart",
          "type": "uint256"
        },
        {
          "name": "_poolEnd",
          "type": "uint256"
        }
      ],
      "name": "getWinnerList",
      "outputs": [
        {
          "name": "winners",
          "type": "address[512]"
        },
        {
          "name": "values",
          "type": "uint256[512]"
        },
        {
          "name": "blocks",
          "type": "uint256[512]"
        },
        {
          "name": "count",
          "type": "uint256"
        }
      ],
      "payable": false,
      "stateMutability": "view",
      "type": "function"
    },
    {
      "constant": false,
      "inputs": [
        {
          "name": "chainlotAddress",
          "type": "address"
        }
      ],
      "name": "migrateFrom",
      "outputs": [],
      "payable": false,
      "stateMutability": "nonpayable",
      "type": "function"
    }
  ],
  "bytecode": "0x6060604052600060095534156200001557600080fd5b604051620030df380380620030df83398101604052808051906020019091908051906020019091908051906020019091908051906020019091908051906020019091908051906020019091908051820191905050336000806101000a81548173ffffffffffffffffffffffffffffffffffffffff021916908373ffffffffffffffffffffffffffffffffffffffff16021790555086600060146101000a81548160ff021916908360ff16021790555085600060156101000a81548160ff021916908360ff16021790555084600460006101000a81548160ff021916908360ff16021790555083600460016101000a81548160ff021916908360ff1602179055508260018190555081600281905550600460019054906101000a900460ff16600460009054906101000a900460ff1601600460026101000a81548160ff021916908360ff16021790555080600690805190602001906200017692919062000184565b5050505050505050620001fe565b828054828255906000526020600020908101928215620001c3579160200282015b82811115620001c2578251825591602001919060010190620001a5565b5b509050620001d29190620001d6565b5090565b620001fb91905b80821115620001f7576000816000905550600101620001dd565b5090565b90565b612ed1806200020e6000396000f3006060604052600436106101ab576000357c0100000000000000000000000000000000000000000000000000000000900463ffffffff16806259f7ef146101b05780630800e5f1146101e95780630b027fb61461023e5780630f11779b1461026757806314c519801461027c57806316205520146102d15780631c0913c91461030057806335657e6814610323578063363da6071461035c57806337f4a9c4146103f85780633e191a12146104275780633f12fdaa14610460578063413e1a9714610499578063483ab117146104d35780635f7d9287146104fc578063692b69ae1461052b5780636ea6c8b21461058057806370f4c343146105f1578063775ed63d14610620578063889637711461068a5780638da5cb5b146106b35780638eec5d70146107085780638f4ffcb11461073157806392385538146107d55780639c7365e5146108385780639e851d7f14610867578063a05863b614610937578063a8450e7214610975578063b1a1af38146109c6578063b86d7c6c146109ff578063b9d6284114610a28578063e1e3af6914610a51578063ee05a5d514610aa6578063f2fde38b14610ae6575b600080fd5b34156101bb57600080fd5b6101e7600480803573ffffffffffffffffffffffffffffffffffffffff16906020019091905050610b1f565b005b34156101f457600080fd5b6101fc610bbe565b604051808273ffffffffffffffffffffffffffffffffffffffff1673ffffffffffffffffffffffffffffffffffffffff16815260200191505060405180910390f35b341561024957600080fd5b610251610be4565b6040518082815260200191505060405180910390f35b341561027257600080fd5b61027a610bea565b005b341561028757600080fd5b61028f61108e565b604051808273ffffffffffffffffffffffffffffffffffffffff1673ffffffffffffffffffffffffffffffffffffffff16815260200191505060405180910390f35b34156102dc57600080fd5b6102e46110b4565b604051808260ff1660ff16815260200191505060405180910390f35b341561030b57600080fd5b61032160048080359060200190919050506110c7565b005b341561032e57600080fd5b61035a600480803573ffffffffffffffffffffffffffffffffffffffff1690602001909190505061121e565b005b341561036757600080fd5b6103b9600480803573ffffffffffffffffffffffffffffffffffffffff169060200190919080359060200190919080359060200190919080359060200190820180359060200191909192905050611604565b604051808261020060200280838360005b838110156103e55780820151818401526020810190506103ca565b5050505090500191505060405180910390f35b341561040357600080fd5b61040b611791565b604051808260ff1660ff16815260200191505060405180910390f35b341561043257600080fd5b61045e600480803573ffffffffffffffffffffffffffffffffffffffff169060200190919050506117a4565b005b341561046b57600080fd5b610497600480803573ffffffffffffffffffffffffffffffffffffffff16906020019091905050611843565b005b6104d1600480803560ff1690602001909190803573ffffffffffffffffffffffffffffffffffffffff169060200190919050506118e2565b005b34156104de57600080fd5b6104e66119dd565b6040518082815260200191505060405180910390f35b341561050757600080fd5b61050f6119e3565b604051808260ff1660ff16815260200191505060405180910390f35b341561053657600080fd5b61053e6119f6565b604051808273ffffffffffffffffffffffffffffffffffffffff1673ffffffffffffffffffffffffffffffffffffffff16815260200191505060405180910390f35b6105ef600480803590602001908201803590602001908080601f0160208091040260200160405190810160405280939291908181526020018383808284378201915050505050509190803573ffffffffffffffffffffffffffffffffffffffff16906020019091905050611a1c565b005b34156105fc57600080fd5b610604611b76565b604051808260ff1660ff16815260200191505060405180910390f35b341561062b57600080fd5b610674600480803573ffffffffffffffffffffffffffffffffffffffff169060200190919080359060200190820180359060200191909192908035906020019091905050611b89565b6040518082815260200191505060405180910390f35b341561069557600080fd5b61069d611cf7565b6040518082815260200191505060405180910390f35b34156106be57600080fd5b6106c6611cfd565b604051808273ffffffffffffffffffffffffffffffffffffffff1673ffffffffffffffffffffffffffffffffffffffff16815260200191505060405180910390f35b341561071357600080fd5b61071b611d22565b6040518082815260200191505060405180910390f35b341561073c57600080fd5b6107d3600480803573ffffffffffffffffffffffffffffffffffffffff1690602001909190803590602001909190803573ffffffffffffffffffffffffffffffffffffffff1690602001909190803590602001908201803590602001908080601f01602080910402602001604051908101604052809392919081815260200183838082843782019150505050505091905050611d2f565b005b34156107e057600080fd5b6107f66004808035906020019091905050611fc0565b604051808273ffffffffffffffffffffffffffffffffffffffff1673ffffffffffffffffffffffffffffffffffffffff16815260200191505060405180910390f35b341561084357600080fd5b61084b611fff565b604051808260ff1660ff16815260200191505060405180910390f35b341561087257600080fd5b6108916004808035906020019091908035906020019091905050612012565b604051808561020060200280838360005b838110156108bd5780820151818401526020810190506108a2565b505050509050018461020060200280838360005b838110156108ec5780820151818401526020810190506108d1565b505050509050018361020060200280838360005b8381101561091b578082015181840152602081019050610900565b5050505090500182815260200194505050505060405180910390f35b341561094257600080fd5b61094a6123a1565b6040518085815260200184815260200183815260200182815260200194505050505060405180910390f35b341561098057600080fd5b6109ac600480803573ffffffffffffffffffffffffffffffffffffffff16906020019091905050612566565b604051808215151515815260200191505060405180910390f35b34156109d157600080fd5b6109fd600480803573ffffffffffffffffffffffffffffffffffffffff16906020019091905050612586565b005b3415610a0a57600080fd5b610a12612625565b6040518082815260200191505060405180910390f35b3415610a3357600080fd5b610a3b61262b565b6040518082815260200191505060405180910390f35b3415610a5c57600080fd5b610a64612631565b604051808273ffffffffffffffffffffffffffffffffffffffff1673ffffffffffffffffffffffffffffffffffffffff16815260200191505060405180910390f35b3415610ab157600080fd5b610ae460048080359060200190919080359060200190919080359060200190820180359060200191909192905050612657565b005b3415610af157600080fd5b610b1d600480803573ffffffffffffffffffffffffffffffffffffffff1690602001909190505061277b565b005b6000809054906101000a900473ffffffffffffffffffffffffffffffffffffffff1673ffffffffffffffffffffffffffffffffffffffff163373ffffffffffffffffffffffffffffffffffffffff16141515610b7a57600080fd5b80600e60006101000a81548173ffffffffffffffffffffffffffffffffffffffff021916908373ffffffffffffffffffffffffffffffffffffffff16021790555050565b600b60009054906101000a900473ffffffffffffffffffffffffffffffffffffffff1681565b60095481565b60008060009054906101000a900473ffffffffffffffffffffffffffffffffffffffff1673ffffffffffffffffffffffffffffffffffffffff163373ffffffffffffffffffffffffffffffffffffffff16141515610c4757600080fd5b600c60009054906101000a900473ffffffffffffffffffffffffffffffffffffffff1673ffffffffffffffffffffffffffffffffffffffff1663b5533d39600554600060149054906101000a900460ff16600060159054906101000a900460ff16600460009054906101000a900460ff16600460019054906101000a900460ff1660025460015460066000604051602001526040518963ffffffff167c0100000000000000000000000000000000000000000000000000000000028152600401808981526020018860ff1660ff1681526020018760ff1660ff1681526020018660ff1660ff1681526020018560ff1660ff168152602001848152602001838152602001806020018281038252838181548152602001915080548015610d8b57602002820191906000526020600020905b815481526020019060010190808311610d77575b50509950505050505050505050602060405180830381600087803b1515610db157600080fd5b6102c65a03f11515610dc257600080fd5b505050604051805190509050600c60009054906101000a900473ffffffffffffffffffffffffffffffffffffffff1673ffffffffffffffffffffffffffffffffffffffff1663c03c424a82600a60009054906101000a900473ffffffffffffffffffffffffffffffffffffffff16600b60009054906101000a900473ffffffffffffffffffffffffffffffffffffffff1630600e60009054906101000a900473ffffffffffffffffffffffffffffffffffffffff166040518663ffffffff167c0100000000000000000000000000000000000000000000000000000000028152600401808673ffffffffffffffffffffffffffffffffffffffff1673ffffffffffffffffffffffffffffffffffffffff1681526020018573ffffffffffffffffffffffffffffffffffffffff1673ffffffffffffffffffffffffffffffffffffffff1681526020018473ffffffffffffffffffffffffffffffffffffffff1673ffffffffffffffffffffffffffffffffffffffff1681526020018373ffffffffffffffffffffffffffffffffffffffff1673ffffffffffffffffffffffffffffffffffffffff1681526020018273ffffffffffffffffffffffffffffffffffffffff1673ffffffffffffffffffffffffffffffffffffffff16815260200195505050505050600060405180830381600087803b1515610fc057600080fd5b6102c65a03f11515610fd157600080fd5b5050508073ffffffffffffffffffffffffffffffffffffffff16639eb623d76000604051602001526040518163ffffffff167c0100000000000000000000000000000000000000000000000000000000028152600401602060405180830381600087803b151561104057600080fd5b6102c65a03f1151561105157600080fd5b5050506040518051905060058190555060008173ffffffffffffffffffffffffffffffffffffffff1614151561108b5761108a81612819565b5b50565b600c60009054906101000a900473ffffffffffffffffffffffffffffffffffffffff1681565b600460029054906101000a900460ff1681565b6000809054906101000a900473ffffffffffffffffffffffffffffffffffffffff1673ffffffffffffffffffffffffffffffffffffffff163373ffffffffffffffffffffffffffffffffffffffff1614151561112257600080fd5b600b60009054906101000a900473ffffffffffffffffffffffffffffffffffffffff1673ffffffffffffffffffffffffffffffffffffffff1663a9059cbb6000809054906101000a900473ffffffffffffffffffffffffffffffffffffffff16836040518363ffffffff167c0100000000000000000000000000000000000000000000000000000000028152600401808373ffffffffffffffffffffffffffffffffffffffff1673ffffffffffffffffffffffffffffffffffffffff16815260200182815260200192505050600060405180830381600087803b151561120757600080fd5b6102c65a03f1151561121857600080fd5b50505050565b60008060008060009054906101000a900473ffffffffffffffffffffffffffffffffffffffff1673ffffffffffffffffffffffffffffffffffffffff163373ffffffffffffffffffffffffffffffffffffffff1614151561127e57600080fd5b839250600091505b8273ffffffffffffffffffffffffffffffffffffffff16630b027fb66000604051602001526040518163ffffffff167c0100000000000000000000000000000000000000000000000000000000028152600401602060405180830381600087803b15156112f257600080fd5b6102c65a03f1151561130357600080fd5b50505060405180519050821115156114aa578273ffffffffffffffffffffffffffffffffffffffff166392385538836000604051602001526040518263ffffffff167c010000000000000000000000000000000000000000000000000000000002815260040180828152602001915050602060405180830381600087803b151561138c57600080fd5b6102c65a03f1151561139d57600080fd5b505050604051805190509050600860008273ffffffffffffffffffffffffffffffffffffffff1673ffffffffffffffffffffffffffffffffffffffff16815260200190815260200160002060009054906101000a900460ff16151561149d5761140581612819565b7f16fdd1e2012be642eac6e85dff5493e6326969cc539d7e178779def59caa55a28482604051808373ffffffffffffffffffffffffffffffffffffffff1673ffffffffffffffffffffffffffffffffffffffff1681526020018273ffffffffffffffffffffffffffffffffffffffff1673ffffffffffffffffffffffffffffffffffffffff1681526020019250505060405180910390a15b8180600101925050611286565b8273ffffffffffffffffffffffffffffffffffffffff1663692b69ae6000604051602001526040518163ffffffff167c0100000000000000000000000000000000000000000000000000000000028152600401602060405180830381600087803b151561151657600080fd5b6102c65a03f1151561152757600080fd5b50505060405180519050600d60006101000a81548173ffffffffffffffffffffffffffffffffffffffff021916908373ffffffffffffffffffffffffffffffffffffffff1602179055508273ffffffffffffffffffffffffffffffffffffffff16630b027fb66000604051602001526040518163ffffffff167c0100000000000000000000000000000000000000000000000000000000028152600401602060405180830381600087803b15156115dd57600080fd5b6102c65a03f115156115ee57600080fd5b5050506040518051905060098190555050505050565b61160c612dea565b600080868611151561161d57600080fd5b8591506007805490508211156116365760078054905091505b8690505b818110156117865760078181548110151561165157fe5b906000526020600020900160009054906101000a900473ffffffffffffffffffffffffffffffffffffffff1673ffffffffffffffffffffffffffffffffffffffff1663ee5bac898987876000604051602001526040518463ffffffff167c0100000000000000000000000000000000000000000000000000000000028152600401808473ffffffffffffffffffffffffffffffffffffffff1673ffffffffffffffffffffffffffffffffffffffff1681526020018060200182810382528484828181526020019250602002808284378201915050945050505050602060405180830381600087803b151561174457600080fd5b6102c65a03f1151561175557600080fd5b50505060405180519050838883036102008110151561177057fe5b602002018181525050808060010191505061163a565b505095945050505050565b600460019054906101000a900460ff1681565b6000809054906101000a900473ffffffffffffffffffffffffffffffffffffffff1673ffffffffffffffffffffffffffffffffffffffff163373ffffffffffffffffffffffffffffffffffffffff161415156117ff57600080fd5b80600a60006101000a81548173ffffffffffffffffffffffffffffffffffffffff021916908373ffffffffffffffffffffffffffffffffffffffff16021790555050565b6000809054906101000a900473ffffffffffffffffffffffffffffffffffffffff1673ffffffffffffffffffffffffffffffffffffffff163373ffffffffffffffffffffffffffffffffffffffff1614151561189e57600080fd5b80600b60006101000a81548173ffffffffffffffffffffffffffffffffffffffff021916908373ffffffffffffffffffffffffffffffffffffffff16021790555050565b6118ea612b03565b600d60009054906101000a900473ffffffffffffffffffffffffffffffffffffffff1673ffffffffffffffffffffffffffffffffffffffff1663413e1a973484846040518463ffffffff167c0100000000000000000000000000000000000000000000000000000000028152600401808360ff1660ff1681526020018273ffffffffffffffffffffffffffffffffffffffff1673ffffffffffffffffffffffffffffffffffffffff168152602001925050506000604051808303818588803b15156119b457600080fd5b6125ee5a03f115156119c557600080fd5b50505050346003600082825401925050819055505050565b60055481565b600060159054906101000a900460ff1681565b600d60009054906101000a900473ffffffffffffffffffffffffffffffffffffffff1681565b611a24612b03565b600d60009054906101000a900473ffffffffffffffffffffffffffffffffffffffff1673ffffffffffffffffffffffffffffffffffffffff16636ea6c8b23484846040518463ffffffff167c010000000000000000000000000000000000000000000000000000000002815260040180806020018373ffffffffffffffffffffffffffffffffffffffff1673ffffffffffffffffffffffffffffffffffffffff168152602001828103825284818151815260200191508051906020019080838360005b83811015611b02578082015181840152602081019050611ae7565b50505050905090810190601f168015611b2f5780820380516001836020036101000a031916815260200191505b5093505050506000604051808303818588803b1515611b4d57600080fd5b6125ee5a03f11515611b5e57600080fd5b50505050346003600082825401925050819055505050565b600060149054906101000a900460ff1681565b6000600860003373ffffffffffffffffffffffffffffffffffffffff1673ffffffffffffffffffffffffffffffffffffffff16815260200190815260200160002060009054906101000a900460ff161515611be357600080fd5b600a60009054906101000a900473ffffffffffffffffffffffffffffffffffffffff1673ffffffffffffffffffffffffffffffffffffffff1663775ed63d868686866000604051602001526040518563ffffffff167c0100000000000000000000000000000000000000000000000000000000028152600401808573ffffffffffffffffffffffffffffffffffffffff1673ffffffffffffffffffffffffffffffffffffffff168152602001806020018381526020018281038252858582818152602001925080828437820191505095505050505050602060405180830381600087803b1515611cd257600080fd5b6102c65a03f11515611ce357600080fd5b505050604051805190509050949350505050565b60035481565b6000809054906101000a900473ffffffffffffffffffffffffffffffffffffffff1681565b6000600780549050905090565b611d37612b03565b600b60009054906101000a900473ffffffffffffffffffffffffffffffffffffffff1673ffffffffffffffffffffffffffffffffffffffff1663a9059cbb600d60009054906101000a900473ffffffffffffffffffffffffffffffffffffffff16856040518363ffffffff167c0100000000000000000000000000000000000000000000000000000000028152600401808373ffffffffffffffffffffffffffffffffffffffff1673ffffffffffffffffffffffffffffffffffffffff16815260200182815260200192505050600060405180830381600087803b1515611e1d57600080fd5b6102c65a03f11515611e2e57600080fd5b505050600d60009054906101000a900473ffffffffffffffffffffffffffffffffffffffff1673ffffffffffffffffffffffffffffffffffffffff16638f4ffcb1858585856040518563ffffffff167c0100000000000000000000000000000000000000000000000000000000028152600401808573ffffffffffffffffffffffffffffffffffffffff1673ffffffffffffffffffffffffffffffffffffffff1681526020018481526020018373ffffffffffffffffffffffffffffffffffffffff1673ffffffffffffffffffffffffffffffffffffffff16815260200180602001828103825283818151815260200191508051906020019080838360005b83811015611f48578082015181840152602081019050611f2d565b50505050905090810190601f168015611f755780820380516001836020036101000a031916815260200191505b5095505050505050600060405180830381600087803b1515611f9657600080fd5b6102c65a03f11515611fa757600080fd5b5050508260036000828254019250508190555050505050565b600781815481101515611fcf57fe5b90600052602060002090016000915054906101000a900473ffffffffffffffffffffffffffffffffffffffff1681565b600460009054906101000a900460ff1681565b61201a612e14565b612022612dea565b61202a612dea565b60008060008060008060008060008d8d11151561204657600080fd5b8c975060078054905088111561205f5760078054905097505b6000965060009550600091505b8d880382101561238d5760078281548110151561208557fe5b906000526020600020900160009054906101000a900473ffffffffffffffffffffffffffffffffffffffff1673ffffffffffffffffffffffffffffffffffffffff16630891690b6000604051602001526040518163ffffffff167c0100000000000000000000000000000000000000000000000000000000028152600401602060405180830381600087803b151561211c57600080fd5b6102c65a03f1151561212d57600080fd5b50505060405180519050955060078281548110151561214857fe5b906000526020600020900160009054906101000a900473ffffffffffffffffffffffffffffffffffffffff1673ffffffffffffffffffffffffffffffffffffffff16639eb623d76000604051602001526040518163ffffffff167c0100000000000000000000000000000000000000000000000000000000028152600401602060405180830381600087803b15156121df57600080fd5b6102c65a03f115156121f057600080fd5b505050604051805190509250600090505b85811015612380576102008710151561221957612380565b60078281548110151561222857fe5b906000526020600020900160009054906101000a900473ffffffffffffffffffffffffffffffffffffffff1673ffffffffffffffffffffffffffffffffffffffff16637f87179a826000604051604001526040518263ffffffff167c0100000000000000000000000000000000000000000000000000000000028152600401808281526020019150506040805180830381600087803b15156122c957600080fd5b6102c65a03f115156122da57600080fd5b505050604051805190602001805190508095508196505050848c886102008110151561230257fe5b602002019073ffffffffffffffffffffffffffffffffffffffff16908173ffffffffffffffffffffffffffffffffffffffff1681525050838b886102008110151561234957fe5b602002018181525050828a886102008110151561236257fe5b60200201818152505086806001019750508080600101915050612201565b818060010192505061206c565b869850505050505050505092959194509250565b600080600080600b60009054906101000a900473ffffffffffffffffffffffffffffffffffffffff1673ffffffffffffffffffffffffffffffffffffffff166370a08231600d60009054906101000a900473ffffffffffffffffffffffffffffffffffffffff166000604051602001526040518263ffffffff167c0100000000000000000000000000000000000000000000000000000000028152600401808273ffffffffffffffffffffffffffffffffffffffff1673ffffffffffffffffffffffffffffffffffffffff168152602001915050602060405180830381600087803b151561248e57600080fd5b6102c65a03f1151561249f57600080fd5b505050604051805190509350600d60009054906101000a900473ffffffffffffffffffffffffffffffffffffffff1673ffffffffffffffffffffffffffffffffffffffff16639eb623d76000604051602001526040518163ffffffff167c0100000000000000000000000000000000000000000000000000000000028152600401602060405180830381600087803b151561253957600080fd5b6102c65a03f1151561254a57600080fd5b5050506040518051905092506003549150600954905090919293565b60086020528060005260406000206000915054906101000a900460ff1681565b6000809054906101000a900473ffffffffffffffffffffffffffffffffffffffff1673ffffffffffffffffffffffffffffffffffffffff163373ffffffffffffffffffffffffffffffffffffffff161415156125e157600080fd5b80600c60006101000a81548173ffffffffffffffffffffffffffffffffffffffff021916908373ffffffffffffffffffffffffffffffffffffffff16021790555050565b60015481565b60025481565b600a60009054906101000a900473ffffffffffffffffffffffffffffffffffffffff1681565b600080858511151561266857600080fd5b8491506007805490508211156126815760078054905091505b8590505b818110156127735760078181548110151561269c57fe5b906000526020600020900160009054906101000a900473ffffffffffffffffffffffffffffffffffffffff1673ffffffffffffffffffffffffffffffffffffffff166350b9bc9285856040518363ffffffff167c01000000000000000000000000000000000000000000000000000000000281526004018080602001828103825284848281815260200192506020028082843782019150509350505050600060405180830381600087803b151561275257600080fd5b6102c65a03f1151561276357600080fd5b5050508080600101915050612685565b505050505050565b6000809054906101000a900473ffffffffffffffffffffffffffffffffffffffff1673ffffffffffffffffffffffffffffffffffffffff163373ffffffffffffffffffffffffffffffffffffffff161415156127d657600080fd5b806000806101000a81548173ffffffffffffffffffffffffffffffffffffffff021916908373ffffffffffffffffffffffffffffffffffffffff16021790555050565b6000809054906101000a900473ffffffffffffffffffffffffffffffffffffffff1673ffffffffffffffffffffffffffffffffffffffff163373ffffffffffffffffffffffffffffffffffffffff1614151561287457600080fd5b600780548060010182816128889190612e54565b9160005260206000209001600083909190916101000a81548173ffffffffffffffffffffffffffffffffffffffff021916908373ffffffffffffffffffffffffffffffffffffffff160217905550506001600860008373ffffffffffffffffffffffffffffffffffffffff1673ffffffffffffffffffffffffffffffffffffffff16815260200190815260200160002060006101000a81548160ff0219169083151502179055506000600d60009054906101000a900473ffffffffffffffffffffffffffffffffffffffff1673ffffffffffffffffffffffffffffffffffffffff161415612b005780600d60006101000a81548173ffffffffffffffffffffffffffffffffffffffff021916908373ffffffffffffffffffffffffffffffffffffffff1602179055506001600780549050036009819055507f3e3b2a1d3103b12ee8a1409b8e0b9a1791e8a18afe6ddcf8b8417adccde34775600d60009054906101000a900473ffffffffffffffffffffffffffffffffffffffff1673ffffffffffffffffffffffffffffffffffffffff16639eb623d76000604051602001526040518163ffffffff167c0100000000000000000000000000000000000000000000000000000000028152600401602060405180830381600087803b1515612a6f57600080fd5b6102c65a03f11515612a8057600080fd5b50505060405180519050600d60009054906101000a900473ffffffffffffffffffffffffffffffffffffffff16600954604051808481526020018373ffffffffffffffffffffffffffffffffffffffff1673ffffffffffffffffffffffffffffffffffffffff168152602001828152602001935050505060405180910390a15b50565b6000600d60009054906101000a900473ffffffffffffffffffffffffffffffffffffffff1673ffffffffffffffffffffffffffffffffffffffff1614151515612b4b57600080fd5b5b43600d60009054906101000a900473ffffffffffffffffffffffffffffffffffffffff1673ffffffffffffffffffffffffffffffffffffffff16639eb623d76000604051602001526040518163ffffffff167c0100000000000000000000000000000000000000000000000000000000028152600401602060405180830381600087803b1515612bdb57600080fd5b6102c65a03f11515612bec57600080fd5b50505060405180519050111515612de857600780549050600160095401101515612c1557600080fd5b6009600081548092919060010191905055506007600954815481101515612c3857fe5b906000526020600020900160009054906101000a900473ffffffffffffffffffffffffffffffffffffffff16600d60006101000a81548173ffffffffffffffffffffffffffffffffffffffff021916908373ffffffffffffffffffffffffffffffffffffffff1602179055507f3e3b2a1d3103b12ee8a1409b8e0b9a1791e8a18afe6ddcf8b8417adccde34775600d60009054906101000a900473ffffffffffffffffffffffffffffffffffffffff1673ffffffffffffffffffffffffffffffffffffffff16639eb623d76000604051602001526040518163ffffffff167c0100000000000000000000000000000000000000000000000000000000028152600401602060405180830381600087803b1515612d5357600080fd5b6102c65a03f11515612d6457600080fd5b50505060405180519050600d60009054906101000a900473ffffffffffffffffffffffffffffffffffffffff16600954604051808481526020018373ffffffffffffffffffffffffffffffffffffffff1673ffffffffffffffffffffffffffffffffffffffff168152602001828152602001935050505060405180910390a1612b4c565b565b61400060405190810160405280610200905b6000815260200190600190039081612dfc5790505090565b61400060405190810160405280610200905b600073ffffffffffffffffffffffffffffffffffffffff16815260200190600190039081612e265790505090565b815481835581811511612e7b57818360005260206000209182019101612e7a9190612e80565b5b505050565b612ea291905b80821115612e9e576000816000905550600101612e86565b5090565b905600a165627a7a72305820ec2dad1588cd44040a8641e7fa7d31ad376c345eab754e531f35c42222dc68550029",
  "source": "pragma solidity ^0.4.4;\nimport \"./Interface.sol\";\nimport \"./owned.sol\";\n\n/*\naward rules:\n  * 5+1 jackpot\n  * 5+0 5000 ETH\n  * 4+1 50 ETH\n  * 4+0 2.5 ETH\n  * 3+1 1 ETH\n  * 3+0 0.05 ETH\n  * 2+1 0.05 ETH\n  * 1+1 0.02 ETH\n  * 0+1 0.01 ETH\n*/\ncontract ChainLot is owned{\n\tuint8 public maxWhiteNumber; //70;\n\tuint8 public maxYellowNumber; //25;\n\tuint public etherPerTicket; //10**18/100;\n\tuint public awardIntervalNumber; //50000\n\n\tuint public tokenSum;\n\tuint8 public maxWhiteNumberCount;\n\tuint8 public maxYellowNumberCount;\n\tuint8 public totalNumberCount;\n\tuint public latestPoolBlockNumber;\n\n\tuint[] awardRulesArray;\n\t\n\n\tChainLotPoolInterface[] public chainlotPools;\n\tmapping(address=>bool) public chainlotPoolsMap;\n\tuint public currentPoolIndex = 0;\n\t\n  \tChainLotTicketInterface public chainLotTicket;\n  \tCLTokenInterface public clToken;\n  \tChainLotPoolFactoryInterface public clpFactory;\n  \tChainLotPoolInterface public currentPool;\n  \taddress drawingToolAddress;\n  \n\tevent BuyTicket(uint poolBlockNumber, bytes numbers, uint ticketCount, uint ticketId, address user, uint blockNumber, uint totalTicketCountSum, uint value);\n\tevent PrepareAward(bytes jackpotNumbers, uint poolBlockNumber, uint allTicketsCount);\n\tevent ToBeAward(bytes jackpotNumbers, bytes32 ticketNumber, uint ticketCount, uint ticketId, address user, uint blockNumber, uint awardValue);\n\tevent MatchAwards(bytes jackpotNumbers, uint lastMatchedTicketIndex, uint endIndex, uint allTicketsCount);\n\tevent MatchRule(bytes jackpotNumbers, bytes32 ticketNumber, uint ticketCount, uint ticketId, uint blockNumber, uint ruleId, uint ruleEther);\n  \tevent TransferAward(address winner, uint value);\n  \tevent TransferDevCut(address dev, uint value);\n  \tevent TransferHistoryCut(address user, uint value);\n  \tevent AddHistoryCut(uint added, uint total);\n  \tevent CalculateAwards(uint8 ruleId, uint winnersTicketCount, uint awardEther, uint totalWinnersAward, uint totalTicketCount);\n  \tevent SplitAward(uint8 ruleId, uint totalWinnersAward, uint leftBalance);\n  \tevent GenerateNewPool(uint currentPoolBlockNumber, uint nextPoolBlockNumber, uint length);\n  \tevent TransferUnawarded(address from, address to, uint value);\n  \tevent SwitchPool(uint currentPoolblockNumber, address currentPool, uint currentPoolIndex);\n  \tevent GenRandomNumbers(uint random, uint blockNumber, uint hash, uint addressInt, uint shift, uint timestamp, uint difficulty);\n  \tevent MigrateFrom(address chainlotAddress, address poolAddress);\n  \tevent LOG(uint msg);\n\n\tfunction ChainLot(uint8 _maxWhiteNumber, \n\t\t\t\t\t\tuint8 _maxYellowNumber, \n\t\t\t\t\t\tuint8 _whiteNumberCount, \n\t\t\t\t\t\tuint8 _yellowNumberCount, \n\t\t\t\t\t\tuint _etherPerTicket, \n\t\t\t\t\t\tuint _awardIntervalNumber,\n\t\t\t\t\t\tuint[] _awardRulesArray) public {\n\t\tmaxWhiteNumber = _maxWhiteNumber;\n\t\tmaxYellowNumber = _maxYellowNumber;\n\t\tmaxWhiteNumberCount = _whiteNumberCount;\n\t\tmaxYellowNumberCount = _yellowNumberCount;\n\t\tetherPerTicket = _etherPerTicket;\n\t\tawardIntervalNumber = _awardIntervalNumber;\n\t\ttotalNumberCount = maxWhiteNumberCount + maxYellowNumberCount;\n\t\tawardRulesArray = _awardRulesArray;\n\t}\n\n\tfunction newPool() public onlyOwner {\n\t\tChainLotPoolInterface newed = clpFactory.newPool(latestPoolBlockNumber,maxWhiteNumber, maxYellowNumber, maxWhiteNumberCount, maxYellowNumberCount, \n\t\t\tawardIntervalNumber, etherPerTicket, awardRulesArray);\n\t\tclpFactory.setPool(newed, chainLotTicket, clToken, ChainLotInterface(this), drawingToolAddress);\n\t\tlatestPoolBlockNumber = newed.poolBlockNumber();\n\t\tif(address(newed) != 0) {\n\t\t\taddPool(newed);\n\t\t}\n\t}\n\n\tfunction addPool(ChainLotPoolInterface newed) internal onlyOwner {\n\t\tchainlotPools.push(newed);\n\t\tchainlotPoolsMap[address(newed)] = true;\n\n\t\tif(address(currentPool)==0) {\n\t\t\tcurrentPool = newed;\n\t\t\tcurrentPoolIndex = chainlotPools.length - 1;\n\t\t\tSwitchPool(currentPool.poolBlockNumber(), address(currentPool), currentPoolIndex);\n\t\t}\n\t}\n\n\tfunction checkAndSwitchPool() internal {\n\t\trequire(address(currentPool) != 0);\n\n\t\t//find the right pool\n\t\twhile(currentPool.poolBlockNumber() <= block.number) {\n\t\t\trequire(currentPoolIndex + 1 < chainlotPools.length); // need more pool\n\t\t\tcurrentPoolIndex ++;\n\t\t\tcurrentPool = chainlotPools[currentPoolIndex];\n\t\t\tSwitchPool(currentPool.poolBlockNumber(), address(currentPool), currentPoolIndex);\n\t\t}\n\t}\n\n\t//numbers: uint8[6] \n\t//\t\t\t1-5: <=maxWhiteNumber\n\t//\t\t\t6: <=maxYellowNumber\n\tfunction buyTicket(bytes numbers, address referer) payable public {\n\t\tcheckAndSwitchPool();\n\t\tcurrentPool.buyTicket.value(msg.value)(numbers, referer);\n\t\ttokenSum += msg.value;\n\t}\n\n\t//random numbers\n\t//random seed: number-1 block hash x user address\n\tfunction buyRandom(uint8 numberCount, address referer) payable public{\n\t\tcheckAndSwitchPool();\n\t    currentPool.buyRandom.value(msg.value)(numberCount, referer);\n\t    tokenSum += msg.value;\n\t}\n\n\tmodifier onlyPool {\n        require(chainlotPoolsMap[msg.sender]);\n        _;\n  \t}\n\n\tfunction mint(address _owner, \n\t    bytes _numbers,\n\t    uint _count) \n\t    external onlyPool returns (uint) {\n\t    return chainLotTicket.mint(_owner, _numbers, _count);\n  \t}\n\n\tfunction receiveApproval(address _from, uint _value, address _token, bytes _extraData) public {\n\t\tcheckAndSwitchPool();\n\t\tclToken.transfer(currentPool, _value);\n\t    currentPool.receiveApproval(_from, _value, _token, _extraData);\n\t    tokenSum += _value;\n\t}\n\n  function setChainLotTicketAddress(address ticketAddress) onlyOwner external {\n    chainLotTicket = ChainLotTicketInterface(ticketAddress);\n  }\n\n  function setCLTokenAddress(address tokenAddress) onlyOwner external {\n    clToken = CLTokenInterface(tokenAddress);\n  }\n\n  function setChainLotPoolFactoryAddress(address factoryAddress) onlyOwner external {\n  \tclpFactory = ChainLotPoolFactoryInterface(factoryAddress);\n  }\n\n  function setDrawingToolAddress(address _drawingToolAddress) onlyOwner external{\n  \tdrawingToolAddress = _drawingToolAddress;\n  }\n\n  function withDrawDevCut(uint value) onlyOwner external {\n  \tclToken.transfer(owner, value);\n  }\n\n  function getPoolCount() external view returns(uint count) {\n  \tcount = chainlotPools.length;\n  }\n\n  //withdraw history cut from pools\n  function withDrawHistoryCut(uint poolStart, uint _poolEnd, uint[] ticketIds) external {\n  \trequire(_poolEnd > poolStart);\n  \tuint poolEnd = _poolEnd;\n  \tif(poolEnd > chainlotPools.length) poolEnd = chainlotPools.length;\n\n  \tfor(uint i = poolStart; i < poolEnd; i++) {\n  \t\tchainlotPools[i].withdrawHistoryCut(ticketIds);\n  \t}\n  }\n\n\n  function listUserHistoryCut(address user, uint poolStart, uint _poolEnd, uint[] ticketIds) external view returns(uint[512] poolCuts) {\n  \trequire(_poolEnd > poolStart);\n  \tuint poolEnd = _poolEnd;\n  \tif(poolEnd > chainlotPools.length) poolEnd = chainlotPools.length;\n\n  \t//uint[] memory poolCuts = new uint[](poolEnd - poolStart);\n\tfor(uint i = poolStart; i < poolEnd; i++) {\n  \t\tpoolCuts[i-poolStart] = chainlotPools[i].listUserHistoryCut(user, ticketIds);\n  \t}\n  \t//return poolCuts;\n  }\n\n  function retrievePoolInfo() external view returns (uint poolTokens, uint poolBlockNumber, uint totalPoolTokens, uint _currentPoolIndex)  {\n  \tpoolTokens = clToken.balanceOf(currentPool);\n  \tpoolBlockNumber = currentPool.poolBlockNumber();\n  \ttotalPoolTokens = tokenSum;\n  \t_currentPoolIndex = currentPoolIndex;\n  }\n\n  function getWinnerList(uint poolStart, uint _poolEnd) external view returns (address[512] winners, uint[512] values, uint[512] blocks, uint count) {\n  \trequire(_poolEnd > poolStart);\n  \tuint poolEnd = _poolEnd;\n  \tif(poolEnd > chainlotPools.length) poolEnd = chainlotPools.length;\n\n  \tuint winnersCount = 0;\n  \tuint poolWinnersCount = 0;\n  \taddress winner; uint value; uint blockNumber;\n\n\tfor(uint i = 0; i < poolEnd - poolStart; i++) {\n\t\tpoolWinnersCount= chainlotPools[i].awardIndex();\n\t\tblockNumber = chainlotPools[i].poolBlockNumber();\n\t\tfor(uint j=0; j<poolWinnersCount; j++) {\n\t\t\tif(winnersCount >= 512) break;\n\n\t\t\t(winner, value) = chainlotPools[i].toBeAward(j);\n\t\t\twinners[winnersCount] = winner;\n\t\t\tvalues[winnersCount] = value;\n\t\t\tblocks[winnersCount] = blockNumber;\n\t\t\twinnersCount ++;\n\t\t}\n\t}\n  \t\n  \tcount = winnersCount;\n  }\n\n  function migrateFrom(address chainlotAddress) onlyOwner external{\n  \tChainLot old = ChainLot(chainlotAddress);\n  \tfor(uint i=0; i<=old.currentPoolIndex(); i++) {\n  \t\taddress poolAddress = old.chainlotPools(i);\n  \t\tif(!chainlotPoolsMap[poolAddress]) {\n  \t\t\taddPool(ChainLotPoolInterface(poolAddress));\n  \t\t\tMigrateFrom(chainlotAddress, poolAddress);\n  \t\t}\n  \t}\n  \tcurrentPool = old.currentPool();\n\tcurrentPoolIndex = old.currentPoolIndex();\n  }\n\n}\n",
  "sourcePath": "/Users/phx/eth/chainlot/contracts/ChainLot.sol",
  "compiler": {
    "name": "solc",
    "version": "0.4.19+commit.c4cbbb05.Emscripten.clang"
  },
  "schemaVersion": "2.0.0",
  "updatedAt": "2018-06-28T13:21:09.764Z"
}