{
  "contractName": "ChainLotPoolFactory",
  "abi": [
    {
      "constant": true,
      "inputs": [],
      "name": "owner",
      "outputs": [
        {
          "name": "",
          "type": "address"
        }
      ],
      "payable": false,
      "stateMutability": "view",
      "type": "function"
    },
    {
      "constant": false,
      "inputs": [
        {
          "name": "newOwner",
          "type": "address"
        }
      ],
      "name": "transferOwnership",
      "outputs": [],
      "payable": false,
      "stateMutability": "nonpayable",
      "type": "function"
    },
    {
      "anonymous": false,
      "inputs": [
        {
          "indexed": false,
          "name": "latestPoolBlockNumber",
          "type": "uint256"
        },
        {
          "indexed": false,
          "name": "nextPoolBlockNumber",
          "type": "uint256"
        },
        {
          "indexed": false,
          "name": "length",
          "type": "uint256"
        }
      ],
      "name": "GenerateNewPool",
      "type": "event"
    },
    {
      "constant": false,
      "inputs": [
        {
          "name": "latestPoolBlockNumber",
          "type": "uint256"
        },
        {
          "name": "maxWhiteNumber",
          "type": "uint8"
        },
        {
          "name": "maxYellowNumber",
          "type": "uint8"
        },
        {
          "name": "whiteNumberCount",
          "type": "uint8"
        },
        {
          "name": "yellowNumberCount",
          "type": "uint8"
        },
        {
          "name": "awardIntervalNumber",
          "type": "uint256"
        },
        {
          "name": "etherPerTicket",
          "type": "uint256"
        },
        {
          "name": "awardRulesArray",
          "type": "uint256[]"
        }
      ],
      "name": "newPool",
      "outputs": [
        {
          "name": "poolAddress",
          "type": "address"
        }
      ],
      "payable": false,
      "stateMutability": "nonpayable",
      "type": "function"
    },
    {
      "constant": false,
      "inputs": [
        {
          "name": "pool",
          "type": "address"
        },
        {
          "name": "_chainLotTicket",
          "type": "address"
        },
        {
          "name": "_clToken",
          "type": "address"
        },
        {
          "name": "_chainLot",
          "type": "address"
        }
      ],
      "name": "setPool",
      "outputs": [],
      "payable": false,
      "stateMutability": "nonpayable",
      "type": "function"
    }
  ],
  "bytecode": "0x6060604052336000806101000a81548173ffffffffffffffffffffffffffffffffffffffff021916908373ffffffffffffffffffffffffffffffffffffffff1602179055506146aa806100536000396000f300606060405260043610610062576000357c0100000000000000000000000000000000000000000000000000000000900463ffffffff1680638c4b1758146100675780638da5cb5b146100fd578063b5533d3914610152578063f2fde38b1461020b575b600080fd5b341561007257600080fd5b6100fb600480803573ffffffffffffffffffffffffffffffffffffffff1690602001909190803573ffffffffffffffffffffffffffffffffffffffff1690602001909190803573ffffffffffffffffffffffffffffffffffffffff1690602001909190803573ffffffffffffffffffffffffffffffffffffffff16906020019091905050610244565b005b341561010857600080fd5b6101106103bb565b604051808273ffffffffffffffffffffffffffffffffffffffff1673ffffffffffffffffffffffffffffffffffffffff16815260200191505060405180910390f35b341561015d57600080fd5b6101c9600480803590602001909190803560ff1690602001909190803560ff1690602001909190803560ff1690602001909190803560ff1690602001909190803590602001909190803590602001909190803590602001908201803590602001919091929050506103e0565b604051808273ffffffffffffffffffffffffffffffffffffffff1673ffffffffffffffffffffffffffffffffffffffff16815260200191505060405180910390f35b341561021657600080fd5b610242600480803573ffffffffffffffffffffffffffffffffffffffff16906020019091905050610560565b005b6000809054906101000a900473ffffffffffffffffffffffffffffffffffffffff1673ffffffffffffffffffffffffffffffffffffffff163373ffffffffffffffffffffffffffffffffffffffff1614151561029f57600080fd5b8373ffffffffffffffffffffffffffffffffffffffff16639a62b39a8484846040518463ffffffff167c0100000000000000000000000000000000000000000000000000000000028152600401808473ffffffffffffffffffffffffffffffffffffffff1673ffffffffffffffffffffffffffffffffffffffff1681526020018373ffffffffffffffffffffffffffffffffffffffff1673ffffffffffffffffffffffffffffffffffffffff1681526020018273ffffffffffffffffffffffffffffffffffffffff1673ffffffffffffffffffffffffffffffffffffffff1681526020019350505050600060405180830381600087803b15156103a157600080fd5b6102c65a03f115156103b257600080fd5b50505050505050565b6000809054906101000a900473ffffffffffffffffffffffffffffffffffffffff1681565b6000806000806000809054906101000a900473ffffffffffffffffffffffffffffffffffffffff1673ffffffffffffffffffffffffffffffffffffffff163373ffffffffffffffffffffffffffffffffffffffff1614151561044157600080fd5b4392508c831015610450578c92505b87888481151561045c57fe5b068403019150818c8c8c8c8b8b8b6104726105fe565b808981526020018860ff1660ff1681526020018760ff1660ff1681526020018660ff1660ff1681526020018560ff1660ff16815260200184815260200180602001828103825284848281815260200192506020028082843782019150509950505050505050505050604051809103906000f08015156104f057600080fd5b90506001600081548092919060010191905055507f18672711917e5f9602453b44a0f533daeb3bb7be43f9dde22f2d358e8c427c218d8360015460405180848152602001838152602001828152602001935050505060405180910390a18093505050509998505050505050505050565b6000809054906101000a900473ffffffffffffffffffffffffffffffffffffffff1673ffffffffffffffffffffffffffffffffffffffff163373ffffffffffffffffffffffffffffffffffffffff161415156105bb57600080fd5b806000806101000a81548173ffffffffffffffffffffffffffffffffffffffff021916908373ffffffffffffffffffffffffffffffffffffffff16021790555050565b6040516140708061060f83390190560060606040526000601a60006101000a81548160ff021916908360078111156200002457fe5b021790555034156200003557600080fd5b6040516200407038038062004070833981016040528080519060200190919080519060200190919080519060200190919080519060200190919080519060200190919080519060200190919080518201919050506000336000806101000a81548173ffffffffffffffffffffffffffffffffffffffff021916908373ffffffffffffffffffffffffffffffffffffffff1602179055508760018190555086600260006101000a81548160ff021916908360ff16021790555085600260016101000a81548160ff021916908360ff16021790555084600760006101000a81548160ff021916908360ff16021790555083600760016101000a81548160ff021916908360ff16021790555082600381905550600760019054906101000a900460ff16600760009054906101000a900460ff1601600760026101000a81548160ff021916908360ff160217905550600090505b81518110156200039a5781516003820111151515620001a357600080fd5b60008282815181101515620001b457fe5b9060200190602002015110158015620001f75750600760009054906101000a900460ff1660ff168282815181101515620001ea57fe5b9060200190602002015111155b15156200020357600080fd5b600082600183018151811015156200021757fe5b90602001906020020151101580156200025d5750600760019054906101000a900460ff1660ff1682600183018151811015156200025057fe5b9060200190602002015111155b15156200026957600080fd5b601180548060010182816200027f91906200042d565b916000526020600020906003020160006060604051908101604052808686815181101515620002aa57fe5b9060200190602002015181526020018660018701815181101515620002cb57fe5b9060200190602002015181526020018660028701815181101515620002ec57fe5b906020019060200201518152509091909150600082015181600001556020820151816001015560408201518160020155505050601180549050600e60006200037c85858151811015156200033c57fe5b9060200190602002015186600187018151811015156200035857fe5b90602001906020020151620004096401000000000262003b74176401000000009004565b81526020019081526020016000208190555060038101905062000185565b600090505b601180549050811015620003f3576000600f6000838152602001908152602001600020600101819055506000600f60008381526020019081526020016000206002018190555080806001019150506200039f565b600060178190555050505050505050506200049c565b6000816001600760019054906101000a900460ff160160ff16840201905092915050565b8154818355818115116200045d576003028160030283600052602060002091820191016200045c919062000462565b5b505050565b6200049991905b808211156200049557600080820160009055600182016000905560028201600090555060030162000469565b5090565b90565b613bc480620004ac6000396000f3006060604052600436106102f5576000357c0100000000000000000000000000000000000000000000000000000000900463ffffffff16806259f7ef146102fa57806304d3c348146103335780630800e5f11461039f5780630891690b146103f4578063162055201461041d5780633678c9f41461044c5780633756e372146104f157806337f4a9c4146105145780633ca7b3c1146105435780633e43be3c14610572578063413e1a97146105c757806350b9bc92146106015780635255f1e41461062f5780635b328df6146106745780635f7d9287146106ab5780636098d8f3146106da5780636541e028146106fd5780636c933d85146107295780636ea6c8b214610752578063703a66d2146107c35780637044a32a146107f257806370f4c3431461081b5780637266a2321461084a578063758b9ee0146108735780637855e6ae1461089c5780637baf3b0e146108d65780637f87179a146108ff57806388963771146109695780638da5cb5b146109925780638f4ffcb1146109e7578063958d8a2f14610a8b5780639a62b39a14610ac55780639c28683714610b3c5780639c56a45014610b655780639c7365e514610b885780639eb623d714610bb7578063a9059cbb14610be0578063aa2aaeca14610c22578063b184001914610c59578063b61bf92a14610c93578063b787e6c814610cc2578063b86d7c6c14610cfc578063b9f85c5814610d25578063bd6a468714610d54578063c040e6b814610d77578063c350c74e14610dae578063c3c1b4a314610dd7578063cda886d614610e11578063ce3cd99714610e3a578063d87d8b3d14610e60578063dbcc106d14610e8f578063df85d49d14610eb2578063dfcab41714610ef5578063e1e3af6914610f33578063e2c3156114610f88578063e302909414610fb1578063e35e17fa1461103f578063e7cfbe9014611094578063ec6ce0d1146110c5578063ee5bac89146110f3578063f2fde38b14611154578063f3aa11931461118d578063f58a7898146111c8578063ffa3090314611206575b600080fd5b341561030557600080fd5b610331600480803573ffffffffffffffffffffffffffffffffffffffff16906020019091905050611240565b005b341561033e57600080fd5b61035d60048080359060200190919080359060200190919050506112df565b604051808273ffffffffffffffffffffffffffffffffffffffff1673ffffffffffffffffffffffffffffffffffffffff16815260200191505060405180910390f35b34156103aa57600080fd5b6103b26114ad565b604051808273ffffffffffffffffffffffffffffffffffffffff1673ffffffffffffffffffffffffffffffffffffffff16815260200191505060405180910390f35b34156103ff57600080fd5b6104076114d3565b6040518082815260200191505060405180910390f35b341561042857600080fd5b6104306114d9565b604051808260ff1660ff16815260200191505060405180910390f35b341561045757600080fd5b61047660048080359060200190919080359060200190919050506114ec565b6040518080602001828103825283818151815260200191508051906020019080838360005b838110156104b657808201518184015260208101905061049b565b50505050905090810190601f1680156104e35780820380516001836020036101000a031916815260200191505b509250505060405180910390f35b34156104fc57600080fd5b61051260048080359060200190919050506117bb565b005b341561051f57600080fd5b610527611821565b604051808260ff1660ff16815260200191505060405180910390f35b341561054e57600080fd5b610570600480803560ff16906020019091908035906020019091905050611834565b005b341561057d57600080fd5b6105856118b2565b604051808273ffffffffffffffffffffffffffffffffffffffff1673ffffffffffffffffffffffffffffffffffffffff16815260200191505060405180910390f35b6105ff600480803560ff1690602001909190803573ffffffffffffffffffffffffffffffffffffffff169060200190919050506118d8565b005b341561060c57600080fd5b61062d60048080359060200190820180359060200191909192905050611a04565b005b341561063a57600080fd5b6106506004808035906020019091905050611c08565b60405180848152602001838152602001828152602001935050505060405180910390f35b341561067f57600080fd5b6106956004808035906020019091905050611c41565b6040518082815260200191505060405180910390f35b34156106b657600080fd5b6106be611c65565b604051808260ff1660ff16815260200191505060405180910390f35b34156106e557600080fd5b6106fb6004808035906020019091905050611c78565b005b341561070857600080fd5b6107276004808035906020019091908035906020019091905050611cde565b005b341561073457600080fd5b61073c611d7b565b6040518082815260200191505060405180910390f35b6107c1600480803590602001908201803590602001908080601f0160208091040260200160405190810160405280939291908181526020018383808284378201915050505050509190803573ffffffffffffffffffffffffffffffffffffffff16906020019091905050611d81565b005b34156107ce57600080fd5b6107f0600480803560ff16906020019091908035906020019091905050611e05565b005b34156107fd57600080fd5b610805611e8c565b6040518082815260200191505060405180910390f35b341561082657600080fd5b61082e611e92565b604051808260ff1660ff16815260200191505060405180910390f35b341561085557600080fd5b61085d611ea5565b6040518082815260200191505060405180910390f35b341561087e57600080fd5b610886611eab565b6040518082815260200191505060405180910390f35b34156108a757600080fd5b6108c0600480803560ff16906020019091905050611eb8565b6040518082815260200191505060405180910390f35b34156108e157600080fd5b6108e9611f37565b6040518082815260200191505060405180910390f35b341561090a57600080fd5b6109206004808035906020019091905050611fa0565b604051808373ffffffffffffffffffffffffffffffffffffffff1673ffffffffffffffffffffffffffffffffffffffff1681526020018281526020019250505060405180910390f35b341561097457600080fd5b61097c611ff3565b6040518082815260200191505060405180910390f35b341561099d57600080fd5b6109a5611ff9565b604051808273ffffffffffffffffffffffffffffffffffffffff1673ffffffffffffffffffffffffffffffffffffffff16815260200191505060405180910390f35b34156109f257600080fd5b610a89600480803573ffffffffffffffffffffffffffffffffffffffff1690602001909190803590602001909190803573ffffffffffffffffffffffffffffffffffffffff1690602001909190803590602001908201803590602001908080601f0160208091040260200160405190810160405280939291908181526020018383808284378201915050505050509190505061201e565b005b3415610a9657600080fd5b610aaf600480803560ff16906020019091905050612108565b6040518082815260200191505060405180910390f35b3415610ad057600080fd5b610b3a600480803573ffffffffffffffffffffffffffffffffffffffff1690602001909190803573ffffffffffffffffffffffffffffffffffffffff1690602001909190803573ffffffffffffffffffffffffffffffffffffffff16906020019091905050612187565b005b3415610b4757600080fd5b610b4f61228f565b6040518082815260200191505060405180910390f35b3415610b7057600080fd5b610b866004808035906020019091905050612295565b005b3415610b9357600080fd5b610b9b6122fb565b604051808260ff1660ff16815260200191505060405180910390f35b3415610bc257600080fd5b610bca61230e565b6040518082815260200191505060405180910390f35b3415610beb57600080fd5b610c20600480803573ffffffffffffffffffffffffffffffffffffffff16906020019091908035906020019091905050612314565b005b3415610c2d57600080fd5b610c43600480803590602001909190505061247a565b6040518082815260200191505060405180910390f35b3415610c6457600080fd5b610c7d600480803560ff16906020019091905050612492565b6040518082815260200191505060405180910390f35b3415610c9e57600080fd5b610cc0600480803560ff16906020019091908035906020019091905050612511565b005b3415610ccd57600080fd5b610ce6600480803560ff1690602001909190505061258f565b6040518082815260200191505060405180910390f35b3415610d0757600080fd5b610d0f612618565b6040518082815260200191505060405180910390f35b3415610d3057600080fd5b610d52600480803560ff1690602001909190803590602001909190505061261e565b005b3415610d5f57600080fd5b610d75600480803590602001909190505061269c565b005b3415610d8257600080fd5b610d8a612702565b60405180826007811115610d9a57fe5b60ff16815260200191505060405180910390f35b3415610db957600080fd5b610dc1612715565b6040518082815260200191505060405180910390f35b3415610de257600080fd5b610dfb600480803560ff1690602001909190505061277e565b6040518082815260200191505060405180910390f35b3415610e1c57600080fd5b610e246127fd565b6040518082815260200191505060405180910390f35b3415610e4557600080fd5b610e5e600480803560ff16906020019091905050612803565b005b3415610e6b57600080fd5b610e8d600480803560ff16906020019091908035906020019091905050612885565b005b3415610e9a57600080fd5b610eb0600480803590602001909190505061290c565b005b3415610ebd57600080fd5b610edf600480803560ff16906020019091908035906020019091905050612972565b6040518082815260200191505060405180910390f35b3415610f0057600080fd5b610f166004808035906020019091905050612a0a565b604051808381526020018281526020019250505060405180910390f35b3415610f3e57600080fd5b610f46612a2e565b604051808273ffffffffffffffffffffffffffffffffffffffff1673ffffffffffffffffffffffffffffffffffffffff16815260200191505060405180910390f35b3415610f9357600080fd5b610f9b612a54565b6040518082815260200191505060405180910390f35b3415610fbc57600080fd5b610fc4612a5a565b6040518080602001828103825283818151815260200191508051906020019080838360005b83811015611004578082015181840152602081019050610fe9565b50505050905090810190601f1680156110315780820380516001836020036101000a031916815260200191505b509250505060405180910390f35b341561104a57600080fd5b611052612af8565b604051808273ffffffffffffffffffffffffffffffffffffffff1673ffffffffffffffffffffffffffffffffffffffff16815260200191505060405180910390f35b341561109f57600080fd5b6110a7612b1e565b60405180826000191660001916815260200191505060405180910390f35b34156110d057600080fd5b6110f160048080359060200190820180359060200191909192905050612d08565b005b34156110fe57600080fd5b61113e600480803573ffffffffffffffffffffffffffffffffffffffff169060200190919080359060200190820180359060200191909192905050612d7a565b6040518082815260200191505060405180910390f35b341561115f57600080fd5b61118b600480803573ffffffffffffffffffffffffffffffffffffffff16906020019091905050612dd9565b005b341561119857600080fd5b6111ae6004808035906020019091905050612e77565b604051808215151515815260200191505060405180910390f35b34156111d357600080fd5b6111e96004808035906020019091905050612e97565b604051808381526020018281526020019250505060405180910390f35b341561121157600080fd5b61122a600480803560ff16906020019091905050612ebb565b6040518082815260200191505060405180910390f35b6000809054906101000a900473ffffffffffffffffffffffffffffffffffffffff1673ffffffffffffffffffffffffffffffffffffffff163373ffffffffffffffffffffffffffffffffffffffff1614151561129b57600080fd5b80601560006101000a81548173ffffffffffffffffffffffffffffffffffffffff021916908373ffffffffffffffffffffffffffffffffffffffff16021790555050565b60006112e96139cb565b3373ffffffffffffffffffffffffffffffffffffffff16601560009054906101000a900473ffffffffffffffffffffffffffffffffffffffff1673ffffffffffffffffffffffffffffffffffffffff1614151561134557600080fd5b601260009054906101000a900473ffffffffffffffffffffffffffffffffffffffff1673ffffffffffffffffffffffffffffffffffffffff16636352211e856000604051602001526040518263ffffffff167c010000000000000000000000000000000000000000000000000000000002815260040180828152602001915050602060405180830381600087803b15156113de57600080fd5b6102c65a03f115156113ef57600080fd5b50505060405180519050915060408051908101604052808373ffffffffffffffffffffffffffffffffffffffff1681526020018481525090506016805480600101828161143c91906139fb565b9160005260206000209060020201600083909190915060008201518160000160006101000a81548173ffffffffffffffffffffffffffffffffffffffff021916908373ffffffffffffffffffffffffffffffffffffffff160217905550602082015181600101555050505092915050565b601360009054906101000a900473ffffffffffffffffffffffffffffffffffffffff1681565b60175481565b600760029054906101000a900460ff1681565b6114f4613a2d565b6000806000611501613a2d565b6000438810151561151157600080fd5b87406001900494503373ffffffffffffffffffffffffffffffffffffffff1693508484029250424486866040518085815260200184815260200183815260200182815260200194505050505060405180910390206001900492507f2c7df83ce284dc9c63cf5d2312952dd5ccecf8f255192742b2ca327d3e6c6a43838987878b42446040518088815260200187815260200186815260200185815260200184815260200183815260200182815260200197505050505050505060405180910390a1600083141515156115e257600080fd5b86839060020a90049250600760019054906101000a900460ff16600760009054906101000a900460ff160160ff1660405180591061161d5750595b9080825280601f01601f19166020018201604052509150600090505b600760009054906101000a900460ff1660ff168160ff1610156116f2576001600260009054906101000a900460ff1660ff168481151561167557fe5b06017f010000000000000000000000000000000000000000000000000000000000000002828260ff168151811015156116aa57fe5b9060200101907effffffffffffffffffffffffffffffffffffffffffffffffffffffffffffff1916908160001a9053506008839060020a900492508080600101915050611639565b600760009054906101000a900460ff1690505b81518160ff1610156117ad576001600260019054906101000a900460ff1660ff168481151561173057fe5b06017f010000000000000000000000000000000000000000000000000000000000000002828260ff1681518110151561176557fe5b9060200101907effffffffffffffffffffffffffffffffffffffffffffffffffffffffffffff1916908160001a9053506008839060020a900492508080600101915050611705565b819550505050505092915050565b3373ffffffffffffffffffffffffffffffffffffffff16601560009054906101000a900473ffffffffffffffffffffffffffffffffffffffff1673ffffffffffffffffffffffffffffffffffffffff1614151561181757600080fd5b80600c8190555050565b600760019054906101000a900460ff1681565b3373ffffffffffffffffffffffffffffffffffffffff16601560009054906101000a900473ffffffffffffffffffffffffffffffffffffffff1673ffffffffffffffffffffffffffffffffffffffff1614151561189057600080fd5b80600f60008460ff168152602001908152602001600020600201819055505050565b601460009054906101000a900473ffffffffffffffffffffffffffffffffffffffff1681565b60008060006118e5613a2d565b6000808760ff161115156118f857600080fd5b611900612f3d565b9450848760ff161115611911578496505b8660ff168581151561191f57fe5b049350600092505b8660ff168360ff1610156119fb57611948600143036007850260ff166114ec565b915083905060018760ff1611801561196857506001870360ff168360ff16145b1561197b576001870360ff168402850390505b61198732838334613096565b5060008673ffffffffffffffffffffffffffffffffffffffff16141580156119db57508573ffffffffffffffffffffffffffffffffffffffff163273ffffffffffffffffffffffffffffffffffffffff1614155b156119ee576119ec86838334613096565b505b8280600101935050611927565b50505050505050565b6000611a0e613a41565b600080611a4a868680806020026020016040519081016040528093929190818152602001838360200280828437820191505050505050326136d7565b8094508195508296505050506000841115611c0057601360009054906101000a900473ffffffffffffffffffffffffffffffffffffffff1673ffffffffffffffffffffffffffffffffffffffff1663a9059cbb32866040518363ffffffff167c0100000000000000000000000000000000000000000000000000000000028152600401808373ffffffffffffffffffffffffffffffffffffffff1673ffffffffffffffffffffffffffffffffffffffff16815260200182815260200192505050600060405180830381600087803b1515611b2357600080fd5b6102c65a03f11515611b3457600080fd5b5050507fede4d03c867cd33eef808cb7e94941039fcb41bddb496675b7df85c4f9533bc33285604051808373ffffffffffffffffffffffffffffffffffffffff1673ffffffffffffffffffffffffffffffffffffffff1681526020018281526020019250505060405180910390a1600090505b81811015611bff576001601860008584815181101515611bc357fe5b90602001906020020151815260200190815260200160002060006101000a81548160ff0219169083151502179055508080600101915050611ba7565b5b505050505050565b601181815481101515611c1757fe5b90600052602060002090600302016000915090508060000154908060010154908060020154905083565b600681815481101515611c5057fe5b90600052602060002090016000915090505481565b600260019054906101000a900460ff1681565b3373ffffffffffffffffffffffffffffffffffffffff16601560009054906101000a900473ffffffffffffffffffffffffffffffffffffffff1673ffffffffffffffffffffffffffffffffffffffff16141515611cd457600080fd5b80600a8190555050565b3373ffffffffffffffffffffffffffffffffffffffff16601560009054906101000a900473ffffffffffffffffffffffffffffffffffffffff1673ffffffffffffffffffffffffffffffffffffffff16141515611d3a57600080fd5b600f60008381526020019081526020016000206000018054806001018281611d629190613a55565b9160005260206000209001600083909190915055505050565b60045481565b6000611d8b612f3d565b9050611d9932848334613096565b5060008273ffffffffffffffffffffffffffffffffffffffff1614158015611ded57508173ffffffffffffffffffffffffffffffffffffffff163273ffffffffffffffffffffffffffffffffffffffff1614155b15611e0057611dfe82848334613096565b505b505050565b3373ffffffffffffffffffffffffffffffffffffffff16601560009054906101000a900473ffffffffffffffffffffffffffffffffffffffff1673ffffffffffffffffffffffffffffffffffffffff16141515611e6157600080fd5b80601960008460ff168152602001908152602001600020600001600082825401925050819055505050565b600c5481565b600260009054906101000a900460ff1681565b60055481565b6000600680549050905090565b60003373ffffffffffffffffffffffffffffffffffffffff16601560009054906101000a900473ffffffffffffffffffffffffffffffffffffffff1673ffffffffffffffffffffffffffffffffffffffff16141515611f1657600080fd5b600f60008360ff168152602001908152602001600020600101549050919050565b60003373ffffffffffffffffffffffffffffffffffffffff16601560009054906101000a900473ffffffffffffffffffffffffffffffffffffffff1673ffffffffffffffffffffffffffffffffffffffff16141515611f9557600080fd5b601180549050905090565b601681815481101515611faf57fe5b90600052602060002090600202016000915090508060000160009054906101000a900473ffffffffffffffffffffffffffffffffffffffff16908060010154905082565b600d5481565b6000809054906101000a900473ffffffffffffffffffffffffffffffffffffffff1681565b6000612028613a2d565b601360009054906101000a900473ffffffffffffffffffffffffffffffffffffffff1673ffffffffffffffffffffffffffffffffffffffff168473ffffffffffffffffffffffffffffffffffffffff1614151561208457600080fd5b6000835114806120a65750600760029054906101000a900460ff1660ff168351145b15156120b157600080fd5b600354858115156120be57fe5b0491506000821115156120d057600080fd5b6000835114156120ef576120e86001430360006114ec565b90506120f3565b8290505b6120ff86828488613096565b50505050505050565b60003373ffffffffffffffffffffffffffffffffffffffff16601560009054906101000a900473ffffffffffffffffffffffffffffffffffffffff1673ffffffffffffffffffffffffffffffffffffffff1614151561216657600080fd5b601960008360ff168152602001908152602001600020600101549050919050565b82601260006101000a81548173ffffffffffffffffffffffffffffffffffffffff021916908373ffffffffffffffffffffffffffffffffffffffff16021790555081601360006101000a81548173ffffffffffffffffffffffffffffffffffffffff021916908373ffffffffffffffffffffffffffffffffffffffff16021790555080601460006101000a81548173ffffffffffffffffffffffffffffffffffffffff021916908373ffffffffffffffffffffffffffffffffffffffff160217905550326000806101000a81548173ffffffffffffffffffffffffffffffffffffffff021916908373ffffffffffffffffffffffffffffffffffffffff160217905550505050565b600b5481565b3373ffffffffffffffffffffffffffffffffffffffff16601560009054906101000a900473ffffffffffffffffffffffffffffffffffffffff1673ffffffffffffffffffffffffffffffffffffffff161415156122f157600080fd5b8060178190555050565b600760009054906101000a900460ff1681565b60015481565b3373ffffffffffffffffffffffffffffffffffffffff16601560009054906101000a900473ffffffffffffffffffffffffffffffffffffffff1673ffffffffffffffffffffffffffffffffffffffff1614151561237057600080fd5b60008273ffffffffffffffffffffffffffffffffffffffff1614158015612398575060008114155b1561247657601360009054906101000a900473ffffffffffffffffffffffffffffffffffffffff1673ffffffffffffffffffffffffffffffffffffffff1663a9059cbb83836040518363ffffffff167c0100000000000000000000000000000000000000000000000000000000028152600401808373ffffffffffffffffffffffffffffffffffffffff1673ffffffffffffffffffffffffffffffffffffffff16815260200182815260200192505050600060405180830381600087803b151561246157600080fd5b6102c65a03f1151561247257600080fd5b5050505b5050565b600e6020528060005260406000206000915090505481565b60003373ffffffffffffffffffffffffffffffffffffffff16601560009054906101000a900473ffffffffffffffffffffffffffffffffffffffff1673ffffffffffffffffffffffffffffffffffffffff161415156124f057600080fd5b600f60008360ff168152602001908152602001600020600201549050919050565b3373ffffffffffffffffffffffffffffffffffffffff16601560009054906101000a900473ffffffffffffffffffffffffffffffffffffffff1673ffffffffffffffffffffffffffffffffffffffff1614151561256d57600080fd5b80601960008460ff168152602001908152602001600020600001819055505050565b60003373ffffffffffffffffffffffffffffffffffffffff16601560009054906101000a900473ffffffffffffffffffffffffffffffffffffffff1673ffffffffffffffffffffffffffffffffffffffff161415156125ed57600080fd5b60118260ff168154811015156125ff57fe5b9060005260206000209060030201600201549050919050565b60035481565b3373ffffffffffffffffffffffffffffffffffffffff16601560009054906101000a900473ffffffffffffffffffffffffffffffffffffffff1673ffffffffffffffffffffffffffffffffffffffff1614151561267a57600080fd5b80600f60008460ff168152602001908152602001600020600101819055505050565b3373ffffffffffffffffffffffffffffffffffffffff16601560009054906101000a900473ffffffffffffffffffffffffffffffffffffffff1673ffffffffffffffffffffffffffffffffffffffff161415156126f857600080fd5b8060088190555050565b601a60009054906101000a900460ff1681565b60003373ffffffffffffffffffffffffffffffffffffffff16601560009054906101000a900473ffffffffffffffffffffffffffffffffffffffff1673ffffffffffffffffffffffffffffffffffffffff1614151561277357600080fd5b601680549050905090565b60003373ffffffffffffffffffffffffffffffffffffffff16601560009054906101000a900473ffffffffffffffffffffffffffffffffffffffff1673ffffffffffffffffffffffffffffffffffffffff161415156127dc57600080fd5b601960008360ff168152602001908152602001600020600001549050919050565b600a5481565b3373ffffffffffffffffffffffffffffffffffffffff16601560009054906101000a900473ffffffffffffffffffffffffffffffffffffffff1673ffffffffffffffffffffffffffffffffffffffff1614151561285f57600080fd5b80601a60006101000a81548160ff0219169083600781111561287d57fe5b021790555050565b3373ffffffffffffffffffffffffffffffffffffffff16601560009054906101000a900473ffffffffffffffffffffffffffffffffffffffff1673ffffffffffffffffffffffffffffffffffffffff161415156128e157600080fd5b80601960008460ff168152602001908152602001600020600101600082825401925050819055505050565b3373ffffffffffffffffffffffffffffffffffffffff16601560009054906101000a900473ffffffffffffffffffffffffffffffffffffffff1673ffffffffffffffffffffffffffffffffffffffff1614151561296857600080fd5b80600b8190555050565b60003373ffffffffffffffffffffffffffffffffffffffff16601560009054906101000a900473ffffffffffffffffffffffffffffffffffffffff1673ffffffffffffffffffffffffffffffffffffffff161415156129d057600080fd5b600f60008460ff168152602001908152602001600020600001828154811015156129f657fe5b906000526020600020900154905092915050565b600f6020528060005260406000206000915090508060010154908060020154905082565b601260009054906101000a900473ffffffffffffffffffffffffffffffffffffffff1681565b60085481565b60098054600181600116156101000203166002900480601f016020809104026020016040519081016040528092919081815260200182805460018160011615610100020316600290048015612af05780601f10612ac557610100808354040283529160200191612af0565b820191906000526020600020905b815481529060010190602001808311612ad357829003601f168201915b505050505081565b601560009054906101000a900473ffffffffffffffffffffffffffffffffffffffff1681565b6000612b28613a2d565b6000803373ffffffffffffffffffffffffffffffffffffffff16601560009054906101000a900473ffffffffffffffffffffffffffffffffffffffff1673ffffffffffffffffffffffffffffffffffffffff16141515612b8757600080fd5b60098054600181600116156101000203166002900480601f016020809104026020016040519081016040528092919081815260200182805460018160011615610100020316600290048015612c1d5780601f10612bf257610100808354040283529160200191612c1d565b820191906000526020600020905b815481529060010190602001808311612c0057829003601f168201915b50505050509250602091508251821115612c3657825191505b600090505b81811015612d02576008810260ff7f0100000000000000000000000000000000000000000000000000000000000000028483815181101515612c7957fe5b9060200101517f010000000000000000000000000000000000000000000000000000000000000090047f010000000000000000000000000000000000000000000000000000000000000002167effffffffffffffffffffffffffffffffffffffffffffffffffffffffffffff1916600019169060020a9004841793508080600101915050612c3b565b50505090565b3373ffffffffffffffffffffffffffffffffffffffff16601560009054906101000a900473ffffffffffffffffffffffffffffffffffffffff1673ffffffffffffffffffffffffffffffffffffffff16141515612d6457600080fd5b818160099190612d75929190613a81565b505050565b600080612d85613a41565b6000612dc0868680806020026020016040519081016040528093929190818152602001838360200280828437820191505050505050886136d7565b8093508194508295505050508293505050509392505050565b6000809054906101000a900473ffffffffffffffffffffffffffffffffffffffff1673ffffffffffffffffffffffffffffffffffffffff163373ffffffffffffffffffffffffffffffffffffffff16141515612e3457600080fd5b806000806101000a81548173ffffffffffffffffffffffffffffffffffffffff021916908373ffffffffffffffffffffffffffffffffffffffff16021790555050565b60186020528060005260406000206000915054906101000a900460ff1681565b60106020528060005260406000206000915090508060010154908060020154905082565b60003373ffffffffffffffffffffffffffffffffffffffff16601560009054906101000a900473ffffffffffffffffffffffffffffffffffffffff1673ffffffffffffffffffffffffffffffffffffffff16141515612f1957600080fd5b600f60008360ff168152602001908152602001600020600001805490509050919050565b6000806007811115612f4b57fe5b601a60009054906101000a900460ff166007811115612f6657fe5b141515612f7257600080fd5b60015443101515612f8257600080fd5b6000601360009054906101000a900473ffffffffffffffffffffffffffffffffffffffff1673ffffffffffffffffffffffffffffffffffffffff1614151515612fca57600080fd5b60035434811515612fd757fe5b049050600081111515612fe957600080fd5b601360009054906101000a900473ffffffffffffffffffffffffffffffffffffffff1673ffffffffffffffffffffffffffffffffffffffff1663a6f2ae3a346040518263ffffffff167c01000000000000000000000000000000000000000000000000000000000281526004016000604051808303818588803b151561306e57600080fd5b6125ee5a03f1151561307f57600080fd5b5050505034600d6000828254019250508190555090565b6000806000600760019054906101000a900460ff16600760009054906101000a900460ff160160ff1686511415156130cd57600080fd5b600091505b600760009054906101000a900460ff1660ff168260ff16101561322c576001868360ff1681518110151561310257fe5b9060200101517f010000000000000000000000000000000000000000000000000000000000000090047f0100000000000000000000000000000000000000000000000000000000000000027f0100000000000000000000000000000000000000000000000000000000000000900460ff16101580156132145750600260009054906101000a900460ff1660ff16868360ff168151811015156131a057fe5b9060200101517f010000000000000000000000000000000000000000000000000000000000000090047f0100000000000000000000000000000000000000000000000000000000000000027f0100000000000000000000000000000000000000000000000000000000000000900460ff1611155b151561321f57600080fd5b81806001019250506130d2565b600760009054906101000a900460ff1691505b85518260ff161015613388576001868360ff1681518110151561325e57fe5b9060200101517f010000000000000000000000000000000000000000000000000000000000000090047f0100000000000000000000000000000000000000000000000000000000000000027f0100000000000000000000000000000000000000000000000000000000000000900460ff16101580156133705750600260019054906101000a900460ff1660ff16868360ff168151811015156132fc57fe5b9060200101517f010000000000000000000000000000000000000000000000000000000000000090047f0100000000000000000000000000000000000000000000000000000000000000027f0100000000000000000000000000000000000000000000000000000000000000900460ff1611155b151561337b57600080fd5b818060010192505061323f565b60008511151561339757600080fd5b601460009054906101000a900473ffffffffffffffffffffffffffffffffffffffff1673ffffffffffffffffffffffffffffffffffffffff1663775ed63d8888886000604051602001526040518463ffffffff167c0100000000000000000000000000000000000000000000000000000000028152600401808473ffffffffffffffffffffffffffffffffffffffff1673ffffffffffffffffffffffffffffffffffffffff16815260200180602001838152602001828103825284818151815260200191508051906020019080838360005b83811015613484578082015181840152602081019050613469565b50505050905090810190601f1680156134b15780820380516001836020036101000a031916815260200191505b50945050505050602060405180830381600087803b15156134d157600080fd5b6102c65a03f115156134e257600080fd5b505050604051805190509050600680548060010182816135029190613a55565b916000526020600020900160008390919091505550601260009054906101000a900473ffffffffffffffffffffffffffffffffffffffff1673ffffffffffffffffffffffffffffffffffffffff16637266a2326000604051602001526040518163ffffffff167c0100000000000000000000000000000000000000000000000000000000028152600401602060405180830381600087803b15156135a557600080fd5b6102c65a03f115156135b657600080fd5b505050604051805190506005819055507f5668ef0a105003526dc9fcca87fdecfef80b94dc11daaab96ac3b953b3484ff86001548787848b436005548b60405180898152602001806020018881526020018781526020018673ffffffffffffffffffffffffffffffffffffffff1673ffffffffffffffffffffffffffffffffffffffff168152602001858152602001848152602001838152602001828103825289818151815260200191508051906020019080838360005b8381101561368957808201518184015260208101905061366e565b50505050905090810190601f1680156136b65780820380516001836020036101000a031916815260200191505b50995050505050505050505060405180910390a18092505050949350505050565b60006136e1613a41565b60008060008060008060006136f4613a41565b60008060008099508e5160405180591061370b5750595b908082528060200260200182016040525093506000925060006005541415156139b457600091505b8e5182101561399f578e8281518110151561374a57fe5b906020019060200201519050601260009054906101000a900473ffffffffffffffffffffffffffffffffffffffff1673ffffffffffffffffffffffffffffffffffffffff16637dc379fa82600060405160a001526040518263ffffffff167c01000000000000000000000000000000000000000000000000000000000281526004018082815260200191505060a060405180830381600087803b15156137ef57600080fd5b6102c65a03f1151561380057600080fd5b505050604051805190602001805190602001805190602001805190602001805190508367ffffffffffffffff169350809950819a50829b50839c50849d505050505050600015156018600083815260200190815260200160002060009054906101000a900460ff161515148015613878575060015485105b801561396257508d73ffffffffffffffffffffffffffffffffffffffff16601260009054906101000a900473ffffffffffffffffffffffffffffffffffffffff1673ffffffffffffffffffffffffffffffffffffffff16636352211e836000604051602001526040518263ffffffff167c010000000000000000000000000000000000000000000000000000000002815260040180828152602001915050602060405180830381600087803b151561392f57600080fd5b6102c65a03f1151561394057600080fd5b5050506040518051905073ffffffffffffffffffffffffffffffffffffffff16145b1561399257858a01995080848481518110151561397b57fe5b906020019060200201818152505082806001019350505b8180600101925050613733565b600554600a548b028115156139b057fe5b049c505b839b50829a50505050505050505050509250925092565b6040805190810160405280600073ffffffffffffffffffffffffffffffffffffffff168152602001600081525090565b815481835581811511613a2857600202816002028360005260206000209182019101613a279190613b01565b5b505050565b602060405190810160405280600081525090565b602060405190810160405280600081525090565b815481835581811511613a7c57818360005260206000209182019101613a7b9190613b4f565b5b505050565b828054600181600116156101000203166002900490600052602060002090601f016020900481019282601f10613ac257803560ff1916838001178555613af0565b82800160010185558215613af0579182015b82811115613aef578235825591602001919060010190613ad4565b5b509050613afd9190613b4f565b5090565b613b4c91905b80821115613b4857600080820160006101000a81549073ffffffffffffffffffffffffffffffffffffffff0219169055600182016000905550600201613b07565b5090565b90565b613b7191905b80821115613b6d576000816000905550600101613b55565b5090565b90565b6000816001600760019054906101000a900460ff160160ff168402019050929150505600a165627a7a723058203059390442b95f04951246ad5ef0d16ed585127ee5398c71fed8585b5c1f5b870029a165627a7a72305820ef9fb855001d7215cb3e63c3235afd481148dc9ffdb40ca7c570ba5532ec5c780029",
  "source": "pragma solidity ^0.4.4;\n\nimport \"./ChainLotPool.sol\";\n\n\ncontract ChainLotPoolFactory is owned {\n  \tuint poolCount;\n\n  \tevent GenerateNewPool(uint latestPoolBlockNumber, uint nextPoolBlockNumber, uint length);\n\t\n\t//pool range: n*awardIntervalNumber ~ (n+1)awardIntervalNumber-1\n  \tfunction newPool(uint latestPoolBlockNumber,\n  \t\t\t\t\t\tuint8 maxWhiteNumber, \n\t\t\t\t\t\tuint8 maxYellowNumber, \n\t\t\t\t\t\tuint8 whiteNumberCount, \n\t\t\t\t\t\tuint8 yellowNumberCount, \n\t\t\t\t\t\tuint awardIntervalNumber,\n\t\t\t\t\t\tuint etherPerTicket, \n\t\t\t\t\t\tuint[] awardRulesArray) onlyOwner  external returns (ChainLotPoolInterface poolAddress){\n  \tuint startPoolBlockNumber = block.number;\n  \tif(startPoolBlockNumber < latestPoolBlockNumber) startPoolBlockNumber = latestPoolBlockNumber;\n  \tuint nextPoolBlockNumber = startPoolBlockNumber - startPoolBlockNumber%awardIntervalNumber + awardIntervalNumber;\n\tChainLotPool clp;\n\t//GenerateNewPool(currentPoolBlockNumber, nextPoolBlockNumber, chainlotPools.length);\n\t\t//generate new pool\n\tclp = new ChainLotPool(nextPoolBlockNumber, \n\t\tmaxWhiteNumber, maxYellowNumber, whiteNumberCount, yellowNumberCount, \n\t\tetherPerTicket, awardRulesArray);\n\tpoolCount ++;\n\tGenerateNewPool(latestPoolBlockNumber, nextPoolBlockNumber, poolCount);\n\t\n  \treturn ChainLotPoolInterface(clp);\n  }\n\n  function setPool(address pool, ChainLotTicketInterface _chainLotTicket,\n\t\t\t\t\t\tCLTokenInterface _clToken,\n\t\t\t\t\t\tChainLotInterface _chainLot) onlyOwner external {\n  \tChainLotPool(pool).setPool(_chainLotTicket, _clToken, _chainLot);\n\n  }\n}\n",
  "sourcePath": "/Users/phx/eth/chainlot/contracts/ChainLotPoolFactory.sol",
  "compiler": {
    "name": "solc",
    "version": "0.4.19+commit.c4cbbb05.Emscripten.clang"
  },
  "schemaVersion": "2.0.0",
  "updatedAt": "2018-06-30T02:49:01.726Z"
}