{
  "contractName": "ChainLotPublic",
  "abi": [
    {
      "constant": true,
      "inputs": [],
      "name": "clToken",
      "outputs": [
        {
          "name": "",
          "type": "address"
        }
      ],
      "payable": false,
      "stateMutability": "view",
      "type": "function"
    },
    {
      "constant": true,
      "inputs": [],
      "name": "chainlot",
      "outputs": [
        {
          "name": "",
          "type": "address"
        }
      ],
      "payable": false,
      "stateMutability": "view",
      "type": "function"
    },
    {
      "constant": true,
      "inputs": [],
      "name": "owner",
      "outputs": [
        {
          "name": "",
          "type": "address"
        }
      ],
      "payable": false,
      "stateMutability": "view",
      "type": "function"
    },
    {
      "constant": false,
      "inputs": [
        {
          "name": "newOwner",
          "type": "address"
        }
      ],
      "name": "transferOwnership",
      "outputs": [],
      "payable": false,
      "stateMutability": "nonpayable",
      "type": "function"
    },
    {
      "payable": true,
      "stateMutability": "payable",
      "type": "fallback"
    },
    {
      "anonymous": false,
      "inputs": [
        {
          "indexed": false,
          "name": "poolBlockNumber",
          "type": "uint256"
        },
        {
          "indexed": false,
          "name": "numbers",
          "type": "bytes"
        },
        {
          "indexed": false,
          "name": "ticketCount",
          "type": "uint256"
        },
        {
          "indexed": false,
          "name": "ticketId",
          "type": "uint256"
        },
        {
          "indexed": false,
          "name": "user",
          "type": "address"
        },
        {
          "indexed": false,
          "name": "blockNumber",
          "type": "uint256"
        },
        {
          "indexed": false,
          "name": "totalTicketCountSum",
          "type": "uint256"
        },
        {
          "indexed": false,
          "name": "value",
          "type": "uint256"
        }
      ],
      "name": "BuyTicket",
      "type": "event"
    },
    {
      "constant": false,
      "inputs": [
        {
          "name": "numbers",
          "type": "bytes"
        },
        {
          "name": "referer",
          "type": "address"
        }
      ],
      "name": "buyTicket",
      "outputs": [],
      "payable": true,
      "stateMutability": "payable",
      "type": "function"
    },
    {
      "constant": false,
      "inputs": [
        {
          "name": "referer",
          "type": "address"
        }
      ],
      "name": "buyRandom",
      "outputs": [],
      "payable": true,
      "stateMutability": "payable",
      "type": "function"
    },
    {
      "constant": false,
      "inputs": [
        {
          "name": "chainlotAddress",
          "type": "address"
        }
      ],
      "name": "setChainLotAddress",
      "outputs": [],
      "payable": false,
      "stateMutability": "nonpayable",
      "type": "function"
    },
    {
      "constant": false,
      "inputs": [
        {
          "name": "cltokenAddress",
          "type": "address"
        }
      ],
      "name": "setCLTokenAddress",
      "outputs": [],
      "payable": false,
      "stateMutability": "nonpayable",
      "type": "function"
    },
    {
      "constant": false,
      "inputs": [
        {
          "name": "_from",
          "type": "address"
        },
        {
          "name": "_value",
          "type": "uint256"
        },
        {
          "name": "_token",
          "type": "address"
        },
        {
          "name": "_extraData",
          "type": "bytes"
        }
      ],
      "name": "receiveApproval",
      "outputs": [],
      "payable": false,
      "stateMutability": "nonpayable",
      "type": "function"
    }
  ],
  "bytecode": "0x6060604052336000806101000a81548173ffffffffffffffffffffffffffffffffffffffff021916908373ffffffffffffffffffffffffffffffffffffffff160217905550610bbc806100536000396000f300606060405260043610610099576000357c0100000000000000000000000000000000000000000000000000000000900463ffffffff1680630800e5f1146100a55780630850cc4b146100fa5780631106245c146101285780633f12fdaa1461017d5780636ea6c8b2146101b65780638da5cb5b146102275780638f4ffcb11461027c578063cded58e914610320578063f2fde38b14610359575b6100a36000610392565b005b34156100b057600080fd5b6100b8610466565b604051808273ffffffffffffffffffffffffffffffffffffffff1673ffffffffffffffffffffffffffffffffffffffff16815260200191505060405180910390f35b610126600480803573ffffffffffffffffffffffffffffffffffffffff16906020019091905050610392565b005b341561013357600080fd5b61013b61048c565b604051808273ffffffffffffffffffffffffffffffffffffffff1673ffffffffffffffffffffffffffffffffffffffff16815260200191505060405180910390f35b341561018857600080fd5b6101b4600480803573ffffffffffffffffffffffffffffffffffffffff169060200190919050506104b2565b005b610225600480803590602001908201803590602001908080601f0160208091040260200160405190810160405280939291908181526020018383808284378201915050505050509190803573ffffffffffffffffffffffffffffffffffffffff16906020019091905050610551565b005b341561023257600080fd5b61023a610693565b604051808273ffffffffffffffffffffffffffffffffffffffff1673ffffffffffffffffffffffffffffffffffffffff16815260200191505060405180910390f35b341561028757600080fd5b61031e600480803573ffffffffffffffffffffffffffffffffffffffff1690602001909190803590602001909190803573ffffffffffffffffffffffffffffffffffffffff1690602001909190803590602001908201803590602001908080601f016020809104026020016040519081016040528093929190818152602001838380828437820191505050505050919050506106b8565b005b341561032b57600080fd5b610357600480803573ffffffffffffffffffffffffffffffffffffffff16906020019091905050610a53565b005b341561036457600080fd5b610390600480803573ffffffffffffffffffffffffffffffffffffffff16906020019091905050610af2565b005b600160009054906101000a900473ffffffffffffffffffffffffffffffffffffffff1673ffffffffffffffffffffffffffffffffffffffff16630850cc4b34836040518363ffffffff167c0100000000000000000000000000000000000000000000000000000000028152600401808273ffffffffffffffffffffffffffffffffffffffff1673ffffffffffffffffffffffffffffffffffffffff1681526020019150506000604051808303818588803b151561044e57600080fd5b6125ee5a03f1151561045f57600080fd5b5050505050565b600260009054906101000a900473ffffffffffffffffffffffffffffffffffffffff1681565b600160009054906101000a900473ffffffffffffffffffffffffffffffffffffffff1681565b6000809054906101000a900473ffffffffffffffffffffffffffffffffffffffff1673ffffffffffffffffffffffffffffffffffffffff163373ffffffffffffffffffffffffffffffffffffffff1614151561050d57600080fd5b80600260006101000a81548173ffffffffffffffffffffffffffffffffffffffff021916908373ffffffffffffffffffffffffffffffffffffffff16021790555050565b600160009054906101000a900473ffffffffffffffffffffffffffffffffffffffff1673ffffffffffffffffffffffffffffffffffffffff16636ea6c8b23484846040518463ffffffff167c010000000000000000000000000000000000000000000000000000000002815260040180806020018373ffffffffffffffffffffffffffffffffffffffff1673ffffffffffffffffffffffffffffffffffffffff168152602001828103825284818151815260200191508051906020019080838360005b8381101561062f578082015181840152602081019050610614565b50505050905090810190601f16801561065c5780820380516001836020036101000a031916815260200191505b5093505050506000604051808303818588803b151561067a57600080fd5b6125ee5a03f1151561068b57600080fd5b505050505050565b6000809054906101000a900473ffffffffffffffffffffffffffffffffffffffff1681565b600260009054906101000a900473ffffffffffffffffffffffffffffffffffffffff1673ffffffffffffffffffffffffffffffffffffffff166323b872dd8530866000604051602001526040518463ffffffff167c0100000000000000000000000000000000000000000000000000000000028152600401808473ffffffffffffffffffffffffffffffffffffffff1673ffffffffffffffffffffffffffffffffffffffff1681526020018373ffffffffffffffffffffffffffffffffffffffff1673ffffffffffffffffffffffffffffffffffffffff1681526020018281526020019350505050602060405180830381600087803b15156107b957600080fd5b6102c65a03f115156107ca57600080fd5b5050506040518051905015610a4d57600260009054906101000a900473ffffffffffffffffffffffffffffffffffffffff1673ffffffffffffffffffffffffffffffffffffffff1663a9059cbb600160009054906101000a900473ffffffffffffffffffffffffffffffffffffffff16856040518363ffffffff167c0100000000000000000000000000000000000000000000000000000000028152600401808373ffffffffffffffffffffffffffffffffffffffff1673ffffffffffffffffffffffffffffffffffffffff16815260200182815260200192505050600060405180830381600087803b15156108bf57600080fd5b6102c65a03f115156108d057600080fd5b505050600160009054906101000a900473ffffffffffffffffffffffffffffffffffffffff1673ffffffffffffffffffffffffffffffffffffffff16638f4ffcb1858585856040518563ffffffff167c0100000000000000000000000000000000000000000000000000000000028152600401808573ffffffffffffffffffffffffffffffffffffffff1673ffffffffffffffffffffffffffffffffffffffff1681526020018481526020018373ffffffffffffffffffffffffffffffffffffffff1673ffffffffffffffffffffffffffffffffffffffff16815260200180602001828103825283818151815260200191508051906020019080838360005b838110156109ea5780820151818401526020810190506109cf565b50505050905090810190601f168015610a175780820380516001836020036101000a031916815260200191505b5095505050505050600060405180830381600087803b1515610a3857600080fd5b6102c65a03f11515610a4957600080fd5b5050505b50505050565b6000809054906101000a900473ffffffffffffffffffffffffffffffffffffffff1673ffffffffffffffffffffffffffffffffffffffff163373ffffffffffffffffffffffffffffffffffffffff16141515610aae57600080fd5b80600160006101000a81548173ffffffffffffffffffffffffffffffffffffffff021916908373ffffffffffffffffffffffffffffffffffffffff16021790555050565b6000809054906101000a900473ffffffffffffffffffffffffffffffffffffffff1673ffffffffffffffffffffffffffffffffffffffff163373ffffffffffffffffffffffffffffffffffffffff16141515610b4d57600080fd5b806000806101000a81548173ffffffffffffffffffffffffffffffffffffffff021916908373ffffffffffffffffffffffffffffffffffffffff160217905550505600a165627a7a7230582004a27a01bca89b8e291ef023cfb4ef1979b5d45011f5e33511ef61d0cb5baaa40029",
  "source": "pragma solidity ^0.4.18;\nimport \"./Interface.sol\";\nimport \"./owned.sol\";\n\ncontract ChainLotPublic is owned {\n\tChainLotInterface public chainlot;\n\tCLTokenInterface public clToken;\n\tevent BuyTicket(uint poolBlockNumber, bytes numbers, uint ticketCount, uint ticketId, address user, uint blockNumber, uint totalTicketCountSum, uint value);\n\n\tfunction buyTicket(bytes numbers, address referer) payable public {\n\t\tchainlot.buyTicket.value(msg.value)(numbers, referer);\n\t}\n\t\n\tfunction buyRandom(address referer) payable public {\n\t\tchainlot.buyRandom.value(msg.value)(referer);\n\t}\n\n\tfunction setChainLotAddress(address chainlotAddress) onlyOwner external {\n\t\tchainlot = ChainLotInterface(chainlotAddress);\n\t}\n\n\tfunction setCLTokenAddress(address cltokenAddress) onlyOwner external {\n\t\tclToken = CLTokenInterface(cltokenAddress);\n\t}\n\n\tfunction receiveApproval(address _from, uint _value, address _token, bytes _extraData) public {\n\t\tif(clToken.transferFrom(_from, this, _value)) {\n\t\t\tclToken.transfer(chainlot, _value);\n\t\t\tchainlot.receiveApproval(_from, _value, _token, _extraData);\n\t\t}\n\t}\n\n\tfunction () payable public {\n\t\tbuyRandom(0);\n\t}\n\n}",
  "sourcePath": "/Users/phx/eth/chainlot/contracts/ChainLotPublic.sol",
  "compiler": {
    "name": "solc",
    "version": "0.4.19+commit.c4cbbb05.Emscripten.clang"
  },
  "schemaVersion": "2.0.0",
  "updatedAt": "2018-06-07T13:39:09.842Z"
}