{
  "contractName": "ChainLot",
  "abi": [
    {
      "constant": false,
      "inputs": [],
      "name": "award",
      "outputs": [],
      "payable": false,
      "stateMutability": "nonpayable",
      "type": "function"
    },
    {
      "constant": false,
      "inputs": [
        {
          "name": "numbers",
          "type": "uint8[]"
        }
      ],
      "name": "buyTicket",
      "outputs": [],
      "payable": true,
      "stateMutability": "payable",
      "type": "function"
    },
    {
      "constant": true,
      "inputs": [],
      "name": "maxYellowNumber",
      "outputs": [
        {
          "name": "",
          "type": "uint8"
        }
      ],
      "payable": false,
      "stateMutability": "view",
      "type": "function"
    },
    {
      "constant": true,
      "inputs": [],
      "name": "maxWhiteNumber",
      "outputs": [
        {
          "name": "",
          "type": "uint8"
        }
      ],
      "payable": false,
      "stateMutability": "view",
      "type": "function"
    },
    {
      "constant": true,
      "inputs": [],
      "name": "owner",
      "outputs": [
        {
          "name": "",
          "type": "address"
        }
      ],
      "payable": false,
      "stateMutability": "view",
      "type": "function"
    },
    {
      "constant": true,
      "inputs": [],
      "name": "etherPerTicket",
      "outputs": [
        {
          "name": "",
          "type": "uint256"
        }
      ],
      "payable": false,
      "stateMutability": "view",
      "type": "function"
    },
    {
      "constant": false,
      "inputs": [],
      "name": "buyRandom",
      "outputs": [],
      "payable": true,
      "stateMutability": "payable",
      "type": "function"
    },
    {
      "inputs": [
        {
          "name": "_maxWhiteNumber",
          "type": "uint8"
        },
        {
          "name": "_maxYellowNumber",
          "type": "uint8"
        },
        {
          "name": "_etherPerTicket",
          "type": "uint256"
        }
      ],
      "payable": false,
      "stateMutability": "nonpayable",
      "type": "constructor"
    },
    {
      "anonymous": false,
      "inputs": [
        {
          "indexed": false,
          "name": "numbers",
          "type": "uint8[]"
        },
        {
          "indexed": false,
          "name": "ticketCount",
          "type": "uint256"
        },
        {
          "indexed": false,
          "name": "user",
          "type": "address"
        },
        {
          "indexed": false,
          "name": "blockNumber",
          "type": "uint256"
        },
        {
          "indexed": false,
          "name": "ticketsCount",
          "type": "uint256"
        }
      ],
      "name": "BuyTicket",
      "type": "event"
    },
    {
      "anonymous": false,
      "inputs": [
        {
          "indexed": false,
          "name": "n",
          "type": "uint8"
        },
        {
          "indexed": false,
          "name": "random",
          "type": "uint256"
        }
      ],
      "name": "LOG",
      "type": "event"
    },
    {
      "constant": false,
      "inputs": [
        {
          "name": "newOwner",
          "type": "address"
        }
      ],
      "name": "transferOwnership",
      "outputs": [],
      "payable": false,
      "stateMutability": "nonpayable",
      "type": "function"
    }
  ],
  "bytecode": "0x6060604052341561000f57600080fd5b604051606080610ae183398101604052808051906020019091908051906020019091908051906020019091905050336000806101000a81548173ffffffffffffffffffffffffffffffffffffffff021916908373ffffffffffffffffffffffffffffffffffffffff16021790555082600060146101000a81548160ff021916908360ff16021790555081600060156101000a81548160ff021916908360ff16021790555080600181905550505050610a15806100cc6000396000f30060606040526004361061008e576000357c0100000000000000000000000000000000000000000000000000000000900463ffffffff16806341a494c5146100935780635e349acc146100a85780635f7d9287146100f757806370f4c343146101265780638da5cb5b14610155578063b86d7c6c146101aa578063bba8c172146101d3578063f2fde38b146101dd575b600080fd5b341561009e57600080fd5b6100a6610216565b005b6100f5600480803590602001908201803590602001908080602002602001604051908101604052809392919081815260200183836020028082843782019150505050505091905050610273565b005b341561010257600080fd5b61010a610553565b604051808260ff1660ff16815260200191505060405180910390f35b341561013157600080fd5b610139610566565b604051808260ff1660ff16815260200191505060405180910390f35b341561016057600080fd5b610168610579565b604051808273ffffffffffffffffffffffffffffffffffffffff1673ffffffffffffffffffffffffffffffffffffffff16815260200191505060405180910390f35b34156101b557600080fd5b6101bd61059e565b6040518082815260200191505060405180910390f35b6101db6105a4565b005b34156101e857600080fd5b610214600480803573ffffffffffffffffffffffffffffffffffffffff16906020019091905050610722565b005b6000809054906101000a900473ffffffffffffffffffffffffffffffffffffffff1673ffffffffffffffffffffffffffffffffffffffff163373ffffffffffffffffffffffffffffffffffffffff1614151561027157600080fd5b565b60008061027e6107c0565b6006845114151561028e57600080fd5b600092505b60058360ff161015610312576001848460ff168151811015156102b257fe5b9060200190602002015160ff16101580156102fc5750600060149054906101000a900460ff1660ff16848460ff168151811015156102ec57fe5b9060200190602002015160ff1611155b151561030757600080fd5b600183019250610293565b600184600581518110151561032357fe5b9060200190602002015160ff161015801561036b5750600060159054906101000a900460ff1660ff1684600581518110151561035b57fe5b9060200190602002015160ff1611155b151561037657600080fd5b6001543481151561038357fe5b04915060008211151561039557600080fd5b6080604051908101604052808581526020018381526020013373ffffffffffffffffffffffffffffffffffffffff168152602001438152509050600280548060010182816103e39190610805565b916000526020600020906004020160008390919091506000820151816000019080519060200190610415929190610837565b506020820151816001015560408201518160020160006101000a81548173ffffffffffffffffffffffffffffffffffffffff021916908373ffffffffffffffffffffffffffffffffffffffff160217905550606082015181600301555050507f8bd34cff7e79bf3a8eb1f584724843301f14c5128b6d762a40835d4e49a74c5c816000015182602001518360400151846060015160028054905060405180806020018681526020018573ffffffffffffffffffffffffffffffffffffffff1673ffffffffffffffffffffffffffffffffffffffff168152602001848152602001838152602001828103825287818151815260200191508051906020019060200280838360005b8381101561053657808201518184015260208101905061051b565b50505050905001965050505050505060405180910390a150505050565b600060159054906101000a900460ff1681565b600060149054906101000a900460ff1681565b6000809054906101000a900473ffffffffffffffffffffffffffffffffffffffff1681565b60015481565b60008060006105b16108de565b600060014303406001900494503373ffffffffffffffffffffffffffffffffffffffff169350838502925060066040518059106105eb5750595b90808252806020026020018201604052509150600090505b60058160ff1610156106cc576001600060149054906101000a900460ff1660ff168481151561062e57fe5b0601828260ff1681518110151561064157fe5b9060200190602002019060ff16908160ff16815250507ffdfe992e5328f146f376a34689008f3302967d1584529aa54da366760f28cab5828260ff1681518110151561068957fe5b9060200190602002015184604051808360ff1660ff1681526020018281526020019250505060405180910390a16008839060020a90049250600181019050610603565b6001600060159054906101000a900460ff1660ff16848115156106eb57fe5b06018260058151811015156106fc57fe5b9060200190602002019060ff16908160ff168152505061071b82610273565b5050505050565b6000809054906101000a900473ffffffffffffffffffffffffffffffffffffffff1673ffffffffffffffffffffffffffffffffffffffff163373ffffffffffffffffffffffffffffffffffffffff1614151561077d57600080fd5b806000806101000a81548173ffffffffffffffffffffffffffffffffffffffff021916908373ffffffffffffffffffffffffffffffffffffffff16021790555050565b6080604051908101604052806107d46108f2565b815260200160008152602001600073ffffffffffffffffffffffffffffffffffffffff168152602001600081525090565b815481835581811511610832576004028160040283600052602060002091820191016108319190610906565b5b505050565b82805482825590600052602060002090601f016020900481019282156108cd5791602002820160005b8382111561089e57835183826101000a81548160ff021916908360ff1602179055509260200192600101602081600001049283019260010302610860565b80156108cb5782816101000a81549060ff021916905560010160208160000104928301926001030261089e565b505b5090506108da919061096c565b5090565b602060405190810160405280600081525090565b602060405190810160405280600081525090565b61096991905b808211156109655760008082016000610925919061099c565b60018201600090556002820160006101000a81549073ffffffffffffffffffffffffffffffffffffffff021916905560038201600090555060040161090c565b5090565b90565b61099991905b8082111561099557600081816101000a81549060ff021916905550600101610972565b5090565b90565b50805460008255601f0160209004906000526020600020908101906109c191906109c4565b50565b6109e691905b808211156109e25760008160009055506001016109ca565b5090565b905600a165627a7a723058205f0945955200dc8ec92f4b03d2e431054224d2f2c576f91657b6d30a9e74082b0029",
  "source": "pragma solidity ^0.4.4;\n\ncontract owned {\n    address public owner;\n\n    function owned() public {\n        owner = msg.sender;\n    }\n\n    modifier onlyOwner {\n        require(msg.sender == owner);\n        _;\n    }\n\n    function transferOwnership(address newOwner) onlyOwner public {\n        owner = newOwner;\n    }\n}\n\n/*\naward rules:\n  * 5+1 jackpot\n  * 5+0 5000 ETH\n  * 4+1 50 ETH\n  * 4+0 2.5 ETH\n  * 3+1 1 ETH\n  * 3+0 0.05 ETH\n  * 2+1 0.05 ETH\n  * 1+1 0.02 ETH\n  * 0+1 0.01 ETH\n*/\ncontract ChainLot is owned{\n\tuint8 public maxWhiteNumber; //70;\n\tuint8 public maxYellowNumber; //25;\n\tuint256 public etherPerTicket; //10**18/100;\n\n\tstruct ticket {\n\t\tuint8[] numbers;\n\t\tuint256 count;\n\t\taddress user;\n\t\tuint256 blockNumber;\n\t}\n\n\tticket[] allTickets;\n\n\tevent BuyTicket(uint8[] numbers, uint256 ticketCount, address user, uint256 blockNumber, uint256 ticketsCount);\n\tevent LOG(uint8 n, uint256 random);\n\n  \tfunction ChainLot(uint8 _maxWhiteNumber, uint8 _maxYellowNumber, uint256 _etherPerTicket) public {\n  \t\tmaxWhiteNumber = _maxWhiteNumber;\n  \t\tmaxYellowNumber = _maxYellowNumber;\n  \t\tetherPerTicket = _etherPerTicket;\n  \t}\n\n  \t//uint16[6] \n  \t//1-5: <=70\n  \t//6: <=25\n  \tfunction buyTicket(uint8[] numbers) payable public {\n  \t\trequire(numbers.length == 6);\n  \t\tfor(uint8 index=0; index<5; index = index+1) {\n  \t\t\trequire(numbers[index]>=1 && numbers[index]<=maxWhiteNumber);\t\n  \t\t} \t\t\n  \t\trequire(numbers[5]>=1&&numbers[5]<=maxYellowNumber);\n\n  \t\tuint256 ticketCount = msg.value/etherPerTicket;\n  \t\trequire(ticketCount > 0);\n  \t\tticket memory t = ticket(numbers, ticketCount, msg.sender, block.number);\n  \t\tallTickets.push(t);\n  \t\tBuyTicket(t.numbers, t.count, t.user, t.blockNumber, allTickets.length);\n  \t}\n\n  \t//random numbers\n  \t//random seed: number-1 block hash x user address\n  \tfunction buyRandom() payable public {\n  \t\tuint256 lastHash = uint256(block.blockhash(block.number - 1));\n  \t\tuint256 addressInt = uint256(msg.sender);\n  \t\tuint256 random = lastHash * addressInt;\n  \t\tuint8[] memory numbers = new uint8[](6);\n  \t\tfor(uint8 index=0;index<5;index=index+1) {\n  \t\t\tnumbers[index] = uint8(random%maxWhiteNumber + 1);\n  \t\t\tLOG(numbers[index], random);\n  \t\t\trandom = random >> 8;\n\n  \t\t}\n  \t\tnumbers[5] = uint8(random%maxYellowNumber + 1);\n  \t\t//LOG(numbers[5], random);\n  \t\tbuyTicket(numbers);\n  \t}\n\n  \t//calculate jackpot and other winners and send awards\n  \tfunction award() onlyOwner public {\n\n  \t}\n}\n",
  "sourcePath": "/Users/phx/eth/chainlot/contracts/ChainLot.sol",
  "compiler": {
    "name": "solc",
    "version": "0.4.19+commit.c4cbbb05.Emscripten.clang"
  },
  "schemaVersion": "1.0.1",
  "updatedAt": "2018-03-19T13:38:04.980Z"
}