{
  "contractName": "ChainLotPoolFactory",
  "abi": [
    {
      "constant": true,
      "inputs": [],
      "name": "owner",
      "outputs": [
        {
          "name": "",
          "type": "address"
        }
      ],
      "payable": false,
      "stateMutability": "view",
      "type": "function"
    },
    {
      "constant": false,
      "inputs": [
        {
          "name": "newOwner",
          "type": "address"
        }
      ],
      "name": "transferOwnership",
      "outputs": [],
      "payable": false,
      "stateMutability": "nonpayable",
      "type": "function"
    },
    {
      "anonymous": false,
      "inputs": [
        {
          "indexed": false,
          "name": "latestPoolBlockNumber",
          "type": "uint256"
        },
        {
          "indexed": false,
          "name": "nextPoolBlockNumber",
          "type": "uint256"
        },
        {
          "indexed": false,
          "name": "length",
          "type": "uint256"
        }
      ],
      "name": "GenerateNewPool",
      "type": "event"
    },
    {
      "constant": false,
      "inputs": [
        {
          "name": "latestPoolBlockNumber",
          "type": "uint256"
        },
        {
          "name": "maxWhiteNumber",
          "type": "uint8"
        },
        {
          "name": "maxYellowNumber",
          "type": "uint8"
        },
        {
          "name": "whiteNumberCount",
          "type": "uint8"
        },
        {
          "name": "yellowNumberCount",
          "type": "uint8"
        },
        {
          "name": "awardIntervalNumber",
          "type": "uint256"
        },
        {
          "name": "etherPerTicket",
          "type": "uint256"
        },
        {
          "name": "awardRulesArray",
          "type": "uint256[]"
        }
      ],
      "name": "newPool",
      "outputs": [
        {
          "name": "poolAddress",
          "type": "address"
        }
      ],
      "payable": false,
      "stateMutability": "nonpayable",
      "type": "function"
    },
    {
      "constant": false,
      "inputs": [
        {
          "name": "pool",
          "type": "address"
        },
        {
          "name": "_chainLotTicket",
          "type": "address"
        },
        {
          "name": "_clToken",
          "type": "address"
        },
        {
          "name": "_chainLot",
          "type": "address"
        },
        {
          "name": "_drawingToolAddress",
          "type": "address"
        }
      ],
      "name": "setPool",
      "outputs": [],
      "payable": false,
      "stateMutability": "nonpayable",
      "type": "function"
    }
  ],
  "bytecode": "0x6060604052336000806101000a81548173ffffffffffffffffffffffffffffffffffffffff021916908373ffffffffffffffffffffffffffffffffffffffff160217905550614334806100536000396000f300606060405260043610610062576000357c0100000000000000000000000000000000000000000000000000000000900463ffffffff1680638da5cb5b14610067578063b5533d39146100bc578063c03c424a14610175578063f2fde38b1461022a575b600080fd5b341561007257600080fd5b61007a610263565b604051808273ffffffffffffffffffffffffffffffffffffffff1673ffffffffffffffffffffffffffffffffffffffff16815260200191505060405180910390f35b34156100c757600080fd5b610133600480803590602001909190803560ff1690602001909190803560ff1690602001909190803560ff1690602001909190803560ff169060200190919080359060200190919080359060200190919080359060200190820180359060200191909192905050610288565b604051808273ffffffffffffffffffffffffffffffffffffffff1673ffffffffffffffffffffffffffffffffffffffff16815260200191505060405180910390f35b341561018057600080fd5b610228600480803573ffffffffffffffffffffffffffffffffffffffff1690602001909190803573ffffffffffffffffffffffffffffffffffffffff1690602001909190803573ffffffffffffffffffffffffffffffffffffffff1690602001909190803573ffffffffffffffffffffffffffffffffffffffff1690602001909190803573ffffffffffffffffffffffffffffffffffffffff16906020019091905050610408565b005b341561023557600080fd5b610261600480803573ffffffffffffffffffffffffffffffffffffffff169060200190919050506105b4565b005b6000809054906101000a900473ffffffffffffffffffffffffffffffffffffffff1681565b6000806000806000809054906101000a900473ffffffffffffffffffffffffffffffffffffffff1673ffffffffffffffffffffffffffffffffffffffff163373ffffffffffffffffffffffffffffffffffffffff161415156102e957600080fd5b4392508c8310156102f8578c92505b87888481151561030457fe5b068403019150818c8c8c8c8b8b8b61031a610652565b808981526020018860ff1660ff1681526020018760ff1660ff1681526020018660ff1660ff1681526020018560ff1660ff16815260200184815260200180602001828103825284848281815260200192506020028082843782019150509950505050505050505050604051809103906000f080151561039857600080fd5b90506001600081548092919060010191905055507f18672711917e5f9602453b44a0f533daeb3bb7be43f9dde22f2d358e8c427c218d8360015460405180848152602001838152602001828152602001935050505060405180910390a18093505050509998505050505050505050565b6000809054906101000a900473ffffffffffffffffffffffffffffffffffffffff1673ffffffffffffffffffffffffffffffffffffffff163373ffffffffffffffffffffffffffffffffffffffff1614151561046357600080fd5b8473ffffffffffffffffffffffffffffffffffffffff16638c4b1758858585856040518563ffffffff167c0100000000000000000000000000000000000000000000000000000000028152600401808573ffffffffffffffffffffffffffffffffffffffff1673ffffffffffffffffffffffffffffffffffffffff1681526020018473ffffffffffffffffffffffffffffffffffffffff1673ffffffffffffffffffffffffffffffffffffffff1681526020018373ffffffffffffffffffffffffffffffffffffffff1673ffffffffffffffffffffffffffffffffffffffff1681526020018273ffffffffffffffffffffffffffffffffffffffff1673ffffffffffffffffffffffffffffffffffffffff168152602001945050505050600060405180830381600087803b151561059957600080fd5b6102c65a03f115156105aa57600080fd5b5050505050505050565b6000809054906101000a900473ffffffffffffffffffffffffffffffffffffffff1673ffffffffffffffffffffffffffffffffffffffff163373ffffffffffffffffffffffffffffffffffffffff1614151561060f57600080fd5b806000806101000a81548173ffffffffffffffffffffffffffffffffffffffff021916908373ffffffffffffffffffffffffffffffffffffffff16021790555050565b604051613ca68061066383390190560060606040526000601860006101000a81548160ff021916908360078111156200002457fe5b021790555034156200003557600080fd5b60405162003ca638038062003ca6833981016040528080519060200190919080519060200190919080519060200190919080519060200190919080519060200190919080519060200190919080518201919050506000336000806101000a81548173ffffffffffffffffffffffffffffffffffffffff021916908373ffffffffffffffffffffffffffffffffffffffff1602179055508760018190555086600260006101000a81548160ff021916908360ff16021790555085600260016101000a81548160ff021916908360ff16021790555084600760006101000a81548160ff021916908360ff16021790555083600760016101000a81548160ff021916908360ff16021790555082600381905550600760019054906101000a900460ff16600760009054906101000a900460ff1601600760026101000a81548160ff021916908360ff160217905550600090505b81518110156200039a5781516003820111151515620001a357600080fd5b60008282815181101515620001b457fe5b9060200190602002015110158015620001f75750600760009054906101000a900460ff1660ff168282815181101515620001ea57fe5b9060200190602002015111155b15156200020357600080fd5b600082600183018151811015156200021757fe5b90602001906020020151101580156200025d5750600760019054906101000a900460ff1660ff1682600183018151811015156200025057fe5b9060200190602002015111155b15156200026957600080fd5b600f80548060010182816200027f91906200042d565b916000526020600020906003020160006060604051908101604052808686815181101515620002aa57fe5b9060200190602002015181526020018660018701815181101515620002cb57fe5b9060200190602002015181526020018660028701815181101515620002ec57fe5b906020019060200201518152509091909150600082015181600001556020820151816001015560408201518160020155505050600f80549050600c60006200037c85858151811015156200033c57fe5b9060200190602002015186600187018151811015156200035857fe5b906020019060200201516200040964010000000002620037aa176401000000009004565b81526020019081526020016000208190555060038101905062000185565b600090505b600f80549050811015620003f3576000600d6000838152602001908152602001600020600101819055506000600d60008381526020019081526020016000206002018190555080806001019150506200039f565b600060158190555050505050505050506200049c565b6000816001600760019054906101000a900460ff160160ff16840201905092915050565b8154818355818115116200045d576003028160030283600052602060002091820191016200045c919062000462565b5b505050565b6200049991905b808211156200049557600080820160009055600182016000905560028201600090555060030162000469565b5090565b90565b6137fa80620004ac6000396000f3006060604052600436106102bf576000357c0100000000000000000000000000000000000000000000000000000000900463ffffffff16806304d3c348146102c45780630582a081146103305780630800e5f1146103535780630850cc4b146103a85780630891690b146103d657806316205520146103ff5780633678c9f41461042e57806337f4a9c4146104d35780633ca7b3c1146105025780633e43be3c1461053157806350b9bc92146105865780635255f1e4146105b45780635b328df6146105f95780635f7d9287146106305780636541e0281461065f5780636c933d851461068b5780636ea6c8b2146106b4578063703a66d21461072557806370f4c343146107545780637266a23214610783578063758b9ee0146107ac5780637855e6ae146107d55780637baf3b0e1461080f5780637f87179a1461083857806388963771146108a25780638c4b1758146108cb5780638da5cb5b146109615780638f4ffcb1146109b6578063958d8a2f14610a5a5780639c56a45014610a945780639c7365e514610ab75780639eb623d714610ae6578063a9059cbb14610b0f578063aa2aaeca14610b51578063b184001914610b88578063b61bf92a14610bc2578063b787e6c814610bf1578063b86d7c6c14610c2b578063b9f85c5814610c54578063bd6a468714610c83578063c040e6b814610ca6578063c350c74e14610cdd578063c3c1b4a314610d06578063cda886d614610d40578063ce3cd99714610d69578063d87d8b3d14610d8f578063df85d49d14610dbe578063dfcab41714610e01578063e1e3af6914610e3f578063e2c3156114610e94578063e302909414610ebd578063e35e17fa14610f4b578063e7cfbe9014610fa0578063ec6ce0d114610fd1578063ee5bac8914610fff578063f2fde38b14611060578063f3aa119314611099578063f58a7898146110d4578063ffa3090314611112575b600080fd5b34156102cf57600080fd5b6102ee600480803590602001909190803590602001909190505061114c565b604051808273ffffffffffffffffffffffffffffffffffffffff1673ffffffffffffffffffffffffffffffffffffffff16815260200191505060405180910390f35b341561033b57600080fd5b610351600480803590602001909190505061131a565b005b341561035e57600080fd5b610366611389565b604051808273ffffffffffffffffffffffffffffffffffffffff1673ffffffffffffffffffffffffffffffffffffffff16815260200191505060405180910390f35b6103d4600480803573ffffffffffffffffffffffffffffffffffffffff169060200190919050506113af565b005b34156103e157600080fd5b6103e96113d5565b6040518082815260200191505060405180910390f35b341561040a57600080fd5b6104126113db565b604051808260ff1660ff16815260200191505060405180910390f35b341561043957600080fd5b61045860048080359060200190919080359060200190919050506113ee565b6040518080602001828103825283818151815260200191508051906020019080838360005b8381101561049857808201518184015260208101905061047d565b50505050905090810190601f1680156104c55780820380516001836020036101000a031916815260200191505b509250505060405180910390f35b34156104de57600080fd5b6104e66116bd565b604051808260ff1660ff16815260200191505060405180910390f35b341561050d57600080fd5b61052f600480803560ff169060200190919080359060200190919050506116d0565b005b341561053c57600080fd5b61054461174e565b604051808273ffffffffffffffffffffffffffffffffffffffff1673ffffffffffffffffffffffffffffffffffffffff16815260200191505060405180910390f35b341561059157600080fd5b6105b260048080359060200190820180359060200191909192905050611774565b005b34156105bf57600080fd5b6105d560048080359060200190919050506118fb565b60405180848152602001838152602001828152602001935050505060405180910390f35b341561060457600080fd5b61061a6004808035906020019091905050611934565b6040518082815260200191505060405180910390f35b341561063b57600080fd5b610643611958565b604051808260ff1660ff16815260200191505060405180910390f35b341561066a57600080fd5b610689600480803590602001909190803590602001909190505061196b565b005b341561069657600080fd5b61069e611a08565b6040518082815260200191505060405180910390f35b610723600480803590602001908201803590602001908080601f0160208091040260200160405190810160405280939291908181526020018383808284378201915050505050509190803573ffffffffffffffffffffffffffffffffffffffff16906020019091905050611a0e565b005b341561073057600080fd5b610752600480803560ff16906020019091908035906020019091905050611bdc565b005b341561075f57600080fd5b610767611c63565b604051808260ff1660ff16815260200191505060405180910390f35b341561078e57600080fd5b610796611c76565b6040518082815260200191505060405180910390f35b34156107b757600080fd5b6107bf611c7c565b6040518082815260200191505060405180910390f35b34156107e057600080fd5b6107f9600480803560ff16906020019091905050611c89565b6040518082815260200191505060405180910390f35b341561081a57600080fd5b610822611d08565b6040518082815260200191505060405180910390f35b341561084357600080fd5b6108596004808035906020019091905050611d71565b604051808373ffffffffffffffffffffffffffffffffffffffff1673ffffffffffffffffffffffffffffffffffffffff1681526020018281526020019250505060405180910390f35b34156108ad57600080fd5b6108b5611dc4565b6040518082815260200191505060405180910390f35b34156108d657600080fd5b61095f600480803573ffffffffffffffffffffffffffffffffffffffff1690602001909190803573ffffffffffffffffffffffffffffffffffffffff1690602001909190803573ffffffffffffffffffffffffffffffffffffffff1690602001909190803573ffffffffffffffffffffffffffffffffffffffff16906020019091905050611dca565b005b341561096c57600080fd5b610974611f14565b604051808273ffffffffffffffffffffffffffffffffffffffff1673ffffffffffffffffffffffffffffffffffffffff16815260200191505060405180910390f35b34156109c157600080fd5b610a58600480803573ffffffffffffffffffffffffffffffffffffffff1690602001909190803590602001909190803573ffffffffffffffffffffffffffffffffffffffff1690602001909190803590602001908201803590602001908080601f01602080910402602001604051908101604052809392919081815260200183838082843782019150505050505091905050611f39565b005b3415610a6557600080fd5b610a7e600480803560ff16906020019091905050612023565b6040518082815260200191505060405180910390f35b3415610a9f57600080fd5b610ab560048080359060200190919050506120a2565b005b3415610ac257600080fd5b610aca612108565b604051808260ff1660ff16815260200191505060405180910390f35b3415610af157600080fd5b610af961211b565b6040518082815260200191505060405180910390f35b3415610b1a57600080fd5b610b4f600480803573ffffffffffffffffffffffffffffffffffffffff16906020019091908035906020019091905050612121565b005b3415610b5c57600080fd5b610b726004808035906020019091905050612287565b6040518082815260200191505060405180910390f35b3415610b9357600080fd5b610bac600480803560ff1690602001909190505061229f565b6040518082815260200191505060405180910390f35b3415610bcd57600080fd5b610bef600480803560ff1690602001909190803590602001909190505061231e565b005b3415610bfc57600080fd5b610c15600480803560ff1690602001909190505061239c565b6040518082815260200191505060405180910390f35b3415610c3657600080fd5b610c3e612425565b6040518082815260200191505060405180910390f35b3415610c5f57600080fd5b610c81600480803560ff1690602001909190803590602001909190505061242b565b005b3415610c8e57600080fd5b610ca460048080359060200190919050506124a9565b005b3415610cb157600080fd5b610cb961250f565b60405180826007811115610cc957fe5b60ff16815260200191505060405180910390f35b3415610ce857600080fd5b610cf0612522565b6040518082815260200191505060405180910390f35b3415610d1157600080fd5b610d2a600480803560ff1690602001909190505061258b565b6040518082815260200191505060405180910390f35b3415610d4b57600080fd5b610d5361260a565b6040518082815260200191505060405180910390f35b3415610d7457600080fd5b610d8d600480803560ff16906020019091905050612610565b005b3415610d9a57600080fd5b610dbc600480803560ff16906020019091908035906020019091905050612692565b005b3415610dc957600080fd5b610deb600480803560ff16906020019091908035906020019091905050612719565b6040518082815260200191505060405180910390f35b3415610e0c57600080fd5b610e2260048080359060200190919050506127b1565b604051808381526020018281526020019250505060405180910390f35b3415610e4a57600080fd5b610e526127d5565b604051808273ffffffffffffffffffffffffffffffffffffffff1673ffffffffffffffffffffffffffffffffffffffff16815260200191505060405180910390f35b3415610e9f57600080fd5b610ea76127fb565b6040518082815260200191505060405180910390f35b3415610ec857600080fd5b610ed0612801565b6040518080602001828103825283818151815260200191508051906020019080838360005b83811015610f10578082015181840152602081019050610ef5565b50505050905090810190601f168015610f3d5780820380516001836020036101000a031916815260200191505b509250505060405180910390f35b3415610f5657600080fd5b610f5e61289f565b604051808273ffffffffffffffffffffffffffffffffffffffff1673ffffffffffffffffffffffffffffffffffffffff16815260200191505060405180910390f35b3415610fab57600080fd5b610fb36128c5565b60405180826000191660001916815260200191505060405180910390f35b3415610fdc57600080fd5b610ffd60048080359060200190820180359060200191909192905050612aaf565b005b341561100a57600080fd5b61104a600480803573ffffffffffffffffffffffffffffffffffffffff169060200190919080359060200190820180359060200191909192905050612b21565b6040518082815260200191505060405180910390f35b341561106b57600080fd5b611097600480803573ffffffffffffffffffffffffffffffffffffffff16906020019091905050612b67565b005b34156110a457600080fd5b6110ba6004808035906020019091905050612c05565b604051808215151515815260200191505060405180910390f35b34156110df57600080fd5b6110f56004808035906020019091905050612c25565b604051808381526020018281526020019250505060405180910390f35b341561111d57600080fd5b611136600480803560ff16906020019091905050612c49565b6040518082815260200191505060405180910390f35b6000611156613615565b3373ffffffffffffffffffffffffffffffffffffffff16601360009054906101000a900473ffffffffffffffffffffffffffffffffffffffff1673ffffffffffffffffffffffffffffffffffffffff161415156111b257600080fd5b601060009054906101000a900473ffffffffffffffffffffffffffffffffffffffff1673ffffffffffffffffffffffffffffffffffffffff16636352211e856000604051602001526040518263ffffffff167c010000000000000000000000000000000000000000000000000000000002815260040180828152602001915050602060405180830381600087803b151561124b57600080fd5b6102c65a03f1151561125c57600080fd5b50505060405180519050915060408051908101604052808373ffffffffffffffffffffffffffffffffffffffff168152602001848152509050601480548060010182816112a99190613645565b9160005260206000209060020201600083909190915060008201518160000160006101000a81548173ffffffffffffffffffffffffffffffffffffffff021916908373ffffffffffffffffffffffffffffffffffffffff160217905550602082015181600101555050505092915050565b3373ffffffffffffffffffffffffffffffffffffffff16601360009054906101000a900473ffffffffffffffffffffffffffffffffffffffff1673ffffffffffffffffffffffffffffffffffffffff1614151561137657600080fd5b80600a6000828254019250508190555050565b601160009054906101000a900473ffffffffffffffffffffffffffffffffffffffff1681565b6113b7613677565b6113c56001430360006113ee565b90506113d18183611a0e565b5050565b60155481565b600760029054906101000a900460ff1681565b6113f6613677565b6000806000611403613677565b6000438810151561141357600080fd5b87406001900494503373ffffffffffffffffffffffffffffffffffffffff1693508484029250424486866040518085815260200184815260200183815260200182815260200194505050505060405180910390206001900492507f2c7df83ce284dc9c63cf5d2312952dd5ccecf8f255192742b2ca327d3e6c6a43838987878b42446040518088815260200187815260200186815260200185815260200184815260200183815260200182815260200197505050505050505060405180910390a1600083141515156114e457600080fd5b86839060020a90049250600760019054906101000a900460ff16600760009054906101000a900460ff160160ff1660405180591061151f5750595b9080825280601f01601f19166020018201604052509150600090505b600760009054906101000a900460ff1660ff168160ff1610156115f4576001600260009054906101000a900460ff1660ff168481151561157757fe5b06017f010000000000000000000000000000000000000000000000000000000000000002828260ff168151811015156115ac57fe5b9060200101907effffffffffffffffffffffffffffffffffffffffffffffffffffffffffffff1916908160001a9053506008839060020a90049250808060010191505061153b565b600760009054906101000a900460ff1690505b81518160ff1610156116af576001600260019054906101000a900460ff1660ff168481151561163257fe5b06017f010000000000000000000000000000000000000000000000000000000000000002828260ff1681518110151561166757fe5b9060200101907effffffffffffffffffffffffffffffffffffffffffffffffffffffffffffff1916908160001a9053506008839060020a900492508080600101915050611607565b819550505050505092915050565b600760019054906101000a900460ff1681565b3373ffffffffffffffffffffffffffffffffffffffff16601360009054906101000a900473ffffffffffffffffffffffffffffffffffffffff1673ffffffffffffffffffffffffffffffffffffffff1614151561172c57600080fd5b80600d60008460ff168152602001908152602001600020600201819055505050565b601260009054906101000a900473ffffffffffffffffffffffffffffffffffffffff1681565b60006117b1838380806020026020016040519081016040528093929190818152602001838360200280828437820191505050505050326000612ccb565b9050601160009054906101000a900473ffffffffffffffffffffffffffffffffffffffff1673ffffffffffffffffffffffffffffffffffffffff1663a9059cbb32836040518363ffffffff167c0100000000000000000000000000000000000000000000000000000000028152600401808373ffffffffffffffffffffffffffffffffffffffff1673ffffffffffffffffffffffffffffffffffffffff16815260200182815260200192505050600060405180830381600087803b151561187757600080fd5b6102c65a03f1151561188857600080fd5b5050507fede4d03c867cd33eef808cb7e94941039fcb41bddb496675b7df85c4f9533bc33282604051808373ffffffffffffffffffffffffffffffffffffffff1673ffffffffffffffffffffffffffffffffffffffff1681526020018281526020019250505060405180910390a1505050565b600f8181548110151561190a57fe5b90600052602060002090600302016000915090508060000154908060010154908060020154905083565b60068181548110151561194357fe5b90600052602060002090016000915090505481565b600260019054906101000a900460ff1681565b3373ffffffffffffffffffffffffffffffffffffffff16601360009054906101000a900473ffffffffffffffffffffffffffffffffffffffff1673ffffffffffffffffffffffffffffffffffffffff161415156119c757600080fd5b600d600083815260200190815260200160002060000180548060010182816119ef919061368b565b9160005260206000209001600083909190915055505050565b60045481565b6000806007811115611a1c57fe5b601860009054906101000a900460ff166007811115611a3757fe5b141515611a4357600080fd5b60015443101515611a5357600080fd5b6000601160009054906101000a900473ffffffffffffffffffffffffffffffffffffffff1673ffffffffffffffffffffffffffffffffffffffff1614151515611a9b57600080fd5b60035434811515611aa857fe5b049050600081111515611aba57600080fd5b601160009054906101000a900473ffffffffffffffffffffffffffffffffffffffff1673ffffffffffffffffffffffffffffffffffffffff1663a6f2ae3a346040518263ffffffff167c01000000000000000000000000000000000000000000000000000000000281526004016000604051808303818588803b1515611b3f57600080fd5b6125ee5a03f11515611b5057600080fd5b5050505034600b60008282540192505081905550611b7032848334612fd4565b5060008273ffffffffffffffffffffffffffffffffffffffff1614158015611bc457508173ffffffffffffffffffffffffffffffffffffffff163273ffffffffffffffffffffffffffffffffffffffff1614155b15611bd757611bd582848334612fd4565b505b505050565b3373ffffffffffffffffffffffffffffffffffffffff16601360009054906101000a900473ffffffffffffffffffffffffffffffffffffffff1673ffffffffffffffffffffffffffffffffffffffff16141515611c3857600080fd5b80601760008460ff168152602001908152602001600020600001600082825401925050819055505050565b600260009054906101000a900460ff1681565b60055481565b6000600680549050905090565b60003373ffffffffffffffffffffffffffffffffffffffff16601360009054906101000a900473ffffffffffffffffffffffffffffffffffffffff1673ffffffffffffffffffffffffffffffffffffffff16141515611ce757600080fd5b600d60008360ff168152602001908152602001600020600101549050919050565b60003373ffffffffffffffffffffffffffffffffffffffff16601360009054906101000a900473ffffffffffffffffffffffffffffffffffffffff1673ffffffffffffffffffffffffffffffffffffffff16141515611d6657600080fd5b600f80549050905090565b601481815481101515611d8057fe5b90600052602060002090600202016000915090508060000160009054906101000a900473ffffffffffffffffffffffffffffffffffffffff16908060010154905082565b600b5481565b83601060006101000a81548173ffffffffffffffffffffffffffffffffffffffff021916908373ffffffffffffffffffffffffffffffffffffffff16021790555082601160006101000a81548173ffffffffffffffffffffffffffffffffffffffff021916908373ffffffffffffffffffffffffffffffffffffffff16021790555081601260006101000a81548173ffffffffffffffffffffffffffffffffffffffff021916908373ffffffffffffffffffffffffffffffffffffffff160217905550326000806101000a81548173ffffffffffffffffffffffffffffffffffffffff021916908373ffffffffffffffffffffffffffffffffffffffff16021790555080601360006101000a81548173ffffffffffffffffffffffffffffffffffffffff021916908373ffffffffffffffffffffffffffffffffffffffff16021790555050505050565b6000809054906101000a900473ffffffffffffffffffffffffffffffffffffffff1681565b6000611f43613677565b601160009054906101000a900473ffffffffffffffffffffffffffffffffffffffff1673ffffffffffffffffffffffffffffffffffffffff168473ffffffffffffffffffffffffffffffffffffffff16141515611f9f57600080fd5b600083511480611fc15750600760029054906101000a900460ff1660ff168351145b1515611fcc57600080fd5b60035485811515611fd957fe5b049150600082111515611feb57600080fd5b60008351141561200a576120036001430360006113ee565b905061200e565b8290505b61201a86828488612fd4565b50505050505050565b60003373ffffffffffffffffffffffffffffffffffffffff16601360009054906101000a900473ffffffffffffffffffffffffffffffffffffffff1673ffffffffffffffffffffffffffffffffffffffff1614151561208157600080fd5b601760008360ff168152602001908152602001600020600101549050919050565b3373ffffffffffffffffffffffffffffffffffffffff16601360009054906101000a900473ffffffffffffffffffffffffffffffffffffffff1673ffffffffffffffffffffffffffffffffffffffff161415156120fe57600080fd5b8060158190555050565b600760009054906101000a900460ff1681565b60015481565b3373ffffffffffffffffffffffffffffffffffffffff16601360009054906101000a900473ffffffffffffffffffffffffffffffffffffffff1673ffffffffffffffffffffffffffffffffffffffff1614151561217d57600080fd5b60008273ffffffffffffffffffffffffffffffffffffffff16141580156121a5575060008114155b1561228357601160009054906101000a900473ffffffffffffffffffffffffffffffffffffffff1673ffffffffffffffffffffffffffffffffffffffff1663a9059cbb83836040518363ffffffff167c0100000000000000000000000000000000000000000000000000000000028152600401808373ffffffffffffffffffffffffffffffffffffffff1673ffffffffffffffffffffffffffffffffffffffff16815260200182815260200192505050600060405180830381600087803b151561226e57600080fd5b6102c65a03f1151561227f57600080fd5b5050505b5050565b600c6020528060005260406000206000915090505481565b60003373ffffffffffffffffffffffffffffffffffffffff16601360009054906101000a900473ffffffffffffffffffffffffffffffffffffffff1673ffffffffffffffffffffffffffffffffffffffff161415156122fd57600080fd5b600d60008360ff168152602001908152602001600020600201549050919050565b3373ffffffffffffffffffffffffffffffffffffffff16601360009054906101000a900473ffffffffffffffffffffffffffffffffffffffff1673ffffffffffffffffffffffffffffffffffffffff1614151561237a57600080fd5b80601760008460ff168152602001908152602001600020600001819055505050565b60003373ffffffffffffffffffffffffffffffffffffffff16601360009054906101000a900473ffffffffffffffffffffffffffffffffffffffff1673ffffffffffffffffffffffffffffffffffffffff161415156123fa57600080fd5b600f8260ff1681548110151561240c57fe5b9060005260206000209060030201600201549050919050565b60035481565b3373ffffffffffffffffffffffffffffffffffffffff16601360009054906101000a900473ffffffffffffffffffffffffffffffffffffffff1673ffffffffffffffffffffffffffffffffffffffff1614151561248757600080fd5b80600d60008460ff168152602001908152602001600020600101819055505050565b3373ffffffffffffffffffffffffffffffffffffffff16601360009054906101000a900473ffffffffffffffffffffffffffffffffffffffff1673ffffffffffffffffffffffffffffffffffffffff1614151561250557600080fd5b8060088190555050565b601860009054906101000a900460ff1681565b60003373ffffffffffffffffffffffffffffffffffffffff16601360009054906101000a900473ffffffffffffffffffffffffffffffffffffffff1673ffffffffffffffffffffffffffffffffffffffff1614151561258057600080fd5b601480549050905090565b60003373ffffffffffffffffffffffffffffffffffffffff16601360009054906101000a900473ffffffffffffffffffffffffffffffffffffffff1673ffffffffffffffffffffffffffffffffffffffff161415156125e957600080fd5b601760008360ff168152602001908152602001600020600001549050919050565b600a5481565b3373ffffffffffffffffffffffffffffffffffffffff16601360009054906101000a900473ffffffffffffffffffffffffffffffffffffffff1673ffffffffffffffffffffffffffffffffffffffff1614151561266c57600080fd5b80601860006101000a81548160ff0219169083600781111561268a57fe5b021790555050565b3373ffffffffffffffffffffffffffffffffffffffff16601360009054906101000a900473ffffffffffffffffffffffffffffffffffffffff1673ffffffffffffffffffffffffffffffffffffffff161415156126ee57600080fd5b80601760008460ff168152602001908152602001600020600101600082825401925050819055505050565b60003373ffffffffffffffffffffffffffffffffffffffff16601360009054906101000a900473ffffffffffffffffffffffffffffffffffffffff1673ffffffffffffffffffffffffffffffffffffffff1614151561277757600080fd5b600d60008460ff1681526020019081526020016000206000018281548110151561279d57fe5b906000526020600020900154905092915050565b600d6020528060005260406000206000915090508060010154908060020154905082565b601060009054906101000a900473ffffffffffffffffffffffffffffffffffffffff1681565b60085481565b60098054600181600116156101000203166002900480601f0160208091040260200160405190810160405280929190818152602001828054600181600116156101000203166002900480156128975780601f1061286c57610100808354040283529160200191612897565b820191906000526020600020905b81548152906001019060200180831161287a57829003601f168201915b505050505081565b601360009054906101000a900473ffffffffffffffffffffffffffffffffffffffff1681565b60006128cf613677565b6000803373ffffffffffffffffffffffffffffffffffffffff16601360009054906101000a900473ffffffffffffffffffffffffffffffffffffffff1673ffffffffffffffffffffffffffffffffffffffff1614151561292e57600080fd5b60098054600181600116156101000203166002900480601f0160208091040260200160405190810160405280929190818152602001828054600181600116156101000203166002900480156129c45780601f10612999576101008083540402835291602001916129c4565b820191906000526020600020905b8154815290600101906020018083116129a757829003601f168201915b505050505092506020915082518211156129dd57825191505b600090505b81811015612aa9576008810260ff7f0100000000000000000000000000000000000000000000000000000000000000028483815181101515612a2057fe5b9060200101517f010000000000000000000000000000000000000000000000000000000000000090047f010000000000000000000000000000000000000000000000000000000000000002167effffffffffffffffffffffffffffffffffffffffffffffffffffffffffffff1916600019169060020a90048417935080806001019150506129e2565b50505090565b3373ffffffffffffffffffffffffffffffffffffffff16601360009054906101000a900473ffffffffffffffffffffffffffffffffffffffff1673ffffffffffffffffffffffffffffffffffffffff16141515612b0b57600080fd5b818160099190612b1c9291906136b7565b505050565b6000612b5e838380806020026020016040519081016040528093929190818152602001838360200280828437820191505050505050856001612ccb565b90509392505050565b6000809054906101000a900473ffffffffffffffffffffffffffffffffffffffff1673ffffffffffffffffffffffffffffffffffffffff163373ffffffffffffffffffffffffffffffffffffffff16141515612bc257600080fd5b806000806101000a81548173ffffffffffffffffffffffffffffffffffffffff021916908373ffffffffffffffffffffffffffffffffffffffff16021790555050565b60166020528060005260406000206000915054906101000a900460ff1681565b600e6020528060005260406000206000915090508060010154908060020154905082565b60003373ffffffffffffffffffffffffffffffffffffffff16601360009054906101000a900473ffffffffffffffffffffffffffffffffffffffff1673ffffffffffffffffffffffffffffffffffffffff16141515612ca757600080fd5b600d60008360ff168152602001908152602001600020600001805490509050919050565b60008060008060008060008060006005541415612ceb5760009750612fc6565b60009650600090505b8a51811015612fb157601060009054906101000a900473ffffffffffffffffffffffffffffffffffffffff1673ffffffffffffffffffffffffffffffffffffffff16637dc379fa8c83815181101515612d4957fe5b90602001906020020151600060405160a001526040518263ffffffff167c01000000000000000000000000000000000000000000000000000000000281526004018082815260200191505060a060405180830381600087803b1515612dad57600080fd5b6102c65a03f11515612dbe57600080fd5b505050604051805190602001805190602001805190602001805190602001805190508367ffffffffffffffff169350809650819750829850839950849a50505050505060001515601660008d84815181101515612e1757fe5b90602001906020020151815260200190815260200160002060009054906101000a900460ff161515148015612e4d575060015482105b8015612f4e57508973ffffffffffffffffffffffffffffffffffffffff16601060009054906101000a900473ffffffffffffffffffffffffffffffffffffffff1673ffffffffffffffffffffffffffffffffffffffff16636352211e8d84815181101515612eb757fe5b906020019060200201516000604051602001526040518263ffffffff167c010000000000000000000000000000000000000000000000000000000002815260040180828152602001915050602060405180830381600087803b1515612f1b57600080fd5b6102c65a03f11515612f2c57600080fd5b5050506040518051905073ffffffffffffffffffffffffffffffffffffffff16145b15612fa4578287019650881515612fa3576001601660008d84815181101515612f7357fe5b90602001906020020151815260200190815260200160002060006101000a81548160ff0219169083151502179055505b5b8080600101915050612cf4565b600554600a548802811515612fc257fe5b0497505b505050505050509392505050565b6000806000600760019054906101000a900460ff16600760009054906101000a900460ff160160ff16865114151561300b57600080fd5b600091505b600760009054906101000a900460ff1660ff168260ff16101561316a576001868360ff1681518110151561304057fe5b9060200101517f010000000000000000000000000000000000000000000000000000000000000090047f0100000000000000000000000000000000000000000000000000000000000000027f0100000000000000000000000000000000000000000000000000000000000000900460ff16101580156131525750600260009054906101000a900460ff1660ff16868360ff168151811015156130de57fe5b9060200101517f010000000000000000000000000000000000000000000000000000000000000090047f0100000000000000000000000000000000000000000000000000000000000000027f0100000000000000000000000000000000000000000000000000000000000000900460ff1611155b151561315d57600080fd5b8180600101925050613010565b600760009054906101000a900460ff1691505b85518260ff1610156132c6576001868360ff1681518110151561319c57fe5b9060200101517f010000000000000000000000000000000000000000000000000000000000000090047f0100000000000000000000000000000000000000000000000000000000000000027f0100000000000000000000000000000000000000000000000000000000000000900460ff16101580156132ae5750600260019054906101000a900460ff1660ff16868360ff1681518110151561323a57fe5b9060200101517f010000000000000000000000000000000000000000000000000000000000000090047f0100000000000000000000000000000000000000000000000000000000000000027f0100000000000000000000000000000000000000000000000000000000000000900460ff1611155b15156132b957600080fd5b818060010192505061317d565b6000851115156132d557600080fd5b601260009054906101000a900473ffffffffffffffffffffffffffffffffffffffff1673ffffffffffffffffffffffffffffffffffffffff1663775ed63d8888886000604051602001526040518463ffffffff167c0100000000000000000000000000000000000000000000000000000000028152600401808473ffffffffffffffffffffffffffffffffffffffff1673ffffffffffffffffffffffffffffffffffffffff16815260200180602001838152602001828103825284818151815260200191508051906020019080838360005b838110156133c25780820151818401526020810190506133a7565b50505050905090810190601f1680156133ef5780820380516001836020036101000a031916815260200191505b50945050505050602060405180830381600087803b151561340f57600080fd5b6102c65a03f1151561342057600080fd5b50505060405180519050905060068054806001018281613440919061368b565b916000526020600020900160008390919091505550601060009054906101000a900473ffffffffffffffffffffffffffffffffffffffff1673ffffffffffffffffffffffffffffffffffffffff16637266a2326000604051602001526040518163ffffffff167c0100000000000000000000000000000000000000000000000000000000028152600401602060405180830381600087803b15156134e357600080fd5b6102c65a03f115156134f457600080fd5b505050604051805190506005819055507f5668ef0a105003526dc9fcca87fdecfef80b94dc11daaab96ac3b953b3484ff86001548787848b436005548b60405180898152602001806020018881526020018781526020018673ffffffffffffffffffffffffffffffffffffffff1673ffffffffffffffffffffffffffffffffffffffff168152602001858152602001848152602001838152602001828103825289818151815260200191508051906020019080838360005b838110156135c75780820151818401526020810190506135ac565b50505050905090810190601f1680156135f45780820380516001836020036101000a031916815260200191505b50995050505050505050505060405180910390a18092505050949350505050565b6040805190810160405280600073ffffffffffffffffffffffffffffffffffffffff168152602001600081525090565b815481835581811511613672576002028160020283600052602060002091820191016136719190613737565b5b505050565b602060405190810160405280600081525090565b8154818355818115116136b2578183600052602060002091820191016136b19190613785565b5b505050565b828054600181600116156101000203166002900490600052602060002090601f016020900481019282601f106136f857803560ff1916838001178555613726565b82800160010185558215613726579182015b8281111561372557823582559160200191906001019061370a565b5b5090506137339190613785565b5090565b61378291905b8082111561377e57600080820160006101000a81549073ffffffffffffffffffffffffffffffffffffffff021916905560018201600090555060020161373d565b5090565b90565b6137a791905b808211156137a357600081600090555060010161378b565b5090565b90565b6000816001600760019054906101000a900460ff160160ff168402019050929150505600a165627a7a723058208002ebd54a0a57684ae7261bc51b74113b43ab76fd428e849358985a433b0cd60029a165627a7a7230582083f34327011c6f62ca470a7fb3ec5d6574e1c44ce4a350cf83898a98ea5f32f00029",
  "source": "pragma solidity ^0.4.4;\n\nimport \"./ChainLotPool.sol\";\n\n\ncontract ChainLotPoolFactory is owned {\n  \tuint poolCount;\n\n  \tevent GenerateNewPool(uint latestPoolBlockNumber, uint nextPoolBlockNumber, uint length);\n\t\n\t//pool range: n*awardIntervalNumber ~ (n+1)awardIntervalNumber-1\n  \tfunction newPool(uint latestPoolBlockNumber,\n  \t\t\t\t\t\tuint8 maxWhiteNumber, \n\t\t\t\t\t\tuint8 maxYellowNumber, \n\t\t\t\t\t\tuint8 whiteNumberCount, \n\t\t\t\t\t\tuint8 yellowNumberCount, \n\t\t\t\t\t\tuint awardIntervalNumber,\n\t\t\t\t\t\tuint etherPerTicket, \n\t\t\t\t\t\tuint[] awardRulesArray) onlyOwner  external returns (ChainLotPoolInterface poolAddress){\n  \tuint startPoolBlockNumber = block.number;\n  \tif(startPoolBlockNumber < latestPoolBlockNumber) startPoolBlockNumber = latestPoolBlockNumber;\n  \tuint nextPoolBlockNumber = startPoolBlockNumber - startPoolBlockNumber%awardIntervalNumber + awardIntervalNumber;\n\tChainLotPool clp;\n\t//GenerateNewPool(currentPoolBlockNumber, nextPoolBlockNumber, chainlotPools.length);\n\t\t//generate new pool\n\tclp = new ChainLotPool(nextPoolBlockNumber, \n\t\tmaxWhiteNumber, maxYellowNumber, whiteNumberCount, yellowNumberCount, \n\t\tetherPerTicket, awardRulesArray);\n\tpoolCount ++;\n\tGenerateNewPool(latestPoolBlockNumber, nextPoolBlockNumber, poolCount);\n\t\n  \treturn ChainLotPoolInterface(clp);\n  }\n\n  function setPool(address pool, ChainLotTicketInterface _chainLotTicket,\n\t\t\t\t\t\tCLTokenInterface _clToken,\n\t\t\t\t\t\tChainLotInterface _chainLot, \n\t\t\t\t\t\taddress _drawingToolAddress) onlyOwner external {\n  \tChainLotPool(pool).setPool(_chainLotTicket, _clToken, _chainLot, _drawingToolAddress);\n\n  }\n}\n",
  "sourcePath": "/Users/phx/eth/chainlot/contracts/ChainLotPoolFactory.sol",
  "compiler": {
    "name": "solc",
    "version": "0.4.19+commit.c4cbbb05.Emscripten.clang"
  },
  "schemaVersion": "2.0.0",
  "updatedAt": "2018-06-24T09:35:21.245Z"
}