{
  "contractName": "DrawingTool",
  "abi": [
    {
      "constant": true,
      "inputs": [],
      "name": "clToken",
      "outputs": [
        {
          "name": "",
          "type": "address"
        }
      ],
      "payable": false,
      "stateMutability": "view",
      "type": "function"
    },
    {
      "constant": true,
      "inputs": [],
      "name": "chainLot",
      "outputs": [
        {
          "name": "",
          "type": "address"
        }
      ],
      "payable": false,
      "stateMutability": "view",
      "type": "function"
    },
    {
      "constant": true,
      "inputs": [],
      "name": "owner",
      "outputs": [
        {
          "name": "",
          "type": "address"
        }
      ],
      "payable": false,
      "stateMutability": "view",
      "type": "function"
    },
    {
      "constant": true,
      "inputs": [],
      "name": "chainLotTicket",
      "outputs": [
        {
          "name": "",
          "type": "address"
        }
      ],
      "payable": false,
      "stateMutability": "view",
      "type": "function"
    },
    {
      "constant": false,
      "inputs": [
        {
          "name": "newOwner",
          "type": "address"
        }
      ],
      "name": "transferOwnership",
      "outputs": [],
      "payable": false,
      "stateMutability": "nonpayable",
      "type": "function"
    },
    {
      "anonymous": false,
      "inputs": [
        {
          "indexed": false,
          "name": "jackpotNumbers",
          "type": "bytes"
        },
        {
          "indexed": false,
          "name": "poolBlockNumber",
          "type": "uint256"
        },
        {
          "indexed": false,
          "name": "allTicketsCount",
          "type": "uint256"
        }
      ],
      "name": "PrepareAward",
      "type": "event"
    },
    {
      "anonymous": false,
      "inputs": [
        {
          "indexed": false,
          "name": "jackpotNumbers",
          "type": "bytes"
        },
        {
          "indexed": false,
          "name": "ticketNumber",
          "type": "bytes32"
        },
        {
          "indexed": false,
          "name": "ticketCount",
          "type": "uint256"
        },
        {
          "indexed": false,
          "name": "ticketId",
          "type": "uint256"
        },
        {
          "indexed": false,
          "name": "user",
          "type": "address"
        },
        {
          "indexed": false,
          "name": "blockNumber",
          "type": "uint256"
        },
        {
          "indexed": false,
          "name": "awardValue",
          "type": "uint256"
        }
      ],
      "name": "ToBeAward",
      "type": "event"
    },
    {
      "anonymous": false,
      "inputs": [
        {
          "indexed": false,
          "name": "jackpotNumbers",
          "type": "bytes32"
        },
        {
          "indexed": false,
          "name": "endIndex",
          "type": "uint256"
        },
        {
          "indexed": false,
          "name": "allTicketsCount",
          "type": "uint256"
        }
      ],
      "name": "MatchAwards",
      "type": "event"
    },
    {
      "anonymous": false,
      "inputs": [
        {
          "indexed": false,
          "name": "jackpotNumbers",
          "type": "bytes32"
        },
        {
          "indexed": false,
          "name": "ticketNumber",
          "type": "bytes32"
        },
        {
          "indexed": false,
          "name": "ticketCount",
          "type": "uint256"
        },
        {
          "indexed": false,
          "name": "ticketId",
          "type": "uint256"
        },
        {
          "indexed": false,
          "name": "blockNumber",
          "type": "uint256"
        },
        {
          "indexed": false,
          "name": "ruleId",
          "type": "uint256"
        }
      ],
      "name": "MatchRule",
      "type": "event"
    },
    {
      "anonymous": false,
      "inputs": [
        {
          "indexed": false,
          "name": "ruleId",
          "type": "uint256"
        },
        {
          "indexed": false,
          "name": "toDistCount",
          "type": "uint256"
        },
        {
          "indexed": false,
          "name": "distributedIndex",
          "type": "uint256"
        },
        {
          "indexed": false,
          "name": "ticketIdsLength",
          "type": "uint256"
        },
        {
          "indexed": false,
          "name": "awardRulesLength",
          "type": "uint256"
        }
      ],
      "name": "DistributeAwards",
      "type": "event"
    },
    {
      "anonymous": false,
      "inputs": [
        {
          "indexed": false,
          "name": "winner",
          "type": "address"
        },
        {
          "indexed": false,
          "name": "value",
          "type": "uint256"
        }
      ],
      "name": "TransferAward",
      "type": "event"
    },
    {
      "anonymous": false,
      "inputs": [
        {
          "indexed": false,
          "name": "dev",
          "type": "address"
        },
        {
          "indexed": false,
          "name": "value",
          "type": "uint256"
        }
      ],
      "name": "TransferDevCut",
      "type": "event"
    },
    {
      "anonymous": false,
      "inputs": [
        {
          "indexed": false,
          "name": "user",
          "type": "address"
        },
        {
          "indexed": false,
          "name": "value",
          "type": "uint256"
        }
      ],
      "name": "TransferHistoryCut",
      "type": "event"
    },
    {
      "anonymous": false,
      "inputs": [
        {
          "indexed": false,
          "name": "added",
          "type": "uint256"
        },
        {
          "indexed": false,
          "name": "total",
          "type": "uint256"
        }
      ],
      "name": "AddHistoryCut",
      "type": "event"
    },
    {
      "anonymous": false,
      "inputs": [
        {
          "indexed": false,
          "name": "ruleId",
          "type": "uint8"
        },
        {
          "indexed": false,
          "name": "winnersTicketCount",
          "type": "uint256"
        },
        {
          "indexed": false,
          "name": "awardEther",
          "type": "uint256"
        },
        {
          "indexed": false,
          "name": "totalWinnersAward",
          "type": "uint256"
        },
        {
          "indexed": false,
          "name": "totalTicketCount",
          "type": "uint256"
        }
      ],
      "name": "CalculateAwards",
      "type": "event"
    },
    {
      "anonymous": false,
      "inputs": [
        {
          "indexed": false,
          "name": "ruleId",
          "type": "uint8"
        },
        {
          "indexed": false,
          "name": "totalWinnersAward",
          "type": "uint256"
        },
        {
          "indexed": false,
          "name": "leftBalance",
          "type": "uint256"
        }
      ],
      "name": "SplitAward",
      "type": "event"
    },
    {
      "anonymous": false,
      "inputs": [
        {
          "indexed": false,
          "name": "from",
          "type": "address"
        },
        {
          "indexed": false,
          "name": "to",
          "type": "address"
        },
        {
          "indexed": false,
          "name": "value",
          "type": "uint256"
        }
      ],
      "name": "TransferUnawarded",
      "type": "event"
    },
    {
      "anonymous": false,
      "inputs": [
        {
          "indexed": false,
          "name": "random",
          "type": "uint256"
        },
        {
          "indexed": false,
          "name": "blockNumber",
          "type": "uint256"
        },
        {
          "indexed": false,
          "name": "hash",
          "type": "uint256"
        },
        {
          "indexed": false,
          "name": "addressInt",
          "type": "uint256"
        },
        {
          "indexed": false,
          "name": "shift",
          "type": "uint256"
        },
        {
          "indexed": false,
          "name": "timestamp",
          "type": "uint256"
        },
        {
          "indexed": false,
          "name": "difficulty",
          "type": "uint256"
        }
      ],
      "name": "GenRandomNumbers",
      "type": "event"
    },
    {
      "constant": false,
      "inputs": [
        {
          "name": "_chainLotTicket",
          "type": "address"
        },
        {
          "name": "_clToken",
          "type": "address"
        },
        {
          "name": "_chainLot",
          "type": "address"
        }
      ],
      "name": "init",
      "outputs": [],
      "payable": false,
      "stateMutability": "nonpayable",
      "type": "function"
    },
    {
      "constant": false,
      "inputs": [
        {
          "name": "pool",
          "type": "address"
        }
      ],
      "name": "prepareAwards",
      "outputs": [],
      "payable": false,
      "stateMutability": "nonpayable",
      "type": "function"
    },
    {
      "constant": false,
      "inputs": [
        {
          "name": "pool",
          "type": "address"
        },
        {
          "name": "toMatchCount",
          "type": "uint256"
        }
      ],
      "name": "matchAwards",
      "outputs": [],
      "payable": false,
      "stateMutability": "nonpayable",
      "type": "function"
    },
    {
      "constant": false,
      "inputs": [
        {
          "name": "pool",
          "type": "address"
        },
        {
          "name": "ruleId",
          "type": "uint8"
        },
        {
          "name": "toCalcCount",
          "type": "uint8"
        }
      ],
      "name": "calculateAwards",
      "outputs": [],
      "payable": false,
      "stateMutability": "nonpayable",
      "type": "function"
    },
    {
      "constant": false,
      "inputs": [
        {
          "name": "pool",
          "type": "address"
        }
      ],
      "name": "splitAward",
      "outputs": [],
      "payable": false,
      "stateMutability": "nonpayable",
      "type": "function"
    },
    {
      "constant": false,
      "inputs": [
        {
          "name": "blockNumber",
          "type": "uint256"
        },
        {
          "name": "shift",
          "type": "uint256"
        },
        {
          "name": "maxWhiteNumberCount",
          "type": "uint8"
        },
        {
          "name": "maxYellowNumberCount",
          "type": "uint8"
        },
        {
          "name": "maxWhiteNumber",
          "type": "uint8"
        },
        {
          "name": "maxYellowNumber",
          "type": "uint8"
        }
      ],
      "name": "genRandomNumbers",
      "outputs": [
        {
          "name": "_numbers",
          "type": "bytes"
        }
      ],
      "payable": false,
      "stateMutability": "nonpayable",
      "type": "function"
    }
  ],
  "bytecode": "0x6060604052336000806101000a81548173ffffffffffffffffffffffffffffffffffffffff021916908373ffffffffffffffffffffffffffffffffffffffff160217905550612aac806100536000396000f3006060604052600436106100af576000357c0100000000000000000000000000000000000000000000000000000000900463ffffffff1680630800e5f1146100b4578063184b9559146101095780633e43be3c14610180578063797d3687146101d55780638da5cb5b1461020e578063c04cb54014610263578063d12efbf614610338578063e1e3af691461037a578063f2fde38b146103cf578063f7a371c914610408578063fb9c3a6514610441575b600080fd5b34156100bf57600080fd5b6100c7610492565b604051808273ffffffffffffffffffffffffffffffffffffffff1673ffffffffffffffffffffffffffffffffffffffff16815260200191505060405180910390f35b341561011457600080fd5b61017e600480803573ffffffffffffffffffffffffffffffffffffffff1690602001909190803573ffffffffffffffffffffffffffffffffffffffff1690602001909190803573ffffffffffffffffffffffffffffffffffffffff169060200190919050506104b8565b005b341561018b57600080fd5b610193610580565b604051808273ffffffffffffffffffffffffffffffffffffffff1673ffffffffffffffffffffffffffffffffffffffff16815260200191505060405180910390f35b34156101e057600080fd5b61020c600480803573ffffffffffffffffffffffffffffffffffffffff169060200190919050506105a6565b005b341561021957600080fd5b610221610b84565b604051808273ffffffffffffffffffffffffffffffffffffffff1673ffffffffffffffffffffffffffffffffffffffff16815260200191505060405180910390f35b341561026e57600080fd5b6102bd600480803590602001909190803590602001909190803560ff1690602001909190803560ff1690602001909190803560ff1690602001909190803560ff16906020019091905050610ba9565b6040518080602001828103825283818151815260200191508051906020019080838360005b838110156102fd5780820151818401526020810190506102e2565b50505050905090810190601f16801561032a5780820380516001836020036101000a031916815260200191505b509250505060405180910390f35b341561034357600080fd5b610378600480803573ffffffffffffffffffffffffffffffffffffffff16906020019091908035906020019091905050610e22565b005b341561038557600080fd5b61038d611531565b604051808273ffffffffffffffffffffffffffffffffffffffff1673ffffffffffffffffffffffffffffffffffffffff16815260200191505060405180910390f35b34156103da57600080fd5b610406600480803573ffffffffffffffffffffffffffffffffffffffff16906020019091905050611557565b005b341561041357600080fd5b61043f600480803573ffffffffffffffffffffffffffffffffffffffff169060200190919050506115f5565b005b341561044c57600080fd5b610490600480803573ffffffffffffffffffffffffffffffffffffffff1690602001909190803560ff1690602001909190803560ff16906020019091905050611ce6565b005b600260009054906101000a900473ffffffffffffffffffffffffffffffffffffffff1681565b82600160006101000a81548173ffffffffffffffffffffffffffffffffffffffff021916908373ffffffffffffffffffffffffffffffffffffffff16021790555081600260006101000a81548173ffffffffffffffffffffffffffffffffffffffff021916908373ffffffffffffffffffffffffffffffffffffffff16021790555080600360006101000a81548173ffffffffffffffffffffffffffffffffffffffff021916908373ffffffffffffffffffffffffffffffffffffffff160217905550505050565b600360009054906101000a900473ffffffffffffffffffffffffffffffffffffffff1681565b6000806000809054906101000a900473ffffffffffffffffffffffffffffffffffffffff1673ffffffffffffffffffffffffffffffffffffffff163373ffffffffffffffffffffffffffffffffffffffff1614151561060457600080fd5b6003600781111561061157fe5b8373ffffffffffffffffffffffffffffffffffffffff1663c040e6b86000604051602001526040518163ffffffff167c0100000000000000000000000000000000000000000000000000000000028152600401602060405180830381600087803b151561067d57600080fd5b6102c65a03f1151561068e57600080fd5b5050506040518051905060078111156106a357fe5b1415156106af57600080fd5b600260009054906101000a900473ffffffffffffffffffffffffffffffffffffffff1673ffffffffffffffffffffffffffffffffffffffff166370a08231306000604051602001526040518263ffffffff167c0100000000000000000000000000000000000000000000000000000000028152600401808273ffffffffffffffffffffffffffffffffffffffff1673ffffffffffffffffffffffffffffffffffffffff168152602001915050602060405180830381600087803b151561077457600080fd5b6102c65a03f1151561078557600080fd5b505050604051805190509150600090505b8273ffffffffffffffffffffffffffffffffffffffff16637baf3b0e6000604051602001526040518163ffffffff167c0100000000000000000000000000000000000000000000000000000000028152600401602060405180830381600087803b151561080257600080fd5b6102c65a03f1151561081357600080fd5b505050604051805190508160ff161015610aee578273ffffffffffffffffffffffffffffffffffffffff1663c3c1b4a3826000604051602001526040518263ffffffff167c0100000000000000000000000000000000000000000000000000000000028152600401808260ff1660ff168152602001915050602060405180830381600087803b15156108a457600080fd5b6102c65a03f115156108b557600080fd5b5050506040518051905082101515610968578273ffffffffffffffffffffffffffffffffffffffff1663c3c1b4a3826000604051602001526040518263ffffffff167c0100000000000000000000000000000000000000000000000000000000028152600401808260ff1660ff168152602001915050602060405180830381600087803b151561094457600080fd5b6102c65a03f1151561095557600080fd5b50505060405180519050820391506109fd565b8273ffffffffffffffffffffffffffffffffffffffff1663b61bf92a82846040518363ffffffff167c0100000000000000000000000000000000000000000000000000000000028152600401808360ff1660ff16815260200182815260200192505050600060405180830381600087803b15156109e457600080fd5b6102c65a03f115156109f557600080fd5b505050600091505b7f53c5531a2a6e3b9168a9afac57f2dd8c3dffaad74813d964e6cf1ebbca23b9b4818473ffffffffffffffffffffffffffffffffffffffff1663c3c1b4a3846000604051602001526040518263ffffffff167c0100000000000000000000000000000000000000000000000000000000028152600401808260ff1660ff168152602001915050602060405180830381600087803b1515610a9c57600080fd5b6102c65a03f11515610aad57600080fd5b5050506040518051905084604051808460ff1660ff168152602001838152602001828152602001935050505060405180910390a18080600101915050610796565b8273ffffffffffffffffffffffffffffffffffffffff1663ce3cd99760046040518263ffffffff167c010000000000000000000000000000000000000000000000000000000002815260040180826007811115610b4757fe5b60ff168152602001915050600060405180830381600087803b1515610b6b57600080fd5b6102c65a03f11515610b7c57600080fd5b505050505050565b6000809054906101000a900473ffffffffffffffffffffffffffffffffffffffff1681565b610bb1612a6c565b6000806000610bbe612a6c565b6000438c101515610bce57600080fd5b8b406001900494503273ffffffffffffffffffffffffffffffffffffffff1693508484029250424486866040518085815260200184815260200183815260200182815260200194505050505060405180910390206001900492507f2c7df83ce284dc9c63cf5d2312952dd5ccecf8f255192742b2ca327d3e6c6a43838d87878f42446040518088815260200187815260200186815260200185815260200184815260200183815260200182815260200197505050505050505060405180910390a160008314151515610c9f57600080fd5b8a839060020a90049250888a0160ff16604051805910610cbc5750595b9080825280601f01601f19166020018201604052509150600090505b8960ff168160ff161015610d735760018860ff1684811515610cf657fe5b06017f010000000000000000000000000000000000000000000000000000000000000002828260ff16815181101515610d2b57fe5b9060200101907effffffffffffffffffffffffffffffffffffffffffffffffffffffffffffff1916908160001a9053506008839060020a900492508080600101915050610cd8565b8990505b81518160ff161015610e105760018760ff1684811515610d9357fe5b06017f010000000000000000000000000000000000000000000000000000000000000002828260ff16815181101515610dc857fe5b9060200101907effffffffffffffffffffffffffffffffffffffffffffffffffffffffffffff1916908160001a9053506008839060020a900492508080600101915050610d77565b81955050505050509695505050505050565b60008060008060008060008060008060009054906101000a900473ffffffffffffffffffffffffffffffffffffffff1673ffffffffffffffffffffffffffffffffffffffff163373ffffffffffffffffffffffffffffffffffffffff16141515610e8b57600080fd5b60016007811115610e9857fe5b8b73ffffffffffffffffffffffffffffffffffffffff1663c040e6b86000604051602001526040518163ffffffff167c0100000000000000000000000000000000000000000000000000000000028152600401602060405180830381600087803b1515610f0457600080fd5b6102c65a03f11515610f1557600080fd5b505050604051805190506007811115610f2a57fe5b141515610f3657600080fd5b8a73ffffffffffffffffffffffffffffffffffffffff1663e7cfbe906000604051602001526040518163ffffffff167c0100000000000000000000000000000000000000000000000000000000028152600401602060405180830381600087803b1515610fa257600080fd5b6102c65a03f11515610fb357600080fd5b505050604051805190509850898b73ffffffffffffffffffffffffffffffffffffffff1663e2c315616000604051602001526040518163ffffffff167c0100000000000000000000000000000000000000000000000000000000028152600401602060405180830381600087803b151561102c57600080fd5b6102c65a03f1151561103d57600080fd5b505050604051805190500197508a73ffffffffffffffffffffffffffffffffffffffff1663758b9ee06000604051602001526040518163ffffffff167c0100000000000000000000000000000000000000000000000000000000028152600401602060405180830381600087803b15156110b657600080fd5b6102c65a03f115156110c757600080fd5b505050604051805190509650868811156110df578697505b8a73ffffffffffffffffffffffffffffffffffffffff1663e2c315616000604051602001526040518163ffffffff167c0100000000000000000000000000000000000000000000000000000000028152600401602060405180830381600087803b151561114b57600080fd5b6102c65a03f1151561115c57600080fd5b5050506040518051905095505b878610156113c2578a73ffffffffffffffffffffffffffffffffffffffff16635b328df6876000604051602001526040518263ffffffff167c010000000000000000000000000000000000000000000000000000000002815260040180828152602001915050602060405180830381600087803b15156111e857600080fd5b6102c65a03f115156111f957600080fd5b505050604051805190509450611210858c8b612124565b80945081955082965083975050505050600084101580156112b657508a73ffffffffffffffffffffffffffffffffffffffff16637baf3b0e6000604051602001526040518163ffffffff167c0100000000000000000000000000000000000000000000000000000000028152600401602060405180830381600087803b151561129857600080fd5b6102c65a03f115156112a957600080fd5b5050506040518051905084105b156113b5578a73ffffffffffffffffffffffffffffffffffffffff16636541e02885876040518363ffffffff167c01000000000000000000000000000000000000000000000000000000000281526004018083815260200182815260200192505050600060405180830381600087803b151561133157600080fd5b6102c65a03f1151561134257600080fd5b5050507f1fb5f1a98ced1998480b5d7ae5f89afc7526c5219722514ed7312200757ee0d08984848885896040518087600019166000191681526020018660001916600019168152602001858152602001848152602001838152602001828152602001965050505050505060405180910390a15b8580600101965050611169565b7f68919ecf833aa1399f274982eff743c221734b0745cfeb4cd853a0c4e3ab5694898989604051808460001916600019168152602001838152602001828152602001935050505060405180910390a18a73ffffffffffffffffffffffffffffffffffffffff1663ce3cd99760026040518263ffffffff167c01000000000000000000000000000000000000000000000000000000000281526004018082600781111561146a57fe5b60ff168152602001915050600060405180830381600087803b151561148e57600080fd5b6102c65a03f1151561149f57600080fd5b5050508a73ffffffffffffffffffffffffffffffffffffffff1663bd6a4687896040518263ffffffff167c010000000000000000000000000000000000000000000000000000000002815260040180828152602001915050600060405180830381600087803b151561151057600080fd5b6102c65a03f1151561152157600080fd5b5050505050505050505050505050565b600160009054906101000a900473ffffffffffffffffffffffffffffffffffffffff1681565b6000809054906101000a900473ffffffffffffffffffffffffffffffffffffffff1673ffffffffffffffffffffffffffffffffffffffff163373ffffffffffffffffffffffffffffffffffffffff161415156115b257600080fd5b806000806101000a81548173ffffffffffffffffffffffffffffffffffffffff021916908373ffffffffffffffffffffffffffffffffffffffff16021790555050565b6115fd612a6c565b6000809054906101000a900473ffffffffffffffffffffffffffffffffffffffff1673ffffffffffffffffffffffffffffffffffffffff163373ffffffffffffffffffffffffffffffffffffffff1614151561165857600080fd5b6000600781111561166557fe5b8273ffffffffffffffffffffffffffffffffffffffff1663c040e6b86000604051602001526040518163ffffffff167c0100000000000000000000000000000000000000000000000000000000028152600401602060405180830381600087803b15156116d157600080fd5b6102c65a03f115156116e257600080fd5b5050506040518051905060078111156116f757fe5b14151561170357600080fd5b6119b08273ffffffffffffffffffffffffffffffffffffffff16639eb623d76000604051602001526040518163ffffffff167c0100000000000000000000000000000000000000000000000000000000028152600401602060405180830381600087803b151561177257600080fd5b6102c65a03f1151561178357600080fd5b5050506040518051905060088473ffffffffffffffffffffffffffffffffffffffff16639c7365e56000604051602001526040518163ffffffff167c0100000000000000000000000000000000000000000000000000000000028152600401602060405180830381600087803b15156117fb57600080fd5b6102c65a03f1151561180c57600080fd5b505050604051805190508573ffffffffffffffffffffffffffffffffffffffff166337f4a9c46000604051602001526040518163ffffffff167c0100000000000000000000000000000000000000000000000000000000028152600401602060405180830381600087803b151561188257600080fd5b6102c65a03f1151561189357600080fd5b505050604051805190508673ffffffffffffffffffffffffffffffffffffffff166370f4c3436000604051602001526040518163ffffffff167c0100000000000000000000000000000000000000000000000000000000028152600401602060405180830381600087803b151561190957600080fd5b6102c65a03f1151561191a57600080fd5b505050604051805190508773ffffffffffffffffffffffffffffffffffffffff16635f7d92876000604051602001526040518163ffffffff167c0100000000000000000000000000000000000000000000000000000000028152600401602060405180830381600087803b151561199057600080fd5b6102c65a03f115156119a157600080fd5b50505060405180519050610ba9565b90508173ffffffffffffffffffffffffffffffffffffffff1663ec6ce0d1826040518263ffffffff167c01000000000000000000000000000000000000000000000000000000000281526004018080602001828103825283818151815260200191508051906020019080838360005b83811015611a3a578082015181840152602081019050611a1f565b50505050905090810190601f168015611a675780820380516001836020036101000a031916815260200191505b5092505050600060405180830381600087803b1515611a8557600080fd5b6102c65a03f11515611a9657600080fd5b5050507fb4a3d365f86774ee97301c1ffa4061a05cffa5fcef064c4f3890a92d1bd0e2d7818373ffffffffffffffffffffffffffffffffffffffff16639eb623d76000604051602001526040518163ffffffff167c0100000000000000000000000000000000000000000000000000000000028152600401602060405180830381600087803b1515611b2757600080fd5b6102c65a03f11515611b3857600080fd5b505050604051805190508473ffffffffffffffffffffffffffffffffffffffff1663758b9ee06000604051602001526040518163ffffffff167c0100000000000000000000000000000000000000000000000000000000028152600401602060405180830381600087803b1515611bae57600080fd5b6102c65a03f11515611bbf57600080fd5b505050604051805190506040518080602001848152602001838152602001828103825285818151815260200191508051906020019080838360005b83811015611c15578082015181840152602081019050611bfa565b50505050905090810190601f168015611c425780820380516001836020036101000a031916815260200191505b5094505050505060405180910390a18173ffffffffffffffffffffffffffffffffffffffff1663ce3cd99760016040518263ffffffff167c010000000000000000000000000000000000000000000000000000000002815260040180826007811115611caa57fe5b60ff168152602001915050600060405180830381600087803b1515611cce57600080fd5b6102c65a03f11515611cdf57600080fd5b5050505050565b6000806000806000809054906101000a900473ffffffffffffffffffffffffffffffffffffffff1673ffffffffffffffffffffffffffffffffffffffff163373ffffffffffffffffffffffffffffffffffffffff16141515611d4757600080fd5b60026007811115611d5457fe5b8773ffffffffffffffffffffffffffffffffffffffff1663c040e6b86000604051602001526040518163ffffffff167c0100000000000000000000000000000000000000000000000000000000028152600401602060405180830381600087803b1515611dc057600080fd5b6102c65a03f11515611dd157600080fd5b505050604051805190506007811115611de657fe5b141515611df257600080fd5b8673ffffffffffffffffffffffffffffffffffffffff1663ffa30903876000604051602001526040518263ffffffff167c0100000000000000000000000000000000000000000000000000000000028152600401808260ff1660ff168152602001915050602060405180830381600087803b1515611e6f57600080fd5b6102c65a03f11515611e8057600080fd5b5050506040518051905093508673ffffffffffffffffffffffffffffffffffffffff16637855e6ae876000604051602001526040518263ffffffff167c0100000000000000000000000000000000000000000000000000000000028152600401808260ff1660ff168152602001915050602060405180830381600087803b1515611f0957600080fd5b6102c65a03f11515611f1a57600080fd5b5050506040518051905092508673ffffffffffffffffffffffffffffffffffffffff1663b787e6c8876000604051602001526040518263ffffffff167c0100000000000000000000000000000000000000000000000000000000028152600401808260ff1660ff168152602001915050602060405180830381600087803b1515611fa357600080fd5b6102c65a03f11515611fb457600080fd5b50505060405180519050915082841115611fea578460ff168301905083811115611fdc578390505b611fe98787858486612617565b5b60018773ffffffffffffffffffffffffffffffffffffffff16637baf3b0e6000604051602001526040518163ffffffff167c0100000000000000000000000000000000000000000000000000000000028152600401602060405180830381600087803b151561205857600080fd5b6102c65a03f1151561206957600080fd5b50505060405180519050038660ff1614801561208457508381145b1561211b578673ffffffffffffffffffffffffffffffffffffffff1663ce3cd99760036040518263ffffffff167c0100000000000000000000000000000000000000000000000000000000028152600401808260078111156120e257fe5b60ff168152602001915050600060405180830381600087803b151561210657600080fd5b6102c65a03f1151561211757600080fd5b5050505b50505050505050565b600080600080600080600080600080600160009054906101000a900473ffffffffffffffffffffffffffffffffffffffff1673ffffffffffffffffffffffffffffffffffffffff16637dc379fa8e600060405160a001526040518263ffffffff167c01000000000000000000000000000000000000000000000000000000000281526004018082815260200191505060a060405180830381600087803b15156121cc57600080fd5b6102c65a03f115156121dd57600080fd5b505050604051805190602001805190602001805190602001805190602001805190508367ffffffffffffffff169350809b50819c50829d50839950849a5050505050506000935060009250600091505b8b73ffffffffffffffffffffffffffffffffffffffff16639c7365e56000604051602001526040518163ffffffff167c0100000000000000000000000000000000000000000000000000000000028152600401602060405180830381600087803b151561229957600080fd5b6102c65a03f115156122aa57600080fd5b5050506040518051905060ff16821015612380578a826020811015156122cc57fe5b1a7f0100000000000000000000000000000000000000000000000000000000000000027effffffffffffffffffffffffffffffffffffffffffffffffffffffffffffff1916898360208110151561231f57fe5b1a7f0100000000000000000000000000000000000000000000000000000000000000027effffffffffffffffffffffffffffffffffffffffffffffffffffffffffffff191614156123735783806001019450505b818060010192505061222d565b8b73ffffffffffffffffffffffffffffffffffffffff16639c7365e56000604051602001526040518163ffffffff167c0100000000000000000000000000000000000000000000000000000000028152600401602060405180830381600087803b15156123ec57600080fd5b6102c65a03f115156123fd57600080fd5b5050506040518051905060ff1691505b602060ff168210156124db578a8260208110151561242757fe5b1a7f0100000000000000000000000000000000000000000000000000000000000000027effffffffffffffffffffffffffffffffffffffffffffffffffffffffffffff1916898360208110151561247a57fe5b1a7f0100000000000000000000000000000000000000000000000000000000000000027effffffffffffffffffffffffffffffffffffffffffffffffffffffffffffff191614156124ce5782806001019350505b818060010192505061240d565b61256f84848e73ffffffffffffffffffffffffffffffffffffffff166337f4a9c46000604051602001526040518163ffffffff167c0100000000000000000000000000000000000000000000000000000000028152600401602060405180830381600087803b151561254c57600080fd5b6102c65a03f1151561255d57600080fd5b5050506040518051905060ff16612a59565b905060018c73ffffffffffffffffffffffffffffffffffffffff1663aa2aaeca836000604051602001526040518263ffffffff167c010000000000000000000000000000000000000000000000000000000002815260040180828152602001915050602060405180830381600087803b15156125ea57600080fd5b6102c65a03f115156125fb57600080fd5b5050506040518051905003995050505050505093509350935093565b60008060008060008060008060008060009054906101000a900473ffffffffffffffffffffffffffffffffffffffff1673ffffffffffffffffffffffffffffffffffffffff163373ffffffffffffffffffffffffffffffffffffffff1614151561268057600080fd5b8b98505b8a89101561283c5760009750600096508d73ffffffffffffffffffffffffffffffffffffffff1663df85d49d8e8b6000604051602001526040518363ffffffff167c0100000000000000000000000000000000000000000000000000000000028152600401808360ff1660ff16815260200182815260200192505050602060405180830381600087803b151561271957600080fd5b6102c65a03f1151561272a57600080fd5b505050604051805190509550600160009054906101000a900473ffffffffffffffffffffffffffffffffffffffff1673ffffffffffffffffffffffffffffffffffffffff16637dc379fa87600060405160a001526040518263ffffffff167c01000000000000000000000000000000000000000000000000000000000281526004018082815260200191505060a060405180830381600087803b15156127cf57600080fd5b6102c65a03f115156127e057600080fd5b505050604051805190602001805190602001805190602001805190602001805190508367ffffffffffffffff16935080955081965082975083985084995050505050508982028801975081870196508880600101995050612684565b8d73ffffffffffffffffffffffffffffffffffffffff1663703a66d28e8a6040518363ffffffff167c0100000000000000000000000000000000000000000000000000000000028152600401808360ff1660ff16815260200182815260200192505050600060405180830381600087803b15156128b857600080fd5b6102c65a03f115156128c957600080fd5b5050508d73ffffffffffffffffffffffffffffffffffffffff1663d87d8b3d8e896040518363ffffffff167c0100000000000000000000000000000000000000000000000000000000028152600401808360ff1660ff16815260200182815260200192505050600060405180830381600087803b151561294857600080fd5b6102c65a03f1151561295957600080fd5b5050508d73ffffffffffffffffffffffffffffffffffffffff1663b9f85c588e8d6040518363ffffffff167c0100000000000000000000000000000000000000000000000000000000028152600401808360ff1660ff16815260200182815260200192505050600060405180830381600087803b15156129d857600080fd5b6102c65a03f115156129e957600080fd5b5050507f808ec1b88c41a836613e4712515f12af4d4862d29ac075e1d013a1e59d67beb88d8c8c8b8b604051808660ff1660ff1681526020018581526020018481526020018381526020018281526020019550505050505060405180910390a15050505050505050505050505050565b6000826001830185020190509392505050565b6020604051908101604052806000815250905600a165627a7a723058208f6fedb933ae9455a749faabe846908b183587ee1a2e42586c8fad40d4f6f03e0029",
  "source": "pragma solidity ^0.4.4;\nimport \"./owned.sol\";\nimport \"./Interface.sol\";\nimport \"./ChainLotPool.sol\";\n\ncontract DrawingTool is owned{\n\n\tChainLotTicketInterface public chainLotTicket;\n  \tCLTokenInterface public clToken;\n  \tChainLotInterface public  chainLot;\n  \n  \tevent PrepareAward(bytes jackpotNumbers, uint poolBlockNumber, uint allTicketsCount);\n\tevent ToBeAward(bytes jackpotNumbers, bytes32 ticketNumber, uint ticketCount, uint ticketId, address user, uint blockNumber, uint awardValue);\n\tevent MatchAwards(bytes32 jackpotNumbers, uint endIndex, uint allTicketsCount);\n\tevent MatchRule(bytes32 jackpotNumbers, bytes32 ticketNumber, uint ticketCount, uint ticketId, uint blockNumber, uint ruleId);\n\tevent DistributeAwards(uint ruleId, uint toDistCount, uint distributedIndex, uint ticketIdsLength, uint awardRulesLength);\n  \tevent TransferAward(address winner, uint value);\n  \tevent TransferDevCut(address dev, uint value);\n  \tevent TransferHistoryCut(address user, uint value);\n  \tevent AddHistoryCut(uint added, uint total);\n  \tevent CalculateAwards(uint8 ruleId, uint winnersTicketCount, uint awardEther, uint totalWinnersAward, uint totalTicketCount);\n  \tevent SplitAward(uint8 ruleId, uint totalWinnersAward, uint leftBalance);\n  \tevent TransferUnawarded(address from, address to, uint value);\n  \tevent GenRandomNumbers(uint random, uint blockNumber, uint hash, uint addressInt, uint shift, uint timestamp, uint difficulty);\n\n\tstruct awardRule{\n\t\tuint whiteNumberCount;\n\t\tuint yellowNumberCount;\n\t\tuint awardEther;\n\t}\n\n\tstruct awardData {\n\t\taddress user;\n\t\tuint value;\n\t}\n\n  \tstruct winnerTicketQueue {\n    \tuint[] ticketIds;\n    \tuint processedIndex;\n    \tuint distributedIndex;\n  \t}\n\n  \t\n  \tfunction init(ChainLotTicketInterface _chainLotTicket,\n\t\t\t\t\t\tCLTokenInterface _clToken,\n\t\t\t\t\t\tChainLotInterface _chainLot) public {\n  \t\tchainLotTicket = _chainLotTicket;\n\t\tclToken = _clToken;\n\t\tchainLot = _chainLot;\n  \t}\n\n  \tfunction getRuleKey(uint _whiteNumberCount, uint _yellowNumberCount, uint maxYellowNumberCount) \n  \t\tinternal view returns(uint index){\n\t\treturn _whiteNumberCount*(maxYellowNumberCount+1)+_yellowNumberCount;\n\t}\n\n\t//calculate jackpot \n\tfunction prepareAwards(ChainLotPool pool) onlyOwner external {\n\t\trequire(pool.stage() == ChainLotPool.DrawingStage.INITIED);\n\n\t\tbytes memory jackpotNumbers = genRandomNumbers(pool.poolBlockNumber(), 8, \n\t\t\tpool.maxWhiteNumberCount(), pool.maxYellowNumberCount(), pool.maxWhiteNumber(), pool.maxYellowNumber());\n\t\t\n\t\tpool.setJackpotNumbers(jackpotNumbers);\n\n\t\tPrepareAward(jackpotNumbers, pool.poolBlockNumber(), pool.getAllTicketsCount());\n\n\t\tpool.setStage(ChainLotPool.DrawingStage.PREPARED);\n\t}\n\n\t//match winners\n\tfunction matchAwards(ChainLotPool pool, uint toMatchCount) onlyOwner \n\t\texternal {\n\t\trequire(pool.stage() == ChainLotPool.DrawingStage.PREPARED);\n\n\t\tbytes32 jackpotNumbers = pool.getJackpotNumbers();\n\t\t//statistic winners\n\t\tuint endIndex = pool.lastMatchedTicketIndex() + toMatchCount;\n\t\tuint allTicketsCount = pool.getAllTicketsCount();\n\t\tif(endIndex > allTicketsCount) endIndex = allTicketsCount;\n\n\t\tfor(uint i = pool.lastMatchedTicketIndex(); i < endIndex; i ++) {\n\t\t\tuint ticketId = pool.allTicketsId(i);\n\t\t\t\n\t\t\tuint ruleId; bytes32 numbers;uint count;uint blockNumber;\n\t\t\t(ruleId, numbers, count, blockNumber) = matchRule(ticketId, pool, jackpotNumbers);\n\t\t\t\n\t\t\tif(ruleId >= 0 && ruleId < pool.getAwardRulesLength()) {\n\t\t        //match one rule!\n\t\t        pool.pushWinnerTicket(ruleId, ticketId);\n\t\t        MatchRule(jackpotNumbers, numbers, count, ticketId, blockNumber, ruleId);\n\t\t\t}\n\t\t}\n\n\t\tMatchAwards(jackpotNumbers, endIndex, allTicketsCount);\n\n\t\tpool.setStage(ChainLotPool.DrawingStage.MATCHED);\n\t\tpool.setLastMatchedTicketIndex(endIndex);\n\t}\n\n\tfunction matchRule(uint ticketId, ChainLotPool pool, bytes32 jackpotNumbers) internal view \n\t\treturns(uint ruleId, bytes32 numbers, uint count, uint blockNumber) {\n\t\t\taddress mb; uint ma;\n\t        (mb, ma, numbers, count, blockNumber) = chainLotTicket.getTicket(ticketId);\n\t      \t\n\t\t\tuint matchedWhiteCount = 0;\n\t\t\tuint matchedYellowCount = 0;\n\t\t\tfor(uint j = 0; j < pool.maxWhiteNumberCount(); j++) {\n\t\t\t\tif(numbers[j] == jackpotNumbers[j]) {\n\t\t\t\t\tmatchedWhiteCount ++;\n\t\t\t\t}\n\t\t\t}\n\t\t\tfor(j = pool.maxWhiteNumberCount(); j < jackpotNumbers.length; j++) {\n\t\t\t\tif(numbers[j] == jackpotNumbers[j]) {\n\t\t\t\t\tmatchedYellowCount ++;\n\t\t\t\t}\n\t\t\t}\n\n\t\t\tuint ruleKey = getRuleKey(matchedWhiteCount, matchedYellowCount, pool.maxYellowNumberCount());\n\t\t\truleId = pool.awardRulesIndex(ruleKey) - 1;\n\t}\n\n\n  \tfunction calculateAwards(ChainLotPool pool, uint8 ruleId, uint8 toCalcCount) onlyOwner external {\n\t  \trequire(pool.stage() == ChainLotPool.DrawingStage.MATCHED);\n\t  \t//calculate winners award, from top to bottom, top winners takes all\n\n\t  \tuint winnerTicketCount = pool.getWinnerTicketCount(ruleId);\n\t  \tuint processedIndex = pool.getProcessedIndex(ruleId);\n\t  \tuint awardEther = pool.getAwardEther(ruleId);\n\t    \n\t    if(winnerTicketCount > processedIndex) {\n\t        uint endIndex = processedIndex + toCalcCount;\n\n\t        if(endIndex > winnerTicketCount) endIndex = winnerTicketCount;\n\n\t        doCaculate(pool, ruleId, processedIndex, endIndex, awardEther);    \n\t    }\n\n\t    if(ruleId == pool.getAwardRulesLength() -1 && endIndex == winnerTicketCount) {\n\t      \tpool.setStage(ChainLotPool.DrawingStage.CALCULATED);\n\t    }\n\n  \t}\n\n  \tfunction doCaculate(ChainLotPool pool, uint8 ruleId, uint processedIndex, uint endIndex, uint awardEther) \n  \t\tonlyOwner internal {\n\t    for(uint j=processedIndex;j<endIndex; j++) {\n          uint totalWinnersAward = 0;\n\t      uint totalTicketCount = 0;\n\t      uint ticketId = pool.getWinnerTicket(ruleId, j);\n          address mb; uint ma; bytes32 numbers; uint count; uint blockNumber;\n          (mb, ma, numbers, count, blockNumber) = chainLotTicket.getTicket(ticketId);\n          totalWinnersAward += count * awardEther;\n          totalTicketCount += count;\n        }\n\n        pool.addTotalWinnersAward(ruleId, totalWinnersAward);\n        pool.addTotalTicketCount(ruleId, totalTicketCount);\n\t\t//move pointer\n     \tpool.setProcessedIndex(ruleId, endIndex);\n\n     \tCalculateAwards(ruleId, endIndex, awardEther, totalWinnersAward, totalTicketCount); \n  \t}\n  \t\n  \tfunction splitAward(ChainLotPool pool) onlyOwner external {\n  \t\trequire(pool.stage() == ChainLotPool.DrawingStage.CALCULATED);\n  \t\tuint totalBalance = clToken.balanceOf(this);\n  \t\tfor(uint8 i=0; i<pool.getAwardRulesLength(); i++) {\n  \t\t\tif(totalBalance >=  pool.getTotalWinnersAward(i)) {\n\t          totalBalance -= pool.getTotalWinnersAward(i);\n\t        }\n\t        else {\n\t          pool.setTotalWinnersAward(i, totalBalance);\n\t          totalBalance = 0;\n\t        }\n\t        SplitAward(i, pool.getTotalWinnersAward(i), totalBalance);\n  \t\t}\n  \t\tpool.setStage(ChainLotPool.DrawingStage.SPLITED);\n  \t}\n\n  \t/*\n\n\n  \tfunction distributeAwards(uint8 ruleId, uint toDistCount) onlyOwner external {\n  \t\trequire(stage == DrawingStage.SPLITED);\n  \t\t//validate last step\n\t  \t//bytes memory jackpotNumbers = jackpotNumbers;\n\t  \tuint endIndex = winnerTickets[ruleId].distributedIndex + toDistCount;\n\t  \tuint ticketIdsLength = winnerTickets[ruleId].ticketIds.length;\n\t  \tif(endIndex > ticketIdsLength) endIndex = ticketIdsLength;\n  \t\tif(awardResults[ruleId].totalTicketCount > 0) {\n  \t\t\tfor(uint j=winnerTickets[ruleId].distributedIndex;j<endIndex; j++){\n\t          uint ticketId = winnerTickets[ruleId].ticketIds[j];\n\t          address mb; uint ma; bytes32 numbers; uint count; uint blockNumber;\n\t          (mb, ma, numbers, count, blockNumber) = chainLotTicket.getTicket(ticketId);\n\t          uint awardValue = count * awardResults[ruleId].totalWinnersAward / awardResults[ruleId].totalTicketCount;\n\t          awardData memory ad = awardData(chainLotTicket.ownerOf(ticketId), awardValue);\n\t          toBeAward.push(ad);\n\t          ToBeAward(jackpotNumbers, numbers, count, ticketId, ad.user, blockNumber, awardValue);\n\t    \t}\n  \t\t}\n\t  \twinnerTickets[ruleId].distributedIndex = endIndex;\n\n\t  \tDistributeAwards(ruleId, toDistCount, endIndex, ticketIdsLength, awardRules.length);\n\n\t  \tif(ruleId == awardRules.length -1 && endIndex == ticketIdsLength) {\n\t  \t\tstage = DrawingStage.DISTRIBUTED;\n\t  \t}\n  \t}\n\n  \tfunction sendAwards(uint toAwardCount) onlyOwner external {\n  \t\trequire(stage == DrawingStage.DISTRIBUTED);\n\n\t\tuint endIndex = awardIndex + toAwardCount;\n\t\tif(endIndex > toBeAward.length) endIndex = toBeAward.length;\n\t\t\n\t  \tuint devCut = 0;\n\t  \tuint _historyCut = 0;\n\t  \tuint hCut = 0;\n\t  \tuint userAward = 0;\n\t  \tfor(uint i=awardIndex; i<endIndex; i++) {\n\t\t\t\tuserAward = toBeAward[i].value * 88/100;\n\t\t\t\t//10% history user cut\n\t\t\t\thCut = toBeAward[i].value/10;\n\t\t\t\t_historyCut += hCut;\n\t\t\t\t//2% dev cut\n\t\t\t\tdevCut += toBeAward[i].value - userAward - hCut;\n\t\t\t\tclToken.transfer(toBeAward[i].user, userAward);\n\t      \t\tTransferAward(toBeAward[i].user, userAward);\n\t\t}\n\t\tif(devCut > 0) {\n\t\t\tclToken.transfer(owner, devCut);\n\t\t\tTransferDevCut(owner, devCut);\n\t\t}\n\t\t\n\t\t//history cut only shared to owner before this pool\n\t\tif(_historyCut > 0) {\n\t\t\thistoryCut += _historyCut;\n\t\t\tAddHistoryCut(_historyCut, historyCut);\n\t\t}\n\t    awardIndex = endIndex;\n\t    if(awardIndex == toBeAward.length) {\n\t    \tstage = DrawingStage.SENT;\n\t    }\n\t}\n\n\tfunction transferUnawarded(address to) onlyOwner external {\n\t\trequire(stage == DrawingStage.SENT);\n\n      \tuint toBeTransfer = clToken.balanceOf(this) - historyCut;\n      \tif(toBeTransfer > 0) {\n      \t\tclToken.transfer(to, toBeTransfer);\n      \t\tTransferUnawarded(address(this), to, toBeTransfer);\n      \t}\n\n      \tstage = DrawingStage.UNAWARED_TRANSFERED;\n\t}*/\n\n\tfunction genRandomNumbers(uint blockNumber, uint shift, uint8 maxWhiteNumberCount, uint8 maxYellowNumberCount,\n\t uint8 maxWhiteNumber, uint8 maxYellowNumber) public returns(bytes _numbers){\n\t\trequire(blockNumber < block.number);\n\t\tuint hash = uint(block.blockhash(blockNumber));\n\t\tuint addressInt = uint(tx.origin);\n\t\tuint256 random = addressInt * hash;\n\t\trandom = uint256(keccak256(block.timestamp, block.difficulty, hash, addressInt));\n\t\tGenRandomNumbers(random, blockNumber, hash, addressInt, shift, block.timestamp, block.difficulty);\n\t\trequire(random != 0);\n\t\trandom = random >> shift;\n\t\tbytes memory numbers = new bytes(maxWhiteNumberCount+maxYellowNumberCount);\n\t\tfor(uint8 i=0;i<maxWhiteNumberCount;i++) {\n\t\t\tnumbers[i] = byte(random%maxWhiteNumber + 1);\n\t\t\trandom = random >> 8;\n\n\t\t}\n\t\tfor(i=maxWhiteNumberCount;i<numbers.length;i++) {\n\t\t\tnumbers[i] = byte(random%maxYellowNumber + 1);\n\t\t\trandom = random >> 8;\n\n\t\t}\n\t\treturn numbers;\n\t}\n\n}\n",
  "sourcePath": "/Users/phx/eth/chainlot/contracts/DrawingTool.sol",
  "compiler": {
    "name": "solc",
    "version": "0.4.19+commit.c4cbbb05.Emscripten.clang"
  },
  "schemaVersion": "2.0.0",
  "updatedAt": "2018-06-22T16:30:19.030Z"
}