{
  "contractName": "owned",
  "abi": [
    {
      "constant": true,
      "inputs": [],
      "name": "owner",
      "outputs": [
        {
          "name": "",
          "type": "address"
        }
      ],
      "payable": false,
      "stateMutability": "view",
      "type": "function"
    },
    {
      "inputs": [],
      "payable": false,
      "stateMutability": "nonpayable",
      "type": "constructor"
    },
    {
      "constant": false,
      "inputs": [
        {
          "name": "newOwner",
          "type": "address"
        }
      ],
      "name": "transferOwnership",
      "outputs": [],
      "payable": false,
      "stateMutability": "nonpayable",
      "type": "function"
    }
  ],
  "bytecode": "0x6060604052341561000f57600080fd5b336000806101000a81548173ffffffffffffffffffffffffffffffffffffffff021916908373ffffffffffffffffffffffffffffffffffffffff1602179055506101ce8061005e6000396000f30060606040526004361061004c576000357c0100000000000000000000000000000000000000000000000000000000900463ffffffff1680638da5cb5b14610051578063f2fde38b146100a6575b600080fd5b341561005c57600080fd5b6100646100df565b604051808273ffffffffffffffffffffffffffffffffffffffff1673ffffffffffffffffffffffffffffffffffffffff16815260200191505060405180910390f35b34156100b157600080fd5b6100dd600480803573ffffffffffffffffffffffffffffffffffffffff16906020019091905050610104565b005b6000809054906101000a900473ffffffffffffffffffffffffffffffffffffffff1681565b6000809054906101000a900473ffffffffffffffffffffffffffffffffffffffff1673ffffffffffffffffffffffffffffffffffffffff163373ffffffffffffffffffffffffffffffffffffffff1614151561015f57600080fd5b806000806101000a81548173ffffffffffffffffffffffffffffffffffffffff021916908373ffffffffffffffffffffffffffffffffffffffff160217905550505600a165627a7a723058208cf559e1de649d6c80cd1eccdef102948e3ebbcb1185eddd1f79fadd249589900029",
  "source": "pragma solidity ^0.4.4;\n\ncontract owned {\n    address public owner;\n\n    function owned() public {\n        owner = msg.sender;\n    }\n\n    modifier onlyOwner {\n        require(msg.sender == owner);\n        _;\n    }\n\n    function transferOwnership(address newOwner) onlyOwner public {\n        owner = newOwner;\n    }\n}\n\n/*\naward rules:\n  * 5+1 jackpot\n  * 5+0 5000 ETH\n  * 4+1 50 ETH\n  * 4+0 2.5 ETH\n  * 3+1 1 ETH\n  * 3+0 0.05 ETH\n  * 2+1 0.05 ETH\n  * 1+1 0.02 ETH\n  * 0+1 0.01 ETH\n*/\ncontract ChainLot is owned{\n\tuint8 public maxWhiteNumber; //70;\n\tuint8 public maxYellowNumber; //25;\n\tuint256 public etherPerTicket; //10**18/100;\n\n\tstruct ticket {\n\t\tuint8[] numbers;\n\t\tuint256 count;\n\t\taddress user;\n\t\tuint256 blockNumber;\n\t}\n\n\tticket[] allTickets;\n\n\tevent BuyTicket(uint8[] numbers, uint256 ticketCount, address user, uint256 blockNumber, uint256 ticketsCount);\n\tevent LOG(uint8 n, uint256 random);\n\n  \tfunction ChainLot(uint8 _maxWhiteNumber, uint8 _maxYellowNumber, uint256 _etherPerTicket) public {\n  \t\tmaxWhiteNumber = _maxWhiteNumber;\n  \t\tmaxYellowNumber = _maxYellowNumber;\n  \t\tetherPerTicket = _etherPerTicket;\n  \t}\n\n  \t//uint16[6] \n  \t//1-5: <=70\n  \t//6: <=25\n  \tfunction buyTicket(uint8[] numbers) payable public {\n  \t\trequire(numbers.length == 6);\n  \t\tfor(uint8 index=0; index<5; index = index+1) {\n  \t\t\trequire(numbers[index]>=1 && numbers[index]<=maxWhiteNumber);\t\n  \t\t} \t\t\n  \t\trequire(numbers[5]>=1&&numbers[5]<=maxYellowNumber);\n\n  \t\tuint256 ticketCount = msg.value/etherPerTicket;\n  \t\trequire(ticketCount > 0);\n  \t\tticket memory t = ticket(numbers, ticketCount, msg.sender, block.number);\n  \t\tallTickets.push(t);\n  \t\tBuyTicket(t.numbers, t.count, t.user, t.blockNumber, allTickets.length);\n  \t}\n\n  \t//random numbers\n  \t//random seed: number-1 block hash x user address\n  \tfunction buyRandom() payable public {\n  \t\tuint256 lastHash = uint256(block.blockhash(block.number - 1));\n  \t\tuint256 addressInt = uint256(msg.sender);\n  \t\tuint256 random = lastHash * addressInt;\n  \t\tuint8[] memory numbers = new uint8[](6);\n  \t\tfor(uint8 index=0;index<5;index=index+1) {\n  \t\t\tnumbers[index] = uint8(random%maxWhiteNumber + 1);\n  \t\t\tLOG(numbers[index], random);\n  \t\t\trandom = random >> 8;\n\n  \t\t}\n  \t\tnumbers[5] = uint8(random%maxYellowNumber + 1);\n  \t\t//LOG(numbers[5], random);\n  \t\tbuyTicket(numbers);\n  \t}\n\n  \t//calculate jackpot and other winners and send awards\n  \tfunction award() onlyOwner public {\n\n  \t}\n}\n",
  "sourcePath": "/Users/phx/eth/chainlot/contracts/ChainLot.sol",
  "compiler": {
    "name": "solc",
    "version": "0.4.19+commit.c4cbbb05.Emscripten.clang"
  },
  "schemaVersion": "1.0.1",
  "updatedAt": "2018-03-19T13:38:04.721Z"
}